{
  "contractName": "Achievements",
  "abi": [
    {
      "inputs": [
        {
          "internalType": "address",
          "name": "_admin",
          "type": "address"
        },
        {
          "internalType": "address",
          "name": "_city",
          "type": "address"
        }
      ],
      "stateMutability": "nonpayable",
      "type": "constructor"
    },
    {
      "inputs": [
        {
          "internalType": "string",
          "name": "key",
          "type": "string"
        }
      ],
      "name": "newAchievement",
      "outputs": [],
      "stateMutability": "nonpayable",
      "type": "function"
    },
    {
      "inputs": [
        {
          "internalType": "uint256",
          "name": "tokenId",
          "type": "uint256"
        },
        {
          "internalType": "string",
          "name": "key",
          "type": "string"
        },
        {
          "internalType": "uint256",
          "name": "wethReward",
          "type": "uint256"
        },
        {
          "internalType": "uint256",
          "name": "maticReward",
          "type": "uint256"
        }
      ],
      "name": "completedAchievement",
      "outputs": [],
      "stateMutability": "nonpayable",
      "type": "function"
    },
    {
      "inputs": [
        {
          "internalType": "string",
          "name": "key",
          "type": "string"
        }
      ],
      "name": "getAchievementCount",
      "outputs": [
        {
          "internalType": "uint32",
          "name": "",
          "type": "uint32"
        }
      ],
      "stateMutability": "view",
      "type": "function",
      "constant": true
    },
    {
      "inputs": [
        {
          "internalType": "uint256",
          "name": "tokenId",
          "type": "uint256"
        },
        {
          "internalType": "string",
          "name": "key",
          "type": "string"
        }
      ],
      "name": "checkIfCompleted",
      "outputs": [
        {
          "internalType": "bool",
          "name": "",
          "type": "bool"
        }
      ],
      "stateMutability": "view",
      "type": "function",
      "constant": true
    },
    {
      "inputs": [
        {
          "internalType": "uint256",
          "name": "tokenId",
          "type": "uint256"
        },
        {
          "internalType": "string",
          "name": "reward",
          "type": "string"
        }
      ],
      "name": "addReward",
      "outputs": [],
      "stateMutability": "nonpayable",
      "type": "function"
    },
    {
      "inputs": [
        {
          "internalType": "uint256",
          "name": "tokenId",
          "type": "uint256"
        },
        {
          "internalType": "uint256",
          "name": "index",
          "type": "uint256"
        }
      ],
      "name": "removeReward",
      "outputs": [],
      "stateMutability": "nonpayable",
      "type": "function"
    },
    {
      "inputs": [
        {
          "internalType": "uint256",
          "name": "tokenId",
          "type": "uint256"
        }
      ],
      "name": "getRewardList",
      "outputs": [
        {
          "internalType": "string[]",
          "name": "",
          "type": "string[]"
        }
      ],
      "stateMutability": "view",
      "type": "function",
      "constant": true
    },
    {
      "inputs": [
        {
          "internalType": "address",
          "name": "newAdmin",
          "type": "address"
        }
      ],
      "name": "changeAdmin",
      "outputs": [],
      "stateMutability": "nonpayable",
      "type": "function"
    }
  ],
  "bytecode": "0x60806040523480156200001157600080fd5b5060405162001a0738038062001a078339818101604052810190620000379190620001ed565b33600460006101000a81548173ffffffffffffffffffffffffffffffffffffffff021916908373ffffffffffffffffffffffffffffffffffffffff16021790555081600360006101000a81548173ffffffffffffffffffffffffffffffffffffffff021916908373ffffffffffffffffffffffffffffffffffffffff160217905550806000806101000a81548173ffffffffffffffffffffffffffffffffffffffff021916908373ffffffffffffffffffffffffffffffffffffffff16021790555060008054906101000a900473ffffffffffffffffffffffffffffffffffffffff1673ffffffffffffffffffffffffffffffffffffffff166346e0d77c6040518163ffffffff1660e01b8152600401600060405180830381600087803b1580156200016257600080fd5b505af115801562000177573d6000803e3d6000fd5b50505050505062000234565b600080fd5b600073ffffffffffffffffffffffffffffffffffffffff82169050919050565b6000620001b58262000188565b9050919050565b620001c781620001a8565b8114620001d357600080fd5b50565b600081519050620001e781620001bc565b92915050565b6000806040838503121562000207576200020662000183565b5b60006200021785828601620001d6565b92505060206200022a85828601620001d6565b9150509250929050565b6117c380620002446000396000f3fe608060405234801561001057600080fd5b50600436106100885760003560e01c8063276b699d1161005b578063276b699d146101255780637d6aeb9d146101415780638f2839701461015d5780639f80c9f61461017957610088565b80630a8cf0f91461008d5780630cf9fce0146100a95780630dddee9b146100d95780630f5e5ff6146100f5575b600080fd5b6100a760048036038101906100a29190610ed8565b6101a9565b005b6100c360048036038101906100be9190610f57565b61032b565b6040516100d09190610fce565b60405180910390f35b6100f360048036038101906100ee9190610fe9565b610375565b005b61010f600480360381019061010a9190610ed8565b6106de565b60405161011c919061108b565b60405180910390f35b61013f600480360381019061013a91906110a6565b61075e565b005b61015b60048036038101906101569190610f57565b6108f2565b005b61017760048036038101906101729190611144565b610a04565b005b610193600480360381019061018e9190611171565b610ad8565b6040516101a091906112e8565b60405180910390f35b600360009054906101000a900473ffffffffffffffffffffffffffffffffffffffff1673ffffffffffffffffffffffffffffffffffffffff163373ffffffffffffffffffffffffffffffffffffffff1614610239576040517f08c379a000000000000000000000000000000000000000000000000000000000815260040161023090611367565b60405180910390fd5b6000151560018260405161024d91906113c3565b908152602001604051809103902060000160049054906101000a900460ff161515146102ae576040517f08c379a00000000000000000000000000000000000000000000000000000000081526004016102a590611426565b60405180910390fd5b600180826040516102bf91906113c3565b908152602001604051809103902060000160046101000a81548160ff02191690831515021790555060006001826040516102f991906113c3565b908152602001604051809103902060000160006101000a81548163ffffffff021916908363ffffffff16021790555050565b600060018260405161033d91906113c3565b9081526020016040518091039020600101600084815260200190815260200160002060009054906101000a900460ff16905092915050565b600360009054906101000a900473ffffffffffffffffffffffffffffffffffffffff1673ffffffffffffffffffffffffffffffffffffffff163373ffffffffffffffffffffffffffffffffffffffff1614610405576040517f08c379a00000000000000000000000000000000000000000000000000000000081526004016103fc90611367565b60405180910390fd5b6001151560018460405161041991906113c3565b908152602001604051809103902060000160049054906101000a900460ff1615151461047a576040517f08c379a000000000000000000000000000000000000000000000000000000000815260040161047190611492565b60405180910390fd5b6000151560018460405161048e91906113c3565b9081526020016040518091039020600101600086815260200190815260200160002060009054906101000a900460ff16151514610500576040517f08c379a00000000000000000000000000000000000000000000000000000000081526004016104f7906114fe565b60405180910390fd5b60018360405161051091906113c3565b9081526020016040518091039020600001600081819054906101000a900463ffffffff16809291906105419061154d565b91906101000a81548163ffffffff021916908363ffffffff160217905550506001808460405161057191906113c3565b9081526020016040518091039020600101600086815260200190815260200160002060006101000a81548160ff02191690831515021790555060008211156106415760008054906101000a900473ffffffffffffffffffffffffffffffffffffffff1673ffffffffffffffffffffffffffffffffffffffff1663af28208385846040518363ffffffff1660e01b815260040161060e929190611589565b600060405180830381600087803b15801561062857600080fd5b505af115801561063c573d6000803e3d6000fd5b505050505b60008111156106d85760008054906101000a900473ffffffffffffffffffffffffffffffffffffffff1673ffffffffffffffffffffffffffffffffffffffff1663657f58ac85836040518363ffffffff1660e01b81526004016106a5929190611589565b600060405180830381600087803b1580156106bf57600080fd5b505af11580156106d3573d6000803e3d6000fd5b505050505b50505050565b6000600115156001836040516106f491906113c3565b908152602001604051809103902060000160049054906101000a900460ff16151514156107545760018260405161072b91906113c3565b908152602001604051809103902060000160009054906101000a900463ffffffff169050610759565b600090505b919050565b600360009054906101000a900473ffffffffffffffffffffffffffffffffffffffff1673ffffffffffffffffffffffffffffffffffffffff163373ffffffffffffffffffffffffffffffffffffffff16146107ee576040517f08c379a00000000000000000000000000000000000000000000000000000000081526004016107e590611367565b60405180910390fd5b60026000838152602001908152602001600020600001548110610846576040517f08c379a000000000000000000000000000000000000000000000000000000000815260040161083d906115fe565b60405180910390fd5b60026000838152602001908152602001600020600001600081548092919061086d9061161e565b9190505550600260008381526020019081526020016000206001016000600260008581526020019081526020016000206000015481526020019081526020016000206002600084815260200190815260200160002060010160008381526020019081526020016000209080546108e290611677565b6108ed929190610c4e565b505050565b600360009054906101000a900473ffffffffffffffffffffffffffffffffffffffff1673ffffffffffffffffffffffffffffffffffffffff163373ffffffffffffffffffffffffffffffffffffffff1614610982576040517f08c379a000000000000000000000000000000000000000000000000000000000815260040161097990611367565b60405180910390fd5b806002600084815260200190815260200160002060010160006002600086815260200190815260200160002060000154815260200190815260200160002090805190602001906109d3929190610cdb565b506002600083815260200190815260200160002060000160008154809291906109fb906116a9565b91905055505050565b600460009054906101000a900473ffffffffffffffffffffffffffffffffffffffff1673ffffffffffffffffffffffffffffffffffffffff163373ffffffffffffffffffffffffffffffffffffffff1614610a94576040517f08c379a0000000000000000000000000000000000000000000000000000000008152600401610a8b9061173e565b60405180910390fd5b80600360006101000a81548173ffffffffffffffffffffffffffffffffffffffff021916908373ffffffffffffffffffffffffffffffffffffffff16021790555050565b60606000600260008481526020019081526020016000206000015467ffffffffffffffff811115610b0c57610b0b610dad565b5b604051908082528060200260200182016040528015610b3f57816020015b6060815260200190600190039081610b2a5790505b50905060005b6002600085815260200190815260200160002060000154811015610c44576002600085815260200190815260200160002060010160008281526020019081526020016000208054610b9590611677565b80601f0160208091040260200160405190810160405280929190818152602001828054610bc190611677565b8015610c0e5780601f10610be357610100808354040283529160200191610c0e565b820191906000526020600020905b815481529060010190602001808311610bf157829003601f168201915b5050505050828281518110610c2657610c2561175e565b5b60200260200101819052508080610c3c906116a9565b915050610b45565b5080915050919050565b828054610c5a90611677565b90600052602060002090601f016020900481019282610c7c5760008555610cca565b82601f10610c8d5780548555610cca565b82800160010185558215610cca57600052602060002091601f016020900482015b82811115610cc9578254825591600101919060010190610cae565b5b509050610cd79190610d61565b5090565b828054610ce790611677565b90600052602060002090601f016020900481019282610d095760008555610d50565b82601f10610d2257805160ff1916838001178555610d50565b82800160010185558215610d50579182015b82811115610d4f578251825591602001919060010190610d34565b5b509050610d5d9190610d61565b5090565b5b80821115610d7a576000816000905550600101610d62565b5090565b6000604051905090565b600080fd5b600080fd5b600080fd5b600080fd5b6000601f19601f8301169050919050565b7f4e487b7100000000000000000000000000000000000000000000000000000000600052604160045260246000fd5b610de582610d9c565b810181811067ffffffffffffffff82111715610e0457610e03610dad565b5b80604052505050565b6000610e17610d7e565b9050610e238282610ddc565b919050565b600067ffffffffffffffff821115610e4357610e42610dad565b5b610e4c82610d9c565b9050602081019050919050565b82818337600083830152505050565b6000610e7b610e7684610e28565b610e0d565b905082815260208101848484011115610e9757610e96610d97565b5b610ea2848285610e59565b509392505050565b600082601f830112610ebf57610ebe610d92565b5b8135610ecf848260208601610e68565b91505092915050565b600060208284031215610eee57610eed610d88565b5b600082013567ffffffffffffffff811115610f0c57610f0b610d8d565b5b610f1884828501610eaa565b91505092915050565b6000819050919050565b610f3481610f21565b8114610f3f57600080fd5b50565b600081359050610f5181610f2b565b92915050565b60008060408385031215610f6e57610f6d610d88565b5b6000610f7c85828601610f42565b925050602083013567ffffffffffffffff811115610f9d57610f9c610d8d565b5b610fa985828601610eaa565b9150509250929050565b60008115159050919050565b610fc881610fb3565b82525050565b6000602082019050610fe36000830184610fbf565b92915050565b6000806000806080858703121561100357611002610d88565b5b600061101187828801610f42565b945050602085013567ffffffffffffffff81111561103257611031610d8d565b5b61103e87828801610eaa565b935050604061104f87828801610f42565b925050606061106087828801610f42565b91505092959194509250565b600063ffffffff82169050919050565b6110858161106c565b82525050565b60006020820190506110a0600083018461107c565b92915050565b600080604083850312156110bd576110bc610d88565b5b60006110cb85828601610f42565b92505060206110dc85828601610f42565b9150509250929050565b600073ffffffffffffffffffffffffffffffffffffffff82169050919050565b6000611111826110e6565b9050919050565b61112181611106565b811461112c57600080fd5b50565b60008135905061113e81611118565b92915050565b60006020828403121561115a57611159610d88565b5b60006111688482850161112f565b91505092915050565b60006020828403121561118757611186610d88565b5b600061119584828501610f42565b91505092915050565b600081519050919050565b600082825260208201905092915050565b6000819050602082019050919050565b600081519050919050565b600082825260208201905092915050565b60005b838110156112045780820151818401526020810190506111e9565b83811115611213576000848401525b50505050565b6000611224826111ca565b61122e81856111d5565b935061123e8185602086016111e6565b61124781610d9c565b840191505092915050565b600061125e8383611219565b905092915050565b6000602082019050919050565b600061127e8261119e565b61128881856111a9565b93508360208202850161129a856111ba565b8060005b858110156112d657848403895281516112b78582611252565b94506112c283611266565b925060208a0199505060018101905061129e565b50829750879550505050505092915050565b600060208201905081810360008301526113028184611273565b905092915050565b600082825260208201905092915050565b7f4e6f7441646d696e000000000000000000000000000000000000000000000000600082015250565b600061135160088361130a565b915061135c8261131b565b602082019050919050565b6000602082019050818103600083015261138081611344565b9050919050565b600081905092915050565b600061139d826111ca565b6113a78185611387565b93506113b78185602086016111e6565b80840191505092915050565b60006113cf8284611392565b915081905092915050565b7f43726561746564416c7265616479000000000000000000000000000000000000600082015250565b6000611410600e8361130a565b915061141b826113da565b602082019050919050565b6000602082019050818103600083015261143f81611403565b9050919050565b7f4e6f744372656174656400000000000000000000000000000000000000000000600082015250565b600061147c600a8361130a565b915061148782611446565b602082019050919050565b600060208201905081810360008301526114ab8161146f565b9050919050565b7f436f6d706c65746564416c726561647900000000000000000000000000000000600082015250565b60006114e860108361130a565b91506114f3826114b2565b602082019050919050565b60006020820190508181036000830152611517816114db565b9050919050565b7f4e487b7100000000000000000000000000000000000000000000000000000000600052601160045260246000fd5b60006115588261106c565b915063ffffffff82141561156f5761156e61151e565b5b600182019050919050565b61158381610f21565b82525050565b600060408201905061159e600083018561157a565b6115ab602083018461157a565b9392505050565b7f43616e7452656d6f766500000000000000000000000000000000000000000000600082015250565b60006115e8600a8361130a565b91506115f3826115b2565b602082019050919050565b60006020820190508181036000830152611617816115db565b9050919050565b600061162982610f21565b9150600082141561163d5761163c61151e565b5b600182039050919050565b7f4e487b7100000000000000000000000000000000000000000000000000000000600052602260045260246000fd5b6000600282049050600182168061168f57607f821691505b602082108114156116a3576116a2611648565b5b50919050565b60006116b482610f21565b91507fffffffffffffffffffffffffffffffffffffffffffffffffffffffffffffffff8214156116e7576116e661151e565b5b600182019050919050565b7f2e00000000000000000000000000000000000000000000000000000000000000600082015250565b600061172860018361130a565b9150611733826116f2565b602082019050919050565b600060208201905081810360008301526117578161171b565b9050919050565b7f4e487b7100000000000000000000000000000000000000000000000000000000600052603260045260246000fdfea26469706673582212203fa4d7efdad7aded1ba4a5ac6e9cc687ccf219a6d2b0bd9d7a0b4d5dc802353c64736f6c634300080b0033",
  "immutableReferences": {},
  "source": "// SPDX-License-Identifier: MIT\r\npragma solidity ^0.8.11;\r\n\r\nimport \"./CityContract.sol\";\r\n\r\ncontract Achievements {\r\n\r\n    CityContract cityContract;\r\n\r\n    constructor(address _admin, address _city) {\r\n        owner = msg.sender;\r\n        admin = _admin;\r\n\r\n        cityContract = CityContract(_city);\r\n        cityContract.initAchievementContract();\r\n    }\r\n\r\n    mapping(string => Achievement) achievements; // list of achievements\r\n    mapping(uint => Rewards) rewards; // list of rewards every person has aquired\r\n    address admin; // admin can change data in the smart contract\r\n    address owner; // owner can change the admin\r\n\r\n    // #region Achievement progress\r\n    struct Achievement {\r\n        uint32 count; // number of people who completed the achievement\r\n        bool created;\r\n        mapping(uint => bool) completed;\r\n    }\r\n\r\n    // creating a new achievement in the contract\r\n    function newAchievement(string memory key) external onlyAdmin {\r\n        require(achievements[key].created == false, \"CreatedAlready\");\r\n\r\n        achievements[key].created = true;\r\n        achievements[key].count = 0;\r\n    }\r\n\r\n    // called when a person completed an achievement\r\n    function completedAchievement(uint tokenId, string memory key, uint wethReward, uint maticReward) external onlyAdmin {\r\n        require(achievements[key].created == true, 'NotCreated');\r\n        require(achievements[key].completed[tokenId] == false, \"CompletedAlready\");\r\n\r\n        achievements[key].count++;\r\n        achievements[key].completed[tokenId] = true;\r\n\r\n        if(wethReward > 0) {\r\n            cityContract.sendWeth(tokenId, wethReward);\r\n        }\r\n        if(maticReward > 0) {\r\n            cityContract.sendMatic(tokenId,maticReward);\r\n        }\r\n    }\r\n\r\n    // returns the number of people who completed the achievement\r\n    function getAchievementCount(string memory key) external view returns(uint32) {\r\n        if(achievements[key].created == true) {\r\n            return achievements[key].count;\r\n        }\r\n        else {\r\n            return 0;\r\n        }\r\n    }\r\n\r\n    // returns true if the person completed the achievement and false if he didn't\r\n    function checkIfCompleted(uint tokenId, string memory key) external view returns(bool) {\r\n        return achievements[key].completed[tokenId];\r\n    }\r\n\r\n    // #endregion\r\n\r\n    // #region Achievement rewards - OVO JE NEPOTREBNO\r\n\r\n    struct Rewards {\r\n        uint numOfRewards;\r\n        mapping(uint => string) rewardList;\r\n    }\r\n\r\n    function addReward(uint tokenId, string memory reward) external onlyAdmin {\r\n        rewards[tokenId].rewardList[rewards[tokenId].numOfRewards] = reward;\r\n        rewards[tokenId].numOfRewards++;\r\n    }\r\n\r\n    function removeReward(uint tokenId, uint index) external onlyAdmin {\r\n        require(index < rewards[tokenId].numOfRewards, 'CantRemove');\r\n\r\n        rewards[tokenId].numOfRewards--;\r\n        rewards[tokenId].rewardList[index] = rewards[tokenId].rewardList[rewards[tokenId].numOfRewards];\r\n    }\r\n\r\n    function getRewardList(uint tokenId) external view returns(string[] memory) {\r\n        string[] memory r = new string[](rewards[tokenId].numOfRewards);\r\n\r\n        for(uint i = 0; i < rewards[tokenId].numOfRewards; i++) {\r\n            r[i] = rewards[tokenId].rewardList[i];\r\n        }\r\n\r\n        return r;\r\n    }\r\n\r\n    // #endregion\r\n\r\n    // #region Utils\r\n\r\n    // modifier is used to check if the person who called the function is the Admin\r\n    modifier onlyAdmin() {\r\n        require(msg.sender == admin, 'NotAdmin');\r\n        _;\r\n    }\r\n\r\n    // function that can change the Admin address in case a proble occurs - can be calles only by the owner\r\n    function changeAdmin(address newAdmin) external {\r\n        require(msg.sender == owner, '.');\r\n        admin = newAdmin;\r\n    }\r\n\r\n    // #endregion\r\n}",
  "sourcePath": "C:\\Users\\Dario Vajda\\OneDrive\\Documents\\nft\\smart_contracts\\contracts\\Achievements.sol",
  "compiler": {
    "name": "solc",
    "version": "0.8.11+commit.d7f03943.Emscripten.clang"
  },
  "schemaVersion": "3.4.4",
  "updatedAt": "2022-08-26T12:40:40.506Z",
  "networkType": "ethereum",
  "devdoc": {
    "kind": "dev",
    "methods": {},
    "version": 1
  },
  "userdoc": {
    "kind": "user",
    "methods": {},
    "version": 1
  }
}