{
  "contractName": "Achievements",
  "abi": [
    {
      "inputs": [
        {
          "internalType": "address",
          "name": "_admin",
          "type": "address"
        }
      ],
      "stateMutability": "nonpayable",
      "type": "constructor"
    },
    {
      "inputs": [
        {
          "internalType": "string",
          "name": "key",
          "type": "string"
        }
      ],
      "name": "newAchievement",
      "outputs": [],
      "stateMutability": "nonpayable",
      "type": "function"
    },
    {
      "inputs": [
        {
          "internalType": "uint256",
          "name": "tokenId",
          "type": "uint256"
        },
        {
          "internalType": "string",
          "name": "key",
          "type": "string"
        }
      ],
      "name": "completedAchievement",
      "outputs": [],
      "stateMutability": "nonpayable",
      "type": "function"
    },
    {
      "inputs": [
        {
          "internalType": "string",
          "name": "key",
          "type": "string"
        }
      ],
      "name": "getAchievementCount",
      "outputs": [
        {
          "internalType": "uint32",
          "name": "",
          "type": "uint32"
        }
      ],
      "stateMutability": "view",
      "type": "function",
      "constant": true
    },
    {
      "inputs": [
        {
          "internalType": "uint256",
          "name": "tokenId",
          "type": "uint256"
        },
        {
          "internalType": "string",
          "name": "key",
          "type": "string"
        }
      ],
      "name": "checkIfCompleted",
      "outputs": [
        {
          "internalType": "bool",
          "name": "",
          "type": "bool"
        }
      ],
      "stateMutability": "view",
      "type": "function",
      "constant": true
    },
    {
      "inputs": [
        {
          "internalType": "uint256",
          "name": "tokenId",
          "type": "uint256"
        },
        {
          "internalType": "string",
          "name": "reward",
          "type": "string"
        }
      ],
      "name": "addReward",
      "outputs": [],
      "stateMutability": "nonpayable",
      "type": "function"
    },
    {
      "inputs": [
        {
          "internalType": "uint256",
          "name": "tokenId",
          "type": "uint256"
        },
        {
          "internalType": "uint256",
          "name": "index",
          "type": "uint256"
        }
      ],
      "name": "removeReward",
      "outputs": [],
      "stateMutability": "nonpayable",
      "type": "function"
    },
    {
      "inputs": [
        {
          "internalType": "uint256",
          "name": "tokenId",
          "type": "uint256"
        }
      ],
      "name": "getRewardList",
      "outputs": [
        {
          "internalType": "string[]",
          "name": "",
          "type": "string[]"
        }
      ],
      "stateMutability": "view",
      "type": "function",
      "constant": true
    },
    {
      "inputs": [
        {
          "internalType": "address",
          "name": "newAdmin",
          "type": "address"
        }
      ],
      "name": "changeAdmin",
      "outputs": [],
      "stateMutability": "nonpayable",
      "type": "function"
    }
  ],
  "bytecode": "0x60806040523480156200001157600080fd5b50604051620017443803806200174483398181016040528101906200003791906200012a565b33600360006101000a81548173ffffffffffffffffffffffffffffffffffffffff021916908373ffffffffffffffffffffffffffffffffffffffff16021790555080600260006101000a81548173ffffffffffffffffffffffffffffffffffffffff021916908373ffffffffffffffffffffffffffffffffffffffff160217905550506200015c565b600080fd5b600073ffffffffffffffffffffffffffffffffffffffff82169050919050565b6000620000f282620000c5565b9050919050565b6200010481620000e5565b81146200011057600080fd5b50565b6000815190506200012481620000f9565b92915050565b600060208284031215620001435762000142620000c0565b5b6000620001538482850162000113565b91505092915050565b6115d8806200016c6000396000f3fe608060405234801561001057600080fd5b50600436106100885760003560e01c806342a154351161005b57806342a15435146101255780637d6aeb9d146101415780638f2839701461015d5780639f80c9f61461017957610088565b80630a8cf0f91461008d5780630cf9fce0146100a95780630f5e5ff6146100d9578063276b699d14610109575b600080fd5b6100a760048036038101906100a29190610da8565b6101a9565b005b6100c360048036038101906100be9190610e27565b61032b565b6040516100d09190610e9e565b60405180910390f35b6100f360048036038101906100ee9190610da8565b610374565b6040516101009190610ed8565b60405180910390f35b610123600480360381019061011e9190610ef3565b6103f4565b005b61013f600480360381019061013a9190610e27565b610588565b005b61015b60048036038101906101569190610e27565b6107c2565b005b61017760048036038101906101729190610f91565b6108d4565b005b610193600480360381019061018e9190610fbe565b6109a8565b6040516101a09190611135565b60405180910390f35b600260009054906101000a900473ffffffffffffffffffffffffffffffffffffffff1673ffffffffffffffffffffffffffffffffffffffff163373ffffffffffffffffffffffffffffffffffffffff1614610239576040517f08c379a0000000000000000000000000000000000000000000000000000000008152600401610230906111b4565b60405180910390fd5b6000151560008260405161024d9190611210565b908152602001604051809103902060000160049054906101000a900460ff161515146102ae576040517f08c379a00000000000000000000000000000000000000000000000000000000081526004016102a590611273565b60405180910390fd5b60016000826040516102c09190611210565b908152602001604051809103902060000160046101000a81548160ff021916908315150217905550600080826040516102f99190611210565b908152602001604051809103902060000160006101000a81548163ffffffff021916908363ffffffff16021790555050565b6000808260405161033c9190611210565b9081526020016040518091039020600101600084815260200190815260200160002060009054906101000a900460ff16905092915050565b60006001151560008360405161038a9190611210565b908152602001604051809103902060000160049054906101000a900460ff16151514156103ea576000826040516103c19190611210565b908152602001604051809103902060000160009054906101000a900463ffffffff1690506103ef565b600090505b919050565b600260009054906101000a900473ffffffffffffffffffffffffffffffffffffffff1673ffffffffffffffffffffffffffffffffffffffff163373ffffffffffffffffffffffffffffffffffffffff1614610484576040517f08c379a000000000000000000000000000000000000000000000000000000000815260040161047b906111b4565b60405180910390fd5b600160008381526020019081526020016000206000015481106104dc576040517f08c379a00000000000000000000000000000000000000000000000000000000081526004016104d3906112df565b60405180910390fd5b6001600083815260200190815260200160002060000160008154809291906105039061132e565b91905055506001600083815260200190815260200160002060010160006001600085815260200190815260200160002060000154815260200190815260200160002060016000848152602001908152602001600020600101600083815260200190815260200160002090805461057890611387565b610583929190610b1e565b505050565b600260009054906101000a900473ffffffffffffffffffffffffffffffffffffffff1673ffffffffffffffffffffffffffffffffffffffff163373ffffffffffffffffffffffffffffffffffffffff1614610618576040517f08c379a000000000000000000000000000000000000000000000000000000000815260040161060f906111b4565b60405180910390fd5b6001151560008260405161062c9190611210565b908152602001604051809103902060000160049054906101000a900460ff1615151461068d576040517f08c379a000000000000000000000000000000000000000000000000000000000815260040161068490611405565b60405180910390fd5b600015156000826040516106a19190611210565b9081526020016040518091039020600101600084815260200190815260200160002060009054906101000a900460ff16151514610713576040517f08c379a000000000000000000000000000000000000000000000000000000000815260040161070a90611471565b60405180910390fd5b6000816040516107239190611210565b9081526020016040518091039020600001600081819054906101000a900463ffffffff168092919061075490611491565b91906101000a81548163ffffffff021916908363ffffffff1602179055505060016000826040516107859190611210565b9081526020016040518091039020600101600084815260200190815260200160002060006101000a81548160ff0219169083151502179055505050565b600260009054906101000a900473ffffffffffffffffffffffffffffffffffffffff1673ffffffffffffffffffffffffffffffffffffffff163373ffffffffffffffffffffffffffffffffffffffff1614610852576040517f08c379a0000000000000000000000000000000000000000000000000000000008152600401610849906111b4565b60405180910390fd5b806001600084815260200190815260200160002060010160006001600086815260200190815260200160002060000154815260200190815260200160002090805190602001906108a3929190610bab565b506001600083815260200190815260200160002060000160008154809291906108cb906114be565b91905055505050565b600360009054906101000a900473ffffffffffffffffffffffffffffffffffffffff1673ffffffffffffffffffffffffffffffffffffffff163373ffffffffffffffffffffffffffffffffffffffff1614610964576040517f08c379a000000000000000000000000000000000000000000000000000000000815260040161095b90611553565b60405180910390fd5b80600260006101000a81548173ffffffffffffffffffffffffffffffffffffffff021916908373ffffffffffffffffffffffffffffffffffffffff16021790555050565b60606000600160008481526020019081526020016000206000015467ffffffffffffffff8111156109dc576109db610c7d565b5b604051908082528060200260200182016040528015610a0f57816020015b60608152602001906001900390816109fa5790505b50905060005b6001600085815260200190815260200160002060000154811015610b14576001600085815260200190815260200160002060010160008281526020019081526020016000208054610a6590611387565b80601f0160208091040260200160405190810160405280929190818152602001828054610a9190611387565b8015610ade5780601f10610ab357610100808354040283529160200191610ade565b820191906000526020600020905b815481529060010190602001808311610ac157829003601f168201915b5050505050828281518110610af657610af5611573565b5b60200260200101819052508080610b0c906114be565b915050610a15565b5080915050919050565b828054610b2a90611387565b90600052602060002090601f016020900481019282610b4c5760008555610b9a565b82601f10610b5d5780548555610b9a565b82800160010185558215610b9a57600052602060002091601f016020900482015b82811115610b99578254825591600101919060010190610b7e565b5b509050610ba79190610c31565b5090565b828054610bb790611387565b90600052602060002090601f016020900481019282610bd95760008555610c20565b82601f10610bf257805160ff1916838001178555610c20565b82800160010185558215610c20579182015b82811115610c1f578251825591602001919060010190610c04565b5b509050610c2d9190610c31565b5090565b5b80821115610c4a576000816000905550600101610c32565b5090565b6000604051905090565b600080fd5b600080fd5b600080fd5b600080fd5b6000601f19601f8301169050919050565b7f4e487b7100000000000000000000000000000000000000000000000000000000600052604160045260246000fd5b610cb582610c6c565b810181811067ffffffffffffffff82111715610cd457610cd3610c7d565b5b80604052505050565b6000610ce7610c4e565b9050610cf38282610cac565b919050565b600067ffffffffffffffff821115610d1357610d12610c7d565b5b610d1c82610c6c565b9050602081019050919050565b82818337600083830152505050565b6000610d4b610d4684610cf8565b610cdd565b905082815260208101848484011115610d6757610d66610c67565b5b610d72848285610d29565b509392505050565b600082601f830112610d8f57610d8e610c62565b5b8135610d9f848260208601610d38565b91505092915050565b600060208284031215610dbe57610dbd610c58565b5b600082013567ffffffffffffffff811115610ddc57610ddb610c5d565b5b610de884828501610d7a565b91505092915050565b6000819050919050565b610e0481610df1565b8114610e0f57600080fd5b50565b600081359050610e2181610dfb565b92915050565b60008060408385031215610e3e57610e3d610c58565b5b6000610e4c85828601610e12565b925050602083013567ffffffffffffffff811115610e6d57610e6c610c5d565b5b610e7985828601610d7a565b9150509250929050565b60008115159050919050565b610e9881610e83565b82525050565b6000602082019050610eb36000830184610e8f565b92915050565b600063ffffffff82169050919050565b610ed281610eb9565b82525050565b6000602082019050610eed6000830184610ec9565b92915050565b60008060408385031215610f0a57610f09610c58565b5b6000610f1885828601610e12565b9250506020610f2985828601610e12565b9150509250929050565b600073ffffffffffffffffffffffffffffffffffffffff82169050919050565b6000610f5e82610f33565b9050919050565b610f6e81610f53565b8114610f7957600080fd5b50565b600081359050610f8b81610f65565b92915050565b600060208284031215610fa757610fa6610c58565b5b6000610fb584828501610f7c565b91505092915050565b600060208284031215610fd457610fd3610c58565b5b6000610fe284828501610e12565b91505092915050565b600081519050919050565b600082825260208201905092915050565b6000819050602082019050919050565b600081519050919050565b600082825260208201905092915050565b60005b83811015611051578082015181840152602081019050611036565b83811115611060576000848401525b50505050565b600061107182611017565b61107b8185611022565b935061108b818560208601611033565b61109481610c6c565b840191505092915050565b60006110ab8383611066565b905092915050565b6000602082019050919050565b60006110cb82610feb565b6110d58185610ff6565b9350836020820285016110e785611007565b8060005b858110156111235784840389528151611104858261109f565b945061110f836110b3565b925060208a019950506001810190506110eb565b50829750879550505050505092915050565b6000602082019050818103600083015261114f81846110c0565b905092915050565b600082825260208201905092915050565b7f4e6f7441646d696e000000000000000000000000000000000000000000000000600082015250565b600061119e600883611157565b91506111a982611168565b602082019050919050565b600060208201905081810360008301526111cd81611191565b9050919050565b600081905092915050565b60006111ea82611017565b6111f481856111d4565b9350611204818560208601611033565b80840191505092915050565b600061121c82846111df565b915081905092915050565b7f43726561746564416c7265616479000000000000000000000000000000000000600082015250565b600061125d600e83611157565b915061126882611227565b602082019050919050565b6000602082019050818103600083015261128c81611250565b9050919050565b7f43616e7452656d6f766500000000000000000000000000000000000000000000600082015250565b60006112c9600a83611157565b91506112d482611293565b602082019050919050565b600060208201905081810360008301526112f8816112bc565b9050919050565b7f4e487b7100000000000000000000000000000000000000000000000000000000600052601160045260246000fd5b600061133982610df1565b9150600082141561134d5761134c6112ff565b5b600182039050919050565b7f4e487b7100000000000000000000000000000000000000000000000000000000600052602260045260246000fd5b6000600282049050600182168061139f57607f821691505b602082108114156113b3576113b2611358565b5b50919050565b7f4e6f744372656174656400000000000000000000000000000000000000000000600082015250565b60006113ef600a83611157565b91506113fa826113b9565b602082019050919050565b6000602082019050818103600083015261141e816113e2565b9050919050565b7f436f6d706c65746564416c726561647900000000000000000000000000000000600082015250565b600061145b601083611157565b915061146682611425565b602082019050919050565b6000602082019050818103600083015261148a8161144e565b9050919050565b600061149c82610eb9565b915063ffffffff8214156114b3576114b26112ff565b5b600182019050919050565b60006114c982610df1565b91507fffffffffffffffffffffffffffffffffffffffffffffffffffffffffffffffff8214156114fc576114fb6112ff565b5b600182019050919050565b7f2e00000000000000000000000000000000000000000000000000000000000000600082015250565b600061153d600183611157565b915061154882611507565b602082019050919050565b6000602082019050818103600083015261156c81611530565b9050919050565b7f4e487b7100000000000000000000000000000000000000000000000000000000600052603260045260246000fdfea264697066735822122071ec27c8f0ffbea11b2abe56d92faba0b06b435cc87c0f0f724ff17c8fe5403964736f6c634300080b0033",
  "immutableReferences": {},
  "source": "// SPDX-License-Identifier: MIT\r\npragma solidity ^0.8.11;\r\n\r\ncontract Achievements {\r\n\r\n    constructor(address _admin) {\r\n        owner = msg.sender;\r\n        admin = _admin;\r\n    }\r\n\r\n    mapping(string => Achievement) achievements; // list of achievements\r\n    mapping(uint => Rewards) rewards; // list of rewards every person has aquired\r\n    address admin; // admin can change data in the smart contract\r\n    address owner; // owner can change the admin\r\n\r\n    // #region Achievement progress\r\n    struct Achievement {\r\n        uint32 count; // number of people who completed the achievement\r\n        bool created;\r\n        mapping(uint => bool) completed;\r\n    }\r\n\r\n    // creating a new achievement in the contract\r\n    function newAchievement(string memory key) external onlyAdmin {\r\n        require(achievements[key].created == false, \"CreatedAlready\");\r\n\r\n        achievements[key].created = true;\r\n        achievements[key].count = 0;\r\n    }\r\n\r\n    // called when a person completed an achievement\r\n    function completedAchievement(uint tokenId, string memory key) external onlyAdmin {\r\n        require(achievements[key].created == true, 'NotCreated');\r\n        require(achievements[key].completed[tokenId] == false, \"CompletedAlready\");\r\n\r\n        achievements[key].count++;\r\n        achievements[key].completed[tokenId] = true;\r\n    }\r\n\r\n    // returns the number of people who completed the achievement\r\n    function getAchievementCount(string memory key) external view returns(uint32) {\r\n        if(achievements[key].created == true) {\r\n            return achievements[key].count;\r\n        }\r\n        else {\r\n            return 0;\r\n        }\r\n    }\r\n\r\n    // returns true if the person completed the achievement and false if he didn't\r\n    function checkIfCompleted(uint tokenId, string memory key) external view returns(bool) {\r\n        return achievements[key].completed[tokenId];\r\n    }\r\n\r\n    // #endregion\r\n\r\n    // #region Achievement rewards\r\n\r\n    struct Rewards {\r\n        uint numOfRewards;\r\n        mapping(uint => string) rewardList;\r\n    }\r\n\r\n    function addReward(uint tokenId, string memory reward) external onlyAdmin {\r\n        rewards[tokenId].rewardList[rewards[tokenId].numOfRewards] = reward;\r\n        rewards[tokenId].numOfRewards++;\r\n    }\r\n\r\n    function removeReward(uint tokenId, uint index) external onlyAdmin {\r\n        require(index < rewards[tokenId].numOfRewards, 'CantRemove');\r\n\r\n        rewards[tokenId].numOfRewards--;\r\n        rewards[tokenId].rewardList[index] = rewards[tokenId].rewardList[rewards[tokenId].numOfRewards];\r\n    }\r\n\r\n    function getRewardList(uint tokenId) external view returns(string[] memory) {\r\n        string[] memory r = new string[](rewards[tokenId].numOfRewards);\r\n\r\n        for(uint i = 0; i < rewards[tokenId].numOfRewards; i++) {\r\n            r[i] = rewards[tokenId].rewardList[i];\r\n        }\r\n\r\n        return r;\r\n    }\r\n\r\n    // #endregion\r\n\r\n    // #region Utils\r\n\r\n    // modifier is used to check if the person who called the function is the Admin\r\n    modifier onlyAdmin() {\r\n        require(msg.sender == admin, 'NotAdmin');\r\n        _;\r\n    }\r\n\r\n    // function that can change the Admin address in case a proble occurs - can be calles only by the owner\r\n    function changeAdmin(address newAdmin) external {\r\n        require(msg.sender == owner, '.');\r\n        admin = newAdmin;\r\n    }\r\n\r\n    // #endregion\r\n}",
  "sourcePath": "C:\\Users\\Dario Vajda\\OneDrive\\Documents\\nft\\smart_contracts\\contracts\\Achievements.sol",
  "compiler": {
    "name": "solc",
    "version": "0.8.11+commit.d7f03943.Emscripten.clang"
  },
  "schemaVersion": "3.4.4",
  "updatedAt": "2022-07-12T13:27:53.646Z",
  "networkType": "ethereum",
  "devdoc": {
    "kind": "dev",
    "methods": {},
    "version": 1
  },
  "userdoc": {
    "kind": "user",
    "methods": {},
    "version": 1
  }
}