{
  "contractName": "CityContract",
  "abi": [
    {
      "inputs": [
        {
          "internalType": "address",
          "name": "_weth",
          "type": "address"
        },
        {
          "internalType": "address",
          "name": "_maticPrice",
          "type": "address"
        },
        {
          "internalType": "address",
          "name": "_ethPrice",
          "type": "address"
        }
      ],
      "stateMutability": "nonpayable",
      "type": "constructor"
    },
    {
      "anonymous": false,
      "inputs": [
        {
          "indexed": true,
          "internalType": "address",
          "name": "owner",
          "type": "address"
        },
        {
          "indexed": true,
          "internalType": "address",
          "name": "approved",
          "type": "address"
        },
        {
          "indexed": true,
          "internalType": "uint256",
          "name": "tokenId",
          "type": "uint256"
        }
      ],
      "name": "Approval",
      "type": "event"
    },
    {
      "anonymous": false,
      "inputs": [
        {
          "indexed": true,
          "internalType": "address",
          "name": "owner",
          "type": "address"
        },
        {
          "indexed": true,
          "internalType": "address",
          "name": "operator",
          "type": "address"
        },
        {
          "indexed": false,
          "internalType": "bool",
          "name": "approved",
          "type": "bool"
        }
      ],
      "name": "ApprovalForAll",
      "type": "event"
    },
    {
      "anonymous": false,
      "inputs": [
        {
          "indexed": true,
          "internalType": "address",
          "name": "previousOwner",
          "type": "address"
        },
        {
          "indexed": true,
          "internalType": "address",
          "name": "newOwner",
          "type": "address"
        }
      ],
      "name": "OwnershipTransferred",
      "type": "event"
    },
    {
      "anonymous": false,
      "inputs": [
        {
          "indexed": true,
          "internalType": "address",
          "name": "from",
          "type": "address"
        },
        {
          "indexed": true,
          "internalType": "address",
          "name": "to",
          "type": "address"
        },
        {
          "indexed": true,
          "internalType": "uint256",
          "name": "tokenId",
          "type": "uint256"
        }
      ],
      "name": "Transfer",
      "type": "event"
    },
    {
      "inputs": [
        {
          "internalType": "address",
          "name": "to",
          "type": "address"
        },
        {
          "internalType": "uint256",
          "name": "tokenId",
          "type": "uint256"
        }
      ],
      "name": "approve",
      "outputs": [],
      "stateMutability": "nonpayable",
      "type": "function"
    },
    {
      "inputs": [
        {
          "internalType": "address",
          "name": "owner",
          "type": "address"
        }
      ],
      "name": "balanceOf",
      "outputs": [
        {
          "internalType": "uint256",
          "name": "",
          "type": "uint256"
        }
      ],
      "stateMutability": "view",
      "type": "function",
      "constant": true
    },
    {
      "inputs": [
        {
          "internalType": "uint256",
          "name": "tokenId",
          "type": "uint256"
        }
      ],
      "name": "getApproved",
      "outputs": [
        {
          "internalType": "address",
          "name": "",
          "type": "address"
        }
      ],
      "stateMutability": "view",
      "type": "function",
      "constant": true
    },
    {
      "inputs": [
        {
          "internalType": "address",
          "name": "owner",
          "type": "address"
        },
        {
          "internalType": "address",
          "name": "operator",
          "type": "address"
        }
      ],
      "name": "isApprovedForAll",
      "outputs": [
        {
          "internalType": "bool",
          "name": "",
          "type": "bool"
        }
      ],
      "stateMutability": "view",
      "type": "function",
      "constant": true
    },
    {
      "inputs": [],
      "name": "name",
      "outputs": [
        {
          "internalType": "string",
          "name": "",
          "type": "string"
        }
      ],
      "stateMutability": "view",
      "type": "function",
      "constant": true
    },
    {
      "inputs": [],
      "name": "owner",
      "outputs": [
        {
          "internalType": "address",
          "name": "",
          "type": "address"
        }
      ],
      "stateMutability": "view",
      "type": "function",
      "constant": true
    },
    {
      "inputs": [
        {
          "internalType": "uint256",
          "name": "tokenId",
          "type": "uint256"
        }
      ],
      "name": "ownerOf",
      "outputs": [
        {
          "internalType": "address",
          "name": "",
          "type": "address"
        }
      ],
      "stateMutability": "view",
      "type": "function",
      "constant": true
    },
    {
      "inputs": [],
      "name": "renounceOwnership",
      "outputs": [],
      "stateMutability": "nonpayable",
      "type": "function"
    },
    {
      "inputs": [
        {
          "internalType": "address",
          "name": "from",
          "type": "address"
        },
        {
          "internalType": "address",
          "name": "to",
          "type": "address"
        },
        {
          "internalType": "uint256",
          "name": "tokenId",
          "type": "uint256"
        }
      ],
      "name": "safeTransferFrom",
      "outputs": [],
      "stateMutability": "nonpayable",
      "type": "function"
    },
    {
      "inputs": [
        {
          "internalType": "address",
          "name": "from",
          "type": "address"
        },
        {
          "internalType": "address",
          "name": "to",
          "type": "address"
        },
        {
          "internalType": "uint256",
          "name": "tokenId",
          "type": "uint256"
        },
        {
          "internalType": "bytes",
          "name": "_data",
          "type": "bytes"
        }
      ],
      "name": "safeTransferFrom",
      "outputs": [],
      "stateMutability": "nonpayable",
      "type": "function"
    },
    {
      "inputs": [
        {
          "internalType": "address",
          "name": "operator",
          "type": "address"
        },
        {
          "internalType": "bool",
          "name": "approved",
          "type": "bool"
        }
      ],
      "name": "setApprovalForAll",
      "outputs": [],
      "stateMutability": "nonpayable",
      "type": "function"
    },
    {
      "inputs": [],
      "name": "symbol",
      "outputs": [
        {
          "internalType": "string",
          "name": "",
          "type": "string"
        }
      ],
      "stateMutability": "view",
      "type": "function",
      "constant": true
    },
    {
      "inputs": [
        {
          "internalType": "uint256",
          "name": "index",
          "type": "uint256"
        }
      ],
      "name": "tokenByIndex",
      "outputs": [
        {
          "internalType": "uint256",
          "name": "",
          "type": "uint256"
        }
      ],
      "stateMutability": "view",
      "type": "function",
      "constant": true
    },
    {
      "inputs": [
        {
          "internalType": "address",
          "name": "owner",
          "type": "address"
        },
        {
          "internalType": "uint256",
          "name": "index",
          "type": "uint256"
        }
      ],
      "name": "tokenOfOwnerByIndex",
      "outputs": [
        {
          "internalType": "uint256",
          "name": "",
          "type": "uint256"
        }
      ],
      "stateMutability": "view",
      "type": "function",
      "constant": true
    },
    {
      "inputs": [],
      "name": "totalSupply",
      "outputs": [
        {
          "internalType": "uint256",
          "name": "",
          "type": "uint256"
        }
      ],
      "stateMutability": "view",
      "type": "function",
      "constant": true
    },
    {
      "inputs": [
        {
          "internalType": "address",
          "name": "from",
          "type": "address"
        },
        {
          "internalType": "address",
          "name": "to",
          "type": "address"
        },
        {
          "internalType": "uint256",
          "name": "tokenId",
          "type": "uint256"
        }
      ],
      "name": "transferFrom",
      "outputs": [],
      "stateMutability": "nonpayable",
      "type": "function"
    },
    {
      "inputs": [
        {
          "internalType": "address",
          "name": "newOwner",
          "type": "address"
        }
      ],
      "name": "transferOwnership",
      "outputs": [],
      "stateMutability": "nonpayable",
      "type": "function"
    },
    {
      "inputs": [],
      "name": "weth",
      "outputs": [
        {
          "internalType": "contract IERC20",
          "name": "",
          "type": "address"
        }
      ],
      "stateMutability": "view",
      "type": "function",
      "constant": true
    },
    {
      "inputs": [
        {
          "internalType": "uint256",
          "name": "newPrice",
          "type": "uint256"
        }
      ],
      "name": "changeMintingPrice",
      "outputs": [],
      "stateMutability": "nonpayable",
      "type": "function"
    },
    {
      "inputs": [
        {
          "internalType": "uint256",
          "name": "numOfTokens",
          "type": "uint256"
        }
      ],
      "name": "maticMint",
      "outputs": [],
      "stateMutability": "payable",
      "type": "function",
      "payable": true
    },
    {
      "inputs": [
        {
          "internalType": "uint256",
          "name": "numOfTokens",
          "type": "uint256"
        }
      ],
      "name": "wethMint",
      "outputs": [],
      "stateMutability": "nonpayable",
      "type": "function"
    },
    {
      "inputs": [],
      "name": "currId",
      "outputs": [
        {
          "internalType": "uint256",
          "name": "",
          "type": "uint256"
        }
      ],
      "stateMutability": "view",
      "type": "function",
      "constant": true
    },
    {
      "inputs": [],
      "name": "getSaleState",
      "outputs": [
        {
          "internalType": "bool",
          "name": "",
          "type": "bool"
        }
      ],
      "stateMutability": "view",
      "type": "function",
      "constant": true
    },
    {
      "inputs": [],
      "name": "withdraw",
      "outputs": [],
      "stateMutability": "nonpayable",
      "type": "function"
    },
    {
      "inputs": [],
      "name": "flipSaleState",
      "outputs": [],
      "stateMutability": "nonpayable",
      "type": "function"
    },
    {
      "inputs": [
        {
          "internalType": "uint256",
          "name": "tokenId",
          "type": "uint256"
        }
      ],
      "name": "tokenURI",
      "outputs": [
        {
          "internalType": "string",
          "name": "",
          "type": "string"
        }
      ],
      "stateMutability": "view",
      "type": "function",
      "constant": true
    },
    {
      "inputs": [
        {
          "internalType": "bytes4",
          "name": "interfaceId",
          "type": "bytes4"
        }
      ],
      "name": "supportsInterface",
      "outputs": [
        {
          "internalType": "bool",
          "name": "",
          "type": "bool"
        }
      ],
      "stateMutability": "view",
      "type": "function",
      "constant": true
    }
  ],
  "bytecode": "0x608060405267016345785d8a00006010556000601160006101000a81548160ff021916908315150217905550600a6012556127106013553480156200004357600080fd5b5060405162004b1438038062004b148339818101604052810190620000699190620003e1565b80826040518060400160405280600c81526020017f436974794275696c6465727300000000000000000000000000000000000000008152506040518060400160405280600381526020017f43544200000000000000000000000000000000000000000000000000000000008152508160009080519060200190620000ef929190620002c7565b50806001908051906020019062000108929190620002c7565b5050506200012b6200011f620001f960201b60201c565b6200020160201b60201c565b81600d60006101000a81548173ffffffffffffffffffffffffffffffffffffffff021916908373ffffffffffffffffffffffffffffffffffffffff16021790555080600c60006101000a81548173ffffffffffffffffffffffffffffffffffffffff021916908373ffffffffffffffffffffffffffffffffffffffff160217905550505082600f60006101000a81548173ffffffffffffffffffffffffffffffffffffffff021916908373ffffffffffffffffffffffffffffffffffffffff160217905550505050620004a2565b600033905090565b6000600b60009054906101000a900473ffffffffffffffffffffffffffffffffffffffff16905081600b60006101000a81548173ffffffffffffffffffffffffffffffffffffffff021916908373ffffffffffffffffffffffffffffffffffffffff1602179055508173ffffffffffffffffffffffffffffffffffffffff168173ffffffffffffffffffffffffffffffffffffffff167f8be0079c531659141344cd1fd0a4f28419497f9722a3daafe3b4186f6b6457e060405160405180910390a35050565b828054620002d5906200046c565b90600052602060002090601f016020900481019282620002f9576000855562000345565b82601f106200031457805160ff191683800117855562000345565b8280016001018555821562000345579182015b828111156200034457825182559160200191906001019062000327565b5b50905062000354919062000358565b5090565b5b808211156200037357600081600090555060010162000359565b5090565b600080fd5b600073ffffffffffffffffffffffffffffffffffffffff82169050919050565b6000620003a9826200037c565b9050919050565b620003bb816200039c565b8114620003c757600080fd5b50565b600081519050620003db81620003b0565b92915050565b600080600060608486031215620003fd57620003fc62000377565b5b60006200040d86828701620003ca565b93505060206200042086828701620003ca565b92505060406200043386828701620003ca565b9150509250925092565b7f4e487b7100000000000000000000000000000000000000000000000000000000600052602260045260246000fd5b600060028204905060018216806200048557607f821691505b602082108114156200049c576200049b6200043d565b5b50919050565b61466280620004b26000396000f3fe60806040526004361061019c5760003560e01c80633fc8cef3116100ec57806395d89b411161008a578063b88d4fde11610064578063b88d4fde14610593578063c87b56dd146105bc578063e985e9c5146105f9578063f2fde38b146106365761019c565b806395d89b4114610523578063a22cb4651461054e578063afbcc384146105775761019c565b80636352211e116100c65780636352211e1461046757806370a08231146104a4578063715018a6146104e15780638da5cb5b146104f85761019c565b80633fc8cef3146103d657806342842e0e146104015780634f6ccce71461042a5761019c565b806318160ddd1161015957806325bdb2a81161013357806325bdb2a8146103405780632f745c591461036b57806334918dfd146103a85780633ccfd60b146103bf5761019c565b806318160ddd146102c35780631fd27cd1146102ee57806323b872dd146103175761019c565b806301ffc9a7146101a157806306fdde03146101de578063081812fc1461020957806308d1e16714610246578063095ea7b31461026f57806315efc9c814610298575b600080fd5b3480156101ad57600080fd5b506101c860048036038101906101c39190612da3565b61065f565b6040516101d59190612deb565b60405180910390f35b3480156101ea57600080fd5b506101f3610671565b6040516102009190612e9f565b60405180910390f35b34801561021557600080fd5b50610230600480360381019061022b9190612ef7565b610703565b60405161023d9190612f65565b60405180910390f35b34801561025257600080fd5b5061026d60048036038101906102689190612ef7565b610788565b005b34801561027b57600080fd5b5061029660048036038101906102919190612fac565b610936565b005b3480156102a457600080fd5b506102ad610a4e565b6040516102ba9190612ffb565b60405180910390f35b3480156102cf57600080fd5b506102d8610a5f565b6040516102e59190612ffb565b60405180910390f35b3480156102fa57600080fd5b5061031560048036038101906103109190612ef7565b610a6c565b005b34801561032357600080fd5b5061033e60048036038101906103399190613016565b610af2565b005b34801561034c57600080fd5b50610355610b52565b6040516103629190612deb565b60405180910390f35b34801561037757600080fd5b50610392600480360381019061038d9190612fac565b610b69565b60405161039f9190612ffb565b60405180910390f35b3480156103b457600080fd5b506103bd610c0e565b005b3480156103cb57600080fd5b506103d4610cb6565b005b3480156103e257600080fd5b506103eb610ec3565b6040516103f891906130c8565b60405180910390f35b34801561040d57600080fd5b5061042860048036038101906104239190613016565b610ee9565b005b34801561043657600080fd5b50610451600480360381019061044c9190612ef7565b610f09565b60405161045e9190612ffb565b60405180910390f35b34801561047357600080fd5b5061048e60048036038101906104899190612ef7565b610f7a565b60405161049b9190612f65565b60405180910390f35b3480156104b057600080fd5b506104cb60048036038101906104c691906130e3565b61102c565b6040516104d89190612ffb565b60405180910390f35b3480156104ed57600080fd5b506104f66110e4565b005b34801561050457600080fd5b5061050d61116c565b60405161051a9190612f65565b60405180910390f35b34801561052f57600080fd5b50610538611196565b6040516105459190612e9f565b60405180910390f35b34801561055a57600080fd5b506105756004803603810190610570919061313c565b611228565b005b610591600480360381019061058c9190612ef7565b61123e565b005b34801561059f57600080fd5b506105ba60048036038101906105b591906132b1565b611389565b005b3480156105c857600080fd5b506105e360048036038101906105de9190612ef7565b6113eb565b6040516105f09190612e9f565b60405180910390f35b34801561060557600080fd5b50610620600480360381019061061b9190613334565b6113fd565b60405161062d9190612deb565b60405180910390f35b34801561064257600080fd5b5061065d600480360381019061065891906130e3565b611491565b005b600061066a82611589565b9050919050565b606060008054610680906133a3565b80601f01602080910402602001604051908101604052809291908181526020018280546106ac906133a3565b80156106f95780601f106106ce576101008083540402835291602001916106f9565b820191906000526020600020905b8154815290600101906020018083116106dc57829003601f168201915b5050505050905090565b600061070e82611603565b61074d576040517f08c379a000000000000000000000000000000000000000000000000000000000815260040161074490613447565b60405180910390fd5b6004600083815260200190815260200160002060009054906101000a900473ffffffffffffffffffffffffffffffffffffffff169050919050565b601160009054906101000a900460ff166107d7576040517f08c379a00000000000000000000000000000000000000000000000000000000081526004016107ce906134d9565b60405180910390fd5b60125481111561081c576040517f08c379a00000000000000000000000000000000000000000000000000000000081526004016108139061356b565b60405180910390fd5b6013546108398261082b610a5f565b61166f90919063ffffffff16565b111561087a576040517f08c379a0000000000000000000000000000000000000000000000000000000008152600401610871906135fd565b60405180910390fd5b600f60009054906101000a900473ffffffffffffffffffffffffffffffffffffffff1673ffffffffffffffffffffffffffffffffffffffff166323b872dd3330846010546108c8919061364c565b6040518463ffffffff1660e01b81526004016108e6939291906136a6565b6020604051808303816000875af1158015610905573d6000803e3d6000fd5b505050506040513d601f19601f8201168201806040525081019061092991906136f2565b5061093381611685565b50565b600061094182610f7a565b90508073ffffffffffffffffffffffffffffffffffffffff168373ffffffffffffffffffffffffffffffffffffffff1614156109b2576040517f08c379a00000000000000000000000000000000000000000000000000000000081526004016109a990613791565b60405180910390fd5b8073ffffffffffffffffffffffffffffffffffffffff166109d161170e565b73ffffffffffffffffffffffffffffffffffffffff161480610a0057506109ff816109fa61170e565b6113fd565b5b610a3f576040517f08c379a0000000000000000000000000000000000000000000000000000000008152600401610a3690613823565b60405180910390fd5b610a498383611716565b505050565b6000610a5a600e6117cf565b905090565b6000600880549050905090565b610a7461170e565b73ffffffffffffffffffffffffffffffffffffffff16610a9261116c565b73ffffffffffffffffffffffffffffffffffffffff1614610ae8576040517f08c379a0000000000000000000000000000000000000000000000000000000008152600401610adf9061388f565b60405180910390fd5b8060108190555050565b610b03610afd61170e565b826117dd565b610b42576040517f08c379a0000000000000000000000000000000000000000000000000000000008152600401610b3990613921565b60405180910390fd5b610b4d8383836118bb565b505050565b6000601160009054906101000a900460ff16905090565b6000610b748361102c565b8210610bb5576040517f08c379a0000000000000000000000000000000000000000000000000000000008152600401610bac906139b3565b60405180910390fd5b600660008473ffffffffffffffffffffffffffffffffffffffff1673ffffffffffffffffffffffffffffffffffffffff168152602001908152602001600020600083815260200190815260200160002054905092915050565b610c1661170e565b73ffffffffffffffffffffffffffffffffffffffff16610c3461116c565b73ffffffffffffffffffffffffffffffffffffffff1614610c8a576040517f08c379a0000000000000000000000000000000000000000000000000000000008152600401610c819061388f565b60405180910390fd5b601160009054906101000a900460ff1615601160006101000a81548160ff021916908315150217905550565b610cbe61170e565b73ffffffffffffffffffffffffffffffffffffffff16610cdc61116c565b73ffffffffffffffffffffffffffffffffffffffff1614610d32576040517f08c379a0000000000000000000000000000000000000000000000000000000008152600401610d299061388f565b60405180910390fd5b60004790503373ffffffffffffffffffffffffffffffffffffffff166108fc829081150290604051600060405180830381858888f19350505050158015610d7d573d6000803e3d6000fd5b506000600f60009054906101000a900473ffffffffffffffffffffffffffffffffffffffff1673ffffffffffffffffffffffffffffffffffffffff166370a08231306040518263ffffffff1660e01b8152600401610ddb9190612f65565b602060405180830381865afa158015610df8573d6000803e3d6000fd5b505050506040513d601f19601f82011682018060405250810190610e1c91906139e8565b9050600f60009054906101000a900473ffffffffffffffffffffffffffffffffffffffff1673ffffffffffffffffffffffffffffffffffffffff1663a9059cbb33836040518363ffffffff1660e01b8152600401610e7b929190613a15565b6020604051808303816000875af1158015610e9a573d6000803e3d6000fd5b505050506040513d601f19601f82011682018060405250810190610ebe91906136f2565b505050565b600f60009054906101000a900473ffffffffffffffffffffffffffffffffffffffff1681565b610f0483838360405180602001604052806000815250611389565b505050565b6000610f13610a5f565b8210610f54576040517f08c379a0000000000000000000000000000000000000000000000000000000008152600401610f4b90613ab0565b60405180910390fd5b60088281548110610f6857610f67613ad0565b5b90600052602060002001549050919050565b6000806002600084815260200190815260200160002060009054906101000a900473ffffffffffffffffffffffffffffffffffffffff169050600073ffffffffffffffffffffffffffffffffffffffff168173ffffffffffffffffffffffffffffffffffffffff161415611023576040517f08c379a000000000000000000000000000000000000000000000000000000000815260040161101a90613b71565b60405180910390fd5b80915050919050565b60008073ffffffffffffffffffffffffffffffffffffffff168273ffffffffffffffffffffffffffffffffffffffff16141561109d576040517f08c379a000000000000000000000000000000000000000000000000000000000815260040161109490613c03565b60405180910390fd5b600360008373ffffffffffffffffffffffffffffffffffffffff1673ffffffffffffffffffffffffffffffffffffffff168152602001908152602001600020549050919050565b6110ec61170e565b73ffffffffffffffffffffffffffffffffffffffff1661110a61116c565b73ffffffffffffffffffffffffffffffffffffffff1614611160576040517f08c379a00000000000000000000000000000000000000000000000000000000081526004016111579061388f565b60405180910390fd5b61116a6000611b17565b565b6000600b60009054906101000a900473ffffffffffffffffffffffffffffffffffffffff16905090565b6060600180546111a5906133a3565b80601f01602080910402602001604051908101604052809291908181526020018280546111d1906133a3565b801561121e5780601f106111f35761010080835404028352916020019161121e565b820191906000526020600020905b81548152906001019060200180831161120157829003601f168201915b5050505050905090565b61123a61123361170e565b8383611bdd565b5050565b601160009054906101000a900460ff1661128d576040517f08c379a0000000000000000000000000000000000000000000000000000000008152600401611284906134d9565b60405180910390fd5b6012548111156112d2576040517f08c379a00000000000000000000000000000000000000000000000000000000081526004016112c99061356b565b60405180910390fd5b6013546112ef826112e1610a5f565b61166f90919063ffffffff16565b1115611330576040517f08c379a0000000000000000000000000000000000000000000000000000000008152600401611327906135fd565b60405180910390fd5b3461133c601054611d4a565b111561137d576040517f08c379a000000000000000000000000000000000000000000000000000000000815260040161137490613c6f565b60405180910390fd5b61138681611685565b50565b61139a61139461170e565b836117dd565b6113d9576040517f08c379a00000000000000000000000000000000000000000000000000000000081526004016113d090613921565b60405180910390fd5b6113e584848484611d78565b50505050565b60606113f682611dd4565b9050919050565b6000600560008473ffffffffffffffffffffffffffffffffffffffff1673ffffffffffffffffffffffffffffffffffffffff16815260200190815260200160002060008373ffffffffffffffffffffffffffffffffffffffff1673ffffffffffffffffffffffffffffffffffffffff16815260200190815260200160002060009054906101000a900460ff16905092915050565b61149961170e565b73ffffffffffffffffffffffffffffffffffffffff166114b761116c565b73ffffffffffffffffffffffffffffffffffffffff161461150d576040517f08c379a00000000000000000000000000000000000000000000000000000000081526004016115049061388f565b60405180910390fd5b600073ffffffffffffffffffffffffffffffffffffffff168173ffffffffffffffffffffffffffffffffffffffff16141561157d576040517f08c379a000000000000000000000000000000000000000000000000000000000815260040161157490613d01565b60405180910390fd5b61158681611b17565b50565b60007f780e9d63000000000000000000000000000000000000000000000000000000007bffffffffffffffffffffffffffffffffffffffffffffffffffffffff1916827bffffffffffffffffffffffffffffffffffffffffffffffffffffffff191614806115fc57506115fb82611f26565b5b9050919050565b60008073ffffffffffffffffffffffffffffffffffffffff166002600084815260200190815260200160002060009054906101000a900473ffffffffffffffffffffffffffffffffffffffff1673ffffffffffffffffffffffffffffffffffffffff1614159050919050565b6000818361167d9190613d21565b905092915050565b600080600090505b828110156116da5761169f600e6117cf565b91506116ab600e612008565b6116b5338361201e565b6116c7826116c28461203c565b61219d565b80806116d290613d77565b91505061168d565b506013546116e8600e6117cf565b141561170a576000601160006101000a81548160ff0219169083151502179055505b5050565b600033905090565b816004600083815260200190815260200160002060006101000a81548173ffffffffffffffffffffffffffffffffffffffff021916908373ffffffffffffffffffffffffffffffffffffffff160217905550808273ffffffffffffffffffffffffffffffffffffffff1661178983610f7a565b73ffffffffffffffffffffffffffffffffffffffff167f8c5be1e5ebec7d5bd14f71427d1e84f3dd0314c0f7b2291e5b200ac8c7c3b92560405160405180910390a45050565b600081600001549050919050565b60006117e882611603565b611827576040517f08c379a000000000000000000000000000000000000000000000000000000000815260040161181e90613e32565b60405180910390fd5b600061183283610f7a565b90508073ffffffffffffffffffffffffffffffffffffffff168473ffffffffffffffffffffffffffffffffffffffff1614806118a157508373ffffffffffffffffffffffffffffffffffffffff1661188984610703565b73ffffffffffffffffffffffffffffffffffffffff16145b806118b257506118b181856113fd565b5b91505092915050565b8273ffffffffffffffffffffffffffffffffffffffff166118db82610f7a565b73ffffffffffffffffffffffffffffffffffffffff1614611931576040517f08c379a000000000000000000000000000000000000000000000000000000000815260040161192890613ec4565b60405180910390fd5b600073ffffffffffffffffffffffffffffffffffffffff168273ffffffffffffffffffffffffffffffffffffffff1614156119a1576040517f08c379a000000000000000000000000000000000000000000000000000000000815260040161199890613f56565b60405180910390fd5b6119ac838383612211565b6119b7600082611716565b6001600360008573ffffffffffffffffffffffffffffffffffffffff1673ffffffffffffffffffffffffffffffffffffffff1681526020019081526020016000206000828254611a079190613f76565b925050819055506001600360008473ffffffffffffffffffffffffffffffffffffffff1673ffffffffffffffffffffffffffffffffffffffff1681526020019081526020016000206000828254611a5e9190613d21565b92505081905550816002600083815260200190815260200160002060006101000a81548173ffffffffffffffffffffffffffffffffffffffff021916908373ffffffffffffffffffffffffffffffffffffffff160217905550808273ffffffffffffffffffffffffffffffffffffffff168473ffffffffffffffffffffffffffffffffffffffff167fddf252ad1be2c89b69c2b068fc378daa952ba7f163c4a11628f55a4df523b3ef60405160405180910390a4505050565b6000600b60009054906101000a900473ffffffffffffffffffffffffffffffffffffffff16905081600b60006101000a81548173ffffffffffffffffffffffffffffffffffffffff021916908373ffffffffffffffffffffffffffffffffffffffff1602179055508173ffffffffffffffffffffffffffffffffffffffff168173ffffffffffffffffffffffffffffffffffffffff167f8be0079c531659141344cd1fd0a4f28419497f9722a3daafe3b4186f6b6457e060405160405180910390a35050565b8173ffffffffffffffffffffffffffffffffffffffff168373ffffffffffffffffffffffffffffffffffffffff161415611c4c576040517f08c379a0000000000000000000000000000000000000000000000000000000008152600401611c4390613ff6565b60405180910390fd5b80600560008573ffffffffffffffffffffffffffffffffffffffff1673ffffffffffffffffffffffffffffffffffffffff16815260200190815260200160002060008473ffffffffffffffffffffffffffffffffffffffff1673ffffffffffffffffffffffffffffffffffffffff16815260200190815260200160002060006101000a81548160ff0219169083151502179055508173ffffffffffffffffffffffffffffffffffffffff168373ffffffffffffffffffffffffffffffffffffffff167f17307eab39ab6107e8899845ad3d59bd9653f200f220920489ca2b5937696c3183604051611d3d9190612deb565b60405180910390a3505050565b6000611d54612221565b611d5c6122c2565b83611d67919061364c565b611d719190614045565b9050919050565b611d838484846118bb565b611d8f84848484612363565b611dce576040517f08c379a0000000000000000000000000000000000000000000000000000000008152600401611dc5906140e8565b60405180910390fd5b50505050565b6060611ddf82611603565b611e1e576040517f08c379a0000000000000000000000000000000000000000000000000000000008152600401611e159061417a565b60405180910390fd5b6000600a60008481526020019081526020016000208054611e3e906133a3565b80601f0160208091040260200160405190810160405280929190818152602001828054611e6a906133a3565b8015611eb75780601f10611e8c57610100808354040283529160200191611eb7565b820191906000526020600020905b815481529060010190602001808311611e9a57829003601f168201915b505050505090506000611ec86124eb565b9050600081511415611ede578192505050611f21565b600082511115611f13578082604051602001611efb9291906141d6565b60405160208183030381529060405292505050611f21565b611f1c84612528565b925050505b919050565b60007f80ac58cd000000000000000000000000000000000000000000000000000000007bffffffffffffffffffffffffffffffffffffffffffffffffffffffff1916827bffffffffffffffffffffffffffffffffffffffffffffffffffffffff19161480611ff157507f5b5e139f000000000000000000000000000000000000000000000000000000007bffffffffffffffffffffffffffffffffffffffffffffffffffffffff1916827bffffffffffffffffffffffffffffffffffffffffffffffffffffffff1916145b806120015750612000826125cf565b5b9050919050565b6001816000016000828254019250508190555050565b612038828260405180602001604052806000815250612639565b5050565b60606000821415612084576040518060400160405280600181526020017f30000000000000000000000000000000000000000000000000000000000000008152509050612198565b600082905060005b600082146120b657808061209f90613d77565b915050600a826120af9190614045565b915061208c565b60008167ffffffffffffffff8111156120d2576120d1613186565b5b6040519080825280601f01601f1916602001820160405280156121045781602001600182028036833780820191505090505b5090505b600085146121915760018261211d9190613f76565b9150600a8561212c91906141fa565b60306121389190613d21565b60f81b81838151811061214e5761214d613ad0565b5b60200101907effffffffffffffffffffffffffffffffffffffffffffffffffffffffffffff1916908160001a905350600a8561218a9190614045565b9450612108565b8093505050505b919050565b6121a682611603565b6121e5576040517f08c379a00000000000000000000000000000000000000000000000000000000081526004016121dc9061429d565b60405180910390fd5b80600a6000848152602001908152602001600020908051906020019061220c929190612c94565b505050565b61221c838383612694565b505050565b600080600c60009054906101000a900473ffffffffffffffffffffffffffffffffffffffff1673ffffffffffffffffffffffffffffffffffffffff1663feaf968c6040518163ffffffff1660e01b815260040160a060405180830381865afa158015612291573d6000803e3d6000fd5b505050506040513d601f19601f820116820180604052508101906122b59190614335565b5050509150508091505090565b600080600d60009054906101000a900473ffffffffffffffffffffffffffffffffffffffff1673ffffffffffffffffffffffffffffffffffffffff1663feaf968c6040518163ffffffff1660e01b815260040160a060405180830381865afa158015612332573d6000803e3d6000fd5b505050506040513d601f19601f820116820180604052508101906123569190614335565b5050509150508091505090565b60006123848473ffffffffffffffffffffffffffffffffffffffff166127a8565b156124de578373ffffffffffffffffffffffffffffffffffffffff1663150b7a026123ad61170e565b8786866040518563ffffffff1660e01b81526004016123cf9493929190614405565b6020604051808303816000875af192505050801561240b57506040513d601f19601f820116820180604052508101906124089190614466565b60015b61248e573d806000811461243b576040519150601f19603f3d011682016040523d82523d6000602084013e612440565b606091505b50600081511415612486576040517f08c379a000000000000000000000000000000000000000000000000000000000815260040161247d906140e8565b60405180910390fd5b805181602001fd5b63150b7a0260e01b7bffffffffffffffffffffffffffffffffffffffffffffffffffffffff1916817bffffffffffffffffffffffffffffffffffffffffffffffffffffffff1916149150506124e3565b600190505b949350505050565b60606040518060400160405280601c81526020017f687474703a2f2f6c6f63616c686f73743a333030302f63697469657300000000815250905090565b606061253382611603565b612572576040517f08c379a000000000000000000000000000000000000000000000000000000000815260040161256990614505565b60405180910390fd5b600061257c6124eb565b9050600081511161259c57604051806020016040528060008152506125c7565b806125a68461203c565b6040516020016125b79291906141d6565b6040516020818303038152906040525b915050919050565b60007f01ffc9a7000000000000000000000000000000000000000000000000000000007bffffffffffffffffffffffffffffffffffffffffffffffffffffffff1916827bffffffffffffffffffffffffffffffffffffffffffffffffffffffff1916149050919050565b61264383836127bb565b6126506000848484612363565b61268f576040517f08c379a0000000000000000000000000000000000000000000000000000000008152600401612686906140e8565b60405180910390fd5b505050565b61269f838383612989565b600073ffffffffffffffffffffffffffffffffffffffff168373ffffffffffffffffffffffffffffffffffffffff1614156126e2576126dd8161298e565b612721565b8173ffffffffffffffffffffffffffffffffffffffff168373ffffffffffffffffffffffffffffffffffffffff16146127205761271f83826129d7565b5b5b600073ffffffffffffffffffffffffffffffffffffffff168273ffffffffffffffffffffffffffffffffffffffff1614156127645761275f81612b44565b6127a3565b8273ffffffffffffffffffffffffffffffffffffffff168273ffffffffffffffffffffffffffffffffffffffff16146127a2576127a18282612c15565b5b5b505050565b600080823b905060008111915050919050565b600073ffffffffffffffffffffffffffffffffffffffff168273ffffffffffffffffffffffffffffffffffffffff16141561282b576040517f08c379a000000000000000000000000000000000000000000000000000000000815260040161282290614571565b60405180910390fd5b61283481611603565b15612874576040517f08c379a000000000000000000000000000000000000000000000000000000000815260040161286b906145dd565b60405180910390fd5b61288060008383612211565b6001600360008473ffffffffffffffffffffffffffffffffffffffff1673ffffffffffffffffffffffffffffffffffffffff16815260200190815260200160002060008282546128d09190613d21565b92505081905550816002600083815260200190815260200160002060006101000a81548173ffffffffffffffffffffffffffffffffffffffff021916908373ffffffffffffffffffffffffffffffffffffffff160217905550808273ffffffffffffffffffffffffffffffffffffffff16600073ffffffffffffffffffffffffffffffffffffffff167fddf252ad1be2c89b69c2b068fc378daa952ba7f163c4a11628f55a4df523b3ef60405160405180910390a45050565b505050565b6008805490506009600083815260200190815260200160002081905550600881908060018154018082558091505060019003906000526020600020016000909190919091505550565b600060016129e48461102c565b6129ee9190613f76565b9050600060076000848152602001908152602001600020549050818114612ad3576000600660008673ffffffffffffffffffffffffffffffffffffffff1673ffffffffffffffffffffffffffffffffffffffff168152602001908152602001600020600084815260200190815260200160002054905080600660008773ffffffffffffffffffffffffffffffffffffffff1673ffffffffffffffffffffffffffffffffffffffff168152602001908152602001600020600084815260200190815260200160002081905550816007600083815260200190815260200160002081905550505b6007600084815260200190815260200160002060009055600660008573ffffffffffffffffffffffffffffffffffffffff1673ffffffffffffffffffffffffffffffffffffffff16815260200190815260200160002060008381526020019081526020016000206000905550505050565b60006001600880549050612b589190613f76565b9050600060096000848152602001908152602001600020549050600060088381548110612b8857612b87613ad0565b5b906000526020600020015490508060088381548110612baa57612ba9613ad0565b5b906000526020600020018190555081600960008381526020019081526020016000208190555060096000858152602001908152602001600020600090556008805480612bf957612bf86145fd565b5b6001900381819060005260206000200160009055905550505050565b6000612c208361102c565b905081600660008573ffffffffffffffffffffffffffffffffffffffff1673ffffffffffffffffffffffffffffffffffffffff168152602001908152602001600020600083815260200190815260200160002081905550806007600084815260200190815260200160002081905550505050565b828054612ca0906133a3565b90600052602060002090601f016020900481019282612cc25760008555612d09565b82601f10612cdb57805160ff1916838001178555612d09565b82800160010185558215612d09579182015b82811115612d08578251825591602001919060010190612ced565b5b509050612d169190612d1a565b5090565b5b80821115612d33576000816000905550600101612d1b565b5090565b6000604051905090565b600080fd5b600080fd5b60007fffffffff0000000000000000000000000000000000000000000000000000000082169050919050565b612d8081612d4b565b8114612d8b57600080fd5b50565b600081359050612d9d81612d77565b92915050565b600060208284031215612db957612db8612d41565b5b6000612dc784828501612d8e565b91505092915050565b60008115159050919050565b612de581612dd0565b82525050565b6000602082019050612e006000830184612ddc565b92915050565b600081519050919050565b600082825260208201905092915050565b60005b83811015612e40578082015181840152602081019050612e25565b83811115612e4f576000848401525b50505050565b6000601f19601f8301169050919050565b6000612e7182612e06565b612e7b8185612e11565b9350612e8b818560208601612e22565b612e9481612e55565b840191505092915050565b60006020820190508181036000830152612eb98184612e66565b905092915050565b6000819050919050565b612ed481612ec1565b8114612edf57600080fd5b50565b600081359050612ef181612ecb565b92915050565b600060208284031215612f0d57612f0c612d41565b5b6000612f1b84828501612ee2565b91505092915050565b600073ffffffffffffffffffffffffffffffffffffffff82169050919050565b6000612f4f82612f24565b9050919050565b612f5f81612f44565b82525050565b6000602082019050612f7a6000830184612f56565b92915050565b612f8981612f44565b8114612f9457600080fd5b50565b600081359050612fa681612f80565b92915050565b60008060408385031215612fc357612fc2612d41565b5b6000612fd185828601612f97565b9250506020612fe285828601612ee2565b9150509250929050565b612ff581612ec1565b82525050565b60006020820190506130106000830184612fec565b92915050565b60008060006060848603121561302f5761302e612d41565b5b600061303d86828701612f97565b935050602061304e86828701612f97565b925050604061305f86828701612ee2565b9150509250925092565b6000819050919050565b600061308e61308961308484612f24565b613069565b612f24565b9050919050565b60006130a082613073565b9050919050565b60006130b282613095565b9050919050565b6130c2816130a7565b82525050565b60006020820190506130dd60008301846130b9565b92915050565b6000602082840312156130f9576130f8612d41565b5b600061310784828501612f97565b91505092915050565b61311981612dd0565b811461312457600080fd5b50565b60008135905061313681613110565b92915050565b6000806040838503121561315357613152612d41565b5b600061316185828601612f97565b925050602061317285828601613127565b9150509250929050565b600080fd5b600080fd5b7f4e487b7100000000000000000000000000000000000000000000000000000000600052604160045260246000fd5b6131be82612e55565b810181811067ffffffffffffffff821117156131dd576131dc613186565b5b80604052505050565b60006131f0612d37565b90506131fc82826131b5565b919050565b600067ffffffffffffffff82111561321c5761321b613186565b5b61322582612e55565b9050602081019050919050565b82818337600083830152505050565b600061325461324f84613201565b6131e6565b9050828152602081018484840111156132705761326f613181565b5b61327b848285613232565b509392505050565b600082601f8301126132985761329761317c565b5b81356132a8848260208601613241565b91505092915050565b600080600080608085870312156132cb576132ca612d41565b5b60006132d987828801612f97565b94505060206132ea87828801612f97565b93505060406132fb87828801612ee2565b925050606085013567ffffffffffffffff81111561331c5761331b612d46565b5b61332887828801613283565b91505092959194509250565b6000806040838503121561334b5761334a612d41565b5b600061335985828601612f97565b925050602061336a85828601612f97565b9150509250929050565b7f4e487b7100000000000000000000000000000000000000000000000000000000600052602260045260246000fd5b600060028204905060018216806133bb57607f821691505b602082108114156133cf576133ce613374565b5b50919050565b7f4552433732313a20617070726f76656420717565727920666f72206e6f6e657860008201527f697374656e7420746f6b656e0000000000000000000000000000000000000000602082015250565b6000613431602c83612e11565b915061343c826133d5565b604082019050919050565b6000602082019050818103600083015261346081613424565b9050919050565b7f53616c65206d7573742062652061637469766520746f206d696e74206120436960008201527f7479204e46540000000000000000000000000000000000000000000000000000602082015250565b60006134c3602683612e11565b91506134ce82613467565b604082019050919050565b600060208201905081810360008301526134f2816134b6565b9050919050565b7f43616e206f6e6c79206d696e7420313020746f6b656e7320617420612074696d60008201527f6500000000000000000000000000000000000000000000000000000000000000602082015250565b6000613555602183612e11565b9150613560826134f9565b604082019050919050565b6000602082019050818103600083015261358481613548565b9050919050565b7f507572636861736520776f756c6420657863656564206d6178206e756d62657260008201527f206f662043697479204e46547300000000000000000000000000000000000000602082015250565b60006135e7602d83612e11565b91506135f28261358b565b604082019050919050565b60006020820190508181036000830152613616816135da565b9050919050565b7f4e487b7100000000000000000000000000000000000000000000000000000000600052601160045260246000fd5b600061365782612ec1565b915061366283612ec1565b9250817fffffffffffffffffffffffffffffffffffffffffffffffffffffffffffffffff048311821515161561369b5761369a61361d565b5b828202905092915050565b60006060820190506136bb6000830186612f56565b6136c86020830185612f56565b6136d56040830184612fec565b949350505050565b6000815190506136ec81613110565b92915050565b60006020828403121561370857613707612d41565b5b6000613716848285016136dd565b91505092915050565b7f4552433732313a20617070726f76616c20746f2063757272656e74206f776e6560008201527f7200000000000000000000000000000000000000000000000000000000000000602082015250565b600061377b602183612e11565b91506137868261371f565b604082019050919050565b600060208201905081810360008301526137aa8161376e565b9050919050565b7f4552433732313a20617070726f76652063616c6c6572206973206e6f74206f7760008201527f6e6572206e6f7220617070726f76656420666f7220616c6c0000000000000000602082015250565b600061380d603883612e11565b9150613818826137b1565b604082019050919050565b6000602082019050818103600083015261383c81613800565b9050919050565b7f4f776e61626c653a2063616c6c6572206973206e6f7420746865206f776e6572600082015250565b6000613879602083612e11565b915061388482613843565b602082019050919050565b600060208201905081810360008301526138a88161386c565b9050919050565b7f4552433732313a207472616e736665722063616c6c6572206973206e6f74206f60008201527f776e6572206e6f7220617070726f766564000000000000000000000000000000602082015250565b600061390b603183612e11565b9150613916826138af565b604082019050919050565b6000602082019050818103600083015261393a816138fe565b9050919050565b7f455243373231456e756d657261626c653a206f776e657220696e646578206f7560008201527f74206f6620626f756e6473000000000000000000000000000000000000000000602082015250565b600061399d602b83612e11565b91506139a882613941565b604082019050919050565b600060208201905081810360008301526139cc81613990565b9050919050565b6000815190506139e281612ecb565b92915050565b6000602082840312156139fe576139fd612d41565b5b6000613a0c848285016139d3565b91505092915050565b6000604082019050613a2a6000830185612f56565b613a376020830184612fec565b9392505050565b7f455243373231456e756d657261626c653a20676c6f62616c20696e646578206f60008201527f7574206f6620626f756e64730000000000000000000000000000000000000000602082015250565b6000613a9a602c83612e11565b9150613aa582613a3e565b604082019050919050565b60006020820190508181036000830152613ac981613a8d565b9050919050565b7f4e487b7100000000000000000000000000000000000000000000000000000000600052603260045260246000fd5b7f4552433732313a206f776e657220717565727920666f72206e6f6e657869737460008201527f656e7420746f6b656e0000000000000000000000000000000000000000000000602082015250565b6000613b5b602983612e11565b9150613b6682613aff565b604082019050919050565b60006020820190508181036000830152613b8a81613b4e565b9050919050565b7f4552433732313a2062616c616e636520717565727920666f7220746865207a6560008201527f726f206164647265737300000000000000000000000000000000000000000000602082015250565b6000613bed602a83612e11565b9150613bf882613b91565b604082019050919050565b60006020820190508181036000830152613c1c81613be0565b9050919050565b7f4d617469632076616c75652073656e74206973206e6f7420636f727265637400600082015250565b6000613c59601f83612e11565b9150613c6482613c23565b602082019050919050565b60006020820190508181036000830152613c8881613c4c565b9050919050565b7f4f776e61626c653a206e6577206f776e657220697320746865207a65726f206160008201527f6464726573730000000000000000000000000000000000000000000000000000602082015250565b6000613ceb602683612e11565b9150613cf682613c8f565b604082019050919050565b60006020820190508181036000830152613d1a81613cde565b9050919050565b6000613d2c82612ec1565b9150613d3783612ec1565b9250827fffffffffffffffffffffffffffffffffffffffffffffffffffffffffffffffff03821115613d6c57613d6b61361d565b5b828201905092915050565b6000613d8282612ec1565b91507fffffffffffffffffffffffffffffffffffffffffffffffffffffffffffffffff821415613db557613db461361d565b5b600182019050919050565b7f4552433732313a206f70657261746f7220717565727920666f72206e6f6e657860008201527f697374656e7420746f6b656e0000000000000000000000000000000000000000602082015250565b6000613e1c602c83612e11565b9150613e2782613dc0565b604082019050919050565b60006020820190508181036000830152613e4b81613e0f565b9050919050565b7f4552433732313a207472616e73666572206f6620746f6b656e2074686174206960008201527f73206e6f74206f776e0000000000000000000000000000000000000000000000602082015250565b6000613eae602983612e11565b9150613eb982613e52565b604082019050919050565b60006020820190508181036000830152613edd81613ea1565b9050919050565b7f4552433732313a207472616e7366657220746f20746865207a65726f2061646460008201527f7265737300000000000000000000000000000000000000000000000000000000602082015250565b6000613f40602483612e11565b9150613f4b82613ee4565b604082019050919050565b60006020820190508181036000830152613f6f81613f33565b9050919050565b6000613f8182612ec1565b9150613f8c83612ec1565b925082821015613f9f57613f9e61361d565b5b828203905092915050565b7f4552433732313a20617070726f766520746f2063616c6c657200000000000000600082015250565b6000613fe0601983612e11565b9150613feb82613faa565b602082019050919050565b6000602082019050818103600083015261400f81613fd3565b9050919050565b7f4e487b7100000000000000000000000000000000000000000000000000000000600052601260045260246000fd5b600061405082612ec1565b915061405b83612ec1565b92508261406b5761406a614016565b5b828204905092915050565b7f4552433732313a207472616e7366657220746f206e6f6e20455243373231526560008201527f63656976657220696d706c656d656e7465720000000000000000000000000000602082015250565b60006140d2603283612e11565b91506140dd82614076565b604082019050919050565b60006020820190508181036000830152614101816140c5565b9050919050565b7f45524337323155524953746f726167653a2055524920717565727920666f722060008201527f6e6f6e6578697374656e7420746f6b656e000000000000000000000000000000602082015250565b6000614164603183612e11565b915061416f82614108565b604082019050919050565b6000602082019050818103600083015261419381614157565b9050919050565b600081905092915050565b60006141b082612e06565b6141ba818561419a565b93506141ca818560208601612e22565b80840191505092915050565b60006141e282856141a5565b91506141ee82846141a5565b91508190509392505050565b600061420582612ec1565b915061421083612ec1565b9250826142205761421f614016565b5b828206905092915050565b7f45524337323155524953746f726167653a2055524920736574206f66206e6f6e60008201527f6578697374656e7420746f6b656e000000000000000000000000000000000000602082015250565b6000614287602e83612e11565b91506142928261422b565b604082019050919050565b600060208201905081810360008301526142b68161427a565b9050919050565b600069ffffffffffffffffffff82169050919050565b6142dc816142bd565b81146142e757600080fd5b50565b6000815190506142f9816142d3565b92915050565b6000819050919050565b614312816142ff565b811461431d57600080fd5b50565b60008151905061432f81614309565b92915050565b600080600080600060a0868803121561435157614350612d41565b5b600061435f888289016142ea565b955050602061437088828901614320565b9450506040614381888289016139d3565b9350506060614392888289016139d3565b92505060806143a3888289016142ea565b9150509295509295909350565b600081519050919050565b600082825260208201905092915050565b60006143d7826143b0565b6143e181856143bb565b93506143f1818560208601612e22565b6143fa81612e55565b840191505092915050565b600060808201905061441a6000830187612f56565b6144276020830186612f56565b6144346040830185612fec565b818103606083015261444681846143cc565b905095945050505050565b60008151905061446081612d77565b92915050565b60006020828403121561447c5761447b612d41565b5b600061448a84828501614451565b91505092915050565b7f4552433732314d657461646174613a2055524920717565727920666f72206e6f60008201527f6e6578697374656e7420746f6b656e0000000000000000000000000000000000602082015250565b60006144ef602f83612e11565b91506144fa82614493565b604082019050919050565b6000602082019050818103600083015261451e816144e2565b9050919050565b7f4552433732313a206d696e7420746f20746865207a65726f2061646472657373600082015250565b600061455b602083612e11565b915061456682614525565b602082019050919050565b6000602082019050818103600083015261458a8161454e565b9050919050565b7f4552433732313a20746f6b656e20616c7265616479206d696e74656400000000600082015250565b60006145c7601c83612e11565b91506145d282614591565b602082019050919050565b600060208201905081810360008301526145f6816145ba565b9050919050565b7f4e487b7100000000000000000000000000000000000000000000000000000000600052603160045260246000fdfea26469706673582212200513699fb20609989227b707bfbd2bf832c0e7fc3fa4db3fd11bf93bccd45eef64736f6c634300080b0033",
  "immutableReferences": {},
  "source": "// SPDX-License-Identifier: MIT\r\npragma solidity ^0.8.11;\r\n\r\nimport \"@openzeppelin/contracts/token/ERC721/ERC721.sol\";\r\nimport \"@openzeppelin/contracts/token/ERC721/extensions/ERC721Enumerable.sol\";\r\nimport \"@openzeppelin/contracts/token/ERC721/extensions/ERC721URIStorage.sol\";\r\nimport \"@openzeppelin/contracts/access/Ownable.sol\";\r\nimport \"@openzeppelin/contracts/utils/Counters.sol\";\r\nimport \"@openzeppelin/contracts/utils/math/SafeMath.sol\";\r\nimport \"@openzeppelin/contracts/utils/Strings.sol\";\r\n\r\nimport \"@openzeppelin/contracts/token/ERC20/IERC20.sol\";\r\n\r\nimport \"./PriceContract.sol\";\r\n\r\n/* TEST PRIMER: \r\ncity.safeMint(1, {value: web3.utils.toWei('0.1', 'ether'), from: accounts[1]})\r\ngame.initializeCity(accounts[1], 0, 2, 0, [3, 4], [4, 5], [5, 6], [6, 7], ['house', 'office'], [], 125000)\r\n*/\r\n\r\ncontract CityContract is ERC721, ERC721Enumerable, ERC721URIStorage, Ownable, PriceContract {\r\n    using Counters for Counters.Counter;\r\n    using SafeMath for uint256;\r\n\r\n    Counters.Counter private _tokenIdCounter; // counter representing the latest tokenId\r\n\r\n    IERC20 public weth;\r\n    constructor(address _weth, address _maticPrice, address _ethPrice) ERC721(\"CityBuilders\", \"CTB\") PriceContract(_ethPrice, _maticPrice) { \r\n        weth = IERC20(_weth);\r\n    }\r\n    \r\n    function _baseURI() internal pure override returns (string memory) {\r\n        return \"http://localhost:3000/cities\"; // this is just temporary\r\n    }\r\n  \r\n    uint mintingPrice = 0.1 ether; // cost of minting a single City NFT (in ether wei)\r\n    bool saleIsActive = false; // if it is possible to mint more NFTs the state is true\r\n    uint maxMintTokens = 10; // max num of tokens to mint per address\r\n    uint MAX_CITIES = 10000; // max num of cities to be minted\r\n\r\n    /**\r\n     * @dev Function that changes the price of minting an NFT\r\n     * @param newPrice the new price of the NFTs in ether wei\r\n     */\r\n    function changeMintingPrice(uint newPrice) external onlyOwner {\r\n        mintingPrice = newPrice;\r\n    }\r\n\r\n    /**\r\n     * @dev Function used for minting new City NFTs\r\n     * @param numOfTokens number of tokens that will be minted\r\n     */\r\n    function maticMint(uint numOfTokens) external payable {\r\n        require(saleIsActive, \"Sale must be active to mint a City NFT\");\r\n        require(numOfTokens <= maxMintTokens, \"Can only mint 10 tokens at a time\");\r\n        require(totalSupply().add(numOfTokens) <= MAX_CITIES, \"Purchase would exceed max number of City NFTs\");\r\n        require(mintPriceMatic(mintingPrice) <= msg.value, \"Matic value sent is not correct\");\r\n\r\n        createNFTs(numOfTokens);\r\n    }\r\n\r\n    /**\r\n     * @dev Function used for minting new City NFTs\r\n     * @param numOfTokens number of tokens that will be minted\r\n     */\r\n    function wethMint(uint numOfTokens) external {\r\n        require(saleIsActive, \"Sale must be active to mint a City NFT\");\r\n        require(numOfTokens <= maxMintTokens, \"Can only mint 10 tokens at a time\");\r\n        require(totalSupply().add(numOfTokens) <= MAX_CITIES, \"Purchase would exceed max number of City NFTs\");\r\n\r\n        weth.transferFrom(msg.sender, address(this), mintingPrice*numOfTokens);\r\n\r\n        createNFTs(numOfTokens);\r\n    }\r\n\r\n    // function used to mint NFTs - called from wethMint and maticMint functions only\r\n    function createNFTs(uint numOfTokens) private {\r\n        uint256 tokenId;\r\n        for(uint i = 0; i < numOfTokens; i++) {\r\n            tokenId = _tokenIdCounter.current();\r\n            _tokenIdCounter.increment();\r\n\r\n            _safeMint(msg.sender, tokenId);\r\n            _setTokenURI(tokenId, Strings.toString(tokenId));\r\n        }\r\n\r\n        if(_tokenIdCounter.current() == MAX_CITIES) {\r\n            saleIsActive = false;\r\n        }\r\n    }\r\n    //_______________________________________________________________________________\r\n    // funkcions returning values from the contract:\r\n    function currId() public view returns(uint) {\r\n        return _tokenIdCounter.current();\r\n    }\r\n\r\n    function getSaleState() external view returns(bool) {\r\n        return saleIsActive;\r\n    }\r\n    //_______________________________________________________________________________\r\n\r\n    // The following function is used to withdraw all funds from the contract to the owner address\r\n    function withdraw() public onlyOwner {\r\n        uint maticBalance = address(this).balance;\r\n        payable(msg.sender).transfer(maticBalance);\r\n\r\n        uint ethBalance = weth.balanceOf(address(this));\r\n        weth.transfer(msg.sender, ethBalance);\r\n    }\r\n\r\n    // The following  function is called to start the sale and to end it if all items are sold out or if a problem occurs.\r\n    function flipSaleState() public onlyOwner {\r\n        saleIsActive = !saleIsActive;\r\n    }\r\n\r\n\r\n    // The following functions are overrides required by Solidity.\r\n    function _beforeTokenTransfer(address from, address to, uint256 tokenId) internal override(ERC721, ERC721Enumerable) {\r\n        super._beforeTokenTransfer(from, to, tokenId);\r\n    }\r\n\r\n    function _burn(uint256 tokenId) internal override(ERC721, ERC721URIStorage) {\r\n        super._burn(tokenId);\r\n    }\r\n\r\n    function tokenURI(uint256 tokenId) public view override(ERC721, ERC721URIStorage) returns (string memory) {\r\n        return super.tokenURI(tokenId);\r\n    }\r\n\r\n    function supportsInterface(bytes4 interfaceId) public view override(ERC721, ERC721Enumerable) returns (bool){\r\n        return super.supportsInterface(interfaceId);\r\n    }\r\n}",
  "sourcePath": "C:\\Users\\Dario Vajda\\OneDrive\\Desktop\\nft project\\nft\\smart_contracts\\contracts\\CityContract.sol",
  "compiler": {
    "name": "solc",
    "version": "0.8.11+commit.d7f03943.Emscripten.clang"
  },
  "schemaVersion": "3.4.4",
  "updatedAt": "2022-02-13T15:07:24.174Z",
  "networkType": "ethereum",
  "devdoc": {
    "kind": "dev",
    "methods": {
      "approve(address,uint256)": {
        "details": "See {IERC721-approve}."
      },
      "balanceOf(address)": {
        "details": "See {IERC721-balanceOf}."
      },
      "changeMintingPrice(uint256)": {
        "details": "Function that changes the price of minting an NFT",
        "params": {
          "newPrice": "the new price of the NFTs in ether wei"
        }
      },
      "getApproved(uint256)": {
        "details": "See {IERC721-getApproved}."
      },
      "isApprovedForAll(address,address)": {
        "details": "See {IERC721-isApprovedForAll}."
      },
      "maticMint(uint256)": {
        "details": "Function used for minting new City NFTs",
        "params": {
          "numOfTokens": "number of tokens that will be minted"
        }
      },
      "name()": {
        "details": "See {IERC721Metadata-name}."
      },
      "owner()": {
        "details": "Returns the address of the current owner."
      },
      "ownerOf(uint256)": {
        "details": "See {IERC721-ownerOf}."
      },
      "renounceOwnership()": {
        "details": "Leaves the contract without owner. It will not be possible to call `onlyOwner` functions anymore. Can only be called by the current owner. NOTE: Renouncing ownership will leave the contract without an owner, thereby removing any functionality that is only available to the owner."
      },
      "safeTransferFrom(address,address,uint256)": {
        "details": "See {IERC721-safeTransferFrom}."
      },
      "safeTransferFrom(address,address,uint256,bytes)": {
        "details": "See {IERC721-safeTransferFrom}."
      },
      "setApprovalForAll(address,bool)": {
        "details": "See {IERC721-setApprovalForAll}."
      },
      "symbol()": {
        "details": "See {IERC721Metadata-symbol}."
      },
      "tokenByIndex(uint256)": {
        "details": "See {IERC721Enumerable-tokenByIndex}."
      },
      "tokenOfOwnerByIndex(address,uint256)": {
        "details": "See {IERC721Enumerable-tokenOfOwnerByIndex}."
      },
      "totalSupply()": {
        "details": "See {IERC721Enumerable-totalSupply}."
      },
      "transferFrom(address,address,uint256)": {
        "details": "See {IERC721-transferFrom}."
      },
      "transferOwnership(address)": {
        "details": "Transfers ownership of the contract to a new account (`newOwner`). Can only be called by the current owner."
      },
      "wethMint(uint256)": {
        "details": "Function used for minting new City NFTs",
        "params": {
          "numOfTokens": "number of tokens that will be minted"
        }
      }
    },
    "version": 1
  },
  "userdoc": {
    "kind": "user",
    "methods": {},
    "version": 1
  }
}