{
  "contractName": "CityContract",
  "abi": [
    {
      "inputs": [],
      "stateMutability": "nonpayable",
      "type": "constructor"
    },
    {
      "anonymous": false,
      "inputs": [
        {
          "indexed": true,
          "internalType": "address",
          "name": "owner",
          "type": "address"
        },
        {
          "indexed": true,
          "internalType": "address",
          "name": "approved",
          "type": "address"
        },
        {
          "indexed": true,
          "internalType": "uint256",
          "name": "tokenId",
          "type": "uint256"
        }
      ],
      "name": "Approval",
      "type": "event"
    },
    {
      "anonymous": false,
      "inputs": [
        {
          "indexed": true,
          "internalType": "address",
          "name": "owner",
          "type": "address"
        },
        {
          "indexed": true,
          "internalType": "address",
          "name": "operator",
          "type": "address"
        },
        {
          "indexed": false,
          "internalType": "bool",
          "name": "approved",
          "type": "bool"
        }
      ],
      "name": "ApprovalForAll",
      "type": "event"
    },
    {
      "anonymous": false,
      "inputs": [
        {
          "indexed": true,
          "internalType": "address",
          "name": "previousOwner",
          "type": "address"
        },
        {
          "indexed": true,
          "internalType": "address",
          "name": "newOwner",
          "type": "address"
        }
      ],
      "name": "OwnershipTransferred",
      "type": "event"
    },
    {
      "anonymous": false,
      "inputs": [
        {
          "indexed": true,
          "internalType": "address",
          "name": "from",
          "type": "address"
        },
        {
          "indexed": true,
          "internalType": "address",
          "name": "to",
          "type": "address"
        },
        {
          "indexed": true,
          "internalType": "uint256",
          "name": "tokenId",
          "type": "uint256"
        }
      ],
      "name": "Transfer",
      "type": "event"
    },
    {
      "inputs": [
        {
          "internalType": "address",
          "name": "to",
          "type": "address"
        },
        {
          "internalType": "uint256",
          "name": "tokenId",
          "type": "uint256"
        }
      ],
      "name": "approve",
      "outputs": [],
      "stateMutability": "nonpayable",
      "type": "function"
    },
    {
      "inputs": [
        {
          "internalType": "address",
          "name": "owner",
          "type": "address"
        }
      ],
      "name": "balanceOf",
      "outputs": [
        {
          "internalType": "uint256",
          "name": "",
          "type": "uint256"
        }
      ],
      "stateMutability": "view",
      "type": "function",
      "constant": true
    },
    {
      "inputs": [
        {
          "internalType": "uint256",
          "name": "tokenId",
          "type": "uint256"
        }
      ],
      "name": "getApproved",
      "outputs": [
        {
          "internalType": "address",
          "name": "",
          "type": "address"
        }
      ],
      "stateMutability": "view",
      "type": "function",
      "constant": true
    },
    {
      "inputs": [
        {
          "internalType": "address",
          "name": "owner",
          "type": "address"
        },
        {
          "internalType": "address",
          "name": "operator",
          "type": "address"
        }
      ],
      "name": "isApprovedForAll",
      "outputs": [
        {
          "internalType": "bool",
          "name": "",
          "type": "bool"
        }
      ],
      "stateMutability": "view",
      "type": "function",
      "constant": true
    },
    {
      "inputs": [],
      "name": "name",
      "outputs": [
        {
          "internalType": "string",
          "name": "",
          "type": "string"
        }
      ],
      "stateMutability": "view",
      "type": "function",
      "constant": true
    },
    {
      "inputs": [],
      "name": "owner",
      "outputs": [
        {
          "internalType": "address",
          "name": "",
          "type": "address"
        }
      ],
      "stateMutability": "view",
      "type": "function",
      "constant": true
    },
    {
      "inputs": [
        {
          "internalType": "uint256",
          "name": "tokenId",
          "type": "uint256"
        }
      ],
      "name": "ownerOf",
      "outputs": [
        {
          "internalType": "address",
          "name": "",
          "type": "address"
        }
      ],
      "stateMutability": "view",
      "type": "function",
      "constant": true
    },
    {
      "inputs": [],
      "name": "renounceOwnership",
      "outputs": [],
      "stateMutability": "nonpayable",
      "type": "function"
    },
    {
      "inputs": [
        {
          "internalType": "address",
          "name": "from",
          "type": "address"
        },
        {
          "internalType": "address",
          "name": "to",
          "type": "address"
        },
        {
          "internalType": "uint256",
          "name": "tokenId",
          "type": "uint256"
        }
      ],
      "name": "safeTransferFrom",
      "outputs": [],
      "stateMutability": "nonpayable",
      "type": "function"
    },
    {
      "inputs": [
        {
          "internalType": "address",
          "name": "from",
          "type": "address"
        },
        {
          "internalType": "address",
          "name": "to",
          "type": "address"
        },
        {
          "internalType": "uint256",
          "name": "tokenId",
          "type": "uint256"
        },
        {
          "internalType": "bytes",
          "name": "_data",
          "type": "bytes"
        }
      ],
      "name": "safeTransferFrom",
      "outputs": [],
      "stateMutability": "nonpayable",
      "type": "function"
    },
    {
      "inputs": [
        {
          "internalType": "address",
          "name": "operator",
          "type": "address"
        },
        {
          "internalType": "bool",
          "name": "approved",
          "type": "bool"
        }
      ],
      "name": "setApprovalForAll",
      "outputs": [],
      "stateMutability": "nonpayable",
      "type": "function"
    },
    {
      "inputs": [],
      "name": "symbol",
      "outputs": [
        {
          "internalType": "string",
          "name": "",
          "type": "string"
        }
      ],
      "stateMutability": "view",
      "type": "function",
      "constant": true
    },
    {
      "inputs": [
        {
          "internalType": "uint256",
          "name": "index",
          "type": "uint256"
        }
      ],
      "name": "tokenByIndex",
      "outputs": [
        {
          "internalType": "uint256",
          "name": "",
          "type": "uint256"
        }
      ],
      "stateMutability": "view",
      "type": "function",
      "constant": true
    },
    {
      "inputs": [
        {
          "internalType": "address",
          "name": "owner",
          "type": "address"
        },
        {
          "internalType": "uint256",
          "name": "index",
          "type": "uint256"
        }
      ],
      "name": "tokenOfOwnerByIndex",
      "outputs": [
        {
          "internalType": "uint256",
          "name": "",
          "type": "uint256"
        }
      ],
      "stateMutability": "view",
      "type": "function",
      "constant": true
    },
    {
      "inputs": [],
      "name": "totalSupply",
      "outputs": [
        {
          "internalType": "uint256",
          "name": "",
          "type": "uint256"
        }
      ],
      "stateMutability": "view",
      "type": "function",
      "constant": true
    },
    {
      "inputs": [
        {
          "internalType": "address",
          "name": "from",
          "type": "address"
        },
        {
          "internalType": "address",
          "name": "to",
          "type": "address"
        },
        {
          "internalType": "uint256",
          "name": "tokenId",
          "type": "uint256"
        }
      ],
      "name": "transferFrom",
      "outputs": [],
      "stateMutability": "nonpayable",
      "type": "function"
    },
    {
      "inputs": [
        {
          "internalType": "address",
          "name": "newOwner",
          "type": "address"
        }
      ],
      "name": "transferOwnership",
      "outputs": [],
      "stateMutability": "nonpayable",
      "type": "function"
    },
    {
      "inputs": [
        {
          "internalType": "uint256",
          "name": "numOfTokens",
          "type": "uint256"
        }
      ],
      "name": "safeMint",
      "outputs": [],
      "stateMutability": "payable",
      "type": "function",
      "payable": true
    },
    {
      "inputs": [
        {
          "internalType": "address",
          "name": "owner",
          "type": "address"
        },
        {
          "internalType": "uint256",
          "name": "tokenId",
          "type": "uint256"
        },
        {
          "internalType": "uint256",
          "name": "numOfBuildings",
          "type": "uint256"
        },
        {
          "internalType": "uint256",
          "name": "numOfSpecialBuildings",
          "type": "uint256"
        },
        {
          "internalType": "uint256[]",
          "name": "startx",
          "type": "uint256[]"
        },
        {
          "internalType": "uint256[]",
          "name": "starty",
          "type": "uint256[]"
        },
        {
          "internalType": "uint256[]",
          "name": "endx",
          "type": "uint256[]"
        },
        {
          "internalType": "uint256[]",
          "name": "endy",
          "type": "uint256[]"
        },
        {
          "internalType": "string[]",
          "name": "buildingType",
          "type": "string[]"
        },
        {
          "internalType": "uint256[]",
          "name": "specialType",
          "type": "uint256[]"
        },
        {
          "internalType": "uint256",
          "name": "income",
          "type": "uint256"
        }
      ],
      "name": "initializeCity",
      "outputs": [],
      "stateMutability": "nonpayable",
      "type": "function"
    },
    {
      "inputs": [
        {
          "internalType": "uint256",
          "name": "tokenId",
          "type": "uint256"
        },
        {
          "internalType": "uint256",
          "name": "buildingIndex",
          "type": "uint256"
        }
      ],
      "name": "upgradeBuilding",
      "outputs": [],
      "stateMutability": "nonpayable",
      "type": "function"
    },
    {
      "inputs": [
        {
          "internalType": "uint256",
          "name": "tokenId",
          "type": "uint256"
        },
        {
          "internalType": "uint256",
          "name": "_startx",
          "type": "uint256"
        },
        {
          "internalType": "uint256",
          "name": "_starty",
          "type": "uint256"
        },
        {
          "internalType": "uint256",
          "name": "_endx",
          "type": "uint256"
        },
        {
          "internalType": "uint256",
          "name": "_endy",
          "type": "uint256"
        },
        {
          "internalType": "string",
          "name": "_buildingType",
          "type": "string"
        }
      ],
      "name": "addBuilding",
      "outputs": [],
      "stateMutability": "nonpayable",
      "type": "function"
    },
    {
      "inputs": [
        {
          "internalType": "uint256",
          "name": "tokenId",
          "type": "uint256"
        },
        {
          "internalType": "uint256",
          "name": "_startx",
          "type": "uint256"
        },
        {
          "internalType": "uint256",
          "name": "_starty",
          "type": "uint256"
        },
        {
          "internalType": "uint256",
          "name": "_endx",
          "type": "uint256"
        },
        {
          "internalType": "uint256",
          "name": "_endy",
          "type": "uint256"
        },
        {
          "internalType": "uint256",
          "name": "_specialType",
          "type": "uint256"
        }
      ],
      "name": "addSpecialBuilding",
      "outputs": [],
      "stateMutability": "nonpayable",
      "type": "function"
    },
    {
      "inputs": [],
      "name": "currId",
      "outputs": [
        {
          "internalType": "uint256",
          "name": "",
          "type": "uint256"
        }
      ],
      "stateMutability": "view",
      "type": "function",
      "constant": true
    },
    {
      "inputs": [],
      "name": "getOwners",
      "outputs": [
        {
          "internalType": "address[]",
          "name": "",
          "type": "address[]"
        }
      ],
      "stateMutability": "view",
      "type": "function",
      "constant": true
    },
    {
      "inputs": [
        {
          "internalType": "uint256",
          "name": "tokenId",
          "type": "uint256"
        }
      ],
      "name": "getTypes",
      "outputs": [
        {
          "internalType": "uint256[]",
          "name": "",
          "type": "uint256[]"
        }
      ],
      "stateMutability": "view",
      "type": "function",
      "constant": true
    },
    {
      "inputs": [],
      "name": "withdraw",
      "outputs": [],
      "stateMutability": "nonpayable",
      "type": "function"
    },
    {
      "inputs": [],
      "name": "flipSaleState",
      "outputs": [],
      "stateMutability": "nonpayable",
      "type": "function"
    },
    {
      "inputs": [],
      "name": "flipEditableState",
      "outputs": [],
      "stateMutability": "nonpayable",
      "type": "function"
    },
    {
      "inputs": [
        {
          "internalType": "uint256",
          "name": "tokenId",
          "type": "uint256"
        }
      ],
      "name": "tokenURI",
      "outputs": [
        {
          "internalType": "string",
          "name": "",
          "type": "string"
        }
      ],
      "stateMutability": "view",
      "type": "function",
      "constant": true
    },
    {
      "inputs": [
        {
          "internalType": "bytes4",
          "name": "interfaceId",
          "type": "bytes4"
        }
      ],
      "name": "supportsInterface",
      "outputs": [
        {
          "internalType": "bool",
          "name": "",
          "type": "bool"
        }
      ],
      "stateMutability": "view",
      "type": "function",
      "constant": true
    }
  ],
  "bytecode": "0x6080604052600a600e5567016345785d8a0000600f556000601060006101000a81548160ff021916908315150217905550600a6011556127106012556001601360146101000a81548160ff021916908315150217905550620186a0601560006101000a81548167ffffffffffffffff021916908367ffffffffffffffff1602179055503480156200008f57600080fd5b506040518060400160405280600c81526020017f436974794275696c6465727300000000000000000000000000000000000000008152506040518060400160405280600381526020017f43544200000000000000000000000000000000000000000000000000000000008152508160009080519060200190620001149291906200055b565b5080600190805190602001906200012d9291906200055b565b5050506200015062000144620001a760201b60201c565b620001af60201b60201c565b620001606200027560201b60201c565b33601360006101000a81548173ffffffffffffffffffffffffffffffffffffffff021916908373ffffffffffffffffffffffffffffffffffffffff16021790555062000ab0565b600033905090565b6000600b60009054906101000a900473ffffffffffffffffffffffffffffffffffffffff16905081600b60006101000a81548173ffffffffffffffffffffffffffffffffffffffff021916908373ffffffffffffffffffffffffffffffffffffffff1602179055508173ffffffffffffffffffffffffffffffffffffffff168173ffffffffffffffffffffffffffffffffffffffff167f8be0079c531659141344cd1fd0a4f28419497f9722a3daafe3b4186f6b6457e060405160405180910390a35050565b6000600d604051620002879062000666565b908152602001604051809103902060006101000a81548160ff02191690836009811115620002ba57620002b96200067d565b5b02179055506001600d604051620002d190620006fc565b908152602001604051809103902060006101000a81548160ff021916908360098111156200030457620003036200067d565b5b02179055506002600d6040516200031b9062000763565b908152602001604051809103902060006101000a81548160ff021916908360098111156200034e576200034d6200067d565b5b02179055506003600d6040516200036590620007ca565b908152602001604051809103902060006101000a81548160ff021916908360098111156200039857620003976200067d565b5b02179055506004600d604051620003af9062000831565b908152602001604051809103902060006101000a81548160ff02191690836009811115620003e257620003e16200067d565b5b02179055506005600d604051620003f99062000898565b908152602001604051809103902060006101000a81548160ff021916908360098111156200042c576200042b6200067d565b5b02179055506006600d6040516200044390620008ff565b908152602001604051809103902060006101000a81548160ff021916908360098111156200047657620004756200067d565b5b02179055506007600d6040516200048d9062000966565b908152602001604051809103902060006101000a81548160ff02191690836009811115620004c057620004bf6200067d565b5b02179055506008600d604051620004d790620009cd565b908152602001604051809103902060006101000a81548160ff021916908360098111156200050a57620005096200067d565b5b02179055506009600d604051620005219062000a34565b908152602001604051809103902060006101000a81548160ff021916908360098111156200055457620005536200067d565b5b0217905550565b828054620005699062000a7a565b90600052602060002090601f0160209004810192826200058d5760008555620005d9565b82601f10620005a857805160ff1916838001178555620005d9565b82800160010185558215620005d9579182015b82811115620005d8578251825591602001919060010190620005bb565b5b509050620005e89190620005ec565b5090565b5b8082111562000607576000816000905550600101620005ed565b5090565b600081905092915050565b7f666163746f727900000000000000000000000000000000000000000000000000600082015250565b60006200064e6007836200060b565b91506200065b8262000616565b600782019050919050565b600062000673826200063f565b9150819050919050565b7f4e487b7100000000000000000000000000000000000000000000000000000000600052602160045260246000fd5b7f6f66666963650000000000000000000000000000000000000000000000000000600082015250565b6000620006e46006836200060b565b9150620006f182620006ac565b600682019050919050565b60006200070982620006d5565b9150819050919050565b7f72657374617572616e7400000000000000000000000000000000000000000000600082015250565b60006200074b600a836200060b565b9150620007588262000713565b600a82019050919050565b600062000770826200073c565b9150819050919050565b7f7061726b696e6700000000000000000000000000000000000000000000000000600082015250565b6000620007b26007836200060b565b9150620007bf826200077a565b600782019050919050565b6000620007d782620007a3565b9150819050919050565b7f6275696c64696e67000000000000000000000000000000000000000000000000600082015250565b6000620008196008836200060b565b91506200082682620007e1565b600882019050919050565b60006200083e826200080a565b9150819050919050565b7f686f757365000000000000000000000000000000000000000000000000000000600082015250565b6000620008806005836200060b565b91506200088d8262000848565b600582019050919050565b6000620008a58262000871565b9150819050919050565b7f73746f7265000000000000000000000000000000000000000000000000000000600082015250565b6000620008e76005836200060b565b9150620008f482620008af565b600582019050919050565b60006200090c82620008d8565b9150819050919050565b7f73757065724d61726b6574000000000000000000000000000000000000000000600082015250565b60006200094e600b836200060b565b91506200095b8262000916565b600b82019050919050565b600062000973826200093f565b9150819050919050565b7f7061726b00000000000000000000000000000000000000000000000000000000600082015250565b6000620009b56004836200060b565b9150620009c2826200097d565b600482019050919050565b6000620009da82620009a6565b9150819050919050565b7f67796d0000000000000000000000000000000000000000000000000000000000600082015250565b600062000a1c6003836200060b565b915062000a2982620009e4565b600382019050919050565b600062000a418262000a0d565b9150819050919050565b7f4e487b7100000000000000000000000000000000000000000000000000000000600052602260045260246000fd5b6000600282049050600182168062000a9357607f821691505b6020821081141562000aaa5762000aa962000a4b565b5b50919050565b615a998062000ac06000396000f3fe6080604052600436106101cd5760003560e01c806352efe8c9116100f7578063a22cb46511610095578063d6e39ada11610064578063d6e39ada1461063f578063e985e9c51461067c578063f2fde38b146106b9578063ff2a289c146106e2576101cd565b8063a22cb46514610587578063a392a9f1146105b0578063b88d4fde146105d9578063c87b56dd14610602576101cd565b8063715018a6116100d1578063715018a6146104ef5780638da5cb5b1461050657806395d89b4114610531578063a0e67e2b1461055c576101cd565b806352efe8c91461044c5780636352211e1461047557806370a08231146104b2576101cd565b8063236575141161016f57806334918dfd1161013e57806334918dfd146103b85780633ccfd60b146103cf57806342842e0e146103e65780634f6ccce71461040f576101cd565b8063236575141461031f57806323b872dd146103365780632f745c591461035f57806331c864e81461039c576101cd565b8063095ea7b3116101ab578063095ea7b31461027757806315efc9c8146102a057806318160ddd146102cb5780631c344d36146102f6576101cd565b806301ffc9a7146101d257806306fdde031461020f578063081812fc1461023a575b600080fd5b3480156101de57600080fd5b506101f960048036038101906101f491906139b8565b61070b565b6040516102069190613a00565b60405180910390f35b34801561021b57600080fd5b5061022461071d565b6040516102319190613ab4565b60405180910390f35b34801561024657600080fd5b50610261600480360381019061025c9190613b0c565b6107af565b60405161026e9190613b7a565b60405180910390f35b34801561028357600080fd5b5061029e60048036038101906102999190613bc1565b610834565b005b3480156102ac57600080fd5b506102b561094c565b6040516102c29190613c10565b60405180910390f35b3480156102d757600080fd5b506102e061095d565b6040516102ed9190613c10565b60405180910390f35b34801561030257600080fd5b5061031d60048036038101906103189190613c2b565b61096a565b005b34801561032b57600080fd5b50610334610baa565b005b34801561034257600080fd5b5061035d60048036038101906103589190613cb8565b610c52565b005b34801561036b57600080fd5b5061038660048036038101906103819190613bc1565b610cb2565b6040516103939190613c10565b60405180910390f35b6103b660048036038101906103b19190613b0c565b610d57565b005b3480156103c457600080fd5b506103cd610f16565b005b3480156103db57600080fd5b506103e4610fbe565b005b3480156103f257600080fd5b5061040d60048036038101906104089190613cb8565b611089565b005b34801561041b57600080fd5b5061043660048036038101906104319190613b0c565b6110a9565b6040516104439190613c10565b60405180910390f35b34801561045857600080fd5b50610473600480360381019061046e9190613d0b565b61111a565b005b34801561048157600080fd5b5061049c60048036038101906104979190613b0c565b611216565b6040516104a99190613b7a565b60405180910390f35b3480156104be57600080fd5b506104d960048036038101906104d49190613d4b565b6112c8565b6040516104e69190613c10565b60405180910390f35b3480156104fb57600080fd5b50610504611380565b005b34801561051257600080fd5b5061051b611408565b6040516105289190613b7a565b60405180910390f35b34801561053d57600080fd5b50610546611432565b6040516105539190613ab4565b60405180910390f35b34801561056857600080fd5b506105716114c4565b60405161057e9190613e36565b60405180910390f35b34801561059357600080fd5b506105ae60048036038101906105a99190613e84565b6115cb565b005b3480156105bc57600080fd5b506105d760048036038101906105d29190613f29565b6115e1565b005b3480156105e557600080fd5b5061060060048036038101906105fb9190614108565b611898565b005b34801561060e57600080fd5b5061062960048036038101906106249190613b0c565b6118fa565b6040516106369190613ab4565b60405180910390f35b34801561064b57600080fd5b5061066660048036038101906106619190613b0c565b61190c565b6040516106739190614249565b60405180910390f35b34801561068857600080fd5b506106a3600480360381019061069e919061426b565b611a54565b6040516106b09190613a00565b60405180910390f35b3480156106c557600080fd5b506106e060048036038101906106db9190613d4b565b611ae8565b005b3480156106ee57600080fd5b50610709600480360381019061070491906144f0565b611be0565b005b600061071682612381565b9050919050565b60606000805461072c906146bb565b80601f0160208091040260200160405190810160405280929190818152602001828054610758906146bb565b80156107a55780601f1061077a576101008083540402835291602001916107a5565b820191906000526020600020905b81548152906001019060200180831161078857829003601f168201915b5050505050905090565b60006107ba826123fb565b6107f9576040517f08c379a00000000000000000000000000000000000000000000000000000000081526004016107f09061475f565b60405180910390fd5b6004600083815260200190815260200160002060009054906101000a900473ffffffffffffffffffffffffffffffffffffffff169050919050565b600061083f82611216565b90508073ffffffffffffffffffffffffffffffffffffffff168373ffffffffffffffffffffffffffffffffffffffff1614156108b0576040517f08c379a00000000000000000000000000000000000000000000000000000000081526004016108a7906147f1565b60405180910390fd5b8073ffffffffffffffffffffffffffffffffffffffff166108cf612467565b73ffffffffffffffffffffffffffffffffffffffff1614806108fe57506108fd816108f8612467565b611a54565b5b61093d576040517f08c379a000000000000000000000000000000000000000000000000000000000815260040161093490614883565b60405180910390fd5b610947838361246f565b505050565b6000610958600c612528565b905090565b6000600880549050905090565b601360009054906101000a900473ffffffffffffffffffffffffffffffffffffffff1673ffffffffffffffffffffffffffffffffffffffff163373ffffffffffffffffffffffffffffffffffffffff16146109fa576040517f08c379a00000000000000000000000000000000000000000000000000000000081526004016109f190614915565b60405180910390fd5b60006014600088815260200190815260200160002090506040518060a001604052808363ffffffff1681526020018763ffffffff1681526020018663ffffffff1681526020018563ffffffff1681526020018463ffffffff168152508160010160008360020160089054906101000a900467ffffffffffffffff1667ffffffffffffffff16815260200190815260200160002060008201518160000160006101000a81548163ffffffff021916908363ffffffff16021790555060208201518160000160046101000a81548163ffffffff021916908363ffffffff16021790555060408201518160000160086101000a81548163ffffffff021916908363ffffffff160217905550606082015181600001600c6101000a81548163ffffffff021916908363ffffffff16021790555060808201518160000160106101000a81548163ffffffff021916908363ffffffff16021790555090505060018160020160088282829054906101000a900467ffffffffffffffff16610b7b9190614978565b92506101000a81548167ffffffffffffffff021916908367ffffffffffffffff16021790555050505050505050565b610bb2612467565b73ffffffffffffffffffffffffffffffffffffffff16610bd0611408565b73ffffffffffffffffffffffffffffffffffffffff1614610c26576040517f08c379a0000000000000000000000000000000000000000000000000000000008152600401610c1d90614a02565b60405180910390fd5b601360149054906101000a900460ff1615601360146101000a81548160ff021916908315150217905550565b610c63610c5d612467565b82612536565b610ca2576040517f08c379a0000000000000000000000000000000000000000000000000000000008152600401610c9990614a94565b60405180910390fd5b610cad838383612614565b505050565b6000610cbd836112c8565b8210610cfe576040517f08c379a0000000000000000000000000000000000000000000000000000000008152600401610cf590614b26565b60405180910390fd5b600660008473ffffffffffffffffffffffffffffffffffffffff1673ffffffffffffffffffffffffffffffffffffffff168152602001908152602001600020600083815260200190815260200160002054905092915050565b601060009054906101000a900460ff16610da6576040517f08c379a0000000000000000000000000000000000000000000000000000000008152600401610d9d90614bb8565b60405180910390fd5b601154811115610deb576040517f08c379a0000000000000000000000000000000000000000000000000000000008152600401610de290614c4a565b60405180910390fd5b601254610e0882610dfa61095d565b61287090919063ffffffff16565b1115610e49576040517f08c379a0000000000000000000000000000000000000000000000000000000008152600401610e4090614cdc565b60405180910390fd5b34610e5f82600f5461288690919063ffffffff16565b1115610ea0576040517f08c379a0000000000000000000000000000000000000000000000000000000008152600401610e9790614d48565b60405180910390fd5b600080600090505b82811015610ef557610eba600c612528565b9150610ec6600c61289c565b610ed033836128b2565b610ee282610edd846128d0565b612a31565b8080610eed90614d68565b915050610ea8565b50601254610f03600c612528565b1415610f1257610f11610f16565b5b5050565b610f1e612467565b73ffffffffffffffffffffffffffffffffffffffff16610f3c611408565b73ffffffffffffffffffffffffffffffffffffffff1614610f92576040517f08c379a0000000000000000000000000000000000000000000000000000000008152600401610f8990614a02565b60405180910390fd5b601060009054906101000a900460ff1615601060006101000a81548160ff021916908315150217905550565b610fc6612467565b73ffffffffffffffffffffffffffffffffffffffff16610fe4611408565b73ffffffffffffffffffffffffffffffffffffffff161461103a576040517f08c379a000000000000000000000000000000000000000000000000000000000815260040161103190614a02565b60405180910390fd5b60004790503373ffffffffffffffffffffffffffffffffffffffff166108fc829081150290604051600060405180830381858888f19350505050158015611085573d6000803e3d6000fd5b5050565b6110a483838360405180602001604052806000815250611898565b505050565b60006110b361095d565b82106110f4576040517f08c379a00000000000000000000000000000000000000000000000000000000081526004016110eb90614e23565b60405180910390fd5b6008828154811061110857611107614e43565b5b90600052602060002001549050919050565b601360009054906101000a900473ffffffffffffffffffffffffffffffffffffffff1673ffffffffffffffffffffffffffffffffffffffff163373ffffffffffffffffffffffffffffffffffffffff16146111aa576040517f08c379a00000000000000000000000000000000000000000000000000000000081526004016111a190614915565b60405180910390fd5b600160146000848152602001908152602001600020600001600083815260200190815260200160002060000160118282829054906101000a900463ffffffff166111f49190614e82565b92506101000a81548163ffffffff021916908363ffffffff1602179055505050565b6000806002600084815260200190815260200160002060009054906101000a900473ffffffffffffffffffffffffffffffffffffffff169050600073ffffffffffffffffffffffffffffffffffffffff168173ffffffffffffffffffffffffffffffffffffffff1614156112bf576040517f08c379a00000000000000000000000000000000000000000000000000000000081526004016112b690614f2e565b60405180910390fd5b80915050919050565b60008073ffffffffffffffffffffffffffffffffffffffff168273ffffffffffffffffffffffffffffffffffffffff161415611339576040517f08c379a000000000000000000000000000000000000000000000000000000000815260040161133090614fc0565b60405180910390fd5b600360008373ffffffffffffffffffffffffffffffffffffffff1673ffffffffffffffffffffffffffffffffffffffff168152602001908152602001600020549050919050565b611388612467565b73ffffffffffffffffffffffffffffffffffffffff166113a6611408565b73ffffffffffffffffffffffffffffffffffffffff16146113fc576040517f08c379a00000000000000000000000000000000000000000000000000000000081526004016113f390614a02565b60405180910390fd5b6114066000612aa5565b565b6000600b60009054906101000a900473ffffffffffffffffffffffffffffffffffffffff16905090565b606060018054611441906146bb565b80601f016020809104026020016040519081016040528092919081815260200182805461146d906146bb565b80156114ba5780601f1061148f576101008083540402835291602001916114ba565b820191906000526020600020905b81548152906001019060200180831161149d57829003601f168201915b5050505050905090565b606060006114d061094c565b67ffffffffffffffff8111156114e9576114e8613fdd565b5b6040519080825280602002602001820160405280156115175781602001602082028036833780820191505090505b50905060005b61152561094c565b8110156115c3576014600082815260200190815260200160002060030160009054906101000a900473ffffffffffffffffffffffffffffffffffffffff1682828151811061157657611575614e43565b5b602002602001019073ffffffffffffffffffffffffffffffffffffffff16908173ffffffffffffffffffffffffffffffffffffffff168152505080806115bb90614d68565b91505061151d565b508091505090565b6115dd6115d6612467565b8383612b6b565b5050565b601360009054906101000a900473ffffffffffffffffffffffffffffffffffffffff1673ffffffffffffffffffffffffffffffffffffffff163373ffffffffffffffffffffffffffffffffffffffff1614611671576040517f08c379a000000000000000000000000000000000000000000000000000000000815260040161166890614915565b60405180910390fd5b60006014600089815260200190815260200160002090506040518060c00160405280600d85856040516116a5929190615010565b908152602001604051809103902060009054906101000a900460ff1660098111156116d3576116d2615029565b5b81526020018863ffffffff1681526020018763ffffffff1681526020018663ffffffff1681526020018563ffffffff168152602001600063ffffffff168152508160000160008360020160009054906101000a900467ffffffffffffffff1667ffffffffffffffff16815260200190815260200160002060008201518160000160006101000a81548160ff0219169083600981111561177557611774615029565b5b021790555060208201518160000160016101000a81548163ffffffff021916908363ffffffff16021790555060408201518160000160056101000a81548163ffffffff021916908363ffffffff16021790555060608201518160000160096101000a81548163ffffffff021916908363ffffffff160217905550608082015181600001600d6101000a81548163ffffffff021916908363ffffffff16021790555060a08201518160000160116101000a81548163ffffffff021916908363ffffffff16021790555090505060018160020160008282829054906101000a900467ffffffffffffffff166118689190614978565b92506101000a81548167ffffffffffffffff021916908367ffffffffffffffff1602179055505050505050505050565b6118a96118a3612467565b83612536565b6118e8576040517f08c379a00000000000000000000000000000000000000000000000000000000081526004016118df90614a94565b60405180910390fd5b6118f484848484612cd8565b50505050565b606061190582612d34565b9050919050565b606060006014600084815260200190815260200160002060020160009054906101000a900467ffffffffffffffff1667ffffffffffffffff1667ffffffffffffffff81111561195e5761195d613fdd565b5b60405190808252806020026020018201604052801561198c5781602001602082028036833780820191505090505b50905060005b6014600085815260200190815260200160002060020160009054906101000a900467ffffffffffffffff1667ffffffffffffffff16811015611a4a5760146000858152602001908152602001600020600001600082815260200190815260200160002060000160009054906101000a900460ff166009811115611a1857611a17615029565b5b828281518110611a2b57611a2a614e43565b5b6020026020010181815250508080611a4290614d68565b915050611992565b5080915050919050565b6000600560008473ffffffffffffffffffffffffffffffffffffffff1673ffffffffffffffffffffffffffffffffffffffff16815260200190815260200160002060008373ffffffffffffffffffffffffffffffffffffffff1673ffffffffffffffffffffffffffffffffffffffff16815260200190815260200160002060009054906101000a900460ff16905092915050565b611af0612467565b73ffffffffffffffffffffffffffffffffffffffff16611b0e611408565b73ffffffffffffffffffffffffffffffffffffffff1614611b64576040517f08c379a0000000000000000000000000000000000000000000000000000000008152600401611b5b90614a02565b60405180910390fd5b600073ffffffffffffffffffffffffffffffffffffffff168173ffffffffffffffffffffffffffffffffffffffff161415611bd4576040517f08c379a0000000000000000000000000000000000000000000000000000000008152600401611bcb906150ca565b60405180910390fd5b611bdd81612aa5565b50565b601360009054906101000a900473ffffffffffffffffffffffffffffffffffffffff1673ffffffffffffffffffffffffffffffffffffffff163373ffffffffffffffffffffffffffffffffffffffff1614611c70576040517f08c379a0000000000000000000000000000000000000000000000000000000008152600401611c6790614915565b60405180910390fd5b600073ffffffffffffffffffffffffffffffffffffffff16601460008c815260200190815260200160002060030160009054906101000a900473ffffffffffffffffffffffffffffffffffffffff1673ffffffffffffffffffffffffffffffffffffffff1614611d15576040517f08c379a0000000000000000000000000000000000000000000000000000000008152600401611d0c90615136565b60405180910390fd5b60005b89811015611e6a57600e54600d858381518110611d3857611d37614e43565b5b6020026020010151604051611d4d9190615187565b908152602001604051809103902060009054906101000a900460ff166009811115611d7b57611d7a615029565b5b1115611dbc576040517f08c379a0000000000000000000000000000000000000000000000000000000008152600401611db3906151ea565b60405180910390fd5b6003600d858381518110611dd357611dd2614e43565b5b6020026020010151604051611de89190615187565b908152602001604051809103902060009054906101000a900460ff166009811115611e1657611e15615029565b5b1415611e57576040517f08c379a0000000000000000000000000000000000000000000000000000000008152600401611e4e90615256565b60405180910390fd5b8080611e6290614d68565b915050611d18565b506000601460008c8152602001908152602001600020905060005b8a81101561206957888181518110611ea057611e9f614e43565b5b602002602001015182600001600083815260200190815260200160002060000160016101000a81548163ffffffff021916908363ffffffff160217905550878181518110611ef157611ef0614e43565b5b602002602001015182600001600083815260200190815260200160002060000160056101000a81548163ffffffff021916908363ffffffff160217905550868181518110611f4257611f41614e43565b5b602002602001015182600001600083815260200190815260200160002060000160096101000a81548163ffffffff021916908363ffffffff160217905550858181518110611f9357611f92614e43565b5b6020026020010151826000016000838152602001908152602001600020600001600d6101000a81548163ffffffff021916908363ffffffff160217905550600d858281518110611fe657611fe5614e43565b5b6020026020010151604051611ffb9190615187565b908152602001604051809103902060009054906101000a900460ff1682600001600083815260200190815260200160002060000160006101000a81548160ff0219169083600981111561205157612050615029565b5b0217905550808061206190614d68565b915050611e85565b5060008a90505b8a8a61207c9190615276565b81101561226d5788818151811061209657612095614e43565b5b60200260200101518260010160008d846120b091906152cc565b815260200190815260200160002060000160046101000a81548163ffffffff021916908363ffffffff1602179055508881815181106120f2576120f1614e43565b5b60200260200101518260010160008d8461210c91906152cc565b815260200190815260200160002060000160086101000a81548163ffffffff021916908363ffffffff16021790555088818151811061214e5761214d614e43565b5b60200260200101518260010160008d8461216891906152cc565b8152602001908152602001600020600001600c6101000a81548163ffffffff021916908363ffffffff1602179055508881815181106121aa576121a9614e43565b5b60200260200101518260010160008d846121c491906152cc565b815260200190815260200160002060000160106101000a81548163ffffffff021916908363ffffffff160217905550838b8261220091906152cc565b8151811061221157612210614e43565b5b60200260200101518260010160008d8461222b91906152cc565b815260200190815260200160002060000160006101000a81548163ffffffff021916908363ffffffff160217905550808061226590614d68565b915050612070565b50898160020160006101000a81548167ffffffffffffffff021916908367ffffffffffffffff160217905550888160020160086101000a81548167ffffffffffffffff021916908367ffffffffffffffff160217905550818160020160186101000a81548167ffffffffffffffff021916908367ffffffffffffffff160217905550601560009054906101000a900467ffffffffffffffff168160020160106101000a81548167ffffffffffffffff021916908367ffffffffffffffff1602179055508b8160030160006101000a81548173ffffffffffffffffffffffffffffffffffffffff021916908373ffffffffffffffffffffffffffffffffffffffff160217905550505050505050505050505050565b60007f780e9d63000000000000000000000000000000000000000000000000000000007bffffffffffffffffffffffffffffffffffffffffffffffffffffffff1916827bffffffffffffffffffffffffffffffffffffffffffffffffffffffff191614806123f457506123f382612e86565b5b9050919050565b60008073ffffffffffffffffffffffffffffffffffffffff166002600084815260200190815260200160002060009054906101000a900473ffffffffffffffffffffffffffffffffffffffff1673ffffffffffffffffffffffffffffffffffffffff1614159050919050565b600033905090565b816004600083815260200190815260200160002060006101000a81548173ffffffffffffffffffffffffffffffffffffffff021916908373ffffffffffffffffffffffffffffffffffffffff160217905550808273ffffffffffffffffffffffffffffffffffffffff166124e283611216565b73ffffffffffffffffffffffffffffffffffffffff167f8c5be1e5ebec7d5bd14f71427d1e84f3dd0314c0f7b2291e5b200ac8c7c3b92560405160405180910390a45050565b600081600001549050919050565b6000612541826123fb565b612580576040517f08c379a000000000000000000000000000000000000000000000000000000000815260040161257790615372565b60405180910390fd5b600061258b83611216565b90508073ffffffffffffffffffffffffffffffffffffffff168473ffffffffffffffffffffffffffffffffffffffff1614806125fa57508373ffffffffffffffffffffffffffffffffffffffff166125e2846107af565b73ffffffffffffffffffffffffffffffffffffffff16145b8061260b575061260a8185611a54565b5b91505092915050565b8273ffffffffffffffffffffffffffffffffffffffff1661263482611216565b73ffffffffffffffffffffffffffffffffffffffff161461268a576040517f08c379a000000000000000000000000000000000000000000000000000000000815260040161268190615404565b60405180910390fd5b600073ffffffffffffffffffffffffffffffffffffffff168273ffffffffffffffffffffffffffffffffffffffff1614156126fa576040517f08c379a00000000000000000000000000000000000000000000000000000000081526004016126f190615496565b60405180910390fd5b612705838383612f68565b61271060008261246f565b6001600360008573ffffffffffffffffffffffffffffffffffffffff1673ffffffffffffffffffffffffffffffffffffffff168152602001908152602001600020600082825461276091906152cc565b925050819055506001600360008473ffffffffffffffffffffffffffffffffffffffff1673ffffffffffffffffffffffffffffffffffffffff16815260200190815260200160002060008282546127b79190615276565b92505081905550816002600083815260200190815260200160002060006101000a81548173ffffffffffffffffffffffffffffffffffffffff021916908373ffffffffffffffffffffffffffffffffffffffff160217905550808273ffffffffffffffffffffffffffffffffffffffff168473ffffffffffffffffffffffffffffffffffffffff167fddf252ad1be2c89b69c2b068fc378daa952ba7f163c4a11628f55a4df523b3ef60405160405180910390a4505050565b6000818361287e9190615276565b905092915050565b6000818361289491906154b6565b905092915050565b6001816000016000828254019250508190555050565b6128cc828260405180602001604052806000815250612f78565b5050565b60606000821415612918576040518060400160405280600181526020017f30000000000000000000000000000000000000000000000000000000000000008152509050612a2c565b600082905060005b6000821461294a57808061293390614d68565b915050600a82612943919061553f565b9150612920565b60008167ffffffffffffffff81111561296657612965613fdd565b5b6040519080825280601f01601f1916602001820160405280156129985781602001600182028036833780820191505090505b5090505b60008514612a25576001826129b191906152cc565b9150600a856129c09190615570565b60306129cc9190615276565b60f81b8183815181106129e2576129e1614e43565b5b60200101907effffffffffffffffffffffffffffffffffffffffffffffffffffffffffffff1916908160001a905350600a85612a1e919061553f565b945061299c565b8093505050505b919050565b612a3a826123fb565b612a79576040517f08c379a0000000000000000000000000000000000000000000000000000000008152600401612a7090615613565b60405180910390fd5b80600a60008481526020019081526020016000209080519060200190612aa09291906138a9565b505050565b6000600b60009054906101000a900473ffffffffffffffffffffffffffffffffffffffff16905081600b60006101000a81548173ffffffffffffffffffffffffffffffffffffffff021916908373ffffffffffffffffffffffffffffffffffffffff1602179055508173ffffffffffffffffffffffffffffffffffffffff168173ffffffffffffffffffffffffffffffffffffffff167f8be0079c531659141344cd1fd0a4f28419497f9722a3daafe3b4186f6b6457e060405160405180910390a35050565b8173ffffffffffffffffffffffffffffffffffffffff168373ffffffffffffffffffffffffffffffffffffffff161415612bda576040517f08c379a0000000000000000000000000000000000000000000000000000000008152600401612bd19061567f565b60405180910390fd5b80600560008573ffffffffffffffffffffffffffffffffffffffff1673ffffffffffffffffffffffffffffffffffffffff16815260200190815260200160002060008473ffffffffffffffffffffffffffffffffffffffff1673ffffffffffffffffffffffffffffffffffffffff16815260200190815260200160002060006101000a81548160ff0219169083151502179055508173ffffffffffffffffffffffffffffffffffffffff168373ffffffffffffffffffffffffffffffffffffffff167f17307eab39ab6107e8899845ad3d59bd9653f200f220920489ca2b5937696c3183604051612ccb9190613a00565b60405180910390a3505050565b612ce3848484612614565b612cef84848484612fd3565b612d2e576040517f08c379a0000000000000000000000000000000000000000000000000000000008152600401612d2590615711565b60405180910390fd5b50505050565b6060612d3f826123fb565b612d7e576040517f08c379a0000000000000000000000000000000000000000000000000000000008152600401612d75906157a3565b60405180910390fd5b6000600a60008481526020019081526020016000208054612d9e906146bb565b80601f0160208091040260200160405190810160405280929190818152602001828054612dca906146bb565b8015612e175780601f10612dec57610100808354040283529160200191612e17565b820191906000526020600020905b815481529060010190602001808311612dfa57829003601f168201915b505050505090506000612e2861315b565b9050600081511415612e3e578192505050612e81565b600082511115612e73578082604051602001612e5b9291906157c3565b60405160208183030381529060405292505050612e81565b612e7c84613198565b925050505b919050565b60007f80ac58cd000000000000000000000000000000000000000000000000000000007bffffffffffffffffffffffffffffffffffffffffffffffffffffffff1916827bffffffffffffffffffffffffffffffffffffffffffffffffffffffff19161480612f5157507f5b5e139f000000000000000000000000000000000000000000000000000000007bffffffffffffffffffffffffffffffffffffffffffffffffffffffff1916827bffffffffffffffffffffffffffffffffffffffffffffffffffffffff1916145b80612f615750612f608261323f565b5b9050919050565b612f738383836132a9565b505050565b612f8283836133bd565b612f8f6000848484612fd3565b612fce576040517f08c379a0000000000000000000000000000000000000000000000000000000008152600401612fc590615711565b60405180910390fd5b505050565b6000612ff48473ffffffffffffffffffffffffffffffffffffffff1661358b565b1561314e578373ffffffffffffffffffffffffffffffffffffffff1663150b7a0261301d612467565b8786866040518563ffffffff1660e01b815260040161303f949392919061583c565b6020604051808303816000875af192505050801561307b57506040513d601f19601f82011682018060405250810190613078919061589d565b60015b6130fe573d80600081146130ab576040519150601f19603f3d011682016040523d82523d6000602084013e6130b0565b606091505b506000815114156130f6576040517f08c379a00000000000000000000000000000000000000000000000000000000081526004016130ed90615711565b60405180910390fd5b805181602001fd5b63150b7a0260e01b7bffffffffffffffffffffffffffffffffffffffffffffffffffffffff1916817bffffffffffffffffffffffffffffffffffffffffffffffffffffffff191614915050613153565b600190505b949350505050565b60606040518060400160405280601c81526020017f687474703a2f2f6c6f63616c686f73743a333030302f63697469657300000000815250905090565b60606131a3826123fb565b6131e2576040517f08c379a00000000000000000000000000000000000000000000000000000000081526004016131d99061593c565b60405180910390fd5b60006131ec61315b565b9050600081511161320c5760405180602001604052806000815250613237565b80613216846128d0565b6040516020016132279291906157c3565b6040516020818303038152906040525b915050919050565b60007f01ffc9a7000000000000000000000000000000000000000000000000000000007bffffffffffffffffffffffffffffffffffffffffffffffffffffffff1916827bffffffffffffffffffffffffffffffffffffffffffffffffffffffff1916149050919050565b6132b483838361359e565b600073ffffffffffffffffffffffffffffffffffffffff168373ffffffffffffffffffffffffffffffffffffffff1614156132f7576132f2816135a3565b613336565b8173ffffffffffffffffffffffffffffffffffffffff168373ffffffffffffffffffffffffffffffffffffffff16146133355761333483826135ec565b5b5b600073ffffffffffffffffffffffffffffffffffffffff168273ffffffffffffffffffffffffffffffffffffffff1614156133795761337481613759565b6133b8565b8273ffffffffffffffffffffffffffffffffffffffff168273ffffffffffffffffffffffffffffffffffffffff16146133b7576133b6828261382a565b5b5b505050565b600073ffffffffffffffffffffffffffffffffffffffff168273ffffffffffffffffffffffffffffffffffffffff16141561342d576040517f08c379a0000000000000000000000000000000000000000000000000000000008152600401613424906159a8565b60405180910390fd5b613436816123fb565b15613476576040517f08c379a000000000000000000000000000000000000000000000000000000000815260040161346d90615a14565b60405180910390fd5b61348260008383612f68565b6001600360008473ffffffffffffffffffffffffffffffffffffffff1673ffffffffffffffffffffffffffffffffffffffff16815260200190815260200160002060008282546134d29190615276565b92505081905550816002600083815260200190815260200160002060006101000a81548173ffffffffffffffffffffffffffffffffffffffff021916908373ffffffffffffffffffffffffffffffffffffffff160217905550808273ffffffffffffffffffffffffffffffffffffffff16600073ffffffffffffffffffffffffffffffffffffffff167fddf252ad1be2c89b69c2b068fc378daa952ba7f163c4a11628f55a4df523b3ef60405160405180910390a45050565b600080823b905060008111915050919050565b505050565b6008805490506009600083815260200190815260200160002081905550600881908060018154018082558091505060019003906000526020600020016000909190919091505550565b600060016135f9846112c8565b61360391906152cc565b90506000600760008481526020019081526020016000205490508181146136e8576000600660008673ffffffffffffffffffffffffffffffffffffffff1673ffffffffffffffffffffffffffffffffffffffff168152602001908152602001600020600084815260200190815260200160002054905080600660008773ffffffffffffffffffffffffffffffffffffffff1673ffffffffffffffffffffffffffffffffffffffff168152602001908152602001600020600084815260200190815260200160002081905550816007600083815260200190815260200160002081905550505b6007600084815260200190815260200160002060009055600660008573ffffffffffffffffffffffffffffffffffffffff1673ffffffffffffffffffffffffffffffffffffffff16815260200190815260200160002060008381526020019081526020016000206000905550505050565b6000600160088054905061376d91906152cc565b905060006009600084815260200190815260200160002054905060006008838154811061379d5761379c614e43565b5b9060005260206000200154905080600883815481106137bf576137be614e43565b5b90600052602060002001819055508160096000838152602001908152602001600020819055506009600085815260200190815260200160002060009055600880548061380e5761380d615a34565b5b6001900381819060005260206000200160009055905550505050565b6000613835836112c8565b905081600660008573ffffffffffffffffffffffffffffffffffffffff1673ffffffffffffffffffffffffffffffffffffffff168152602001908152602001600020600083815260200190815260200160002081905550806007600084815260200190815260200160002081905550505050565b8280546138b5906146bb565b90600052602060002090601f0160209004810192826138d7576000855561391e565b82601f106138f057805160ff191683800117855561391e565b8280016001018555821561391e579182015b8281111561391d578251825591602001919060010190613902565b5b50905061392b919061392f565b5090565b5b80821115613948576000816000905550600101613930565b5090565b6000604051905090565b600080fd5b600080fd5b60007fffffffff0000000000000000000000000000000000000000000000000000000082169050919050565b61399581613960565b81146139a057600080fd5b50565b6000813590506139b28161398c565b92915050565b6000602082840312156139ce576139cd613956565b5b60006139dc848285016139a3565b91505092915050565b60008115159050919050565b6139fa816139e5565b82525050565b6000602082019050613a1560008301846139f1565b92915050565b600081519050919050565b600082825260208201905092915050565b60005b83811015613a55578082015181840152602081019050613a3a565b83811115613a64576000848401525b50505050565b6000601f19601f8301169050919050565b6000613a8682613a1b565b613a908185613a26565b9350613aa0818560208601613a37565b613aa981613a6a565b840191505092915050565b60006020820190508181036000830152613ace8184613a7b565b905092915050565b6000819050919050565b613ae981613ad6565b8114613af457600080fd5b50565b600081359050613b0681613ae0565b92915050565b600060208284031215613b2257613b21613956565b5b6000613b3084828501613af7565b91505092915050565b600073ffffffffffffffffffffffffffffffffffffffff82169050919050565b6000613b6482613b39565b9050919050565b613b7481613b59565b82525050565b6000602082019050613b8f6000830184613b6b565b92915050565b613b9e81613b59565b8114613ba957600080fd5b50565b600081359050613bbb81613b95565b92915050565b60008060408385031215613bd857613bd7613956565b5b6000613be685828601613bac565b9250506020613bf785828601613af7565b9150509250929050565b613c0a81613ad6565b82525050565b6000602082019050613c256000830184613c01565b92915050565b60008060008060008060c08789031215613c4857613c47613956565b5b6000613c5689828a01613af7565b9650506020613c6789828a01613af7565b9550506040613c7889828a01613af7565b9450506060613c8989828a01613af7565b9350506080613c9a89828a01613af7565b92505060a0613cab89828a01613af7565b9150509295509295509295565b600080600060608486031215613cd157613cd0613956565b5b6000613cdf86828701613bac565b9350506020613cf086828701613bac565b9250506040613d0186828701613af7565b9150509250925092565b60008060408385031215613d2257613d21613956565b5b6000613d3085828601613af7565b9250506020613d4185828601613af7565b9150509250929050565b600060208284031215613d6157613d60613956565b5b6000613d6f84828501613bac565b91505092915050565b600081519050919050565b600082825260208201905092915050565b6000819050602082019050919050565b613dad81613b59565b82525050565b6000613dbf8383613da4565b60208301905092915050565b6000602082019050919050565b6000613de382613d78565b613ded8185613d83565b9350613df883613d94565b8060005b83811015613e29578151613e108882613db3565b9750613e1b83613dcb565b925050600181019050613dfc565b5085935050505092915050565b60006020820190508181036000830152613e508184613dd8565b905092915050565b613e61816139e5565b8114613e6c57600080fd5b50565b600081359050613e7e81613e58565b92915050565b60008060408385031215613e9b57613e9a613956565b5b6000613ea985828601613bac565b9250506020613eba85828601613e6f565b9150509250929050565b600080fd5b600080fd5b600080fd5b60008083601f840112613ee957613ee8613ec4565b5b8235905067ffffffffffffffff811115613f0657613f05613ec9565b5b602083019150836001820283011115613f2257613f21613ece565b5b9250929050565b600080600080600080600060c0888a031215613f4857613f47613956565b5b6000613f568a828b01613af7565b9750506020613f678a828b01613af7565b9650506040613f788a828b01613af7565b9550506060613f898a828b01613af7565b9450506080613f9a8a828b01613af7565b93505060a088013567ffffffffffffffff811115613fbb57613fba61395b565b5b613fc78a828b01613ed3565b925092505092959891949750929550565b600080fd5b7f4e487b7100000000000000000000000000000000000000000000000000000000600052604160045260246000fd5b61401582613a6a565b810181811067ffffffffffffffff8211171561403457614033613fdd565b5b80604052505050565b600061404761394c565b9050614053828261400c565b919050565b600067ffffffffffffffff82111561407357614072613fdd565b5b61407c82613a6a565b9050602081019050919050565b82818337600083830152505050565b60006140ab6140a684614058565b61403d565b9050828152602081018484840111156140c7576140c6613fd8565b5b6140d2848285614089565b509392505050565b600082601f8301126140ef576140ee613ec4565b5b81356140ff848260208601614098565b91505092915050565b6000806000806080858703121561412257614121613956565b5b600061413087828801613bac565b945050602061414187828801613bac565b935050604061415287828801613af7565b925050606085013567ffffffffffffffff8111156141735761417261395b565b5b61417f878288016140da565b91505092959194509250565b600081519050919050565b600082825260208201905092915050565b6000819050602082019050919050565b6141c081613ad6565b82525050565b60006141d283836141b7565b60208301905092915050565b6000602082019050919050565b60006141f68261418b565b6142008185614196565b935061420b836141a7565b8060005b8381101561423c57815161422388826141c6565b975061422e836141de565b92505060018101905061420f565b5085935050505092915050565b6000602082019050818103600083015261426381846141eb565b905092915050565b6000806040838503121561428257614281613956565b5b600061429085828601613bac565b92505060206142a185828601613bac565b9150509250929050565b600067ffffffffffffffff8211156142c6576142c5613fdd565b5b602082029050602081019050919050565b60006142ea6142e5846142ab565b61403d565b9050808382526020820190506020840283018581111561430d5761430c613ece565b5b835b8181101561433657806143228882613af7565b84526020840193505060208101905061430f565b5050509392505050565b600082601f83011261435557614354613ec4565b5b81356143658482602086016142d7565b91505092915050565b600067ffffffffffffffff82111561438957614388613fdd565b5b602082029050602081019050919050565b600067ffffffffffffffff8211156143b5576143b4613fdd565b5b6143be82613a6a565b9050602081019050919050565b60006143de6143d98461439a565b61403d565b9050828152602081018484840111156143fa576143f9613fd8565b5b614405848285614089565b509392505050565b600082601f83011261442257614421613ec4565b5b81356144328482602086016143cb565b91505092915050565b600061444e6144498461436e565b61403d565b9050808382526020820190506020840283018581111561447157614470613ece565b5b835b818110156144b857803567ffffffffffffffff81111561449657614495613ec4565b5b8086016144a3898261440d565b85526020850194505050602081019050614473565b5050509392505050565b600082601f8301126144d7576144d6613ec4565b5b81356144e784826020860161443b565b91505092915050565b60008060008060008060008060008060006101608c8e03121561451657614515613956565b5b60006145248e828f01613bac565b9b505060206145358e828f01613af7565b9a505060406145468e828f01613af7565b99505060606145578e828f01613af7565b98505060808c013567ffffffffffffffff8111156145785761457761395b565b5b6145848e828f01614340565b97505060a08c013567ffffffffffffffff8111156145a5576145a461395b565b5b6145b18e828f01614340565b96505060c08c013567ffffffffffffffff8111156145d2576145d161395b565b5b6145de8e828f01614340565b95505060e08c013567ffffffffffffffff8111156145ff576145fe61395b565b5b61460b8e828f01614340565b9450506101008c013567ffffffffffffffff81111561462d5761462c61395b565b5b6146398e828f016144c2565b9350506101208c013567ffffffffffffffff81111561465b5761465a61395b565b5b6146678e828f01614340565b9250506101406146798e828f01613af7565b9150509295989b509295989b9093969950565b7f4e487b7100000000000000000000000000000000000000000000000000000000600052602260045260246000fd5b600060028204905060018216806146d357607f821691505b602082108114156146e7576146e661468c565b5b50919050565b7f4552433732313a20617070726f76656420717565727920666f72206e6f6e657860008201527f697374656e7420746f6b656e0000000000000000000000000000000000000000602082015250565b6000614749602c83613a26565b9150614754826146ed565b604082019050919050565b600060208201905081810360008301526147788161473c565b9050919050565b7f4552433732313a20617070726f76616c20746f2063757272656e74206f776e6560008201527f7200000000000000000000000000000000000000000000000000000000000000602082015250565b60006147db602183613a26565b91506147e68261477f565b604082019050919050565b6000602082019050818103600083015261480a816147ce565b9050919050565b7f4552433732313a20617070726f76652063616c6c6572206973206e6f74206f7760008201527f6e6572206e6f7220617070726f76656420666f7220616c6c0000000000000000602082015250565b600061486d603883613a26565b915061487882614811565b604082019050919050565b6000602082019050818103600083015261489c81614860565b9050919050565b7f5468652063616c6c6572206f66207468652066756e6374696f6e206973206e6f60008201527f742061646d696e00000000000000000000000000000000000000000000000000602082015250565b60006148ff602783613a26565b915061490a826148a3565b604082019050919050565b6000602082019050818103600083015261492e816148f2565b9050919050565b600067ffffffffffffffff82169050919050565b7f4e487b7100000000000000000000000000000000000000000000000000000000600052601160045260246000fd5b600061498382614935565b915061498e83614935565b92508267ffffffffffffffff038211156149ab576149aa614949565b5b828201905092915050565b7f4f776e61626c653a2063616c6c6572206973206e6f7420746865206f776e6572600082015250565b60006149ec602083613a26565b91506149f7826149b6565b602082019050919050565b60006020820190508181036000830152614a1b816149df565b9050919050565b7f4552433732313a207472616e736665722063616c6c6572206973206e6f74206f60008201527f776e6572206e6f7220617070726f766564000000000000000000000000000000602082015250565b6000614a7e603183613a26565b9150614a8982614a22565b604082019050919050565b60006020820190508181036000830152614aad81614a71565b9050919050565b7f455243373231456e756d657261626c653a206f776e657220696e646578206f7560008201527f74206f6620626f756e6473000000000000000000000000000000000000000000602082015250565b6000614b10602b83613a26565b9150614b1b82614ab4565b604082019050919050565b60006020820190508181036000830152614b3f81614b03565b9050919050565b7f53616c65206d7573742062652061637469766520746f206d696e74206120436960008201527f7479204e46540000000000000000000000000000000000000000000000000000602082015250565b6000614ba2602683613a26565b9150614bad82614b46565b604082019050919050565b60006020820190508181036000830152614bd181614b95565b9050919050565b7f43616e206f6e6c79206d696e7420313020746f6b656e7320617420612074696d60008201527f6500000000000000000000000000000000000000000000000000000000000000602082015250565b6000614c34602183613a26565b9150614c3f82614bd8565b604082019050919050565b60006020820190508181036000830152614c6381614c27565b9050919050565b7f507572636861736520776f756c6420657863656564206d6178206e756d62657260008201527f206f662043697479204e46547300000000000000000000000000000000000000602082015250565b6000614cc6602d83613a26565b9150614cd182614c6a565b604082019050919050565b60006020820190508181036000830152614cf581614cb9565b9050919050565b7f45746865722076616c75652073656e74206973206e6f7420636f727265637400600082015250565b6000614d32601f83613a26565b9150614d3d82614cfc565b602082019050919050565b60006020820190508181036000830152614d6181614d25565b9050919050565b6000614d7382613ad6565b91507fffffffffffffffffffffffffffffffffffffffffffffffffffffffffffffffff821415614da657614da5614949565b5b600182019050919050565b7f455243373231456e756d657261626c653a20676c6f62616c20696e646578206f60008201527f7574206f6620626f756e64730000000000000000000000000000000000000000602082015250565b6000614e0d602c83613a26565b9150614e1882614db1565b604082019050919050565b60006020820190508181036000830152614e3c81614e00565b9050919050565b7f4e487b7100000000000000000000000000000000000000000000000000000000600052603260045260246000fd5b600063ffffffff82169050919050565b6000614e8d82614e72565b9150614e9883614e72565b92508263ffffffff03821115614eb157614eb0614949565b5b828201905092915050565b7f4552433732313a206f776e657220717565727920666f72206e6f6e657869737460008201527f656e7420746f6b656e0000000000000000000000000000000000000000000000602082015250565b6000614f18602983613a26565b9150614f2382614ebc565b604082019050919050565b60006020820190508181036000830152614f4781614f0b565b9050919050565b7f4552433732313a2062616c616e636520717565727920666f7220746865207a6560008201527f726f206164647265737300000000000000000000000000000000000000000000602082015250565b6000614faa602a83613a26565b9150614fb582614f4e565b604082019050919050565b60006020820190508181036000830152614fd981614f9d565b9050919050565b600081905092915050565b6000614ff78385614fe0565b9350615004838584614089565b82840190509392505050565b600061501d828486614feb565b91508190509392505050565b7f4e487b7100000000000000000000000000000000000000000000000000000000600052602160045260246000fd5b7f4f776e61626c653a206e6577206f776e657220697320746865207a65726f206160008201527f6464726573730000000000000000000000000000000000000000000000000000602082015250565b60006150b4602683613a26565b91506150bf82615058565b604082019050919050565b600060208201905081810360008301526150e3816150a7565b9050919050565b7f4369747920697320616c726561647920696e697469616c697a65640000000000600082015250565b6000615120601b83613a26565b915061512b826150ea565b602082019050919050565b6000602082019050818103600083015261514f81615113565b9050919050565b600061516182613a1b565b61516b8185614fe0565b935061517b818560208601613a37565b80840191505092915050565b60006151938284615156565b915081905092915050565b7f496e76616c6964206275696c64696e6720747970650000000000000000000000600082015250565b60006151d4601583613a26565b91506151df8261519e565b602082019050919050565b60006020820190508181036000830152615203816151c7565b9050919050565b7f596f752063616e2774206275696c64207061726b696e67732100000000000000600082015250565b6000615240601983613a26565b915061524b8261520a565b602082019050919050565b6000602082019050818103600083015261526f81615233565b9050919050565b600061528182613ad6565b915061528c83613ad6565b9250827fffffffffffffffffffffffffffffffffffffffffffffffffffffffffffffffff038211156152c1576152c0614949565b5b828201905092915050565b60006152d782613ad6565b91506152e283613ad6565b9250828210156152f5576152f4614949565b5b828203905092915050565b7f4552433732313a206f70657261746f7220717565727920666f72206e6f6e657860008201527f697374656e7420746f6b656e0000000000000000000000000000000000000000602082015250565b600061535c602c83613a26565b915061536782615300565b604082019050919050565b6000602082019050818103600083015261538b8161534f565b9050919050565b7f4552433732313a207472616e73666572206f6620746f6b656e2074686174206960008201527f73206e6f74206f776e0000000000000000000000000000000000000000000000602082015250565b60006153ee602983613a26565b91506153f982615392565b604082019050919050565b6000602082019050818103600083015261541d816153e1565b9050919050565b7f4552433732313a207472616e7366657220746f20746865207a65726f2061646460008201527f7265737300000000000000000000000000000000000000000000000000000000602082015250565b6000615480602483613a26565b915061548b82615424565b604082019050919050565b600060208201905081810360008301526154af81615473565b9050919050565b60006154c182613ad6565b91506154cc83613ad6565b9250817fffffffffffffffffffffffffffffffffffffffffffffffffffffffffffffffff048311821515161561550557615504614949565b5b828202905092915050565b7f4e487b7100000000000000000000000000000000000000000000000000000000600052601260045260246000fd5b600061554a82613ad6565b915061555583613ad6565b92508261556557615564615510565b5b828204905092915050565b600061557b82613ad6565b915061558683613ad6565b92508261559657615595615510565b5b828206905092915050565b7f45524337323155524953746f726167653a2055524920736574206f66206e6f6e60008201527f6578697374656e7420746f6b656e000000000000000000000000000000000000602082015250565b60006155fd602e83613a26565b9150615608826155a1565b604082019050919050565b6000602082019050818103600083015261562c816155f0565b9050919050565b7f4552433732313a20617070726f766520746f2063616c6c657200000000000000600082015250565b6000615669601983613a26565b915061567482615633565b602082019050919050565b600060208201905081810360008301526156988161565c565b9050919050565b7f4552433732313a207472616e7366657220746f206e6f6e20455243373231526560008201527f63656976657220696d706c656d656e7465720000000000000000000000000000602082015250565b60006156fb603283613a26565b91506157068261569f565b604082019050919050565b6000602082019050818103600083015261572a816156ee565b9050919050565b7f45524337323155524953746f726167653a2055524920717565727920666f722060008201527f6e6f6e6578697374656e7420746f6b656e000000000000000000000000000000602082015250565b600061578d603183613a26565b915061579882615731565b604082019050919050565b600060208201905081810360008301526157bc81615780565b9050919050565b60006157cf8285615156565b91506157db8284615156565b91508190509392505050565b600081519050919050565b600082825260208201905092915050565b600061580e826157e7565b61581881856157f2565b9350615828818560208601613a37565b61583181613a6a565b840191505092915050565b60006080820190506158516000830187613b6b565b61585e6020830186613b6b565b61586b6040830185613c01565b818103606083015261587d8184615803565b905095945050505050565b6000815190506158978161398c565b92915050565b6000602082840312156158b3576158b2613956565b5b60006158c184828501615888565b91505092915050565b7f4552433732314d657461646174613a2055524920717565727920666f72206e6f60008201527f6e6578697374656e7420746f6b656e0000000000000000000000000000000000602082015250565b6000615926602f83613a26565b9150615931826158ca565b604082019050919050565b6000602082019050818103600083015261595581615919565b9050919050565b7f4552433732313a206d696e7420746f20746865207a65726f2061646472657373600082015250565b6000615992602083613a26565b915061599d8261595c565b602082019050919050565b600060208201905081810360008301526159c181615985565b9050919050565b7f4552433732313a20746f6b656e20616c7265616479206d696e74656400000000600082015250565b60006159fe601c83613a26565b9150615a09826159c8565b602082019050919050565b60006020820190508181036000830152615a2d816159f1565b9050919050565b7f4e487b7100000000000000000000000000000000000000000000000000000000600052603160045260246000fdfea2646970667358221220d9e27e0c58b4a1832fc10a20233c38508fc0f597a8b429be687b8b103302240264736f6c634300080b0033",
  "immutableReferences": {},
  "source": "// SPDX-License-Identifier: MIT\r\npragma solidity ^0.8.11;\r\n\r\nimport \"../node_modules/@openzeppelin/contracts/token/ERC721/ERC721.sol\";\r\nimport \"../node_modules/@openzeppelin/contracts/token/ERC721/extensions/ERC721Enumerable.sol\";\r\nimport \"../node_modules/@openzeppelin/contracts/token/ERC721/extensions/ERC721URIStorage.sol\";\r\nimport \"../node_modules/@openzeppelin/contracts/access/Ownable.sol\";\r\nimport \"../node_modules/@openzeppelin/contracts/utils/Counters.sol\";\r\nimport \"../node_modules/@openzeppelin/contracts/utils/math/SafeMath.sol\";\r\nimport \"../node_modules/@openzeppelin/contracts/utils/Strings.sol\";\r\n\r\n// trebam da napravim funkcije za upgradeovanje i gradjenje, ne treba mi provera argumenata jer funkciju moze da pozove samo owner\r\n// dok api koji poziva ovu funkciju moze da pozove samo osoba koja poseduje nft datog\r\n\r\n\r\n/* TEST PRIMER: \r\ninstance.safeMint(1, {value: web3.utils.toWei('0.1', 'ether'), from: accounts[1]})\r\ninstance.initializeCity(accounts[1], 1, 2, 0, [3, 4], [3, 4], [3, 4], [3, 4], ['house', 'house'], [], 10000)\r\n\r\n*/\r\n\r\n\r\ncontract CityContract is ERC721, ERC721Enumerable, ERC721URIStorage, Ownable {\r\n    using Counters for Counters.Counter;\r\n    using SafeMath for uint256;\r\n\r\n    Counters.Counter private _tokenIdCounter; // counter representing the latest tokenId\r\n\r\n    constructor() ERC721(\"CityBuilders\", \"CTB\") {\r\n        initStringToType();\r\n        admin = msg.sender; // this should later be passed in as an argument to the contructor\r\n    }\r\n\r\n    // ________________________________________________________________________\r\n    enum BuildingTypes {\r\n        Factory,\r\n        Office,\r\n        Restaurant,\r\n        Parking,\r\n        Building,\r\n        House,\r\n        Store,\r\n        SuperMarket,\r\n        Park,\r\n        Gym\r\n    }\r\n\r\n    mapping(string => BuildingTypes) stringToType;\r\n    uint numOfBuildingTypes = 10;\r\n    function initStringToType() private {\r\n        stringToType[\"factory\"] = BuildingTypes.Factory;\r\n        stringToType[\"office\"] = BuildingTypes.Office;\r\n        stringToType[\"restaurant\"] = BuildingTypes.Restaurant;\r\n        stringToType[\"parking\"] = BuildingTypes.Parking;\r\n        stringToType[\"building\"] = BuildingTypes.Building;\r\n        stringToType[\"house\"] = BuildingTypes.House;\r\n        stringToType[\"store\"] = BuildingTypes.Store;\r\n        stringToType[\"superMarket\"] = BuildingTypes.SuperMarket;\r\n        stringToType[\"park\"] = BuildingTypes.Park;\r\n        stringToType[\"gym\"] = BuildingTypes.Gym;\r\n    }\r\n    \r\n    struct Building {\r\n        BuildingTypes buildingType;\r\n        uint32 startx;\r\n        uint32 starty;\r\n        uint32 endx;\r\n        uint32 endy;\r\n        uint32 level;\r\n    } // occupies 1 block of 256 bytes\r\n\r\n    struct SpecialBuilding {\r\n        uint32 specialType;\r\n        uint32 startx;\r\n        uint32 starty;\r\n        uint32 endx;\r\n        uint32 endy;\r\n    } // occupies 1 block of 256 bytes\r\n\r\n    struct City {\r\n        mapping(uint => Building) buildingList;\r\n        mapping(uint => SpecialBuilding) specialBuildingList;\r\n        uint64 numOfBuildings;\r\n        uint64 numOfSpecialBuildings;\r\n        uint64 money;\r\n        uint64 income;\r\n        address owner;\r\n    } // occupies ( 2 + numOfBuildings + numOfSpecialBuildings ) blocks of 256 bytes in total\r\n    // ________________________________________________________________________\r\n\r\n    uint mintingPrice = 0.1 ether; // cost of minting a single City NFT\r\n    bool saleIsActive = false; // if it is possible to mint more NFTs the state is true\r\n    uint maxMintTokens = 10; // max num of tokens to mint per address\r\n    uint MAX_CITIES = 10000; // max num of cities to be minted\r\n\r\n    address admin;\r\n    bool editable = true;\r\n\r\n    mapping(uint => City) cities; // map (array) containing all the data about the City NFTs\r\n    uint64 startingMoney = 100000; // the amount of in-game money everyone has right after minting\r\n\r\n    function _baseURI() internal pure override returns (string memory) {\r\n        return \"http://localhost:3000/cities\"; // this is just temporary\r\n    }\r\n\r\n    // ________________________________________________________________________\r\n    // functions for creating the City NFTs:\r\n    /**\r\n     * @dev Function used for minting new City NFTs\r\n     * @param numOfTokens number of tokens that will be minted\r\n     */\r\n    function safeMint(uint numOfTokens) external payable {\r\n        require(saleIsActive, \"Sale must be active to mint a City NFT\");\r\n        require(numOfTokens <= maxMintTokens, \"Can only mint 10 tokens at a time\");\r\n        require(totalSupply().add(numOfTokens) <= MAX_CITIES, \"Purchase would exceed max number of City NFTs\");\r\n        require(mintingPrice.mul(numOfTokens) <= msg.value, \"Ether value sent is not correct\");\r\n\r\n        uint256 tokenId;\r\n        for(uint i = 0; i < numOfTokens; i++) {\r\n            tokenId = _tokenIdCounter.current();\r\n            _tokenIdCounter.increment();\r\n\r\n            _safeMint(msg.sender, tokenId);\r\n            _setTokenURI(tokenId, Strings.toString(tokenId)); // sets the tokenUri to \"_baseURI/tokenId\"\r\n        }\r\n        \r\n        if(_tokenIdCounter.current() == MAX_CITIES) {\r\n            flipSaleState();\r\n        }\r\n    }\r\n\r\n    /**\r\n     * @dev Function used for minting new City NFTs\r\n     * @param tokenId index of the token being initialized\r\n     * @param numOfBuildings number of buildings in the city\r\n     * @param numOfSpecialBuildings number of special buildings in the city\r\n     * @param startx arrays of coordinates for both types of buildings\r\n     * @param starty ...\r\n     * @param endx ...\r\n     * @param endy ...\r\n     * @param buildingType array of strings representing the buildingTypes\r\n     * @param specialType uint array representing the types of the special buildings\r\n     * @param income the calculated income for the city\r\n     */\r\n    function initializeCity(\r\n        address owner,\r\n        uint tokenId,\r\n        uint numOfBuildings,\r\n        uint numOfSpecialBuildings,\r\n        uint[] memory startx,\r\n        uint[] memory starty,\r\n        uint[] memory endx,\r\n        uint[] memory endy,\r\n        string[] memory buildingType,\r\n        uint[] memory specialType,\r\n        uint income\r\n    ) external onlyAdmin { // onlyOwner should maybe be replaced with ownsNFT() modifier\r\n        require(cities[tokenId].owner == address(0), \"City is already initialized\");\r\n        \r\n        for(uint i = 0; i < numOfBuildings; i++) {\r\n            if(uint(stringToType[buildingType[i]]) > numOfBuildingTypes) {\r\n                revert(\"Invalid building type\");\r\n            }\r\n            if(uint(stringToType[buildingType[i]]) == 3) {\r\n                revert(\"You can't build parkings!\");\r\n            } // ovo ce trebati da se promeni, ne znam sto je jos uvek tu\r\n        }\r\n\r\n        City storage city = cities[tokenId];\r\n        for(uint i = 0; i < numOfBuildings; i++) {\r\n            city.buildingList[i].startx = uint32(startx[i]);\r\n            city.buildingList[i].starty = uint32(starty[i]);\r\n            city.buildingList[i].endx = uint32(endx[i]);\r\n            city.buildingList[i].endy = uint32(endy[i]);\r\n            city.buildingList[i].buildingType = stringToType[buildingType[i]];\r\n        }\r\n        for(uint i = numOfBuildings; i < numOfSpecialBuildings + numOfBuildings; i++) {\r\n            city.specialBuildingList[i-numOfBuildings].startx = uint32(startx[i]);\r\n            city.specialBuildingList[i-numOfBuildings].starty = uint32(startx[i]);\r\n            city.specialBuildingList[i-numOfBuildings].endx = uint32(startx[i]);\r\n            city.specialBuildingList[i-numOfBuildings].endy = uint32(startx[i]);\r\n            city.specialBuildingList[i-numOfBuildings].specialType = uint32(specialType[i-numOfBuildings]);\r\n        }\r\n        city.numOfBuildings = uint64(numOfBuildings);\r\n        city.numOfSpecialBuildings = uint64(numOfSpecialBuildings);\r\n        city.income = uint64(income);\r\n        city.money = startingMoney;\r\n        city.owner = owner;\r\n    }\r\n    \r\n    // ________________________________________________________________________\r\n    // functions that change the cities:\r\n    function upgradeBuilding(uint tokenId, uint buildingIndex) external onlyAdmin {\r\n        cities[tokenId].buildingList[buildingIndex].level += 1;\r\n    }\r\n\r\n    function addBuilding(\r\n        uint tokenId,\r\n        uint _startx,\r\n        uint _starty,\r\n        uint _endx,\r\n        uint _endy,\r\n        string calldata _buildingType\r\n    ) external onlyAdmin {\r\n        City storage city = cities[tokenId];\r\n        city.buildingList[city.numOfBuildings] = Building({\r\n            buildingType: stringToType[_buildingType],\r\n            startx: uint32(_startx),\r\n            starty: uint32(_starty),\r\n            endx: uint32(_endx),\r\n            endy: uint32(_endy),\r\n            level: 0\r\n        });\r\n        city.numOfBuildings += 1;\r\n    }\r\n\r\n    function addSpecialBuilding(\r\n        uint tokenId,\r\n        uint _startx,\r\n        uint _starty,\r\n        uint _endx,\r\n        uint _endy,\r\n        uint _specialType\r\n    ) external onlyAdmin {\r\n        City storage city = cities[tokenId];\r\n        city.specialBuildingList[city.numOfSpecialBuildings] = SpecialBuilding({\r\n            specialType: uint32(_specialType),\r\n            startx: uint32(_startx),\r\n            starty: uint32(_starty),\r\n            endx: uint32(_endx),\r\n            endy: uint32(_endy)\r\n        });\r\n        city.numOfSpecialBuildings += 1;\r\n    }\r\n\r\n\r\n    //_______________________________________________________________________________\r\n    // funkcije za debagovanje:\r\n\r\n    function currId() public view returns(uint) {\r\n        return _tokenIdCounter.current();\r\n    }\r\n\r\n    function getOwners() external view returns(address[] memory) {\r\n        address[] memory adrese = new address[](currId());\r\n        for(uint i = 0; i < currId(); i++) {\r\n            adrese[i] = cities[i].owner;\r\n        }\r\n        return adrese;\r\n    }\r\n\r\n    function getTypes(uint tokenId) external view returns(uint[] memory) {\r\n        uint[] memory types = new uint[](cities[tokenId].numOfBuildings);\r\n        for(uint i = 0; i < cities[tokenId].numOfBuildings; i++) {\r\n            types[i] = uint(cities[tokenId].buildingList[i].buildingType);\r\n        }\r\n        return types;\r\n    }\r\n\r\n    //_______________________________________________________________________________\r\n\r\n\r\n    // The following modifier is used to check if a user owns the NFT which he wants to change.\r\n    modifier onlyAdmin() {\r\n        require(msg.sender == admin, 'The caller of the function is not admin');\r\n        _;\r\n    }\r\n\r\n    modifier isEditable() {\r\n        require(editable == true, 'The blockchain database can not be edited at the moment');\r\n        _;\r\n    }\r\n\r\n    // The following function is used to withdraw all funds from the contract to the owner address\r\n    function withdraw() public onlyOwner {\r\n        uint balance = address(this).balance;\r\n        payable(msg.sender).transfer(balance);\r\n    }\r\n\r\n    // The following  function is called to start the sale and to end it if all items are sold out or if a problem occurs.\r\n    function flipSaleState() public onlyOwner {\r\n        saleIsActive = !saleIsActive;\r\n    }\r\n\r\n    // The following function is called to restrict editing data on the blockchain\r\n    function flipEditableState() public onlyOwner {\r\n        editable = !editable;\r\n    }\r\n\r\n\r\n    // The following functions are overrides required by Solidity.\r\n    function _beforeTokenTransfer(address from, address to, uint256 tokenId) internal override(ERC721, ERC721Enumerable) {\r\n        super._beforeTokenTransfer(from, to, tokenId);\r\n    }\r\n\r\n    function _burn(uint256 tokenId) internal override(ERC721, ERC721URIStorage) {\r\n        super._burn(tokenId);\r\n    }\r\n\r\n    function tokenURI(uint256 tokenId) public view override(ERC721, ERC721URIStorage) returns (string memory) {\r\n        return super.tokenURI(tokenId);\r\n    }\r\n\r\n    function supportsInterface(bytes4 interfaceId) public view override(ERC721, ERC721Enumerable) returns (bool){\r\n        return super.supportsInterface(interfaceId);\r\n    }\r\n}",
  "sourcePath": "C:\\Users\\Dario Vajda\\OneDrive\\Desktop\\nft project\\nft\\smart_contracts\\contracts\\CityContract.sol",
  "compiler": {
    "name": "solc",
    "version": "0.8.11+commit.d7f03943.Emscripten.clang"
  },
  "schemaVersion": "3.4.4",
  "updatedAt": "2022-01-28T19:07:58.137Z",
  "networkType": "ethereum",
  "devdoc": {
    "kind": "dev",
    "methods": {
      "approve(address,uint256)": {
        "details": "See {IERC721-approve}."
      },
      "balanceOf(address)": {
        "details": "See {IERC721-balanceOf}."
      },
      "getApproved(uint256)": {
        "details": "See {IERC721-getApproved}."
      },
      "initializeCity(address,uint256,uint256,uint256,uint256[],uint256[],uint256[],uint256[],string[],uint256[],uint256)": {
        "details": "Function used for minting new City NFTs",
        "params": {
          "buildingType": "array of strings representing the buildingTypes",
          "endx": "...",
          "endy": "...",
          "income": "the calculated income for the city",
          "numOfBuildings": "number of buildings in the city",
          "numOfSpecialBuildings": "number of special buildings in the city",
          "specialType": "uint array representing the types of the special buildings",
          "startx": "arrays of coordinates for both types of buildings",
          "starty": "...",
          "tokenId": "index of the token being initialized"
        }
      },
      "isApprovedForAll(address,address)": {
        "details": "See {IERC721-isApprovedForAll}."
      },
      "name()": {
        "details": "See {IERC721Metadata-name}."
      },
      "owner()": {
        "details": "Returns the address of the current owner."
      },
      "ownerOf(uint256)": {
        "details": "See {IERC721-ownerOf}."
      },
      "renounceOwnership()": {
        "details": "Leaves the contract without owner. It will not be possible to call `onlyOwner` functions anymore. Can only be called by the current owner. NOTE: Renouncing ownership will leave the contract without an owner, thereby removing any functionality that is only available to the owner."
      },
      "safeMint(uint256)": {
        "details": "Function used for minting new City NFTs",
        "params": {
          "numOfTokens": "number of tokens that will be minted"
        }
      },
      "safeTransferFrom(address,address,uint256)": {
        "details": "See {IERC721-safeTransferFrom}."
      },
      "safeTransferFrom(address,address,uint256,bytes)": {
        "details": "See {IERC721-safeTransferFrom}."
      },
      "setApprovalForAll(address,bool)": {
        "details": "See {IERC721-setApprovalForAll}."
      },
      "symbol()": {
        "details": "See {IERC721Metadata-symbol}."
      },
      "tokenByIndex(uint256)": {
        "details": "See {IERC721Enumerable-tokenByIndex}."
      },
      "tokenOfOwnerByIndex(address,uint256)": {
        "details": "See {IERC721Enumerable-tokenOfOwnerByIndex}."
      },
      "totalSupply()": {
        "details": "See {IERC721Enumerable-totalSupply}."
      },
      "transferFrom(address,address,uint256)": {
        "details": "See {IERC721-transferFrom}."
      },
      "transferOwnership(address)": {
        "details": "Transfers ownership of the contract to a new account (`newOwner`). Can only be called by the current owner."
      }
    },
    "version": 1
  },
  "userdoc": {
    "kind": "user",
    "methods": {},
    "version": 1
  }
}