{
  "contractName": "CityContract",
  "abi": [
    {
      "inputs": [
        {
          "internalType": "address",
          "name": "_weth",
          "type": "address"
        },
        {
          "internalType": "address",
          "name": "_maticPrice",
          "type": "address"
        },
        {
          "internalType": "address",
          "name": "_ethPrice",
          "type": "address"
        }
      ],
      "stateMutability": "nonpayable",
      "type": "constructor"
    },
    {
      "anonymous": false,
      "inputs": [
        {
          "indexed": true,
          "internalType": "address",
          "name": "owner",
          "type": "address"
        },
        {
          "indexed": true,
          "internalType": "address",
          "name": "approved",
          "type": "address"
        },
        {
          "indexed": true,
          "internalType": "uint256",
          "name": "tokenId",
          "type": "uint256"
        }
      ],
      "name": "Approval",
      "type": "event"
    },
    {
      "anonymous": false,
      "inputs": [
        {
          "indexed": true,
          "internalType": "address",
          "name": "owner",
          "type": "address"
        },
        {
          "indexed": true,
          "internalType": "address",
          "name": "operator",
          "type": "address"
        },
        {
          "indexed": false,
          "internalType": "bool",
          "name": "approved",
          "type": "bool"
        }
      ],
      "name": "ApprovalForAll",
      "type": "event"
    },
    {
      "anonymous": false,
      "inputs": [
        {
          "indexed": true,
          "internalType": "address",
          "name": "previousOwner",
          "type": "address"
        },
        {
          "indexed": true,
          "internalType": "address",
          "name": "newOwner",
          "type": "address"
        }
      ],
      "name": "OwnershipTransferred",
      "type": "event"
    },
    {
      "anonymous": false,
      "inputs": [
        {
          "indexed": true,
          "internalType": "address",
          "name": "from",
          "type": "address"
        },
        {
          "indexed": true,
          "internalType": "address",
          "name": "to",
          "type": "address"
        },
        {
          "indexed": true,
          "internalType": "uint256",
          "name": "tokenId",
          "type": "uint256"
        }
      ],
      "name": "Transfer",
      "type": "event"
    },
    {
      "inputs": [
        {
          "internalType": "address",
          "name": "to",
          "type": "address"
        },
        {
          "internalType": "uint256",
          "name": "tokenId",
          "type": "uint256"
        }
      ],
      "name": "approve",
      "outputs": [],
      "stateMutability": "nonpayable",
      "type": "function"
    },
    {
      "inputs": [
        {
          "internalType": "address",
          "name": "owner",
          "type": "address"
        }
      ],
      "name": "balanceOf",
      "outputs": [
        {
          "internalType": "uint256",
          "name": "",
          "type": "uint256"
        }
      ],
      "stateMutability": "view",
      "type": "function",
      "constant": true
    },
    {
      "inputs": [
        {
          "internalType": "uint256",
          "name": "tokenId",
          "type": "uint256"
        }
      ],
      "name": "getApproved",
      "outputs": [
        {
          "internalType": "address",
          "name": "",
          "type": "address"
        }
      ],
      "stateMutability": "view",
      "type": "function",
      "constant": true
    },
    {
      "inputs": [
        {
          "internalType": "address",
          "name": "owner",
          "type": "address"
        },
        {
          "internalType": "address",
          "name": "operator",
          "type": "address"
        }
      ],
      "name": "isApprovedForAll",
      "outputs": [
        {
          "internalType": "bool",
          "name": "",
          "type": "bool"
        }
      ],
      "stateMutability": "view",
      "type": "function",
      "constant": true
    },
    {
      "inputs": [],
      "name": "name",
      "outputs": [
        {
          "internalType": "string",
          "name": "",
          "type": "string"
        }
      ],
      "stateMutability": "view",
      "type": "function",
      "constant": true
    },
    {
      "inputs": [],
      "name": "owner",
      "outputs": [
        {
          "internalType": "address",
          "name": "",
          "type": "address"
        }
      ],
      "stateMutability": "view",
      "type": "function",
      "constant": true
    },
    {
      "inputs": [
        {
          "internalType": "uint256",
          "name": "tokenId",
          "type": "uint256"
        }
      ],
      "name": "ownerOf",
      "outputs": [
        {
          "internalType": "address",
          "name": "",
          "type": "address"
        }
      ],
      "stateMutability": "view",
      "type": "function",
      "constant": true
    },
    {
      "inputs": [],
      "name": "renounceOwnership",
      "outputs": [],
      "stateMutability": "nonpayable",
      "type": "function"
    },
    {
      "inputs": [
        {
          "internalType": "address",
          "name": "from",
          "type": "address"
        },
        {
          "internalType": "address",
          "name": "to",
          "type": "address"
        },
        {
          "internalType": "uint256",
          "name": "tokenId",
          "type": "uint256"
        }
      ],
      "name": "safeTransferFrom",
      "outputs": [],
      "stateMutability": "nonpayable",
      "type": "function"
    },
    {
      "inputs": [
        {
          "internalType": "address",
          "name": "from",
          "type": "address"
        },
        {
          "internalType": "address",
          "name": "to",
          "type": "address"
        },
        {
          "internalType": "uint256",
          "name": "tokenId",
          "type": "uint256"
        },
        {
          "internalType": "bytes",
          "name": "_data",
          "type": "bytes"
        }
      ],
      "name": "safeTransferFrom",
      "outputs": [],
      "stateMutability": "nonpayable",
      "type": "function"
    },
    {
      "inputs": [
        {
          "internalType": "address",
          "name": "operator",
          "type": "address"
        },
        {
          "internalType": "bool",
          "name": "approved",
          "type": "bool"
        }
      ],
      "name": "setApprovalForAll",
      "outputs": [],
      "stateMutability": "nonpayable",
      "type": "function"
    },
    {
      "inputs": [],
      "name": "symbol",
      "outputs": [
        {
          "internalType": "string",
          "name": "",
          "type": "string"
        }
      ],
      "stateMutability": "view",
      "type": "function",
      "constant": true
    },
    {
      "inputs": [
        {
          "internalType": "uint256",
          "name": "index",
          "type": "uint256"
        }
      ],
      "name": "tokenByIndex",
      "outputs": [
        {
          "internalType": "uint256",
          "name": "",
          "type": "uint256"
        }
      ],
      "stateMutability": "view",
      "type": "function",
      "constant": true
    },
    {
      "inputs": [
        {
          "internalType": "address",
          "name": "owner",
          "type": "address"
        },
        {
          "internalType": "uint256",
          "name": "index",
          "type": "uint256"
        }
      ],
      "name": "tokenOfOwnerByIndex",
      "outputs": [
        {
          "internalType": "uint256",
          "name": "",
          "type": "uint256"
        }
      ],
      "stateMutability": "view",
      "type": "function",
      "constant": true
    },
    {
      "inputs": [],
      "name": "totalSupply",
      "outputs": [
        {
          "internalType": "uint256",
          "name": "",
          "type": "uint256"
        }
      ],
      "stateMutability": "view",
      "type": "function",
      "constant": true
    },
    {
      "inputs": [
        {
          "internalType": "address",
          "name": "from",
          "type": "address"
        },
        {
          "internalType": "address",
          "name": "to",
          "type": "address"
        },
        {
          "internalType": "uint256",
          "name": "tokenId",
          "type": "uint256"
        }
      ],
      "name": "transferFrom",
      "outputs": [],
      "stateMutability": "nonpayable",
      "type": "function"
    },
    {
      "inputs": [
        {
          "internalType": "address",
          "name": "newOwner",
          "type": "address"
        }
      ],
      "name": "transferOwnership",
      "outputs": [],
      "stateMutability": "nonpayable",
      "type": "function"
    },
    {
      "inputs": [],
      "name": "weth",
      "outputs": [
        {
          "internalType": "contract IERC20",
          "name": "",
          "type": "address"
        }
      ],
      "stateMutability": "view",
      "type": "function",
      "constant": true
    },
    {
      "inputs": [
        {
          "internalType": "address",
          "name": "_gameplay",
          "type": "address"
        }
      ],
      "name": "initGameplayContract",
      "outputs": [],
      "stateMutability": "nonpayable",
      "type": "function"
    },
    {
      "inputs": [],
      "name": "initAchievementContract",
      "outputs": [],
      "stateMutability": "nonpayable",
      "type": "function"
    },
    {
      "inputs": [
        {
          "internalType": "uint256",
          "name": "newPrice",
          "type": "uint256"
        }
      ],
      "name": "changeMintingPrice",
      "outputs": [],
      "stateMutability": "nonpayable",
      "type": "function"
    },
    {
      "inputs": [
        {
          "internalType": "uint256",
          "name": "numOfTokens",
          "type": "uint256"
        }
      ],
      "name": "maticMint",
      "outputs": [],
      "stateMutability": "payable",
      "type": "function",
      "payable": true
    },
    {
      "inputs": [
        {
          "internalType": "uint256",
          "name": "numOfTokens",
          "type": "uint256"
        }
      ],
      "name": "wethMint",
      "outputs": [],
      "stateMutability": "nonpayable",
      "type": "function"
    },
    {
      "inputs": [
        {
          "internalType": "uint256",
          "name": "receiverId",
          "type": "uint256"
        },
        {
          "internalType": "uint256",
          "name": "value",
          "type": "uint256"
        }
      ],
      "name": "sendMatic",
      "outputs": [],
      "stateMutability": "nonpayable",
      "type": "function"
    },
    {
      "inputs": [
        {
          "internalType": "uint256",
          "name": "receiverId",
          "type": "uint256"
        },
        {
          "internalType": "uint256",
          "name": "value",
          "type": "uint256"
        }
      ],
      "name": "sendWeth",
      "outputs": [],
      "stateMutability": "nonpayable",
      "type": "function"
    },
    {
      "inputs": [],
      "name": "currId",
      "outputs": [
        {
          "internalType": "uint256",
          "name": "",
          "type": "uint256"
        }
      ],
      "stateMutability": "view",
      "type": "function",
      "constant": true
    },
    {
      "inputs": [],
      "name": "getSaleState",
      "outputs": [
        {
          "internalType": "bool",
          "name": "",
          "type": "bool"
        }
      ],
      "stateMutability": "view",
      "type": "function",
      "constant": true
    },
    {
      "inputs": [],
      "name": "withdraw",
      "outputs": [],
      "stateMutability": "nonpayable",
      "type": "function"
    },
    {
      "inputs": [],
      "name": "flipSaleState",
      "outputs": [],
      "stateMutability": "nonpayable",
      "type": "function"
    },
    {
      "inputs": [
        {
          "internalType": "uint256",
          "name": "tokenId",
          "type": "uint256"
        }
      ],
      "name": "tokenURI",
      "outputs": [
        {
          "internalType": "string",
          "name": "",
          "type": "string"
        }
      ],
      "stateMutability": "view",
      "type": "function",
      "constant": true
    },
    {
      "inputs": [
        {
          "internalType": "bytes4",
          "name": "interfaceId",
          "type": "bytes4"
        }
      ],
      "name": "supportsInterface",
      "outputs": [
        {
          "internalType": "bool",
          "name": "",
          "type": "bool"
        }
      ],
      "stateMutability": "view",
      "type": "function",
      "constant": true
    }
  ],
  "bytecode": "0x60806040526000600e556000601060146101000a81548160ff0219169083151502179055506000601160006101000a81548173ffffffffffffffffffffffffffffffffffffffff021916908373ffffffffffffffffffffffffffffffffffffffff1602179055506000601160146101000a81548160ff02191690831515021790555067016345785d8a00006012556000601360006101000a81548160ff021916908315150217905550600a601455612710601555348015620000c057600080fd5b506040516200535f3803806200535f8339818101604052810190620000e691906200045e565b80826040518060400160405280600c81526020017f436974794275696c6465727300000000000000000000000000000000000000008152506040518060400160405280600381526020017f435442000000000000000000000000000000000000000000000000000000000081525081600090805190602001906200016c92919062000344565b5080600190805190602001906200018592919062000344565b505050620001a86200019c6200027660201b60201c565b6200027e60201b60201c565b81600d60006101000a81548173ffffffffffffffffffffffffffffffffffffffff021916908373ffffffffffffffffffffffffffffffffffffffff16021790555080600c60006101000a81548173ffffffffffffffffffffffffffffffffffffffff021916908373ffffffffffffffffffffffffffffffffffffffff160217905550505082600f60006101000a81548173ffffffffffffffffffffffffffffffffffffffff021916908373ffffffffffffffffffffffffffffffffffffffff1602179055505050506200051f565b600033905090565b6000600b60009054906101000a900473ffffffffffffffffffffffffffffffffffffffff16905081600b60006101000a81548173ffffffffffffffffffffffffffffffffffffffff021916908373ffffffffffffffffffffffffffffffffffffffff1602179055508173ffffffffffffffffffffffffffffffffffffffff168173ffffffffffffffffffffffffffffffffffffffff167f8be0079c531659141344cd1fd0a4f28419497f9722a3daafe3b4186f6b6457e060405160405180910390a35050565b8280546200035290620004e9565b90600052602060002090601f016020900481019282620003765760008555620003c2565b82601f106200039157805160ff1916838001178555620003c2565b82800160010185558215620003c2579182015b82811115620003c1578251825591602001919060010190620003a4565b5b509050620003d19190620003d5565b5090565b5b80821115620003f0576000816000905550600101620003d6565b5090565b600080fd5b600073ffffffffffffffffffffffffffffffffffffffff82169050919050565b60006200042682620003f9565b9050919050565b620004388162000419565b81146200044457600080fd5b50565b60008151905062000458816200042d565b92915050565b6000806000606084860312156200047a5762000479620003f4565b5b60006200048a8682870162000447565b93505060206200049d8682870162000447565b9250506040620004b08682870162000447565b9150509250925092565b7f4e487b7100000000000000000000000000000000000000000000000000000000600052602260045260246000fd5b600060028204905060018216806200050257607f821691505b60208210811415620005195762000518620004ba565b5b50919050565b614e30806200052f6000396000f3fe6080604052600436106101d85760003560e01c806346e0d77c11610102578063a22cb46511610095578063c87b56dd11610064578063c87b56dd14610661578063ce5bc7a61461069e578063e985e9c5146106c7578063f2fde38b14610704576101d8565b8063a22cb465146105ca578063af282083146105f3578063afbcc3841461061c578063b88d4fde14610638576101d8565b806370a08231116100d157806370a0823114610520578063715018a61461055d5780638da5cb5b1461057457806395d89b411461059f576101d8565b806346e0d77c146104665780634f6ccce71461047d5780636352211e146104ba578063657f58ac146104f7576101d8565b80631fd27cd11161017a57806334918dfd1161014957806334918dfd146103e45780633ccfd60b146103fb5780633fc8cef31461041257806342842e0e1461043d576101d8565b80631fd27cd11461032a57806323b872dd1461035357806325bdb2a81461037c5780632f745c59146103a7576101d8565b806308d1e167116101b657806308d1e16714610282578063095ea7b3146102ab57806315efc9c8146102d457806318160ddd146102ff576101d8565b806301ffc9a7146101dd57806306fdde031461021a578063081812fc14610245575b600080fd5b3480156101e957600080fd5b5061020460048036038101906101ff9190613358565b61072d565b60405161021191906133a0565b60405180910390f35b34801561022657600080fd5b5061022f61073f565b60405161023c9190613454565b60405180910390f35b34801561025157600080fd5b5061026c600480360381019061026791906134ac565b6107d1565b604051610279919061351a565b60405180910390f35b34801561028e57600080fd5b506102a960048036038101906102a491906134ac565b610856565b005b3480156102b757600080fd5b506102d260048036038101906102cd9190613561565b610a04565b005b3480156102e057600080fd5b506102e9610b1c565b6040516102f691906135b0565b60405180910390f35b34801561030b57600080fd5b50610314610b26565b60405161032191906135b0565b60405180910390f35b34801561033657600080fd5b50610351600480360381019061034c91906134ac565b610b33565b005b34801561035f57600080fd5b5061037a600480360381019061037591906135cb565b610bb9565b005b34801561038857600080fd5b50610391610c19565b60405161039e91906133a0565b60405180910390f35b3480156103b357600080fd5b506103ce60048036038101906103c99190613561565b610c30565b6040516103db91906135b0565b60405180910390f35b3480156103f057600080fd5b506103f9610cd5565b005b34801561040757600080fd5b50610410610d7d565b005b34801561041e57600080fd5b50610427610f8a565b604051610434919061367d565b60405180910390f35b34801561044957600080fd5b50610464600480360381019061045f91906135cb565b610fb0565b005b34801561047257600080fd5b5061047b610fd0565b005b34801561048957600080fd5b506104a4600480360381019061049f91906134ac565b61107e565b6040516104b191906135b0565b60405180910390f35b3480156104c657600080fd5b506104e160048036038101906104dc91906134ac565b6110ef565b6040516104ee919061351a565b60405180910390f35b34801561050357600080fd5b5061051e60048036038101906105199190613698565b6111a1565b005b34801561052c57600080fd5b50610547600480360381019061054291906136d8565b6112b7565b60405161055491906135b0565b60405180910390f35b34801561056957600080fd5b5061057261136f565b005b34801561058057600080fd5b506105896113f7565b604051610596919061351a565b60405180910390f35b3480156105ab57600080fd5b506105b4611421565b6040516105c19190613454565b60405180910390f35b3480156105d657600080fd5b506105f160048036038101906105ec9190613731565b6114b3565b005b3480156105ff57600080fd5b5061061a60048036038101906106159190613698565b6114c9565b005b610636600480360381019061063191906134ac565b61164a565b005b34801561064457600080fd5b5061065f600480360381019061065a91906138a6565b611795565b005b34801561066d57600080fd5b50610688600480360381019061068391906134ac565b6117f7565b6040516106959190613454565b60405180910390f35b3480156106aa57600080fd5b506106c560048036038101906106c091906136d8565b611809565b005b3480156106d357600080fd5b506106ee60048036038101906106e99190613929565b6118b8565b6040516106fb91906133a0565b60405180910390f35b34801561071057600080fd5b5061072b600480360381019061072691906136d8565b61194c565b005b600061073882611a44565b9050919050565b60606000805461074e90613998565b80601f016020809104026020016040519081016040528092919081815260200182805461077a90613998565b80156107c75780601f1061079c576101008083540402835291602001916107c7565b820191906000526020600020905b8154815290600101906020018083116107aa57829003601f168201915b5050505050905090565b60006107dc82611abe565b61081b576040517f08c379a000000000000000000000000000000000000000000000000000000000815260040161081290613a3c565b60405180910390fd5b6004600083815260200190815260200160002060009054906101000a900473ffffffffffffffffffffffffffffffffffffffff169050919050565b601360009054906101000a900460ff166108a5576040517f08c379a000000000000000000000000000000000000000000000000000000000815260040161089c90613ace565b60405180910390fd5b6014548111156108ea576040517f08c379a00000000000000000000000000000000000000000000000000000000081526004016108e190613b60565b60405180910390fd5b601554610907826108f9610b26565b611b2a90919063ffffffff16565b1115610948576040517f08c379a000000000000000000000000000000000000000000000000000000000815260040161093f90613bf2565b60405180910390fd5b600f60009054906101000a900473ffffffffffffffffffffffffffffffffffffffff1673ffffffffffffffffffffffffffffffffffffffff166323b872dd3330846012546109969190613c41565b6040518463ffffffff1660e01b81526004016109b493929190613c9b565b6020604051808303816000875af11580156109d3573d6000803e3d6000fd5b505050506040513d601f19601f820116820180604052508101906109f79190613ce7565b50610a0181611b40565b50565b6000610a0f826110ef565b90508073ffffffffffffffffffffffffffffffffffffffff168373ffffffffffffffffffffffffffffffffffffffff161415610a80576040517f08c379a0000000000000000000000000000000000000000000000000000000008152600401610a7790613d86565b60405180910390fd5b8073ffffffffffffffffffffffffffffffffffffffff16610a9f611c58565b73ffffffffffffffffffffffffffffffffffffffff161480610ace5750610acd81610ac8611c58565b6118b8565b5b610b0d576040517f08c379a0000000000000000000000000000000000000000000000000000000008152600401610b0490613e18565b60405180910390fd5b610b178383611c60565b505050565b6000600e54905090565b6000600880549050905090565b610b3b611c58565b73ffffffffffffffffffffffffffffffffffffffff16610b596113f7565b73ffffffffffffffffffffffffffffffffffffffff1614610baf576040517f08c379a0000000000000000000000000000000000000000000000000000000008152600401610ba690613e84565b60405180910390fd5b8060128190555050565b610bca610bc4611c58565b82611d19565b610c09576040517f08c379a0000000000000000000000000000000000000000000000000000000008152600401610c0090613f16565b60405180910390fd5b610c14838383611df7565b505050565b6000601360009054906101000a900460ff16905090565b6000610c3b836112b7565b8210610c7c576040517f08c379a0000000000000000000000000000000000000000000000000000000008152600401610c7390613fa8565b60405180910390fd5b600660008473ffffffffffffffffffffffffffffffffffffffff1673ffffffffffffffffffffffffffffffffffffffff168152602001908152602001600020600083815260200190815260200160002054905092915050565b610cdd611c58565b73ffffffffffffffffffffffffffffffffffffffff16610cfb6113f7565b73ffffffffffffffffffffffffffffffffffffffff1614610d51576040517f08c379a0000000000000000000000000000000000000000000000000000000008152600401610d4890613e84565b60405180910390fd5b601360009054906101000a900460ff1615601360006101000a81548160ff021916908315150217905550565b610d85611c58565b73ffffffffffffffffffffffffffffffffffffffff16610da36113f7565b73ffffffffffffffffffffffffffffffffffffffff1614610df9576040517f08c379a0000000000000000000000000000000000000000000000000000000008152600401610df090613e84565b60405180910390fd5b60004790503373ffffffffffffffffffffffffffffffffffffffff166108fc829081150290604051600060405180830381858888f19350505050158015610e44573d6000803e3d6000fd5b506000600f60009054906101000a900473ffffffffffffffffffffffffffffffffffffffff1673ffffffffffffffffffffffffffffffffffffffff166370a08231306040518263ffffffff1660e01b8152600401610ea2919061351a565b602060405180830381865afa158015610ebf573d6000803e3d6000fd5b505050506040513d601f19601f82011682018060405250810190610ee39190613fdd565b9050600f60009054906101000a900473ffffffffffffffffffffffffffffffffffffffff1673ffffffffffffffffffffffffffffffffffffffff1663a9059cbb33836040518363ffffffff1660e01b8152600401610f4292919061400a565b6020604051808303816000875af1158015610f61573d6000803e3d6000fd5b505050506040513d601f19601f82011682018060405250810190610f859190613ce7565b505050565b600f60009054906101000a900473ffffffffffffffffffffffffffffffffffffffff1681565b610fcb83838360405180602001604052806000815250611795565b505050565b601160149054906101000a900460ff1615611020576040517f08c379a00000000000000000000000000000000000000000000000000000000081526004016110179061407f565b60405180910390fd5b33601160006101000a81548173ffffffffffffffffffffffffffffffffffffffff021916908373ffffffffffffffffffffffffffffffffffffffff1602179055506001601160146101000a81548160ff021916908315150217905550565b6000611088610b26565b82106110c9576040517f08c379a00000000000000000000000000000000000000000000000000000000081526004016110c090614111565b60405180910390fd5b600882815481106110dd576110dc614131565b5b90600052602060002001549050919050565b6000806002600084815260200190815260200160002060009054906101000a900473ffffffffffffffffffffffffffffffffffffffff169050600073ffffffffffffffffffffffffffffffffffffffff168173ffffffffffffffffffffffffffffffffffffffff161415611198576040517f08c379a000000000000000000000000000000000000000000000000000000000815260040161118f906141d2565b60405180910390fd5b80915050919050565b601160009054906101000a900473ffffffffffffffffffffffffffffffffffffffff1673ffffffffffffffffffffffffffffffffffffffff163373ffffffffffffffffffffffffffffffffffffffff1614611231576040517f08c379a00000000000000000000000000000000000000000000000000000000081526004016112289061423e565b60405180910390fd5b600061123c836110ef565b73ffffffffffffffffffffffffffffffffffffffff166108fc839081150290604051600060405180830381858888f193505050509050806112b2576040517f08c379a00000000000000000000000000000000000000000000000000000000081526004016112a9906142aa565b60405180910390fd5b505050565b60008073ffffffffffffffffffffffffffffffffffffffff168273ffffffffffffffffffffffffffffffffffffffff161415611328576040517f08c379a000000000000000000000000000000000000000000000000000000000815260040161131f9061433c565b60405180910390fd5b600360008373ffffffffffffffffffffffffffffffffffffffff1673ffffffffffffffffffffffffffffffffffffffff168152602001908152602001600020549050919050565b611377611c58565b73ffffffffffffffffffffffffffffffffffffffff166113956113f7565b73ffffffffffffffffffffffffffffffffffffffff16146113eb576040517f08c379a00000000000000000000000000000000000000000000000000000000081526004016113e290613e84565b60405180910390fd5b6113f56000612053565b565b6000600b60009054906101000a900473ffffffffffffffffffffffffffffffffffffffff16905090565b60606001805461143090613998565b80601f016020809104026020016040519081016040528092919081815260200182805461145c90613998565b80156114a95780601f1061147e576101008083540402835291602001916114a9565b820191906000526020600020905b81548152906001019060200180831161148c57829003601f168201915b5050505050905090565b6114c56114be611c58565b8383612119565b5050565b601160009054906101000a900473ffffffffffffffffffffffffffffffffffffffff1673ffffffffffffffffffffffffffffffffffffffff163373ffffffffffffffffffffffffffffffffffffffff1614611559576040517f08c379a00000000000000000000000000000000000000000000000000000000081526004016115509061423e565b60405180910390fd5b6000600f60009054906101000a900473ffffffffffffffffffffffffffffffffffffffff1673ffffffffffffffffffffffffffffffffffffffff1663a9059cbb6115a2856110ef565b846040518363ffffffff1660e01b81526004016115c092919061400a565b6020604051808303816000875af11580156115df573d6000803e3d6000fd5b505050506040513d601f19601f820116820180604052508101906116039190613ce7565b905080611645576040517f08c379a000000000000000000000000000000000000000000000000000000000815260040161163c906143a8565b60405180910390fd5b505050565b601360009054906101000a900460ff16611699576040517f08c379a000000000000000000000000000000000000000000000000000000000815260040161169090613ace565b60405180910390fd5b6014548111156116de576040517f08c379a00000000000000000000000000000000000000000000000000000000081526004016116d590613b60565b60405180910390fd5b6015546116fb826116ed610b26565b611b2a90919063ffffffff16565b111561173c576040517f08c379a000000000000000000000000000000000000000000000000000000000815260040161173390613bf2565b60405180910390fd5b34611748601254612286565b1115611789576040517f08c379a000000000000000000000000000000000000000000000000000000000815260040161178090614414565b60405180910390fd5b61179281611b40565b50565b6117a66117a0611c58565b83611d19565b6117e5576040517f08c379a00000000000000000000000000000000000000000000000000000000081526004016117dc90613f16565b60405180910390fd5b6117f1848484846122b4565b50505050565b606061180282612310565b9050919050565b601060149054906101000a900460ff1615611859576040517f08c379a00000000000000000000000000000000000000000000000000000000081526004016118509061407f565b60405180910390fd5b80601060006101000a81548173ffffffffffffffffffffffffffffffffffffffff021916908373ffffffffffffffffffffffffffffffffffffffff1602179055506001601060146101000a81548160ff02191690831515021790555050565b6000600560008473ffffffffffffffffffffffffffffffffffffffff1673ffffffffffffffffffffffffffffffffffffffff16815260200190815260200160002060008373ffffffffffffffffffffffffffffffffffffffff1673ffffffffffffffffffffffffffffffffffffffff16815260200190815260200160002060009054906101000a900460ff16905092915050565b611954611c58565b73ffffffffffffffffffffffffffffffffffffffff166119726113f7565b73ffffffffffffffffffffffffffffffffffffffff16146119c8576040517f08c379a00000000000000000000000000000000000000000000000000000000081526004016119bf90613e84565b60405180910390fd5b600073ffffffffffffffffffffffffffffffffffffffff168173ffffffffffffffffffffffffffffffffffffffff161415611a38576040517f08c379a0000000000000000000000000000000000000000000000000000000008152600401611a2f906144a6565b60405180910390fd5b611a4181612053565b50565b60007f780e9d63000000000000000000000000000000000000000000000000000000007bffffffffffffffffffffffffffffffffffffffffffffffffffffffff1916827bffffffffffffffffffffffffffffffffffffffffffffffffffffffff19161480611ab75750611ab682612462565b5b9050919050565b60008073ffffffffffffffffffffffffffffffffffffffff166002600084815260200190815260200160002060009054906101000a900473ffffffffffffffffffffffffffffffffffffffff1673ffffffffffffffffffffffffffffffffffffffff1614159050919050565b60008183611b3891906144c6565b905092915050565b600080600090505b82811015611c2b57600e549150600e6000815480929190611b689061451c565b9190505550601060009054906101000a900473ffffffffffffffffffffffffffffffffffffffff1673ffffffffffffffffffffffffffffffffffffffff1663b758eeaa83336040518363ffffffff1660e01b8152600401611bca929190614565565b600060405180830381600087803b158015611be457600080fd5b505af1158015611bf8573d6000803e3d6000fd5b50505050611c063383612544565b611c1882611c1384612562565b6126c3565b8080611c239061451c565b915050611b48565b50601554600e541415611c54576000601360006101000a81548160ff0219169083151502179055505b5050565b600033905090565b816004600083815260200190815260200160002060006101000a81548173ffffffffffffffffffffffffffffffffffffffff021916908373ffffffffffffffffffffffffffffffffffffffff160217905550808273ffffffffffffffffffffffffffffffffffffffff16611cd3836110ef565b73ffffffffffffffffffffffffffffffffffffffff167f8c5be1e5ebec7d5bd14f71427d1e84f3dd0314c0f7b2291e5b200ac8c7c3b92560405160405180910390a45050565b6000611d2482611abe565b611d63576040517f08c379a0000000000000000000000000000000000000000000000000000000008152600401611d5a90614600565b60405180910390fd5b6000611d6e836110ef565b90508073ffffffffffffffffffffffffffffffffffffffff168473ffffffffffffffffffffffffffffffffffffffff161480611ddd57508373ffffffffffffffffffffffffffffffffffffffff16611dc5846107d1565b73ffffffffffffffffffffffffffffffffffffffff16145b80611dee5750611ded81856118b8565b5b91505092915050565b8273ffffffffffffffffffffffffffffffffffffffff16611e17826110ef565b73ffffffffffffffffffffffffffffffffffffffff1614611e6d576040517f08c379a0000000000000000000000000000000000000000000000000000000008152600401611e6490614692565b60405180910390fd5b600073ffffffffffffffffffffffffffffffffffffffff168273ffffffffffffffffffffffffffffffffffffffff161415611edd576040517f08c379a0000000000000000000000000000000000000000000000000000000008152600401611ed490614724565b60405180910390fd5b611ee8838383612737565b611ef3600082611c60565b6001600360008573ffffffffffffffffffffffffffffffffffffffff1673ffffffffffffffffffffffffffffffffffffffff1681526020019081526020016000206000828254611f439190614744565b925050819055506001600360008473ffffffffffffffffffffffffffffffffffffffff1673ffffffffffffffffffffffffffffffffffffffff1681526020019081526020016000206000828254611f9a91906144c6565b92505081905550816002600083815260200190815260200160002060006101000a81548173ffffffffffffffffffffffffffffffffffffffff021916908373ffffffffffffffffffffffffffffffffffffffff160217905550808273ffffffffffffffffffffffffffffffffffffffff168473ffffffffffffffffffffffffffffffffffffffff167fddf252ad1be2c89b69c2b068fc378daa952ba7f163c4a11628f55a4df523b3ef60405160405180910390a4505050565b6000600b60009054906101000a900473ffffffffffffffffffffffffffffffffffffffff16905081600b60006101000a81548173ffffffffffffffffffffffffffffffffffffffff021916908373ffffffffffffffffffffffffffffffffffffffff1602179055508173ffffffffffffffffffffffffffffffffffffffff168173ffffffffffffffffffffffffffffffffffffffff167f8be0079c531659141344cd1fd0a4f28419497f9722a3daafe3b4186f6b6457e060405160405180910390a35050565b8173ffffffffffffffffffffffffffffffffffffffff168373ffffffffffffffffffffffffffffffffffffffff161415612188576040517f08c379a000000000000000000000000000000000000000000000000000000000815260040161217f906147c4565b60405180910390fd5b80600560008573ffffffffffffffffffffffffffffffffffffffff1673ffffffffffffffffffffffffffffffffffffffff16815260200190815260200160002060008473ffffffffffffffffffffffffffffffffffffffff1673ffffffffffffffffffffffffffffffffffffffff16815260200190815260200160002060006101000a81548160ff0219169083151502179055508173ffffffffffffffffffffffffffffffffffffffff168373ffffffffffffffffffffffffffffffffffffffff167f17307eab39ab6107e8899845ad3d59bd9653f200f220920489ca2b5937696c318360405161227991906133a0565b60405180910390a3505050565b60006122906127d6565b612298612877565b836122a39190613c41565b6122ad9190614813565b9050919050565b6122bf848484611df7565b6122cb84848484612918565b61230a576040517f08c379a0000000000000000000000000000000000000000000000000000000008152600401612301906148b6565b60405180910390fd5b50505050565b606061231b82611abe565b61235a576040517f08c379a000000000000000000000000000000000000000000000000000000000815260040161235190614948565b60405180910390fd5b6000600a6000848152602001908152602001600020805461237a90613998565b80601f01602080910402602001604051908101604052809291908181526020018280546123a690613998565b80156123f35780601f106123c8576101008083540402835291602001916123f3565b820191906000526020600020905b8154815290600101906020018083116123d657829003601f168201915b505050505090506000612404612aa0565b905060008151141561241a57819250505061245d565b60008251111561244f5780826040516020016124379291906149a4565b6040516020818303038152906040529250505061245d565b61245884612add565b925050505b919050565b60007f80ac58cd000000000000000000000000000000000000000000000000000000007bffffffffffffffffffffffffffffffffffffffffffffffffffffffff1916827bffffffffffffffffffffffffffffffffffffffffffffffffffffffff1916148061252d57507f5b5e139f000000000000000000000000000000000000000000000000000000007bffffffffffffffffffffffffffffffffffffffffffffffffffffffff1916827bffffffffffffffffffffffffffffffffffffffffffffffffffffffff1916145b8061253d575061253c82612b84565b5b9050919050565b61255e828260405180602001604052806000815250612bee565b5050565b606060008214156125aa576040518060400160405280600181526020017f300000000000000000000000000000000000000000000000000000000000000081525090506126be565b600082905060005b600082146125dc5780806125c59061451c565b915050600a826125d59190614813565b91506125b2565b60008167ffffffffffffffff8111156125f8576125f761377b565b5b6040519080825280601f01601f19166020018201604052801561262a5781602001600182028036833780820191505090505b5090505b600085146126b7576001826126439190614744565b9150600a8561265291906149c8565b603061265e91906144c6565b60f81b81838151811061267457612673614131565b5b60200101907effffffffffffffffffffffffffffffffffffffffffffffffffffffffffffff1916908160001a905350600a856126b09190614813565b945061262e565b8093505050505b919050565b6126cc82611abe565b61270b576040517f08c379a000000000000000000000000000000000000000000000000000000000815260040161270290614a6b565b60405180910390fd5b80600a60008481526020019081526020016000209080519060200190612732929190613249565b505050565b601060009054906101000a900473ffffffffffffffffffffffffffffffffffffffff1673ffffffffffffffffffffffffffffffffffffffff1663cf322e9482846040518363ffffffff1660e01b8152600401612794929190614565565b600060405180830381600087803b1580156127ae57600080fd5b505af11580156127c2573d6000803e3d6000fd5b505050506127d1838383612c49565b505050565b600080600c60009054906101000a900473ffffffffffffffffffffffffffffffffffffffff1673ffffffffffffffffffffffffffffffffffffffff1663feaf968c6040518163ffffffff1660e01b815260040160a060405180830381865afa158015612846573d6000803e3d6000fd5b505050506040513d601f19601f8201168201806040525081019061286a9190614b03565b5050509150508091505090565b600080600d60009054906101000a900473ffffffffffffffffffffffffffffffffffffffff1673ffffffffffffffffffffffffffffffffffffffff1663feaf968c6040518163ffffffff1660e01b815260040160a060405180830381865afa1580156128e7573d6000803e3d6000fd5b505050506040513d601f19601f8201168201806040525081019061290b9190614b03565b5050509150508091505090565b60006129398473ffffffffffffffffffffffffffffffffffffffff16612d5d565b15612a93578373ffffffffffffffffffffffffffffffffffffffff1663150b7a02612962611c58565b8786866040518563ffffffff1660e01b81526004016129849493929190614bd3565b6020604051808303816000875af19250505080156129c057506040513d601f19601f820116820180604052508101906129bd9190614c34565b60015b612a43573d80600081146129f0576040519150601f19603f3d011682016040523d82523d6000602084013e6129f5565b606091505b50600081511415612a3b576040517f08c379a0000000000000000000000000000000000000000000000000000000008152600401612a32906148b6565b60405180910390fd5b805181602001fd5b63150b7a0260e01b7bffffffffffffffffffffffffffffffffffffffffffffffffffffffff1916817bffffffffffffffffffffffffffffffffffffffffffffffffffffffff191614915050612a98565b600190505b949350505050565b60606040518060400160405280601c81526020017f687474703a2f2f6c6f63616c686f73743a383030302f63697469657300000000815250905090565b6060612ae882611abe565b612b27576040517f08c379a0000000000000000000000000000000000000000000000000000000008152600401612b1e90614cd3565b60405180910390fd5b6000612b31612aa0565b90506000815111612b515760405180602001604052806000815250612b7c565b80612b5b84612562565b604051602001612b6c9291906149a4565b6040516020818303038152906040525b915050919050565b60007f01ffc9a7000000000000000000000000000000000000000000000000000000007bffffffffffffffffffffffffffffffffffffffffffffffffffffffff1916827bffffffffffffffffffffffffffffffffffffffffffffffffffffffff1916149050919050565b612bf88383612d70565b612c056000848484612918565b612c44576040517f08c379a0000000000000000000000000000000000000000000000000000000008152600401612c3b906148b6565b60405180910390fd5b505050565b612c54838383612f3e565b600073ffffffffffffffffffffffffffffffffffffffff168373ffffffffffffffffffffffffffffffffffffffff161415612c9757612c9281612f43565b612cd6565b8173ffffffffffffffffffffffffffffffffffffffff168373ffffffffffffffffffffffffffffffffffffffff1614612cd557612cd48382612f8c565b5b5b600073ffffffffffffffffffffffffffffffffffffffff168273ffffffffffffffffffffffffffffffffffffffff161415612d1957612d14816130f9565b612d58565b8273ffffffffffffffffffffffffffffffffffffffff168273ffffffffffffffffffffffffffffffffffffffff1614612d5757612d5682826131ca565b5b5b505050565b600080823b905060008111915050919050565b600073ffffffffffffffffffffffffffffffffffffffff168273ffffffffffffffffffffffffffffffffffffffff161415612de0576040517f08c379a0000000000000000000000000000000000000000000000000000000008152600401612dd790614d3f565b60405180910390fd5b612de981611abe565b15612e29576040517f08c379a0000000000000000000000000000000000000000000000000000000008152600401612e2090614dab565b60405180910390fd5b612e3560008383612737565b6001600360008473ffffffffffffffffffffffffffffffffffffffff1673ffffffffffffffffffffffffffffffffffffffff1681526020019081526020016000206000828254612e8591906144c6565b92505081905550816002600083815260200190815260200160002060006101000a81548173ffffffffffffffffffffffffffffffffffffffff021916908373ffffffffffffffffffffffffffffffffffffffff160217905550808273ffffffffffffffffffffffffffffffffffffffff16600073ffffffffffffffffffffffffffffffffffffffff167fddf252ad1be2c89b69c2b068fc378daa952ba7f163c4a11628f55a4df523b3ef60405160405180910390a45050565b505050565b6008805490506009600083815260200190815260200160002081905550600881908060018154018082558091505060019003906000526020600020016000909190919091505550565b60006001612f99846112b7565b612fa39190614744565b9050600060076000848152602001908152602001600020549050818114613088576000600660008673ffffffffffffffffffffffffffffffffffffffff1673ffffffffffffffffffffffffffffffffffffffff168152602001908152602001600020600084815260200190815260200160002054905080600660008773ffffffffffffffffffffffffffffffffffffffff1673ffffffffffffffffffffffffffffffffffffffff168152602001908152602001600020600084815260200190815260200160002081905550816007600083815260200190815260200160002081905550505b6007600084815260200190815260200160002060009055600660008573ffffffffffffffffffffffffffffffffffffffff1673ffffffffffffffffffffffffffffffffffffffff16815260200190815260200160002060008381526020019081526020016000206000905550505050565b6000600160088054905061310d9190614744565b905060006009600084815260200190815260200160002054905060006008838154811061313d5761313c614131565b5b90600052602060002001549050806008838154811061315f5761315e614131565b5b9060005260206000200181905550816009600083815260200190815260200160002081905550600960008581526020019081526020016000206000905560088054806131ae576131ad614dcb565b5b6001900381819060005260206000200160009055905550505050565b60006131d5836112b7565b905081600660008573ffffffffffffffffffffffffffffffffffffffff1673ffffffffffffffffffffffffffffffffffffffff168152602001908152602001600020600083815260200190815260200160002081905550806007600084815260200190815260200160002081905550505050565b82805461325590613998565b90600052602060002090601f01602090048101928261327757600085556132be565b82601f1061329057805160ff19168380011785556132be565b828001600101855582156132be579182015b828111156132bd5782518255916020019190600101906132a2565b5b5090506132cb91906132cf565b5090565b5b808211156132e85760008160009055506001016132d0565b5090565b6000604051905090565b600080fd5b600080fd5b60007fffffffff0000000000000000000000000000000000000000000000000000000082169050919050565b61333581613300565b811461334057600080fd5b50565b6000813590506133528161332c565b92915050565b60006020828403121561336e5761336d6132f6565b5b600061337c84828501613343565b91505092915050565b60008115159050919050565b61339a81613385565b82525050565b60006020820190506133b56000830184613391565b92915050565b600081519050919050565b600082825260208201905092915050565b60005b838110156133f55780820151818401526020810190506133da565b83811115613404576000848401525b50505050565b6000601f19601f8301169050919050565b6000613426826133bb565b61343081856133c6565b93506134408185602086016133d7565b6134498161340a565b840191505092915050565b6000602082019050818103600083015261346e818461341b565b905092915050565b6000819050919050565b61348981613476565b811461349457600080fd5b50565b6000813590506134a681613480565b92915050565b6000602082840312156134c2576134c16132f6565b5b60006134d084828501613497565b91505092915050565b600073ffffffffffffffffffffffffffffffffffffffff82169050919050565b6000613504826134d9565b9050919050565b613514816134f9565b82525050565b600060208201905061352f600083018461350b565b92915050565b61353e816134f9565b811461354957600080fd5b50565b60008135905061355b81613535565b92915050565b60008060408385031215613578576135776132f6565b5b60006135868582860161354c565b925050602061359785828601613497565b9150509250929050565b6135aa81613476565b82525050565b60006020820190506135c560008301846135a1565b92915050565b6000806000606084860312156135e4576135e36132f6565b5b60006135f28682870161354c565b93505060206136038682870161354c565b925050604061361486828701613497565b9150509250925092565b6000819050919050565b600061364361363e613639846134d9565b61361e565b6134d9565b9050919050565b600061365582613628565b9050919050565b60006136678261364a565b9050919050565b6136778161365c565b82525050565b6000602082019050613692600083018461366e565b92915050565b600080604083850312156136af576136ae6132f6565b5b60006136bd85828601613497565b92505060206136ce85828601613497565b9150509250929050565b6000602082840312156136ee576136ed6132f6565b5b60006136fc8482850161354c565b91505092915050565b61370e81613385565b811461371957600080fd5b50565b60008135905061372b81613705565b92915050565b60008060408385031215613748576137476132f6565b5b60006137568582860161354c565b92505060206137678582860161371c565b9150509250929050565b600080fd5b600080fd5b7f4e487b7100000000000000000000000000000000000000000000000000000000600052604160045260246000fd5b6137b38261340a565b810181811067ffffffffffffffff821117156137d2576137d161377b565b5b80604052505050565b60006137e56132ec565b90506137f182826137aa565b919050565b600067ffffffffffffffff8211156138115761381061377b565b5b61381a8261340a565b9050602081019050919050565b82818337600083830152505050565b6000613849613844846137f6565b6137db565b90508281526020810184848401111561386557613864613776565b5b613870848285613827565b509392505050565b600082601f83011261388d5761388c613771565b5b813561389d848260208601613836565b91505092915050565b600080600080608085870312156138c0576138bf6132f6565b5b60006138ce8782880161354c565b94505060206138df8782880161354c565b93505060406138f087828801613497565b925050606085013567ffffffffffffffff811115613911576139106132fb565b5b61391d87828801613878565b91505092959194509250565b600080604083850312156139405761393f6132f6565b5b600061394e8582860161354c565b925050602061395f8582860161354c565b9150509250929050565b7f4e487b7100000000000000000000000000000000000000000000000000000000600052602260045260246000fd5b600060028204905060018216806139b057607f821691505b602082108114156139c4576139c3613969565b5b50919050565b7f4552433732313a20617070726f76656420717565727920666f72206e6f6e657860008201527f697374656e7420746f6b656e0000000000000000000000000000000000000000602082015250565b6000613a26602c836133c6565b9150613a31826139ca565b604082019050919050565b60006020820190508181036000830152613a5581613a19565b9050919050565b7f53616c65206d7573742062652061637469766520746f206d696e74206120436960008201527f7479204e46540000000000000000000000000000000000000000000000000000602082015250565b6000613ab86026836133c6565b9150613ac382613a5c565b604082019050919050565b60006020820190508181036000830152613ae781613aab565b9050919050565b7f43616e206f6e6c79206d696e7420313020746f6b656e7320617420612074696d60008201527f6500000000000000000000000000000000000000000000000000000000000000602082015250565b6000613b4a6021836133c6565b9150613b5582613aee565b604082019050919050565b60006020820190508181036000830152613b7981613b3d565b9050919050565b7f507572636861736520776f756c6420657863656564206d6178206e756d62657260008201527f206f662043697479204e46547300000000000000000000000000000000000000602082015250565b6000613bdc602d836133c6565b9150613be782613b80565b604082019050919050565b60006020820190508181036000830152613c0b81613bcf565b9050919050565b7f4e487b7100000000000000000000000000000000000000000000000000000000600052601160045260246000fd5b6000613c4c82613476565b9150613c5783613476565b9250817fffffffffffffffffffffffffffffffffffffffffffffffffffffffffffffffff0483118215151615613c9057613c8f613c12565b5b828202905092915050565b6000606082019050613cb0600083018661350b565b613cbd602083018561350b565b613cca60408301846135a1565b949350505050565b600081519050613ce181613705565b92915050565b600060208284031215613cfd57613cfc6132f6565b5b6000613d0b84828501613cd2565b91505092915050565b7f4552433732313a20617070726f76616c20746f2063757272656e74206f776e6560008201527f7200000000000000000000000000000000000000000000000000000000000000602082015250565b6000613d706021836133c6565b9150613d7b82613d14565b604082019050919050565b60006020820190508181036000830152613d9f81613d63565b9050919050565b7f4552433732313a20617070726f76652063616c6c6572206973206e6f74206f7760008201527f6e6572206e6f7220617070726f76656420666f7220616c6c0000000000000000602082015250565b6000613e026038836133c6565b9150613e0d82613da6565b604082019050919050565b60006020820190508181036000830152613e3181613df5565b9050919050565b7f4f776e61626c653a2063616c6c6572206973206e6f7420746865206f776e6572600082015250565b6000613e6e6020836133c6565b9150613e7982613e38565b602082019050919050565b60006020820190508181036000830152613e9d81613e61565b9050919050565b7f4552433732313a207472616e736665722063616c6c6572206973206e6f74206f60008201527f776e6572206e6f7220617070726f766564000000000000000000000000000000602082015250565b6000613f006031836133c6565b9150613f0b82613ea4565b604082019050919050565b60006020820190508181036000830152613f2f81613ef3565b9050919050565b7f455243373231456e756d657261626c653a206f776e657220696e646578206f7560008201527f74206f6620626f756e6473000000000000000000000000000000000000000000602082015250565b6000613f92602b836133c6565b9150613f9d82613f36565b604082019050919050565b60006020820190508181036000830152613fc181613f85565b9050919050565b600081519050613fd781613480565b92915050565b600060208284031215613ff357613ff26132f6565b5b600061400184828501613fc8565b91505092915050565b600060408201905061401f600083018561350b565b61402c60208301846135a1565b9392505050565b7f416c726561647920696e697469616c697a656400000000000000000000000000600082015250565b60006140696013836133c6565b915061407482614033565b602082019050919050565b600060208201905081810360008301526140988161405c565b9050919050565b7f455243373231456e756d657261626c653a20676c6f62616c20696e646578206f60008201527f7574206f6620626f756e64730000000000000000000000000000000000000000602082015250565b60006140fb602c836133c6565b91506141068261409f565b604082019050919050565b6000602082019050818103600083015261412a816140ee565b9050919050565b7f4e487b7100000000000000000000000000000000000000000000000000000000600052603260045260246000fd5b7f4552433732313a206f776e657220717565727920666f72206e6f6e657869737460008201527f656e7420746f6b656e0000000000000000000000000000000000000000000000602082015250565b60006141bc6029836133c6565b91506141c782614160565b604082019050919050565b600060208201905081810360008301526141eb816141af565b9050919050565b7f57726f6e672073656e6465720000000000000000000000000000000000000000600082015250565b6000614228600c836133c6565b9150614233826141f2565b602082019050919050565b600060208201905081810360008301526142578161421b565b9050919050565b7f4661696c656420746f2073656e64206d61746963000000000000000000000000600082015250565b60006142946014836133c6565b915061429f8261425e565b602082019050919050565b600060208201905081810360008301526142c381614287565b9050919050565b7f4552433732313a2062616c616e636520717565727920666f7220746865207a6560008201527f726f206164647265737300000000000000000000000000000000000000000000602082015250565b6000614326602a836133c6565b9150614331826142ca565b604082019050919050565b6000602082019050818103600083015261435581614319565b9050919050565b7f4661696c656420746f207472616e736665722077657468000000000000000000600082015250565b60006143926017836133c6565b915061439d8261435c565b602082019050919050565b600060208201905081810360008301526143c181614385565b9050919050565b7f4d617469632076616c75652073656e74206973206e6f7420636f727265637400600082015250565b60006143fe601f836133c6565b9150614409826143c8565b602082019050919050565b6000602082019050818103600083015261442d816143f1565b9050919050565b7f4f776e61626c653a206e6577206f776e657220697320746865207a65726f206160008201527f6464726573730000000000000000000000000000000000000000000000000000602082015250565b60006144906026836133c6565b915061449b82614434565b604082019050919050565b600060208201905081810360008301526144bf81614483565b9050919050565b60006144d182613476565b91506144dc83613476565b9250827fffffffffffffffffffffffffffffffffffffffffffffffffffffffffffffffff0382111561451157614510613c12565b5b828201905092915050565b600061452782613476565b91507fffffffffffffffffffffffffffffffffffffffffffffffffffffffffffffffff82141561455a57614559613c12565b5b600182019050919050565b600060408201905061457a60008301856135a1565b614587602083018461350b565b9392505050565b7f4552433732313a206f70657261746f7220717565727920666f72206e6f6e657860008201527f697374656e7420746f6b656e0000000000000000000000000000000000000000602082015250565b60006145ea602c836133c6565b91506145f58261458e565b604082019050919050565b60006020820190508181036000830152614619816145dd565b9050919050565b7f4552433732313a207472616e73666572206f6620746f6b656e2074686174206960008201527f73206e6f74206f776e0000000000000000000000000000000000000000000000602082015250565b600061467c6029836133c6565b915061468782614620565b604082019050919050565b600060208201905081810360008301526146ab8161466f565b9050919050565b7f4552433732313a207472616e7366657220746f20746865207a65726f2061646460008201527f7265737300000000000000000000000000000000000000000000000000000000602082015250565b600061470e6024836133c6565b9150614719826146b2565b604082019050919050565b6000602082019050818103600083015261473d81614701565b9050919050565b600061474f82613476565b915061475a83613476565b92508282101561476d5761476c613c12565b5b828203905092915050565b7f4552433732313a20617070726f766520746f2063616c6c657200000000000000600082015250565b60006147ae6019836133c6565b91506147b982614778565b602082019050919050565b600060208201905081810360008301526147dd816147a1565b9050919050565b7f4e487b7100000000000000000000000000000000000000000000000000000000600052601260045260246000fd5b600061481e82613476565b915061482983613476565b925082614839576148386147e4565b5b828204905092915050565b7f4552433732313a207472616e7366657220746f206e6f6e20455243373231526560008201527f63656976657220696d706c656d656e7465720000000000000000000000000000602082015250565b60006148a06032836133c6565b91506148ab82614844565b604082019050919050565b600060208201905081810360008301526148cf81614893565b9050919050565b7f45524337323155524953746f726167653a2055524920717565727920666f722060008201527f6e6f6e6578697374656e7420746f6b656e000000000000000000000000000000602082015250565b60006149326031836133c6565b915061493d826148d6565b604082019050919050565b6000602082019050818103600083015261496181614925565b9050919050565b600081905092915050565b600061497e826133bb565b6149888185614968565b93506149988185602086016133d7565b80840191505092915050565b60006149b08285614973565b91506149bc8284614973565b91508190509392505050565b60006149d382613476565b91506149de83613476565b9250826149ee576149ed6147e4565b5b828206905092915050565b7f45524337323155524953746f726167653a2055524920736574206f66206e6f6e60008201527f6578697374656e7420746f6b656e000000000000000000000000000000000000602082015250565b6000614a55602e836133c6565b9150614a60826149f9565b604082019050919050565b60006020820190508181036000830152614a8481614a48565b9050919050565b600069ffffffffffffffffffff82169050919050565b614aaa81614a8b565b8114614ab557600080fd5b50565b600081519050614ac781614aa1565b92915050565b6000819050919050565b614ae081614acd565b8114614aeb57600080fd5b50565b600081519050614afd81614ad7565b92915050565b600080600080600060a08688031215614b1f57614b1e6132f6565b5b6000614b2d88828901614ab8565b9550506020614b3e88828901614aee565b9450506040614b4f88828901613fc8565b9350506060614b6088828901613fc8565b9250506080614b7188828901614ab8565b9150509295509295909350565b600081519050919050565b600082825260208201905092915050565b6000614ba582614b7e565b614baf8185614b89565b9350614bbf8185602086016133d7565b614bc88161340a565b840191505092915050565b6000608082019050614be8600083018761350b565b614bf5602083018661350b565b614c0260408301856135a1565b8181036060830152614c148184614b9a565b905095945050505050565b600081519050614c2e8161332c565b92915050565b600060208284031215614c4a57614c496132f6565b5b6000614c5884828501614c1f565b91505092915050565b7f4552433732314d657461646174613a2055524920717565727920666f72206e6f60008201527f6e6578697374656e7420746f6b656e0000000000000000000000000000000000602082015250565b6000614cbd602f836133c6565b9150614cc882614c61565b604082019050919050565b60006020820190508181036000830152614cec81614cb0565b9050919050565b7f4552433732313a206d696e7420746f20746865207a65726f2061646472657373600082015250565b6000614d296020836133c6565b9150614d3482614cf3565b602082019050919050565b60006020820190508181036000830152614d5881614d1c565b9050919050565b7f4552433732313a20746f6b656e20616c7265616479206d696e74656400000000600082015250565b6000614d95601c836133c6565b9150614da082614d5f565b602082019050919050565b60006020820190508181036000830152614dc481614d88565b9050919050565b7f4e487b7100000000000000000000000000000000000000000000000000000000600052603160045260246000fdfea2646970667358221220691e79f4bd2889fa925d29f11aa3415928f9a6409e774e6eb532b3b035e2e24364736f6c634300080b0033",
  "immutableReferences": {},
  "source": "// SPDX-License-Identifier: MIT\r\npragma solidity ^0.8.11;\r\n\r\nimport \"../node_modules/@openzeppelin/contracts/token/ERC721/ERC721.sol\";\r\nimport \"../node_modules/@openzeppelin/contracts/token/ERC721/extensions/ERC721Enumerable.sol\";\r\nimport \"../node_modules/@openzeppelin/contracts/token/ERC721/extensions/ERC721URIStorage.sol\";\r\nimport \"../node_modules/@openzeppelin/contracts/access/Ownable.sol\";\r\nimport \"../node_modules/@openzeppelin/contracts/utils/math/SafeMath.sol\";\r\nimport \"../node_modules/@openzeppelin/contracts/utils/Strings.sol\";\r\n\r\nimport \"../node_modules/@openzeppelin/contracts/token/ERC20/IERC20.sol\";\r\n\r\nimport \"./PriceContract.sol\";\r\nimport \"./Gameplay.sol\";\r\nimport \"./Achievements.sol\";\r\n\r\ncontract CityContract is ERC721, ERC721Enumerable, ERC721URIStorage, Ownable, PriceContract {\r\n    using SafeMath for uint256;\r\n\r\n    // #region Initialization\r\n\r\n    uint private _tokenIdCounter = 0; // counter representing the latest tokenId\r\n\r\n    IERC20 public weth;\r\n    constructor(address _weth, address _maticPrice, address _ethPrice) ERC721(\"CityBuilders\", \"CTB\") PriceContract(_ethPrice, _maticPrice) { \r\n        weth = IERC20(_weth);\r\n    }\r\n\r\n    Gameplay gameplayContract;\r\n    bool gameplayContractInitialized = false;\r\n    function initGameplayContract(address _gameplay) external {\r\n        require(!gameplayContractInitialized, 'Already initialized');\r\n        gameplayContract = Gameplay(_gameplay);\r\n        gameplayContractInitialized = true;\r\n    }\r\n\r\n    address achievementContractAddress = address(0);\r\n    bool achievementContractAddressInitialized = false;\r\n    function initAchievementContract() external {\r\n        require(!achievementContractAddressInitialized, 'Already initialized');\r\n        achievementContractAddress = msg.sender;\r\n        achievementContractAddressInitialized = true;\r\n    }\r\n    \r\n    function _baseURI() internal pure override returns (string memory) {\r\n        return \"http://localhost:8000/cities\"; // this is just temporary\r\n    }\r\n  \r\n    uint mintingPrice = 0.1 ether; // cost of minting a single City NFT (in ether wei)\r\n    bool saleIsActive = false; // if it is possible to mint more NFTs the state is true\r\n    uint maxMintTokens = 10; // max num of tokens to mint per address\r\n    uint MAX_CITIES = 10000; // max num of cities to be minted\r\n\r\n    // #endregion\r\n\r\n    // #region Minting\r\n\r\n    /**\r\n     * @dev Function that changes the price of minting an NFT\r\n     * @param newPrice the new price of the NFTs in ether wei\r\n     */\r\n    function changeMintingPrice(uint newPrice) external onlyOwner {\r\n        mintingPrice = newPrice;\r\n    }\r\n\r\n    /**\r\n     * @dev Function used for minting new City NFTs\r\n     * @param numOfTokens number of tokens that will be minted\r\n     */\r\n    function maticMint(uint numOfTokens) external payable {\r\n        require(saleIsActive, \"Sale must be active to mint a City NFT\");\r\n        require(numOfTokens <= maxMintTokens, \"Can only mint 10 tokens at a time\");\r\n        require(totalSupply().add(numOfTokens) <= MAX_CITIES, \"Purchase would exceed max number of City NFTs\");\r\n        require(mintPriceMatic(mintingPrice) <= msg.value, \"Matic value sent is not correct\");\r\n\r\n        createNFTs(numOfTokens);\r\n    }\r\n\r\n    /**\r\n     * @dev Function used for minting new City NFTs\r\n     * @param numOfTokens number of tokens that will be minted\r\n     */\r\n    function wethMint(uint numOfTokens) external {\r\n        require(saleIsActive, \"Sale must be active to mint a City NFT\");\r\n        require(numOfTokens <= maxMintTokens, \"Can only mint 10 tokens at a time\");\r\n        require(totalSupply().add(numOfTokens) <= MAX_CITIES, \"Purchase would exceed max number of City NFTs\");\r\n\r\n        weth.transferFrom(msg.sender, address(this), mintingPrice*numOfTokens);\r\n\r\n        createNFTs(numOfTokens);\r\n    }\r\n\r\n    // function used to mint NFTs - called from wethMint and maticMint functions only\r\n    function createNFTs(uint numOfTokens) private {\r\n        uint256 tokenId;\r\n        for(uint i = 0; i < numOfTokens; i++) {\r\n            tokenId = _tokenIdCounter;\r\n            _tokenIdCounter++;\r\n\r\n            gameplayContract.created(tokenId, msg.sender);\r\n\r\n            _safeMint(msg.sender, tokenId);\r\n            _setTokenURI(tokenId, Strings.toString(tokenId));\r\n        }\r\n\r\n        if(_tokenIdCounter == MAX_CITIES) {\r\n            saleIsActive = false;\r\n        }\r\n    }\r\n\r\n    // #endregion\r\n\r\n    // #region Paying out the rewards:\r\n\r\n    function sendMatic(uint receiverId, uint value) external {\r\n        require(msg.sender == achievementContractAddress, 'Wrong sender');\r\n\r\n        bool sent = payable(ownerOf(receiverId)).send(value);\r\n        require(sent, 'Failed to send matic');\r\n    }\r\n\r\n    function sendWeth(uint receiverId, uint value) external {\r\n        require(msg.sender == achievementContractAddress, 'Wrong sender');\r\n\r\n        bool sent = weth.transfer(ownerOf(receiverId), value);\r\n        require(sent, 'Failed to transfer weth');\r\n    }\r\n\r\n    // #endregion\r\n\r\n    // #region Get functions\r\n\r\n    function currId() public view returns(uint) {\r\n        return _tokenIdCounter;\r\n    }\r\n\r\n    function getSaleState() external view returns(bool) {\r\n        return saleIsActive;\r\n    }\r\n    // #endregion\r\n\r\n    // #region Utils\r\n\r\n    // The following function is used to withdraw all funds from the contract to the owner address\r\n    function withdraw() public onlyOwner {\r\n        uint maticBalance = address(this).balance;\r\n        payable(msg.sender).transfer(maticBalance);\r\n\r\n        uint ethBalance = weth.balanceOf(address(this));\r\n        weth.transfer(msg.sender, ethBalance);\r\n    }\r\n\r\n    // The following  function is called to start the sale and to end it if all items are sold out or if a problem occurs.\r\n    function flipSaleState() public onlyOwner {\r\n        saleIsActive = !saleIsActive;\r\n    }\r\n\r\n    // #endregion\r\n\r\n    // #region Overrides\r\n\r\n    // The following functions are overrides required by Solidity.\r\n    function _beforeTokenTransfer(address from, address to, uint256 tokenId) internal override(ERC721, ERC721Enumerable) {\r\n        gameplayContract.newOwner(tokenId, to);\r\n        super._beforeTokenTransfer(from, to, tokenId);\r\n    }\r\n\r\n    function _burn(uint256 tokenId) internal override(ERC721, ERC721URIStorage) {\r\n        super._burn(tokenId);\r\n    }\r\n\r\n    function tokenURI(uint256 tokenId) public view override(ERC721, ERC721URIStorage) returns (string memory) {\r\n        return super.tokenURI(tokenId);\r\n    }\r\n\r\n    function supportsInterface(bytes4 interfaceId) public view override(ERC721, ERC721Enumerable) returns (bool){\r\n        return super.supportsInterface(interfaceId);\r\n    }\r\n\r\n    // #endregion\r\n}",
  "sourcePath": "C:\\Users\\Dario Vajda\\OneDrive\\Documents\\nft\\smart_contracts\\contracts\\CityContract.sol",
  "compiler": {
    "name": "solc",
    "version": "0.8.11+commit.d7f03943.Emscripten.clang"
  },
  "schemaVersion": "3.4.4",
  "updatedAt": "2022-08-26T12:40:40.314Z",
  "networkType": "ethereum",
  "devdoc": {
    "kind": "dev",
    "methods": {
      "approve(address,uint256)": {
        "details": "See {IERC721-approve}."
      },
      "balanceOf(address)": {
        "details": "See {IERC721-balanceOf}."
      },
      "changeMintingPrice(uint256)": {
        "details": "Function that changes the price of minting an NFT",
        "params": {
          "newPrice": "the new price of the NFTs in ether wei"
        }
      },
      "getApproved(uint256)": {
        "details": "See {IERC721-getApproved}."
      },
      "isApprovedForAll(address,address)": {
        "details": "See {IERC721-isApprovedForAll}."
      },
      "maticMint(uint256)": {
        "details": "Function used for minting new City NFTs",
        "params": {
          "numOfTokens": "number of tokens that will be minted"
        }
      },
      "name()": {
        "details": "See {IERC721Metadata-name}."
      },
      "owner()": {
        "details": "Returns the address of the current owner."
      },
      "ownerOf(uint256)": {
        "details": "See {IERC721-ownerOf}."
      },
      "renounceOwnership()": {
        "details": "Leaves the contract without owner. It will not be possible to call `onlyOwner` functions anymore. Can only be called by the current owner. NOTE: Renouncing ownership will leave the contract without an owner, thereby removing any functionality that is only available to the owner."
      },
      "safeTransferFrom(address,address,uint256)": {
        "details": "See {IERC721-safeTransferFrom}."
      },
      "safeTransferFrom(address,address,uint256,bytes)": {
        "details": "See {IERC721-safeTransferFrom}."
      },
      "setApprovalForAll(address,bool)": {
        "details": "See {IERC721-setApprovalForAll}."
      },
      "symbol()": {
        "details": "See {IERC721Metadata-symbol}."
      },
      "tokenByIndex(uint256)": {
        "details": "See {IERC721Enumerable-tokenByIndex}."
      },
      "tokenOfOwnerByIndex(address,uint256)": {
        "details": "See {IERC721Enumerable-tokenOfOwnerByIndex}."
      },
      "totalSupply()": {
        "details": "See {IERC721Enumerable-totalSupply}."
      },
      "transferFrom(address,address,uint256)": {
        "details": "See {IERC721-transferFrom}."
      },
      "transferOwnership(address)": {
        "details": "Transfers ownership of the contract to a new account (`newOwner`). Can only be called by the current owner."
      },
      "wethMint(uint256)": {
        "details": "Function used for minting new City NFTs",
        "params": {
          "numOfTokens": "number of tokens that will be minted"
        }
      }
    },
    "version": 1
  },
  "userdoc": {
    "kind": "user",
    "methods": {},
    "version": 1
  }
}