{
  "contractName": "CityContract",
  "abi": [
    {
      "inputs": [],
      "stateMutability": "nonpayable",
      "type": "constructor"
    },
    {
      "anonymous": false,
      "inputs": [
        {
          "indexed": true,
          "internalType": "address",
          "name": "owner",
          "type": "address"
        },
        {
          "indexed": true,
          "internalType": "address",
          "name": "approved",
          "type": "address"
        },
        {
          "indexed": true,
          "internalType": "uint256",
          "name": "tokenId",
          "type": "uint256"
        }
      ],
      "name": "Approval",
      "type": "event"
    },
    {
      "anonymous": false,
      "inputs": [
        {
          "indexed": true,
          "internalType": "address",
          "name": "owner",
          "type": "address"
        },
        {
          "indexed": true,
          "internalType": "address",
          "name": "operator",
          "type": "address"
        },
        {
          "indexed": false,
          "internalType": "bool",
          "name": "approved",
          "type": "bool"
        }
      ],
      "name": "ApprovalForAll",
      "type": "event"
    },
    {
      "anonymous": false,
      "inputs": [
        {
          "indexed": false,
          "internalType": "uint256",
          "name": "number",
          "type": "uint256"
        }
      ],
      "name": "Number",
      "type": "event"
    },
    {
      "anonymous": false,
      "inputs": [
        {
          "indexed": true,
          "internalType": "address",
          "name": "previousOwner",
          "type": "address"
        },
        {
          "indexed": true,
          "internalType": "address",
          "name": "newOwner",
          "type": "address"
        }
      ],
      "name": "OwnershipTransferred",
      "type": "event"
    },
    {
      "anonymous": false,
      "inputs": [
        {
          "indexed": true,
          "internalType": "address",
          "name": "from",
          "type": "address"
        },
        {
          "indexed": true,
          "internalType": "address",
          "name": "to",
          "type": "address"
        },
        {
          "indexed": true,
          "internalType": "uint256",
          "name": "tokenId",
          "type": "uint256"
        }
      ],
      "name": "Transfer",
      "type": "event"
    },
    {
      "inputs": [
        {
          "internalType": "address",
          "name": "to",
          "type": "address"
        },
        {
          "internalType": "uint256",
          "name": "tokenId",
          "type": "uint256"
        }
      ],
      "name": "approve",
      "outputs": [],
      "stateMutability": "nonpayable",
      "type": "function"
    },
    {
      "inputs": [
        {
          "internalType": "address",
          "name": "owner",
          "type": "address"
        }
      ],
      "name": "balanceOf",
      "outputs": [
        {
          "internalType": "uint256",
          "name": "",
          "type": "uint256"
        }
      ],
      "stateMutability": "view",
      "type": "function",
      "constant": true
    },
    {
      "inputs": [
        {
          "internalType": "uint256",
          "name": "tokenId",
          "type": "uint256"
        }
      ],
      "name": "getApproved",
      "outputs": [
        {
          "internalType": "address",
          "name": "",
          "type": "address"
        }
      ],
      "stateMutability": "view",
      "type": "function",
      "constant": true
    },
    {
      "inputs": [
        {
          "internalType": "address",
          "name": "owner",
          "type": "address"
        },
        {
          "internalType": "address",
          "name": "operator",
          "type": "address"
        }
      ],
      "name": "isApprovedForAll",
      "outputs": [
        {
          "internalType": "bool",
          "name": "",
          "type": "bool"
        }
      ],
      "stateMutability": "view",
      "type": "function",
      "constant": true
    },
    {
      "inputs": [],
      "name": "name",
      "outputs": [
        {
          "internalType": "string",
          "name": "",
          "type": "string"
        }
      ],
      "stateMutability": "view",
      "type": "function",
      "constant": true
    },
    {
      "inputs": [],
      "name": "owner",
      "outputs": [
        {
          "internalType": "address",
          "name": "",
          "type": "address"
        }
      ],
      "stateMutability": "view",
      "type": "function",
      "constant": true
    },
    {
      "inputs": [
        {
          "internalType": "uint256",
          "name": "tokenId",
          "type": "uint256"
        }
      ],
      "name": "ownerOf",
      "outputs": [
        {
          "internalType": "address",
          "name": "",
          "type": "address"
        }
      ],
      "stateMutability": "view",
      "type": "function",
      "constant": true
    },
    {
      "inputs": [],
      "name": "renounceOwnership",
      "outputs": [],
      "stateMutability": "nonpayable",
      "type": "function"
    },
    {
      "inputs": [
        {
          "internalType": "address",
          "name": "from",
          "type": "address"
        },
        {
          "internalType": "address",
          "name": "to",
          "type": "address"
        },
        {
          "internalType": "uint256",
          "name": "tokenId",
          "type": "uint256"
        }
      ],
      "name": "safeTransferFrom",
      "outputs": [],
      "stateMutability": "nonpayable",
      "type": "function"
    },
    {
      "inputs": [
        {
          "internalType": "address",
          "name": "from",
          "type": "address"
        },
        {
          "internalType": "address",
          "name": "to",
          "type": "address"
        },
        {
          "internalType": "uint256",
          "name": "tokenId",
          "type": "uint256"
        },
        {
          "internalType": "bytes",
          "name": "_data",
          "type": "bytes"
        }
      ],
      "name": "safeTransferFrom",
      "outputs": [],
      "stateMutability": "nonpayable",
      "type": "function"
    },
    {
      "inputs": [
        {
          "internalType": "address",
          "name": "operator",
          "type": "address"
        },
        {
          "internalType": "bool",
          "name": "approved",
          "type": "bool"
        }
      ],
      "name": "setApprovalForAll",
      "outputs": [],
      "stateMutability": "nonpayable",
      "type": "function"
    },
    {
      "inputs": [],
      "name": "symbol",
      "outputs": [
        {
          "internalType": "string",
          "name": "",
          "type": "string"
        }
      ],
      "stateMutability": "view",
      "type": "function",
      "constant": true
    },
    {
      "inputs": [
        {
          "internalType": "uint256",
          "name": "index",
          "type": "uint256"
        }
      ],
      "name": "tokenByIndex",
      "outputs": [
        {
          "internalType": "uint256",
          "name": "",
          "type": "uint256"
        }
      ],
      "stateMutability": "view",
      "type": "function",
      "constant": true
    },
    {
      "inputs": [
        {
          "internalType": "address",
          "name": "owner",
          "type": "address"
        },
        {
          "internalType": "uint256",
          "name": "index",
          "type": "uint256"
        }
      ],
      "name": "tokenOfOwnerByIndex",
      "outputs": [
        {
          "internalType": "uint256",
          "name": "",
          "type": "uint256"
        }
      ],
      "stateMutability": "view",
      "type": "function",
      "constant": true
    },
    {
      "inputs": [],
      "name": "totalSupply",
      "outputs": [
        {
          "internalType": "uint256",
          "name": "",
          "type": "uint256"
        }
      ],
      "stateMutability": "view",
      "type": "function",
      "constant": true
    },
    {
      "inputs": [
        {
          "internalType": "address",
          "name": "from",
          "type": "address"
        },
        {
          "internalType": "address",
          "name": "to",
          "type": "address"
        },
        {
          "internalType": "uint256",
          "name": "tokenId",
          "type": "uint256"
        }
      ],
      "name": "transferFrom",
      "outputs": [],
      "stateMutability": "nonpayable",
      "type": "function"
    },
    {
      "inputs": [
        {
          "internalType": "address",
          "name": "newOwner",
          "type": "address"
        }
      ],
      "name": "transferOwnership",
      "outputs": [],
      "stateMutability": "nonpayable",
      "type": "function"
    },
    {
      "inputs": [
        {
          "internalType": "uint256",
          "name": "numOfTokens",
          "type": "uint256"
        }
      ],
      "name": "safeMint",
      "outputs": [],
      "stateMutability": "payable",
      "type": "function",
      "payable": true
    },
    {
      "inputs": [
        {
          "internalType": "address",
          "name": "owner",
          "type": "address"
        },
        {
          "internalType": "uint256",
          "name": "tokenId",
          "type": "uint256"
        },
        {
          "internalType": "uint256",
          "name": "numOfBuildings",
          "type": "uint256"
        },
        {
          "internalType": "uint256[]",
          "name": "startx",
          "type": "uint256[]"
        },
        {
          "internalType": "uint256[]",
          "name": "starty",
          "type": "uint256[]"
        },
        {
          "internalType": "uint256[]",
          "name": "endx",
          "type": "uint256[]"
        },
        {
          "internalType": "uint256[]",
          "name": "endy",
          "type": "uint256[]"
        },
        {
          "internalType": "string[]",
          "name": "buildingType",
          "type": "string[]"
        },
        {
          "internalType": "uint256",
          "name": "income",
          "type": "uint256"
        }
      ],
      "name": "initializeCity",
      "outputs": [],
      "stateMutability": "nonpayable",
      "type": "function"
    },
    {
      "inputs": [
        {
          "internalType": "uint256",
          "name": "tokenId",
          "type": "uint256"
        },
        {
          "internalType": "uint256",
          "name": "buildingIndex",
          "type": "uint256"
        }
      ],
      "name": "upgradeBuilding",
      "outputs": [],
      "stateMutability": "nonpayable",
      "type": "function"
    },
    {
      "inputs": [
        {
          "internalType": "uint256",
          "name": "tokenId",
          "type": "uint256"
        },
        {
          "internalType": "uint256",
          "name": "_startx",
          "type": "uint256"
        },
        {
          "internalType": "uint256",
          "name": "_starty",
          "type": "uint256"
        },
        {
          "internalType": "uint256",
          "name": "_endx",
          "type": "uint256"
        },
        {
          "internalType": "uint256",
          "name": "_endy",
          "type": "uint256"
        },
        {
          "internalType": "string",
          "name": "_buildingType",
          "type": "string"
        }
      ],
      "name": "addBuilding",
      "outputs": [],
      "stateMutability": "nonpayable",
      "type": "function"
    },
    {
      "inputs": [],
      "name": "getOwners",
      "outputs": [
        {
          "internalType": "address[]",
          "name": "",
          "type": "address[]"
        }
      ],
      "stateMutability": "view",
      "type": "function",
      "constant": true
    },
    {
      "inputs": [
        {
          "internalType": "uint256",
          "name": "number",
          "type": "uint256"
        }
      ],
      "name": "emitEvent",
      "outputs": [],
      "stateMutability": "nonpayable",
      "type": "function"
    },
    {
      "inputs": [
        {
          "internalType": "uint256",
          "name": "tokenId",
          "type": "uint256"
        }
      ],
      "name": "cityIncome",
      "outputs": [
        {
          "internalType": "uint256",
          "name": "",
          "type": "uint256"
        }
      ],
      "stateMutability": "view",
      "type": "function",
      "constant": true
    },
    {
      "inputs": [],
      "name": "tokenSupply",
      "outputs": [
        {
          "internalType": "uint256",
          "name": "",
          "type": "uint256"
        }
      ],
      "stateMutability": "view",
      "type": "function",
      "constant": true
    },
    {
      "inputs": [],
      "name": "withdraw",
      "outputs": [],
      "stateMutability": "nonpayable",
      "type": "function"
    },
    {
      "inputs": [],
      "name": "flipSaleState",
      "outputs": [],
      "stateMutability": "nonpayable",
      "type": "function"
    },
    {
      "inputs": [
        {
          "internalType": "uint256",
          "name": "tokenId",
          "type": "uint256"
        }
      ],
      "name": "tokenURI",
      "outputs": [
        {
          "internalType": "string",
          "name": "",
          "type": "string"
        }
      ],
      "stateMutability": "view",
      "type": "function",
      "constant": true
    },
    {
      "inputs": [
        {
          "internalType": "bytes4",
          "name": "interfaceId",
          "type": "bytes4"
        }
      ],
      "name": "supportsInterface",
      "outputs": [
        {
          "internalType": "bool",
          "name": "",
          "type": "bool"
        }
      ],
      "stateMutability": "view",
      "type": "function",
      "constant": true
    }
  ],
  "bytecode": "0x6080604052600a600e5567016345785d8a0000600f556000601060006101000a81548160ff021916908315150217905550600a601155612710601255620186a0601460006101000a81548167ffffffffffffffff021916908367ffffffffffffffff1602179055503480156200007457600080fd5b506040518060400160405280600c81526020017f436974794275696c6465727300000000000000000000000000000000000000008152506040518060400160405280600381526020017f43544200000000000000000000000000000000000000000000000000000000008152508160009080519060200190620000f9929190620004ff565b50806001908051906020019062000112929190620004ff565b50505062000135620001296200014b60201b60201c565b6200015360201b60201c565b620001456200021960201b60201c565b62000a54565b600033905090565b6000600b60009054906101000a900473ffffffffffffffffffffffffffffffffffffffff16905081600b60006101000a81548173ffffffffffffffffffffffffffffffffffffffff021916908373ffffffffffffffffffffffffffffffffffffffff1602179055508173ffffffffffffffffffffffffffffffffffffffff168173ffffffffffffffffffffffffffffffffffffffff167f8be0079c531659141344cd1fd0a4f28419497f9722a3daafe3b4186f6b6457e060405160405180910390a35050565b6000600d6040516200022b906200060a565b908152602001604051809103902060006101000a81548160ff021916908360098111156200025e576200025d62000621565b5b02179055506001600d6040516200027590620006a0565b908152602001604051809103902060006101000a81548160ff02191690836009811115620002a857620002a762000621565b5b02179055506002600d604051620002bf9062000707565b908152602001604051809103902060006101000a81548160ff02191690836009811115620002f257620002f162000621565b5b02179055506003600d60405162000309906200076e565b908152602001604051809103902060006101000a81548160ff021916908360098111156200033c576200033b62000621565b5b02179055506004600d6040516200035390620007d5565b908152602001604051809103902060006101000a81548160ff0219169083600981111562000386576200038562000621565b5b02179055506005600d6040516200039d906200083c565b908152602001604051809103902060006101000a81548160ff02191690836009811115620003d057620003cf62000621565b5b02179055506006600d604051620003e790620008a3565b908152602001604051809103902060006101000a81548160ff021916908360098111156200041a576200041962000621565b5b02179055506007600d60405162000431906200090a565b908152602001604051809103902060006101000a81548160ff0219169083600981111562000464576200046362000621565b5b02179055506008600d6040516200047b9062000971565b908152602001604051809103902060006101000a81548160ff02191690836009811115620004ae57620004ad62000621565b5b02179055506009600d604051620004c590620009d8565b908152602001604051809103902060006101000a81548160ff02191690836009811115620004f857620004f762000621565b5b0217905550565b8280546200050d9062000a1e565b90600052602060002090601f0160209004810192826200053157600085556200057d565b82601f106200054c57805160ff19168380011785556200057d565b828001600101855582156200057d579182015b828111156200057c5782518255916020019190600101906200055f565b5b5090506200058c919062000590565b5090565b5b80821115620005ab57600081600090555060010162000591565b5090565b600081905092915050565b7f666163746f727900000000000000000000000000000000000000000000000000600082015250565b6000620005f2600783620005af565b9150620005ff82620005ba565b600782019050919050565b60006200061782620005e3565b9150819050919050565b7f4e487b7100000000000000000000000000000000000000000000000000000000600052602160045260246000fd5b7f6f66666963650000000000000000000000000000000000000000000000000000600082015250565b600062000688600683620005af565b9150620006958262000650565b600682019050919050565b6000620006ad8262000679565b9150819050919050565b7f72657374617572616e7400000000000000000000000000000000000000000000600082015250565b6000620006ef600a83620005af565b9150620006fc82620006b7565b600a82019050919050565b60006200071482620006e0565b9150819050919050565b7f7061726b696e6700000000000000000000000000000000000000000000000000600082015250565b600062000756600783620005af565b915062000763826200071e565b600782019050919050565b60006200077b8262000747565b9150819050919050565b7f6275696c64696e67000000000000000000000000000000000000000000000000600082015250565b6000620007bd600883620005af565b9150620007ca8262000785565b600882019050919050565b6000620007e282620007ae565b9150819050919050565b7f686f757365000000000000000000000000000000000000000000000000000000600082015250565b600062000824600583620005af565b91506200083182620007ec565b600582019050919050565b6000620008498262000815565b9150819050919050565b7f73746f7265000000000000000000000000000000000000000000000000000000600082015250565b60006200088b600583620005af565b9150620008988262000853565b600582019050919050565b6000620008b0826200087c565b9150819050919050565b7f73757065724d61726b6574000000000000000000000000000000000000000000600082015250565b6000620008f2600b83620005af565b9150620008ff82620008ba565b600b82019050919050565b60006200091782620008e3565b9150819050919050565b7f7061726b00000000000000000000000000000000000000000000000000000000600082015250565b600062000959600483620005af565b9150620009668262000921565b600482019050919050565b60006200097e826200094a565b9150819050919050565b7f67796d0000000000000000000000000000000000000000000000000000000000600082015250565b6000620009c0600383620005af565b9150620009cd8262000988565b600382019050919050565b6000620009e582620009b1565b9150819050919050565b7f4e487b7100000000000000000000000000000000000000000000000000000000600052602260045260246000fd5b6000600282049050600182168062000a3757607f821691505b6020821081141562000a4e5762000a4d620009ef565b5b50919050565b61527f8062000a646000396000f3fe6080604052600436106101c25760003560e01c806352efe8c9116100f75780639943626f11610095578063b88d4fde11610064578063b88d4fde1461061d578063c87b56dd14610646578063e985e9c514610683578063f2fde38b146106c0576101c2565b80639943626f14610577578063a0e67e2b146105a0578063a22cb465146105cb578063a392a9f1146105f4576101c2565b8063715018a6116100d1578063715018a6146104df5780637824407f146104f65780638da5cb5b1461052157806395d89b411461054c576101c2565b806352efe8c91461043c5780636352211e1461046557806370a08231146104a2576101c2565b80632f745c59116101645780633ccfd60b1161013e5780633ccfd60b1461039657806342842e0e146103ad5780634d43bec9146103d65780634f6ccce7146103ff576101c2565b80632f745c591461032657806331c864e81461036357806334918dfd1461037f576101c2565b8063095ea7b3116101a0578063095ea7b31461026c57806318160ddd1461029557806323b872dd146102c05780632e37f6d2146102e9576101c2565b806301ffc9a7146101c757806306fdde0314610204578063081812fc1461022f575b600080fd5b3480156101d357600080fd5b506101ee60048036038101906101e99190613377565b6106e9565b6040516101fb91906133bf565b60405180910390f35b34801561021057600080fd5b506102196106fb565b6040516102269190613473565b60405180910390f35b34801561023b57600080fd5b50610256600480360381019061025191906134cb565b61078d565b6040516102639190613539565b60405180910390f35b34801561027857600080fd5b50610293600480360381019061028e9190613580565b610812565b005b3480156102a157600080fd5b506102aa61092a565b6040516102b791906135cf565b60405180910390f35b3480156102cc57600080fd5b506102e760048036038101906102e291906135ea565b610937565b005b3480156102f557600080fd5b50610310600480360381019061030b91906134cb565b610997565b60405161031d91906135cf565b60405180910390f35b34801561033257600080fd5b5061034d60048036038101906103489190613580565b610a21565b60405161035a91906135cf565b60405180910390f35b61037d600480360381019061037891906134cb565b610ac6565b005b34801561038b57600080fd5b50610394610c69565b005b3480156103a257600080fd5b506103ab610d11565b005b3480156103b957600080fd5b506103d460048036038101906103cf91906135ea565b610ddc565b005b3480156103e257600080fd5b506103fd60048036038101906103f891906134cb565b610dfc565b005b34801561040b57600080fd5b50610426600480360381019061042191906134cb565b610e36565b60405161043391906135cf565b60405180910390f35b34801561044857600080fd5b50610463600480360381019061045e919061363d565b610ea7565b005b34801561047157600080fd5b5061048c600480360381019061048791906134cb565b610f8f565b6040516104999190613539565b60405180910390f35b3480156104ae57600080fd5b506104c960048036038101906104c4919061367d565b611041565b6040516104d691906135cf565b60405180910390f35b3480156104eb57600080fd5b506104f46110f9565b005b34801561050257600080fd5b5061050b611181565b60405161051891906135cf565b60405180910390f35b34801561052d57600080fd5b50610536611192565b6040516105439190613539565b60405180910390f35b34801561055857600080fd5b506105616111bc565b60405161056e9190613473565b60405180910390f35b34801561058357600080fd5b5061059e60048036038101906105999190613988565b61124e565b005b3480156105ac57600080fd5b506105b561177f565b6040516105c29190613b9c565b60405180910390f35b3480156105d757600080fd5b506105f260048036038101906105ed9190613bea565b611887565b005b34801561060057600080fd5b5061061b60048036038101906106169190613c85565b61189d565b005b34801561062957600080fd5b50610644600480360381019061063f9190613dd5565b611b40565b005b34801561065257600080fd5b5061066d600480360381019061066891906134cb565b611ba2565b60405161067a9190613473565b60405180910390f35b34801561068f57600080fd5b506106aa60048036038101906106a59190613e58565b611bb4565b6040516106b791906133bf565b60405180910390f35b3480156106cc57600080fd5b506106e760048036038101906106e2919061367d565b611c48565b005b60006106f482611d40565b9050919050565b60606000805461070a90613ec7565b80601f016020809104026020016040519081016040528092919081815260200182805461073690613ec7565b80156107835780601f1061075857610100808354040283529160200191610783565b820191906000526020600020905b81548152906001019060200180831161076657829003601f168201915b5050505050905090565b600061079882611dba565b6107d7576040517f08c379a00000000000000000000000000000000000000000000000000000000081526004016107ce90613f6b565b60405180910390fd5b6004600083815260200190815260200160002060009054906101000a900473ffffffffffffffffffffffffffffffffffffffff169050919050565b600061081d82610f8f565b90508073ffffffffffffffffffffffffffffffffffffffff168373ffffffffffffffffffffffffffffffffffffffff16141561088e576040517f08c379a000000000000000000000000000000000000000000000000000000000815260040161088590613ffd565b60405180910390fd5b8073ffffffffffffffffffffffffffffffffffffffff166108ad611e26565b73ffffffffffffffffffffffffffffffffffffffff1614806108dc57506108db816108d6611e26565b611bb4565b5b61091b576040517f08c379a00000000000000000000000000000000000000000000000000000000081526004016109129061408f565b60405180910390fd5b6109258383611e2e565b505050565b6000600880549050905090565b610948610942611e26565b82611ee7565b610987576040517f08c379a000000000000000000000000000000000000000000000000000000000815260040161097e90614121565b60405180910390fd5b610992838383611fc5565b505050565b60006109a3600c612221565b8211156109e5576040517f08c379a00000000000000000000000000000000000000000000000000000000081526004016109dc9061418d565b60405180910390fd5b6013600083815260200190815260200160002060010160109054906101000a900467ffffffffffffffff1667ffffffffffffffff169050919050565b6000610a2c83611041565b8210610a6d576040517f08c379a0000000000000000000000000000000000000000000000000000000008152600401610a649061421f565b60405180910390fd5b600660008473ffffffffffffffffffffffffffffffffffffffff1673ffffffffffffffffffffffffffffffffffffffff168152602001908152602001600020600083815260200190815260200160002054905092915050565b601060009054906101000a900460ff16610b15576040517f08c379a0000000000000000000000000000000000000000000000000000000008152600401610b0c906142b1565b60405180910390fd5b601154811115610b5a576040517f08c379a0000000000000000000000000000000000000000000000000000000008152600401610b5190614343565b60405180910390fd5b601254610b7782610b6961092a565b61222f90919063ffffffff16565b1115610bb8576040517f08c379a0000000000000000000000000000000000000000000000000000000008152600401610baf906143d5565b60405180910390fd5b34610bce82600f5461224590919063ffffffff16565b1115610c0f576040517f08c379a0000000000000000000000000000000000000000000000000000000008152600401610c0690614441565b60405180910390fd5b600080600090505b82811015610c6457610c29600c612221565b9150610c35600c61225b565b610c3f3383612271565b610c5182610c4c8461228f565b6123f0565b8080610c5c90614490565b915050610c17565b505050565b610c71611e26565b73ffffffffffffffffffffffffffffffffffffffff16610c8f611192565b73ffffffffffffffffffffffffffffffffffffffff1614610ce5576040517f08c379a0000000000000000000000000000000000000000000000000000000008152600401610cdc90614525565b60405180910390fd5b601060009054906101000a900460ff1615601060006101000a81548160ff021916908315150217905550565b610d19611e26565b73ffffffffffffffffffffffffffffffffffffffff16610d37611192565b73ffffffffffffffffffffffffffffffffffffffff1614610d8d576040517f08c379a0000000000000000000000000000000000000000000000000000000008152600401610d8490614525565b60405180910390fd5b60004790503373ffffffffffffffffffffffffffffffffffffffff166108fc829081150290604051600060405180830381858888f19350505050158015610dd8573d6000803e3d6000fd5b5050565b610df783838360405180602001604052806000815250611b40565b505050565b7f6bae605e24bc4cb18abe39d95b9d7fcffa36cf0725b4773ff0f2bc41d4f23cf081604051610e2b91906135cf565b60405180910390a150565b6000610e4061092a565b8210610e81576040517f08c379a0000000000000000000000000000000000000000000000000000000008152600401610e78906145b7565b60405180910390fd5b60088281548110610e9557610e946145d7565b5b90600052602060002001549050919050565b610eaf611e26565b73ffffffffffffffffffffffffffffffffffffffff16610ecd611192565b73ffffffffffffffffffffffffffffffffffffffff1614610f23576040517f08c379a0000000000000000000000000000000000000000000000000000000008152600401610f1a90614525565b60405180910390fd5b600160136000848152602001908152602001600020600001600083815260200190815260200160002060000160118282829054906101000a900463ffffffff16610f6d9190614616565b92506101000a81548163ffffffff021916908363ffffffff1602179055505050565b6000806002600084815260200190815260200160002060009054906101000a900473ffffffffffffffffffffffffffffffffffffffff169050600073ffffffffffffffffffffffffffffffffffffffff168173ffffffffffffffffffffffffffffffffffffffff161415611038576040517f08c379a000000000000000000000000000000000000000000000000000000000815260040161102f906146c2565b60405180910390fd5b80915050919050565b60008073ffffffffffffffffffffffffffffffffffffffff168273ffffffffffffffffffffffffffffffffffffffff1614156110b2576040517f08c379a00000000000000000000000000000000000000000000000000000000081526004016110a990614754565b60405180910390fd5b600360008373ffffffffffffffffffffffffffffffffffffffff1673ffffffffffffffffffffffffffffffffffffffff168152602001908152602001600020549050919050565b611101611e26565b73ffffffffffffffffffffffffffffffffffffffff1661111f611192565b73ffffffffffffffffffffffffffffffffffffffff1614611175576040517f08c379a000000000000000000000000000000000000000000000000000000000815260040161116c90614525565b60405180910390fd5b61117f6000612464565b565b600061118d600c612221565b905090565b6000600b60009054906101000a900473ffffffffffffffffffffffffffffffffffffffff16905090565b6060600180546111cb90613ec7565b80601f01602080910402602001604051908101604052809291908181526020018280546111f790613ec7565b80156112445780601f1061121957610100808354040283529160200191611244565b820191906000526020600020905b81548152906001019060200180831161122757829003601f168201915b5050505050905090565b611256611e26565b73ffffffffffffffffffffffffffffffffffffffff16611274611192565b73ffffffffffffffffffffffffffffffffffffffff16146112ca576040517f08c379a00000000000000000000000000000000000000000000000000000000081526004016112c190614525565b60405180910390fd5b600073ffffffffffffffffffffffffffffffffffffffff16601360008a815260200190815260200160002060020160009054906101000a900473ffffffffffffffffffffffffffffffffffffffff1673ffffffffffffffffffffffffffffffffffffffff161461136f576040517f08c379a0000000000000000000000000000000000000000000000000000000008152600401611366906147c0565b60405180910390fd5b60005b878110156114c457600e54600d848381518110611392576113916145d7565b5b60200260200101516040516113a7919061481c565b908152602001604051809103902060009054906101000a900460ff1660098111156113d5576113d4614833565b5b1115611416576040517f08c379a000000000000000000000000000000000000000000000000000000000815260040161140d906148ae565b60405180910390fd5b6003600d84838151811061142d5761142c6145d7565b5b6020026020010151604051611442919061481c565b908152602001604051809103902060009054906101000a900460ff1660098111156114705761146f614833565b5b14156114b1576040517f08c379a00000000000000000000000000000000000000000000000000000000081526004016114a89061491a565b60405180910390fd5b80806114bc90614490565b915050611372565b506000601360008a8152602001908152602001600020905060005b888110156116c3578781815181106114fa576114f96145d7565b5b602002602001015182600001600083815260200190815260200160002060000160016101000a81548163ffffffff021916908363ffffffff16021790555086818151811061154b5761154a6145d7565b5b602002602001015182600001600083815260200190815260200160002060000160056101000a81548163ffffffff021916908363ffffffff16021790555085818151811061159c5761159b6145d7565b5b602002602001015182600001600083815260200190815260200160002060000160096101000a81548163ffffffff021916908363ffffffff1602179055508481815181106115ed576115ec6145d7565b5b6020026020010151826000016000838152602001908152602001600020600001600d6101000a81548163ffffffff021916908363ffffffff160217905550600d8482815181106116405761163f6145d7565b5b6020026020010151604051611655919061481c565b908152602001604051809103902060009054906101000a900460ff1682600001600083815260200190815260200160002060000160006101000a81548160ff021916908360098111156116ab576116aa614833565b5b021790555080806116bb90614490565b9150506114df565b50818160010160106101000a81548167ffffffffffffffff021916908367ffffffffffffffff160217905550601460009054906101000a900467ffffffffffffffff168160010160086101000a81548167ffffffffffffffff021916908367ffffffffffffffff160217905550898160020160006101000a81548173ffffffffffffffffffffffffffffffffffffffff021916908373ffffffffffffffffffffffffffffffffffffffff16021790555050505050505050505050565b6060600061178d600c612221565b905060008167ffffffffffffffff8111156117ab576117aa6136af565b5b6040519080825280602002602001820160405280156117d95781602001602082028036833780820191505090505b50905060005b8281101561187e576013600082815260200190815260200160002060020160009054906101000a900473ffffffffffffffffffffffffffffffffffffffff16828281518110611831576118306145d7565b5b602002602001019073ffffffffffffffffffffffffffffffffffffffff16908173ffffffffffffffffffffffffffffffffffffffff1681525050808061187690614490565b9150506117df565b50809250505090565b611899611892611e26565b838361252a565b5050565b6118a5611e26565b73ffffffffffffffffffffffffffffffffffffffff166118c3611192565b73ffffffffffffffffffffffffffffffffffffffff1614611919576040517f08c379a000000000000000000000000000000000000000000000000000000000815260040161191090614525565b60405180910390fd5b60006013600089815260200190815260200160002090506040518060c00160405280600d858560405161194d92919061495f565b908152602001604051809103902060009054906101000a900460ff16600981111561197b5761197a614833565b5b81526020018863ffffffff1681526020018763ffffffff1681526020018663ffffffff1681526020018563ffffffff168152602001600063ffffffff168152508160000160008360010160009054906101000a900467ffffffffffffffff1667ffffffffffffffff16815260200190815260200160002060008201518160000160006101000a81548160ff02191690836009811115611a1d57611a1c614833565b5b021790555060208201518160000160016101000a81548163ffffffff021916908363ffffffff16021790555060408201518160000160056101000a81548163ffffffff021916908363ffffffff16021790555060608201518160000160096101000a81548163ffffffff021916908363ffffffff160217905550608082015181600001600d6101000a81548163ffffffff021916908363ffffffff16021790555060a08201518160000160116101000a81548163ffffffff021916908363ffffffff16021790555090505060018160010160008282829054906101000a900467ffffffffffffffff16611b10919061498c565b92506101000a81548167ffffffffffffffff021916908367ffffffffffffffff1602179055505050505050505050565b611b51611b4b611e26565b83611ee7565b611b90576040517f08c379a0000000000000000000000000000000000000000000000000000000008152600401611b8790614121565b60405180910390fd5b611b9c84848484612697565b50505050565b6060611bad826126f3565b9050919050565b6000600560008473ffffffffffffffffffffffffffffffffffffffff1673ffffffffffffffffffffffffffffffffffffffff16815260200190815260200160002060008373ffffffffffffffffffffffffffffffffffffffff1673ffffffffffffffffffffffffffffffffffffffff16815260200190815260200160002060009054906101000a900460ff16905092915050565b611c50611e26565b73ffffffffffffffffffffffffffffffffffffffff16611c6e611192565b73ffffffffffffffffffffffffffffffffffffffff1614611cc4576040517f08c379a0000000000000000000000000000000000000000000000000000000008152600401611cbb90614525565b60405180910390fd5b600073ffffffffffffffffffffffffffffffffffffffff168173ffffffffffffffffffffffffffffffffffffffff161415611d34576040517f08c379a0000000000000000000000000000000000000000000000000000000008152600401611d2b90614a3c565b60405180910390fd5b611d3d81612464565b50565b60007f780e9d63000000000000000000000000000000000000000000000000000000007bffffffffffffffffffffffffffffffffffffffffffffffffffffffff1916827bffffffffffffffffffffffffffffffffffffffffffffffffffffffff19161480611db35750611db282612845565b5b9050919050565b60008073ffffffffffffffffffffffffffffffffffffffff166002600084815260200190815260200160002060009054906101000a900473ffffffffffffffffffffffffffffffffffffffff1673ffffffffffffffffffffffffffffffffffffffff1614159050919050565b600033905090565b816004600083815260200190815260200160002060006101000a81548173ffffffffffffffffffffffffffffffffffffffff021916908373ffffffffffffffffffffffffffffffffffffffff160217905550808273ffffffffffffffffffffffffffffffffffffffff16611ea183610f8f565b73ffffffffffffffffffffffffffffffffffffffff167f8c5be1e5ebec7d5bd14f71427d1e84f3dd0314c0f7b2291e5b200ac8c7c3b92560405160405180910390a45050565b6000611ef282611dba565b611f31576040517f08c379a0000000000000000000000000000000000000000000000000000000008152600401611f2890614ace565b60405180910390fd5b6000611f3c83610f8f565b90508073ffffffffffffffffffffffffffffffffffffffff168473ffffffffffffffffffffffffffffffffffffffff161480611fab57508373ffffffffffffffffffffffffffffffffffffffff16611f938461078d565b73ffffffffffffffffffffffffffffffffffffffff16145b80611fbc5750611fbb8185611bb4565b5b91505092915050565b8273ffffffffffffffffffffffffffffffffffffffff16611fe582610f8f565b73ffffffffffffffffffffffffffffffffffffffff161461203b576040517f08c379a000000000000000000000000000000000000000000000000000000000815260040161203290614b60565b60405180910390fd5b600073ffffffffffffffffffffffffffffffffffffffff168273ffffffffffffffffffffffffffffffffffffffff1614156120ab576040517f08c379a00000000000000000000000000000000000000000000000000000000081526004016120a290614bf2565b60405180910390fd5b6120b6838383612927565b6120c1600082611e2e565b6001600360008573ffffffffffffffffffffffffffffffffffffffff1673ffffffffffffffffffffffffffffffffffffffff16815260200190815260200160002060008282546121119190614c12565b925050819055506001600360008473ffffffffffffffffffffffffffffffffffffffff1673ffffffffffffffffffffffffffffffffffffffff16815260200190815260200160002060008282546121689190614c46565b92505081905550816002600083815260200190815260200160002060006101000a81548173ffffffffffffffffffffffffffffffffffffffff021916908373ffffffffffffffffffffffffffffffffffffffff160217905550808273ffffffffffffffffffffffffffffffffffffffff168473ffffffffffffffffffffffffffffffffffffffff167fddf252ad1be2c89b69c2b068fc378daa952ba7f163c4a11628f55a4df523b3ef60405160405180910390a4505050565b600081600001549050919050565b6000818361223d9190614c46565b905092915050565b600081836122539190614c9c565b905092915050565b6001816000016000828254019250508190555050565b61228b828260405180602001604052806000815250612937565b5050565b606060008214156122d7576040518060400160405280600181526020017f300000000000000000000000000000000000000000000000000000000000000081525090506123eb565b600082905060005b600082146123095780806122f290614490565b915050600a826123029190614d25565b91506122df565b60008167ffffffffffffffff811115612325576123246136af565b5b6040519080825280601f01601f1916602001820160405280156123575781602001600182028036833780820191505090505b5090505b600085146123e4576001826123709190614c12565b9150600a8561237f9190614d56565b603061238b9190614c46565b60f81b8183815181106123a1576123a06145d7565b5b60200101907effffffffffffffffffffffffffffffffffffffffffffffffffffffffffffff1916908160001a905350600a856123dd9190614d25565b945061235b565b8093505050505b919050565b6123f982611dba565b612438576040517f08c379a000000000000000000000000000000000000000000000000000000000815260040161242f90614df9565b60405180910390fd5b80600a6000848152602001908152602001600020908051906020019061245f929190613268565b505050565b6000600b60009054906101000a900473ffffffffffffffffffffffffffffffffffffffff16905081600b60006101000a81548173ffffffffffffffffffffffffffffffffffffffff021916908373ffffffffffffffffffffffffffffffffffffffff1602179055508173ffffffffffffffffffffffffffffffffffffffff168173ffffffffffffffffffffffffffffffffffffffff167f8be0079c531659141344cd1fd0a4f28419497f9722a3daafe3b4186f6b6457e060405160405180910390a35050565b8173ffffffffffffffffffffffffffffffffffffffff168373ffffffffffffffffffffffffffffffffffffffff161415612599576040517f08c379a000000000000000000000000000000000000000000000000000000000815260040161259090614e65565b60405180910390fd5b80600560008573ffffffffffffffffffffffffffffffffffffffff1673ffffffffffffffffffffffffffffffffffffffff16815260200190815260200160002060008473ffffffffffffffffffffffffffffffffffffffff1673ffffffffffffffffffffffffffffffffffffffff16815260200190815260200160002060006101000a81548160ff0219169083151502179055508173ffffffffffffffffffffffffffffffffffffffff168373ffffffffffffffffffffffffffffffffffffffff167f17307eab39ab6107e8899845ad3d59bd9653f200f220920489ca2b5937696c318360405161268a91906133bf565b60405180910390a3505050565b6126a2848484611fc5565b6126ae84848484612992565b6126ed576040517f08c379a00000000000000000000000000000000000000000000000000000000081526004016126e490614ef7565b60405180910390fd5b50505050565b60606126fe82611dba565b61273d576040517f08c379a000000000000000000000000000000000000000000000000000000000815260040161273490614f89565b60405180910390fd5b6000600a6000848152602001908152602001600020805461275d90613ec7565b80601f016020809104026020016040519081016040528092919081815260200182805461278990613ec7565b80156127d65780601f106127ab576101008083540402835291602001916127d6565b820191906000526020600020905b8154815290600101906020018083116127b957829003601f168201915b5050505050905060006127e7612b1a565b90506000815114156127fd578192505050612840565b60008251111561283257808260405160200161281a929190614fa9565b60405160208183030381529060405292505050612840565b61283b84612b57565b925050505b919050565b60007f80ac58cd000000000000000000000000000000000000000000000000000000007bffffffffffffffffffffffffffffffffffffffffffffffffffffffff1916827bffffffffffffffffffffffffffffffffffffffffffffffffffffffff1916148061291057507f5b5e139f000000000000000000000000000000000000000000000000000000007bffffffffffffffffffffffffffffffffffffffffffffffffffffffff1916827bffffffffffffffffffffffffffffffffffffffffffffffffffffffff1916145b80612920575061291f82612bfe565b5b9050919050565b612932838383612c68565b505050565b6129418383612d7c565b61294e6000848484612992565b61298d576040517f08c379a000000000000000000000000000000000000000000000000000000000815260040161298490614ef7565b60405180910390fd5b505050565b60006129b38473ffffffffffffffffffffffffffffffffffffffff16612f4a565b15612b0d578373ffffffffffffffffffffffffffffffffffffffff1663150b7a026129dc611e26565b8786866040518563ffffffff1660e01b81526004016129fe9493929190615022565b6020604051808303816000875af1925050508015612a3a57506040513d601f19601f82011682018060405250810190612a379190615083565b60015b612abd573d8060008114612a6a576040519150601f19603f3d011682016040523d82523d6000602084013e612a6f565b606091505b50600081511415612ab5576040517f08c379a0000000000000000000000000000000000000000000000000000000008152600401612aac90614ef7565b60405180910390fd5b805181602001fd5b63150b7a0260e01b7bffffffffffffffffffffffffffffffffffffffffffffffffffffffff1916817bffffffffffffffffffffffffffffffffffffffffffffffffffffffff191614915050612b12565b600190505b949350505050565b60606040518060400160405280601c81526020017f687474703a2f2f6c6f63616c686f73743a333030302f63697469657300000000815250905090565b6060612b6282611dba565b612ba1576040517f08c379a0000000000000000000000000000000000000000000000000000000008152600401612b9890615122565b60405180910390fd5b6000612bab612b1a565b90506000815111612bcb5760405180602001604052806000815250612bf6565b80612bd58461228f565b604051602001612be6929190614fa9565b6040516020818303038152906040525b915050919050565b60007f01ffc9a7000000000000000000000000000000000000000000000000000000007bffffffffffffffffffffffffffffffffffffffffffffffffffffffff1916827bffffffffffffffffffffffffffffffffffffffffffffffffffffffff1916149050919050565b612c73838383612f5d565b600073ffffffffffffffffffffffffffffffffffffffff168373ffffffffffffffffffffffffffffffffffffffff161415612cb657612cb181612f62565b612cf5565b8173ffffffffffffffffffffffffffffffffffffffff168373ffffffffffffffffffffffffffffffffffffffff1614612cf457612cf38382612fab565b5b5b600073ffffffffffffffffffffffffffffffffffffffff168273ffffffffffffffffffffffffffffffffffffffff161415612d3857612d3381613118565b612d77565b8273ffffffffffffffffffffffffffffffffffffffff168273ffffffffffffffffffffffffffffffffffffffff1614612d7657612d7582826131e9565b5b5b505050565b600073ffffffffffffffffffffffffffffffffffffffff168273ffffffffffffffffffffffffffffffffffffffff161415612dec576040517f08c379a0000000000000000000000000000000000000000000000000000000008152600401612de39061518e565b60405180910390fd5b612df581611dba565b15612e35576040517f08c379a0000000000000000000000000000000000000000000000000000000008152600401612e2c906151fa565b60405180910390fd5b612e4160008383612927565b6001600360008473ffffffffffffffffffffffffffffffffffffffff1673ffffffffffffffffffffffffffffffffffffffff1681526020019081526020016000206000828254612e919190614c46565b92505081905550816002600083815260200190815260200160002060006101000a81548173ffffffffffffffffffffffffffffffffffffffff021916908373ffffffffffffffffffffffffffffffffffffffff160217905550808273ffffffffffffffffffffffffffffffffffffffff16600073ffffffffffffffffffffffffffffffffffffffff167fddf252ad1be2c89b69c2b068fc378daa952ba7f163c4a11628f55a4df523b3ef60405160405180910390a45050565b600080823b905060008111915050919050565b505050565b6008805490506009600083815260200190815260200160002081905550600881908060018154018082558091505060019003906000526020600020016000909190919091505550565b60006001612fb884611041565b612fc29190614c12565b90506000600760008481526020019081526020016000205490508181146130a7576000600660008673ffffffffffffffffffffffffffffffffffffffff1673ffffffffffffffffffffffffffffffffffffffff168152602001908152602001600020600084815260200190815260200160002054905080600660008773ffffffffffffffffffffffffffffffffffffffff1673ffffffffffffffffffffffffffffffffffffffff168152602001908152602001600020600084815260200190815260200160002081905550816007600083815260200190815260200160002081905550505b6007600084815260200190815260200160002060009055600660008573ffffffffffffffffffffffffffffffffffffffff1673ffffffffffffffffffffffffffffffffffffffff16815260200190815260200160002060008381526020019081526020016000206000905550505050565b6000600160088054905061312c9190614c12565b905060006009600084815260200190815260200160002054905060006008838154811061315c5761315b6145d7565b5b90600052602060002001549050806008838154811061317e5761317d6145d7565b5b9060005260206000200181905550816009600083815260200190815260200160002081905550600960008581526020019081526020016000206000905560088054806131cd576131cc61521a565b5b6001900381819060005260206000200160009055905550505050565b60006131f483611041565b905081600660008573ffffffffffffffffffffffffffffffffffffffff1673ffffffffffffffffffffffffffffffffffffffff168152602001908152602001600020600083815260200190815260200160002081905550806007600084815260200190815260200160002081905550505050565b82805461327490613ec7565b90600052602060002090601f01602090048101928261329657600085556132dd565b82601f106132af57805160ff19168380011785556132dd565b828001600101855582156132dd579182015b828111156132dc5782518255916020019190600101906132c1565b5b5090506132ea91906132ee565b5090565b5b808211156133075760008160009055506001016132ef565b5090565b6000604051905090565b600080fd5b600080fd5b60007fffffffff0000000000000000000000000000000000000000000000000000000082169050919050565b6133548161331f565b811461335f57600080fd5b50565b6000813590506133718161334b565b92915050565b60006020828403121561338d5761338c613315565b5b600061339b84828501613362565b91505092915050565b60008115159050919050565b6133b9816133a4565b82525050565b60006020820190506133d460008301846133b0565b92915050565b600081519050919050565b600082825260208201905092915050565b60005b838110156134145780820151818401526020810190506133f9565b83811115613423576000848401525b50505050565b6000601f19601f8301169050919050565b6000613445826133da565b61344f81856133e5565b935061345f8185602086016133f6565b61346881613429565b840191505092915050565b6000602082019050818103600083015261348d818461343a565b905092915050565b6000819050919050565b6134a881613495565b81146134b357600080fd5b50565b6000813590506134c58161349f565b92915050565b6000602082840312156134e1576134e0613315565b5b60006134ef848285016134b6565b91505092915050565b600073ffffffffffffffffffffffffffffffffffffffff82169050919050565b6000613523826134f8565b9050919050565b61353381613518565b82525050565b600060208201905061354e600083018461352a565b92915050565b61355d81613518565b811461356857600080fd5b50565b60008135905061357a81613554565b92915050565b6000806040838503121561359757613596613315565b5b60006135a58582860161356b565b92505060206135b6858286016134b6565b9150509250929050565b6135c981613495565b82525050565b60006020820190506135e460008301846135c0565b92915050565b60008060006060848603121561360357613602613315565b5b60006136118682870161356b565b93505060206136228682870161356b565b9250506040613633868287016134b6565b9150509250925092565b6000806040838503121561365457613653613315565b5b6000613662858286016134b6565b9250506020613673858286016134b6565b9150509250929050565b60006020828403121561369357613692613315565b5b60006136a18482850161356b565b91505092915050565b600080fd5b7f4e487b7100000000000000000000000000000000000000000000000000000000600052604160045260246000fd5b6136e782613429565b810181811067ffffffffffffffff82111715613706576137056136af565b5b80604052505050565b600061371961330b565b905061372582826136de565b919050565b600067ffffffffffffffff821115613745576137446136af565b5b602082029050602081019050919050565b600080fd5b600061376e6137698461372a565b61370f565b9050808382526020820190506020840283018581111561379157613790613756565b5b835b818110156137ba57806137a688826134b6565b845260208401935050602081019050613793565b5050509392505050565b600082601f8301126137d9576137d86136aa565b5b81356137e984826020860161375b565b91505092915050565b600067ffffffffffffffff82111561380d5761380c6136af565b5b602082029050602081019050919050565b600080fd5b600067ffffffffffffffff82111561383e5761383d6136af565b5b61384782613429565b9050602081019050919050565b82818337600083830152505050565b600061387661387184613823565b61370f565b9050828152602081018484840111156138925761389161381e565b5b61389d848285613854565b509392505050565b600082601f8301126138ba576138b96136aa565b5b81356138ca848260208601613863565b91505092915050565b60006138e66138e1846137f2565b61370f565b9050808382526020820190506020840283018581111561390957613908613756565b5b835b8181101561395057803567ffffffffffffffff81111561392e5761392d6136aa565b5b80860161393b89826138a5565b8552602085019450505060208101905061390b565b5050509392505050565b600082601f83011261396f5761396e6136aa565b5b813561397f8482602086016138d3565b91505092915050565b60008060008060008060008060006101208a8c0312156139ab576139aa613315565b5b60006139b98c828d0161356b565b99505060206139ca8c828d016134b6565b98505060406139db8c828d016134b6565b97505060608a013567ffffffffffffffff8111156139fc576139fb61331a565b5b613a088c828d016137c4565b96505060808a013567ffffffffffffffff811115613a2957613a2861331a565b5b613a358c828d016137c4565b95505060a08a013567ffffffffffffffff811115613a5657613a5561331a565b5b613a628c828d016137c4565b94505060c08a013567ffffffffffffffff811115613a8357613a8261331a565b5b613a8f8c828d016137c4565b93505060e08a013567ffffffffffffffff811115613ab057613aaf61331a565b5b613abc8c828d0161395a565b925050610100613ace8c828d016134b6565b9150509295985092959850929598565b600081519050919050565b600082825260208201905092915050565b6000819050602082019050919050565b613b1381613518565b82525050565b6000613b258383613b0a565b60208301905092915050565b6000602082019050919050565b6000613b4982613ade565b613b538185613ae9565b9350613b5e83613afa565b8060005b83811015613b8f578151613b768882613b19565b9750613b8183613b31565b925050600181019050613b62565b5085935050505092915050565b60006020820190508181036000830152613bb68184613b3e565b905092915050565b613bc7816133a4565b8114613bd257600080fd5b50565b600081359050613be481613bbe565b92915050565b60008060408385031215613c0157613c00613315565b5b6000613c0f8582860161356b565b9250506020613c2085828601613bd5565b9150509250929050565b600080fd5b60008083601f840112613c4557613c446136aa565b5b8235905067ffffffffffffffff811115613c6257613c61613c2a565b5b602083019150836001820283011115613c7e57613c7d613756565b5b9250929050565b600080600080600080600060c0888a031215613ca457613ca3613315565b5b6000613cb28a828b016134b6565b9750506020613cc38a828b016134b6565b9650506040613cd48a828b016134b6565b9550506060613ce58a828b016134b6565b9450506080613cf68a828b016134b6565b93505060a088013567ffffffffffffffff811115613d1757613d1661331a565b5b613d238a828b01613c2f565b925092505092959891949750929550565b600067ffffffffffffffff821115613d4f57613d4e6136af565b5b613d5882613429565b9050602081019050919050565b6000613d78613d7384613d34565b61370f565b905082815260208101848484011115613d9457613d9361381e565b5b613d9f848285613854565b509392505050565b600082601f830112613dbc57613dbb6136aa565b5b8135613dcc848260208601613d65565b91505092915050565b60008060008060808587031215613def57613dee613315565b5b6000613dfd8782880161356b565b9450506020613e0e8782880161356b565b9350506040613e1f878288016134b6565b925050606085013567ffffffffffffffff811115613e4057613e3f61331a565b5b613e4c87828801613da7565b91505092959194509250565b60008060408385031215613e6f57613e6e613315565b5b6000613e7d8582860161356b565b9250506020613e8e8582860161356b565b9150509250929050565b7f4e487b7100000000000000000000000000000000000000000000000000000000600052602260045260246000fd5b60006002820490506001821680613edf57607f821691505b60208210811415613ef357613ef2613e98565b5b50919050565b7f4552433732313a20617070726f76656420717565727920666f72206e6f6e657860008201527f697374656e7420746f6b656e0000000000000000000000000000000000000000602082015250565b6000613f55602c836133e5565b9150613f6082613ef9565b604082019050919050565b60006020820190508181036000830152613f8481613f48565b9050919050565b7f4552433732313a20617070726f76616c20746f2063757272656e74206f776e6560008201527f7200000000000000000000000000000000000000000000000000000000000000602082015250565b6000613fe76021836133e5565b9150613ff282613f8b565b604082019050919050565b6000602082019050818103600083015261401681613fda565b9050919050565b7f4552433732313a20617070726f76652063616c6c6572206973206e6f74206f7760008201527f6e6572206e6f7220617070726f76656420666f7220616c6c0000000000000000602082015250565b60006140796038836133e5565b91506140848261401d565b604082019050919050565b600060208201905081810360008301526140a88161406c565b9050919050565b7f4552433732313a207472616e736665722063616c6c6572206973206e6f74206f60008201527f776e6572206e6f7220617070726f766564000000000000000000000000000000602082015250565b600061410b6031836133e5565b9150614116826140af565b604082019050919050565b6000602082019050818103600083015261413a816140fe565b9050919050565b7f52657175657374656420746f6b656e4964206f7574206f6620626f756e647300600082015250565b6000614177601f836133e5565b915061418282614141565b602082019050919050565b600060208201905081810360008301526141a68161416a565b9050919050565b7f455243373231456e756d657261626c653a206f776e657220696e646578206f7560008201527f74206f6620626f756e6473000000000000000000000000000000000000000000602082015250565b6000614209602b836133e5565b9150614214826141ad565b604082019050919050565b60006020820190508181036000830152614238816141fc565b9050919050565b7f53616c65206d7573742062652061637469766520746f206d696e74206120436960008201527f7479204e46540000000000000000000000000000000000000000000000000000602082015250565b600061429b6026836133e5565b91506142a68261423f565b604082019050919050565b600060208201905081810360008301526142ca8161428e565b9050919050565b7f43616e206f6e6c79206d696e7420313020746f6b656e7320617420612074696d60008201527f6500000000000000000000000000000000000000000000000000000000000000602082015250565b600061432d6021836133e5565b9150614338826142d1565b604082019050919050565b6000602082019050818103600083015261435c81614320565b9050919050565b7f507572636861736520776f756c6420657863656564206d6178206e756d62657260008201527f206f662043697479204e46547300000000000000000000000000000000000000602082015250565b60006143bf602d836133e5565b91506143ca82614363565b604082019050919050565b600060208201905081810360008301526143ee816143b2565b9050919050565b7f45746865722076616c75652073656e74206973206e6f7420636f727265637400600082015250565b600061442b601f836133e5565b9150614436826143f5565b602082019050919050565b6000602082019050818103600083015261445a8161441e565b9050919050565b7f4e487b7100000000000000000000000000000000000000000000000000000000600052601160045260246000fd5b600061449b82613495565b91507fffffffffffffffffffffffffffffffffffffffffffffffffffffffffffffffff8214156144ce576144cd614461565b5b600182019050919050565b7f4f776e61626c653a2063616c6c6572206973206e6f7420746865206f776e6572600082015250565b600061450f6020836133e5565b915061451a826144d9565b602082019050919050565b6000602082019050818103600083015261453e81614502565b9050919050565b7f455243373231456e756d657261626c653a20676c6f62616c20696e646578206f60008201527f7574206f6620626f756e64730000000000000000000000000000000000000000602082015250565b60006145a1602c836133e5565b91506145ac82614545565b604082019050919050565b600060208201905081810360008301526145d081614594565b9050919050565b7f4e487b7100000000000000000000000000000000000000000000000000000000600052603260045260246000fd5b600063ffffffff82169050919050565b600061462182614606565b915061462c83614606565b92508263ffffffff0382111561464557614644614461565b5b828201905092915050565b7f4552433732313a206f776e657220717565727920666f72206e6f6e657869737460008201527f656e7420746f6b656e0000000000000000000000000000000000000000000000602082015250565b60006146ac6029836133e5565b91506146b782614650565b604082019050919050565b600060208201905081810360008301526146db8161469f565b9050919050565b7f4552433732313a2062616c616e636520717565727920666f7220746865207a6560008201527f726f206164647265737300000000000000000000000000000000000000000000602082015250565b600061473e602a836133e5565b9150614749826146e2565b604082019050919050565b6000602082019050818103600083015261476d81614731565b9050919050565b7f4369747920697320616c726561647920696e697469616c697a65640000000000600082015250565b60006147aa601b836133e5565b91506147b582614774565b602082019050919050565b600060208201905081810360008301526147d98161479d565b9050919050565b600081905092915050565b60006147f6826133da565b61480081856147e0565b93506148108185602086016133f6565b80840191505092915050565b600061482882846147eb565b915081905092915050565b7f4e487b7100000000000000000000000000000000000000000000000000000000600052602160045260246000fd5b7f496e76616c6964206275696c64696e6720747970650000000000000000000000600082015250565b60006148986015836133e5565b91506148a382614862565b602082019050919050565b600060208201905081810360008301526148c78161488b565b9050919050565b7f596f752063616e2774206275696c64207061726b696e67732100000000000000600082015250565b60006149046019836133e5565b915061490f826148ce565b602082019050919050565b60006020820190508181036000830152614933816148f7565b9050919050565b600061494683856147e0565b9350614953838584613854565b82840190509392505050565b600061496c82848661493a565b91508190509392505050565b600067ffffffffffffffff82169050919050565b600061499782614978565b91506149a283614978565b92508267ffffffffffffffff038211156149bf576149be614461565b5b828201905092915050565b7f4f776e61626c653a206e6577206f776e657220697320746865207a65726f206160008201527f6464726573730000000000000000000000000000000000000000000000000000602082015250565b6000614a266026836133e5565b9150614a31826149ca565b604082019050919050565b60006020820190508181036000830152614a5581614a19565b9050919050565b7f4552433732313a206f70657261746f7220717565727920666f72206e6f6e657860008201527f697374656e7420746f6b656e0000000000000000000000000000000000000000602082015250565b6000614ab8602c836133e5565b9150614ac382614a5c565b604082019050919050565b60006020820190508181036000830152614ae781614aab565b9050919050565b7f4552433732313a207472616e73666572206f6620746f6b656e2074686174206960008201527f73206e6f74206f776e0000000000000000000000000000000000000000000000602082015250565b6000614b4a6029836133e5565b9150614b5582614aee565b604082019050919050565b60006020820190508181036000830152614b7981614b3d565b9050919050565b7f4552433732313a207472616e7366657220746f20746865207a65726f2061646460008201527f7265737300000000000000000000000000000000000000000000000000000000602082015250565b6000614bdc6024836133e5565b9150614be782614b80565b604082019050919050565b60006020820190508181036000830152614c0b81614bcf565b9050919050565b6000614c1d82613495565b9150614c2883613495565b925082821015614c3b57614c3a614461565b5b828203905092915050565b6000614c5182613495565b9150614c5c83613495565b9250827fffffffffffffffffffffffffffffffffffffffffffffffffffffffffffffffff03821115614c9157614c90614461565b5b828201905092915050565b6000614ca782613495565b9150614cb283613495565b9250817fffffffffffffffffffffffffffffffffffffffffffffffffffffffffffffffff0483118215151615614ceb57614cea614461565b5b828202905092915050565b7f4e487b7100000000000000000000000000000000000000000000000000000000600052601260045260246000fd5b6000614d3082613495565b9150614d3b83613495565b925082614d4b57614d4a614cf6565b5b828204905092915050565b6000614d6182613495565b9150614d6c83613495565b925082614d7c57614d7b614cf6565b5b828206905092915050565b7f45524337323155524953746f726167653a2055524920736574206f66206e6f6e60008201527f6578697374656e7420746f6b656e000000000000000000000000000000000000602082015250565b6000614de3602e836133e5565b9150614dee82614d87565b604082019050919050565b60006020820190508181036000830152614e1281614dd6565b9050919050565b7f4552433732313a20617070726f766520746f2063616c6c657200000000000000600082015250565b6000614e4f6019836133e5565b9150614e5a82614e19565b602082019050919050565b60006020820190508181036000830152614e7e81614e42565b9050919050565b7f4552433732313a207472616e7366657220746f206e6f6e20455243373231526560008201527f63656976657220696d706c656d656e7465720000000000000000000000000000602082015250565b6000614ee16032836133e5565b9150614eec82614e85565b604082019050919050565b60006020820190508181036000830152614f1081614ed4565b9050919050565b7f45524337323155524953746f726167653a2055524920717565727920666f722060008201527f6e6f6e6578697374656e7420746f6b656e000000000000000000000000000000602082015250565b6000614f736031836133e5565b9150614f7e82614f17565b604082019050919050565b60006020820190508181036000830152614fa281614f66565b9050919050565b6000614fb582856147eb565b9150614fc182846147eb565b91508190509392505050565b600081519050919050565b600082825260208201905092915050565b6000614ff482614fcd565b614ffe8185614fd8565b935061500e8185602086016133f6565b61501781613429565b840191505092915050565b6000608082019050615037600083018761352a565b615044602083018661352a565b61505160408301856135c0565b81810360608301526150638184614fe9565b905095945050505050565b60008151905061507d8161334b565b92915050565b60006020828403121561509957615098613315565b5b60006150a78482850161506e565b91505092915050565b7f4552433732314d657461646174613a2055524920717565727920666f72206e6f60008201527f6e6578697374656e7420746f6b656e0000000000000000000000000000000000602082015250565b600061510c602f836133e5565b9150615117826150b0565b604082019050919050565b6000602082019050818103600083015261513b816150ff565b9050919050565b7f4552433732313a206d696e7420746f20746865207a65726f2061646472657373600082015250565b60006151786020836133e5565b915061518382615142565b602082019050919050565b600060208201905081810360008301526151a78161516b565b9050919050565b7f4552433732313a20746f6b656e20616c7265616479206d696e74656400000000600082015250565b60006151e4601c836133e5565b91506151ef826151ae565b602082019050919050565b60006020820190508181036000830152615213816151d7565b9050919050565b7f4e487b7100000000000000000000000000000000000000000000000000000000600052603160045260246000fdfea2646970667358221220bde6fceafb01685fd55f975c5ede6b2bd88535674de47d9e5dec23889f8e055a64736f6c634300080b0033",
  "immutableReferences": {},
  "source": "// SPDX-License-Identifier: MIT\r\npragma solidity ^0.8.11;\r\n\r\nimport \"../node_modules/@openzeppelin/contracts/token/ERC721/ERC721.sol\";\r\nimport \"../node_modules/@openzeppelin/contracts/token/ERC721/extensions/ERC721Enumerable.sol\";\r\nimport \"../node_modules/@openzeppelin/contracts/token/ERC721/extensions/ERC721URIStorage.sol\";\r\nimport \"../node_modules/@openzeppelin/contracts/access/Ownable.sol\";\r\nimport \"../node_modules/@openzeppelin/contracts/utils/Counters.sol\";\r\nimport \"../node_modules/@openzeppelin/contracts/utils/math/SafeMath.sol\";\r\nimport \"../node_modules/@openzeppelin/contracts/utils/Strings.sol\";\r\n\r\n// trebam da napravim funkcije za upgradeovanje i gradjenje, ne treba mi provera argumenata jer funkciju moze da pozove samo owner\r\n// dok api koji poziva ovu funkciju moze da pozove samo osoba koja poseduje nft datog\r\n\r\ncontract CityContract is ERC721, ERC721Enumerable, ERC721URIStorage, Ownable {\r\n    using Counters for Counters.Counter;\r\n    using SafeMath for uint256;\r\n\r\n    Counters.Counter private _tokenIdCounter; // counter representing the latest tokenId\r\n\r\n    constructor() ERC721(\"CityBuilders\", \"CTB\") {\r\n        initStringToType();\r\n    }\r\n\r\n    // ________________________________________________________________________\r\n    enum BuildingTypes {\r\n        Factory,\r\n        Office,\r\n        Restaurant,\r\n        Parking,\r\n        Building,\r\n        House,\r\n        Store,\r\n        SuperMarket,\r\n        Park,\r\n        Gym\r\n    }\r\n\r\n    mapping(string => BuildingTypes) stringToType;\r\n    uint numOfBuildingTypes = 10;\r\n    function initStringToType() private {\r\n        stringToType[\"factory\"] = BuildingTypes.Factory;\r\n        stringToType[\"office\"] = BuildingTypes.Office;\r\n        stringToType[\"restaurant\"] = BuildingTypes.Restaurant;\r\n        stringToType[\"parking\"] = BuildingTypes.Parking;\r\n        stringToType[\"building\"] = BuildingTypes.Building;\r\n        stringToType[\"house\"] = BuildingTypes.House;\r\n        stringToType[\"store\"] = BuildingTypes.Store;\r\n        stringToType[\"superMarket\"] = BuildingTypes.SuperMarket;\r\n        stringToType[\"park\"] = BuildingTypes.Park;\r\n        stringToType[\"gym\"] = BuildingTypes.Gym;\r\n    }\r\n    \r\n    struct Building {\r\n        BuildingTypes buildingType;\r\n        uint32 startx;\r\n        uint32 starty;\r\n        uint32 endx;\r\n        uint32 endy;\r\n        uint32 level;\r\n    } // occupies 1 block of 256 bytes\r\n\r\n    struct City {\r\n        mapping(uint => Building) buildingList;\r\n        uint64 numOfBuildings;\r\n        uint64 money;\r\n        uint64 income;\r\n        address owner;\r\n    } // occupies ( 2 + buildingList.size ) blocks of 256 bytes in total\r\n    // ________________________________________________________________________\r\n\r\n    uint mintingPrice = 0.1 ether; // cost of minting a single City NFT\r\n    bool saleIsActive = false; // if it is possible to mint more NFTs the state is true\r\n    uint maxMintTokens = 10; // max num of tokens to mint per address\r\n    uint MAX_CITIES = 10000; // max num of cities to be minted\r\n\r\n    mapping(uint => City) cities; // map (array) containing all the data about the City NFTs\r\n    uint64 startingMoney = 100000; // the amount of in-game money everyone has right after minting\r\n\r\n    function _baseURI() internal pure override returns (string memory) {\r\n        return \"http://localhost:3000/cities\"; // this is just temporary\r\n    }\r\n\r\n    // ________________________________________________________________________\r\n    // functions for creating the City NFTs:\r\n    /**\r\n     * @dev Function used for minting new City NFTs\r\n     * @param numOfTokens number of tokens that will be minted\r\n     */\r\n    function safeMint(uint numOfTokens) external payable {\r\n        require(saleIsActive, \"Sale must be active to mint a City NFT\");\r\n        require(numOfTokens <= maxMintTokens, \"Can only mint 10 tokens at a time\");\r\n        require(totalSupply().add(numOfTokens) <= MAX_CITIES, \"Purchase would exceed max number of City NFTs\");\r\n        require(mintingPrice.mul(numOfTokens) <= msg.value, \"Ether value sent is not correct\");\r\n\r\n        uint256 tokenId;\r\n        for(uint i = 0; i < numOfTokens; i++) {\r\n            tokenId = _tokenIdCounter.current();\r\n            _tokenIdCounter.increment();\r\n\r\n            _safeMint(msg.sender, tokenId);\r\n            _setTokenURI(tokenId, Strings.toString(tokenId)); // sets the tokenUri to \"_baseURI/tokenId\"\r\n        }\r\n    }\r\n\r\n    /**\r\n     * @dev Function used for minting new City NFTs\r\n     * @param tokenId index of the token being initialized\r\n     * @param numOfBuildings number of buildings in the city\r\n     * @param startx arrays of coordinates\r\n     * @param starty ...\r\n     * @param endx ...\r\n     * @param endy ...\r\n     * @param buildingType array of strings representing the buildingTypes\r\n     * @param income the calculated income for the city\r\n     */\r\n    function initializeCity(\r\n        address owner,\r\n        uint tokenId,\r\n        uint numOfBuildings,\r\n        uint[] memory startx,\r\n        uint[] memory starty,\r\n        uint[] memory endx,\r\n        uint[] memory endy,\r\n        string[] memory buildingType,\r\n        uint income\r\n    ) external onlyOwner { // onlyOwner should maybe be replaced with ownsNFT() modifier\r\n        require(cities[tokenId].owner == address(0), \"City is already initialized\");\r\n        for(uint i = 0; i < numOfBuildings; i++) {\r\n            if(uint(stringToType[buildingType[i]]) > numOfBuildingTypes) {\r\n                revert(\"Invalid building type\");\r\n            }\r\n            if(uint(stringToType[buildingType[i]]) == 3) {\r\n                revert(\"You can't build parkings!\");\r\n            } // ovo ce trebati da se promeni, ne znam sto je jos uvek tu\r\n        }\r\n\r\n        City storage city = cities[tokenId];\r\n        for(uint i = 0; i < numOfBuildings; i++) {\r\n            city.buildingList[i].startx = uint32(startx[i]);\r\n            city.buildingList[i].starty = uint32(starty[i]);\r\n            city.buildingList[i].endx = uint32(endx[i]);\r\n            city.buildingList[i].endy = uint32(endy[i]);\r\n            city.buildingList[i].buildingType = stringToType[buildingType[i]];\r\n        }\r\n        city.income = uint64(income);\r\n        city.money = startingMoney;\r\n        city.owner = owner;\r\n    }\r\n    // ________________________________________________________________________\r\n    // functions that change the cities:\r\n    function upgradeBuilding(uint tokenId, uint buildingIndex) external onlyOwner {\r\n        cities[tokenId].buildingList[buildingIndex].level += 1;\r\n    }\r\n\r\n    function addBuilding(\r\n        uint tokenId,\r\n        uint _startx,\r\n        uint _starty,\r\n        uint _endx,\r\n        uint _endy,\r\n        string calldata _buildingType\r\n    ) external onlyOwner {\r\n        City storage city = cities[tokenId];\r\n        city.buildingList[city.numOfBuildings] = Building({\r\n            buildingType: stringToType[_buildingType],\r\n            startx: uint32(_startx),\r\n            starty: uint32(_starty),\r\n            endx: uint32(_endx),\r\n            endy: uint32(_endy),\r\n            level: 0\r\n        });\r\n        city.numOfBuildings += 1;\r\n    }\r\n\r\n    // ________________________________________________________________________\r\n    // These are temporary functions used for debbuging:\r\n    function getOwners() view external returns(address[] memory) {\r\n        uint n = _tokenIdCounter.current();\r\n        address[] memory a = new address[](n);\r\n        for(uint i = 0; i < n; i++) {\r\n            a[i] = cities[i].owner;\r\n        }\r\n        return a;\r\n    }\r\n\r\n    event Number (uint number);\r\n    function emitEvent(uint number) external {\r\n        emit Number(number);\r\n    }\r\n\r\n    function cityIncome(uint tokenId) view external returns(uint) {\r\n        require(tokenId <= _tokenIdCounter.current(), \"Requested tokenId out of bounds\");\r\n        return cities[tokenId].income;\r\n    }\r\n\r\n    function tokenSupply() external view returns(uint) {\r\n        return _tokenIdCounter.current();\r\n    }\r\n    // ________________________________________________________________________\r\n\r\n    // The following modifier is used to check if a user owns the NFT which he wants to change.\r\n    modifier ownsNFT(uint tokenId) {\r\n        require(cities[tokenId].owner == msg.sender, 'The caller of the function does not own the nft');\r\n        _;\r\n    }\r\n\r\n    // The following function is used to withdraw all funds from the contract to the owner address\r\n    function withdraw() public onlyOwner {\r\n        uint balance = address(this).balance;\r\n        payable(msg.sender).transfer(balance);\r\n    }\r\n\r\n    // THe following  function is called to start the sale and to end it if all items are sold out or if a problem occurs.\r\n    function flipSaleState() public onlyOwner {\r\n        saleIsActive = !saleIsActive;\r\n    }\r\n\r\n\r\n    // The following functions are overrides required by Solidity.\r\n    function _beforeTokenTransfer(address from, address to, uint256 tokenId) internal override(ERC721, ERC721Enumerable) {\r\n        super._beforeTokenTransfer(from, to, tokenId);\r\n    }\r\n\r\n    function _burn(uint256 tokenId) internal override(ERC721, ERC721URIStorage) {\r\n        super._burn(tokenId);\r\n    }\r\n\r\n    function tokenURI(uint256 tokenId) public view override(ERC721, ERC721URIStorage) returns (string memory) {\r\n        return super.tokenURI(tokenId);\r\n    }\r\n\r\n    function supportsInterface(bytes4 interfaceId) public view override(ERC721, ERC721Enumerable) returns (bool){\r\n        return super.supportsInterface(interfaceId);\r\n    }\r\n}",
  "sourcePath": "C:\\Users\\Dario Vajda\\OneDrive\\Desktop\\nft project\\nft\\smart_contracts\\contracts\\CityContract.sol",
  "compiler": {
    "name": "solc",
    "version": "0.8.11+commit.d7f03943.Emscripten.clang"
  },
  "schemaVersion": "3.4.4",
  "updatedAt": "2022-01-22T22:27:05.136Z",
  "networkType": "ethereum",
  "devdoc": {
    "kind": "dev",
    "methods": {
      "approve(address,uint256)": {
        "details": "See {IERC721-approve}."
      },
      "balanceOf(address)": {
        "details": "See {IERC721-balanceOf}."
      },
      "getApproved(uint256)": {
        "details": "See {IERC721-getApproved}."
      },
      "initializeCity(address,uint256,uint256,uint256[],uint256[],uint256[],uint256[],string[],uint256)": {
        "details": "Function used for minting new City NFTs",
        "params": {
          "buildingType": "array of strings representing the buildingTypes",
          "endx": "...",
          "endy": "...",
          "income": "the calculated income for the city",
          "numOfBuildings": "number of buildings in the city",
          "startx": "arrays of coordinates",
          "starty": "...",
          "tokenId": "index of the token being initialized"
        }
      },
      "isApprovedForAll(address,address)": {
        "details": "See {IERC721-isApprovedForAll}."
      },
      "name()": {
        "details": "See {IERC721Metadata-name}."
      },
      "owner()": {
        "details": "Returns the address of the current owner."
      },
      "ownerOf(uint256)": {
        "details": "See {IERC721-ownerOf}."
      },
      "renounceOwnership()": {
        "details": "Leaves the contract without owner. It will not be possible to call `onlyOwner` functions anymore. Can only be called by the current owner. NOTE: Renouncing ownership will leave the contract without an owner, thereby removing any functionality that is only available to the owner."
      },
      "safeMint(uint256)": {
        "details": "Function used for minting new City NFTs",
        "params": {
          "numOfTokens": "number of tokens that will be minted"
        }
      },
      "safeTransferFrom(address,address,uint256)": {
        "details": "See {IERC721-safeTransferFrom}."
      },
      "safeTransferFrom(address,address,uint256,bytes)": {
        "details": "See {IERC721-safeTransferFrom}."
      },
      "setApprovalForAll(address,bool)": {
        "details": "See {IERC721-setApprovalForAll}."
      },
      "symbol()": {
        "details": "See {IERC721Metadata-symbol}."
      },
      "tokenByIndex(uint256)": {
        "details": "See {IERC721Enumerable-tokenByIndex}."
      },
      "tokenOfOwnerByIndex(address,uint256)": {
        "details": "See {IERC721Enumerable-tokenOfOwnerByIndex}."
      },
      "totalSupply()": {
        "details": "See {IERC721Enumerable-totalSupply}."
      },
      "transferFrom(address,address,uint256)": {
        "details": "See {IERC721-transferFrom}."
      },
      "transferOwnership(address)": {
        "details": "Transfers ownership of the contract to a new account (`newOwner`). Can only be called by the current owner."
      }
    },
    "version": 1
  },
  "userdoc": {
    "kind": "user",
    "methods": {},
    "version": 1
  }
}