{
  "contractName": "CityContract",
  "abi": [
    {
      "inputs": [
        {
          "internalType": "address",
          "name": "_weth",
          "type": "address"
        },
        {
          "internalType": "address",
          "name": "_maticPrice",
          "type": "address"
        },
        {
          "internalType": "address",
          "name": "_ethPrice",
          "type": "address"
        }
      ],
      "stateMutability": "nonpayable",
      "type": "constructor"
    },
    {
      "anonymous": false,
      "inputs": [
        {
          "indexed": true,
          "internalType": "address",
          "name": "owner",
          "type": "address"
        },
        {
          "indexed": true,
          "internalType": "address",
          "name": "approved",
          "type": "address"
        },
        {
          "indexed": true,
          "internalType": "uint256",
          "name": "tokenId",
          "type": "uint256"
        }
      ],
      "name": "Approval",
      "type": "event"
    },
    {
      "anonymous": false,
      "inputs": [
        {
          "indexed": true,
          "internalType": "address",
          "name": "owner",
          "type": "address"
        },
        {
          "indexed": true,
          "internalType": "address",
          "name": "operator",
          "type": "address"
        },
        {
          "indexed": false,
          "internalType": "bool",
          "name": "approved",
          "type": "bool"
        }
      ],
      "name": "ApprovalForAll",
      "type": "event"
    },
    {
      "anonymous": false,
      "inputs": [
        {
          "indexed": true,
          "internalType": "address",
          "name": "previousOwner",
          "type": "address"
        },
        {
          "indexed": true,
          "internalType": "address",
          "name": "newOwner",
          "type": "address"
        }
      ],
      "name": "OwnershipTransferred",
      "type": "event"
    },
    {
      "anonymous": false,
      "inputs": [
        {
          "indexed": true,
          "internalType": "address",
          "name": "from",
          "type": "address"
        },
        {
          "indexed": true,
          "internalType": "address",
          "name": "to",
          "type": "address"
        },
        {
          "indexed": true,
          "internalType": "uint256",
          "name": "tokenId",
          "type": "uint256"
        }
      ],
      "name": "Transfer",
      "type": "event"
    },
    {
      "inputs": [
        {
          "internalType": "address",
          "name": "to",
          "type": "address"
        },
        {
          "internalType": "uint256",
          "name": "tokenId",
          "type": "uint256"
        }
      ],
      "name": "approve",
      "outputs": [],
      "stateMutability": "nonpayable",
      "type": "function"
    },
    {
      "inputs": [
        {
          "internalType": "address",
          "name": "owner",
          "type": "address"
        }
      ],
      "name": "balanceOf",
      "outputs": [
        {
          "internalType": "uint256",
          "name": "",
          "type": "uint256"
        }
      ],
      "stateMutability": "view",
      "type": "function",
      "constant": true
    },
    {
      "inputs": [
        {
          "internalType": "uint256",
          "name": "tokenId",
          "type": "uint256"
        }
      ],
      "name": "getApproved",
      "outputs": [
        {
          "internalType": "address",
          "name": "",
          "type": "address"
        }
      ],
      "stateMutability": "view",
      "type": "function",
      "constant": true
    },
    {
      "inputs": [
        {
          "internalType": "address",
          "name": "owner",
          "type": "address"
        },
        {
          "internalType": "address",
          "name": "operator",
          "type": "address"
        }
      ],
      "name": "isApprovedForAll",
      "outputs": [
        {
          "internalType": "bool",
          "name": "",
          "type": "bool"
        }
      ],
      "stateMutability": "view",
      "type": "function",
      "constant": true
    },
    {
      "inputs": [],
      "name": "name",
      "outputs": [
        {
          "internalType": "string",
          "name": "",
          "type": "string"
        }
      ],
      "stateMutability": "view",
      "type": "function",
      "constant": true
    },
    {
      "inputs": [],
      "name": "owner",
      "outputs": [
        {
          "internalType": "address",
          "name": "",
          "type": "address"
        }
      ],
      "stateMutability": "view",
      "type": "function",
      "constant": true
    },
    {
      "inputs": [
        {
          "internalType": "uint256",
          "name": "tokenId",
          "type": "uint256"
        }
      ],
      "name": "ownerOf",
      "outputs": [
        {
          "internalType": "address",
          "name": "",
          "type": "address"
        }
      ],
      "stateMutability": "view",
      "type": "function",
      "constant": true
    },
    {
      "inputs": [],
      "name": "renounceOwnership",
      "outputs": [],
      "stateMutability": "nonpayable",
      "type": "function"
    },
    {
      "inputs": [
        {
          "internalType": "address",
          "name": "from",
          "type": "address"
        },
        {
          "internalType": "address",
          "name": "to",
          "type": "address"
        },
        {
          "internalType": "uint256",
          "name": "tokenId",
          "type": "uint256"
        }
      ],
      "name": "safeTransferFrom",
      "outputs": [],
      "stateMutability": "nonpayable",
      "type": "function"
    },
    {
      "inputs": [
        {
          "internalType": "address",
          "name": "from",
          "type": "address"
        },
        {
          "internalType": "address",
          "name": "to",
          "type": "address"
        },
        {
          "internalType": "uint256",
          "name": "tokenId",
          "type": "uint256"
        },
        {
          "internalType": "bytes",
          "name": "_data",
          "type": "bytes"
        }
      ],
      "name": "safeTransferFrom",
      "outputs": [],
      "stateMutability": "nonpayable",
      "type": "function"
    },
    {
      "inputs": [
        {
          "internalType": "address",
          "name": "operator",
          "type": "address"
        },
        {
          "internalType": "bool",
          "name": "approved",
          "type": "bool"
        }
      ],
      "name": "setApprovalForAll",
      "outputs": [],
      "stateMutability": "nonpayable",
      "type": "function"
    },
    {
      "inputs": [],
      "name": "symbol",
      "outputs": [
        {
          "internalType": "string",
          "name": "",
          "type": "string"
        }
      ],
      "stateMutability": "view",
      "type": "function",
      "constant": true
    },
    {
      "inputs": [
        {
          "internalType": "uint256",
          "name": "index",
          "type": "uint256"
        }
      ],
      "name": "tokenByIndex",
      "outputs": [
        {
          "internalType": "uint256",
          "name": "",
          "type": "uint256"
        }
      ],
      "stateMutability": "view",
      "type": "function",
      "constant": true
    },
    {
      "inputs": [
        {
          "internalType": "address",
          "name": "owner",
          "type": "address"
        },
        {
          "internalType": "uint256",
          "name": "index",
          "type": "uint256"
        }
      ],
      "name": "tokenOfOwnerByIndex",
      "outputs": [
        {
          "internalType": "uint256",
          "name": "",
          "type": "uint256"
        }
      ],
      "stateMutability": "view",
      "type": "function",
      "constant": true
    },
    {
      "inputs": [],
      "name": "totalSupply",
      "outputs": [
        {
          "internalType": "uint256",
          "name": "",
          "type": "uint256"
        }
      ],
      "stateMutability": "view",
      "type": "function",
      "constant": true
    },
    {
      "inputs": [
        {
          "internalType": "address",
          "name": "from",
          "type": "address"
        },
        {
          "internalType": "address",
          "name": "to",
          "type": "address"
        },
        {
          "internalType": "uint256",
          "name": "tokenId",
          "type": "uint256"
        }
      ],
      "name": "transferFrom",
      "outputs": [],
      "stateMutability": "nonpayable",
      "type": "function"
    },
    {
      "inputs": [
        {
          "internalType": "address",
          "name": "newOwner",
          "type": "address"
        }
      ],
      "name": "transferOwnership",
      "outputs": [],
      "stateMutability": "nonpayable",
      "type": "function"
    },
    {
      "inputs": [],
      "name": "weth",
      "outputs": [
        {
          "internalType": "contract IERC20",
          "name": "",
          "type": "address"
        }
      ],
      "stateMutability": "view",
      "type": "function",
      "constant": true
    },
    {
      "inputs": [
        {
          "internalType": "address",
          "name": "_gameplay",
          "type": "address"
        }
      ],
      "name": "initGameplayContract",
      "outputs": [],
      "stateMutability": "nonpayable",
      "type": "function"
    },
    {
      "inputs": [
        {
          "internalType": "uint256",
          "name": "newPrice",
          "type": "uint256"
        }
      ],
      "name": "changeMintingPrice",
      "outputs": [],
      "stateMutability": "nonpayable",
      "type": "function"
    },
    {
      "inputs": [
        {
          "internalType": "uint256",
          "name": "numOfTokens",
          "type": "uint256"
        }
      ],
      "name": "maticMint",
      "outputs": [],
      "stateMutability": "payable",
      "type": "function",
      "payable": true
    },
    {
      "inputs": [
        {
          "internalType": "uint256",
          "name": "numOfTokens",
          "type": "uint256"
        }
      ],
      "name": "wethMint",
      "outputs": [],
      "stateMutability": "nonpayable",
      "type": "function"
    },
    {
      "inputs": [],
      "name": "currId",
      "outputs": [
        {
          "internalType": "uint256",
          "name": "",
          "type": "uint256"
        }
      ],
      "stateMutability": "view",
      "type": "function",
      "constant": true
    },
    {
      "inputs": [],
      "name": "getSaleState",
      "outputs": [
        {
          "internalType": "bool",
          "name": "",
          "type": "bool"
        }
      ],
      "stateMutability": "view",
      "type": "function",
      "constant": true
    },
    {
      "inputs": [],
      "name": "withdraw",
      "outputs": [],
      "stateMutability": "nonpayable",
      "type": "function"
    },
    {
      "inputs": [],
      "name": "flipSaleState",
      "outputs": [],
      "stateMutability": "nonpayable",
      "type": "function"
    },
    {
      "inputs": [
        {
          "internalType": "uint256",
          "name": "tokenId",
          "type": "uint256"
        }
      ],
      "name": "tokenURI",
      "outputs": [
        {
          "internalType": "string",
          "name": "",
          "type": "string"
        }
      ],
      "stateMutability": "view",
      "type": "function",
      "constant": true
    },
    {
      "inputs": [
        {
          "internalType": "bytes4",
          "name": "interfaceId",
          "type": "bytes4"
        }
      ],
      "name": "supportsInterface",
      "outputs": [
        {
          "internalType": "bool",
          "name": "",
          "type": "bool"
        }
      ],
      "stateMutability": "view",
      "type": "function",
      "constant": true
    }
  ],
  "bytecode": "0x60806040526000601060146101000a81548160ff02191690831515021790555067016345785d8a00006011556000601260006101000a81548160ff021916908315150217905550600a6013556127106014553480156200005e57600080fd5b5060405162004ddb38038062004ddb8339818101604052810190620000849190620003fc565b80826040518060400160405280600c81526020017f436974794275696c6465727300000000000000000000000000000000000000008152506040518060400160405280600381526020017f435442000000000000000000000000000000000000000000000000000000000081525081600090805190602001906200010a929190620002e2565b50806001908051906020019062000123929190620002e2565b505050620001466200013a6200021460201b60201c565b6200021c60201b60201c565b81600d60006101000a81548173ffffffffffffffffffffffffffffffffffffffff021916908373ffffffffffffffffffffffffffffffffffffffff16021790555080600c60006101000a81548173ffffffffffffffffffffffffffffffffffffffff021916908373ffffffffffffffffffffffffffffffffffffffff160217905550505082600f60006101000a81548173ffffffffffffffffffffffffffffffffffffffff021916908373ffffffffffffffffffffffffffffffffffffffff160217905550505050620004bd565b600033905090565b6000600b60009054906101000a900473ffffffffffffffffffffffffffffffffffffffff16905081600b60006101000a81548173ffffffffffffffffffffffffffffffffffffffff021916908373ffffffffffffffffffffffffffffffffffffffff1602179055508173ffffffffffffffffffffffffffffffffffffffff168173ffffffffffffffffffffffffffffffffffffffff167f8be0079c531659141344cd1fd0a4f28419497f9722a3daafe3b4186f6b6457e060405160405180910390a35050565b828054620002f09062000487565b90600052602060002090601f01602090048101928262000314576000855562000360565b82601f106200032f57805160ff191683800117855562000360565b8280016001018555821562000360579182015b828111156200035f57825182559160200191906001019062000342565b5b5090506200036f919062000373565b5090565b5b808211156200038e57600081600090555060010162000374565b5090565b600080fd5b600073ffffffffffffffffffffffffffffffffffffffff82169050919050565b6000620003c48262000397565b9050919050565b620003d681620003b7565b8114620003e257600080fd5b50565b600081519050620003f681620003cb565b92915050565b60008060006060848603121562000418576200041762000392565b5b60006200042886828701620003e5565b93505060206200043b86828701620003e5565b92505060406200044e86828701620003e5565b9150509250925092565b7f4e487b7100000000000000000000000000000000000000000000000000000000600052602260045260246000fd5b60006002820490506001821680620004a057607f821691505b60208210811415620004b757620004b662000458565b5b50919050565b61490e80620004cd6000396000f3fe6080604052600436106101b75760003560e01c806342842e0e116100ec578063a22cb4651161008a578063c87b56dd11610064578063c87b56dd146105d7578063ce5bc7a614610614578063e985e9c51461063d578063f2fde38b1461067a576101b7565b8063a22cb46514610569578063afbcc38414610592578063b88d4fde146105ae576101b7565b806370a08231116100c657806370a08231146104bf578063715018a6146104fc5780638da5cb5b1461051357806395d89b411461053e576101b7565b806342842e0e1461041c5780634f6ccce7146104455780636352211e14610482576101b7565b80631fd27cd1116101595780632f745c59116101335780632f745c591461038657806334918dfd146103c35780633ccfd60b146103da5780633fc8cef3146103f1576101b7565b80631fd27cd11461030957806323b872dd1461033257806325bdb2a81461035b576101b7565b806308d1e1671161019557806308d1e16714610261578063095ea7b31461028a57806315efc9c8146102b357806318160ddd146102de576101b7565b806301ffc9a7146101bc57806306fdde03146101f9578063081812fc14610224575b600080fd5b3480156101c857600080fd5b506101e360048036038101906101de9190612fba565b6106a3565b6040516101f09190613002565b60405180910390f35b34801561020557600080fd5b5061020e6106b5565b60405161021b91906130b6565b60405180910390f35b34801561023057600080fd5b5061024b6004803603810190610246919061310e565b610747565b604051610258919061317c565b60405180910390f35b34801561026d57600080fd5b506102886004803603810190610283919061310e565b6107cc565b005b34801561029657600080fd5b506102b160048036038101906102ac91906131c3565b61097a565b005b3480156102bf57600080fd5b506102c8610a92565b6040516102d59190613212565b60405180910390f35b3480156102ea57600080fd5b506102f3610aa3565b6040516103009190613212565b60405180910390f35b34801561031557600080fd5b50610330600480360381019061032b919061310e565b610ab0565b005b34801561033e57600080fd5b506103596004803603810190610354919061322d565b610b36565b005b34801561036757600080fd5b50610370610b96565b60405161037d9190613002565b60405180910390f35b34801561039257600080fd5b506103ad60048036038101906103a891906131c3565b610bad565b6040516103ba9190613212565b60405180910390f35b3480156103cf57600080fd5b506103d8610c52565b005b3480156103e657600080fd5b506103ef610cfa565b005b3480156103fd57600080fd5b50610406610f07565b60405161041391906132df565b60405180910390f35b34801561042857600080fd5b50610443600480360381019061043e919061322d565b610f2d565b005b34801561045157600080fd5b5061046c6004803603810190610467919061310e565b610f4d565b6040516104799190613212565b60405180910390f35b34801561048e57600080fd5b506104a960048036038101906104a4919061310e565b610fbe565b6040516104b6919061317c565b60405180910390f35b3480156104cb57600080fd5b506104e660048036038101906104e191906132fa565b611070565b6040516104f39190613212565b60405180910390f35b34801561050857600080fd5b50610511611128565b005b34801561051f57600080fd5b506105286111b0565b604051610535919061317c565b60405180910390f35b34801561054a57600080fd5b506105536111da565b60405161056091906130b6565b60405180910390f35b34801561057557600080fd5b50610590600480360381019061058b9190613353565b61126c565b005b6105ac60048036038101906105a7919061310e565b611282565b005b3480156105ba57600080fd5b506105d560048036038101906105d091906134c8565b6113cd565b005b3480156105e357600080fd5b506105fe60048036038101906105f9919061310e565b61142f565b60405161060b91906130b6565b60405180910390f35b34801561062057600080fd5b5061063b600480360381019061063691906132fa565b611441565b005b34801561064957600080fd5b50610664600480360381019061065f919061354b565b6114f6565b6040516106719190613002565b60405180910390f35b34801561068657600080fd5b506106a1600480360381019061069c91906132fa565b61158a565b005b60006106ae82611682565b9050919050565b6060600080546106c4906135ba565b80601f01602080910402602001604051908101604052809291908181526020018280546106f0906135ba565b801561073d5780601f106107125761010080835404028352916020019161073d565b820191906000526020600020905b81548152906001019060200180831161072057829003601f168201915b5050505050905090565b6000610752826116fc565b610791576040517f08c379a00000000000000000000000000000000000000000000000000000000081526004016107889061365e565b60405180910390fd5b6004600083815260200190815260200160002060009054906101000a900473ffffffffffffffffffffffffffffffffffffffff169050919050565b601260009054906101000a900460ff1661081b576040517f08c379a0000000000000000000000000000000000000000000000000000000008152600401610812906136f0565b60405180910390fd5b601354811115610860576040517f08c379a000000000000000000000000000000000000000000000000000000000815260040161085790613782565b60405180910390fd5b60145461087d8261086f610aa3565b61176890919063ffffffff16565b11156108be576040517f08c379a00000000000000000000000000000000000000000000000000000000081526004016108b590613814565b60405180910390fd5b600f60009054906101000a900473ffffffffffffffffffffffffffffffffffffffff1673ffffffffffffffffffffffffffffffffffffffff166323b872dd33308460115461090c9190613863565b6040518463ffffffff1660e01b815260040161092a939291906138bd565b6020604051808303816000875af1158015610949573d6000803e3d6000fd5b505050506040513d601f19601f8201168201806040525081019061096d9190613909565b506109778161177e565b50565b600061098582610fbe565b90508073ffffffffffffffffffffffffffffffffffffffff168373ffffffffffffffffffffffffffffffffffffffff1614156109f6576040517f08c379a00000000000000000000000000000000000000000000000000000000081526004016109ed906139a8565b60405180910390fd5b8073ffffffffffffffffffffffffffffffffffffffff16610a15611896565b73ffffffffffffffffffffffffffffffffffffffff161480610a445750610a4381610a3e611896565b6114f6565b5b610a83576040517f08c379a0000000000000000000000000000000000000000000000000000000008152600401610a7a90613a3a565b60405180910390fd5b610a8d838361189e565b505050565b6000610a9e600e611957565b905090565b6000600880549050905090565b610ab8611896565b73ffffffffffffffffffffffffffffffffffffffff16610ad66111b0565b73ffffffffffffffffffffffffffffffffffffffff1614610b2c576040517f08c379a0000000000000000000000000000000000000000000000000000000008152600401610b2390613aa6565b60405180910390fd5b8060118190555050565b610b47610b41611896565b82611965565b610b86576040517f08c379a0000000000000000000000000000000000000000000000000000000008152600401610b7d90613b38565b60405180910390fd5b610b91838383611a43565b505050565b6000601260009054906101000a900460ff16905090565b6000610bb883611070565b8210610bf9576040517f08c379a0000000000000000000000000000000000000000000000000000000008152600401610bf090613bca565b60405180910390fd5b600660008473ffffffffffffffffffffffffffffffffffffffff1673ffffffffffffffffffffffffffffffffffffffff168152602001908152602001600020600083815260200190815260200160002054905092915050565b610c5a611896565b73ffffffffffffffffffffffffffffffffffffffff16610c786111b0565b73ffffffffffffffffffffffffffffffffffffffff1614610cce576040517f08c379a0000000000000000000000000000000000000000000000000000000008152600401610cc590613aa6565b60405180910390fd5b601260009054906101000a900460ff1615601260006101000a81548160ff021916908315150217905550565b610d02611896565b73ffffffffffffffffffffffffffffffffffffffff16610d206111b0565b73ffffffffffffffffffffffffffffffffffffffff1614610d76576040517f08c379a0000000000000000000000000000000000000000000000000000000008152600401610d6d90613aa6565b60405180910390fd5b60004790503373ffffffffffffffffffffffffffffffffffffffff166108fc829081150290604051600060405180830381858888f19350505050158015610dc1573d6000803e3d6000fd5b506000600f60009054906101000a900473ffffffffffffffffffffffffffffffffffffffff1673ffffffffffffffffffffffffffffffffffffffff166370a08231306040518263ffffffff1660e01b8152600401610e1f919061317c565b602060405180830381865afa158015610e3c573d6000803e3d6000fd5b505050506040513d601f19601f82011682018060405250810190610e609190613bff565b9050600f60009054906101000a900473ffffffffffffffffffffffffffffffffffffffff1673ffffffffffffffffffffffffffffffffffffffff1663a9059cbb33836040518363ffffffff1660e01b8152600401610ebf929190613c2c565b6020604051808303816000875af1158015610ede573d6000803e3d6000fd5b505050506040513d601f19601f82011682018060405250810190610f029190613909565b505050565b600f60009054906101000a900473ffffffffffffffffffffffffffffffffffffffff1681565b610f48838383604051806020016040528060008152506113cd565b505050565b6000610f57610aa3565b8210610f98576040517f08c379a0000000000000000000000000000000000000000000000000000000008152600401610f8f90613cc7565b60405180910390fd5b60088281548110610fac57610fab613ce7565b5b90600052602060002001549050919050565b6000806002600084815260200190815260200160002060009054906101000a900473ffffffffffffffffffffffffffffffffffffffff169050600073ffffffffffffffffffffffffffffffffffffffff168173ffffffffffffffffffffffffffffffffffffffff161415611067576040517f08c379a000000000000000000000000000000000000000000000000000000000815260040161105e90613d88565b60405180910390fd5b80915050919050565b60008073ffffffffffffffffffffffffffffffffffffffff168273ffffffffffffffffffffffffffffffffffffffff1614156110e1576040517f08c379a00000000000000000000000000000000000000000000000000000000081526004016110d890613e1a565b60405180910390fd5b600360008373ffffffffffffffffffffffffffffffffffffffff1673ffffffffffffffffffffffffffffffffffffffff168152602001908152602001600020549050919050565b611130611896565b73ffffffffffffffffffffffffffffffffffffffff1661114e6111b0565b73ffffffffffffffffffffffffffffffffffffffff16146111a4576040517f08c379a000000000000000000000000000000000000000000000000000000000815260040161119b90613aa6565b60405180910390fd5b6111ae6000611c9f565b565b6000600b60009054906101000a900473ffffffffffffffffffffffffffffffffffffffff16905090565b6060600180546111e9906135ba565b80601f0160208091040260200160405190810160405280929190818152602001828054611215906135ba565b80156112625780601f1061123757610100808354040283529160200191611262565b820191906000526020600020905b81548152906001019060200180831161124557829003601f168201915b5050505050905090565b61127e611277611896565b8383611d65565b5050565b601260009054906101000a900460ff166112d1576040517f08c379a00000000000000000000000000000000000000000000000000000000081526004016112c8906136f0565b60405180910390fd5b601354811115611316576040517f08c379a000000000000000000000000000000000000000000000000000000000815260040161130d90613782565b60405180910390fd5b60145461133382611325610aa3565b61176890919063ffffffff16565b1115611374576040517f08c379a000000000000000000000000000000000000000000000000000000000815260040161136b90613814565b60405180910390fd5b34611380601154611ed2565b11156113c1576040517f08c379a00000000000000000000000000000000000000000000000000000000081526004016113b890613e86565b60405180910390fd5b6113ca8161177e565b50565b6113de6113d8611896565b83611965565b61141d576040517f08c379a000000000000000000000000000000000000000000000000000000000815260040161141490613b38565b60405180910390fd5b61142984848484611f00565b50505050565b606061143a82611f5c565b9050919050565b60001515601060149054906101000a900460ff16151514611497576040517f08c379a000000000000000000000000000000000000000000000000000000000815260040161148e90613ef2565b60405180910390fd5b80601060006101000a81548173ffffffffffffffffffffffffffffffffffffffff021916908373ffffffffffffffffffffffffffffffffffffffff1602179055506001601060146101000a81548160ff02191690831515021790555050565b6000600560008473ffffffffffffffffffffffffffffffffffffffff1673ffffffffffffffffffffffffffffffffffffffff16815260200190815260200160002060008373ffffffffffffffffffffffffffffffffffffffff1673ffffffffffffffffffffffffffffffffffffffff16815260200190815260200160002060009054906101000a900460ff16905092915050565b611592611896565b73ffffffffffffffffffffffffffffffffffffffff166115b06111b0565b73ffffffffffffffffffffffffffffffffffffffff1614611606576040517f08c379a00000000000000000000000000000000000000000000000000000000081526004016115fd90613aa6565b60405180910390fd5b600073ffffffffffffffffffffffffffffffffffffffff168173ffffffffffffffffffffffffffffffffffffffff161415611676576040517f08c379a000000000000000000000000000000000000000000000000000000000815260040161166d90613f84565b60405180910390fd5b61167f81611c9f565b50565b60007f780e9d63000000000000000000000000000000000000000000000000000000007bffffffffffffffffffffffffffffffffffffffffffffffffffffffff1916827bffffffffffffffffffffffffffffffffffffffffffffffffffffffff191614806116f557506116f4826120ae565b5b9050919050565b60008073ffffffffffffffffffffffffffffffffffffffff166002600084815260200190815260200160002060009054906101000a900473ffffffffffffffffffffffffffffffffffffffff1673ffffffffffffffffffffffffffffffffffffffff1614159050919050565b600081836117769190613fa4565b905092915050565b600080600090505b8281101561186257611798600e611957565b91506117a4600e612190565b601060009054906101000a900473ffffffffffffffffffffffffffffffffffffffff1673ffffffffffffffffffffffffffffffffffffffff1663b758eeaa83336040518363ffffffff1660e01b8152600401611801929190613ffa565b600060405180830381600087803b15801561181b57600080fd5b505af115801561182f573d6000803e3d6000fd5b5050505061183d33836121a6565b61184f8261184a846121c4565b612325565b808061185a90614023565b915050611786565b50601454611870600e611957565b1415611892576000601260006101000a81548160ff0219169083151502179055505b5050565b600033905090565b816004600083815260200190815260200160002060006101000a81548173ffffffffffffffffffffffffffffffffffffffff021916908373ffffffffffffffffffffffffffffffffffffffff160217905550808273ffffffffffffffffffffffffffffffffffffffff1661191183610fbe565b73ffffffffffffffffffffffffffffffffffffffff167f8c5be1e5ebec7d5bd14f71427d1e84f3dd0314c0f7b2291e5b200ac8c7c3b92560405160405180910390a45050565b600081600001549050919050565b6000611970826116fc565b6119af576040517f08c379a00000000000000000000000000000000000000000000000000000000081526004016119a6906140de565b60405180910390fd5b60006119ba83610fbe565b90508073ffffffffffffffffffffffffffffffffffffffff168473ffffffffffffffffffffffffffffffffffffffff161480611a2957508373ffffffffffffffffffffffffffffffffffffffff16611a1184610747565b73ffffffffffffffffffffffffffffffffffffffff16145b80611a3a5750611a3981856114f6565b5b91505092915050565b8273ffffffffffffffffffffffffffffffffffffffff16611a6382610fbe565b73ffffffffffffffffffffffffffffffffffffffff1614611ab9576040517f08c379a0000000000000000000000000000000000000000000000000000000008152600401611ab090614170565b60405180910390fd5b600073ffffffffffffffffffffffffffffffffffffffff168273ffffffffffffffffffffffffffffffffffffffff161415611b29576040517f08c379a0000000000000000000000000000000000000000000000000000000008152600401611b2090614202565b60405180910390fd5b611b34838383612399565b611b3f60008261189e565b6001600360008573ffffffffffffffffffffffffffffffffffffffff1673ffffffffffffffffffffffffffffffffffffffff1681526020019081526020016000206000828254611b8f9190614222565b925050819055506001600360008473ffffffffffffffffffffffffffffffffffffffff1673ffffffffffffffffffffffffffffffffffffffff1681526020019081526020016000206000828254611be69190613fa4565b92505081905550816002600083815260200190815260200160002060006101000a81548173ffffffffffffffffffffffffffffffffffffffff021916908373ffffffffffffffffffffffffffffffffffffffff160217905550808273ffffffffffffffffffffffffffffffffffffffff168473ffffffffffffffffffffffffffffffffffffffff167fddf252ad1be2c89b69c2b068fc378daa952ba7f163c4a11628f55a4df523b3ef60405160405180910390a4505050565b6000600b60009054906101000a900473ffffffffffffffffffffffffffffffffffffffff16905081600b60006101000a81548173ffffffffffffffffffffffffffffffffffffffff021916908373ffffffffffffffffffffffffffffffffffffffff1602179055508173ffffffffffffffffffffffffffffffffffffffff168173ffffffffffffffffffffffffffffffffffffffff167f8be0079c531659141344cd1fd0a4f28419497f9722a3daafe3b4186f6b6457e060405160405180910390a35050565b8173ffffffffffffffffffffffffffffffffffffffff168373ffffffffffffffffffffffffffffffffffffffff161415611dd4576040517f08c379a0000000000000000000000000000000000000000000000000000000008152600401611dcb906142a2565b60405180910390fd5b80600560008573ffffffffffffffffffffffffffffffffffffffff1673ffffffffffffffffffffffffffffffffffffffff16815260200190815260200160002060008473ffffffffffffffffffffffffffffffffffffffff1673ffffffffffffffffffffffffffffffffffffffff16815260200190815260200160002060006101000a81548160ff0219169083151502179055508173ffffffffffffffffffffffffffffffffffffffff168373ffffffffffffffffffffffffffffffffffffffff167f17307eab39ab6107e8899845ad3d59bd9653f200f220920489ca2b5937696c3183604051611ec59190613002565b60405180910390a3505050565b6000611edc612438565b611ee46124d9565b83611eef9190613863565b611ef991906142f1565b9050919050565b611f0b848484611a43565b611f178484848461257a565b611f56576040517f08c379a0000000000000000000000000000000000000000000000000000000008152600401611f4d90614394565b60405180910390fd5b50505050565b6060611f67826116fc565b611fa6576040517f08c379a0000000000000000000000000000000000000000000000000000000008152600401611f9d90614426565b60405180910390fd5b6000600a60008481526020019081526020016000208054611fc6906135ba565b80601f0160208091040260200160405190810160405280929190818152602001828054611ff2906135ba565b801561203f5780601f106120145761010080835404028352916020019161203f565b820191906000526020600020905b81548152906001019060200180831161202257829003601f168201915b505050505090506000612050612702565b90506000815114156120665781925050506120a9565b60008251111561209b578082604051602001612083929190614482565b604051602081830303815290604052925050506120a9565b6120a48461273f565b925050505b919050565b60007f80ac58cd000000000000000000000000000000000000000000000000000000007bffffffffffffffffffffffffffffffffffffffffffffffffffffffff1916827bffffffffffffffffffffffffffffffffffffffffffffffffffffffff1916148061217957507f5b5e139f000000000000000000000000000000000000000000000000000000007bffffffffffffffffffffffffffffffffffffffffffffffffffffffff1916827bffffffffffffffffffffffffffffffffffffffffffffffffffffffff1916145b806121895750612188826127e6565b5b9050919050565b6001816000016000828254019250508190555050565b6121c0828260405180602001604052806000815250612850565b5050565b6060600082141561220c576040518060400160405280600181526020017f30000000000000000000000000000000000000000000000000000000000000008152509050612320565b600082905060005b6000821461223e57808061222790614023565b915050600a8261223791906142f1565b9150612214565b60008167ffffffffffffffff81111561225a5761225961339d565b5b6040519080825280601f01601f19166020018201604052801561228c5781602001600182028036833780820191505090505b5090505b60008514612319576001826122a59190614222565b9150600a856122b491906144a6565b60306122c09190613fa4565b60f81b8183815181106122d6576122d5613ce7565b5b60200101907effffffffffffffffffffffffffffffffffffffffffffffffffffffffffffff1916908160001a905350600a8561231291906142f1565b9450612290565b8093505050505b919050565b61232e826116fc565b61236d576040517f08c379a000000000000000000000000000000000000000000000000000000000815260040161236490614549565b60405180910390fd5b80600a60008481526020019081526020016000209080519060200190612394929190612eab565b505050565b601060009054906101000a900473ffffffffffffffffffffffffffffffffffffffff1673ffffffffffffffffffffffffffffffffffffffff1663cf322e9482846040518363ffffffff1660e01b81526004016123f6929190613ffa565b600060405180830381600087803b15801561241057600080fd5b505af1158015612424573d6000803e3d6000fd5b505050506124338383836128ab565b505050565b600080600c60009054906101000a900473ffffffffffffffffffffffffffffffffffffffff1673ffffffffffffffffffffffffffffffffffffffff1663feaf968c6040518163ffffffff1660e01b815260040160a060405180830381865afa1580156124a8573d6000803e3d6000fd5b505050506040513d601f19601f820116820180604052508101906124cc91906145e1565b5050509150508091505090565b600080600d60009054906101000a900473ffffffffffffffffffffffffffffffffffffffff1673ffffffffffffffffffffffffffffffffffffffff1663feaf968c6040518163ffffffff1660e01b815260040160a060405180830381865afa158015612549573d6000803e3d6000fd5b505050506040513d601f19601f8201168201806040525081019061256d91906145e1565b5050509150508091505090565b600061259b8473ffffffffffffffffffffffffffffffffffffffff166129bf565b156126f5578373ffffffffffffffffffffffffffffffffffffffff1663150b7a026125c4611896565b8786866040518563ffffffff1660e01b81526004016125e694939291906146b1565b6020604051808303816000875af192505050801561262257506040513d601f19601f8201168201806040525081019061261f9190614712565b60015b6126a5573d8060008114612652576040519150601f19603f3d011682016040523d82523d6000602084013e612657565b606091505b5060008151141561269d576040517f08c379a000000000000000000000000000000000000000000000000000000000815260040161269490614394565b60405180910390fd5b805181602001fd5b63150b7a0260e01b7bffffffffffffffffffffffffffffffffffffffffffffffffffffffff1916817bffffffffffffffffffffffffffffffffffffffffffffffffffffffff1916149150506126fa565b600190505b949350505050565b60606040518060400160405280601c81526020017f687474703a2f2f6c6f63616c686f73743a333030302f63697469657300000000815250905090565b606061274a826116fc565b612789576040517f08c379a0000000000000000000000000000000000000000000000000000000008152600401612780906147b1565b60405180910390fd5b6000612793612702565b905060008151116127b357604051806020016040528060008152506127de565b806127bd846121c4565b6040516020016127ce929190614482565b6040516020818303038152906040525b915050919050565b60007f01ffc9a7000000000000000000000000000000000000000000000000000000007bffffffffffffffffffffffffffffffffffffffffffffffffffffffff1916827bffffffffffffffffffffffffffffffffffffffffffffffffffffffff1916149050919050565b61285a83836129d2565b612867600084848461257a565b6128a6576040517f08c379a000000000000000000000000000000000000000000000000000000000815260040161289d90614394565b60405180910390fd5b505050565b6128b6838383612ba0565b600073ffffffffffffffffffffffffffffffffffffffff168373ffffffffffffffffffffffffffffffffffffffff1614156128f9576128f481612ba5565b612938565b8173ffffffffffffffffffffffffffffffffffffffff168373ffffffffffffffffffffffffffffffffffffffff1614612937576129368382612bee565b5b5b600073ffffffffffffffffffffffffffffffffffffffff168273ffffffffffffffffffffffffffffffffffffffff16141561297b5761297681612d5b565b6129ba565b8273ffffffffffffffffffffffffffffffffffffffff168273ffffffffffffffffffffffffffffffffffffffff16146129b9576129b88282612e2c565b5b5b505050565b600080823b905060008111915050919050565b600073ffffffffffffffffffffffffffffffffffffffff168273ffffffffffffffffffffffffffffffffffffffff161415612a42576040517f08c379a0000000000000000000000000000000000000000000000000000000008152600401612a399061481d565b60405180910390fd5b612a4b816116fc565b15612a8b576040517f08c379a0000000000000000000000000000000000000000000000000000000008152600401612a8290614889565b60405180910390fd5b612a9760008383612399565b6001600360008473ffffffffffffffffffffffffffffffffffffffff1673ffffffffffffffffffffffffffffffffffffffff1681526020019081526020016000206000828254612ae79190613fa4565b92505081905550816002600083815260200190815260200160002060006101000a81548173ffffffffffffffffffffffffffffffffffffffff021916908373ffffffffffffffffffffffffffffffffffffffff160217905550808273ffffffffffffffffffffffffffffffffffffffff16600073ffffffffffffffffffffffffffffffffffffffff167fddf252ad1be2c89b69c2b068fc378daa952ba7f163c4a11628f55a4df523b3ef60405160405180910390a45050565b505050565b6008805490506009600083815260200190815260200160002081905550600881908060018154018082558091505060019003906000526020600020016000909190919091505550565b60006001612bfb84611070565b612c059190614222565b9050600060076000848152602001908152602001600020549050818114612cea576000600660008673ffffffffffffffffffffffffffffffffffffffff1673ffffffffffffffffffffffffffffffffffffffff168152602001908152602001600020600084815260200190815260200160002054905080600660008773ffffffffffffffffffffffffffffffffffffffff1673ffffffffffffffffffffffffffffffffffffffff168152602001908152602001600020600084815260200190815260200160002081905550816007600083815260200190815260200160002081905550505b6007600084815260200190815260200160002060009055600660008573ffffffffffffffffffffffffffffffffffffffff1673ffffffffffffffffffffffffffffffffffffffff16815260200190815260200160002060008381526020019081526020016000206000905550505050565b60006001600880549050612d6f9190614222565b9050600060096000848152602001908152602001600020549050600060088381548110612d9f57612d9e613ce7565b5b906000526020600020015490508060088381548110612dc157612dc0613ce7565b5b906000526020600020018190555081600960008381526020019081526020016000208190555060096000858152602001908152602001600020600090556008805480612e1057612e0f6148a9565b5b6001900381819060005260206000200160009055905550505050565b6000612e3783611070565b905081600660008573ffffffffffffffffffffffffffffffffffffffff1673ffffffffffffffffffffffffffffffffffffffff168152602001908152602001600020600083815260200190815260200160002081905550806007600084815260200190815260200160002081905550505050565b828054612eb7906135ba565b90600052602060002090601f016020900481019282612ed95760008555612f20565b82601f10612ef257805160ff1916838001178555612f20565b82800160010185558215612f20579182015b82811115612f1f578251825591602001919060010190612f04565b5b509050612f2d9190612f31565b5090565b5b80821115612f4a576000816000905550600101612f32565b5090565b6000604051905090565b600080fd5b600080fd5b60007fffffffff0000000000000000000000000000000000000000000000000000000082169050919050565b612f9781612f62565b8114612fa257600080fd5b50565b600081359050612fb481612f8e565b92915050565b600060208284031215612fd057612fcf612f58565b5b6000612fde84828501612fa5565b91505092915050565b60008115159050919050565b612ffc81612fe7565b82525050565b60006020820190506130176000830184612ff3565b92915050565b600081519050919050565b600082825260208201905092915050565b60005b8381101561305757808201518184015260208101905061303c565b83811115613066576000848401525b50505050565b6000601f19601f8301169050919050565b60006130888261301d565b6130928185613028565b93506130a2818560208601613039565b6130ab8161306c565b840191505092915050565b600060208201905081810360008301526130d0818461307d565b905092915050565b6000819050919050565b6130eb816130d8565b81146130f657600080fd5b50565b600081359050613108816130e2565b92915050565b60006020828403121561312457613123612f58565b5b6000613132848285016130f9565b91505092915050565b600073ffffffffffffffffffffffffffffffffffffffff82169050919050565b60006131668261313b565b9050919050565b6131768161315b565b82525050565b6000602082019050613191600083018461316d565b92915050565b6131a08161315b565b81146131ab57600080fd5b50565b6000813590506131bd81613197565b92915050565b600080604083850312156131da576131d9612f58565b5b60006131e8858286016131ae565b92505060206131f9858286016130f9565b9150509250929050565b61320c816130d8565b82525050565b60006020820190506132276000830184613203565b92915050565b60008060006060848603121561324657613245612f58565b5b6000613254868287016131ae565b9350506020613265868287016131ae565b9250506040613276868287016130f9565b9150509250925092565b6000819050919050565b60006132a56132a061329b8461313b565b613280565b61313b565b9050919050565b60006132b78261328a565b9050919050565b60006132c9826132ac565b9050919050565b6132d9816132be565b82525050565b60006020820190506132f460008301846132d0565b92915050565b6000602082840312156133105761330f612f58565b5b600061331e848285016131ae565b91505092915050565b61333081612fe7565b811461333b57600080fd5b50565b60008135905061334d81613327565b92915050565b6000806040838503121561336a57613369612f58565b5b6000613378858286016131ae565b92505060206133898582860161333e565b9150509250929050565b600080fd5b600080fd5b7f4e487b7100000000000000000000000000000000000000000000000000000000600052604160045260246000fd5b6133d58261306c565b810181811067ffffffffffffffff821117156133f4576133f361339d565b5b80604052505050565b6000613407612f4e565b905061341382826133cc565b919050565b600067ffffffffffffffff8211156134335761343261339d565b5b61343c8261306c565b9050602081019050919050565b82818337600083830152505050565b600061346b61346684613418565b6133fd565b90508281526020810184848401111561348757613486613398565b5b613492848285613449565b509392505050565b600082601f8301126134af576134ae613393565b5b81356134bf848260208601613458565b91505092915050565b600080600080608085870312156134e2576134e1612f58565b5b60006134f0878288016131ae565b9450506020613501878288016131ae565b9350506040613512878288016130f9565b925050606085013567ffffffffffffffff81111561353357613532612f5d565b5b61353f8782880161349a565b91505092959194509250565b6000806040838503121561356257613561612f58565b5b6000613570858286016131ae565b9250506020613581858286016131ae565b9150509250929050565b7f4e487b7100000000000000000000000000000000000000000000000000000000600052602260045260246000fd5b600060028204905060018216806135d257607f821691505b602082108114156135e6576135e561358b565b5b50919050565b7f4552433732313a20617070726f76656420717565727920666f72206e6f6e657860008201527f697374656e7420746f6b656e0000000000000000000000000000000000000000602082015250565b6000613648602c83613028565b9150613653826135ec565b604082019050919050565b600060208201905081810360008301526136778161363b565b9050919050565b7f53616c65206d7573742062652061637469766520746f206d696e74206120436960008201527f7479204e46540000000000000000000000000000000000000000000000000000602082015250565b60006136da602683613028565b91506136e58261367e565b604082019050919050565b60006020820190508181036000830152613709816136cd565b9050919050565b7f43616e206f6e6c79206d696e7420313020746f6b656e7320617420612074696d60008201527f6500000000000000000000000000000000000000000000000000000000000000602082015250565b600061376c602183613028565b915061377782613710565b604082019050919050565b6000602082019050818103600083015261379b8161375f565b9050919050565b7f507572636861736520776f756c6420657863656564206d6178206e756d62657260008201527f206f662043697479204e46547300000000000000000000000000000000000000602082015250565b60006137fe602d83613028565b9150613809826137a2565b604082019050919050565b6000602082019050818103600083015261382d816137f1565b9050919050565b7f4e487b7100000000000000000000000000000000000000000000000000000000600052601160045260246000fd5b600061386e826130d8565b9150613879836130d8565b9250817fffffffffffffffffffffffffffffffffffffffffffffffffffffffffffffffff04831182151516156138b2576138b1613834565b5b828202905092915050565b60006060820190506138d2600083018661316d565b6138df602083018561316d565b6138ec6040830184613203565b949350505050565b60008151905061390381613327565b92915050565b60006020828403121561391f5761391e612f58565b5b600061392d848285016138f4565b91505092915050565b7f4552433732313a20617070726f76616c20746f2063757272656e74206f776e6560008201527f7200000000000000000000000000000000000000000000000000000000000000602082015250565b6000613992602183613028565b915061399d82613936565b604082019050919050565b600060208201905081810360008301526139c181613985565b9050919050565b7f4552433732313a20617070726f76652063616c6c6572206973206e6f74206f7760008201527f6e6572206e6f7220617070726f76656420666f7220616c6c0000000000000000602082015250565b6000613a24603883613028565b9150613a2f826139c8565b604082019050919050565b60006020820190508181036000830152613a5381613a17565b9050919050565b7f4f776e61626c653a2063616c6c6572206973206e6f7420746865206f776e6572600082015250565b6000613a90602083613028565b9150613a9b82613a5a565b602082019050919050565b60006020820190508181036000830152613abf81613a83565b9050919050565b7f4552433732313a207472616e736665722063616c6c6572206973206e6f74206f60008201527f776e6572206e6f7220617070726f766564000000000000000000000000000000602082015250565b6000613b22603183613028565b9150613b2d82613ac6565b604082019050919050565b60006020820190508181036000830152613b5181613b15565b9050919050565b7f455243373231456e756d657261626c653a206f776e657220696e646578206f7560008201527f74206f6620626f756e6473000000000000000000000000000000000000000000602082015250565b6000613bb4602b83613028565b9150613bbf82613b58565b604082019050919050565b60006020820190508181036000830152613be381613ba7565b9050919050565b600081519050613bf9816130e2565b92915050565b600060208284031215613c1557613c14612f58565b5b6000613c2384828501613bea565b91505092915050565b6000604082019050613c41600083018561316d565b613c4e6020830184613203565b9392505050565b7f455243373231456e756d657261626c653a20676c6f62616c20696e646578206f60008201527f7574206f6620626f756e64730000000000000000000000000000000000000000602082015250565b6000613cb1602c83613028565b9150613cbc82613c55565b604082019050919050565b60006020820190508181036000830152613ce081613ca4565b9050919050565b7f4e487b7100000000000000000000000000000000000000000000000000000000600052603260045260246000fd5b7f4552433732313a206f776e657220717565727920666f72206e6f6e657869737460008201527f656e7420746f6b656e0000000000000000000000000000000000000000000000602082015250565b6000613d72602983613028565b9150613d7d82613d16565b604082019050919050565b60006020820190508181036000830152613da181613d65565b9050919050565b7f4552433732313a2062616c616e636520717565727920666f7220746865207a6560008201527f726f206164647265737300000000000000000000000000000000000000000000602082015250565b6000613e04602a83613028565b9150613e0f82613da8565b604082019050919050565b60006020820190508181036000830152613e3381613df7565b9050919050565b7f4d617469632076616c75652073656e74206973206e6f7420636f727265637400600082015250565b6000613e70601f83613028565b9150613e7b82613e3a565b602082019050919050565b60006020820190508181036000830152613e9f81613e63565b9050919050565b7f416c726561647920696e697469616c697a656400000000000000000000000000600082015250565b6000613edc601383613028565b9150613ee782613ea6565b602082019050919050565b60006020820190508181036000830152613f0b81613ecf565b9050919050565b7f4f776e61626c653a206e6577206f776e657220697320746865207a65726f206160008201527f6464726573730000000000000000000000000000000000000000000000000000602082015250565b6000613f6e602683613028565b9150613f7982613f12565b604082019050919050565b60006020820190508181036000830152613f9d81613f61565b9050919050565b6000613faf826130d8565b9150613fba836130d8565b9250827fffffffffffffffffffffffffffffffffffffffffffffffffffffffffffffffff03821115613fef57613fee613834565b5b828201905092915050565b600060408201905061400f6000830185613203565b61401c602083018461316d565b9392505050565b600061402e826130d8565b91507fffffffffffffffffffffffffffffffffffffffffffffffffffffffffffffffff82141561406157614060613834565b5b600182019050919050565b7f4552433732313a206f70657261746f7220717565727920666f72206e6f6e657860008201527f697374656e7420746f6b656e0000000000000000000000000000000000000000602082015250565b60006140c8602c83613028565b91506140d38261406c565b604082019050919050565b600060208201905081810360008301526140f7816140bb565b9050919050565b7f4552433732313a207472616e73666572206f6620746f6b656e2074686174206960008201527f73206e6f74206f776e0000000000000000000000000000000000000000000000602082015250565b600061415a602983613028565b9150614165826140fe565b604082019050919050565b600060208201905081810360008301526141898161414d565b9050919050565b7f4552433732313a207472616e7366657220746f20746865207a65726f2061646460008201527f7265737300000000000000000000000000000000000000000000000000000000602082015250565b60006141ec602483613028565b91506141f782614190565b604082019050919050565b6000602082019050818103600083015261421b816141df565b9050919050565b600061422d826130d8565b9150614238836130d8565b92508282101561424b5761424a613834565b5b828203905092915050565b7f4552433732313a20617070726f766520746f2063616c6c657200000000000000600082015250565b600061428c601983613028565b915061429782614256565b602082019050919050565b600060208201905081810360008301526142bb8161427f565b9050919050565b7f4e487b7100000000000000000000000000000000000000000000000000000000600052601260045260246000fd5b60006142fc826130d8565b9150614307836130d8565b925082614317576143166142c2565b5b828204905092915050565b7f4552433732313a207472616e7366657220746f206e6f6e20455243373231526560008201527f63656976657220696d706c656d656e7465720000000000000000000000000000602082015250565b600061437e603283613028565b915061438982614322565b604082019050919050565b600060208201905081810360008301526143ad81614371565b9050919050565b7f45524337323155524953746f726167653a2055524920717565727920666f722060008201527f6e6f6e6578697374656e7420746f6b656e000000000000000000000000000000602082015250565b6000614410603183613028565b915061441b826143b4565b604082019050919050565b6000602082019050818103600083015261443f81614403565b9050919050565b600081905092915050565b600061445c8261301d565b6144668185614446565b9350614476818560208601613039565b80840191505092915050565b600061448e8285614451565b915061449a8284614451565b91508190509392505050565b60006144b1826130d8565b91506144bc836130d8565b9250826144cc576144cb6142c2565b5b828206905092915050565b7f45524337323155524953746f726167653a2055524920736574206f66206e6f6e60008201527f6578697374656e7420746f6b656e000000000000000000000000000000000000602082015250565b6000614533602e83613028565b915061453e826144d7565b604082019050919050565b6000602082019050818103600083015261456281614526565b9050919050565b600069ffffffffffffffffffff82169050919050565b61458881614569565b811461459357600080fd5b50565b6000815190506145a58161457f565b92915050565b6000819050919050565b6145be816145ab565b81146145c957600080fd5b50565b6000815190506145db816145b5565b92915050565b600080600080600060a086880312156145fd576145fc612f58565b5b600061460b88828901614596565b955050602061461c888289016145cc565b945050604061462d88828901613bea565b935050606061463e88828901613bea565b925050608061464f88828901614596565b9150509295509295909350565b600081519050919050565b600082825260208201905092915050565b60006146838261465c565b61468d8185614667565b935061469d818560208601613039565b6146a68161306c565b840191505092915050565b60006080820190506146c6600083018761316d565b6146d3602083018661316d565b6146e06040830185613203565b81810360608301526146f28184614678565b905095945050505050565b60008151905061470c81612f8e565b92915050565b60006020828403121561472857614727612f58565b5b6000614736848285016146fd565b91505092915050565b7f4552433732314d657461646174613a2055524920717565727920666f72206e6f60008201527f6e6578697374656e7420746f6b656e0000000000000000000000000000000000602082015250565b600061479b602f83613028565b91506147a68261473f565b604082019050919050565b600060208201905081810360008301526147ca8161478e565b9050919050565b7f4552433732313a206d696e7420746f20746865207a65726f2061646472657373600082015250565b6000614807602083613028565b9150614812826147d1565b602082019050919050565b60006020820190508181036000830152614836816147fa565b9050919050565b7f4552433732313a20746f6b656e20616c7265616479206d696e74656400000000600082015250565b6000614873601c83613028565b915061487e8261483d565b602082019050919050565b600060208201905081810360008301526148a281614866565b9050919050565b7f4e487b7100000000000000000000000000000000000000000000000000000000600052603160045260246000fdfea26469706673582212209c1279ac962c181b374804bfe98dd1af9da126664208a4a346aab5f659b0cf6d64736f6c634300080b0033",
  "immutableReferences": {},
  "source": "// SPDX-License-Identifier: MIT\r\npragma solidity ^0.8.11;\r\n\r\nimport \"../node_modules/@openzeppelin/contracts/token/ERC721/ERC721.sol\";\r\nimport \"../node_modules/@openzeppelin/contracts/token/ERC721/extensions/ERC721Enumerable.sol\";\r\nimport \"../node_modules/@openzeppelin/contracts/token/ERC721/extensions/ERC721URIStorage.sol\";\r\nimport \"../node_modules/@openzeppelin/contracts/access/Ownable.sol\";\r\nimport \"../node_modules/@openzeppelin/contracts/utils/Counters.sol\";\r\nimport \"../node_modules/@openzeppelin/contracts/utils/math/SafeMath.sol\";\r\nimport \"../node_modules/@openzeppelin/contracts/utils/Strings.sol\";\r\n\r\nimport \"../node_modules/@openzeppelin/contracts/token/ERC20/IERC20.sol\";\r\n\r\nimport \"./PriceContract.sol\";\r\nimport \"./Gameplay.sol\";\r\n\r\ncontract CityContract is ERC721, ERC721Enumerable, ERC721URIStorage, Ownable, PriceContract {\r\n    using Counters for Counters.Counter;\r\n    using SafeMath for uint256;\r\n\r\n    Counters.Counter private _tokenIdCounter; // counter representing the latest tokenId\r\n\r\n    IERC20 public weth;\r\n    Gameplay gameplayContract;\r\n    bool gameplayContractInitialized = false;\r\n    constructor(address _weth, address _maticPrice, address _ethPrice) ERC721(\"CityBuilders\", \"CTB\") PriceContract(_ethPrice, _maticPrice) { \r\n        weth = IERC20(_weth);\r\n    }\r\n\r\n    function initGameplayContract(address _gameplay) external {\r\n        require(gameplayContractInitialized == false, 'Already initialized');\r\n        gameplayContract = Gameplay(_gameplay);\r\n        gameplayContractInitialized = true;\r\n    }\r\n    \r\n    function _baseURI() internal pure override returns (string memory) {\r\n        return \"http://localhost:3000/cities\"; // this is just temporary\r\n    }\r\n  \r\n    uint mintingPrice = 0.1 ether; // cost of minting a single City NFT (in ether wei)\r\n    bool saleIsActive = false; // if it is possible to mint more NFTs the state is true\r\n    uint maxMintTokens = 10; // max num of tokens to mint per address\r\n    uint MAX_CITIES = 10000; // max num of cities to be minted\r\n\r\n    /**\r\n     * @dev Function that changes the price of minting an NFT\r\n     * @param newPrice the new price of the NFTs in ether wei\r\n     */\r\n    function changeMintingPrice(uint newPrice) external onlyOwner {\r\n        mintingPrice = newPrice;\r\n    }\r\n\r\n    /**\r\n     * @dev Function used for minting new City NFTs\r\n     * @param numOfTokens number of tokens that will be minted\r\n     */\r\n    function maticMint(uint numOfTokens) external payable {\r\n        require(saleIsActive, \"Sale must be active to mint a City NFT\");\r\n        require(numOfTokens <= maxMintTokens, \"Can only mint 10 tokens at a time\");\r\n        require(totalSupply().add(numOfTokens) <= MAX_CITIES, \"Purchase would exceed max number of City NFTs\");\r\n        require(mintPriceMatic(mintingPrice) <= msg.value, \"Matic value sent is not correct\");\r\n\r\n        createNFTs(numOfTokens);\r\n    }\r\n\r\n    /**\r\n     * @dev Function used for minting new City NFTs\r\n     * @param numOfTokens number of tokens that will be minted\r\n     */\r\n    function wethMint(uint numOfTokens) external {\r\n        require(saleIsActive, \"Sale must be active to mint a City NFT\");\r\n        require(numOfTokens <= maxMintTokens, \"Can only mint 10 tokens at a time\");\r\n        require(totalSupply().add(numOfTokens) <= MAX_CITIES, \"Purchase would exceed max number of City NFTs\");\r\n\r\n        weth.transferFrom(msg.sender, address(this), mintingPrice*numOfTokens);\r\n\r\n        createNFTs(numOfTokens);\r\n    }\r\n\r\n    // function used to mint NFTs - called from wethMint and maticMint functions only\r\n    function createNFTs(uint numOfTokens) private {\r\n        uint256 tokenId;\r\n        for(uint i = 0; i < numOfTokens; i++) {\r\n            tokenId = _tokenIdCounter.current();\r\n            _tokenIdCounter.increment();\r\n\r\n            gameplayContract.created(tokenId, msg.sender);\r\n\r\n            _safeMint(msg.sender, tokenId);\r\n            _setTokenURI(tokenId, Strings.toString(tokenId));\r\n        }\r\n\r\n        if(_tokenIdCounter.current() == MAX_CITIES) {\r\n            saleIsActive = false;\r\n        }\r\n    }\r\n    //_______________________________________________________________________________\r\n    // funkcions returning values from the contract:\r\n    function currId() public view returns(uint) {\r\n        return _tokenIdCounter.current();\r\n    }\r\n\r\n    function getSaleState() external view returns(bool) {\r\n        return saleIsActive;\r\n    }\r\n    //_______________________________________________________________________________\r\n\r\n    // The following function is used to withdraw all funds from the contract to the owner address\r\n    function withdraw() public onlyOwner {\r\n        uint maticBalance = address(this).balance;\r\n        payable(msg.sender).transfer(maticBalance);\r\n\r\n        uint ethBalance = weth.balanceOf(address(this));\r\n        weth.transfer(msg.sender, ethBalance);\r\n    }\r\n\r\n    // The following  function is called to start the sale and to end it if all items are sold out or if a problem occurs.\r\n    function flipSaleState() public onlyOwner {\r\n        saleIsActive = !saleIsActive;\r\n    }\r\n\r\n\r\n    // The following functions are overrides required by Solidity.\r\n    function _beforeTokenTransfer(address from, address to, uint256 tokenId) internal override(ERC721, ERC721Enumerable) {\r\n        gameplayContract.newOwner(tokenId, to);\r\n        super._beforeTokenTransfer(from, to, tokenId);\r\n    }\r\n\r\n    function _burn(uint256 tokenId) internal override(ERC721, ERC721URIStorage) {\r\n        super._burn(tokenId);\r\n    }\r\n\r\n    function tokenURI(uint256 tokenId) public view override(ERC721, ERC721URIStorage) returns (string memory) {\r\n        return super.tokenURI(tokenId);\r\n    }\r\n\r\n    function supportsInterface(bytes4 interfaceId) public view override(ERC721, ERC721Enumerable) returns (bool){\r\n        return super.supportsInterface(interfaceId);\r\n    }\r\n}",
  "sourcePath": "C:\\Users\\Dario Vajda\\OneDrive\\Documents\\nft\\smart_contracts\\contracts\\CityContract.sol",
  "compiler": {
    "name": "solc",
    "version": "0.8.11+commit.d7f03943.Emscripten.clang"
  },
  "schemaVersion": "3.4.4",
  "updatedAt": "2022-05-25T21:45:58.765Z",
  "networkType": "ethereum",
  "devdoc": {
    "kind": "dev",
    "methods": {
      "approve(address,uint256)": {
        "details": "See {IERC721-approve}."
      },
      "balanceOf(address)": {
        "details": "See {IERC721-balanceOf}."
      },
      "changeMintingPrice(uint256)": {
        "details": "Function that changes the price of minting an NFT",
        "params": {
          "newPrice": "the new price of the NFTs in ether wei"
        }
      },
      "getApproved(uint256)": {
        "details": "See {IERC721-getApproved}."
      },
      "isApprovedForAll(address,address)": {
        "details": "See {IERC721-isApprovedForAll}."
      },
      "maticMint(uint256)": {
        "details": "Function used for minting new City NFTs",
        "params": {
          "numOfTokens": "number of tokens that will be minted"
        }
      },
      "name()": {
        "details": "See {IERC721Metadata-name}."
      },
      "owner()": {
        "details": "Returns the address of the current owner."
      },
      "ownerOf(uint256)": {
        "details": "See {IERC721-ownerOf}."
      },
      "renounceOwnership()": {
        "details": "Leaves the contract without owner. It will not be possible to call `onlyOwner` functions anymore. Can only be called by the current owner. NOTE: Renouncing ownership will leave the contract without an owner, thereby removing any functionality that is only available to the owner."
      },
      "safeTransferFrom(address,address,uint256)": {
        "details": "See {IERC721-safeTransferFrom}."
      },
      "safeTransferFrom(address,address,uint256,bytes)": {
        "details": "See {IERC721-safeTransferFrom}."
      },
      "setApprovalForAll(address,bool)": {
        "details": "See {IERC721-setApprovalForAll}."
      },
      "symbol()": {
        "details": "See {IERC721Metadata-symbol}."
      },
      "tokenByIndex(uint256)": {
        "details": "See {IERC721Enumerable-tokenByIndex}."
      },
      "tokenOfOwnerByIndex(address,uint256)": {
        "details": "See {IERC721Enumerable-tokenOfOwnerByIndex}."
      },
      "totalSupply()": {
        "details": "See {IERC721Enumerable-totalSupply}."
      },
      "transferFrom(address,address,uint256)": {
        "details": "See {IERC721-transferFrom}."
      },
      "transferOwnership(address)": {
        "details": "Transfers ownership of the contract to a new account (`newOwner`). Can only be called by the current owner."
      },
      "wethMint(uint256)": {
        "details": "Function used for minting new City NFTs",
        "params": {
          "numOfTokens": "number of tokens that will be minted"
        }
      }
    },
    "version": 1
  },
  "userdoc": {
    "kind": "user",
    "methods": {},
    "version": 1
  }
}