{
  "contractName": "CityBuilders",
  "abi": [
    {
      "inputs": [],
      "stateMutability": "nonpayable",
      "type": "constructor"
    },
    {
      "anonymous": false,
      "inputs": [
        {
          "indexed": true,
          "internalType": "address",
          "name": "owner",
          "type": "address"
        },
        {
          "indexed": true,
          "internalType": "address",
          "name": "approved",
          "type": "address"
        },
        {
          "indexed": true,
          "internalType": "uint256",
          "name": "tokenId",
          "type": "uint256"
        }
      ],
      "name": "Approval",
      "type": "event"
    },
    {
      "anonymous": false,
      "inputs": [
        {
          "indexed": true,
          "internalType": "address",
          "name": "owner",
          "type": "address"
        },
        {
          "indexed": true,
          "internalType": "address",
          "name": "operator",
          "type": "address"
        },
        {
          "indexed": false,
          "internalType": "bool",
          "name": "approved",
          "type": "bool"
        }
      ],
      "name": "ApprovalForAll",
      "type": "event"
    },
    {
      "anonymous": false,
      "inputs": [
        {
          "indexed": true,
          "internalType": "address",
          "name": "previousOwner",
          "type": "address"
        },
        {
          "indexed": true,
          "internalType": "address",
          "name": "newOwner",
          "type": "address"
        }
      ],
      "name": "OwnershipTransferred",
      "type": "event"
    },
    {
      "anonymous": false,
      "inputs": [
        {
          "indexed": true,
          "internalType": "address",
          "name": "from",
          "type": "address"
        },
        {
          "indexed": true,
          "internalType": "address",
          "name": "to",
          "type": "address"
        },
        {
          "indexed": true,
          "internalType": "uint256",
          "name": "tokenId",
          "type": "uint256"
        }
      ],
      "name": "Transfer",
      "type": "event"
    },
    {
      "inputs": [
        {
          "internalType": "address",
          "name": "to",
          "type": "address"
        },
        {
          "internalType": "uint256",
          "name": "tokenId",
          "type": "uint256"
        }
      ],
      "name": "approve",
      "outputs": [],
      "stateMutability": "nonpayable",
      "type": "function"
    },
    {
      "inputs": [
        {
          "internalType": "address",
          "name": "owner",
          "type": "address"
        }
      ],
      "name": "balanceOf",
      "outputs": [
        {
          "internalType": "uint256",
          "name": "",
          "type": "uint256"
        }
      ],
      "stateMutability": "view",
      "type": "function"
    },
    {
      "inputs": [
        {
          "internalType": "uint256",
          "name": "tokenId",
          "type": "uint256"
        }
      ],
      "name": "getApproved",
      "outputs": [
        {
          "internalType": "address",
          "name": "",
          "type": "address"
        }
      ],
      "stateMutability": "view",
      "type": "function"
    },
    {
      "inputs": [
        {
          "internalType": "address",
          "name": "owner",
          "type": "address"
        },
        {
          "internalType": "address",
          "name": "operator",
          "type": "address"
        }
      ],
      "name": "isApprovedForAll",
      "outputs": [
        {
          "internalType": "bool",
          "name": "",
          "type": "bool"
        }
      ],
      "stateMutability": "view",
      "type": "function"
    },
    {
      "inputs": [],
      "name": "name",
      "outputs": [
        {
          "internalType": "string",
          "name": "",
          "type": "string"
        }
      ],
      "stateMutability": "view",
      "type": "function"
    },
    {
      "inputs": [],
      "name": "owner",
      "outputs": [
        {
          "internalType": "address",
          "name": "",
          "type": "address"
        }
      ],
      "stateMutability": "view",
      "type": "function"
    },
    {
      "inputs": [
        {
          "internalType": "uint256",
          "name": "tokenId",
          "type": "uint256"
        }
      ],
      "name": "ownerOf",
      "outputs": [
        {
          "internalType": "address",
          "name": "",
          "type": "address"
        }
      ],
      "stateMutability": "view",
      "type": "function"
    },
    {
      "inputs": [],
      "name": "renounceOwnership",
      "outputs": [],
      "stateMutability": "nonpayable",
      "type": "function"
    },
    {
      "inputs": [
        {
          "internalType": "address",
          "name": "from",
          "type": "address"
        },
        {
          "internalType": "address",
          "name": "to",
          "type": "address"
        },
        {
          "internalType": "uint256",
          "name": "tokenId",
          "type": "uint256"
        }
      ],
      "name": "safeTransferFrom",
      "outputs": [],
      "stateMutability": "nonpayable",
      "type": "function"
    },
    {
      "inputs": [
        {
          "internalType": "address",
          "name": "from",
          "type": "address"
        },
        {
          "internalType": "address",
          "name": "to",
          "type": "address"
        },
        {
          "internalType": "uint256",
          "name": "tokenId",
          "type": "uint256"
        },
        {
          "internalType": "bytes",
          "name": "_data",
          "type": "bytes"
        }
      ],
      "name": "safeTransferFrom",
      "outputs": [],
      "stateMutability": "nonpayable",
      "type": "function"
    },
    {
      "inputs": [
        {
          "internalType": "address",
          "name": "operator",
          "type": "address"
        },
        {
          "internalType": "bool",
          "name": "approved",
          "type": "bool"
        }
      ],
      "name": "setApprovalForAll",
      "outputs": [],
      "stateMutability": "nonpayable",
      "type": "function"
    },
    {
      "inputs": [],
      "name": "symbol",
      "outputs": [
        {
          "internalType": "string",
          "name": "",
          "type": "string"
        }
      ],
      "stateMutability": "view",
      "type": "function"
    },
    {
      "inputs": [
        {
          "internalType": "uint256",
          "name": "index",
          "type": "uint256"
        }
      ],
      "name": "tokenByIndex",
      "outputs": [
        {
          "internalType": "uint256",
          "name": "",
          "type": "uint256"
        }
      ],
      "stateMutability": "view",
      "type": "function"
    },
    {
      "inputs": [
        {
          "internalType": "address",
          "name": "owner",
          "type": "address"
        },
        {
          "internalType": "uint256",
          "name": "index",
          "type": "uint256"
        }
      ],
      "name": "tokenOfOwnerByIndex",
      "outputs": [
        {
          "internalType": "uint256",
          "name": "",
          "type": "uint256"
        }
      ],
      "stateMutability": "view",
      "type": "function"
    },
    {
      "inputs": [],
      "name": "totalSupply",
      "outputs": [
        {
          "internalType": "uint256",
          "name": "",
          "type": "uint256"
        }
      ],
      "stateMutability": "view",
      "type": "function"
    },
    {
      "inputs": [
        {
          "internalType": "address",
          "name": "from",
          "type": "address"
        },
        {
          "internalType": "address",
          "name": "to",
          "type": "address"
        },
        {
          "internalType": "uint256",
          "name": "tokenId",
          "type": "uint256"
        }
      ],
      "name": "transferFrom",
      "outputs": [],
      "stateMutability": "nonpayable",
      "type": "function"
    },
    {
      "inputs": [
        {
          "internalType": "address",
          "name": "newOwner",
          "type": "address"
        }
      ],
      "name": "transferOwnership",
      "outputs": [],
      "stateMutability": "nonpayable",
      "type": "function"
    },
    {
      "inputs": [
        {
          "internalType": "uint256",
          "name": "numOfTokens",
          "type": "uint256"
        }
      ],
      "name": "safeMint",
      "outputs": [],
      "stateMutability": "payable",
      "type": "function"
    },
    {
      "inputs": [
        {
          "internalType": "uint256",
          "name": "tokenId",
          "type": "uint256"
        }
      ],
      "name": "tokenURI",
      "outputs": [
        {
          "internalType": "string",
          "name": "",
          "type": "string"
        }
      ],
      "stateMutability": "view",
      "type": "function"
    },
    {
      "inputs": [
        {
          "internalType": "bytes4",
          "name": "interfaceId",
          "type": "bytes4"
        }
      ],
      "name": "supportsInterface",
      "outputs": [
        {
          "internalType": "bool",
          "name": "",
          "type": "bool"
        }
      ],
      "stateMutability": "view",
      "type": "function"
    },
    {
      "inputs": [],
      "name": "flipSaleState",
      "outputs": [],
      "stateMutability": "nonpayable",
      "type": "function"
    }
  ],
  "bytecode": "0x60806040526014600c556000600e60006101000a81548160ff0219169083151502179055506000601060006101000a81548160ff02191690831515021790555067016345785d8a00006012556000601360006101000a81548160ff021916908315150217905550600a601455612710601555620186a0601760006101000a8154816fffffffffffffffffffffffffffffffff02191690836fffffffffffffffffffffffffffffffff160217905550348015620000ba57600080fd5b506040518060400160405280600c81526020017f436974794275696c6465727300000000000000000000000000000000000000008152506040518060400160405280600381526020017f435442000000000000000000000000000000000000000000000000000000000081525081600090805190602001906200013f92919062002c0d565b5080600190805190602001906200015892919062002c0d565b5050506200017b6200016f620001a160201b60201c565b620001a960201b60201c565b6200018b6200026f60201b60201c565b6200019b6200186b60201b60201c565b62002edc565b600033905090565b6000600b60009054906101000a900473ffffffffffffffffffffffffffffffffffffffff16905081600b60006101000a81548173ffffffffffffffffffffffffffffffffffffffff021916908373ffffffffffffffffffffffffffffffffffffffff1602179055508173ffffffffffffffffffffffffffffffffffffffff168173ffffffffffffffffffffffffffffffffffffffff167f8be0079c531659141344cd1fd0a4f28419497f9722a3daafe3b4186f6b6457e060405160405180910390a35050565b60001515600e60009054906101000a900460ff16151514620002c8576040517f08c379a0000000000000000000000000000000000000000000000000000000008152600401620002bf9062002d8e565b60405180910390fd5b6001600e60006101000a81548160ff021916908315150217905550600d6000806009811115620002fd57620002fc62002db0565b5b600981111562000312576200031162002db0565b5b81526020019081526020016000206040518060400160405280600260ff168152602001600460ff1681525090806001815401808255809150506001900390600052602060002090600202016000909190919091509060026200037692919062002c9e565b50600d600080600981111562000391576200039062002db0565b5b6009811115620003a657620003a562002db0565b5b81526020019081526020016000206040518060400160405280600460ff168152602001600260ff1681525090806001815401808255809150506001900390600052602060002090600202016000909190919091509060026200040a92919062002c9e565b50600d60006001600981111562000426576200042562002db0565b5b60098111156200043b576200043a62002db0565b5b81526020019081526020016000206040518060400160405280600260ff168152602001600260ff1681525090806001815401808255809150506001900390600052602060002090600202016000909190919091509060026200049f92919062002c9e565b50600d600060026009811115620004bb57620004ba62002db0565b5b6009811115620004d057620004cf62002db0565b5b81526020019081526020016000206040518060400160405280600260ff168152602001600160ff1681525090806001815401808255809150506001900390600052602060002090600202016000909190919091509060026200053492919062002c9e565b50600d60006002600981111562000550576200054f62002db0565b5b600981111562000565576200056462002db0565b5b81526020019081526020016000206040518060400160405280600160ff168152602001600260ff168152509080600181540180825580915050600190039060005260206000209060020201600090919091909150906002620005c992919062002c9e565b50600d600060036009811115620005e557620005e462002db0565b5b6009811115620005fa57620005f962002db0565b5b81526020019081526020016000206040518060400160405280600260ff168152602001600260ff1681525090806001815401808255809150506001900390600052602060002090600202016000909190919091509060026200065e92919062002c9e565b50600d6000600360098111156200067a576200067962002db0565b5b60098111156200068f576200068e62002db0565b5b81526020019081526020016000206040518060400160405280600360ff168152602001600260ff168152509080600181540180825580915050600190039060005260206000209060020201600090919091909150906002620006f392919062002c9e565b50600d6000600360098111156200070f576200070e62002db0565b5b600981111562000724576200072362002db0565b5b81526020019081526020016000206040518060400160405280600460ff168152602001600260ff1681525090806001815401808255809150506001900390600052602060002090600202016000909190919091509060026200078892919062002c9e565b50600d600060036009811115620007a457620007a362002db0565b5b6009811115620007b957620007b862002db0565b5b81526020019081526020016000206040518060400160405280600260ff168152602001600360ff1681525090806001815401808255809150506001900390600052602060002090600202016000909190919091509060026200081d92919062002c9e565b50600d60006003600981111562000839576200083862002db0565b5b60098111156200084e576200084d62002db0565b5b81526020019081526020016000206040518060400160405280600360ff168152602001600360ff168152509080600181540180825580915050600190039060005260206000209060020201600090919091909150906002620008b292919062002c9e565b50600d600060036009811115620008ce57620008cd62002db0565b5b6009811115620008e357620008e262002db0565b5b81526020019081526020016000206040518060400160405280600460ff168152602001600360ff1681525090806001815401808255809150506001900390600052602060002090600202016000909190919091509060026200094792919062002c9e565b50600d60006003600981111562000963576200096262002db0565b5b600981111562000978576200097762002db0565b5b81526020019081526020016000206040518060400160405280600260ff168152602001600460ff168152509080600181540180825580915050600190039060005260206000209060020201600090919091909150906002620009dc92919062002c9e565b50600d600060036009811115620009f857620009f762002db0565b5b600981111562000a0d5762000a0c62002db0565b5b81526020019081526020016000206040518060400160405280600360ff168152602001600460ff16815250908060018154018082558091505060019003906000526020600020906002020160009091909190915090600262000a7192919062002c9e565b50600d60006003600981111562000a8d5762000a8c62002db0565b5b600981111562000aa25762000aa162002db0565b5b81526020019081526020016000206040518060400160405280600460ff168152602001600460ff16815250908060018154018082558091505060019003906000526020600020906002020160009091909190915090600262000b0692919062002c9e565b50600d60006004600981111562000b225762000b2162002db0565b5b600981111562000b375762000b3662002db0565b5b81526020019081526020016000206040518060400160405280600160ff168152602001600360ff16815250908060018154018082558091505060019003906000526020600020906002020160009091909190915090600262000b9b92919062002c9e565b50600d60006004600981111562000bb75762000bb662002db0565b5b600981111562000bcc5762000bcb62002db0565b5b81526020019081526020016000206040518060400160405280600360ff168152602001600160ff16815250908060018154018082558091505060019003906000526020600020906002020160009091909190915090600262000c3092919062002c9e565b50600d60006004600981111562000c4c5762000c4b62002db0565b5b600981111562000c615762000c6062002db0565b5b81526020019081526020016000206040518060400160405280600260ff168152602001600260ff16815250908060018154018082558091505060019003906000526020600020906002020160009091909190915090600262000cc592919062002c9e565b50600d60006005600981111562000ce15762000ce062002db0565b5b600981111562000cf65762000cf562002db0565b5b81526020019081526020016000206040518060400160405280600160ff168152602001600160ff16815250908060018154018082558091505060019003906000526020600020906002020160009091909190915090600262000d5a92919062002c9e565b50600d60006006600981111562000d765762000d7562002db0565b5b600981111562000d8b5762000d8a62002db0565b5b81526020019081526020016000206040518060400160405280600160ff168152602001600160ff16815250908060018154018082558091505060019003906000526020600020906002020160009091909190915090600262000def92919062002c9e565b50600d60006007600981111562000e0b5762000e0a62002db0565b5b600981111562000e205762000e1f62002db0565b5b81526020019081526020016000206040518060400160405280600260ff168152602001600260ff16815250908060018154018082558091505060019003906000526020600020906002020160009091909190915090600262000e8492919062002c9e565b50600d60006008600981111562000ea05762000e9f62002db0565b5b600981111562000eb55762000eb462002db0565b5b81526020019081526020016000206040518060400160405280600260ff168152602001600260ff16815250908060018154018082558091505060019003906000526020600020906002020160009091909190915090600262000f1992919062002c9e565b50600d60006008600981111562000f355762000f3462002db0565b5b600981111562000f4a5762000f4962002db0565b5b81526020019081526020016000206040518060400160405280600360ff168152602001600260ff16815250908060018154018082558091505060019003906000526020600020906002020160009091909190915090600262000fae92919062002c9e565b50600d60006008600981111562000fca5762000fc962002db0565b5b600981111562000fdf5762000fde62002db0565b5b81526020019081526020016000206040518060400160405280600460ff168152602001600260ff1681525090806001815401808255809150506001900390600052602060002090600202016000909190919091509060026200104392919062002c9e565b50600d6000600860098111156200105f576200105e62002db0565b5b600981111562001074576200107362002db0565b5b81526020019081526020016000206040518060400160405280600560ff168152602001600260ff168152509080600181540180825580915050600190039060005260206000209060020201600090919091909150906002620010d892919062002c9e565b50600d600060086009811115620010f457620010f362002db0565b5b600981111562001109576200110862002db0565b5b81526020019081526020016000206040518060400160405280600260ff168152602001600360ff1681525090806001815401808255809150506001900390600052602060002090600202016000909190919091509060026200116d92919062002c9e565b50600d60006008600981111562001189576200118862002db0565b5b60098111156200119e576200119d62002db0565b5b81526020019081526020016000206040518060400160405280600360ff168152602001600360ff1681525090806001815401808255809150506001900390600052602060002090600202016000909190919091509060026200120292919062002c9e565b50600d6000600860098111156200121e576200121d62002db0565b5b600981111562001233576200123262002db0565b5b81526020019081526020016000206040518060400160405280600460ff168152602001600360ff1681525090806001815401808255809150506001900390600052602060002090600202016000909190919091509060026200129792919062002c9e565b50600d600060086009811115620012b357620012b262002db0565b5b6009811115620012c857620012c762002db0565b5b81526020019081526020016000206040518060400160405280600560ff168152602001600360ff1681525090806001815401808255809150506001900390600052602060002090600202016000909190919091509060026200132c92919062002c9e565b50600d60006008600981111562001348576200134762002db0565b5b60098111156200135d576200135c62002db0565b5b81526020019081526020016000206040518060400160405280600260ff168152602001600460ff168152509080600181540180825580915050600190039060005260206000209060020201600090919091909150906002620013c192919062002c9e565b50600d600060086009811115620013dd57620013dc62002db0565b5b6009811115620013f257620013f162002db0565b5b81526020019081526020016000206040518060400160405280600360ff168152602001600460ff1681525090806001815401808255809150506001900390600052602060002090600202016000909190919091509060026200145692919062002c9e565b50600d60006008600981111562001472576200147162002db0565b5b600981111562001487576200148662002db0565b5b81526020019081526020016000206040518060400160405280600460ff168152602001600460ff168152509080600181540180825580915050600190039060005260206000209060020201600090919091909150906002620014eb92919062002c9e565b50600d60006008600981111562001507576200150662002db0565b5b60098111156200151c576200151b62002db0565b5b81526020019081526020016000206040518060400160405280600560ff168152602001600460ff1681525090806001815401808255809150506001900390600052602060002090600202016000909190919091509060026200158092919062002c9e565b50600d6000600860098111156200159c576200159b62002db0565b5b6009811115620015b157620015b062002db0565b5b81526020019081526020016000206040518060400160405280600260ff168152602001600560ff1681525090806001815401808255809150506001900390600052602060002090600202016000909190919091509060026200161592919062002c9e565b50600d60006008600981111562001631576200163062002db0565b5b600981111562001646576200164562002db0565b5b81526020019081526020016000206040518060400160405280600360ff168152602001600560ff168152509080600181540180825580915050600190039060005260206000209060020201600090919091909150906002620016aa92919062002c9e565b50600d600060086009811115620016c657620016c562002db0565b5b6009811115620016db57620016da62002db0565b5b81526020019081526020016000206040518060400160405280600460ff168152602001600560ff1681525090806001815401808255809150506001900390600052602060002090600202016000909190919091509060026200173f92919062002c9e565b50600d6000600860098111156200175b576200175a62002db0565b5b600981111562001770576200176f62002db0565b5b81526020019081526020016000206040518060400160405280600560ff168152602001600560ff168152509080600181540180825580915050600190039060005260206000209060020201600090919091909150906002620017d492919062002c9e565b50600d6000600980811115620017ef57620017ee62002db0565b5b600981111562001804576200180362002db0565b5b81526020019081526020016000206040518060400160405280600260ff168152602001600260ff1681525090806001815401808255809150506001900390600052602060002090600202016000909190919091509060026200186892919062002c9e565b50565b60001515601060009054906101000a900460ff16151514620018c4576040517f08c379a0000000000000000000000000000000000000000000000000000000008152600401620018bb9062002e55565b60405180910390fd5b6001601060006101000a81548160ff021916908315150217905550600f6000806009811115620018f957620018f862002db0565b5b60098111156200190e576200190d62002db0565b5b81526020019081526020016000206001016040518060a00160405280621e848063ffffffff168152602001600061ffff168152602001600061ffff168152602001603261ffff168152602001600f61ffff168152509080600181540180825580915050600190039060005260206000200160009091909190915060008201518160000160006101000a81548163ffffffff021916908363ffffffff16021790555060208201518160000160046101000a81548161ffff021916908361ffff16021790555060408201518160000160066101000a81548161ffff021916908361ffff16021790555060608201518160000160086101000a81548161ffff021916908361ffff160217905550608082015181600001600a6101000a81548161ffff021916908361ffff1602179055505050600f600080600981111562001a575762001a5662002db0565b5b600981111562001a6c5762001a6b62002db0565b5b81526020019081526020016000206001016040518060a00160405280621e848063ffffffff168152602001600061ffff168152602001600061ffff168152602001604661ffff168152602001601e61ffff168152509080600181540180825580915050600190039060005260206000200160009091909190915060008201518160000160006101000a81548163ffffffff021916908363ffffffff16021790555060208201518160000160046101000a81548161ffff021916908361ffff16021790555060408201518160000160066101000a81548161ffff021916908361ffff16021790555060608201518160000160086101000a81548161ffff021916908361ffff160217905550608082015181600001600a6101000a81548161ffff021916908361ffff1602179055505050600f60006001600981111562001bb65762001bb562002db0565b5b600981111562001bcb5762001bca62002db0565b5b81526020019081526020016000206001016040518060a001604052806216e36063ffffffff168152602001600061ffff168152602001600061ffff168152602001600061ffff168152602001601961ffff168152509080600181540180825580915050600190039060005260206000200160009091909190915060008201518160000160006101000a81548163ffffffff021916908363ffffffff16021790555060208201518160000160046101000a81548161ffff021916908361ffff16021790555060408201518160000160066101000a81548161ffff021916908361ffff16021790555060608201518160000160086101000a81548161ffff021916908361ffff160217905550608082015181600001600a6101000a81548161ffff021916908361ffff1602179055505050600f60006001600981111562001d155762001d1462002db0565b5b600981111562001d2a5762001d2962002db0565b5b81526020019081526020016000206001016040518060a001604052806216e36063ffffffff168152602001600061ffff168152602001600061ffff168152602001600061ffff168152602001602861ffff168152509080600181540180825580915050600190039060005260206000200160009091909190915060008201518160000160006101000a81548163ffffffff021916908363ffffffff16021790555060208201518160000160046101000a81548161ffff021916908361ffff16021790555060408201518160000160066101000a81548161ffff021916908361ffff16021790555060608201518160000160086101000a81548161ffff021916908361ffff160217905550608082015181600001600a6101000a81548161ffff021916908361ffff1602179055505050600f60006002600981111562001e745762001e7362002db0565b5b600981111562001e895762001e8862002db0565b5b81526020019081526020016000206001016040518060a001604052806207a12063ffffffff168152602001600061ffff168152602001600061ffff168152602001601461ffff168152602001600561ffff168152509080600181540180825580915050600190039060005260206000200160009091909190915060008201518160000160006101000a81548163ffffffff021916908363ffffffff16021790555060208201518160000160046101000a81548161ffff021916908361ffff16021790555060408201518160000160066101000a81548161ffff021916908361ffff16021790555060608201518160000160086101000a81548161ffff021916908361ffff160217905550608082015181600001600a6101000a81548161ffff021916908361ffff1602179055505050600f60006003600981111562001fd35762001fd262002db0565b5b600981111562001fe85762001fe762002db0565b5b81526020019081526020016000206001016040518060a0016040528061c35063ffffffff168152602001600061ffff168152602001600061ffff168152602001600061ffff168152602001600061ffff168152509080600181540180825580915050600190039060005260206000200160009091909190915060008201518160000160006101000a81548163ffffffff021916908363ffffffff16021790555060208201518160000160046101000a81548161ffff021916908361ffff16021790555060408201518160000160066101000a81548161ffff021916908361ffff16021790555060608201518160000160086101000a81548161ffff021916908361ffff160217905550608082015181600001600a6101000a81548161ffff021916908361ffff1602179055505050600f60006004600981111562002131576200213062002db0565b5b600981111562002146576200214562002db0565b5b81526020019081526020016000206001016040518060a00160405280619c4063ffffffff168152602001600861ffff168152602001600261ffff168152602001600061ffff168152602001600061ffff168152509080600181540180825580915050600190039060005260206000200160009091909190915060008201518160000160006101000a81548163ffffffff021916908363ffffffff16021790555060208201518160000160046101000a81548161ffff021916908361ffff16021790555060408201518160000160066101000a81548161ffff021916908361ffff16021790555060608201518160000160086101000a81548161ffff021916908361ffff160217905550608082015181600001600a6101000a81548161ffff021916908361ffff1602179055505050600f6000600460098111156200228f576200228e62002db0565b5b6009811115620022a457620022a362002db0565b5b81526020019081526020016000206001016040518060a00160405280619c4063ffffffff168152602001601461ffff168152602001600561ffff168152602001600061ffff168152602001600061ffff168152509080600181540180825580915050600190039060005260206000200160009091909190915060008201518160000160006101000a81548163ffffffff021916908363ffffffff16021790555060208201518160000160046101000a81548161ffff021916908361ffff16021790555060408201518160000160066101000a81548161ffff021916908361ffff16021790555060608201518160000160086101000a81548161ffff021916908361ffff160217905550608082015181600001600a6101000a81548161ffff021916908361ffff1602179055505050600f600060056009811115620023ed57620023ec62002db0565b5b600981111562002402576200240162002db0565b5b81526020019081526020016000206001016040518060a0016040528062030d4063ffffffff168152602001600261ffff168152602001600361ffff168152602001600061ffff168152602001600061ffff168152509080600181540180825580915050600190039060005260206000200160009091909190915060008201518160000160006101000a81548163ffffffff021916908363ffffffff16021790555060208201518160000160046101000a81548161ffff021916908361ffff16021790555060408201518160000160066101000a81548161ffff021916908361ffff16021790555060608201518160000160086101000a81548161ffff021916908361ffff160217905550608082015181600001600a6101000a81548161ffff021916908361ffff1602179055505050600f6000600560098111156200254c576200254b62002db0565b5b600981111562002561576200256062002db0565b5b81526020019081526020016000206001016040518060a0016040528062030d4063ffffffff168152602001600461ffff168152602001600761ffff168152602001600061ffff168152602001600061ffff168152509080600181540180825580915050600190039060005260206000200160009091909190915060008201518160000160006101000a81548163ffffffff021916908363ffffffff16021790555060208201518160000160046101000a81548161ffff021916908361ffff16021790555060408201518160000160066101000a81548161ffff021916908361ffff16021790555060608201518160000160086101000a81548161ffff021916908361ffff160217905550608082015181600001600a6101000a81548161ffff021916908361ffff1602179055505050600f600060066009811115620026ab57620026aa62002db0565b5b6009811115620026c057620026bf62002db0565b5b81526020019081526020016000206001016040518060a00160405280620186a063ffffffff168152602001600061ffff168152602001600061ffff168152602001600a61ffff168152602001600061ffff168152509080600181540180825580915050600190039060005260206000200160009091909190915060008201518160000160006101000a81548163ffffffff021916908363ffffffff16021790555060208201518160000160046101000a81548161ffff021916908361ffff16021790555060408201518160000160066101000a81548161ffff021916908361ffff16021790555060608201518160000160086101000a81548161ffff021916908361ffff160217905550608082015181600001600a6101000a81548161ffff021916908361ffff1602179055505050600f6000600760098111156200280a576200280962002db0565b5b60098111156200281f576200281e62002db0565b5b81526020019081526020016000206001016040518060a00160405280620493e063ffffffff168152602001600061ffff168152602001600061ffff168152602001601e61ffff168152602001600a61ffff168152509080600181540180825580915050600190039060005260206000200160009091909190915060008201518160000160006101000a81548163ffffffff021916908363ffffffff16021790555060208201518160000160046101000a81548161ffff021916908361ffff16021790555060408201518160000160066101000a81548161ffff021916908361ffff16021790555060608201518160000160086101000a81548161ffff021916908361ffff160217905550608082015181600001600a6101000a81548161ffff021916908361ffff1602179055505050600f60006008600981111562002969576200296862002db0565b5b60098111156200297e576200297d62002db0565b5b81526020019081526020016000206001016040518060a00160405280620493e063ffffffff168152602001600061ffff168152602001600061ffff168152602001601e61ffff168152602001600a61ffff168152509080600181540180825580915050600190039060005260206000200160009091909190915060008201518160000160006101000a81548163ffffffff021916908363ffffffff16021790555060208201518160000160046101000a81548161ffff021916908361ffff16021790555060408201518160000160066101000a81548161ffff021916908361ffff16021790555060608201518160000160086101000a81548161ffff021916908361ffff160217905550608082015181600001600a6101000a81548161ffff021916908361ffff1602179055505050600f600060098081111562002ac75762002ac662002db0565b5b600981111562002adc5762002adb62002db0565b5b81526020019081526020016000206001016040518060a0016040528062061a8063ffffffff168152602001600061ffff168152602001600061ffff168152602001600a61ffff168152602001600061ffff168152509080600181540180825580915050600190039060005260206000200160009091909190915060008201518160000160006101000a81548163ffffffff021916908363ffffffff16021790555060208201518160000160046101000a81548161ffff021916908361ffff16021790555060408201518160000160066101000a81548161ffff021916908361ffff16021790555060608201518160000160086101000a81548161ffff021916908361ffff160217905550608082015181600001600a6101000a81548161ffff021916908361ffff1602179055505050565b82805462002c1b9062002ea6565b90600052602060002090601f01602090048101928262002c3f576000855562002c8b565b82601f1062002c5a57805160ff191683800117855562002c8b565b8280016001018555821562002c8b579182015b8281111562002c8a57825182559160200191906001019062002c6d565b5b50905062002c9a919062002ce8565b5090565b826002810192821562002cd5579160200282015b8281111562002cd4578251829060ff1690559160200191906001019062002cb2565b5b50905062002ce4919062002ce8565b5090565b5b8082111562002d0357600081600090555060010162002ce9565b5090565b600082825260208201905092915050565b7f4275696c64696e672044696d656e73696f6e732061726520616c72656164792060008201527f696e697469616c697a6564000000000000000000000000000000000000000000602082015250565b600062002d76602b8362002d07565b915062002d838262002d18565b604082019050919050565b6000602082019050818103600083015262002da98162002d67565b9050919050565b7f4e487b7100000000000000000000000000000000000000000000000000000000600052602160045260246000fd5b7f546865207374617473206861766520616c7265616479206265656e20696e697460008201527f69616c697a656400000000000000000000000000000000000000000000000000602082015250565b600062002e3d60278362002d07565b915062002e4a8262002ddf565b604082019050919050565b6000602082019050818103600083015262002e708162002e2e565b9050919050565b7f4e487b7100000000000000000000000000000000000000000000000000000000600052602260045260246000fd5b6000600282049050600182168062002ebf57607f821691505b6020821081141562002ed65762002ed562002e77565b5b50919050565b6140ff8062002eec6000396000f3fe60806040526004361061012a5760003560e01c80634f6ccce7116100ab57806395d89b411161006f57806395d89b41146103e3578063a22cb4651461040e578063b88d4fde14610437578063c87b56dd14610460578063e985e9c51461049d578063f2fde38b146104da5761012a565b80634f6ccce7146102ea5780636352211e1461032757806370a0823114610364578063715018a6146103a15780638da5cb5b146103b85761012a565b806323b872dd116100f257806323b872dd146102285780632f745c591461025157806331c864e81461028e57806334918dfd146102aa57806342842e0e146102c15761012a565b806301ffc9a71461012f57806306fdde031461016c578063081812fc14610197578063095ea7b3146101d457806318160ddd146101fd575b600080fd5b34801561013b57600080fd5b5061015660048036038101906101519190612a62565b610503565b6040516101639190612aaa565b60405180910390f35b34801561017857600080fd5b50610181610515565b60405161018e9190612b5e565b60405180910390f35b3480156101a357600080fd5b506101be60048036038101906101b99190612bb6565b6105a7565b6040516101cb9190612c24565b60405180910390f35b3480156101e057600080fd5b506101fb60048036038101906101f69190612c6b565b61062c565b005b34801561020957600080fd5b50610212610744565b60405161021f9190612cba565b60405180910390f35b34801561023457600080fd5b5061024f600480360381019061024a9190612cd5565b610751565b005b34801561025d57600080fd5b5061027860048036038101906102739190612c6b565b6107b1565b6040516102859190612cba565b60405180910390f35b6102a860048036038101906102a39190612bb6565b610856565b005b3480156102b657600080fd5b506102bf610b1f565b005b3480156102cd57600080fd5b506102e860048036038101906102e39190612cd5565b610bc7565b005b3480156102f657600080fd5b50610311600480360381019061030c9190612bb6565b610be7565b60405161031e9190612cba565b60405180910390f35b34801561033357600080fd5b5061034e60048036038101906103499190612bb6565b610c58565b60405161035b9190612c24565b60405180910390f35b34801561037057600080fd5b5061038b60048036038101906103869190612d28565b610d0a565b6040516103989190612cba565b60405180910390f35b3480156103ad57600080fd5b506103b6610dc2565b005b3480156103c457600080fd5b506103cd610e4a565b6040516103da9190612c24565b60405180910390f35b3480156103ef57600080fd5b506103f8610e74565b6040516104059190612b5e565b60405180910390f35b34801561041a57600080fd5b5061043560048036038101906104309190612d81565b610f06565b005b34801561044357600080fd5b5061045e60048036038101906104599190612ef6565b610f1c565b005b34801561046c57600080fd5b5061048760048036038101906104829190612bb6565b610f7e565b6040516104949190612b5e565b60405180910390f35b3480156104a957600080fd5b506104c460048036038101906104bf9190612f79565b610f90565b6040516104d19190612aaa565b60405180910390f35b3480156104e657600080fd5b5061050160048036038101906104fc9190612d28565b611024565b005b600061050e8261111c565b9050919050565b60606000805461052490612fe8565b80601f016020809104026020016040519081016040528092919081815260200182805461055090612fe8565b801561059d5780601f106105725761010080835404028352916020019161059d565b820191906000526020600020905b81548152906001019060200180831161058057829003601f168201915b5050505050905090565b60006105b282611196565b6105f1576040517f08c379a00000000000000000000000000000000000000000000000000000000081526004016105e89061308c565b60405180910390fd5b6004600083815260200190815260200160002060009054906101000a900473ffffffffffffffffffffffffffffffffffffffff169050919050565b600061063782610c58565b90508073ffffffffffffffffffffffffffffffffffffffff168373ffffffffffffffffffffffffffffffffffffffff1614156106a8576040517f08c379a000000000000000000000000000000000000000000000000000000000815260040161069f9061311e565b60405180910390fd5b8073ffffffffffffffffffffffffffffffffffffffff166106c7611202565b73ffffffffffffffffffffffffffffffffffffffff1614806106f657506106f5816106f0611202565b610f90565b5b610735576040517f08c379a000000000000000000000000000000000000000000000000000000000815260040161072c906131b0565b60405180910390fd5b61073f838361120a565b505050565b6000600880549050905090565b61076261075c611202565b826112c3565b6107a1576040517f08c379a000000000000000000000000000000000000000000000000000000000815260040161079890613242565b60405180910390fd5b6107ac8383836113a1565b505050565b60006107bc83610d0a565b82106107fd576040517f08c379a00000000000000000000000000000000000000000000000000000000081526004016107f4906132d4565b60405180910390fd5b600660008473ffffffffffffffffffffffffffffffffffffffff1673ffffffffffffffffffffffffffffffffffffffff168152602001908152602001600020600083815260200190815260200160002054905092915050565b601360009054906101000a900460ff166108a5576040517f08c379a000000000000000000000000000000000000000000000000000000000815260040161089c90613366565b60405180910390fd5b6014548111156108ea576040517f08c379a00000000000000000000000000000000000000000000000000000000081526004016108e1906133f8565b60405180910390fd5b601554610907826108f9610744565b6115fd90919063ffffffff16565b1115610948576040517f08c379a000000000000000000000000000000000000000000000000000000000815260040161093f9061348a565b60405180910390fd5b3461095e8260125461161390919063ffffffff16565b111561099f576040517f08c379a0000000000000000000000000000000000000000000000000000000008152600401610996906134f6565b60405180910390fd5b60006109ab6011611629565b90506109b76011611637565b6109d56016600083815260200190815260200160002060000161164d565b601760009054906101000a90046fffffffffffffffffffffffffffffffff166016600083815260200190815260200160002060010160006101000a8154816fffffffffffffffffffffffffffffffff02191690836fffffffffffffffffffffffffffffffff160217905550610a5e60166000838152602001908152602001600020600001611927565b6016600083815260200190815260200160002060010160106101000a8154816fffffffffffffffffffffffffffffffff02191690836fffffffffffffffffffffffffffffffff160217905550336016600083815260200190815260200160002060020160006101000a81548173ffffffffffffffffffffffffffffffffffffffff021916908373ffffffffffffffffffffffffffffffffffffffff160217905550610b09338261195c565b610b1b81610b168361197a565b611adb565b5050565b610b27611202565b73ffffffffffffffffffffffffffffffffffffffff16610b45610e4a565b73ffffffffffffffffffffffffffffffffffffffff1614610b9b576040517f08c379a0000000000000000000000000000000000000000000000000000000008152600401610b9290613562565b60405180910390fd5b601360009054906101000a900460ff1615601360006101000a81548160ff021916908315150217905550565b610be283838360405180602001604052806000815250610f1c565b505050565b6000610bf1610744565b8210610c32576040517f08c379a0000000000000000000000000000000000000000000000000000000008152600401610c29906135f4565b60405180910390fd5b60088281548110610c4657610c45613614565b5b90600052602060002001549050919050565b6000806002600084815260200190815260200160002060009054906101000a900473ffffffffffffffffffffffffffffffffffffffff169050600073ffffffffffffffffffffffffffffffffffffffff168173ffffffffffffffffffffffffffffffffffffffff161415610d01576040517f08c379a0000000000000000000000000000000000000000000000000000000008152600401610cf8906136b5565b60405180910390fd5b80915050919050565b60008073ffffffffffffffffffffffffffffffffffffffff168273ffffffffffffffffffffffffffffffffffffffff161415610d7b576040517f08c379a0000000000000000000000000000000000000000000000000000000008152600401610d7290613747565b60405180910390fd5b600360008373ffffffffffffffffffffffffffffffffffffffff1673ffffffffffffffffffffffffffffffffffffffff168152602001908152602001600020549050919050565b610dca611202565b73ffffffffffffffffffffffffffffffffffffffff16610de8610e4a565b73ffffffffffffffffffffffffffffffffffffffff1614610e3e576040517f08c379a0000000000000000000000000000000000000000000000000000000008152600401610e3590613562565b60405180910390fd5b610e486000611b4f565b565b6000600b60009054906101000a900473ffffffffffffffffffffffffffffffffffffffff16905090565b606060018054610e8390612fe8565b80601f0160208091040260200160405190810160405280929190818152602001828054610eaf90612fe8565b8015610efc5780601f10610ed157610100808354040283529160200191610efc565b820191906000526020600020905b815481529060010190602001808311610edf57829003601f168201915b5050505050905090565b610f18610f11611202565b8383611c15565b5050565b610f2d610f27611202565b836112c3565b610f6c576040517f08c379a0000000000000000000000000000000000000000000000000000000008152600401610f6390613242565b60405180910390fd5b610f7884848484611d82565b50505050565b6060610f8982611dde565b9050919050565b6000600560008473ffffffffffffffffffffffffffffffffffffffff1673ffffffffffffffffffffffffffffffffffffffff16815260200190815260200160002060008373ffffffffffffffffffffffffffffffffffffffff1673ffffffffffffffffffffffffffffffffffffffff16815260200190815260200160002060009054906101000a900460ff16905092915050565b61102c611202565b73ffffffffffffffffffffffffffffffffffffffff1661104a610e4a565b73ffffffffffffffffffffffffffffffffffffffff16146110a0576040517f08c379a000000000000000000000000000000000000000000000000000000000815260040161109790613562565b60405180910390fd5b600073ffffffffffffffffffffffffffffffffffffffff168173ffffffffffffffffffffffffffffffffffffffff161415611110576040517f08c379a0000000000000000000000000000000000000000000000000000000008152600401611107906137d9565b60405180910390fd5b61111981611b4f565b50565b60007f780e9d63000000000000000000000000000000000000000000000000000000007bffffffffffffffffffffffffffffffffffffffffffffffffffffffff1916827bffffffffffffffffffffffffffffffffffffffffffffffffffffffff1916148061118f575061118e82611f30565b5b9050919050565b60008073ffffffffffffffffffffffffffffffffffffffff166002600084815260200190815260200160002060009054906101000a900473ffffffffffffffffffffffffffffffffffffffff1673ffffffffffffffffffffffffffffffffffffffff1614159050919050565b600033905090565b816004600083815260200190815260200160002060006101000a81548173ffffffffffffffffffffffffffffffffffffffff021916908373ffffffffffffffffffffffffffffffffffffffff160217905550808273ffffffffffffffffffffffffffffffffffffffff1661127d83610c58565b73ffffffffffffffffffffffffffffffffffffffff167f8c5be1e5ebec7d5bd14f71427d1e84f3dd0314c0f7b2291e5b200ac8c7c3b92560405160405180910390a45050565b60006112ce82611196565b61130d576040517f08c379a00000000000000000000000000000000000000000000000000000000081526004016113049061386b565b60405180910390fd5b600061131883610c58565b90508073ffffffffffffffffffffffffffffffffffffffff168473ffffffffffffffffffffffffffffffffffffffff16148061138757508373ffffffffffffffffffffffffffffffffffffffff1661136f846105a7565b73ffffffffffffffffffffffffffffffffffffffff16145b8061139857506113978185610f90565b5b91505092915050565b8273ffffffffffffffffffffffffffffffffffffffff166113c182610c58565b73ffffffffffffffffffffffffffffffffffffffff1614611417576040517f08c379a000000000000000000000000000000000000000000000000000000000815260040161140e906138fd565b60405180910390fd5b600073ffffffffffffffffffffffffffffffffffffffff168273ffffffffffffffffffffffffffffffffffffffff161415611487576040517f08c379a000000000000000000000000000000000000000000000000000000000815260040161147e9061398f565b60405180910390fd5b611492838383612012565b61149d60008261120a565b6001600360008573ffffffffffffffffffffffffffffffffffffffff1673ffffffffffffffffffffffffffffffffffffffff16815260200190815260200160002060008282546114ed91906139de565b925050819055506001600360008473ffffffffffffffffffffffffffffffffffffffff1673ffffffffffffffffffffffffffffffffffffffff16815260200190815260200160002060008282546115449190613a12565b92505081905550816002600083815260200190815260200160002060006101000a81548173ffffffffffffffffffffffffffffffffffffffff021916908373ffffffffffffffffffffffffffffffffffffffff160217905550808273ffffffffffffffffffffffffffffffffffffffff168473ffffffffffffffffffffffffffffffffffffffff167fddf252ad1be2c89b69c2b068fc378daa952ba7f163c4a11628f55a4df523b3ef60405160405180910390a4505050565b6000818361160b9190613a12565b905092915050565b600081836116219190613a68565b905092915050565b600081600001549050919050565b6001816000016000828254019250508190555050565b6040518060c001604052806005600981111561166c5761166b613ac2565b5b8152602001600163ffffffff168152602001600163ffffffff168152602001600163ffffffff168152602001600163ffffffff168152602001600063ffffffff1681525081600080815260200190815260200160002060008201518160000160006101000a81548160ff021916908360098111156116ed576116ec613ac2565b5b021790555060208201518160000160016101000a81548163ffffffff021916908363ffffffff16021790555060408201518160000160056101000a81548163ffffffff021916908363ffffffff16021790555060608201518160000160096101000a81548163ffffffff021916908363ffffffff160217905550608082015181600001600d6101000a81548163ffffffff021916908363ffffffff16021790555060a08201518160000160116101000a81548163ffffffff021916908363ffffffff1602179055509050506040518060c00160405280600560098111156117d7576117d6613ac2565b5b8152602001600b63ffffffff168152602001600b63ffffffff168152602001600b63ffffffff168152602001600b63ffffffff168152602001600063ffffffff168152508160006001815260200190815260200160002060008201518160000160006101000a81548160ff0219169083600981111561185957611858613ac2565b5b021790555060208201518160000160016101000a81548163ffffffff021916908363ffffffff16021790555060408201518160000160056101000a81548163ffffffff021916908363ffffffff16021790555060608201518160000160096101000a81548163ffffffff021916908363ffffffff160217905550608082015181600001600d6101000a81548163ffffffff021916908363ffffffff16021790555060a08201518160000160116101000a81548163ffffffff021916908363ffffffff16021790555090505050565b600081600080815260200190815260200160002060000160019054906101000a900463ffffffff1663ffffffff169050919050565b611976828260405180602001604052806000815250612022565b5050565b606060008214156119c2576040518060400160405280600181526020017f30000000000000000000000000000000000000000000000000000000000000008152509050611ad6565b600082905060005b600082146119f45780806119dd90613af1565b915050600a826119ed9190613b69565b91506119ca565b60008167ffffffffffffffff811115611a1057611a0f612dcb565b5b6040519080825280601f01601f191660200182016040528015611a425781602001600182028036833780820191505090505b5090505b60008514611acf57600182611a5b91906139de565b9150600a85611a6a9190613b9a565b6030611a769190613a12565b60f81b818381518110611a8c57611a8b613614565b5b60200101907effffffffffffffffffffffffffffffffffffffffffffffffffffffffffffff1916908160001a905350600a85611ac89190613b69565b9450611a46565b8093505050505b919050565b611ae482611196565b611b23576040517f08c379a0000000000000000000000000000000000000000000000000000000008152600401611b1a90613c3d565b60405180910390fd5b80600a60008481526020019081526020016000209080519060200190611b4a929190612953565b505050565b6000600b60009054906101000a900473ffffffffffffffffffffffffffffffffffffffff16905081600b60006101000a81548173ffffffffffffffffffffffffffffffffffffffff021916908373ffffffffffffffffffffffffffffffffffffffff1602179055508173ffffffffffffffffffffffffffffffffffffffff168173ffffffffffffffffffffffffffffffffffffffff167f8be0079c531659141344cd1fd0a4f28419497f9722a3daafe3b4186f6b6457e060405160405180910390a35050565b8173ffffffffffffffffffffffffffffffffffffffff168373ffffffffffffffffffffffffffffffffffffffff161415611c84576040517f08c379a0000000000000000000000000000000000000000000000000000000008152600401611c7b90613ca9565b60405180910390fd5b80600560008573ffffffffffffffffffffffffffffffffffffffff1673ffffffffffffffffffffffffffffffffffffffff16815260200190815260200160002060008473ffffffffffffffffffffffffffffffffffffffff1673ffffffffffffffffffffffffffffffffffffffff16815260200190815260200160002060006101000a81548160ff0219169083151502179055508173ffffffffffffffffffffffffffffffffffffffff168373ffffffffffffffffffffffffffffffffffffffff167f17307eab39ab6107e8899845ad3d59bd9653f200f220920489ca2b5937696c3183604051611d759190612aaa565b60405180910390a3505050565b611d8d8484846113a1565b611d998484848461207d565b611dd8576040517f08c379a0000000000000000000000000000000000000000000000000000000008152600401611dcf90613d3b565b60405180910390fd5b50505050565b6060611de982611196565b611e28576040517f08c379a0000000000000000000000000000000000000000000000000000000008152600401611e1f90613dcd565b60405180910390fd5b6000600a60008481526020019081526020016000208054611e4890612fe8565b80601f0160208091040260200160405190810160405280929190818152602001828054611e7490612fe8565b8015611ec15780601f10611e9657610100808354040283529160200191611ec1565b820191906000526020600020905b815481529060010190602001808311611ea457829003601f168201915b505050505090506000611ed2612205565b9050600081511415611ee8578192505050611f2b565b600082511115611f1d578082604051602001611f05929190613e29565b60405160208183030381529060405292505050611f2b565b611f2684612242565b925050505b919050565b60007f80ac58cd000000000000000000000000000000000000000000000000000000007bffffffffffffffffffffffffffffffffffffffffffffffffffffffff1916827bffffffffffffffffffffffffffffffffffffffffffffffffffffffff19161480611ffb57507f5b5e139f000000000000000000000000000000000000000000000000000000007bffffffffffffffffffffffffffffffffffffffffffffffffffffffff1916827bffffffffffffffffffffffffffffffffffffffffffffffffffffffff1916145b8061200b575061200a826122e9565b5b9050919050565b61201d838383612353565b505050565b61202c8383612467565b612039600084848461207d565b612078576040517f08c379a000000000000000000000000000000000000000000000000000000000815260040161206f90613d3b565b60405180910390fd5b505050565b600061209e8473ffffffffffffffffffffffffffffffffffffffff16612635565b156121f8578373ffffffffffffffffffffffffffffffffffffffff1663150b7a026120c7611202565b8786866040518563ffffffff1660e01b81526004016120e99493929190613ea2565b6020604051808303816000875af192505050801561212557506040513d601f19601f820116820180604052508101906121229190613f03565b60015b6121a8573d8060008114612155576040519150601f19603f3d011682016040523d82523d6000602084013e61215a565b606091505b506000815114156121a0576040517f08c379a000000000000000000000000000000000000000000000000000000000815260040161219790613d3b565b60405180910390fd5b805181602001fd5b63150b7a0260e01b7bffffffffffffffffffffffffffffffffffffffffffffffffffffffff1916817bffffffffffffffffffffffffffffffffffffffffffffffffffffffff1916149150506121fd565b600190505b949350505050565b60606040518060400160405280601c81526020017f687474703a2f2f6c6f63616c686f73743a333030302f63697469657300000000815250905090565b606061224d82611196565b61228c576040517f08c379a000000000000000000000000000000000000000000000000000000000815260040161228390613fa2565b60405180910390fd5b6000612296612205565b905060008151116122b657604051806020016040528060008152506122e1565b806122c08461197a565b6040516020016122d1929190613e29565b6040516020818303038152906040525b915050919050565b60007f01ffc9a7000000000000000000000000000000000000000000000000000000007bffffffffffffffffffffffffffffffffffffffffffffffffffffffff1916827bffffffffffffffffffffffffffffffffffffffffffffffffffffffff1916149050919050565b61235e838383612648565b600073ffffffffffffffffffffffffffffffffffffffff168373ffffffffffffffffffffffffffffffffffffffff1614156123a15761239c8161264d565b6123e0565b8173ffffffffffffffffffffffffffffffffffffffff168373ffffffffffffffffffffffffffffffffffffffff16146123df576123de8382612696565b5b5b600073ffffffffffffffffffffffffffffffffffffffff168273ffffffffffffffffffffffffffffffffffffffff1614156124235761241e81612803565b612462565b8273ffffffffffffffffffffffffffffffffffffffff168273ffffffffffffffffffffffffffffffffffffffff16146124615761246082826128d4565b5b5b505050565b600073ffffffffffffffffffffffffffffffffffffffff168273ffffffffffffffffffffffffffffffffffffffff1614156124d7576040517f08c379a00000000000000000000000000000000000000000000000000000000081526004016124ce9061400e565b60405180910390fd5b6124e081611196565b15612520576040517f08c379a00000000000000000000000000000000000000000000000000000000081526004016125179061407a565b60405180910390fd5b61252c60008383612012565b6001600360008473ffffffffffffffffffffffffffffffffffffffff1673ffffffffffffffffffffffffffffffffffffffff168152602001908152602001600020600082825461257c9190613a12565b92505081905550816002600083815260200190815260200160002060006101000a81548173ffffffffffffffffffffffffffffffffffffffff021916908373ffffffffffffffffffffffffffffffffffffffff160217905550808273ffffffffffffffffffffffffffffffffffffffff16600073ffffffffffffffffffffffffffffffffffffffff167fddf252ad1be2c89b69c2b068fc378daa952ba7f163c4a11628f55a4df523b3ef60405160405180910390a45050565b600080823b905060008111915050919050565b505050565b6008805490506009600083815260200190815260200160002081905550600881908060018154018082558091505060019003906000526020600020016000909190919091505550565b600060016126a384610d0a565b6126ad91906139de565b9050600060076000848152602001908152602001600020549050818114612792576000600660008673ffffffffffffffffffffffffffffffffffffffff1673ffffffffffffffffffffffffffffffffffffffff168152602001908152602001600020600084815260200190815260200160002054905080600660008773ffffffffffffffffffffffffffffffffffffffff1673ffffffffffffffffffffffffffffffffffffffff168152602001908152602001600020600084815260200190815260200160002081905550816007600083815260200190815260200160002081905550505b6007600084815260200190815260200160002060009055600660008573ffffffffffffffffffffffffffffffffffffffff1673ffffffffffffffffffffffffffffffffffffffff16815260200190815260200160002060008381526020019081526020016000206000905550505050565b6000600160088054905061281791906139de565b905060006009600084815260200190815260200160002054905060006008838154811061284757612846613614565b5b90600052602060002001549050806008838154811061286957612868613614565b5b9060005260206000200181905550816009600083815260200190815260200160002081905550600960008581526020019081526020016000206000905560088054806128b8576128b761409a565b5b6001900381819060005260206000200160009055905550505050565b60006128df83610d0a565b905081600660008573ffffffffffffffffffffffffffffffffffffffff1673ffffffffffffffffffffffffffffffffffffffff168152602001908152602001600020600083815260200190815260200160002081905550806007600084815260200190815260200160002081905550505050565b82805461295f90612fe8565b90600052602060002090601f01602090048101928261298157600085556129c8565b82601f1061299a57805160ff19168380011785556129c8565b828001600101855582156129c8579182015b828111156129c75782518255916020019190600101906129ac565b5b5090506129d591906129d9565b5090565b5b808211156129f25760008160009055506001016129da565b5090565b6000604051905090565b600080fd5b600080fd5b60007fffffffff0000000000000000000000000000000000000000000000000000000082169050919050565b612a3f81612a0a565b8114612a4a57600080fd5b50565b600081359050612a5c81612a36565b92915050565b600060208284031215612a7857612a77612a00565b5b6000612a8684828501612a4d565b91505092915050565b60008115159050919050565b612aa481612a8f565b82525050565b6000602082019050612abf6000830184612a9b565b92915050565b600081519050919050565b600082825260208201905092915050565b60005b83811015612aff578082015181840152602081019050612ae4565b83811115612b0e576000848401525b50505050565b6000601f19601f8301169050919050565b6000612b3082612ac5565b612b3a8185612ad0565b9350612b4a818560208601612ae1565b612b5381612b14565b840191505092915050565b60006020820190508181036000830152612b788184612b25565b905092915050565b6000819050919050565b612b9381612b80565b8114612b9e57600080fd5b50565b600081359050612bb081612b8a565b92915050565b600060208284031215612bcc57612bcb612a00565b5b6000612bda84828501612ba1565b91505092915050565b600073ffffffffffffffffffffffffffffffffffffffff82169050919050565b6000612c0e82612be3565b9050919050565b612c1e81612c03565b82525050565b6000602082019050612c396000830184612c15565b92915050565b612c4881612c03565b8114612c5357600080fd5b50565b600081359050612c6581612c3f565b92915050565b60008060408385031215612c8257612c81612a00565b5b6000612c9085828601612c56565b9250506020612ca185828601612ba1565b9150509250929050565b612cb481612b80565b82525050565b6000602082019050612ccf6000830184612cab565b92915050565b600080600060608486031215612cee57612ced612a00565b5b6000612cfc86828701612c56565b9350506020612d0d86828701612c56565b9250506040612d1e86828701612ba1565b9150509250925092565b600060208284031215612d3e57612d3d612a00565b5b6000612d4c84828501612c56565b91505092915050565b612d5e81612a8f565b8114612d6957600080fd5b50565b600081359050612d7b81612d55565b92915050565b60008060408385031215612d9857612d97612a00565b5b6000612da685828601612c56565b9250506020612db785828601612d6c565b9150509250929050565b600080fd5b600080fd5b7f4e487b7100000000000000000000000000000000000000000000000000000000600052604160045260246000fd5b612e0382612b14565b810181811067ffffffffffffffff82111715612e2257612e21612dcb565b5b80604052505050565b6000612e356129f6565b9050612e418282612dfa565b919050565b600067ffffffffffffffff821115612e6157612e60612dcb565b5b612e6a82612b14565b9050602081019050919050565b82818337600083830152505050565b6000612e99612e9484612e46565b612e2b565b905082815260208101848484011115612eb557612eb4612dc6565b5b612ec0848285612e77565b509392505050565b600082601f830112612edd57612edc612dc1565b5b8135612eed848260208601612e86565b91505092915050565b60008060008060808587031215612f1057612f0f612a00565b5b6000612f1e87828801612c56565b9450506020612f2f87828801612c56565b9350506040612f4087828801612ba1565b925050606085013567ffffffffffffffff811115612f6157612f60612a05565b5b612f6d87828801612ec8565b91505092959194509250565b60008060408385031215612f9057612f8f612a00565b5b6000612f9e85828601612c56565b9250506020612faf85828601612c56565b9150509250929050565b7f4e487b7100000000000000000000000000000000000000000000000000000000600052602260045260246000fd5b6000600282049050600182168061300057607f821691505b6020821081141561301457613013612fb9565b5b50919050565b7f4552433732313a20617070726f76656420717565727920666f72206e6f6e657860008201527f697374656e7420746f6b656e0000000000000000000000000000000000000000602082015250565b6000613076602c83612ad0565b91506130818261301a565b604082019050919050565b600060208201905081810360008301526130a581613069565b9050919050565b7f4552433732313a20617070726f76616c20746f2063757272656e74206f776e6560008201527f7200000000000000000000000000000000000000000000000000000000000000602082015250565b6000613108602183612ad0565b9150613113826130ac565b604082019050919050565b60006020820190508181036000830152613137816130fb565b9050919050565b7f4552433732313a20617070726f76652063616c6c6572206973206e6f74206f7760008201527f6e6572206e6f7220617070726f76656420666f7220616c6c0000000000000000602082015250565b600061319a603883612ad0565b91506131a58261313e565b604082019050919050565b600060208201905081810360008301526131c98161318d565b9050919050565b7f4552433732313a207472616e736665722063616c6c6572206973206e6f74206f60008201527f776e6572206e6f7220617070726f766564000000000000000000000000000000602082015250565b600061322c603183612ad0565b9150613237826131d0565b604082019050919050565b6000602082019050818103600083015261325b8161321f565b9050919050565b7f455243373231456e756d657261626c653a206f776e657220696e646578206f7560008201527f74206f6620626f756e6473000000000000000000000000000000000000000000602082015250565b60006132be602b83612ad0565b91506132c982613262565b604082019050919050565b600060208201905081810360008301526132ed816132b1565b9050919050565b7f53616c65206d7573742062652061637469766520746f206d696e74206120436960008201527f7479204e46540000000000000000000000000000000000000000000000000000602082015250565b6000613350602683612ad0565b915061335b826132f4565b604082019050919050565b6000602082019050818103600083015261337f81613343565b9050919050565b7f43616e206f6e6c79206d696e7420313020746f6b656e7320617420612074696d60008201527f6500000000000000000000000000000000000000000000000000000000000000602082015250565b60006133e2602183612ad0565b91506133ed82613386565b604082019050919050565b60006020820190508181036000830152613411816133d5565b9050919050565b7f507572636861736520776f756c6420657863656564206d6178206e756d62657260008201527f206f662043697479204e46547300000000000000000000000000000000000000602082015250565b6000613474602d83612ad0565b915061347f82613418565b604082019050919050565b600060208201905081810360008301526134a381613467565b9050919050565b7f45746865722076616c75652073656e74206973206e6f7420636f727265637400600082015250565b60006134e0601f83612ad0565b91506134eb826134aa565b602082019050919050565b6000602082019050818103600083015261350f816134d3565b9050919050565b7f4f776e61626c653a2063616c6c6572206973206e6f7420746865206f776e6572600082015250565b600061354c602083612ad0565b915061355782613516565b602082019050919050565b6000602082019050818103600083015261357b8161353f565b9050919050565b7f455243373231456e756d657261626c653a20676c6f62616c20696e646578206f60008201527f7574206f6620626f756e64730000000000000000000000000000000000000000602082015250565b60006135de602c83612ad0565b91506135e982613582565b604082019050919050565b6000602082019050818103600083015261360d816135d1565b9050919050565b7f4e487b7100000000000000000000000000000000000000000000000000000000600052603260045260246000fd5b7f4552433732313a206f776e657220717565727920666f72206e6f6e657869737460008201527f656e7420746f6b656e0000000000000000000000000000000000000000000000602082015250565b600061369f602983612ad0565b91506136aa82613643565b604082019050919050565b600060208201905081810360008301526136ce81613692565b9050919050565b7f4552433732313a2062616c616e636520717565727920666f7220746865207a6560008201527f726f206164647265737300000000000000000000000000000000000000000000602082015250565b6000613731602a83612ad0565b915061373c826136d5565b604082019050919050565b6000602082019050818103600083015261376081613724565b9050919050565b7f4f776e61626c653a206e6577206f776e657220697320746865207a65726f206160008201527f6464726573730000000000000000000000000000000000000000000000000000602082015250565b60006137c3602683612ad0565b91506137ce82613767565b604082019050919050565b600060208201905081810360008301526137f2816137b6565b9050919050565b7f4552433732313a206f70657261746f7220717565727920666f72206e6f6e657860008201527f697374656e7420746f6b656e0000000000000000000000000000000000000000602082015250565b6000613855602c83612ad0565b9150613860826137f9565b604082019050919050565b6000602082019050818103600083015261388481613848565b9050919050565b7f4552433732313a207472616e73666572206f6620746f6b656e2074686174206960008201527f73206e6f74206f776e0000000000000000000000000000000000000000000000602082015250565b60006138e7602983612ad0565b91506138f28261388b565b604082019050919050565b60006020820190508181036000830152613916816138da565b9050919050565b7f4552433732313a207472616e7366657220746f20746865207a65726f2061646460008201527f7265737300000000000000000000000000000000000000000000000000000000602082015250565b6000613979602483612ad0565b91506139848261391d565b604082019050919050565b600060208201905081810360008301526139a88161396c565b9050919050565b7f4e487b7100000000000000000000000000000000000000000000000000000000600052601160045260246000fd5b60006139e982612b80565b91506139f483612b80565b925082821015613a0757613a066139af565b5b828203905092915050565b6000613a1d82612b80565b9150613a2883612b80565b9250827fffffffffffffffffffffffffffffffffffffffffffffffffffffffffffffffff03821115613a5d57613a5c6139af565b5b828201905092915050565b6000613a7382612b80565b9150613a7e83612b80565b9250817fffffffffffffffffffffffffffffffffffffffffffffffffffffffffffffffff0483118215151615613ab757613ab66139af565b5b828202905092915050565b7f4e487b7100000000000000000000000000000000000000000000000000000000600052602160045260246000fd5b6000613afc82612b80565b91507fffffffffffffffffffffffffffffffffffffffffffffffffffffffffffffffff821415613b2f57613b2e6139af565b5b600182019050919050565b7f4e487b7100000000000000000000000000000000000000000000000000000000600052601260045260246000fd5b6000613b7482612b80565b9150613b7f83612b80565b925082613b8f57613b8e613b3a565b5b828204905092915050565b6000613ba582612b80565b9150613bb083612b80565b925082613bc057613bbf613b3a565b5b828206905092915050565b7f45524337323155524953746f726167653a2055524920736574206f66206e6f6e60008201527f6578697374656e7420746f6b656e000000000000000000000000000000000000602082015250565b6000613c27602e83612ad0565b9150613c3282613bcb565b604082019050919050565b60006020820190508181036000830152613c5681613c1a565b9050919050565b7f4552433732313a20617070726f766520746f2063616c6c657200000000000000600082015250565b6000613c93601983612ad0565b9150613c9e82613c5d565b602082019050919050565b60006020820190508181036000830152613cc281613c86565b9050919050565b7f4552433732313a207472616e7366657220746f206e6f6e20455243373231526560008201527f63656976657220696d706c656d656e7465720000000000000000000000000000602082015250565b6000613d25603283612ad0565b9150613d3082613cc9565b604082019050919050565b60006020820190508181036000830152613d5481613d18565b9050919050565b7f45524337323155524953746f726167653a2055524920717565727920666f722060008201527f6e6f6e6578697374656e7420746f6b656e000000000000000000000000000000602082015250565b6000613db7603183612ad0565b9150613dc282613d5b565b604082019050919050565b60006020820190508181036000830152613de681613daa565b9050919050565b600081905092915050565b6000613e0382612ac5565b613e0d8185613ded565b9350613e1d818560208601612ae1565b80840191505092915050565b6000613e358285613df8565b9150613e418284613df8565b91508190509392505050565b600081519050919050565b600082825260208201905092915050565b6000613e7482613e4d565b613e7e8185613e58565b9350613e8e818560208601612ae1565b613e9781612b14565b840191505092915050565b6000608082019050613eb76000830187612c15565b613ec46020830186612c15565b613ed16040830185612cab565b8181036060830152613ee38184613e69565b905095945050505050565b600081519050613efd81612a36565b92915050565b600060208284031215613f1957613f18612a00565b5b6000613f2784828501613eee565b91505092915050565b7f4552433732314d657461646174613a2055524920717565727920666f72206e6f60008201527f6e6578697374656e7420746f6b656e0000000000000000000000000000000000602082015250565b6000613f8c602f83612ad0565b9150613f9782613f30565b604082019050919050565b60006020820190508181036000830152613fbb81613f7f565b9050919050565b7f4552433732313a206d696e7420746f20746865207a65726f2061646472657373600082015250565b6000613ff8602083612ad0565b915061400382613fc2565b602082019050919050565b6000602082019050818103600083015261402781613feb565b9050919050565b7f4552433732313a20746f6b656e20616c7265616479206d696e74656400000000600082015250565b6000614064601c83612ad0565b915061406f8261402e565b602082019050919050565b6000602082019050818103600083015261409381614057565b9050919050565b7f4e487b7100000000000000000000000000000000000000000000000000000000600052603160045260246000fdfea2646970667358221220c5b2293e992af2dc3170fecc3edafefbd167fbfae3bab3fff45cb9c8353d4ebc64736f6c634300080b0033",
  "immutableReferences": {},
  "source": "// SPDX-License-Identifier: MIT\r\npragma solidity ^0.8.11;\r\n\r\nimport \"../node_modules/@openzeppelin/contracts/token/ERC721/ERC721.sol\";\r\nimport \"../node_modules/@openzeppelin/contracts/token/ERC721/extensions/ERC721Enumerable.sol\";\r\nimport \"../node_modules/@openzeppelin/contracts/token/ERC721/extensions/ERC721URIStorage.sol\";\r\nimport \"../node_modules/@openzeppelin/contracts/access/Ownable.sol\";\r\nimport \"../node_modules/@openzeppelin/contracts/utils/Counters.sol\";\r\nimport \"../node_modules/@openzeppelin/contracts/utils/math/SafeMath.sol\";\r\nimport \"../node_modules/@openzeppelin/contracts/utils/Strings.sol\";\r\n\r\nimport \"./Utils.sol\";\r\n\r\n/// TREBAM DA VRATIM FAJLOVE CONTRACTOVA KOJE SAM PRIVREMENO SKLONIO DOK SAM DEBAGOVAO, NALAZE SE U NFT PROJECT FOLERU!!!\r\n\r\ncontract CityBuilders is ERC721, ERC721Enumerable, ERC721URIStorage, Ownable, Utils {\r\n    using Counters for Counters.Counter;\r\n    using SafeMath for uint256;\r\n\r\n    Counters.Counter private _tokenIdCounter;\r\n\r\n    constructor() ERC721(\"CityBuilders\", \"CTB\") {}\r\n\r\n    uint mintingPrice = 0.1 ether;\r\n    bool saleIsActive = false;\r\n    uint maxMintTokens = 10;\r\n    uint MAX_CITIES = 10000;\r\n\r\n    mapping(uint => City) cities;\r\n    uint128 startingMoney = 100000;\r\n\r\n    function _baseURI() internal pure override returns (string memory) {\r\n        return \"http://localhost:3000/cities\";\r\n    }\r\n\r\n    function safeMint(uint numOfTokens) public payable {\r\n        require(saleIsActive, \"Sale must be active to mint a City NFT\");\r\n        require(numOfTokens <= maxMintTokens, \"Can only mint 10 tokens at a time\");\r\n        require(totalSupply().add(numOfTokens) <= MAX_CITIES, \"Purchase would exceed max number of City NFTs\");\r\n        require(mintingPrice.mul(numOfTokens) <= msg.value, \"Ether value sent is not correct\");\r\n\r\n        uint256 tokenId = _tokenIdCounter.current();\r\n        _tokenIdCounter.increment();\r\n\r\n        generateRandomBuildings(cities[tokenId].buildingList);\r\n        cities[tokenId].money = startingMoney;\r\n        cities[tokenId].income = calculateIncome(cities[tokenId].buildingList);\r\n        cities[tokenId].owner = msg.sender;\r\n\r\n        _safeMint(msg.sender, tokenId);\r\n        _setTokenURI(tokenId, Strings.toString(tokenId)); // sets the tokenUri to \"_baseURI/tokenId\"\r\n    }\r\n\r\n    // The following modifier is used to check if a user owns the NFT which he wants to change.\r\n    modifier ownsNFT(uint tokenId) {\r\n        require(cities[tokenId].owner == msg.sender, 'The caller of the function does not own the nft');\r\n        _;\r\n    }\r\n\r\n    // The following functions are overrides required by Solidity.\r\n    function _beforeTokenTransfer(address from, address to, uint256 tokenId) internal override(ERC721, ERC721Enumerable) {\r\n        super._beforeTokenTransfer(from, to, tokenId);\r\n    }\r\n\r\n    function _burn(uint256 tokenId) internal override(ERC721, ERC721URIStorage) {\r\n        super._burn(tokenId);\r\n    }\r\n\r\n    function tokenURI(uint256 tokenId) public view override(ERC721, ERC721URIStorage) returns (string memory) {\r\n        return super.tokenURI(tokenId);\r\n    }\r\n\r\n    function supportsInterface(bytes4 interfaceId) public view override(ERC721, ERC721Enumerable) returns (bool) {\r\n        return super.supportsInterface(interfaceId);\r\n    }\r\n\r\n    // THe following  function is called to start the sale and to end it if all items are sold out or if a problem occurs.\r\n    function flipSaleState() public onlyOwner {\r\n        saleIsActive = !saleIsActive;\r\n    }\r\n}",
  "sourcePath": "C:\\Users\\Dario Vajda\\OneDrive\\Desktop\\nft project\\nft\\smart_contracts\\contracts\\CityContract.sol",
  "compiler": {
    "name": "solc",
    "version": "0.8.11+commit.d7f03943.Emscripten.clang"
  },
  "schemaVersion": "3.4.4",
  "updatedAt": "2022-01-19T15:14:21.047Z",
  "devdoc": {
    "kind": "dev",
    "methods": {
      "approve(address,uint256)": {
        "details": "See {IERC721-approve}."
      },
      "balanceOf(address)": {
        "details": "See {IERC721-balanceOf}."
      },
      "getApproved(uint256)": {
        "details": "See {IERC721-getApproved}."
      },
      "isApprovedForAll(address,address)": {
        "details": "See {IERC721-isApprovedForAll}."
      },
      "name()": {
        "details": "See {IERC721Metadata-name}."
      },
      "owner()": {
        "details": "Returns the address of the current owner."
      },
      "ownerOf(uint256)": {
        "details": "See {IERC721-ownerOf}."
      },
      "renounceOwnership()": {
        "details": "Leaves the contract without owner. It will not be possible to call `onlyOwner` functions anymore. Can only be called by the current owner. NOTE: Renouncing ownership will leave the contract without an owner, thereby removing any functionality that is only available to the owner."
      },
      "safeTransferFrom(address,address,uint256)": {
        "details": "See {IERC721-safeTransferFrom}."
      },
      "safeTransferFrom(address,address,uint256,bytes)": {
        "details": "See {IERC721-safeTransferFrom}."
      },
      "setApprovalForAll(address,bool)": {
        "details": "See {IERC721-setApprovalForAll}."
      },
      "symbol()": {
        "details": "See {IERC721Metadata-symbol}."
      },
      "tokenByIndex(uint256)": {
        "details": "See {IERC721Enumerable-tokenByIndex}."
      },
      "tokenOfOwnerByIndex(address,uint256)": {
        "details": "See {IERC721Enumerable-tokenOfOwnerByIndex}."
      },
      "totalSupply()": {
        "details": "See {IERC721Enumerable-totalSupply}."
      },
      "transferFrom(address,address,uint256)": {
        "details": "See {IERC721-transferFrom}."
      },
      "transferOwnership(address)": {
        "details": "Transfers ownership of the contract to a new account (`newOwner`). Can only be called by the current owner."
      }
    },
    "version": 1
  },
  "userdoc": {
    "kind": "user",
    "methods": {},
    "notice": "TREBAM DA VRATIM FAJLOVE CONTRACTOVA KOJE SAM PRIVREMENO SKLONIO DOK SAM DEBAGOVAO, NALAZE SE U NFT PROJECT FOLERU!!!",
    "version": 1
  }
}