{
  "contractName": "Gameplay",
  "abi": [
    {
      "inputs": [
        {
          "internalType": "address",
          "name": "_admin",
          "type": "address"
        },
        {
          "internalType": "address",
          "name": "_nftContractAddress",
          "type": "address"
        }
      ],
      "stateMutability": "nonpayable",
      "type": "constructor"
    },
    {
      "anonymous": false,
      "inputs": [
        {
          "indexed": true,
          "internalType": "address",
          "name": "previousOwner",
          "type": "address"
        },
        {
          "indexed": true,
          "internalType": "address",
          "name": "newOwner",
          "type": "address"
        }
      ],
      "name": "OwnershipTransferred",
      "type": "event"
    },
    {
      "inputs": [],
      "name": "owner",
      "outputs": [
        {
          "internalType": "address",
          "name": "",
          "type": "address"
        }
      ],
      "stateMutability": "view",
      "type": "function",
      "constant": true
    },
    {
      "inputs": [],
      "name": "renounceOwnership",
      "outputs": [],
      "stateMutability": "nonpayable",
      "type": "function"
    },
    {
      "inputs": [
        {
          "internalType": "address",
          "name": "newOwner",
          "type": "address"
        }
      ],
      "name": "transferOwnership",
      "outputs": [],
      "stateMutability": "nonpayable",
      "type": "function"
    },
    {
      "inputs": [
        {
          "internalType": "uint256",
          "name": "tokenId",
          "type": "uint256"
        },
        {
          "internalType": "address",
          "name": "addr",
          "type": "address"
        }
      ],
      "name": "created",
      "outputs": [],
      "stateMutability": "nonpayable",
      "type": "function"
    },
    {
      "inputs": [
        {
          "internalType": "uint256",
          "name": "tokenId",
          "type": "uint256"
        },
        {
          "internalType": "address",
          "name": "_newOwner",
          "type": "address"
        }
      ],
      "name": "newOwner",
      "outputs": [],
      "stateMutability": "nonpayable",
      "type": "function"
    },
    {
      "inputs": [
        {
          "internalType": "address",
          "name": "owner",
          "type": "address"
        },
        {
          "internalType": "uint256",
          "name": "tokenId",
          "type": "uint256"
        },
        {
          "internalType": "uint256",
          "name": "numOfBuildings",
          "type": "uint256"
        },
        {
          "internalType": "uint256",
          "name": "numOfSpecialBuildings",
          "type": "uint256"
        },
        {
          "internalType": "uint256[]",
          "name": "startx",
          "type": "uint256[]"
        },
        {
          "internalType": "uint256[]",
          "name": "starty",
          "type": "uint256[]"
        },
        {
          "internalType": "uint256[]",
          "name": "endx",
          "type": "uint256[]"
        },
        {
          "internalType": "uint256[]",
          "name": "endy",
          "type": "uint256[]"
        },
        {
          "internalType": "string[]",
          "name": "buildingType",
          "type": "string[]"
        },
        {
          "internalType": "string[]",
          "name": "specialType",
          "type": "string[]"
        },
        {
          "internalType": "uint256",
          "name": "income",
          "type": "uint256"
        }
      ],
      "name": "initializeCity",
      "outputs": [],
      "stateMutability": "nonpayable",
      "type": "function"
    },
    {
      "inputs": [
        {
          "internalType": "uint256",
          "name": "tokenId",
          "type": "uint256"
        },
        {
          "internalType": "uint256",
          "name": "price",
          "type": "uint256"
        },
        {
          "internalType": "uint256",
          "name": "buildingIndex",
          "type": "uint256"
        }
      ],
      "name": "upgradeBuilding",
      "outputs": [],
      "stateMutability": "nonpayable",
      "type": "function"
    },
    {
      "inputs": [
        {
          "internalType": "uint256",
          "name": "tokenId",
          "type": "uint256"
        },
        {
          "internalType": "uint256",
          "name": "price",
          "type": "uint256"
        },
        {
          "internalType": "uint256",
          "name": "_startx",
          "type": "uint256"
        },
        {
          "internalType": "uint256",
          "name": "_starty",
          "type": "uint256"
        },
        {
          "internalType": "uint256",
          "name": "_endx",
          "type": "uint256"
        },
        {
          "internalType": "uint256",
          "name": "_endy",
          "type": "uint256"
        },
        {
          "internalType": "string",
          "name": "_buildingType",
          "type": "string"
        }
      ],
      "name": "addBuilding",
      "outputs": [],
      "stateMutability": "nonpayable",
      "type": "function"
    },
    {
      "inputs": [
        {
          "internalType": "uint256",
          "name": "tokenId",
          "type": "uint256"
        },
        {
          "internalType": "uint256",
          "name": "price",
          "type": "uint256"
        },
        {
          "internalType": "uint256",
          "name": "_startx",
          "type": "uint256"
        },
        {
          "internalType": "uint256",
          "name": "_starty",
          "type": "uint256"
        },
        {
          "internalType": "uint256",
          "name": "_endx",
          "type": "uint256"
        },
        {
          "internalType": "uint256",
          "name": "_endy",
          "type": "uint256"
        },
        {
          "internalType": "string",
          "name": "_specialType",
          "type": "string"
        }
      ],
      "name": "addSpecialBuilding",
      "outputs": [],
      "stateMutability": "nonpayable",
      "type": "function"
    },
    {
      "inputs": [],
      "name": "startGameIncome",
      "outputs": [],
      "stateMutability": "nonpayable",
      "type": "function"
    },
    {
      "inputs": [
        {
          "internalType": "uint256",
          "name": "tokenId",
          "type": "uint256"
        }
      ],
      "name": "getIncome",
      "outputs": [],
      "stateMutability": "nonpayable",
      "type": "function"
    },
    {
      "inputs": [],
      "name": "getEditableState",
      "outputs": [
        {
          "internalType": "bool",
          "name": "",
          "type": "bool"
        }
      ],
      "stateMutability": "view",
      "type": "function",
      "constant": true
    },
    {
      "inputs": [
        {
          "internalType": "uint256",
          "name": "tokenId",
          "type": "uint256"
        }
      ],
      "name": "getCityData",
      "outputs": [
        {
          "components": [
            {
              "internalType": "address",
              "name": "owner",
              "type": "address"
            },
            {
              "internalType": "uint256",
              "name": "numOfBuildings",
              "type": "uint256"
            },
            {
              "internalType": "uint256",
              "name": "numOfSpecialBuildings",
              "type": "uint256"
            },
            {
              "internalType": "uint256[]",
              "name": "startx",
              "type": "uint256[]"
            },
            {
              "internalType": "uint256[]",
              "name": "starty",
              "type": "uint256[]"
            },
            {
              "internalType": "uint256[]",
              "name": "endx",
              "type": "uint256[]"
            },
            {
              "internalType": "uint256[]",
              "name": "endy",
              "type": "uint256[]"
            },
            {
              "internalType": "string[]",
              "name": "buildingType",
              "type": "string[]"
            },
            {
              "internalType": "uint256[]",
              "name": "level",
              "type": "uint256[]"
            },
            {
              "internalType": "string[]",
              "name": "specialType",
              "type": "string[]"
            },
            {
              "internalType": "uint256",
              "name": "money",
              "type": "uint256"
            },
            {
              "internalType": "uint256",
              "name": "income",
              "type": "uint256"
            },
            {
              "internalType": "uint256",
              "name": "lastPay",
              "type": "uint256"
            }
          ],
          "internalType": "struct Gameplay.CityRepresentation",
          "name": "",
          "type": "tuple"
        }
      ],
      "stateMutability": "view",
      "type": "function",
      "constant": true
    },
    {
      "inputs": [],
      "name": "getBlockchainTime",
      "outputs": [
        {
          "internalType": "uint256",
          "name": "",
          "type": "uint256"
        }
      ],
      "stateMutability": "view",
      "type": "function",
      "constant": true
    },
    {
      "inputs": [
        {
          "internalType": "uint256",
          "name": "_payPeriod",
          "type": "uint256"
        }
      ],
      "name": "changePayPeriod",
      "outputs": [],
      "stateMutability": "nonpayable",
      "type": "function"
    },
    {
      "inputs": [
        {
          "internalType": "address",
          "name": "newAdmin",
          "type": "address"
        }
      ],
      "name": "changeAdmin",
      "outputs": [],
      "stateMutability": "nonpayable",
      "type": "function"
    },
    {
      "inputs": [],
      "name": "flipEditableState",
      "outputs": [],
      "stateMutability": "nonpayable",
      "type": "function"
    }
  ],
  "bytecode": "0x6080604052600a6003556001600560146101000a81548160ff02191690831515021790555063773594006006556078600755620186a0600960006101000a81548167ffffffffffffffff021916908367ffffffffffffffff1602179055503480156200006a57600080fd5b5060405162004c8938038062004c89833981810160405281019062000090919062000b3a565b620000b0620000a4620001e160201b60201c565b620001e960201b60201c565b620000c0620002ad60201b60201c565b81600460006101000a81548173ffffffffffffffffffffffffffffffffffffffff021916908373ffffffffffffffffffffffffffffffffffffffff16021790555080600560006101000a81548173ffffffffffffffffffffffffffffffffffffffff021916908373ffffffffffffffffffffffffffffffffffffffff1602179055506000600560009054906101000a900473ffffffffffffffffffffffffffffffffffffffff1690508073ffffffffffffffffffffffffffffffffffffffff1663ce5bc7a6306040518263ffffffff1660e01b8152600401620001a4919062000b92565b600060405180830381600087803b158015620001bf57600080fd5b505af1158015620001d4573d6000803e3d6000fd5b5050505050505062000fed565b600033905090565b60008060009054906101000a900473ffffffffffffffffffffffffffffffffffffffff169050816000806101000a81548173ffffffffffffffffffffffffffffffffffffffff021916908373ffffffffffffffffffffffffffffffffffffffff1602179055508173ffffffffffffffffffffffffffffffffffffffff168173ffffffffffffffffffffffffffffffffffffffff167f8be0079c531659141344cd1fd0a4f28419497f9722a3daafe3b4186f6b6457e060405160405180910390a35050565b60006001604051620002bf9062000c0a565b908152602001604051809103902060006101000a81548160ff02191690836008811115620002f257620002f162000c21565b5b0217905550600180604051620003089062000ca0565b908152602001604051809103902060006101000a81548160ff021916908360088111156200033b576200033a62000c21565b5b021790555060026001604051620003529062000d07565b908152602001604051809103902060006101000a81548160ff0219169083600881111562000385576200038462000c21565b5b0217905550600360016040516200039c9062000d6e565b908152602001604051809103902060006101000a81548160ff02191690836008811115620003cf57620003ce62000c21565b5b021790555060046001604051620003e69062000dd5565b908152602001604051809103902060006101000a81548160ff0219169083600881111562000419576200041862000c21565b5b021790555060056001604051620004309062000e3c565b908152602001604051809103902060006101000a81548160ff0219169083600881111562000463576200046262000c21565b5b0217905550600660016040516200047a9062000ea3565b908152602001604051809103902060006101000a81548160ff02191690836008811115620004ad57620004ac62000c21565b5b021790555060076001604051620004c49062000f0a565b908152602001604051809103902060006101000a81548160ff02191690836008811115620004f757620004f662000c21565b5b0217905550600860016040516200050e9062000f71565b908152602001604051809103902060006101000a81548160ff0219169083600881111562000541576200054062000c21565b5b02179055506040518060400160405280600781526020017f666163746f7279000000000000000000000000000000000000000000000000008152506002600080600881111562000596576200059562000c21565b5b6008811115620005ab57620005aa62000c21565b5b81526020019081526020016000209080519060200190620005ce92919062000a20565b506040518060400160405280600681526020017f6f66666963650000000000000000000000000000000000000000000000000000815250600260006001600881111562000620576200061f62000c21565b5b600881111562000635576200063462000c21565b5b815260200190815260200160002090805190602001906200065892919062000a20565b506040518060400160405280600a81526020017f72657374617572616e74000000000000000000000000000000000000000000008152506002600060026008811115620006aa57620006a962000c21565b5b6008811115620006bf57620006be62000c21565b5b81526020019081526020016000209080519060200190620006e292919062000a20565b506040518060400160405280600881526020017f6275696c64696e67000000000000000000000000000000000000000000000000815250600260006003600881111562000734576200073362000c21565b5b600881111562000749576200074862000c21565b5b815260200190815260200160002090805190602001906200076c92919062000a20565b506040518060400160405280600581526020017f686f7573650000000000000000000000000000000000000000000000000000008152506002600060046008811115620007be57620007bd62000c21565b5b6008811115620007d357620007d262000c21565b5b81526020019081526020016000209080519060200190620007f692919062000a20565b506040518060400160405280600581526020017f73746f7265000000000000000000000000000000000000000000000000000000815250600260006005600881111562000848576200084762000c21565b5b60088111156200085d576200085c62000c21565b5b815260200190815260200160002090805190602001906200088092919062000a20565b506040518060400160405280600b81526020017f73757065724d61726b65740000000000000000000000000000000000000000008152506002600060066008811115620008d257620008d162000c21565b5b6008811115620008e757620008e662000c21565b5b815260200190815260200160002090805190602001906200090a92919062000a20565b506040518060400160405280600481526020017f7061726b0000000000000000000000000000000000000000000000000000000081525060026000600760088111156200095c576200095b62000c21565b5b600881111562000971576200097062000c21565b5b815260200190815260200160002090805190602001906200099492919062000a20565b506040518060400160405280600381526020017f67796d000000000000000000000000000000000000000000000000000000000081525060026000600880811115620009e557620009e462000c21565b5b6008811115620009fa57620009f962000c21565b5b8152602001908152602001600020908051906020019062000a1d92919062000a20565b50565b82805462000a2e9062000fb7565b90600052602060002090601f01602090048101928262000a52576000855562000a9e565b82601f1062000a6d57805160ff191683800117855562000a9e565b8280016001018555821562000a9e579182015b8281111562000a9d57825182559160200191906001019062000a80565b5b50905062000aad919062000ab1565b5090565b5b8082111562000acc57600081600090555060010162000ab2565b5090565b600080fd5b600073ffffffffffffffffffffffffffffffffffffffff82169050919050565b600062000b028262000ad5565b9050919050565b62000b148162000af5565b811462000b2057600080fd5b50565b60008151905062000b348162000b09565b92915050565b6000806040838503121562000b545762000b5362000ad0565b5b600062000b648582860162000b23565b925050602062000b778582860162000b23565b9150509250929050565b62000b8c8162000af5565b82525050565b600060208201905062000ba9600083018462000b81565b92915050565b600081905092915050565b7f666163746f727900000000000000000000000000000000000000000000000000600082015250565b600062000bf260078362000baf565b915062000bff8262000bba565b600782019050919050565b600062000c178262000be3565b9150819050919050565b7f4e487b7100000000000000000000000000000000000000000000000000000000600052602160045260246000fd5b7f6f66666963650000000000000000000000000000000000000000000000000000600082015250565b600062000c8860068362000baf565b915062000c958262000c50565b600682019050919050565b600062000cad8262000c79565b9150819050919050565b7f72657374617572616e7400000000000000000000000000000000000000000000600082015250565b600062000cef600a8362000baf565b915062000cfc8262000cb7565b600a82019050919050565b600062000d148262000ce0565b9150819050919050565b7f6275696c64696e67000000000000000000000000000000000000000000000000600082015250565b600062000d5660088362000baf565b915062000d638262000d1e565b600882019050919050565b600062000d7b8262000d47565b9150819050919050565b7f686f757365000000000000000000000000000000000000000000000000000000600082015250565b600062000dbd60058362000baf565b915062000dca8262000d85565b600582019050919050565b600062000de28262000dae565b9150819050919050565b7f73746f7265000000000000000000000000000000000000000000000000000000600082015250565b600062000e2460058362000baf565b915062000e318262000dec565b600582019050919050565b600062000e498262000e15565b9150819050919050565b7f73757065724d61726b6574000000000000000000000000000000000000000000600082015250565b600062000e8b600b8362000baf565b915062000e988262000e53565b600b82019050919050565b600062000eb08262000e7c565b9150819050919050565b7f7061726b00000000000000000000000000000000000000000000000000000000600082015250565b600062000ef260048362000baf565b915062000eff8262000eba565b600482019050919050565b600062000f178262000ee3565b9150819050919050565b7f67796d0000000000000000000000000000000000000000000000000000000000600082015250565b600062000f5960038362000baf565b915062000f668262000f21565b600382019050919050565b600062000f7e8262000f4a565b9150819050919050565b7f4e487b7100000000000000000000000000000000000000000000000000000000600052602260045260246000fd5b6000600282049050600182168062000fd057607f821691505b6020821081141562000fe75762000fe662000f88565b5b50919050565b613c8c8062000ffd6000396000f3fe608060405234801561001057600080fd5b506004361061010b5760003560e01c80638f283970116100a2578063cc6ebc8b11610071578063cc6ebc8b14610244578063cf322e9414610260578063d15fe61b1461027c578063eb318ff714610298578063f2fde38b146102b45761010b565b80638f283970146101d45780639f18f9f2146101f0578063a3ef9dfa1461020c578063b758eeaa146102285761010b565b80636d5dcb2b116100de5780636d5dcb2b14610186578063715018a614610190578063857915101461019a5780638da5cb5b146101b65761010b565b806323657514146101105780634920f9061461011a57806368f9e312146101385780636c241bb114610156575b600080fd5b6101186102d0565b005b610122610378565b60405161012f919061272e565b60405180910390f35b61014061038f565b60405161014d9190612762565b60405180910390f35b610170600480360381019061016b91906127bd565b610397565b60405161017d9190612b87565b60405180910390f35b61018e610c7b565b005b610198610e50565b005b6101b460048036038101906101af91906127bd565b610ed8565b005b6101be611172565b6040516101cb9190612bb8565b60405180910390f35b6101ee60048036038101906101e99190612bff565b61119b565b005b61020a60048036038101906102059190612d61565b61125b565b005b61022660048036038101906102219190612fc8565b611530565b005b610242600480360381019061023d9190613164565b611d02565b005b61025e600480360381019061025991906131a4565b611d8a565b005b61027a60048036038101906102759190613164565b611f4f565b005b61029660048036038101906102919190613252565b612038565b005b6102b260048036038101906102ad91906127bd565b612394565b005b6102ce60048036038101906102c99190612bff565b61242e565b005b6102d8612526565b73ffffffffffffffffffffffffffffffffffffffff166102f6611172565b73ffffffffffffffffffffffffffffffffffffffff161461034c576040517f08c379a000000000000000000000000000000000000000000000000000000000815260040161034390613371565b60405180910390fd5b600560149054906101000a900460ff1615600560146101000a81548160ff021916908315150217905550565b6000600560149054906101000a900460ff16905090565b600042905090565b61039f6125f2565b600060086000848152602001908152602001600020905060008160020160029054906101000a900467ffffffffffffffff1667ffffffffffffffff169050600082600201600a9054906101000a900467ffffffffffffffff1667ffffffffffffffff1690506000604051806101a001604052808560030160089054906101000a900473ffffffffffffffffffffffffffffffffffffffff1673ffffffffffffffffffffffffffffffffffffffff168152602001848152602001838152602001838561046a91906133c0565b67ffffffffffffffff81111561048357610482612c36565b5b6040519080825280602002602001820160405280156104b15781602001602082028036833780820191505090505b50815260200183856104c391906133c0565b67ffffffffffffffff8111156104dc576104db612c36565b5b60405190808252806020026020018201604052801561050a5781602001602082028036833780820191505090505b508152602001838561051c91906133c0565b67ffffffffffffffff81111561053557610534612c36565b5b6040519080825280602002602001820160405280156105635781602001602082028036833780820191505090505b508152602001838561057591906133c0565b67ffffffffffffffff81111561058e5761058d612c36565b5b6040519080825280602002602001820160405280156105bc5781602001602082028036833780820191505090505b5081526020018467ffffffffffffffff8111156105dc576105db612c36565b5b60405190808252806020026020018201604052801561060f57816020015b60608152602001906001900390816105fa5790505b5081526020018467ffffffffffffffff81111561062f5761062e612c36565b5b60405190808252806020026020018201604052801561065d5781602001602082028036833780820191505090505b5081526020018367ffffffffffffffff81111561067d5761067c612c36565b5b6040519080825280602002602001820160405280156106b057816020015b606081526020019060019003908161069b5790505b5081526020018560020160129054906101000a900467ffffffffffffffff1667ffffffffffffffff1681526020018560030160009054906101000a900467ffffffffffffffff1667ffffffffffffffff16815260200163773594006006541461072a5760065486600401546107259190613416565b61072e565b6006545b815250905060005b838110156109f35784600001600082815260200190815260200160002060000160019054906101000a900463ffffffff1663ffffffff16826060015182815181106107845761078361344a565b5b60200260200101818152505084600001600082815260200190815260200160002060000160059054906101000a900463ffffffff1663ffffffff16826080015182815181106107d6576107d561344a565b5b60200260200101818152505084600001600082815260200190815260200160002060000160099054906101000a900463ffffffff1663ffffffff168260a0015182815181106108285761082761344a565b5b602002602001018181525050846000016000828152602001908152602001600020600001600d9054906101000a900463ffffffff1663ffffffff168260c00151828151811061087a5761087961344a565b5b6020026020010181815250506002600086600001600084815260200190815260200160002060000160009054906101000a900460ff1660088111156108c2576108c1613479565b5b60088111156108d4576108d3613479565b5b815260200190815260200160002080546108ed906134d7565b80601f0160208091040260200160405190810160405280929190818152602001828054610919906134d7565b80156109665780601f1061093b57610100808354040283529160200191610966565b820191906000526020600020905b81548152906001019060200180831161094957829003601f168201915b50505050508260e0015182815181106109825761098161344a565b5b602002602001018190525084600001600082815260200190815260200160002060000160119054906101000a900463ffffffff1663ffffffff1682610100015182815181106109d4576109d361344a565b5b60200260200101818152505080806109eb90613509565b915050610736565b5060008390505b8383610a0691906133c0565b811015610c6e578460010160008583610a1f9190613416565b815260200190815260200160002060010160009054906101000a900463ffffffff1663ffffffff1682606001518281518110610a5e57610a5d61344a565b5b6020026020010181815250508460010160008583610a7c9190613416565b815260200190815260200160002060010160049054906101000a900463ffffffff1663ffffffff1682608001518281518110610abb57610aba61344a565b5b6020026020010181815250508460010160008583610ad99190613416565b815260200190815260200160002060010160089054906101000a900463ffffffff1663ffffffff168260a001518281518110610b1857610b1761344a565b5b6020026020010181815250508460010160008583610b369190613416565b8152602001908152602001600020600101600c9054906101000a900463ffffffff1663ffffffff168260c001518281518110610b7557610b7461344a565b5b6020026020010181815250508460010160008583610b939190613416565b81526020019081526020016000206000018054610baf906134d7565b80601f0160208091040260200160405190810160405280929190818152602001828054610bdb906134d7565b8015610c285780601f10610bfd57610100808354040283529160200191610c28565b820191906000526020600020905b815481529060010190602001808311610c0b57829003601f168201915b50505050508261012001518583610c3f9190613416565b81518110610c5057610c4f61344a565b5b60200260200101819052508080610c6690613509565b9150506109fa565b5080945050505050919050565b600460009054906101000a900473ffffffffffffffffffffffffffffffffffffffff1673ffffffffffffffffffffffffffffffffffffffff163373ffffffffffffffffffffffffffffffffffffffff1614610d0b576040517f08c379a0000000000000000000000000000000000000000000000000000000008152600401610d02906135c4565b60405180910390fd5b60011515600560149054906101000a900460ff16151514610d61576040517f08c379a0000000000000000000000000000000000000000000000000000000008152600401610d5890613656565b60405180910390fd5b637735940060065414610da9576040517f08c379a0000000000000000000000000000000000000000000000000000000008152600401610da0906136c2565b60405180910390fd5b4260068190555060005b600073ffffffffffffffffffffffffffffffffffffffff166008600083815260200190815260200160002060030160089054906101000a900473ffffffffffffffffffffffffffffffffffffffff1673ffffffffffffffffffffffffffffffffffffffff1614610e4d5760065460086000838152602001908152602001600020600401819055508080610e4590613509565b915050610db3565b50565b610e58612526565b73ffffffffffffffffffffffffffffffffffffffff16610e76611172565b73ffffffffffffffffffffffffffffffffffffffff1614610ecc576040517f08c379a0000000000000000000000000000000000000000000000000000000008152600401610ec390613371565b60405180910390fd5b610ed6600061252e565b565b600460009054906101000a900473ffffffffffffffffffffffffffffffffffffffff1673ffffffffffffffffffffffffffffffffffffffff163373ffffffffffffffffffffffffffffffffffffffff1614610f68576040517f08c379a0000000000000000000000000000000000000000000000000000000008152600401610f5f906135c4565b60405180910390fd5b60011515600560149054906101000a900460ff16151514610fbe576040517f08c379a0000000000000000000000000000000000000000000000000000000008152600401610fb590613656565b60405180910390fd5b6006544211611002576040517f08c379a0000000000000000000000000000000000000000000000000000000008152600401610ff99061372e565b60405180910390fd5b6007546008600083815260200190815260200160002060040154426110279190613416565b11611067576040517f08c379a000000000000000000000000000000000000000000000000000000000815260040161105e9061379a565b60405180910390fd5b600060075460086000848152602001908152602001600020600401544261108e9190613416565b61109891906137e9565b90506008600083815260200190815260200160002060030160009054906101000a900467ffffffffffffffff16816110d0919061382e565b6008600084815260200190815260200160002060020160128282829054906101000a900467ffffffffffffffff166111089190613870565b92506101000a81548167ffffffffffffffff021916908367ffffffffffffffff1602179055506007546006544261113f9190613416565b61114991906138ae565b426111549190613416565b60086000848152602001908152602001600020600401819055505050565b60008060009054906101000a900473ffffffffffffffffffffffffffffffffffffffff16905090565b6111a3612526565b73ffffffffffffffffffffffffffffffffffffffff166111c1611172565b73ffffffffffffffffffffffffffffffffffffffff1614611217576040517f08c379a000000000000000000000000000000000000000000000000000000000815260040161120e90613371565b60405180910390fd5b80600460006101000a81548173ffffffffffffffffffffffffffffffffffffffff021916908373ffffffffffffffffffffffffffffffffffffffff16021790555050565b600460009054906101000a900473ffffffffffffffffffffffffffffffffffffffff1673ffffffffffffffffffffffffffffffffffffffff163373ffffffffffffffffffffffffffffffffffffffff16146112eb576040517f08c379a00000000000000000000000000000000000000000000000000000000081526004016112e2906135c4565b60405180910390fd5b60011515600560149054906101000a900460ff16151514611341576040517f08c379a000000000000000000000000000000000000000000000000000000000815260040161133890613656565b60405180910390fd5b60006008600089815260200190815260200160002090506040518060a001604052808381526020018763ffffffff1681526020018663ffffffff1681526020018563ffffffff1681526020018463ffffffff1681525081600101600083600201600a9054906101000a900467ffffffffffffffff1667ffffffffffffffff16815260200190815260200160002060008201518160000190805190602001906113ea929190612670565b5060208201518160010160006101000a81548163ffffffff021916908363ffffffff16021790555060408201518160010160046101000a81548163ffffffff021916908363ffffffff16021790555060608201518160010160086101000a81548163ffffffff021916908363ffffffff160217905550608082015181600101600c6101000a81548163ffffffff021916908363ffffffff160217905550905050600181600201600a8282829054906101000a900467ffffffffffffffff166114b29190613870565b92506101000a81548167ffffffffffffffff021916908367ffffffffffffffff160217905550868160020160129054906101000a900467ffffffffffffffff166114fc91906138df565b8160020160126101000a81548167ffffffffffffffff021916908367ffffffffffffffff1602179055505050505050505050565b600460009054906101000a900473ffffffffffffffffffffffffffffffffffffffff1673ffffffffffffffffffffffffffffffffffffffff163373ffffffffffffffffffffffffffffffffffffffff16146115c0576040517f08c379a00000000000000000000000000000000000000000000000000000000081526004016115b7906135c4565b60405180910390fd5b60011515600560149054906101000a900460ff16151514611616576040517f08c379a000000000000000000000000000000000000000000000000000000000815260040161160d90613656565b60405180910390fd5b60011515600860008c815260200190815260200160002060020160009054906101000a900460ff16151514611680576040517f08c379a00000000000000000000000000000000000000000000000000000000081526004016116779061395f565b60405180910390fd5b60001515600860008c815260200190815260200160002060020160019054906101000a900460ff161515146116ea576040517f08c379a00000000000000000000000000000000000000000000000000000000081526004016116e1906139cb565b60405180910390fd5b8a73ffffffffffffffffffffffffffffffffffffffff16600860008c815260200190815260200160002060030160089054906101000a900473ffffffffffffffffffffffffffffffffffffffff1673ffffffffffffffffffffffffffffffffffffffff161461178e576040517f08c379a000000000000000000000000000000000000000000000000000000000815260040161178590613a37565b60405180910390fd5b6000600860008c8152602001908152602001600020905060005b8a81101561198c578881815181106117c3576117c261344a565b5b602002602001015182600001600083815260200190815260200160002060000160016101000a81548163ffffffff021916908363ffffffff1602179055508781815181106118145761181361344a565b5b602002602001015182600001600083815260200190815260200160002060000160056101000a81548163ffffffff021916908363ffffffff1602179055508681815181106118655761186461344a565b5b602002602001015182600001600083815260200190815260200160002060000160096101000a81548163ffffffff021916908363ffffffff1602179055508581815181106118b6576118b561344a565b5b6020026020010151826000016000838152602001908152602001600020600001600d6101000a81548163ffffffff021916908363ffffffff16021790555060018582815181106119095761190861344a565b5b602002602001015160405161191e9190613a93565b908152602001604051809103902060009054906101000a900460ff1682600001600083815260200190815260200160002060000160006101000a81548160ff0219169083600881111561197457611973613479565b5b0217905550808061198490613509565b9150506117a8565b5060008a90505b8a8a61199f91906133c0565b811015611b86578881815181106119b9576119b861344a565b5b60200260200101518260010160008d846119d39190613416565b815260200190815260200160002060010160006101000a81548163ffffffff021916908363ffffffff160217905550878181518110611a1557611a1461344a565b5b60200260200101518260010160008d84611a2f9190613416565b815260200190815260200160002060010160046101000a81548163ffffffff021916908363ffffffff160217905550868181518110611a7157611a7061344a565b5b60200260200101518260010160008d84611a8b9190613416565b815260200190815260200160002060010160086101000a81548163ffffffff021916908363ffffffff160217905550858181518110611acd57611acc61344a565b5b60200260200101518260010160008d84611ae79190613416565b8152602001908152602001600020600101600c6101000a81548163ffffffff021916908363ffffffff160217905550838b82611b239190613416565b81518110611b3457611b3361344a565b5b60200260200101518260010160008d84611b4e9190613416565b81526020019081526020016000206000019080519060200190611b72929190612670565b508080611b7e90613509565b915050611993565b50898160020160026101000a81548167ffffffffffffffff021916908367ffffffffffffffff1602179055508881600201600a6101000a81548167ffffffffffffffff021916908367ffffffffffffffff160217905550818160030160006101000a81548167ffffffffffffffff021916908367ffffffffffffffff160217905550600960009054906101000a900467ffffffffffffffff168160020160126101000a81548167ffffffffffffffff021916908367ffffffffffffffff1602179055508b8160030160086101000a81548173ffffffffffffffffffffffffffffffffffffffff021916908373ffffffffffffffffffffffffffffffffffffffff16021790555060018160020160016101000a81548160ff021916908315150217905550637735940060065414611ce95760075460065442611cc79190613416565b611cd191906138ae565b42611cdc9190613416565b8160040181905550611cf4565b600081600401819055505b505050505050505050505050565b806008600084815260200190815260200160002060030160086101000a81548173ffffffffffffffffffffffffffffffffffffffff021916908373ffffffffffffffffffffffffffffffffffffffff16021790555060016008600084815260200190815260200160002060020160006101000a81548160ff0219169083151502179055505050565b600460009054906101000a900473ffffffffffffffffffffffffffffffffffffffff1673ffffffffffffffffffffffffffffffffffffffff163373ffffffffffffffffffffffffffffffffffffffff1614611e1a576040517f08c379a0000000000000000000000000000000000000000000000000000000008152600401611e11906135c4565b60405180910390fd5b60011515600560149054906101000a900460ff16151514611e70576040517f08c379a0000000000000000000000000000000000000000000000000000000008152600401611e6790613656565b60405180910390fd5b600160086000858152602001908152602001600020600001600083815260200190815260200160002060000160118282829054906101000a900463ffffffff16611eba9190613aba565b92506101000a81548163ffffffff021916908363ffffffff160217905550816008600085815260200190815260200160002060020160129054906101000a900467ffffffffffffffff16611f0e91906138df565b6008600085815260200190815260200160002060020160126101000a81548167ffffffffffffffff021916908367ffffffffffffffff160217905550505050565b600560009054906101000a900473ffffffffffffffffffffffffffffffffffffffff1673ffffffffffffffffffffffffffffffffffffffff163373ffffffffffffffffffffffffffffffffffffffff1614611fdf576040517f08c379a0000000000000000000000000000000000000000000000000000000008152600401611fd690613b66565b60405180910390fd5b806008600084815260200190815260200160002060030160086101000a81548173ffffffffffffffffffffffffffffffffffffffff021916908373ffffffffffffffffffffffffffffffffffffffff1602179055505050565b600460009054906101000a900473ffffffffffffffffffffffffffffffffffffffff1673ffffffffffffffffffffffffffffffffffffffff163373ffffffffffffffffffffffffffffffffffffffff16146120c8576040517f08c379a00000000000000000000000000000000000000000000000000000000081526004016120bf906135c4565b60405180910390fd5b60011515600560149054906101000a900460ff1615151461211e576040517f08c379a000000000000000000000000000000000000000000000000000000000815260040161211590613656565b60405180910390fd5b6000600860008a815260200190815260200160002090506040518060c0016040528060018585604051612152929190613bab565b908152602001604051809103902060009054906101000a900460ff1660088111156121805761217f613479565b5b81526020018863ffffffff1681526020018763ffffffff1681526020018663ffffffff1681526020018563ffffffff168152602001600063ffffffff168152508160000160008360020160029054906101000a900467ffffffffffffffff1667ffffffffffffffff16815260200190815260200160002060008201518160000160006101000a81548160ff0219169083600881111561222257612221613479565b5b021790555060208201518160000160016101000a81548163ffffffff021916908363ffffffff16021790555060408201518160000160056101000a81548163ffffffff021916908363ffffffff16021790555060608201518160000160096101000a81548163ffffffff021916908363ffffffff160217905550608082015181600001600d6101000a81548163ffffffff021916908363ffffffff16021790555060a08201518160000160116101000a81548163ffffffff021916908363ffffffff16021790555090505060018160020160028282829054906101000a900467ffffffffffffffff166123159190613870565b92506101000a81548167ffffffffffffffff021916908367ffffffffffffffff160217905550878160020160129054906101000a900467ffffffffffffffff1661235f91906138df565b8160020160126101000a81548167ffffffffffffffff021916908367ffffffffffffffff160217905550505050505050505050565b600460009054906101000a900473ffffffffffffffffffffffffffffffffffffffff1673ffffffffffffffffffffffffffffffffffffffff163373ffffffffffffffffffffffffffffffffffffffff1614612424576040517f08c379a000000000000000000000000000000000000000000000000000000000815260040161241b906135c4565b60405180910390fd5b8060078190555050565b612436612526565b73ffffffffffffffffffffffffffffffffffffffff16612454611172565b73ffffffffffffffffffffffffffffffffffffffff16146124aa576040517f08c379a00000000000000000000000000000000000000000000000000000000081526004016124a190613371565b60405180910390fd5b600073ffffffffffffffffffffffffffffffffffffffff168173ffffffffffffffffffffffffffffffffffffffff16141561251a576040517f08c379a000000000000000000000000000000000000000000000000000000000815260040161251190613c36565b60405180910390fd5b6125238161252e565b50565b600033905090565b60008060009054906101000a900473ffffffffffffffffffffffffffffffffffffffff169050816000806101000a81548173ffffffffffffffffffffffffffffffffffffffff021916908373ffffffffffffffffffffffffffffffffffffffff1602179055508173ffffffffffffffffffffffffffffffffffffffff168173ffffffffffffffffffffffffffffffffffffffff167f8be0079c531659141344cd1fd0a4f28419497f9722a3daafe3b4186f6b6457e060405160405180910390a35050565b604051806101a00160405280600073ffffffffffffffffffffffffffffffffffffffff1681526020016000815260200160008152602001606081526020016060815260200160608152602001606081526020016060815260200160608152602001606081526020016000815260200160008152602001600081525090565b82805461267c906134d7565b90600052602060002090601f01602090048101928261269e57600085556126e5565b82601f106126b757805160ff19168380011785556126e5565b828001600101855582156126e5579182015b828111156126e45782518255916020019190600101906126c9565b5b5090506126f291906126f6565b5090565b5b8082111561270f5760008160009055506001016126f7565b5090565b60008115159050919050565b61272881612713565b82525050565b6000602082019050612743600083018461271f565b92915050565b6000819050919050565b61275c81612749565b82525050565b60006020820190506127776000830184612753565b92915050565b6000604051905090565b600080fd5b600080fd5b61279a81612749565b81146127a557600080fd5b50565b6000813590506127b781612791565b92915050565b6000602082840312156127d3576127d2612787565b5b60006127e1848285016127a8565b91505092915050565b600073ffffffffffffffffffffffffffffffffffffffff82169050919050565b6000612815826127ea565b9050919050565b6128258161280a565b82525050565b61283481612749565b82525050565b600081519050919050565b600082825260208201905092915050565b6000819050602082019050919050565b6000612872838361282b565b60208301905092915050565b6000602082019050919050565b60006128968261283a565b6128a08185612845565b93506128ab83612856565b8060005b838110156128dc5781516128c38882612866565b97506128ce8361287e565b9250506001810190506128af565b5085935050505092915050565b600081519050919050565b600082825260208201905092915050565b6000819050602082019050919050565b600081519050919050565b600082825260208201905092915050565b60005b8381101561294f578082015181840152602081019050612934565b8381111561295e576000848401525b50505050565b6000601f19601f8301169050919050565b600061298082612915565b61298a8185612920565b935061299a818560208601612931565b6129a381612964565b840191505092915050565b60006129ba8383612975565b905092915050565b6000602082019050919050565b60006129da826128e9565b6129e481856128f4565b9350836020820285016129f685612905565b8060005b85811015612a325784840389528151612a1385826129ae565b9450612a1e836129c2565b925060208a019950506001810190506129fa565b50829750879550505050505092915050565b60006101a083016000830151612a5d600086018261281c565b506020830151612a70602086018261282b565b506040830151612a83604086018261282b565b5060608301518482036060860152612a9b828261288b565b91505060808301518482036080860152612ab5828261288b565b91505060a083015184820360a0860152612acf828261288b565b91505060c083015184820360c0860152612ae9828261288b565b91505060e083015184820360e0860152612b0382826129cf565b915050610100830151848203610100860152612b1f828261288b565b915050610120830151848203610120860152612b3b82826129cf565b915050610140830151612b5261014086018261282b565b50610160830151612b6761016086018261282b565b50610180830151612b7c61018086018261282b565b508091505092915050565b60006020820190508181036000830152612ba18184612a44565b905092915050565b612bb28161280a565b82525050565b6000602082019050612bcd6000830184612ba9565b92915050565b612bdc8161280a565b8114612be757600080fd5b50565b600081359050612bf981612bd3565b92915050565b600060208284031215612c1557612c14612787565b5b6000612c2384828501612bea565b91505092915050565b600080fd5b600080fd5b7f4e487b7100000000000000000000000000000000000000000000000000000000600052604160045260246000fd5b612c6e82612964565b810181811067ffffffffffffffff82111715612c8d57612c8c612c36565b5b80604052505050565b6000612ca061277d565b9050612cac8282612c65565b919050565b600067ffffffffffffffff821115612ccc57612ccb612c36565b5b612cd582612964565b9050602081019050919050565b82818337600083830152505050565b6000612d04612cff84612cb1565b612c96565b905082815260208101848484011115612d2057612d1f612c31565b5b612d2b848285612ce2565b509392505050565b600082601f830112612d4857612d47612c2c565b5b8135612d58848260208601612cf1565b91505092915050565b600080600080600080600060e0888a031215612d8057612d7f612787565b5b6000612d8e8a828b016127a8565b9750506020612d9f8a828b016127a8565b9650506040612db08a828b016127a8565b9550506060612dc18a828b016127a8565b9450506080612dd28a828b016127a8565b93505060a0612de38a828b016127a8565b92505060c088013567ffffffffffffffff811115612e0457612e0361278c565b5b612e108a828b01612d33565b91505092959891949750929550565b600067ffffffffffffffff821115612e3a57612e39612c36565b5b602082029050602081019050919050565b600080fd5b6000612e63612e5e84612e1f565b612c96565b90508083825260208201905060208402830185811115612e8657612e85612e4b565b5b835b81811015612eaf5780612e9b88826127a8565b845260208401935050602081019050612e88565b5050509392505050565b600082601f830112612ece57612ecd612c2c565b5b8135612ede848260208601612e50565b91505092915050565b600067ffffffffffffffff821115612f0257612f01612c36565b5b602082029050602081019050919050565b6000612f26612f2184612ee7565b612c96565b90508083825260208201905060208402830185811115612f4957612f48612e4b565b5b835b81811015612f9057803567ffffffffffffffff811115612f6e57612f6d612c2c565b5b808601612f7b8982612d33565b85526020850194505050602081019050612f4b565b5050509392505050565b600082601f830112612faf57612fae612c2c565b5b8135612fbf848260208601612f13565b91505092915050565b60008060008060008060008060008060006101608c8e031215612fee57612fed612787565b5b6000612ffc8e828f01612bea565b9b5050602061300d8e828f016127a8565b9a5050604061301e8e828f016127a8565b995050606061302f8e828f016127a8565b98505060808c013567ffffffffffffffff8111156130505761304f61278c565b5b61305c8e828f01612eb9565b97505060a08c013567ffffffffffffffff81111561307d5761307c61278c565b5b6130898e828f01612eb9565b96505060c08c013567ffffffffffffffff8111156130aa576130a961278c565b5b6130b68e828f01612eb9565b95505060e08c013567ffffffffffffffff8111156130d7576130d661278c565b5b6130e38e828f01612eb9565b9450506101008c013567ffffffffffffffff8111156131055761310461278c565b5b6131118e828f01612f9a565b9350506101208c013567ffffffffffffffff8111156131335761313261278c565b5b61313f8e828f01612f9a565b9250506101406131518e828f016127a8565b9150509295989b509295989b9093969950565b6000806040838503121561317b5761317a612787565b5b6000613189858286016127a8565b925050602061319a85828601612bea565b9150509250929050565b6000806000606084860312156131bd576131bc612787565b5b60006131cb868287016127a8565b93505060206131dc868287016127a8565b92505060406131ed868287016127a8565b9150509250925092565b600080fd5b60008083601f84011261321257613211612c2c565b5b8235905067ffffffffffffffff81111561322f5761322e6131f7565b5b60208301915083600182028301111561324b5761324a612e4b565b5b9250929050565b60008060008060008060008060e0898b03121561327257613271612787565b5b60006132808b828c016127a8565b98505060206132918b828c016127a8565b97505060406132a28b828c016127a8565b96505060606132b38b828c016127a8565b95505060806132c48b828c016127a8565b94505060a06132d58b828c016127a8565b93505060c089013567ffffffffffffffff8111156132f6576132f561278c565b5b6133028b828c016131fc565b92509250509295985092959890939650565b600082825260208201905092915050565b7f4f776e61626c653a2063616c6c6572206973206e6f7420746865206f776e6572600082015250565b600061335b602083613314565b915061336682613325565b602082019050919050565b6000602082019050818103600083015261338a8161334e565b9050919050565b7f4e487b7100000000000000000000000000000000000000000000000000000000600052601160045260246000fd5b60006133cb82612749565b91506133d683612749565b9250827fffffffffffffffffffffffffffffffffffffffffffffffffffffffffffffffff0382111561340b5761340a613391565b5b828201905092915050565b600061342182612749565b915061342c83612749565b92508282101561343f5761343e613391565b5b828203905092915050565b7f4e487b7100000000000000000000000000000000000000000000000000000000600052603260045260246000fd5b7f4e487b7100000000000000000000000000000000000000000000000000000000600052602160045260246000fd5b7f4e487b7100000000000000000000000000000000000000000000000000000000600052602260045260246000fd5b600060028204905060018216806134ef57607f821691505b60208210811415613503576135026134a8565b5b50919050565b600061351482612749565b91507fffffffffffffffffffffffffffffffffffffffffffffffffffffffffffffffff82141561354757613546613391565b5b600182019050919050565b7f5468652063616c6c6572206f66207468652066756e6374696f6e206973206e6f60008201527f742061646d696e00000000000000000000000000000000000000000000000000602082015250565b60006135ae602783613314565b91506135b982613552565b604082019050919050565b600060208201905081810360008301526135dd816135a1565b9050919050565b7f54686520626c6f636b636861696e2064617461626173652063616e206e6f742060008201527f62652065646974656420617420746865206d6f6d656e74000000000000000000602082015250565b6000613640603783613314565b915061364b826135e4565b604082019050919050565b6000602082019050818103600083015261366f81613633565b9050919050565b7f47616d652077617320616c726561647920737461727465640000000000000000600082015250565b60006136ac601883613314565b91506136b782613676565b602082019050919050565b600060208201905081810360008301526136db8161369f565b9050919050565b7f47616d6520646964206e6f74207374617274207965742e000000000000000000600082015250565b6000613718601783613314565b9150613723826136e2565b602082019050919050565b600060208201905081810360008301526137478161370b565b9050919050565b7f43616e27742067657420696e636f6d65207965742e0000000000000000000000600082015250565b6000613784601583613314565b915061378f8261374e565b602082019050919050565b600060208201905081810360008301526137b381613777565b9050919050565b7f4e487b7100000000000000000000000000000000000000000000000000000000600052601260045260246000fd5b60006137f482612749565b91506137ff83612749565b92508261380f5761380e6137ba565b5b828204905092915050565b600067ffffffffffffffff82169050919050565b60006138398261381a565b91506138448361381a565b92508167ffffffffffffffff048311821515161561386557613864613391565b5b828202905092915050565b600061387b8261381a565b91506138868361381a565b92508267ffffffffffffffff038211156138a3576138a2613391565b5b828201905092915050565b60006138b982612749565b91506138c483612749565b9250826138d4576138d36137ba565b5b828206905092915050565b60006138ea8261381a565b91506138f58361381a565b92508282101561390857613907613391565b5b828203905092915050565b7f43697479206973206e6f74206372656174656420796574000000000000000000600082015250565b6000613949601783613314565b915061395482613913565b602082019050919050565b600060208201905081810360008301526139788161393c565b9050919050565b7f4369747920697320616c726561647920696e697469616c697a65640000000000600082015250565b60006139b5601b83613314565b91506139c08261397f565b602082019050919050565b600060208201905081810360008301526139e4816139a8565b9050919050565b7f43697479206973206f776e657220627920736f6d656f6e6520656c7365000000600082015250565b6000613a21601d83613314565b9150613a2c826139eb565b602082019050919050565b60006020820190508181036000830152613a5081613a14565b9050919050565b600081905092915050565b6000613a6d82612915565b613a778185613a57565b9350613a87818560208601612931565b80840191505092915050565b6000613a9f8284613a62565b915081905092915050565b600063ffffffff82169050919050565b6000613ac582613aaa565b9150613ad083613aaa565b92508263ffffffff03821115613ae957613ae8613391565b5b828201905092915050565b7f48617320746f2062652073656e742066726f6d20746865204369747920436f6e60008201527f7472616374000000000000000000000000000000000000000000000000000000602082015250565b6000613b50602583613314565b9150613b5b82613af4565b604082019050919050565b60006020820190508181036000830152613b7f81613b43565b9050919050565b6000613b928385613a57565b9350613b9f838584612ce2565b82840190509392505050565b6000613bb8828486613b86565b91508190509392505050565b7f4f776e61626c653a206e6577206f776e657220697320746865207a65726f206160008201527f6464726573730000000000000000000000000000000000000000000000000000602082015250565b6000613c20602683613314565b9150613c2b82613bc4565b604082019050919050565b60006020820190508181036000830152613c4f81613c13565b905091905056fea2646970667358221220e2ba11669552bc9df674b9c7f11d618cf4aa338b6bde09d0a63b02dd32dac21864736f6c634300080b0033",
  "immutableReferences": {},
  "source": "// SPDX-License-Identifier: MIT\r\npragma solidity ^0.8.11;\r\n\r\nimport \"../node_modules/@openzeppelin/contracts/access/Ownable.sol\";\r\n\r\nimport \"./CityContract.sol\";\r\n\r\n// there are no checks if the request are valid or possible, it should be done in the backend.\r\n// maybe later it will be added here too, but for now it is not necessary since only the admin can call the functions\r\n\r\ncontract Gameplay is Ownable {\r\n\r\n    constructor(address _admin, address _nftContractAddress) {\r\n        initStringToType();\r\n        admin = _admin;\r\n        nftContractAddress = _nftContractAddress;\r\n        CityContract contr = CityContract(nftContractAddress);\r\n        contr.initGameplayContract(address(this));\r\n    }\r\n\r\n    enum BuildingTypes {\r\n        Factory,\r\n        Office,\r\n        Restaurant,\r\n        Building,\r\n        House,\r\n        Store,\r\n        SuperMarket,\r\n        Park,\r\n        Gym\r\n    }\r\n\r\n    mapping(string => BuildingTypes) stringToType;\r\n    mapping(BuildingTypes => string) typeToString;\r\n    uint numOfBuildingTypes = 10;\r\n    function initStringToType() private {\r\n        stringToType[\"factory\"] = BuildingTypes.Factory;\r\n        stringToType[\"office\"] = BuildingTypes.Office;\r\n        stringToType[\"restaurant\"] = BuildingTypes.Restaurant;\r\n        stringToType[\"building\"] = BuildingTypes.Building;\r\n        stringToType[\"house\"] = BuildingTypes.House;\r\n        stringToType[\"store\"] = BuildingTypes.Store;\r\n        stringToType[\"superMarket\"] = BuildingTypes.SuperMarket;\r\n        stringToType[\"park\"] = BuildingTypes.Park;\r\n        stringToType[\"gym\"] = BuildingTypes.Gym;\r\n\r\n        typeToString[BuildingTypes.Factory] = \"factory\";\r\n        typeToString[BuildingTypes.Office] = \"office\";\r\n        typeToString[BuildingTypes.Restaurant] = \"restaurant\";\r\n        typeToString[BuildingTypes.Building] = \"building\";\r\n        typeToString[BuildingTypes.House] = \"house\";\r\n        typeToString[BuildingTypes.Store] = \"store\";\r\n        typeToString[BuildingTypes.SuperMarket] = \"superMarket\";\r\n        typeToString[BuildingTypes.Park] = \"park\";\r\n        typeToString[BuildingTypes.Gym] = \"gym\";\r\n    }\r\n    \r\n    struct Building {\r\n        BuildingTypes buildingType;\r\n        uint32 startx;\r\n        uint32 starty;\r\n        uint32 endx;\r\n        uint32 endy;\r\n        uint32 level;\r\n    } // occupies 1 block of 256 bytes\r\n\r\n    struct SpecialBuilding {\r\n        string specialType;\r\n        uint32 startx;\r\n        uint32 starty;\r\n        uint32 endx;\r\n        uint32 endy;\r\n    } // occupies 2 block of 256 bytes\r\n\r\n    struct City {\r\n        mapping(uint => Building) buildingList;\r\n        mapping(uint => SpecialBuilding) specialBuildingList;\r\n        bool created;\r\n        bool initialized;\r\n        uint64 numOfBuildings;\r\n        uint64 numOfSpecialBuildings;\r\n        uint64 money;\r\n        uint64 income;\r\n        address owner;\r\n        uint lastPay;\r\n    } // occupies ( 4 + numOfBuildings + numOfSpecialBuildings ) blocks of 256 bytes in total\r\n\r\n\r\n    address admin;\r\n    address nftContractAddress;\r\n    bool editable = true;\r\n    uint gameStart = 2000000000;\r\n    uint payPeriod = 120; // 1 day = 86400\r\n\r\n    mapping(uint => City) cities; // map (array) containing all the data about the City NFTs\r\n    uint64 startingMoney = 100000; // the amount of in-game money everyone has right after minting\r\n\r\n    function created(uint tokenId, address addr) external {\r\n        cities[tokenId].owner = addr;\r\n        cities[tokenId].created = true;\r\n    }\r\n\r\n    function newOwner(uint tokenId, address _newOwner) public {\r\n        require(msg.sender == nftContractAddress, 'Has to be sent from the City Contract');\r\n        cities[tokenId].owner = _newOwner;\r\n    }\r\n\r\n    /**\r\n     * @dev Function used for minting new City NFTs\r\n     * @param tokenId index of the token being initialized\r\n     * @param numOfBuildings number of buildings in the city\r\n     * @param numOfSpecialBuildings number of special buildings in the city\r\n     * @param startx arrays of coordinates for both types of buildings\r\n     * @param starty ...\r\n     * @param endx ...\r\n     * @param endy ...\r\n     * @param buildingType array of strings representing the buildingTypes\r\n     * @param specialType uint array representing the types of the special buildings\r\n     * @param income the calculated income for the city\r\n     */\r\n    function initializeCity(\r\n        address owner,\r\n        uint tokenId,\r\n        uint numOfBuildings,\r\n        uint numOfSpecialBuildings,\r\n        uint[] memory startx,\r\n        uint[] memory starty,\r\n        uint[] memory endx,\r\n        uint[] memory endy,\r\n        string[] memory buildingType,\r\n        string[] memory specialType,\r\n        uint income\r\n    ) external onlyAdmin isEditable {\r\n        require(cities[tokenId].created == true , \"City is not created yet\");\r\n        require(cities[tokenId].initialized == false , \"City is already initialized\");\r\n        require(cities[tokenId].owner == owner, \"City is owner by someone else\");\r\n        \r\n        City storage city = cities[tokenId];\r\n        for(uint i = 0; i < numOfBuildings; i++) {\r\n            city.buildingList[i].startx = uint32(startx[i]);\r\n            city.buildingList[i].starty = uint32(starty[i]);\r\n            city.buildingList[i].endx = uint32(endx[i]);\r\n            city.buildingList[i].endy = uint32(endy[i]);\r\n            city.buildingList[i].buildingType = stringToType[buildingType[i]];\r\n        }\r\n        for(uint i = numOfBuildings; i < numOfSpecialBuildings + numOfBuildings; i++) {\r\n            city.specialBuildingList[i-numOfBuildings].startx = uint32(startx[i]);\r\n            city.specialBuildingList[i-numOfBuildings].starty = uint32(starty[i]);\r\n            city.specialBuildingList[i-numOfBuildings].endx = uint32(endx[i]);\r\n            city.specialBuildingList[i-numOfBuildings].endy = uint32(endy[i]);\r\n            city.specialBuildingList[i-numOfBuildings].specialType = specialType[i-numOfBuildings];\r\n        }\r\n        city.numOfBuildings = uint64(numOfBuildings);\r\n        city.numOfSpecialBuildings = uint64(numOfSpecialBuildings);\r\n        city.income = uint64(income);\r\n        city.money = startingMoney;\r\n        city.owner = owner;\r\n        city.initialized = true;\r\n        if(gameStart != 2000000000) city.lastPay = block.timestamp - ((block.timestamp - gameStart) % payPeriod);\r\n        else city.lastPay = 0;\r\n    }\r\n    \r\n    // ________________________________________________________________________\r\n    // functions that change the cities:\r\n    function upgradeBuilding(uint tokenId, uint price, uint buildingIndex) external onlyAdmin isEditable {\r\n        cities[tokenId].buildingList[buildingIndex].level += 1;\r\n        cities[tokenId].money = cities[tokenId].money - uint64(price);\r\n    }\r\n\r\n    function addBuilding(\r\n        uint tokenId,\r\n        uint price,\r\n        uint _startx,\r\n        uint _starty,\r\n        uint _endx,\r\n        uint _endy,\r\n        string calldata _buildingType\r\n    ) external onlyAdmin isEditable {\r\n        City storage city = cities[tokenId];\r\n        city.buildingList[city.numOfBuildings] = Building({\r\n            buildingType: stringToType[_buildingType],\r\n            startx: uint32(_startx),\r\n            starty: uint32(_starty),\r\n            endx: uint32(_endx),\r\n            endy: uint32(_endy),\r\n            level: 0\r\n        });\r\n        city.numOfBuildings += 1;\r\n        city.money = city.money - uint64(price);\r\n    }\r\n\r\n    function addSpecialBuilding(\r\n        uint tokenId,\r\n        uint price,\r\n        uint _startx,\r\n        uint _starty,\r\n        uint _endx,\r\n        uint _endy,\r\n        string memory _specialType\r\n    ) external onlyAdmin isEditable {\r\n        City storage city = cities[tokenId];\r\n        city.specialBuildingList[city.numOfSpecialBuildings] = SpecialBuilding({\r\n            specialType: _specialType,\r\n            startx: uint32(_startx),\r\n            starty: uint32(_starty),\r\n            endx: uint32(_endx),\r\n            endy: uint32(_endy)\r\n        });\r\n        city.numOfSpecialBuildings += 1;\r\n        city.money = city.money - uint64(price);\r\n    }\r\n\r\n    function startGameIncome() external onlyAdmin isEditable {\r\n        require(gameStart == 2000000000, \"Game was already started\");\r\n        gameStart = block.timestamp;\r\n        uint i = 0;\r\n        while(cities[i].owner != address(0)) {\r\n            cities[i].lastPay = gameStart;\r\n            i++;\r\n        }\r\n    }\r\n\r\n    function getIncome(uint tokenId) external onlyAdmin isEditable {\r\n        require(block.timestamp > gameStart, \"Game did not start yet.\");\r\n        require(block.timestamp - cities[tokenId].lastPay > payPeriod, \"Can't get income yet.\");\r\n\r\n        uint n = (block.timestamp - cities[tokenId].lastPay) / payPeriod;\r\n        cities[tokenId].money += uint64(n) * cities[tokenId].income;\r\n        cities[tokenId].lastPay = block.timestamp - ((block.timestamp - gameStart) % payPeriod);\r\n    }\r\n\r\n\r\n    // funkcije za dobijanje podata iz contract-a:\r\n    function getEditableState() external view returns(bool) {\r\n        return editable;\r\n    } // returns true if the cities are editable, and false if they are not\r\n\r\n\r\n    struct CityRepresentation {\r\n        address owner;\r\n        uint numOfBuildings;\r\n        uint numOfSpecialBuildings;\r\n        uint[] startx;\r\n        uint[] starty;\r\n        uint[] endx;\r\n        uint[] endy;\r\n        string[] buildingType;\r\n        uint[] level;\r\n        string[] specialType;\r\n        uint money;\r\n        uint income;\r\n        uint lastPay;\r\n    } // this is a struct used for returning values from the blockchain\r\n    function getCityData(uint tokenId) external view returns(CityRepresentation memory) {\r\n        City storage city = cities[tokenId];\r\n        uint numOfBuildings = city.numOfBuildings;\r\n        uint numOfSpecialBuildings  = city.numOfSpecialBuildings;\r\n        CityRepresentation memory r = CityRepresentation({\r\n            owner: city.owner,\r\n            numOfBuildings: numOfBuildings,\r\n            numOfSpecialBuildings: numOfSpecialBuildings,\r\n            startx: new uint[](numOfBuildings + numOfSpecialBuildings),\r\n            starty: new uint[](numOfBuildings + numOfSpecialBuildings),\r\n            endx: new uint[](numOfBuildings + numOfSpecialBuildings),\r\n            endy: new uint[](numOfBuildings + numOfSpecialBuildings),\r\n            buildingType: new string[](numOfBuildings),\r\n            level: new uint[](numOfBuildings),\r\n            specialType: new string[](numOfSpecialBuildings),\r\n            money: city.money,\r\n            income: city.income,\r\n            lastPay: (gameStart == 2000000000) ? gameStart : city.lastPay - gameStart\r\n        });\r\n        for(uint i = 0; i < numOfBuildings; i++) {  \r\n            r.startx[i] = city.buildingList[i].startx;\r\n            r.starty[i] = city.buildingList[i].starty;\r\n            r.endx[i] = city.buildingList[i].endx;\r\n            r.endy[i] = city.buildingList[i].endy;\r\n            r.buildingType[i] = typeToString[city.buildingList[i].buildingType];\r\n            r.level[i] = city.buildingList[i].level;\r\n        }\r\n        for(uint i = numOfBuildings; i < numOfSpecialBuildings + numOfBuildings; i++) {\r\n            r.startx[i] = city.specialBuildingList[i-numOfBuildings].startx;\r\n            r.starty[i] = city.specialBuildingList[i-numOfBuildings].starty;\r\n            r.endx[i] = city.specialBuildingList[i-numOfBuildings].endx;\r\n            r.endy[i] = city.specialBuildingList[i-numOfBuildings].endy;\r\n            r.specialType[i-numOfBuildings] = city.specialBuildingList[i-numOfBuildings].specialType;\r\n        }\r\n        return r;\r\n    } // returns a struct with all the data about the city with the 'tokenId' ID\r\n\r\n    function getBlockchainTime() external view returns(uint) {\r\n        return block.timestamp;\r\n    } // returns the timestamp from the blockchain\r\n\r\n\r\n    function changePayPeriod(uint _payPeriod) external onlyAdmin {\r\n        payPeriod = _payPeriod;\r\n    } // changes the time required to pass to receive income\r\n\r\n\r\n    // The following modifier is used to check if the person who called the function is the Admin\r\n    modifier onlyAdmin() {\r\n        require(msg.sender == admin, 'The caller of the function is not admin');\r\n        _;\r\n    }\r\n\r\n    // function that can change the Admin address in case a proble occurs - can be calles only by the owner\r\n    function changeAdmin(address newAdmin) external onlyOwner {\r\n        admin = newAdmin;\r\n    }\r\n\r\n    // The following modifier is used to check if the cities can be edited - they won't be editable only if a major problem occurs\r\n    modifier isEditable() {\r\n        require(editable == true, 'The blockchain database can not be edited at the moment');\r\n        _;\r\n    }\r\n\r\n    // The following function is called to restrict editing data on the blockchain\r\n    function flipEditableState() public onlyOwner {\r\n        editable = !editable;\r\n    }\r\n}",
  "sourcePath": "C:\\Users\\Dario Vajda\\OneDrive\\Desktop\\nft project\\nft\\smart_contracts\\contracts\\Gameplay.sol",
  "compiler": {
    "name": "solc",
    "version": "0.8.11+commit.d7f03943.Emscripten.clang"
  },
  "schemaVersion": "3.4.4",
  "updatedAt": "2022-02-26T21:38:21.770Z",
  "networkType": "ethereum",
  "devdoc": {
    "kind": "dev",
    "methods": {
      "initializeCity(address,uint256,uint256,uint256,uint256[],uint256[],uint256[],uint256[],string[],string[],uint256)": {
        "details": "Function used for minting new City NFTs",
        "params": {
          "buildingType": "array of strings representing the buildingTypes",
          "endx": "...",
          "endy": "...",
          "income": "the calculated income for the city",
          "numOfBuildings": "number of buildings in the city",
          "numOfSpecialBuildings": "number of special buildings in the city",
          "specialType": "uint array representing the types of the special buildings",
          "startx": "arrays of coordinates for both types of buildings",
          "starty": "...",
          "tokenId": "index of the token being initialized"
        }
      },
      "owner()": {
        "details": "Returns the address of the current owner."
      },
      "renounceOwnership()": {
        "details": "Leaves the contract without owner. It will not be possible to call `onlyOwner` functions anymore. Can only be called by the current owner. NOTE: Renouncing ownership will leave the contract without an owner, thereby removing any functionality that is only available to the owner."
      },
      "transferOwnership(address)": {
        "details": "Transfers ownership of the contract to a new account (`newOwner`). Can only be called by the current owner."
      }
    },
    "version": 1
  },
  "userdoc": {
    "kind": "user",
    "methods": {},
    "version": 1
  }
}