{
  "contractName": "Gameplay",
  "abi": [
    {
      "inputs": [
        {
          "internalType": "address",
          "name": "_admin",
          "type": "address"
        },
        {
          "internalType": "address",
          "name": "_nftContractAddress",
          "type": "address"
        }
      ],
      "stateMutability": "nonpayable",
      "type": "constructor"
    },
    {
      "anonymous": false,
      "inputs": [
        {
          "indexed": true,
          "internalType": "address",
          "name": "previousOwner",
          "type": "address"
        },
        {
          "indexed": true,
          "internalType": "address",
          "name": "newOwner",
          "type": "address"
        }
      ],
      "name": "OwnershipTransferred",
      "type": "event"
    },
    {
      "inputs": [],
      "name": "owner",
      "outputs": [
        {
          "internalType": "address",
          "name": "",
          "type": "address"
        }
      ],
      "stateMutability": "view",
      "type": "function",
      "constant": true
    },
    {
      "inputs": [],
      "name": "renounceOwnership",
      "outputs": [],
      "stateMutability": "nonpayable",
      "type": "function"
    },
    {
      "inputs": [
        {
          "internalType": "address",
          "name": "newOwner",
          "type": "address"
        }
      ],
      "name": "transferOwnership",
      "outputs": [],
      "stateMutability": "nonpayable",
      "type": "function"
    },
    {
      "inputs": [
        {
          "internalType": "uint256",
          "name": "tokenId",
          "type": "uint256"
        },
        {
          "internalType": "address",
          "name": "addr",
          "type": "address"
        }
      ],
      "name": "created",
      "outputs": [],
      "stateMutability": "nonpayable",
      "type": "function"
    },
    {
      "inputs": [
        {
          "internalType": "uint256",
          "name": "tokenId",
          "type": "uint256"
        },
        {
          "internalType": "address",
          "name": "_newOwner",
          "type": "address"
        }
      ],
      "name": "newOwner",
      "outputs": [],
      "stateMutability": "nonpayable",
      "type": "function"
    },
    {
      "inputs": [
        {
          "internalType": "address",
          "name": "owner",
          "type": "address"
        },
        {
          "internalType": "uint256",
          "name": "tokenId",
          "type": "uint256"
        }
      ],
      "name": "initializeCity",
      "outputs": [],
      "stateMutability": "nonpayable",
      "type": "function"
    },
    {
      "inputs": [
        {
          "internalType": "uint256",
          "name": "tokenId",
          "type": "uint256"
        },
        {
          "internalType": "string",
          "name": "_username",
          "type": "string"
        }
      ],
      "name": "changeusername",
      "outputs": [],
      "stateMutability": "nonpayable",
      "type": "function"
    },
    {
      "inputs": [
        {
          "internalType": "uint256",
          "name": "tokenId",
          "type": "uint256"
        },
        {
          "internalType": "uint256",
          "name": "newScore",
          "type": "uint256"
        }
      ],
      "name": "changeScore",
      "outputs": [],
      "stateMutability": "nonpayable",
      "type": "function"
    },
    {
      "inputs": [
        {
          "internalType": "uint256",
          "name": "tokenId",
          "type": "uint256"
        },
        {
          "internalType": "uint256",
          "name": "price",
          "type": "uint256"
        },
        {
          "internalType": "uint256",
          "name": "buildingIndex",
          "type": "uint256"
        }
      ],
      "name": "upgradeBuilding",
      "outputs": [],
      "stateMutability": "nonpayable",
      "type": "function"
    },
    {
      "inputs": [
        {
          "internalType": "uint256",
          "name": "tokenId",
          "type": "uint256"
        },
        {
          "internalType": "uint256",
          "name": "price",
          "type": "uint256"
        },
        {
          "internalType": "uint256",
          "name": "_startx",
          "type": "uint256"
        },
        {
          "internalType": "uint256",
          "name": "_starty",
          "type": "uint256"
        },
        {
          "internalType": "uint256",
          "name": "_endx",
          "type": "uint256"
        },
        {
          "internalType": "uint256",
          "name": "_endy",
          "type": "uint256"
        },
        {
          "internalType": "uint256",
          "name": "_orientation",
          "type": "uint256"
        },
        {
          "internalType": "string",
          "name": "_buildingType",
          "type": "string"
        }
      ],
      "name": "addBuilding",
      "outputs": [],
      "stateMutability": "nonpayable",
      "type": "function"
    },
    {
      "inputs": [
        {
          "internalType": "uint256",
          "name": "tokenId",
          "type": "uint256"
        },
        {
          "internalType": "uint256",
          "name": "price",
          "type": "uint256"
        },
        {
          "internalType": "uint256",
          "name": "_startx",
          "type": "uint256"
        },
        {
          "internalType": "uint256",
          "name": "_starty",
          "type": "uint256"
        },
        {
          "internalType": "uint256",
          "name": "_endx",
          "type": "uint256"
        },
        {
          "internalType": "uint256",
          "name": "_endy",
          "type": "uint256"
        },
        {
          "internalType": "uint256",
          "name": "_orientation",
          "type": "uint256"
        },
        {
          "internalType": "string",
          "name": "_specialType",
          "type": "string"
        }
      ],
      "name": "addSpecialBuilding",
      "outputs": [],
      "stateMutability": "nonpayable",
      "type": "function"
    },
    {
      "inputs": [
        {
          "internalType": "uint256",
          "name": "tokenId",
          "type": "uint256"
        },
        {
          "internalType": "uint256",
          "name": "value",
          "type": "uint256"
        },
        {
          "internalType": "uint256",
          "name": "buildingIndex",
          "type": "uint256"
        }
      ],
      "name": "removeBuilding",
      "outputs": [],
      "stateMutability": "nonpayable",
      "type": "function"
    },
    {
      "inputs": [
        {
          "internalType": "uint256",
          "name": "tokenId",
          "type": "uint256"
        },
        {
          "internalType": "uint256",
          "name": "value",
          "type": "uint256"
        },
        {
          "internalType": "uint256",
          "name": "buildingIndex",
          "type": "uint256"
        }
      ],
      "name": "removeSpecialBuilding",
      "outputs": [],
      "stateMutability": "nonpayable",
      "type": "function"
    },
    {
      "inputs": [
        {
          "internalType": "uint256",
          "name": "tokenId",
          "type": "uint256"
        },
        {
          "internalType": "uint256",
          "name": "buildingIndex",
          "type": "uint256"
        },
        {
          "internalType": "uint256",
          "name": "_orientation",
          "type": "uint256"
        }
      ],
      "name": "rotate",
      "outputs": [],
      "stateMutability": "nonpayable",
      "type": "function"
    },
    {
      "inputs": [
        {
          "internalType": "uint256",
          "name": "tokenId",
          "type": "uint256"
        },
        {
          "internalType": "uint256",
          "name": "buildingIndex",
          "type": "uint256"
        },
        {
          "internalType": "uint256",
          "name": "_orientation",
          "type": "uint256"
        }
      ],
      "name": "rotateSpecial",
      "outputs": [],
      "stateMutability": "nonpayable",
      "type": "function"
    },
    {
      "inputs": [],
      "name": "startGameIncome",
      "outputs": [],
      "stateMutability": "nonpayable",
      "type": "function"
    },
    {
      "inputs": [
        {
          "internalType": "uint256",
          "name": "tokenId",
          "type": "uint256"
        },
        {
          "internalType": "uint256",
          "name": "income",
          "type": "uint256"
        }
      ],
      "name": "getIncome",
      "outputs": [],
      "stateMutability": "nonpayable",
      "type": "function"
    },
    {
      "inputs": [],
      "name": "getEditableState",
      "outputs": [
        {
          "internalType": "bool",
          "name": "",
          "type": "bool"
        }
      ],
      "stateMutability": "view",
      "type": "function",
      "constant": true
    },
    {
      "inputs": [
        {
          "internalType": "uint256",
          "name": "tokenId",
          "type": "uint256"
        }
      ],
      "name": "getCityData",
      "outputs": [
        {
          "components": [
            {
              "internalType": "address",
              "name": "owner",
              "type": "address"
            },
            {
              "internalType": "uint256",
              "name": "numOfBuildings",
              "type": "uint256"
            },
            {
              "internalType": "uint256",
              "name": "numOfSpecialBuildings",
              "type": "uint256"
            },
            {
              "internalType": "string",
              "name": "username",
              "type": "string"
            },
            {
              "internalType": "bool",
              "name": "created",
              "type": "bool"
            },
            {
              "internalType": "bool",
              "name": "initialized",
              "type": "bool"
            },
            {
              "internalType": "uint256[]",
              "name": "startx",
              "type": "uint256[]"
            },
            {
              "internalType": "uint256[]",
              "name": "starty",
              "type": "uint256[]"
            },
            {
              "internalType": "uint256[]",
              "name": "endx",
              "type": "uint256[]"
            },
            {
              "internalType": "uint256[]",
              "name": "endy",
              "type": "uint256[]"
            },
            {
              "internalType": "uint256[]",
              "name": "orientation",
              "type": "uint256[]"
            },
            {
              "internalType": "string[]",
              "name": "buildingType",
              "type": "string[]"
            },
            {
              "internalType": "uint256[]",
              "name": "level",
              "type": "uint256[]"
            },
            {
              "internalType": "string[]",
              "name": "specialType",
              "type": "string[]"
            },
            {
              "internalType": "uint256",
              "name": "money",
              "type": "uint256"
            },
            {
              "internalType": "uint256",
              "name": "income",
              "type": "uint256"
            },
            {
              "internalType": "uint256",
              "name": "incomesReceived",
              "type": "uint256"
            }
          ],
          "internalType": "struct Gameplay.CityRepresentation",
          "name": "",
          "type": "tuple"
        }
      ],
      "stateMutability": "view",
      "type": "function",
      "constant": true
    },
    {
      "inputs": [],
      "name": "getNumOfPlayers",
      "outputs": [
        {
          "internalType": "uint256",
          "name": "",
          "type": "uint256"
        }
      ],
      "stateMutability": "view",
      "type": "function",
      "constant": true
    },
    {
      "inputs": [
        {
          "internalType": "uint256",
          "name": "tokenId",
          "type": "uint256"
        }
      ],
      "name": "getScore",
      "outputs": [
        {
          "components": [
            {
              "internalType": "uint256",
              "name": "score",
              "type": "uint256"
            },
            {
              "internalType": "bool",
              "name": "initialized",
              "type": "bool"
            }
          ],
          "internalType": "struct Gameplay.Score",
          "name": "",
          "type": "tuple"
        }
      ],
      "stateMutability": "view",
      "type": "function",
      "constant": true
    },
    {
      "inputs": [],
      "name": "getBlockchainTime",
      "outputs": [
        {
          "internalType": "uint256",
          "name": "",
          "type": "uint256"
        }
      ],
      "stateMutability": "view",
      "type": "function",
      "constant": true
    },
    {
      "inputs": [
        {
          "internalType": "uint256",
          "name": "_payPeriod",
          "type": "uint256"
        }
      ],
      "name": "changePayPeriod",
      "outputs": [],
      "stateMutability": "nonpayable",
      "type": "function"
    },
    {
      "inputs": [
        {
          "internalType": "address",
          "name": "newAdmin",
          "type": "address"
        }
      ],
      "name": "changeAdmin",
      "outputs": [],
      "stateMutability": "nonpayable",
      "type": "function"
    },
    {
      "inputs": [],
      "name": "flipEditableState",
      "outputs": [],
      "stateMutability": "nonpayable",
      "type": "function"
    },
    {
      "inputs": [
        {
          "internalType": "uint256",
          "name": "tokenId",
          "type": "uint256"
        },
        {
          "internalType": "uint256",
          "name": "_money",
          "type": "uint256"
        }
      ],
      "name": "devSetMoney",
      "outputs": [],
      "stateMutability": "nonpayable",
      "type": "function"
    },
    {
      "inputs": [
        {
          "internalType": "uint256",
          "name": "tokenId",
          "type": "uint256"
        }
      ],
      "name": "devDemolishCity",
      "outputs": [],
      "stateMutability": "nonpayable",
      "type": "function"
    }
  ],
  "bytecode": "0x6080604052600a60035560006005556001600660146101000a81548160ff0219169083151502179055506377359400600755603c600855620186a0600a60006101000a81548163ffffffff021916908363ffffffff1602179055503480156200006757600080fd5b5060405162005d7c38038062005d7c83398181016040528101906200008d919062000b37565b620000ad620000a1620001de60201b60201c565b620001e660201b60201c565b620000bd620002aa60201b60201c565b81600460006101000a81548173ffffffffffffffffffffffffffffffffffffffff021916908373ffffffffffffffffffffffffffffffffffffffff16021790555080600660006101000a81548173ffffffffffffffffffffffffffffffffffffffff021916908373ffffffffffffffffffffffffffffffffffffffff1602179055506000600660009054906101000a900473ffffffffffffffffffffffffffffffffffffffff1690508073ffffffffffffffffffffffffffffffffffffffff1663ce5bc7a6306040518263ffffffff1660e01b8152600401620001a1919062000b8f565b600060405180830381600087803b158015620001bc57600080fd5b505af1158015620001d1573d6000803e3d6000fd5b5050505050505062000fea565b600033905090565b60008060009054906101000a900473ffffffffffffffffffffffffffffffffffffffff169050816000806101000a81548173ffffffffffffffffffffffffffffffffffffffff021916908373ffffffffffffffffffffffffffffffffffffffff1602179055508173ffffffffffffffffffffffffffffffffffffffff168173ffffffffffffffffffffffffffffffffffffffff167f8be0079c531659141344cd1fd0a4f28419497f9722a3daafe3b4186f6b6457e060405160405180910390a35050565b60006001604051620002bc9062000c07565b908152602001604051809103902060006101000a81548160ff02191690836008811115620002ef57620002ee62000c1e565b5b0217905550600180604051620003059062000c9d565b908152602001604051809103902060006101000a81548160ff0219169083600881111562000338576200033762000c1e565b5b0217905550600260016040516200034f9062000d04565b908152602001604051809103902060006101000a81548160ff0219169083600881111562000382576200038162000c1e565b5b021790555060036001604051620003999062000d6b565b908152602001604051809103902060006101000a81548160ff02191690836008811115620003cc57620003cb62000c1e565b5b021790555060046001604051620003e39062000dd2565b908152602001604051809103902060006101000a81548160ff0219169083600881111562000416576200041562000c1e565b5b0217905550600560016040516200042d9062000e39565b908152602001604051809103902060006101000a81548160ff0219169083600881111562000460576200045f62000c1e565b5b021790555060066001604051620004779062000ea0565b908152602001604051809103902060006101000a81548160ff02191690836008811115620004aa57620004a962000c1e565b5b021790555060076001604051620004c19062000f07565b908152602001604051809103902060006101000a81548160ff02191690836008811115620004f457620004f362000c1e565b5b0217905550600860016040516200050b9062000f6e565b908152602001604051809103902060006101000a81548160ff021916908360088111156200053e576200053d62000c1e565b5b02179055506040518060400160405280600781526020017f666163746f7279000000000000000000000000000000000000000000000000008152506002600080600881111562000593576200059262000c1e565b5b6008811115620005a857620005a762000c1e565b5b81526020019081526020016000209080519060200190620005cb92919062000a1d565b506040518060400160405280600681526020017f6f6666696365000000000000000000000000000000000000000000000000000081525060026000600160088111156200061d576200061c62000c1e565b5b600881111562000632576200063162000c1e565b5b815260200190815260200160002090805190602001906200065592919062000a1d565b506040518060400160405280600a81526020017f72657374617572616e74000000000000000000000000000000000000000000008152506002600060026008811115620006a757620006a662000c1e565b5b6008811115620006bc57620006bb62000c1e565b5b81526020019081526020016000209080519060200190620006df92919062000a1d565b506040518060400160405280600881526020017f6275696c64696e67000000000000000000000000000000000000000000000000815250600260006003600881111562000731576200073062000c1e565b5b600881111562000746576200074562000c1e565b5b815260200190815260200160002090805190602001906200076992919062000a1d565b506040518060400160405280600581526020017f686f7573650000000000000000000000000000000000000000000000000000008152506002600060046008811115620007bb57620007ba62000c1e565b5b6008811115620007d057620007cf62000c1e565b5b81526020019081526020016000209080519060200190620007f392919062000a1d565b506040518060400160405280600581526020017f73746f7265000000000000000000000000000000000000000000000000000000815250600260006005600881111562000845576200084462000c1e565b5b60088111156200085a576200085962000c1e565b5b815260200190815260200160002090805190602001906200087d92919062000a1d565b506040518060400160405280600b81526020017f73757065724d61726b65740000000000000000000000000000000000000000008152506002600060066008811115620008cf57620008ce62000c1e565b5b6008811115620008e457620008e362000c1e565b5b815260200190815260200160002090805190602001906200090792919062000a1d565b506040518060400160405280600481526020017f7061726b00000000000000000000000000000000000000000000000000000000815250600260006007600881111562000959576200095862000c1e565b5b60088111156200096e576200096d62000c1e565b5b815260200190815260200160002090805190602001906200099192919062000a1d565b506040518060400160405280600381526020017f67796d000000000000000000000000000000000000000000000000000000000081525060026000600880811115620009e257620009e162000c1e565b5b6008811115620009f757620009f662000c1e565b5b8152602001908152602001600020908051906020019062000a1a92919062000a1d565b50565b82805462000a2b9062000fb4565b90600052602060002090601f01602090048101928262000a4f576000855562000a9b565b82601f1062000a6a57805160ff191683800117855562000a9b565b8280016001018555821562000a9b579182015b8281111562000a9a57825182559160200191906001019062000a7d565b5b50905062000aaa919062000aae565b5090565b5b8082111562000ac957600081600090555060010162000aaf565b5090565b600080fd5b600073ffffffffffffffffffffffffffffffffffffffff82169050919050565b600062000aff8262000ad2565b9050919050565b62000b118162000af2565b811462000b1d57600080fd5b50565b60008151905062000b318162000b06565b92915050565b6000806040838503121562000b515762000b5062000acd565b5b600062000b618582860162000b20565b925050602062000b748582860162000b20565b9150509250929050565b62000b898162000af2565b82525050565b600060208201905062000ba6600083018462000b7e565b92915050565b600081905092915050565b7f666163746f727900000000000000000000000000000000000000000000000000600082015250565b600062000bef60078362000bac565b915062000bfc8262000bb7565b600782019050919050565b600062000c148262000be0565b9150819050919050565b7f4e487b7100000000000000000000000000000000000000000000000000000000600052602160045260246000fd5b7f6f66666963650000000000000000000000000000000000000000000000000000600082015250565b600062000c8560068362000bac565b915062000c928262000c4d565b600682019050919050565b600062000caa8262000c76565b9150819050919050565b7f72657374617572616e7400000000000000000000000000000000000000000000600082015250565b600062000cec600a8362000bac565b915062000cf98262000cb4565b600a82019050919050565b600062000d118262000cdd565b9150819050919050565b7f6275696c64696e67000000000000000000000000000000000000000000000000600082015250565b600062000d5360088362000bac565b915062000d608262000d1b565b600882019050919050565b600062000d788262000d44565b9150819050919050565b7f686f757365000000000000000000000000000000000000000000000000000000600082015250565b600062000dba60058362000bac565b915062000dc78262000d82565b600582019050919050565b600062000ddf8262000dab565b9150819050919050565b7f73746f7265000000000000000000000000000000000000000000000000000000600082015250565b600062000e2160058362000bac565b915062000e2e8262000de9565b600582019050919050565b600062000e468262000e12565b9150819050919050565b7f73757065724d61726b6574000000000000000000000000000000000000000000600082015250565b600062000e88600b8362000bac565b915062000e958262000e50565b600b82019050919050565b600062000ead8262000e79565b9150819050919050565b7f7061726b00000000000000000000000000000000000000000000000000000000600082015250565b600062000eef60048362000bac565b915062000efc8262000eb7565b600482019050919050565b600062000f148262000ee0565b9150819050919050565b7f67796d0000000000000000000000000000000000000000000000000000000000600082015250565b600062000f5660038362000bac565b915062000f638262000f1e565b600382019050919050565b600062000f7b8262000f47565b9150819050919050565b7f4e487b7100000000000000000000000000000000000000000000000000000000600052602260045260246000fd5b6000600282049050600182168062000fcd57607f821691505b6020821081141562000fe45762000fe362000f85565b5b50919050565b614d828062000ffa6000396000f3fe608060405234801561001057600080fd5b50600436106101a85760003560e01c8063715018a6116100f9578063d9cd507411610097578063e571319f11610071578063e571319f1461042b578063eb318ff714610447578063f1c1295514610463578063f2fde38b1461047f576101a8565b8063d9cd5074146103d7578063de1e2134146103f3578063e4e2d2ae1461040f576101a8565b8063b758eeaa116100d3578063b758eeaa14610367578063b7d96c4a14610383578063cc6ebc8b1461039f578063cf322e94146103bb576101a8565b8063715018a6146103235780638da5cb5b1461032d5780638f2839701461034b576101a8565b80633fb9c005116101665780635a7b71da116101405780635a7b71da146102af57806368f9e312146102cb5780636c241bb1146102e95780636d5dcb2b14610319576101a8565b80633fb9c005146102575780634920f90614610273578063565429de14610291576101a8565b8062965160146101ad5780630e1af57b146101c957806319932474146101f95780632168a42b1461021557806323657514146102315780633c6a34e01461023b575b600080fd5b6101c760048036038101906101c29190613bc1565b61049b565b005b6101e360048036038101906101de9190613bc1565b61059a565b6040516101f09190613c47565b60405180910390f35b610213600480360381019061020e9190613c62565b6105fc565b005b61022f600480360381019061022a9190613c62565b610bc3565b005b610239610cf7565b005b61025560048036038101906102509190613cb5565b610d9f565b005b610271600480360381019061026c9190613d53565b61106f565b005b61027b6113bd565b6040516102889190613da2565b60405180910390f35b6102996113d4565b6040516102a69190613dcc565b60405180910390f35b6102c960048036038101906102c49190613c62565b6113de565b005b6102d3611a71565b6040516102e09190613dcc565b60405180910390f35b61030360048036038101906102fe9190613bc1565b611a79565b60405161031091906141a5565b60405180910390f35b610321612520565b005b61032b61270e565b005b610335612796565b60405161034291906141d6565b60405180910390f35b610365600480360381019061036091906141f1565b6127bf565b005b610381600480360381019061037c919061421e565b61287f565b005b61039d60048036038101906103989190613cb5565b6129af565b005b6103b960048036038101906103b49190613c62565b612a80565b005b6103d560048036038101906103d0919061421e565b612c45565b005b6103f160048036038101906103ec91906142c3565b612d2e565b005b61040d600480360381019061040891906142c3565b613068565b005b61042960048036038101906104249190613cb5565b6133e4565b005b61044560048036038101906104409190613c62565b6134e6565b005b610461600480360381019061045c9190613bc1565b61361a565b005b61047d60048036038101906104789190614399565b6136b4565b005b610499600480360381019061049491906141f1565b61374d565b005b600460009054906101000a900473ffffffffffffffffffffffffffffffffffffffff1673ffffffffffffffffffffffffffffffffffffffff163373ffffffffffffffffffffffffffffffffffffffff161461052b576040517f08c379a00000000000000000000000000000000000000000000000000000000081526004016105229061447c565b60405180910390fd5b60006009600083815260200190815260200160002060030160026101000a81548163ffffffff021916908363ffffffff16021790555060006009600083815260200190815260200160002060030160066101000a81548163ffffffff021916908363ffffffff16021790555050565b6105a2613911565b60006040518060400160405280600b60008681526020019081526020016000205481526020016009600086815260200190815260200160002060030160019054906101000a900460ff161515815250905080915050919050565b600460009054906101000a900473ffffffffffffffffffffffffffffffffffffffff1673ffffffffffffffffffffffffffffffffffffffff163373ffffffffffffffffffffffffffffffffffffffff161461068c576040517f08c379a00000000000000000000000000000000000000000000000000000000081526004016106839061447c565b60405180910390fd5b60011515600660149054906101000a900460ff161515146106e2576040517f08c379a00000000000000000000000000000000000000000000000000000000081526004016106d99061450e565b60405180910390fd5b60016009600085815260200190815260200160002060030160069054906101000a900463ffffffff16610715919061456d565b6009600085815260200190815260200160002060030160066101000a81548163ffffffff021916908363ffffffff1602179055506009600084815260200190815260200160002060010160006009600086815260200190815260200160002060030160069054906101000a900463ffffffff1663ffffffff1681526020019081526020016000206000016009600085815260200190815260200160002060010160008381526020019081526020016000206000019080546107d5906145d0565b6107e092919061392d565b506009600084815260200190815260200160002060010160006009600086815260200190815260200160002060030160069054906101000a900463ffffffff1663ffffffff16815260200190815260200160002060010160009054906101000a900463ffffffff1660096000858152602001908152602001600020600101600083815260200190815260200160002060010160006101000a81548163ffffffff021916908363ffffffff1602179055506009600084815260200190815260200160002060010160006009600086815260200190815260200160002060030160069054906101000a900463ffffffff1663ffffffff16815260200190815260200160002060010160049054906101000a900463ffffffff1660096000858152602001908152602001600020600101600083815260200190815260200160002060010160046101000a81548163ffffffff021916908363ffffffff1602179055506009600084815260200190815260200160002060010160006009600086815260200190815260200160002060030160069054906101000a900463ffffffff1663ffffffff16815260200190815260200160002060010160089054906101000a900463ffffffff1660096000858152602001908152602001600020600101600083815260200190815260200160002060010160086101000a81548163ffffffff021916908363ffffffff1602179055506009600084815260200190815260200160002060010160006009600086815260200190815260200160002060030160069054906101000a900463ffffffff1663ffffffff168152602001908152602001600020600101600c9054906101000a900463ffffffff16600960008581526020019081526020016000206001016000838152602001908152602001600020600101600c6101000a81548163ffffffff021916908363ffffffff1602179055506009600084815260200190815260200160002060010160006009600086815260200190815260200160002060030160069054906101000a900463ffffffff1663ffffffff16815260200190815260200160002060010160109054906101000a900463ffffffff1660096000858152602001908152602001600020600101600083815260200190815260200160002060010160106101000a81548163ffffffff021916908363ffffffff1602179055508160096000858152602001908152602001600020600301600a9054906101000a900467ffffffffffffffff16610b829190614616565b60096000858152602001908152602001600020600301600a6101000a81548167ffffffffffffffff021916908367ffffffffffffffff160217905550505050565b600460009054906101000a900473ffffffffffffffffffffffffffffffffffffffff1673ffffffffffffffffffffffffffffffffffffffff163373ffffffffffffffffffffffffffffffffffffffff1614610c53576040517f08c379a0000000000000000000000000000000000000000000000000000000008152600401610c4a9061447c565b60405180910390fd5b60011515600660149054906101000a900460ff16151514610ca9576040517f08c379a0000000000000000000000000000000000000000000000000000000008152600401610ca09061450e565b60405180910390fd5b8060096000858152602001908152602001600020600001600084815260200190815260200160002060000160156101000a81548163ffffffff021916908363ffffffff160217905550505050565b610cff613845565b73ffffffffffffffffffffffffffffffffffffffff16610d1d612796565b73ffffffffffffffffffffffffffffffffffffffff1614610d73576040517f08c379a0000000000000000000000000000000000000000000000000000000008152600401610d6a906146a0565b60405180910390fd5b600660149054906101000a900460ff1615600660146101000a81548160ff021916908315150217905550565b600460009054906101000a900473ffffffffffffffffffffffffffffffffffffffff1673ffffffffffffffffffffffffffffffffffffffff163373ffffffffffffffffffffffffffffffffffffffff1614610e2f576040517f08c379a0000000000000000000000000000000000000000000000000000000008152600401610e269061447c565b60405180910390fd5b60011515600660149054906101000a900460ff16151514610e85576040517f08c379a0000000000000000000000000000000000000000000000000000000008152600401610e7c9061450e565b60405180910390fd5b6007544211610ec9576040517f08c379a0000000000000000000000000000000000000000000000000000000008152600401610ec09061470c565b60405180910390fd5b6007546008546009600085815260200190815260200160002060030160169054906101000a900463ffffffff1663ffffffff16610f06919061472c565b610f109190614786565b4211610f51576040517f08c379a0000000000000000000000000000000000000000000000000000000008152600401610f4890614828565b60405180910390fd5b60006009600084815260200190815260200160002060030160169054906101000a900463ffffffff1663ffffffff1660085460075442610f919190614848565b610f9b91906148ab565b610fa59190614848565b90508181610fb3919061472c565b63ffffffff1660096000858152602001908152602001600020600301600a8282829054906101000a900467ffffffffffffffff16610ff19190614616565b92506101000a81548167ffffffffffffffff021916908367ffffffffffffffff160217905550806009600085815260200190815260200160002060030160168282829054906101000a900463ffffffff1661104c91906148dc565b92506101000a81548163ffffffff021916908363ffffffff160217905550505050565b600460009054906101000a900473ffffffffffffffffffffffffffffffffffffffff1673ffffffffffffffffffffffffffffffffffffffff163373ffffffffffffffffffffffffffffffffffffffff16146110ff576040517f08c379a00000000000000000000000000000000000000000000000000000000081526004016110f69061447c565b60405180910390fd5b60011515600660149054906101000a900460ff16151514611155576040517f08c379a000000000000000000000000000000000000000000000000000000000815260040161114c9061450e565b60405180910390fd5b600115156009600083815260200190815260200160002060030160009054906101000a900460ff161515146111bf576040517f08c379a00000000000000000000000000000000000000000000000000000000081526004016111b690614962565b60405180910390fd5b600015156009600083815260200190815260200160002060030160019054906101000a900460ff16151514611229576040517f08c379a0000000000000000000000000000000000000000000000000000000008152600401611220906149ce565b60405180910390fd5b8173ffffffffffffffffffffffffffffffffffffffff166009600083815260200190815260200160002060040160009054906101000a900473ffffffffffffffffffffffffffffffffffffffff1673ffffffffffffffffffffffffffffffffffffffff16146112cd576040517f08c379a00000000000000000000000000000000000000000000000000000000081526004016112c490614a3a565b60405180910390fd5b6000600960008381526020019081526020016000209050600a60009054906101000a900463ffffffff1663ffffffff1681600301600a6101000a81548167ffffffffffffffff021916908367ffffffffffffffff16021790555060018160030160016101000a81548160ff02191690831515021790555063773594006007541461139357600854600754426113629190614848565b61136c91906148ab565b8160030160166101000a81548163ffffffff021916908363ffffffff1602179055506113b8565b60008160030160166101000a81548163ffffffff021916908363ffffffff1602179055505b505050565b6000600660149054906101000a900460ff16905090565b6000600554905090565b600460009054906101000a900473ffffffffffffffffffffffffffffffffffffffff1673ffffffffffffffffffffffffffffffffffffffff163373ffffffffffffffffffffffffffffffffffffffff161461146e576040517f08c379a00000000000000000000000000000000000000000000000000000000081526004016114659061447c565b60405180910390fd5b60011515600660149054906101000a900460ff161515146114c4576040517f08c379a00000000000000000000000000000000000000000000000000000000081526004016114bb9061450e565b60405180910390fd5b60016009600085815260200190815260200160002060030160029054906101000a900463ffffffff166114f7919061456d565b6009600085815260200190815260200160002060030160026101000a81548163ffffffff021916908363ffffffff1602179055506009600084815260200190815260200160002060000160006009600086815260200190815260200160002060030160029054906101000a900463ffffffff1663ffffffff16815260200190815260200160002060000160009054906101000a900460ff1660096000858152602001908152602001600020600001600083815260200190815260200160002060000160006101000a81548160ff021916908360088111156115db576115da614a5a565b5b02179055506009600084815260200190815260200160002060000160006009600086815260200190815260200160002060030160029054906101000a900463ffffffff1663ffffffff16815260200190815260200160002060000160019054906101000a900463ffffffff1660096000858152602001908152602001600020600001600083815260200190815260200160002060000160016101000a81548163ffffffff021916908363ffffffff1602179055506009600084815260200190815260200160002060000160006009600086815260200190815260200160002060030160029054906101000a900463ffffffff1663ffffffff16815260200190815260200160002060000160059054906101000a900463ffffffff1660096000858152602001908152602001600020600001600083815260200190815260200160002060000160056101000a81548163ffffffff021916908363ffffffff1602179055506009600084815260200190815260200160002060000160006009600086815260200190815260200160002060030160029054906101000a900463ffffffff1663ffffffff16815260200190815260200160002060000160099054906101000a900463ffffffff1660096000858152602001908152602001600020600001600083815260200190815260200160002060000160096101000a81548163ffffffff021916908363ffffffff1602179055506009600084815260200190815260200160002060000160006009600086815260200190815260200160002060030160029054906101000a900463ffffffff1663ffffffff168152602001908152602001600020600001600d9054906101000a900463ffffffff16600960008581526020019081526020016000206000016000838152602001908152602001600020600001600d6101000a81548163ffffffff021916908363ffffffff1602179055506009600084815260200190815260200160002060000160006009600086815260200190815260200160002060030160029054906101000a900463ffffffff1663ffffffff16815260200190815260200160002060000160119054906101000a900463ffffffff1660096000858152602001908152602001600020600001600083815260200190815260200160002060000160116101000a81548163ffffffff021916908363ffffffff1602179055506009600084815260200190815260200160002060000160006009600086815260200190815260200160002060030160029054906101000a900463ffffffff1663ffffffff16815260200190815260200160002060000160159054906101000a900463ffffffff1660096000858152602001908152602001600020600001600083815260200190815260200160002060000160156101000a81548163ffffffff021916908363ffffffff1602179055508160096000858152602001908152602001600020600301600a9054906101000a900467ffffffffffffffff16611a309190614616565b60096000858152602001908152602001600020600301600a6101000a81548167ffffffffffffffff021916908367ffffffffffffffff160217905550505050565b600042905090565b611a816139ba565b600060096000848152602001908152602001600020905060008160030160029054906101000a900463ffffffff1663ffffffff16905060008260030160069054906101000a900463ffffffff1663ffffffff16905060006040518061022001604052808560040160009054906101000a900473ffffffffffffffffffffffffffffffffffffffff1673ffffffffffffffffffffffffffffffffffffffff168152602001848152602001838152602001856002018054611b3f906145d0565b80601f0160208091040260200160405190810160405280929190818152602001828054611b6b906145d0565b8015611bb85780601f10611b8d57610100808354040283529160200191611bb8565b820191906000526020600020905b815481529060010190602001808311611b9b57829003601f168201915b505050505081526020018560030160009054906101000a900460ff16151581526020018560030160019054906101000a900460ff16151581526020018385611c009190614786565b67ffffffffffffffff811115611c1957611c18614a89565b5b604051908082528060200260200182016040528015611c475781602001602082028036833780820191505090505b5081526020018385611c599190614786565b67ffffffffffffffff811115611c7257611c71614a89565b5b604051908082528060200260200182016040528015611ca05781602001602082028036833780820191505090505b5081526020018385611cb29190614786565b67ffffffffffffffff811115611ccb57611cca614a89565b5b604051908082528060200260200182016040528015611cf95781602001602082028036833780820191505090505b5081526020018385611d0b9190614786565b67ffffffffffffffff811115611d2457611d23614a89565b5b604051908082528060200260200182016040528015611d525781602001602082028036833780820191505090505b5081526020018385611d649190614786565b67ffffffffffffffff811115611d7d57611d7c614a89565b5b604051908082528060200260200182016040528015611dab5781602001602082028036833780820191505090505b5081526020018467ffffffffffffffff811115611dcb57611dca614a89565b5b604051908082528060200260200182016040528015611dfe57816020015b6060815260200190600190039081611de95790505b5081526020018467ffffffffffffffff811115611e1e57611e1d614a89565b5b604051908082528060200260200182016040528015611e4c5781602001602082028036833780820191505090505b5081526020018367ffffffffffffffff811115611e6c57611e6b614a89565b5b604051908082528060200260200182016040528015611e9f57816020015b6060815260200190600190039081611e8a5790505b50815260200185600301600a9054906101000a900467ffffffffffffffff1667ffffffffffffffff1681526020018560030160129054906101000a900463ffffffff1663ffffffff168152602001637735940060075414611f14578560030160169054906101000a900463ffffffff16611f17565b60005b63ffffffff16815250905060005b838110156122385784600001600082815260200190815260200160002060000160019054906101000a900463ffffffff1663ffffffff168260c001518281518110611f7357611f72614ab8565b5b60200260200101818152505084600001600082815260200190815260200160002060000160059054906101000a900463ffffffff1663ffffffff168260e001518281518110611fc557611fc4614ab8565b5b60200260200101818152505084600001600082815260200190815260200160002060000160099054906101000a900463ffffffff1663ffffffff16826101000151828151811061201857612017614ab8565b5b602002602001018181525050846000016000828152602001908152602001600020600001600d9054906101000a900463ffffffff1663ffffffff16826101200151828151811061206b5761206a614ab8565b5b60200260200101818152505084600001600082815260200190815260200160002060000160159054906101000a900463ffffffff1663ffffffff1682610140015182815181106120be576120bd614ab8565b5b6020026020010181815250506002600086600001600084815260200190815260200160002060000160009054906101000a900460ff16600881111561210657612105614a5a565b5b600881111561211857612117614a5a565b5b81526020019081526020016000208054612131906145d0565b80601f016020809104026020016040519081016040528092919081815260200182805461215d906145d0565b80156121aa5780601f1061217f576101008083540402835291602001916121aa565b820191906000526020600020905b81548152906001019060200180831161218d57829003601f168201915b505050505082610160015182815181106121c7576121c6614ab8565b5b602002602001018190525084600001600082815260200190815260200160002060000160119054906101000a900463ffffffff1663ffffffff16826101800151828151811061221957612218614ab8565b5b602002602001018181525050808061223090614ae7565b915050611f25565b5060008390505b838361224b9190614786565b8110156125135784600101600085836122649190614848565b815260200190815260200160002060010160009054906101000a900463ffffffff1663ffffffff168260c0015182815181106122a3576122a2614ab8565b5b60200260200101818152505084600101600085836122c19190614848565b815260200190815260200160002060010160049054906101000a900463ffffffff1663ffffffff168260e001518281518110612300576122ff614ab8565b5b602002602001018181525050846001016000858361231e9190614848565b815260200190815260200160002060010160089054906101000a900463ffffffff1663ffffffff16826101000151828151811061235e5761235d614ab8565b5b602002602001018181525050846001016000858361237c9190614848565b8152602001908152602001600020600101600c9054906101000a900463ffffffff1663ffffffff1682610120015182815181106123bc576123bb614ab8565b5b60200260200101818152505084600101600085836123da9190614848565b815260200190815260200160002060010160109054906101000a900463ffffffff1663ffffffff16826101400151828151811061241a57612419614ab8565b5b60200260200101818152505084600101600085836124389190614848565b81526020019081526020016000206000018054612454906145d0565b80601f0160208091040260200160405190810160405280929190818152602001828054612480906145d0565b80156124cd5780601f106124a2576101008083540402835291602001916124cd565b820191906000526020600020905b8154815290600101906020018083116124b057829003601f168201915b5050505050826101a0015185836124e49190614848565b815181106124f5576124f4614ab8565b5b6020026020010181905250808061250b90614ae7565b91505061223f565b5080945050505050919050565b600460009054906101000a900473ffffffffffffffffffffffffffffffffffffffff1673ffffffffffffffffffffffffffffffffffffffff163373ffffffffffffffffffffffffffffffffffffffff16146125b0576040517f08c379a00000000000000000000000000000000000000000000000000000000081526004016125a79061447c565b60405180910390fd5b60011515600660149054906101000a900460ff16151514612606576040517f08c379a00000000000000000000000000000000000000000000000000000000081526004016125fd9061450e565b60405180910390fd5b63773594006007541461264e576040517f08c379a000000000000000000000000000000000000000000000000000000000815260040161264590614b7c565b60405180910390fd5b4260078190555060005b600073ffffffffffffffffffffffffffffffffffffffff166009600083815260200190815260200160002060040160009054906101000a900473ffffffffffffffffffffffffffffffffffffffff1673ffffffffffffffffffffffffffffffffffffffff161461270b5760006009600083815260200190815260200160002060030160166101000a81548163ffffffff021916908363ffffffff160217905550808061270390614ae7565b915050612658565b50565b612716613845565b73ffffffffffffffffffffffffffffffffffffffff16612734612796565b73ffffffffffffffffffffffffffffffffffffffff161461278a576040517f08c379a0000000000000000000000000000000000000000000000000000000008152600401612781906146a0565b60405180910390fd5b612794600061384d565b565b60008060009054906101000a900473ffffffffffffffffffffffffffffffffffffffff16905090565b6127c7613845565b73ffffffffffffffffffffffffffffffffffffffff166127e5612796565b73ffffffffffffffffffffffffffffffffffffffff161461283b576040517f08c379a0000000000000000000000000000000000000000000000000000000008152600401612832906146a0565b60405180910390fd5b80600460006101000a81548173ffffffffffffffffffffffffffffffffffffffff021916908373ffffffffffffffffffffffffffffffffffffffff16021790555050565b600660009054906101000a900473ffffffffffffffffffffffffffffffffffffffff1673ffffffffffffffffffffffffffffffffffffffff163373ffffffffffffffffffffffffffffffffffffffff161461290f576040517f08c379a000000000000000000000000000000000000000000000000000000000815260040161290690614c0e565b60405180910390fd5b806009600084815260200190815260200160002060040160006101000a81548173ffffffffffffffffffffffffffffffffffffffff021916908373ffffffffffffffffffffffffffffffffffffffff16021790555060016009600084815260200190815260200160002060030160006101000a81548160ff021916908315150217905550600560008154809291906129a690614ae7565b91905055505050565b600460009054906101000a900473ffffffffffffffffffffffffffffffffffffffff1673ffffffffffffffffffffffffffffffffffffffff163373ffffffffffffffffffffffffffffffffffffffff1614612a3f576040517f08c379a0000000000000000000000000000000000000000000000000000000008152600401612a369061447c565b60405180910390fd5b8060096000848152602001908152602001600020600301600a6101000a81548167ffffffffffffffff021916908367ffffffffffffffff1602179055505050565b600460009054906101000a900473ffffffffffffffffffffffffffffffffffffffff1673ffffffffffffffffffffffffffffffffffffffff163373ffffffffffffffffffffffffffffffffffffffff1614612b10576040517f08c379a0000000000000000000000000000000000000000000000000000000008152600401612b079061447c565b60405180910390fd5b60011515600660149054906101000a900460ff16151514612b66576040517f08c379a0000000000000000000000000000000000000000000000000000000008152600401612b5d9061450e565b60405180910390fd5b600160096000858152602001908152602001600020600001600083815260200190815260200160002060000160118282829054906101000a900463ffffffff16612bb091906148dc565b92506101000a81548163ffffffff021916908363ffffffff1602179055508160096000858152602001908152602001600020600301600a9054906101000a900467ffffffffffffffff16612c049190614c2e565b60096000858152602001908152602001600020600301600a6101000a81548167ffffffffffffffff021916908367ffffffffffffffff160217905550505050565b600660009054906101000a900473ffffffffffffffffffffffffffffffffffffffff1673ffffffffffffffffffffffffffffffffffffffff163373ffffffffffffffffffffffffffffffffffffffff1614612cd5576040517f08c379a0000000000000000000000000000000000000000000000000000000008152600401612ccc90614c0e565b60405180910390fd5b806009600084815260200190815260200160002060040160006101000a81548173ffffffffffffffffffffffffffffffffffffffff021916908373ffffffffffffffffffffffffffffffffffffffff1602179055505050565b600460009054906101000a900473ffffffffffffffffffffffffffffffffffffffff1673ffffffffffffffffffffffffffffffffffffffff163373ffffffffffffffffffffffffffffffffffffffff1614612dbe576040517f08c379a0000000000000000000000000000000000000000000000000000000008152600401612db59061447c565b60405180910390fd5b60011515600660149054906101000a900460ff16151514612e14576040517f08c379a0000000000000000000000000000000000000000000000000000000008152600401612e0b9061450e565b60405180910390fd5b6000600960008b815260200190815260200160002090506040518060c0016040528084848080601f016020809104026020016040519081016040528093929190818152602001838380828437600081840152601f19601f8201169050808301925050505050505081526020018963ffffffff1681526020018863ffffffff1681526020018763ffffffff1681526020018663ffffffff1681526020018563ffffffff168152508160010160008360030160069054906101000a900463ffffffff1663ffffffff1681526020019081526020016000206000820151816000019080519060200190612f05929190613a58565b5060208201518160010160006101000a81548163ffffffff021916908363ffffffff16021790555060408201518160010160046101000a81548163ffffffff021916908363ffffffff16021790555060608201518160010160086101000a81548163ffffffff021916908363ffffffff160217905550608082015181600101600c6101000a81548163ffffffff021916908363ffffffff16021790555060a08201518160010160106101000a81548163ffffffff021916908363ffffffff16021790555090505060018160030160068282829054906101000a900463ffffffff16612ff091906148dc565b92506101000a81548163ffffffff021916908363ffffffff1602179055508881600301600a9054906101000a900467ffffffffffffffff166130329190614c2e565b81600301600a6101000a81548167ffffffffffffffff021916908367ffffffffffffffff16021790555050505050505050505050565b600460009054906101000a900473ffffffffffffffffffffffffffffffffffffffff1673ffffffffffffffffffffffffffffffffffffffff163373ffffffffffffffffffffffffffffffffffffffff16146130f8576040517f08c379a00000000000000000000000000000000000000000000000000000000081526004016130ef9061447c565b60405180910390fd5b60011515600660149054906101000a900460ff1615151461314e576040517f08c379a00000000000000000000000000000000000000000000000000000000081526004016131459061450e565b60405180910390fd5b6000600960008b815260200190815260200160002090506040518060e0016040528060018585604051613182929190614ca1565b908152602001604051809103902060009054906101000a900460ff1660088111156131b0576131af614a5a565b5b81526020018963ffffffff1681526020018863ffffffff1681526020018763ffffffff1681526020018663ffffffff168152602001600063ffffffff1681526020018563ffffffff168152508160000160008360030160029054906101000a900463ffffffff1663ffffffff16815260200190815260200160002060008201518160000160006101000a81548160ff0219169083600881111561325657613255614a5a565b5b021790555060208201518160000160016101000a81548163ffffffff021916908363ffffffff16021790555060408201518160000160056101000a81548163ffffffff021916908363ffffffff16021790555060608201518160000160096101000a81548163ffffffff021916908363ffffffff160217905550608082015181600001600d6101000a81548163ffffffff021916908363ffffffff16021790555060a08201518160000160116101000a81548163ffffffff021916908363ffffffff16021790555060c08201518160000160156101000a81548163ffffffff021916908363ffffffff16021790555090505060018160030160028282829054906101000a900463ffffffff1661336c91906148dc565b92506101000a81548163ffffffff021916908363ffffffff1602179055508881600301600a9054906101000a900467ffffffffffffffff166133ae9190614c2e565b81600301600a6101000a81548167ffffffffffffffff021916908367ffffffffffffffff16021790555050505050505050505050565b600460009054906101000a900473ffffffffffffffffffffffffffffffffffffffff1673ffffffffffffffffffffffffffffffffffffffff163373ffffffffffffffffffffffffffffffffffffffff1614613474576040517f08c379a000000000000000000000000000000000000000000000000000000000815260040161346b9061447c565b60405180910390fd5b60011515600660149054906101000a900460ff161515146134ca576040517f08c379a00000000000000000000000000000000000000000000000000000000081526004016134c19061450e565b60405180910390fd5b80600b6000848152602001908152602001600020819055505050565b600460009054906101000a900473ffffffffffffffffffffffffffffffffffffffff1673ffffffffffffffffffffffffffffffffffffffff163373ffffffffffffffffffffffffffffffffffffffff1614613576576040517f08c379a000000000000000000000000000000000000000000000000000000000815260040161356d9061447c565b60405180910390fd5b60011515600660149054906101000a900460ff161515146135cc576040517f08c379a00000000000000000000000000000000000000000000000000000000081526004016135c39061450e565b60405180910390fd5b8060096000858152602001908152602001600020600101600084815260200190815260200160002060010160106101000a81548163ffffffff021916908363ffffffff160217905550505050565b600460009054906101000a900473ffffffffffffffffffffffffffffffffffffffff1673ffffffffffffffffffffffffffffffffffffffff163373ffffffffffffffffffffffffffffffffffffffff16146136aa576040517f08c379a00000000000000000000000000000000000000000000000000000000081526004016136a19061447c565b60405180910390fd5b8060088190555050565b6009600084815260200190815260200160002060040160009054906101000a900473ffffffffffffffffffffffffffffffffffffffff1673ffffffffffffffffffffffffffffffffffffffff163373ffffffffffffffffffffffffffffffffffffffff161461372257600080fd5b8181600960008681526020019081526020016000206002019190613747929190613ade565b50505050565b613755613845565b73ffffffffffffffffffffffffffffffffffffffff16613773612796565b73ffffffffffffffffffffffffffffffffffffffff16146137c9576040517f08c379a00000000000000000000000000000000000000000000000000000000081526004016137c0906146a0565b60405180910390fd5b600073ffffffffffffffffffffffffffffffffffffffff168173ffffffffffffffffffffffffffffffffffffffff161415613839576040517f08c379a000000000000000000000000000000000000000000000000000000000815260040161383090614d2c565b60405180910390fd5b6138428161384d565b50565b600033905090565b60008060009054906101000a900473ffffffffffffffffffffffffffffffffffffffff169050816000806101000a81548173ffffffffffffffffffffffffffffffffffffffff021916908373ffffffffffffffffffffffffffffffffffffffff1602179055508173ffffffffffffffffffffffffffffffffffffffff168173ffffffffffffffffffffffffffffffffffffffff167f8be0079c531659141344cd1fd0a4f28419497f9722a3daafe3b4186f6b6457e060405160405180910390a35050565b6040518060400160405280600081526020016000151581525090565b828054613939906145d0565b90600052602060002090601f01602090048101928261395b57600085556139a9565b82601f1061396c57805485556139a9565b828001600101855582156139a957600052602060002091601f016020900482015b828111156139a857825482559160010191906001019061398d565b5b5090506139b69190613b64565b5090565b604051806102200160405280600073ffffffffffffffffffffffffffffffffffffffff16815260200160008152602001600081526020016060815260200160001515815260200160001515815260200160608152602001606081526020016060815260200160608152602001606081526020016060815260200160608152602001606081526020016000815260200160008152602001600081525090565b828054613a64906145d0565b90600052602060002090601f016020900481019282613a865760008555613acd565b82601f10613a9f57805160ff1916838001178555613acd565b82800160010185558215613acd579182015b82811115613acc578251825591602001919060010190613ab1565b5b509050613ada9190613b64565b5090565b828054613aea906145d0565b90600052602060002090601f016020900481019282613b0c5760008555613b53565b82601f10613b2557803560ff1916838001178555613b53565b82800160010185558215613b53579182015b82811115613b52578235825591602001919060010190613b37565b5b509050613b609190613b64565b5090565b5b80821115613b7d576000816000905550600101613b65565b5090565b600080fd5b600080fd5b6000819050919050565b613b9e81613b8b565b8114613ba957600080fd5b50565b600081359050613bbb81613b95565b92915050565b600060208284031215613bd757613bd6613b81565b5b6000613be584828501613bac565b91505092915050565b613bf781613b8b565b82525050565b60008115159050919050565b613c1281613bfd565b82525050565b604082016000820151613c2e6000850182613bee565b506020820151613c416020850182613c09565b50505050565b6000604082019050613c5c6000830184613c18565b92915050565b600080600060608486031215613c7b57613c7a613b81565b5b6000613c8986828701613bac565b9350506020613c9a86828701613bac565b9250506040613cab86828701613bac565b9150509250925092565b60008060408385031215613ccc57613ccb613b81565b5b6000613cda85828601613bac565b9250506020613ceb85828601613bac565b9150509250929050565b600073ffffffffffffffffffffffffffffffffffffffff82169050919050565b6000613d2082613cf5565b9050919050565b613d3081613d15565b8114613d3b57600080fd5b50565b600081359050613d4d81613d27565b92915050565b60008060408385031215613d6a57613d69613b81565b5b6000613d7885828601613d3e565b9250506020613d8985828601613bac565b9150509250929050565b613d9c81613bfd565b82525050565b6000602082019050613db76000830184613d93565b92915050565b613dc681613b8b565b82525050565b6000602082019050613de16000830184613dbd565b92915050565b613df081613d15565b82525050565b600081519050919050565b600082825260208201905092915050565b60005b83811015613e30578082015181840152602081019050613e15565b83811115613e3f576000848401525b50505050565b6000601f19601f8301169050919050565b6000613e6182613df6565b613e6b8185613e01565b9350613e7b818560208601613e12565b613e8481613e45565b840191505092915050565b600081519050919050565b600082825260208201905092915050565b6000819050602082019050919050565b6000613ec78383613bee565b60208301905092915050565b6000602082019050919050565b6000613eeb82613e8f565b613ef58185613e9a565b9350613f0083613eab565b8060005b83811015613f31578151613f188882613ebb565b9750613f2383613ed3565b925050600181019050613f04565b5085935050505092915050565b600081519050919050565b600082825260208201905092915050565b6000819050602082019050919050565b6000613f768383613e56565b905092915050565b6000602082019050919050565b6000613f9682613f3e565b613fa08185613f49565b935083602082028501613fb285613f5a565b8060005b85811015613fee5784840389528151613fcf8582613f6a565b9450613fda83613f7e565b925060208a01995050600181019050613fb6565b50829750879550505050505092915050565b6000610220830160008301516140196000860182613de7565b50602083015161402c6020860182613bee565b50604083015161403f6040860182613bee565b50606083015184820360608601526140578282613e56565b915050608083015161406c6080860182613c09565b5060a083015161407f60a0860182613c09565b5060c083015184820360c08601526140978282613ee0565b91505060e083015184820360e08601526140b18282613ee0565b9150506101008301518482036101008601526140cd8282613ee0565b9150506101208301518482036101208601526140e98282613ee0565b9150506101408301518482036101408601526141058282613ee0565b9150506101608301518482036101608601526141218282613f8b565b91505061018083015184820361018086015261413d8282613ee0565b9150506101a08301518482036101a08601526141598282613f8b565b9150506101c08301516141706101c0860182613bee565b506101e08301516141856101e0860182613bee565b5061020083015161419a610200860182613bee565b508091505092915050565b600060208201905081810360008301526141bf8184614000565b905092915050565b6141d081613d15565b82525050565b60006020820190506141eb60008301846141c7565b92915050565b60006020828403121561420757614206613b81565b5b600061421584828501613d3e565b91505092915050565b6000806040838503121561423557614234613b81565b5b600061424385828601613bac565b925050602061425485828601613d3e565b9150509250929050565b600080fd5b600080fd5b600080fd5b60008083601f8401126142835761428261425e565b5b8235905067ffffffffffffffff8111156142a05761429f614263565b5b6020830191508360018202830111156142bc576142bb614268565b5b9250929050565b60008060008060008060008060006101008a8c0312156142e6576142e5613b81565b5b60006142f48c828d01613bac565b99505060206143058c828d01613bac565b98505060406143168c828d01613bac565b97505060606143278c828d01613bac565b96505060806143388c828d01613bac565b95505060a06143498c828d01613bac565b94505060c061435a8c828d01613bac565b93505060e08a013567ffffffffffffffff81111561437b5761437a613b86565b5b6143878c828d0161426d565b92509250509295985092959850929598565b6000806000604084860312156143b2576143b1613b81565b5b60006143c086828701613bac565b935050602084013567ffffffffffffffff8111156143e1576143e0613b86565b5b6143ed8682870161426d565b92509250509250925092565b600082825260208201905092915050565b7f5468652063616c6c6572206f66207468652066756e6374696f6e206973206e6f60008201527f742061646d696e00000000000000000000000000000000000000000000000000602082015250565b60006144666027836143f9565b91506144718261440a565b604082019050919050565b6000602082019050818103600083015261449581614459565b9050919050565b7f54686520626c6f636b636861696e2064617461626173652063616e206e6f742060008201527f62652065646974656420617420746865206d6f6d656e74000000000000000000602082015250565b60006144f86037836143f9565b91506145038261449c565b604082019050919050565b60006020820190508181036000830152614527816144eb565b9050919050565b600063ffffffff82169050919050565b7f4e487b7100000000000000000000000000000000000000000000000000000000600052601160045260246000fd5b60006145788261452e565b91506145838361452e565b9250828210156145965761459561453e565b5b828203905092915050565b7f4e487b7100000000000000000000000000000000000000000000000000000000600052602260045260246000fd5b600060028204905060018216806145e857607f821691505b602082108114156145fc576145fb6145a1565b5b50919050565b600067ffffffffffffffff82169050919050565b600061462182614602565b915061462c83614602565b92508267ffffffffffffffff038211156146495761464861453e565b5b828201905092915050565b7f4f776e61626c653a2063616c6c6572206973206e6f7420746865206f776e6572600082015250565b600061468a6020836143f9565b915061469582614654565b602082019050919050565b600060208201905081810360008301526146b98161467d565b9050919050565b7f47616d6520646964206e6f74207374617274207965742e000000000000000000600082015250565b60006146f66017836143f9565b9150614701826146c0565b602082019050919050565b60006020820190508181036000830152614725816146e9565b9050919050565b600061473782613b8b565b915061474283613b8b565b9250817fffffffffffffffffffffffffffffffffffffffffffffffffffffffffffffffff048311821515161561477b5761477a61453e565b5b828202905092915050565b600061479182613b8b565b915061479c83613b8b565b9250827fffffffffffffffffffffffffffffffffffffffffffffffffffffffffffffffff038211156147d1576147d061453e565b5b828201905092915050565b7f43616e27742067657420696e636f6d65207965742e0000000000000000000000600082015250565b60006148126015836143f9565b915061481d826147dc565b602082019050919050565b6000602082019050818103600083015261484181614805565b9050919050565b600061485382613b8b565b915061485e83613b8b565b9250828210156148715761487061453e565b5b828203905092915050565b7f4e487b7100000000000000000000000000000000000000000000000000000000600052601260045260246000fd5b60006148b682613b8b565b91506148c183613b8b565b9250826148d1576148d061487c565b5b828204905092915050565b60006148e78261452e565b91506148f28361452e565b92508263ffffffff0382111561490b5761490a61453e565b5b828201905092915050565b7f43697479206973206e6f74206372656174656420796574000000000000000000600082015250565b600061494c6017836143f9565b915061495782614916565b602082019050919050565b6000602082019050818103600083015261497b8161493f565b9050919050565b7f4369747920697320616c726561647920696e697469616c697a65640000000000600082015250565b60006149b8601b836143f9565b91506149c382614982565b602082019050919050565b600060208201905081810360008301526149e7816149ab565b9050919050565b7f43697479206973206f776e656420627920736f6d656f6e6520656c7365000000600082015250565b6000614a24601d836143f9565b9150614a2f826149ee565b602082019050919050565b60006020820190508181036000830152614a5381614a17565b9050919050565b7f4e487b7100000000000000000000000000000000000000000000000000000000600052602160045260246000fd5b7f4e487b7100000000000000000000000000000000000000000000000000000000600052604160045260246000fd5b7f4e487b7100000000000000000000000000000000000000000000000000000000600052603260045260246000fd5b6000614af282613b8b565b91507fffffffffffffffffffffffffffffffffffffffffffffffffffffffffffffffff821415614b2557614b2461453e565b5b600182019050919050565b7f47616d652077617320616c726561647920737461727465640000000000000000600082015250565b6000614b666018836143f9565b9150614b7182614b30565b602082019050919050565b60006020820190508181036000830152614b9581614b59565b9050919050565b7f48617320746f2062652073656e742066726f6d20746865204369747920436f6e60008201527f7472616374000000000000000000000000000000000000000000000000000000602082015250565b6000614bf86025836143f9565b9150614c0382614b9c565b604082019050919050565b60006020820190508181036000830152614c2781614beb565b9050919050565b6000614c3982614602565b9150614c4483614602565b925082821015614c5757614c5661453e565b5b828203905092915050565b600081905092915050565b82818337600083830152505050565b6000614c888385614c62565b9350614c95838584614c6d565b82840190509392505050565b6000614cae828486614c7c565b91508190509392505050565b7f4f776e61626c653a206e6577206f776e657220697320746865207a65726f206160008201527f6464726573730000000000000000000000000000000000000000000000000000602082015250565b6000614d166026836143f9565b9150614d2182614cba565b604082019050919050565b60006020820190508181036000830152614d4581614d09565b905091905056fea2646970667358221220f3e6c67f33515cd0a1a6e1f5cc5d85700cb2e64f494ad2e88fba535cd51417f264736f6c634300080b0033",
  "immutableReferences": {},
  "source": "// SPDX-License-Identifier: MIT\r\npragma solidity ^0.8.11;\r\n\r\nimport \"../node_modules/@openzeppelin/contracts/access/Ownable.sol\";\r\nimport \"./CityContract.sol\";\r\n\r\ncontract Gameplay is Ownable {\r\n    // #region Constructor\r\n\r\n    constructor(address _admin, address _nftContractAddress) {\r\n        initStringToType();\r\n        admin = _admin;\r\n        nftContractAddress = _nftContractAddress;\r\n        CityContract contr = CityContract(nftContractAddress);\r\n        contr.initGameplayContract(address(this));\r\n    }\r\n\r\n    // #endregion\r\n    // #region Util functions, structs,...\r\n\r\n    enum BuildingTypes {\r\n        Factory,\r\n        Office,\r\n        Restaurant,\r\n        Building,\r\n        House,\r\n        Store,\r\n        SuperMarket,\r\n        Park,\r\n        Gym\r\n    }\r\n\r\n    mapping(string => BuildingTypes) stringToType;\r\n    mapping(BuildingTypes => string) typeToString;\r\n    uint numOfBuildingTypes = 10;\r\n    function initStringToType() private {\r\n        stringToType[\"factory\"] = BuildingTypes.Factory;\r\n        stringToType[\"office\"] = BuildingTypes.Office;\r\n        stringToType[\"restaurant\"] = BuildingTypes.Restaurant;\r\n        stringToType[\"building\"] = BuildingTypes.Building;\r\n        stringToType[\"house\"] = BuildingTypes.House;\r\n        stringToType[\"store\"] = BuildingTypes.Store;\r\n        stringToType[\"superMarket\"] = BuildingTypes.SuperMarket;\r\n        stringToType[\"park\"] = BuildingTypes.Park;\r\n        stringToType[\"gym\"] = BuildingTypes.Gym;\r\n\r\n        typeToString[BuildingTypes.Factory] = \"factory\";\r\n        typeToString[BuildingTypes.Office] = \"office\";\r\n        typeToString[BuildingTypes.Restaurant] = \"restaurant\";\r\n        typeToString[BuildingTypes.Building] = \"building\";\r\n        typeToString[BuildingTypes.House] = \"house\";\r\n        typeToString[BuildingTypes.Store] = \"store\";\r\n        typeToString[BuildingTypes.SuperMarket] = \"superMarket\";\r\n        typeToString[BuildingTypes.Park] = \"park\";\r\n        typeToString[BuildingTypes.Gym] = \"gym\";\r\n    }\r\n    \r\n    struct Building {\r\n        BuildingTypes buildingType;\r\n        uint32 startx;\r\n        uint32 starty;\r\n        uint32 endx;\r\n        uint32 endy;\r\n        uint32 level;\r\n        uint32 orientation;\r\n    } // occupies 1 block of 256 bytes\r\n\r\n    struct SpecialBuilding {\r\n        string specialType;\r\n        uint32 startx;\r\n        uint32 starty;\r\n        uint32 endx;\r\n        uint32 endy;\r\n        uint32 orientation;\r\n    } // occupies 2 block of 256 bytes\r\n\r\n    struct City {\r\n        mapping(uint => Building) buildingList;\r\n        mapping(uint => SpecialBuilding) specialBuildingList;\r\n        string username;\r\n        bool created;\r\n        bool initialized;\r\n        uint32 numOfBuildings;\r\n        uint32 numOfSpecialBuildings;\r\n        uint64 money;\r\n        uint32 income;\r\n        uint32 incomesReceived;\r\n        address owner;\r\n    } // occupies ( 4 + numOfBuildings + numOfSpecialBuildings ) blocks of 256 bytes in total\r\n\r\n    // #endregion\r\n    // #region Variables\r\n    address admin;\r\n    uint id = 0;\r\n    address nftContractAddress;\r\n    bool editable = true;\r\n    uint gameStart = 2000000000;\r\n    uint payPeriod = 60; // 1 day = 86400\r\n\r\n    mapping(uint => City) cities; // map (array) containing all the data about the City NFTs\r\n    uint32 startingMoney = 100000; // the amount of in-game money everyone has right after minting\r\n\r\n    // mapping(uint => BST.Node) leaderboard; // ovo mi ipak ne treba\r\n    // uint root = 10000;\r\n\r\n    mapping(uint => uint) scores;\r\n    // #endregion\r\n    // #region Minting and transfering NFTs\r\n\r\n    /**\r\n     * @dev Function can only be called by the City Contract, it is called when initializing the city and giving it an owner\r\n     * @param tokenId id of the city\r\n     * @param addr is the address of the owner (person who just minted the city)\r\n     */\r\n    function created(uint tokenId, address addr) external {\r\n        require(msg.sender == nftContractAddress, 'Has to be sent from the City Contract');\r\n        cities[tokenId].owner = addr;\r\n        cities[tokenId].created = true;\r\n        id++;\r\n    }\r\n\r\n    /**\r\n     * @dev Function can only be called by the City Cotract, it is called beforeTokenTransfer and reassignes the owner value of the city nft\r\n     * @param tokenId id of the city\r\n     * @param _newOwner is the new owner of the nft with that id\r\n     */\r\n    function newOwner(uint tokenId, address _newOwner) public {\r\n        require(msg.sender == nftContractAddress, 'Has to be sent from the City Contract');\r\n        cities[tokenId].owner = _newOwner;\r\n    }\r\n\r\n    /**\r\n     * @dev Function used for setting the 'initialized' field of a city to true\r\n     * @param tokenId index of the token being initialized\r\n     */\r\n    function initializeCity(\r\n        address owner,\r\n        uint tokenId\r\n    ) external onlyAdmin isEditable {\r\n        require(cities[tokenId].created == true , \"City is not created yet\");\r\n        require(cities[tokenId].initialized == false , \"City is already initialized\");\r\n        require(cities[tokenId].owner == owner, \"City is owned by someone else\");\r\n        \r\n        City storage city = cities[tokenId];\r\n        \r\n        city.money = startingMoney;\r\n        city.initialized = true;\r\n        if(gameStart != 2000000000) city.incomesReceived = uint32((block.timestamp - gameStart) / payPeriod);\r\n        else city.incomesReceived = 0;\r\n    }\r\n\r\n    // #endregion\r\n    // #region Changing the cities\r\n    \r\n    /**\r\n     * @dev Function to change the username\r\n     * @dev OVA FUNKCIJA TREBA DA SE PROMENI, NE TREBA MSG.SENDER DA BUDE OWNER GRADA NEGO SAMO DA BUDE FUNKCIJA OZNACENA SA ONLYADMIN!!!\r\n     * @param tokenId id of the nft\r\n     * @param _username new username\r\n     */\r\n    function changeusername(uint tokenId, string calldata _username) external {\r\n        require(msg.sender == cities[tokenId].owner);\r\n\r\n        cities[tokenId].username = _username;\r\n    }\r\n\r\n    /**\r\n     * @dev Function that will change the income of a city - should be called when building, upgrading or deleting something\r\n     * @param tokenId id of the city\r\n     * @param newScore new score\r\n     */\r\n    function changeScore(uint tokenId, uint newScore) external onlyAdmin isEditable {\r\n        scores[tokenId] = newScore;\r\n    }\r\n\r\n    /**\r\n     * @dev Function upgrading a building at the index in the list\r\n     * @param tokenId id of the city\r\n     * @param price the price of upgrading the building\r\n     * @param buildingIndex the index of the building in the list \r\n     */\r\n    function upgradeBuilding(uint tokenId, uint price, uint buildingIndex) external onlyAdmin isEditable {\r\n        cities[tokenId].buildingList[buildingIndex].level += 1;\r\n        cities[tokenId].money = cities[tokenId].money - uint64(price);\r\n    }\r\n\r\n    /**\r\n     * @dev Function adding a new building into the city\r\n     * @param tokenId id of the city\r\n     * @param price of the building\r\n     * @param _startx x starting coordinate\r\n     * @param _starty y starting coordinate\r\n     * @param _endx x ending coordinate\r\n     * @param _endy y ending coordinate\r\n     * @param _orientation the orientation of a building\r\n     * @param _buildingType a string that represents a building type\r\n     */\r\n    function addBuilding(\r\n        uint tokenId,\r\n        uint price,\r\n        uint _startx,\r\n        uint _starty,\r\n        uint _endx,\r\n        uint _endy,\r\n        uint _orientation,\r\n        string calldata _buildingType\r\n    ) external onlyAdmin isEditable {\r\n        City storage city = cities[tokenId];\r\n        city.buildingList[city.numOfBuildings] = Building({\r\n            buildingType: stringToType[_buildingType],\r\n            startx: uint32(_startx),\r\n            starty: uint32(_starty),\r\n            endx: uint32(_endx),\r\n            endy: uint32(_endy),\r\n            level: 0,\r\n            orientation: uint32(_orientation)\r\n        });\r\n        city.numOfBuildings += 1;\r\n        city.money = city.money - uint64(price);\r\n    }\r\n\r\n    /**\r\n     * @dev Function adding a new building into the city\r\n     * @param tokenId id of the city\r\n     * @param price of the building\r\n     * @param _startx x starting coordinate\r\n     * @param _starty y starting coordinate\r\n     * @param _endx x ending coordinate\r\n     * @param _endy y ending coordinate\r\n     * @param _specialType a string that represents a building type\r\n     * @param _orientation the orientation of a building\r\n     */\r\n    function addSpecialBuilding(\r\n        uint tokenId,\r\n        uint price,\r\n        uint _startx,\r\n        uint _starty,\r\n        uint _endx,\r\n        uint _endy,\r\n        uint _orientation,\r\n        string calldata _specialType\r\n    ) external onlyAdmin isEditable {\r\n        City storage city = cities[tokenId];\r\n        city.specialBuildingList[city.numOfSpecialBuildings] = SpecialBuilding({\r\n            specialType: _specialType,\r\n            startx: uint32(_startx),\r\n            starty: uint32(_starty),\r\n            endx: uint32(_endx),\r\n            endy: uint32(_endy),\r\n            orientation: uint32(_orientation)\r\n        });\r\n        city.numOfSpecialBuildings += 1;\r\n        city.money = city.money - uint64(price);\r\n    }\r\n\r\n    /**\r\n     * @dev Function used for removing a building from a city\r\n     * @param tokenId id of the city\r\n     * @param value that will be refunded for selling/removing a building from the city\r\n     * @param buildingIndex is the index of the building in the list\r\n     */\r\n    function removeBuilding(uint tokenId, uint value, uint buildingIndex) external onlyAdmin isEditable {\r\n        // curr building getting values from last building in the list\r\n\r\n        cities[tokenId].numOfBuildings = cities[tokenId].numOfBuildings - 1;\r\n\r\n        cities[tokenId].buildingList[buildingIndex].buildingType = cities[tokenId].buildingList[cities[tokenId].numOfBuildings].buildingType;\r\n        cities[tokenId].buildingList[buildingIndex].startx = cities[tokenId].buildingList[cities[tokenId].numOfBuildings].startx;\r\n        cities[tokenId].buildingList[buildingIndex].starty = cities[tokenId].buildingList[cities[tokenId].numOfBuildings].starty;\r\n        cities[tokenId].buildingList[buildingIndex].endx = cities[tokenId].buildingList[cities[tokenId].numOfBuildings].endx;\r\n        cities[tokenId].buildingList[buildingIndex].endy = cities[tokenId].buildingList[cities[tokenId].numOfBuildings].endy;\r\n        cities[tokenId].buildingList[buildingIndex].level = cities[tokenId].buildingList[cities[tokenId].numOfBuildings].level;\r\n        cities[tokenId].buildingList[buildingIndex].orientation = cities[tokenId].buildingList[cities[tokenId].numOfBuildings].orientation;\r\n        \r\n        // cities[tokenId].buildingList[buildingIndex] = cities[tokenId].buildingList[cities[tokenId].numOfBuildings];\r\n\r\n        cities[tokenId].money = cities[tokenId].money + uint64(value);\r\n    }\r\n    \r\n    /**\r\n     * @dev Function used for removing a building from a city\r\n     * @param tokenId id of the city\r\n     * @param value that will be refunded for selling/removing a building from the city\r\n     * @param buildingIndex is the index of the building in the list\r\n     */\r\n    function removeSpecialBuilding(uint tokenId, uint value, uint buildingIndex) external onlyAdmin isEditable {\r\n        // curr building getting values from last building in the list\r\n\r\n        cities[tokenId].numOfSpecialBuildings = cities[tokenId].numOfSpecialBuildings - 1;\r\n\r\n        cities[tokenId].specialBuildingList[buildingIndex].specialType = cities[tokenId].specialBuildingList[cities[tokenId].numOfSpecialBuildings].specialType;\r\n        cities[tokenId].specialBuildingList[buildingIndex].startx = cities[tokenId].specialBuildingList[cities[tokenId].numOfSpecialBuildings].startx;\r\n        cities[tokenId].specialBuildingList[buildingIndex].starty = cities[tokenId].specialBuildingList[cities[tokenId].numOfSpecialBuildings].starty;\r\n        cities[tokenId].specialBuildingList[buildingIndex].endx = cities[tokenId].specialBuildingList[cities[tokenId].numOfSpecialBuildings].endx;\r\n        cities[tokenId].specialBuildingList[buildingIndex].endy = cities[tokenId].specialBuildingList[cities[tokenId].numOfSpecialBuildings].endy;\r\n        cities[tokenId].specialBuildingList[buildingIndex].orientation = cities[tokenId].specialBuildingList[cities[tokenId].numOfSpecialBuildings].orientation;\r\n\r\n        cities[tokenId].money = cities[tokenId].money + uint64(value);\r\n    }\r\n\r\n    /**\r\n     * @dev Function for rotating a building\r\n     * @param tokenId the id of the city\r\n     * @param buildingIndex index of the building in the list\r\n     * @param _orientation the new orientation of the building\r\n     */\r\n    function rotate(uint tokenId, uint buildingIndex, uint _orientation) external onlyAdmin isEditable {\r\n        cities[tokenId].buildingList[buildingIndex].orientation = uint32(_orientation);\r\n    }\r\n\r\n    /**\r\n     * @dev Function for rotating a building\r\n     * @param tokenId the id of the city\r\n     * @param buildingIndex index of the building in the list\r\n     * @param _orientation the new orientation of the building\r\n     */\r\n    function rotateSpecial(uint tokenId, uint buildingIndex, uint _orientation) external onlyAdmin isEditable {\r\n        cities[tokenId].specialBuildingList[buildingIndex].orientation = uint32(_orientation);\r\n    }\r\n\r\n    /**\r\n     * @dev Function that starts the game, income will begin to be calculated and received (this happens by chaning the 'gameStart' value to current block.timestamp and setting at 'lastPay' for all cities)\r\n     */\r\n    function startGameIncome() external onlyAdmin isEditable {\r\n        require(gameStart == 2000000000, \"Game was already started\");\r\n        gameStart = block.timestamp;\r\n        uint i = 0;\r\n        while(cities[i].owner != address(0)) {\r\n            cities[i].incomesReceived = 0;\r\n            i++;\r\n        }\r\n    }\r\n\r\n    /**\r\n     * @dev Function getting the income for a city if conditions are met\r\n     * @param tokenId id of the city\r\n     * @param income the income of the city\r\n     */\r\n     // should receive how much is the income\r\n    function getIncome(uint tokenId, uint income) external onlyAdmin isEditable {\r\n        require(block.timestamp > gameStart, \"Game did not start yet.\");\r\n        require(block.timestamp > cities[tokenId].incomesReceived * payPeriod + gameStart, \"Can't get income yet.\");\r\n\r\n        uint n = (block.timestamp - gameStart) / payPeriod - cities[tokenId].incomesReceived;\r\n        cities[tokenId].money += uint32(n * income);\r\n        cities[tokenId].incomesReceived += uint32(n);\r\n    }\r\n\r\n    // #endregion\r\n    // #region Getting data from the contract\r\n\r\n    /**\r\n     * @dev Function returns true if the cities are editable, and false if they are not\r\n     */\r\n    function getEditableState() external view returns(bool) {\r\n        return editable;\r\n    }\r\n\r\n    struct CityRepresentation {\r\n        address owner;\r\n        uint numOfBuildings;\r\n        uint numOfSpecialBuildings;\r\n        string username;\r\n        bool created;\r\n        bool initialized;\r\n        uint[] startx;\r\n        uint[] starty;\r\n        uint[] endx;\r\n        uint[] endy;\r\n        uint[] orientation;\r\n        string[] buildingType;\r\n        uint[] level;\r\n        string[] specialType;\r\n        uint money;\r\n        uint income;\r\n        uint incomesReceived;\r\n    } // this is a struct used for returning values from the blockchain\r\n    function getCityData(uint tokenId) external view returns(CityRepresentation memory) {\r\n        City storage city = cities[tokenId];\r\n        uint numOfBuildings = city.numOfBuildings;\r\n        uint numOfSpecialBuildings  = city.numOfSpecialBuildings;\r\n        CityRepresentation memory r = CityRepresentation({\r\n            owner: city.owner,\r\n            numOfBuildings: numOfBuildings,\r\n            numOfSpecialBuildings: numOfSpecialBuildings,\r\n            username: city.username,\r\n            created: city.created,\r\n            initialized: city.initialized,\r\n            startx: new uint[](numOfBuildings + numOfSpecialBuildings),\r\n            starty: new uint[](numOfBuildings + numOfSpecialBuildings),\r\n            endx: new uint[](numOfBuildings + numOfSpecialBuildings),\r\n            endy: new uint[](numOfBuildings + numOfSpecialBuildings),\r\n            orientation: new uint[](numOfBuildings + numOfSpecialBuildings),\r\n            buildingType: new string[](numOfBuildings),\r\n            level: new uint[](numOfBuildings),\r\n            specialType: new string[](numOfSpecialBuildings),\r\n            money: city.money,\r\n            income: city.income,\r\n            incomesReceived: (gameStart == 2000000000) ? 0 : city.incomesReceived\r\n        });\r\n        for(uint i = 0; i < numOfBuildings; i++) {  \r\n            r.startx[i] = city.buildingList[i].startx;\r\n            r.starty[i] = city.buildingList[i].starty;\r\n            r.endx[i] = city.buildingList[i].endx;\r\n            r.endy[i] = city.buildingList[i].endy;\r\n            r.orientation[i] = city.buildingList[i].orientation;\r\n            r.buildingType[i] = typeToString[city.buildingList[i].buildingType];\r\n            r.level[i] = city.buildingList[i].level;\r\n        }\r\n        for(uint i = numOfBuildings; i < numOfSpecialBuildings + numOfBuildings; i++) {\r\n            r.startx[i] = city.specialBuildingList[i-numOfBuildings].startx;\r\n            r.starty[i] = city.specialBuildingList[i-numOfBuildings].starty;\r\n            r.endx[i] = city.specialBuildingList[i-numOfBuildings].endx;\r\n            r.endy[i] = city.specialBuildingList[i-numOfBuildings].endy;\r\n            r.orientation[i] = city.specialBuildingList[i-numOfBuildings].orientation;\r\n            r.specialType[i-numOfBuildings] = city.specialBuildingList[i-numOfBuildings].specialType;\r\n        }\r\n        return r;\r\n    } // returns a struct with all the data about the city with the 'tokenId' ID\r\n\r\n    function getNumOfPlayers() external view returns(uint) {\r\n        return id;\r\n    }\r\n\r\n\r\n    struct Score {\r\n        uint score;\r\n        bool initialized;\r\n    }\r\n    // returns an array of indices that correspod to the IDs of the sorted cities\r\n    function getScore(uint tokenId) external view returns(Score memory) {\r\n        Score memory r = Score({score: scores[tokenId], initialized: cities[tokenId].initialized});\r\n        return r;\r\n    } \r\n\r\n    // #endregion\r\n    // #region Modifiers and other functions\r\n\r\n    // returns the timestamp from the blockchain\r\n    function getBlockchainTime() external view returns(uint) {\r\n        return block.timestamp;\r\n    }\r\n\r\n    // changes the time required to pass to receive income\r\n    function changePayPeriod(uint _payPeriod) external onlyAdmin {\r\n        payPeriod = _payPeriod;\r\n    }\r\n\r\n    // modifier is used to check if the person who called the function is the Admin\r\n    modifier onlyAdmin() {\r\n        require(msg.sender == admin, 'The caller of the function is not admin');\r\n        _;\r\n    }\r\n\r\n    // function that can change the Admin address in case a proble occurs - can be calles only by the owner\r\n    function changeAdmin(address newAdmin) external onlyOwner {\r\n        admin = newAdmin;\r\n    }\r\n\r\n    // modifier is used to check if the cities can be edited - they won't be editable only if a major problem occurs\r\n    modifier isEditable() {\r\n        require(editable == true, 'The blockchain database can not be edited at the moment');\r\n        _;\r\n    }\r\n\r\n    // function is called to restrict editing data on the blockchain\r\n    function flipEditableState() public onlyOwner {\r\n        editable = !editable;\r\n    }\r\n\r\n    // #endregion\r\n    // #region Dev options\r\n\r\n    function devSetMoney(uint tokenId, uint _money) external onlyAdmin {\r\n        cities[tokenId].money = uint64(_money);\r\n    }\r\n\r\n    // City gone, reduced to atoms...\r\n    function devDemolishCity(uint tokenId) external onlyAdmin {\r\n        cities[tokenId].numOfBuildings = 0;\r\n        cities[tokenId].numOfSpecialBuildings = 0;\r\n    }\r\n\r\n    // #endregion\r\n}",
  "sourcePath": "C:\\Users\\Dario Vajda\\OneDrive\\Documents\\nft\\smart_contracts\\contracts\\Gameplay.sol",
  "compiler": {
    "name": "solc",
    "version": "0.8.11+commit.d7f03943.Emscripten.clang"
  },
  "schemaVersion": "3.4.4",
  "updatedAt": "2022-06-16T19:39:12.534Z",
  "networkType": "ethereum",
  "devdoc": {
    "kind": "dev",
    "methods": {
      "addBuilding(uint256,uint256,uint256,uint256,uint256,uint256,uint256,string)": {
        "details": "Function adding a new building into the city",
        "params": {
          "_buildingType": "a string that represents a building type",
          "_endx": "x ending coordinate",
          "_endy": "y ending coordinate",
          "_orientation": "the orientation of a building",
          "_startx": "x starting coordinate",
          "_starty": "y starting coordinate",
          "price": "of the building",
          "tokenId": "id of the city"
        }
      },
      "addSpecialBuilding(uint256,uint256,uint256,uint256,uint256,uint256,uint256,string)": {
        "details": "Function adding a new building into the city",
        "params": {
          "_endx": "x ending coordinate",
          "_endy": "y ending coordinate",
          "_orientation": "the orientation of a building",
          "_specialType": "a string that represents a building type",
          "_startx": "x starting coordinate",
          "_starty": "y starting coordinate",
          "price": "of the building",
          "tokenId": "id of the city"
        }
      },
      "changeScore(uint256,uint256)": {
        "details": "Function that will change the income of a city - should be called when building, upgrading or deleting something",
        "params": {
          "newScore": "new score",
          "tokenId": "id of the city"
        }
      },
      "changeusername(uint256,string)": {
        "details": "Function to change the usernameOVA FUNKCIJA TREBA DA SE PROMENI, NE TREBA MSG.SENDER DA BUDE OWNER GRADA NEGO SAMO DA BUDE FUNKCIJA OZNACENA SA ONLYADMIN!!!",
        "params": {
          "_username": "new username",
          "tokenId": "id of the nft"
        }
      },
      "created(uint256,address)": {
        "details": "Function can only be called by the City Contract, it is called when initializing the city and giving it an owner",
        "params": {
          "addr": "is the address of the owner (person who just minted the city)",
          "tokenId": "id of the city"
        }
      },
      "getEditableState()": {
        "details": "Function returns true if the cities are editable, and false if they are not"
      },
      "getIncome(uint256,uint256)": {
        "details": "Function getting the income for a city if conditions are met",
        "params": {
          "income": "the income of the city",
          "tokenId": "id of the city"
        }
      },
      "initializeCity(address,uint256)": {
        "details": "Function used for setting the 'initialized' field of a city to true",
        "params": {
          "tokenId": "index of the token being initialized"
        }
      },
      "newOwner(uint256,address)": {
        "details": "Function can only be called by the City Cotract, it is called beforeTokenTransfer and reassignes the owner value of the city nft",
        "params": {
          "_newOwner": "is the new owner of the nft with that id",
          "tokenId": "id of the city"
        }
      },
      "owner()": {
        "details": "Returns the address of the current owner."
      },
      "removeBuilding(uint256,uint256,uint256)": {
        "details": "Function used for removing a building from a city",
        "params": {
          "buildingIndex": "is the index of the building in the list",
          "tokenId": "id of the city",
          "value": "that will be refunded for selling/removing a building from the city"
        }
      },
      "removeSpecialBuilding(uint256,uint256,uint256)": {
        "details": "Function used for removing a building from a city",
        "params": {
          "buildingIndex": "is the index of the building in the list",
          "tokenId": "id of the city",
          "value": "that will be refunded for selling/removing a building from the city"
        }
      },
      "renounceOwnership()": {
        "details": "Leaves the contract without owner. It will not be possible to call `onlyOwner` functions anymore. Can only be called by the current owner. NOTE: Renouncing ownership will leave the contract without an owner, thereby removing any functionality that is only available to the owner."
      },
      "rotate(uint256,uint256,uint256)": {
        "details": "Function for rotating a building",
        "params": {
          "_orientation": "the new orientation of the building",
          "buildingIndex": "index of the building in the list",
          "tokenId": "the id of the city"
        }
      },
      "rotateSpecial(uint256,uint256,uint256)": {
        "details": "Function for rotating a building",
        "params": {
          "_orientation": "the new orientation of the building",
          "buildingIndex": "index of the building in the list",
          "tokenId": "the id of the city"
        }
      },
      "startGameIncome()": {
        "details": "Function that starts the game, income will begin to be calculated and received (this happens by chaning the 'gameStart' value to current block.timestamp and setting at 'lastPay' for all cities)"
      },
      "transferOwnership(address)": {
        "details": "Transfers ownership of the contract to a new account (`newOwner`). Can only be called by the current owner."
      },
      "upgradeBuilding(uint256,uint256,uint256)": {
        "details": "Function upgrading a building at the index in the list",
        "params": {
          "buildingIndex": "the index of the building in the list ",
          "price": "the price of upgrading the building",
          "tokenId": "id of the city"
        }
      }
    },
    "version": 1
  },
  "userdoc": {
    "kind": "user",
    "methods": {},
    "version": 1
  }
}