{
  "contractName": "Gameplay",
  "abi": [
    {
      "inputs": [
        {
          "internalType": "address",
          "name": "_admin",
          "type": "address"
        },
        {
          "internalType": "address",
          "name": "_nftContractAddress",
          "type": "address"
        }
      ],
      "stateMutability": "nonpayable",
      "type": "constructor"
    },
    {
      "inputs": [
        {
          "internalType": "string",
          "name": "key",
          "type": "string"
        },
        {
          "internalType": "uint32",
          "name": "count",
          "type": "uint32"
        }
      ],
      "name": "addSpecialBuildingType",
      "outputs": [],
      "stateMutability": "nonpayable",
      "type": "function"
    },
    {
      "inputs": [
        {
          "internalType": "string",
          "name": "key",
          "type": "string"
        }
      ],
      "name": "getSpecialBuildingType",
      "outputs": [
        {
          "components": [
            {
              "internalType": "uint32",
              "name": "count",
              "type": "uint32"
            },
            {
              "internalType": "uint32",
              "name": "numOfOffers",
              "type": "uint32"
            },
            {
              "internalType": "bool",
              "name": "soldOut",
              "type": "bool"
            },
            {
              "components": [
                {
                  "internalType": "uint128",
                  "name": "value",
                  "type": "uint128"
                },
                {
                  "internalType": "uint128",
                  "name": "user",
                  "type": "uint128"
                }
              ],
              "internalType": "struct Gameplay.SpecialOffer[]",
              "name": "offers",
              "type": "tuple[]"
            }
          ],
          "internalType": "struct Gameplay.SpecialBuildingTypeRepresentation",
          "name": "",
          "type": "tuple"
        }
      ],
      "stateMutability": "view",
      "type": "function"
    },
    {
      "inputs": [
        {
          "internalType": "string",
          "name": "key",
          "type": "string"
        },
        {
          "internalType": "uint128",
          "name": "makerId",
          "type": "uint128"
        },
        {
          "internalType": "uint128",
          "name": "value",
          "type": "uint128"
        }
      ],
      "name": "makeSpecialOffer",
      "outputs": [],
      "stateMutability": "nonpayable",
      "type": "function"
    },
    {
      "inputs": [
        {
          "internalType": "string",
          "name": "key",
          "type": "string"
        },
        {
          "internalType": "uint256",
          "name": "index",
          "type": "uint256"
        }
      ],
      "name": "cancelSpecialOffer",
      "outputs": [],
      "stateMutability": "nonpayable",
      "type": "function"
    },
    {
      "inputs": [
        {
          "internalType": "uint256",
          "name": "tokenId",
          "type": "uint256"
        },
        {
          "internalType": "address",
          "name": "addr",
          "type": "address"
        }
      ],
      "name": "created",
      "outputs": [],
      "stateMutability": "nonpayable",
      "type": "function"
    },
    {
      "inputs": [
        {
          "internalType": "uint256",
          "name": "tokenId",
          "type": "uint256"
        },
        {
          "internalType": "address",
          "name": "_newOwner",
          "type": "address"
        }
      ],
      "name": "newOwner",
      "outputs": [],
      "stateMutability": "nonpayable",
      "type": "function"
    },
    {
      "inputs": [
        {
          "internalType": "address",
          "name": "_owner",
          "type": "address"
        },
        {
          "internalType": "uint256",
          "name": "tokenId",
          "type": "uint256"
        }
      ],
      "name": "initializeCity",
      "outputs": [],
      "stateMutability": "nonpayable",
      "type": "function"
    },
    {
      "inputs": [
        {
          "internalType": "uint256",
          "name": "tokenId",
          "type": "uint256"
        },
        {
          "internalType": "uint256",
          "name": "newScore",
          "type": "uint256"
        }
      ],
      "name": "changeScore",
      "outputs": [],
      "stateMutability": "nonpayable",
      "type": "function"
    },
    {
      "inputs": [
        {
          "internalType": "uint256",
          "name": "tokenId",
          "type": "uint256"
        },
        {
          "internalType": "uint256",
          "name": "price",
          "type": "uint256"
        },
        {
          "internalType": "uint256",
          "name": "buildingIndex",
          "type": "uint256"
        }
      ],
      "name": "upgradeBuilding",
      "outputs": [],
      "stateMutability": "nonpayable",
      "type": "function"
    },
    {
      "inputs": [
        {
          "internalType": "uint256",
          "name": "tokenId",
          "type": "uint256"
        },
        {
          "internalType": "uint256",
          "name": "price",
          "type": "uint256"
        },
        {
          "internalType": "uint256",
          "name": "_startx",
          "type": "uint256"
        },
        {
          "internalType": "uint256",
          "name": "_starty",
          "type": "uint256"
        },
        {
          "internalType": "uint256",
          "name": "_endx",
          "type": "uint256"
        },
        {
          "internalType": "uint256",
          "name": "_endy",
          "type": "uint256"
        },
        {
          "internalType": "uint256",
          "name": "_orientation",
          "type": "uint256"
        },
        {
          "internalType": "string",
          "name": "_buildingType",
          "type": "string"
        }
      ],
      "name": "addBuilding",
      "outputs": [],
      "stateMutability": "nonpayable",
      "type": "function"
    },
    {
      "inputs": [
        {
          "internalType": "uint256",
          "name": "tokenId",
          "type": "uint256"
        },
        {
          "internalType": "uint256",
          "name": "price",
          "type": "uint256"
        },
        {
          "internalType": "uint256",
          "name": "_startx",
          "type": "uint256"
        },
        {
          "internalType": "uint256",
          "name": "_starty",
          "type": "uint256"
        },
        {
          "internalType": "uint256",
          "name": "_endx",
          "type": "uint256"
        },
        {
          "internalType": "uint256",
          "name": "_endy",
          "type": "uint256"
        },
        {
          "internalType": "uint256",
          "name": "_orientation",
          "type": "uint256"
        },
        {
          "internalType": "string",
          "name": "_specialType",
          "type": "string"
        },
        {
          "internalType": "bool",
          "name": "throughOffer",
          "type": "bool"
        },
        {
          "internalType": "uint256",
          "name": "cashIndex",
          "type": "uint256"
        }
      ],
      "name": "addSpecialBuilding",
      "outputs": [],
      "stateMutability": "nonpayable",
      "type": "function"
    },
    {
      "inputs": [
        {
          "internalType": "uint256",
          "name": "tokenId",
          "type": "uint256"
        },
        {
          "internalType": "uint256",
          "name": "value",
          "type": "uint256"
        },
        {
          "internalType": "uint256",
          "name": "buildingIndex",
          "type": "uint256"
        }
      ],
      "name": "removeBuilding",
      "outputs": [],
      "stateMutability": "nonpayable",
      "type": "function"
    },
    {
      "inputs": [
        {
          "internalType": "uint256",
          "name": "tokenId",
          "type": "uint256"
        },
        {
          "internalType": "uint256",
          "name": "value",
          "type": "uint256"
        },
        {
          "internalType": "uint256",
          "name": "buildingIndex",
          "type": "uint256"
        },
        {
          "internalType": "bool",
          "name": "throughOffer",
          "type": "bool"
        },
        {
          "internalType": "uint256",
          "name": "buyerId",
          "type": "uint256"
        }
      ],
      "name": "removeSpecialBuilding",
      "outputs": [],
      "stateMutability": "nonpayable",
      "type": "function"
    },
    {
      "inputs": [
        {
          "internalType": "uint256",
          "name": "tokenId",
          "type": "uint256"
        },
        {
          "internalType": "uint256",
          "name": "buildingIndex",
          "type": "uint256"
        },
        {
          "internalType": "uint256",
          "name": "_orientation",
          "type": "uint256"
        }
      ],
      "name": "rotate",
      "outputs": [],
      "stateMutability": "nonpayable",
      "type": "function"
    },
    {
      "inputs": [
        {
          "internalType": "uint256",
          "name": "tokenId",
          "type": "uint256"
        },
        {
          "internalType": "uint256",
          "name": "buildingIndex",
          "type": "uint256"
        },
        {
          "internalType": "uint256",
          "name": "_orientation",
          "type": "uint256"
        }
      ],
      "name": "rotateSpecial",
      "outputs": [],
      "stateMutability": "nonpayable",
      "type": "function"
    },
    {
      "inputs": [],
      "name": "startGameIncome",
      "outputs": [],
      "stateMutability": "nonpayable",
      "type": "function"
    },
    {
      "inputs": [
        {
          "internalType": "uint256",
          "name": "tokenId",
          "type": "uint256"
        },
        {
          "internalType": "uint256",
          "name": "income",
          "type": "uint256"
        }
      ],
      "name": "getIncome",
      "outputs": [],
      "stateMutability": "nonpayable",
      "type": "function"
    },
    {
      "inputs": [],
      "name": "getEditableState",
      "outputs": [
        {
          "internalType": "bool",
          "name": "",
          "type": "bool"
        }
      ],
      "stateMutability": "view",
      "type": "function"
    },
    {
      "inputs": [
        {
          "internalType": "uint256",
          "name": "tokenId",
          "type": "uint256"
        }
      ],
      "name": "getCityData",
      "outputs": [
        {
          "components": [
            {
              "internalType": "address",
              "name": "owner",
              "type": "address"
            },
            {
              "internalType": "uint256",
              "name": "numOfBuildings",
              "type": "uint256"
            },
            {
              "internalType": "uint256",
              "name": "numOfSpecialBuildings",
              "type": "uint256"
            },
            {
              "internalType": "uint256",
              "name": "numOfSpecialBuildingCash",
              "type": "uint256"
            },
            {
              "internalType": "bool",
              "name": "created",
              "type": "bool"
            },
            {
              "internalType": "bool",
              "name": "initialized",
              "type": "bool"
            },
            {
              "internalType": "uint256[]",
              "name": "startx",
              "type": "uint256[]"
            },
            {
              "internalType": "uint256[]",
              "name": "starty",
              "type": "uint256[]"
            },
            {
              "internalType": "uint256[]",
              "name": "endx",
              "type": "uint256[]"
            },
            {
              "internalType": "uint256[]",
              "name": "endy",
              "type": "uint256[]"
            },
            {
              "internalType": "uint256[]",
              "name": "orientation",
              "type": "uint256[]"
            },
            {
              "internalType": "string[]",
              "name": "buildingType",
              "type": "string[]"
            },
            {
              "internalType": "uint256[]",
              "name": "level",
              "type": "uint256[]"
            },
            {
              "internalType": "string[]",
              "name": "specialType",
              "type": "string[]"
            },
            {
              "internalType": "string[]",
              "name": "specialBuildingCash",
              "type": "string[]"
            },
            {
              "internalType": "uint256",
              "name": "money",
              "type": "uint256"
            },
            {
              "internalType": "uint256",
              "name": "income",
              "type": "uint256"
            },
            {
              "internalType": "uint256",
              "name": "incomesReceived",
              "type": "uint256"
            }
          ],
          "internalType": "struct Gameplay.CityRepresentation",
          "name": "",
          "type": "tuple"
        }
      ],
      "stateMutability": "view",
      "type": "function"
    },
    {
      "inputs": [],
      "name": "getNumOfPlayers",
      "outputs": [
        {
          "internalType": "uint256",
          "name": "",
          "type": "uint256"
        }
      ],
      "stateMutability": "view",
      "type": "function"
    },
    {
      "inputs": [
        {
          "internalType": "uint256",
          "name": "tokenId",
          "type": "uint256"
        }
      ],
      "name": "getScore",
      "outputs": [
        {
          "components": [
            {
              "internalType": "uint256",
              "name": "score",
              "type": "uint256"
            },
            {
              "internalType": "bool",
              "name": "initialized",
              "type": "bool"
            }
          ],
          "internalType": "struct Gameplay.Score",
          "name": "",
          "type": "tuple"
        }
      ],
      "stateMutability": "view",
      "type": "function"
    },
    {
      "inputs": [
        {
          "internalType": "uint256",
          "name": "_payPeriod",
          "type": "uint256"
        }
      ],
      "name": "changePayPeriod",
      "outputs": [],
      "stateMutability": "nonpayable",
      "type": "function"
    },
    {
      "inputs": [
        {
          "internalType": "address",
          "name": "newAdmin",
          "type": "address"
        }
      ],
      "name": "changeAdmin",
      "outputs": [],
      "stateMutability": "nonpayable",
      "type": "function"
    },
    {
      "inputs": [],
      "name": "flipEditableState",
      "outputs": [],
      "stateMutability": "nonpayable",
      "type": "function"
    },
    {
      "inputs": [
        {
          "internalType": "uint256",
          "name": "tokenId",
          "type": "uint256"
        },
        {
          "internalType": "uint256",
          "name": "_money",
          "type": "uint256"
        }
      ],
      "name": "devSetMoney",
      "outputs": [],
      "stateMutability": "nonpayable",
      "type": "function"
    },
    {
      "inputs": [
        {
          "internalType": "uint256",
          "name": "tokenId",
          "type": "uint256"
        }
      ],
      "name": "devDemolishCity",
      "outputs": [],
      "stateMutability": "nonpayable",
      "type": "function"
    }
  ],
  "bytecode": "0x6080604052600a60025560006005556001600660146101000a81548160ff0219169083151502179055506377359400600755603c600855620186a0600a60006101000a81548163ffffffff021916908363ffffffff1602179055503480156200006757600080fd5b5060405162006f4538038062006f4583398181016040528101906200008d919062000a8c565b6200009d620001ff60201b60201c565b33600460006101000a81548173ffffffffffffffffffffffffffffffffffffffff021916908373ffffffffffffffffffffffffffffffffffffffff16021790555081600360006101000a81548173ffffffffffffffffffffffffffffffffffffffff021916908373ffffffffffffffffffffffffffffffffffffffff16021790555080600660006101000a81548173ffffffffffffffffffffffffffffffffffffffff021916908373ffffffffffffffffffffffffffffffffffffffff1602179055506000600660009054906101000a900473ffffffffffffffffffffffffffffffffffffffff1690508073ffffffffffffffffffffffffffffffffffffffff1663ce5bc7a6306040518263ffffffff1660e01b8152600401620001c2919062000ae4565b600060405180830381600087803b158015620001dd57600080fd5b505af1158015620001f2573d6000803e3d6000fd5b5050505050505062000f3f565b600080604051620002109062000b5c565b908152602001604051809103902060006101000a81548160ff0219169083600881111562000243576200024262000b73565b5b0217905550600160006040516200025a9062000bf2565b908152602001604051809103902060006101000a81548160ff021916908360088111156200028d576200028c62000b73565b5b021790555060026000604051620002a49062000c59565b908152602001604051809103902060006101000a81548160ff02191690836008811115620002d757620002d662000b73565b5b021790555060036000604051620002ee9062000cc0565b908152602001604051809103902060006101000a81548160ff0219169083600881111562000321576200032062000b73565b5b021790555060046000604051620003389062000d27565b908152602001604051809103902060006101000a81548160ff021916908360088111156200036b576200036a62000b73565b5b021790555060056000604051620003829062000d8e565b908152602001604051809103902060006101000a81548160ff02191690836008811115620003b557620003b462000b73565b5b021790555060066000604051620003cc9062000df5565b908152602001604051809103902060006101000a81548160ff02191690836008811115620003ff57620003fe62000b73565b5b021790555060076000604051620004169062000e5c565b908152602001604051809103902060006101000a81548160ff0219169083600881111562000449576200044862000b73565b5b021790555060086000604051620004609062000ec3565b908152602001604051809103902060006101000a81548160ff0219169083600881111562000493576200049262000b73565b5b02179055506040518060400160405280600781526020017f666163746f72790000000000000000000000000000000000000000000000000081525060016000806008811115620004e857620004e762000b73565b5b6008811115620004fd57620004fc62000b73565b5b815260200190815260200160002090805190602001906200052092919062000972565b506040518060400160405280600681526020017f6f66666963650000000000000000000000000000000000000000000000000000815250600160006001600881111562000572576200057162000b73565b5b600881111562000587576200058662000b73565b5b81526020019081526020016000209080519060200190620005aa92919062000972565b506040518060400160405280600a81526020017f72657374617572616e74000000000000000000000000000000000000000000008152506001600060026008811115620005fc57620005fb62000b73565b5b600881111562000611576200061062000b73565b5b815260200190815260200160002090805190602001906200063492919062000972565b506040518060400160405280600881526020017f6275696c64696e67000000000000000000000000000000000000000000000000815250600160006003600881111562000686576200068562000b73565b5b60088111156200069b576200069a62000b73565b5b81526020019081526020016000209080519060200190620006be92919062000972565b506040518060400160405280600581526020017f686f757365000000000000000000000000000000000000000000000000000000815250600160006004600881111562000710576200070f62000b73565b5b600881111562000725576200072462000b73565b5b815260200190815260200160002090805190602001906200074892919062000972565b506040518060400160405280600581526020017f73746f726500000000000000000000000000000000000000000000000000000081525060016000600560088111156200079a576200079962000b73565b5b6008811115620007af57620007ae62000b73565b5b81526020019081526020016000209080519060200190620007d292919062000972565b506040518060400160405280600b81526020017f73757065726d61726b6574000000000000000000000000000000000000000000815250600160006006600881111562000824576200082362000b73565b5b600881111562000839576200083862000b73565b5b815260200190815260200160002090805190602001906200085c92919062000972565b506040518060400160405280600481526020017f7061726b000000000000000000000000000000000000000000000000000000008152506001600060076008811115620008ae57620008ad62000b73565b5b6008811115620008c357620008c262000b73565b5b81526020019081526020016000209080519060200190620008e692919062000972565b506040518060400160405280600381526020017f67796d00000000000000000000000000000000000000000000000000000000008152506001600060088081111562000937576200093662000b73565b5b60088111156200094c576200094b62000b73565b5b815260200190815260200160002090805190602001906200096f92919062000972565b50565b828054620009809062000f09565b90600052602060002090601f016020900481019282620009a45760008555620009f0565b82601f10620009bf57805160ff1916838001178555620009f0565b82800160010185558215620009f0579182015b82811115620009ef578251825591602001919060010190620009d2565b5b509050620009ff919062000a03565b5090565b5b8082111562000a1e57600081600090555060010162000a04565b5090565b600080fd5b600073ffffffffffffffffffffffffffffffffffffffff82169050919050565b600062000a548262000a27565b9050919050565b62000a668162000a47565b811462000a7257600080fd5b50565b60008151905062000a868162000a5b565b92915050565b6000806040838503121562000aa65762000aa562000a22565b5b600062000ab68582860162000a75565b925050602062000ac98582860162000a75565b9150509250929050565b62000ade8162000a47565b82525050565b600060208201905062000afb600083018462000ad3565b92915050565b600081905092915050565b7f666163746f727900000000000000000000000000000000000000000000000000600082015250565b600062000b4460078362000b01565b915062000b518262000b0c565b600782019050919050565b600062000b698262000b35565b9150819050919050565b7f4e487b7100000000000000000000000000000000000000000000000000000000600052602160045260246000fd5b7f6f66666963650000000000000000000000000000000000000000000000000000600082015250565b600062000bda60068362000b01565b915062000be78262000ba2565b600682019050919050565b600062000bff8262000bcb565b9150819050919050565b7f72657374617572616e7400000000000000000000000000000000000000000000600082015250565b600062000c41600a8362000b01565b915062000c4e8262000c09565b600a82019050919050565b600062000c668262000c32565b9150819050919050565b7f6275696c64696e67000000000000000000000000000000000000000000000000600082015250565b600062000ca860088362000b01565b915062000cb58262000c70565b600882019050919050565b600062000ccd8262000c99565b9150819050919050565b7f686f757365000000000000000000000000000000000000000000000000000000600082015250565b600062000d0f60058362000b01565b915062000d1c8262000cd7565b600582019050919050565b600062000d348262000d00565b9150819050919050565b7f73746f7265000000000000000000000000000000000000000000000000000000600082015250565b600062000d7660058362000b01565b915062000d838262000d3e565b600582019050919050565b600062000d9b8262000d67565b9150819050919050565b7f73757065726d61726b6574000000000000000000000000000000000000000000600082015250565b600062000ddd600b8362000b01565b915062000dea8262000da5565b600b82019050919050565b600062000e028262000dce565b9150819050919050565b7f7061726b00000000000000000000000000000000000000000000000000000000600082015250565b600062000e4460048362000b01565b915062000e518262000e0c565b600482019050919050565b600062000e698262000e35565b9150819050919050565b7f67796d0000000000000000000000000000000000000000000000000000000000600082015250565b600062000eab60038362000b01565b915062000eb88262000e73565b600382019050919050565b600062000ed08262000e9c565b9150819050919050565b7f4e487b7100000000000000000000000000000000000000000000000000000000600052602260045260246000fd5b6000600282049050600182168062000f2257607f821691505b6020821081141562000f395762000f3862000eda565b5b50919050565b615ff68062000f4f6000396000f3fe608060405234801561001057600080fd5b506004361061018d5760003560e01c80638f283970116100de578063cd6f260d11610097578063e4e2d2ae11610071578063e4e2d2ae14610416578063e571319f14610432578063eb318ff71461044e578063f50aeafc1461046a5761018d565b8063cd6f260d146103ae578063cf322e94146103de578063de1e2134146103fa5761018d565b80638f2839701461030657806392280b5b146103225780639b9a925d1461033e578063b758eeaa1461035a578063b7d96c4a14610376578063cc6ebc8b146103925761018d565b80633fb9c0051161014b578063565429de11610125578063565429de146102925780635a7b71da146102b05780636c241bb1146102cc5780636d5dcb2b146102fc5761018d565b80633fb9c0051461023c5780634920f906146102585780634c6ad4c1146102765761018d565b8062965160146101925780630e1af57b146101ae57806316f2d460146101de5780632168a42b146101fa57806323657514146102165780633c6a34e014610220575b600080fd5b6101ac60048036038101906101a7919061464a565b610486565b005b6101c860048036038101906101c3919061464a565b610585565b6040516101d591906146d0565b60405180910390f35b6101f860048036038101906101f3919061486d565b6105e7565b005b610214600480360381019061020f91906148c9565b6107b4565b005b61021e6108e8565b005b61023a6004803603810190610235919061491c565b6109a4565b005b610256600480360381019061025191906149ba565b610c74565b005b610260610fc2565b60405161026d9190614a09565b60405180910390f35b610290600480360381019061028b9190614a24565b610fd9565b005b61029a6112f0565b6040516102a79190614a8f565b60405180910390f35b6102ca60048036038101906102c591906148c9565b6112fa565b005b6102e660048036038101906102e1919061464a565b61198d565b6040516102f39190614e6c565b60405180910390f35b6103046124fb565b005b610320600480360381019061031b9190614e8e565b6126e9565b005b61033c60048036038101906103379190614f47565b6127bd565b005b61035860048036038101906103539190615047565b612c99565b005b610374600480360381019061036f91906150c2565b613250565b005b610390600480360381019061038b919061491c565b613380565b005b6103ac60048036038101906103a791906148c9565b613451565b005b6103c860048036038101906103c39190615102565b613616565b6040516103d591906152c6565b60405180910390f35b6103f860048036038101906103f391906150c2565b613908565b005b610414600480360381019061040f91906152e8565b6139f1565b005b610430600480360381019061042b919061491c565b613d6d565b005b61044c600480360381019061044791906148c9565b613e6f565b005b6104686004803603810190610463919061464a565b613fa3565b005b610484600480360381019061047f91906153ea565b61403d565b005b600360009054906101000a900473ffffffffffffffffffffffffffffffffffffffff1673ffffffffffffffffffffffffffffffffffffffff163373ffffffffffffffffffffffffffffffffffffffff1614610516576040517f08c379a000000000000000000000000000000000000000000000000000000000815260040161050d906154b6565b60405180910390fd5b60006009600083815260200190815260200160002060030160026101000a81548163ffffffff021916908363ffffffff16021790555060006009600083815260200190815260200160002060030160066101000a81548163ffffffff021916908363ffffffff16021790555050565b61058d61439b565b60006040518060400160405280600b60008681526020019081526020016000205481526020016009600086815260200190815260200160002060030160019054906101000a900460ff161515815250905080915050919050565b600360009054906101000a900473ffffffffffffffffffffffffffffffffffffffff1673ffffffffffffffffffffffffffffffffffffffff163373ffffffffffffffffffffffffffffffffffffffff1614610677576040517f08c379a000000000000000000000000000000000000000000000000000000000815260040161066e906154b6565b60405180910390fd5b6000600c836040516106899190615512565b908152602001604051809103902060000160009054906101000a900463ffffffff1663ffffffff161480156106f0575060001515600c836040516106cd9190615512565b908152602001604051809103902060000160089054906101000a900460ff161515145b61072f576040517f08c379a000000000000000000000000000000000000000000000000000000000815260040161072690615575565b60405180910390fd5b80600c836040516107409190615512565b908152602001604051809103902060000160006101000a81548163ffffffff021916908363ffffffff1602179055506000600c836040516107819190615512565b908152602001604051809103902060000160046101000a81548163ffffffff021916908363ffffffff1602179055505050565b600360009054906101000a900473ffffffffffffffffffffffffffffffffffffffff1673ffffffffffffffffffffffffffffffffffffffff163373ffffffffffffffffffffffffffffffffffffffff1614610844576040517f08c379a000000000000000000000000000000000000000000000000000000000815260040161083b906154b6565b60405180910390fd5b60011515600660149054906101000a900460ff1615151461089a576040517f08c379a0000000000000000000000000000000000000000000000000000000008152600401610891906155e1565b60405180910390fd5b8060096000858152602001908152602001600020600001600084815260200190815260200160002060000160156101000a81548163ffffffff021916908363ffffffff160217905550505050565b600460009054906101000a900473ffffffffffffffffffffffffffffffffffffffff1673ffffffffffffffffffffffffffffffffffffffff163373ffffffffffffffffffffffffffffffffffffffff1614610978576040517f08c379a000000000000000000000000000000000000000000000000000000000815260040161096f9061564d565b60405180910390fd5b600660149054906101000a900460ff1615600660146101000a81548160ff021916908315150217905550565b600360009054906101000a900473ffffffffffffffffffffffffffffffffffffffff1673ffffffffffffffffffffffffffffffffffffffff163373ffffffffffffffffffffffffffffffffffffffff1614610a34576040517f08c379a0000000000000000000000000000000000000000000000000000000008152600401610a2b906154b6565b60405180910390fd5b60011515600660149054906101000a900460ff16151514610a8a576040517f08c379a0000000000000000000000000000000000000000000000000000000008152600401610a81906155e1565b60405180910390fd5b6007544211610ace576040517f08c379a0000000000000000000000000000000000000000000000000000000008152600401610ac5906156b9565b60405180910390fd5b60075460085460096000858152602001908152602001600020600301601a9054906101000a900463ffffffff1663ffffffff16610b0b9190615708565b610b159190615762565b4211610b56576040517f08c379a0000000000000000000000000000000000000000000000000000000008152600401610b4d90615804565b60405180910390fd5b600060096000848152602001908152602001600020600301601a9054906101000a900463ffffffff1663ffffffff1660085460075442610b969190615824565b610ba09190615887565b610baa9190615824565b90508181610bb89190615708565b63ffffffff1660096000858152602001908152602001600020600301600e8282829054906101000a900467ffffffffffffffff16610bf691906158cc565b92506101000a81548167ffffffffffffffff021916908367ffffffffffffffff1602179055508060096000858152602001908152602001600020600301601a8282829054906101000a900463ffffffff16610c51919061590a565b92506101000a81548163ffffffff021916908363ffffffff160217905550505050565b600360009054906101000a900473ffffffffffffffffffffffffffffffffffffffff1673ffffffffffffffffffffffffffffffffffffffff163373ffffffffffffffffffffffffffffffffffffffff1614610d04576040517f08c379a0000000000000000000000000000000000000000000000000000000008152600401610cfb906154b6565b60405180910390fd5b60011515600660149054906101000a900460ff16151514610d5a576040517f08c379a0000000000000000000000000000000000000000000000000000000008152600401610d51906155e1565b60405180910390fd5b600115156009600083815260200190815260200160002060030160009054906101000a900460ff16151514610dc4576040517f08c379a0000000000000000000000000000000000000000000000000000000008152600401610dbb90615990565b60405180910390fd5b600015156009600083815260200190815260200160002060030160019054906101000a900460ff16151514610e2e576040517f08c379a0000000000000000000000000000000000000000000000000000000008152600401610e25906159fc565b60405180910390fd5b8173ffffffffffffffffffffffffffffffffffffffff166009600083815260200190815260200160002060040160009054906101000a900473ffffffffffffffffffffffffffffffffffffffff1673ffffffffffffffffffffffffffffffffffffffff1614610ed2576040517f08c379a0000000000000000000000000000000000000000000000000000000008152600401610ec990615a68565b60405180910390fd5b6000600960008381526020019081526020016000209050600a60009054906101000a900463ffffffff1663ffffffff1681600301600e6101000a81548167ffffffffffffffff021916908367ffffffffffffffff16021790555060018160030160016101000a81548160ff021916908315150217905550637735940060075414610f985760085460075442610f679190615824565b610f719190615887565b81600301601a6101000a81548163ffffffff021916908363ffffffff160217905550610fbd565b600081600301601a6101000a81548163ffffffff021916908363ffffffff1602179055505b505050565b6000600660149054906101000a900460ff16905090565b600360009054906101000a900473ffffffffffffffffffffffffffffffffffffffff1673ffffffffffffffffffffffffffffffffffffffff163373ffffffffffffffffffffffffffffffffffffffff1614611069576040517f08c379a0000000000000000000000000000000000000000000000000000000008152600401611060906154b6565b60405180910390fd5b60011515600660149054906101000a900460ff161515146110bf576040517f08c379a00000000000000000000000000000000000000000000000000000000081526004016110b6906155e1565b60405180910390fd5b600c826040516110cf9190615512565b908152602001604051809103902060000160049054906101000a900463ffffffff1663ffffffff168110611138576040517f08c379a000000000000000000000000000000000000000000000000000000000815260040161112f90615ad4565b60405180910390fd5b600c826040516111489190615512565b9081526020016040518091039020600001600481819054906101000a900463ffffffff168092919061117990615af4565b91906101000a81548163ffffffff021916908363ffffffff16021790555050600c826040516111a89190615512565b90815260200160405180910390206001016000600c846040516111cb9190615512565b908152602001604051809103902060000160049054906101000a900463ffffffff1663ffffffff168152602001908152602001600020600c836040516112119190615512565b908152602001604051809103902060010160008381526020019081526020016000206000820160009054906101000a90046fffffffffffffffffffffffffffffffff168160000160006101000a8154816fffffffffffffffffffffffffffffffff02191690836fffffffffffffffffffffffffffffffff1602179055506000820160109054906101000a90046fffffffffffffffffffffffffffffffff168160000160106101000a8154816fffffffffffffffffffffffffffffffff02191690836fffffffffffffffffffffffffffffffff1602179055509050505050565b6000600554905090565b600360009054906101000a900473ffffffffffffffffffffffffffffffffffffffff1673ffffffffffffffffffffffffffffffffffffffff163373ffffffffffffffffffffffffffffffffffffffff161461138a576040517f08c379a0000000000000000000000000000000000000000000000000000000008152600401611381906154b6565b60405180910390fd5b60011515600660149054906101000a900460ff161515146113e0576040517f08c379a00000000000000000000000000000000000000000000000000000000081526004016113d7906155e1565b60405180910390fd5b60016009600085815260200190815260200160002060030160029054906101000a900463ffffffff166114139190615b1e565b6009600085815260200190815260200160002060030160026101000a81548163ffffffff021916908363ffffffff1602179055506009600084815260200190815260200160002060000160006009600086815260200190815260200160002060030160029054906101000a900463ffffffff1663ffffffff16815260200190815260200160002060000160009054906101000a900460ff1660096000858152602001908152602001600020600001600083815260200190815260200160002060000160006101000a81548160ff021916908360088111156114f7576114f6615b52565b5b02179055506009600084815260200190815260200160002060000160006009600086815260200190815260200160002060030160029054906101000a900463ffffffff1663ffffffff16815260200190815260200160002060000160019054906101000a900463ffffffff1660096000858152602001908152602001600020600001600083815260200190815260200160002060000160016101000a81548163ffffffff021916908363ffffffff1602179055506009600084815260200190815260200160002060000160006009600086815260200190815260200160002060030160029054906101000a900463ffffffff1663ffffffff16815260200190815260200160002060000160059054906101000a900463ffffffff1660096000858152602001908152602001600020600001600083815260200190815260200160002060000160056101000a81548163ffffffff021916908363ffffffff1602179055506009600084815260200190815260200160002060000160006009600086815260200190815260200160002060030160029054906101000a900463ffffffff1663ffffffff16815260200190815260200160002060000160099054906101000a900463ffffffff1660096000858152602001908152602001600020600001600083815260200190815260200160002060000160096101000a81548163ffffffff021916908363ffffffff1602179055506009600084815260200190815260200160002060000160006009600086815260200190815260200160002060030160029054906101000a900463ffffffff1663ffffffff168152602001908152602001600020600001600d9054906101000a900463ffffffff16600960008581526020019081526020016000206000016000838152602001908152602001600020600001600d6101000a81548163ffffffff021916908363ffffffff1602179055506009600084815260200190815260200160002060000160006009600086815260200190815260200160002060030160029054906101000a900463ffffffff1663ffffffff16815260200190815260200160002060000160119054906101000a900463ffffffff1660096000858152602001908152602001600020600001600083815260200190815260200160002060000160116101000a81548163ffffffff021916908363ffffffff1602179055506009600084815260200190815260200160002060000160006009600086815260200190815260200160002060030160029054906101000a900463ffffffff1663ffffffff16815260200190815260200160002060000160159054906101000a900463ffffffff1660096000858152602001908152602001600020600001600083815260200190815260200160002060000160156101000a81548163ffffffff021916908363ffffffff1602179055508160096000858152602001908152602001600020600301600e9054906101000a900467ffffffffffffffff1661194c91906158cc565b60096000858152602001908152602001600020600301600e6101000a81548167ffffffffffffffff021916908367ffffffffffffffff160217905550505050565b6119956143b7565b600060096000848152602001908152602001600020905060008160030160029054906101000a900463ffffffff1663ffffffff16905060008260030160069054906101000a900463ffffffff1663ffffffff169050600083600301600a9054906101000a900463ffffffff1663ffffffff16905060006040518061024001604052808660040160009054906101000a900473ffffffffffffffffffffffffffffffffffffffff1673ffffffffffffffffffffffffffffffffffffffff1681526020018581526020018481526020018381526020018660030160009054906101000a900460ff16151581526020018660030160019054906101000a900460ff16151581526020018486611aa79190615762565b67ffffffffffffffff811115611ac057611abf614706565b5b604051908082528060200260200182016040528015611aee5781602001602082028036833780820191505090505b5081526020018486611b009190615762565b67ffffffffffffffff811115611b1957611b18614706565b5b604051908082528060200260200182016040528015611b475781602001602082028036833780820191505090505b5081526020018486611b599190615762565b67ffffffffffffffff811115611b7257611b71614706565b5b604051908082528060200260200182016040528015611ba05781602001602082028036833780820191505090505b5081526020018486611bb29190615762565b67ffffffffffffffff811115611bcb57611bca614706565b5b604051908082528060200260200182016040528015611bf95781602001602082028036833780820191505090505b5081526020018486611c0b9190615762565b67ffffffffffffffff811115611c2457611c23614706565b5b604051908082528060200260200182016040528015611c525781602001602082028036833780820191505090505b5081526020018567ffffffffffffffff811115611c7257611c71614706565b5b604051908082528060200260200182016040528015611ca557816020015b6060815260200190600190039081611c905790505b5081526020018567ffffffffffffffff811115611cc557611cc4614706565b5b604051908082528060200260200182016040528015611cf35781602001602082028036833780820191505090505b5081526020018467ffffffffffffffff811115611d1357611d12614706565b5b604051908082528060200260200182016040528015611d4657816020015b6060815260200190600190039081611d315790505b5081526020018367ffffffffffffffff811115611d6657611d65614706565b5b604051908082528060200260200182016040528015611d9957816020015b6060815260200190600190039081611d845790505b50815260200186600301600e9054906101000a900467ffffffffffffffff1667ffffffffffffffff1681526020018660030160169054906101000a900463ffffffff1663ffffffff168152602001637735940060075414611e0e5786600301601a9054906101000a900463ffffffff16611e11565b60005b63ffffffff16815250905060005b848110156121325785600001600082815260200190815260200160002060000160019054906101000a900463ffffffff1663ffffffff168260c001518281518110611e6d57611e6c615b81565b5b60200260200101818152505085600001600082815260200190815260200160002060000160059054906101000a900463ffffffff1663ffffffff168260e001518281518110611ebf57611ebe615b81565b5b60200260200101818152505085600001600082815260200190815260200160002060000160099054906101000a900463ffffffff1663ffffffff168261010001518281518110611f1257611f11615b81565b5b602002602001018181525050856000016000828152602001908152602001600020600001600d9054906101000a900463ffffffff1663ffffffff168261012001518281518110611f6557611f64615b81565b5b60200260200101818152505085600001600082815260200190815260200160002060000160159054906101000a900463ffffffff1663ffffffff168261014001518281518110611fb857611fb7615b81565b5b6020026020010181815250506001600087600001600084815260200190815260200160002060000160009054906101000a900460ff16600881111561200057611fff615b52565b5b600881111561201257612011615b52565b5b8152602001908152602001600020805461202b90615bdf565b80601f016020809104026020016040519081016040528092919081815260200182805461205790615bdf565b80156120a45780601f10612079576101008083540402835291602001916120a4565b820191906000526020600020905b81548152906001019060200180831161208757829003601f168201915b505050505082610160015182815181106120c1576120c0615b81565b5b602002602001018190525085600001600082815260200190815260200160002060000160119054906101000a900463ffffffff1663ffffffff16826101800151828151811061211357612112615b81565b5b602002602001018181525050808061212a90615c11565b915050611e1f565b5060008490505b84846121459190615762565b81101561240d57856001016000868361215e9190615824565b815260200190815260200160002060010160009054906101000a900463ffffffff1663ffffffff168260c00151828151811061219d5761219c615b81565b5b60200260200101818152505085600101600086836121bb9190615824565b815260200190815260200160002060010160049054906101000a900463ffffffff1663ffffffff168260e0015182815181106121fa576121f9615b81565b5b60200260200101818152505085600101600086836122189190615824565b815260200190815260200160002060010160089054906101000a900463ffffffff1663ffffffff16826101000151828151811061225857612257615b81565b5b60200260200101818152505085600101600086836122769190615824565b8152602001908152602001600020600101600c9054906101000a900463ffffffff1663ffffffff1682610120015182815181106122b6576122b5615b81565b5b60200260200101818152505085600101600086836122d49190615824565b815260200190815260200160002060010160109054906101000a900463ffffffff1663ffffffff16826101400151828151811061231457612313615b81565b5b60200260200101818152505085600101600086836123329190615824565b8152602001908152602001600020600001805461234e90615bdf565b80601f016020809104026020016040519081016040528092919081815260200182805461237a90615bdf565b80156123c75780601f1061239c576101008083540402835291602001916123c7565b820191906000526020600020905b8154815290600101906020018083116123aa57829003601f168201915b5050505050826101a0015186836123de9190615824565b815181106123ef576123ee615b81565b5b6020026020010181905250808061240590615c11565b915050612139565b5060005b828110156124ed57856002016000828152602001908152602001600020805461243990615bdf565b80601f016020809104026020016040519081016040528092919081815260200182805461246590615bdf565b80156124b25780601f10612487576101008083540402835291602001916124b2565b820191906000526020600020905b81548152906001019060200180831161249557829003601f168201915b5050505050826101c0015182815181106124cf576124ce615b81565b5b602002602001018190525080806124e590615c11565b915050612411565b508095505050505050919050565b600360009054906101000a900473ffffffffffffffffffffffffffffffffffffffff1673ffffffffffffffffffffffffffffffffffffffff163373ffffffffffffffffffffffffffffffffffffffff161461258b576040517f08c379a0000000000000000000000000000000000000000000000000000000008152600401612582906154b6565b60405180910390fd5b60011515600660149054906101000a900460ff161515146125e1576040517f08c379a00000000000000000000000000000000000000000000000000000000081526004016125d8906155e1565b60405180910390fd5b637735940060075414612629576040517f08c379a000000000000000000000000000000000000000000000000000000000815260040161262090615ca6565b60405180910390fd5b4260078190555060005b600073ffffffffffffffffffffffffffffffffffffffff166009600083815260200190815260200160002060040160009054906101000a900473ffffffffffffffffffffffffffffffffffffffff1673ffffffffffffffffffffffffffffffffffffffff16146126e657600060096000838152602001908152602001600020600301601a6101000a81548163ffffffff021916908363ffffffff16021790555080806126de90615c11565b915050612633565b50565b600460009054906101000a900473ffffffffffffffffffffffffffffffffffffffff1673ffffffffffffffffffffffffffffffffffffffff163373ffffffffffffffffffffffffffffffffffffffff1614612779576040517f08c379a00000000000000000000000000000000000000000000000000000000081526004016127709061564d565b60405180910390fd5b80600360006101000a81548173ffffffffffffffffffffffffffffffffffffffff021916908373ffffffffffffffffffffffffffffffffffffffff16021790555050565b600360009054906101000a900473ffffffffffffffffffffffffffffffffffffffff1673ffffffffffffffffffffffffffffffffffffffff163373ffffffffffffffffffffffffffffffffffffffff161461284d576040517f08c379a0000000000000000000000000000000000000000000000000000000008152600401612844906154b6565b60405180910390fd5b60011515600660149054906101000a900460ff161515146128a3576040517f08c379a000000000000000000000000000000000000000000000000000000000815260040161289a906155e1565b60405180910390fd5b6001151582151514806128ef57506000600c85856040516128c5929190615ceb565b908152602001604051809103902060000160009054906101000a900463ffffffff1663ffffffff16115b61292e576040517f08c379a000000000000000000000000000000000000000000000000000000000815260040161292590615d50565b60405180910390fd5b6000600960008d815260200190815260200160002090506000151583151514156129b957600c8585604051612964929190615ceb565b9081526020016040518091039020600001600081819054906101000a900463ffffffff168092919061299590615af4565b91906101000a81548163ffffffff021916908363ffffffff16021790555050612a59565b80600301600a81819054906101000a900463ffffffff16809291906129dd90615af4565b91906101000a81548163ffffffff021916908363ffffffff1602179055505080600201600082600301600a9054906101000a900463ffffffff1663ffffffff168152602001908152602001600020816002016000848152602001908152602001600020908054612a4c90615bdf565b612a5792919061445c565b505b6040518060c0016040528086868080601f016020809104026020016040519081016040528093929190818152602001838380828437600081840152601f19601f8201169050808301925050505050505081526020018b63ffffffff1681526020018a63ffffffff1681526020018963ffffffff1681526020018863ffffffff1681526020018763ffffffff168152508160010160008360030160069054906101000a900463ffffffff1663ffffffff1681526020019081526020016000206000820151816000019080519060200190612b339291906144e9565b5060208201518160010160006101000a81548163ffffffff021916908363ffffffff16021790555060408201518160010160046101000a81548163ffffffff021916908363ffffffff16021790555060608201518160010160086101000a81548163ffffffff021916908363ffffffff160217905550608082015181600101600c6101000a81548163ffffffff021916908363ffffffff16021790555060a08201518160010160106101000a81548163ffffffff021916908363ffffffff16021790555090505080600301600681819054906101000a900463ffffffff1680929190612c1e90615d70565b91906101000a81548163ffffffff021916908363ffffffff160217905550508a81600301600e9054906101000a900467ffffffffffffffff16612c619190615d9d565b81600301600e6101000a81548167ffffffffffffffff021916908367ffffffffffffffff160217905550505050505050505050505050565b600360009054906101000a900473ffffffffffffffffffffffffffffffffffffffff1673ffffffffffffffffffffffffffffffffffffffff163373ffffffffffffffffffffffffffffffffffffffff1614612d29576040517f08c379a0000000000000000000000000000000000000000000000000000000008152600401612d20906154b6565b60405180910390fd5b60011515600660149054906101000a900460ff16151514612d7f576040517f08c379a0000000000000000000000000000000000000000000000000000000008152600401612d76906155e1565b60405180910390fd5b6000600960008781526020019081526020016000209050600015158315151415612e1f57600c816001016000868152602001908152602001600020600001604051612dca9190615e65565b9081526020016040518091039020600001600081819054906101000a900463ffffffff1680929190612dfb90615d70565b91906101000a81548163ffffffff021916908363ffffffff16021790555050612ef8565b80600101600085815260200190815260200160002060000160096000848152602001908152602001600020600201600060096000868152602001908152602001600020600301600a9054906101000a900463ffffffff1663ffffffff168152602001908152602001600020908054612e9690615bdf565b612ea192919061445c565b5060096000838152602001908152602001600020600301600a81819054906101000a900463ffffffff1680929190612ed890615d70565b91906101000a81548163ffffffff021916908363ffffffff160217905550505b60018160030160069054906101000a900463ffffffff16612f199190615b1e565b8160030160066101000a81548163ffffffff021916908363ffffffff1602179055508060010160008260030160069054906101000a900463ffffffff1663ffffffff168152602001908152602001600020600001816001016000868152602001908152602001600020600001908054612f9190615bdf565b612f9c92919061445c565b508060010160008260030160069054906101000a900463ffffffff1663ffffffff16815260200190815260200160002060010160009054906101000a900463ffffffff1681600101600086815260200190815260200160002060010160006101000a81548163ffffffff021916908363ffffffff1602179055508060010160008260030160069054906101000a900463ffffffff1663ffffffff16815260200190815260200160002060010160049054906101000a900463ffffffff1681600101600086815260200190815260200160002060010160046101000a81548163ffffffff021916908363ffffffff1602179055508060010160008260030160069054906101000a900463ffffffff1663ffffffff16815260200190815260200160002060010160089054906101000a900463ffffffff1681600101600086815260200190815260200160002060010160086101000a81548163ffffffff021916908363ffffffff1602179055508060010160008260030160069054906101000a900463ffffffff1663ffffffff168152602001908152602001600020600101600c9054906101000a900463ffffffff16816001016000868152602001908152602001600020600101600c6101000a81548163ffffffff021916908363ffffffff1602179055508060010160008260030160069054906101000a900463ffffffff1663ffffffff16815260200190815260200160002060010160109054906101000a900463ffffffff1681600101600086815260200190815260200160002060010160106101000a81548163ffffffff021916908363ffffffff1602179055508481600301600e9054906101000a900467ffffffffffffffff1661321e91906158cc565b81600301600e6101000a81548167ffffffffffffffff021916908367ffffffffffffffff160217905550505050505050565b600660009054906101000a900473ffffffffffffffffffffffffffffffffffffffff1673ffffffffffffffffffffffffffffffffffffffff163373ffffffffffffffffffffffffffffffffffffffff16146132e0576040517f08c379a00000000000000000000000000000000000000000000000000000000081526004016132d790615ec8565b60405180910390fd5b806009600084815260200190815260200160002060040160006101000a81548173ffffffffffffffffffffffffffffffffffffffff021916908373ffffffffffffffffffffffffffffffffffffffff16021790555060016009600084815260200190815260200160002060030160006101000a81548160ff0219169083151502179055506005600081548092919061337790615c11565b91905055505050565b600360009054906101000a900473ffffffffffffffffffffffffffffffffffffffff1673ffffffffffffffffffffffffffffffffffffffff163373ffffffffffffffffffffffffffffffffffffffff1614613410576040517f08c379a0000000000000000000000000000000000000000000000000000000008152600401613407906154b6565b60405180910390fd5b8060096000848152602001908152602001600020600301600e6101000a81548167ffffffffffffffff021916908367ffffffffffffffff1602179055505050565b600360009054906101000a900473ffffffffffffffffffffffffffffffffffffffff1673ffffffffffffffffffffffffffffffffffffffff163373ffffffffffffffffffffffffffffffffffffffff16146134e1576040517f08c379a00000000000000000000000000000000000000000000000000000000081526004016134d8906154b6565b60405180910390fd5b60011515600660149054906101000a900460ff16151514613537576040517f08c379a000000000000000000000000000000000000000000000000000000000815260040161352e906155e1565b60405180910390fd5b600160096000858152602001908152602001600020600001600083815260200190815260200160002060000160118282829054906101000a900463ffffffff16613581919061590a565b92506101000a81548163ffffffff021916908363ffffffff1602179055508160096000858152602001908152602001600020600301600e9054906101000a900467ffffffffffffffff166135d59190615d9d565b60096000858152602001908152602001600020600301600e6101000a81548167ffffffffffffffff021916908367ffffffffffffffff160217905550505050565b61361e61456f565b60006040518060800160405280600c8560405161363b9190615512565b908152602001604051809103902060000160009054906101000a900463ffffffff1663ffffffff168152602001600c856040516136789190615512565b908152602001604051809103902060000160049054906101000a900463ffffffff1663ffffffff168152602001600c856040516136b59190615512565b908152602001604051809103902060000160089054906101000a900460ff1615158152602001600c856040516136eb9190615512565b908152602001604051809103902060000160049054906101000a900463ffffffff1663ffffffff1667ffffffffffffffff81111561372c5761372b614706565b5b60405190808252806020026020018201604052801561376557816020015b6137526145a5565b81526020019060019003908161374a5790505b50815250905060005b600c8460405161377e9190615512565b908152602001604051809103902060000160049054906101000a900463ffffffff1663ffffffff168110156138fe57600c846040516137bd9190615512565b9081526020016040518091039020600101600082815260200190815260200160002060000160009054906101000a90046fffffffffffffffffffffffffffffffff168260600151828151811061381657613815615b81565b5b6020026020010151600001906fffffffffffffffffffffffffffffffff1690816fffffffffffffffffffffffffffffffff1681525050600c8460405161385c9190615512565b9081526020016040518091039020600101600082815260200190815260200160002060000160109054906101000a90046fffffffffffffffffffffffffffffffff16826060015182815181106138b5576138b4615b81565b5b6020026020010151602001906fffffffffffffffffffffffffffffffff1690816fffffffffffffffffffffffffffffffff168152505080806138f690615c11565b91505061376e565b5080915050919050565b600660009054906101000a900473ffffffffffffffffffffffffffffffffffffffff1673ffffffffffffffffffffffffffffffffffffffff163373ffffffffffffffffffffffffffffffffffffffff1614613998576040517f08c379a000000000000000000000000000000000000000000000000000000000815260040161398f90615ec8565b60405180910390fd5b806009600084815260200190815260200160002060040160006101000a81548173ffffffffffffffffffffffffffffffffffffffff021916908373ffffffffffffffffffffffffffffffffffffffff1602179055505050565b600360009054906101000a900473ffffffffffffffffffffffffffffffffffffffff1673ffffffffffffffffffffffffffffffffffffffff163373ffffffffffffffffffffffffffffffffffffffff1614613a81576040517f08c379a0000000000000000000000000000000000000000000000000000000008152600401613a78906154b6565b60405180910390fd5b60011515600660149054906101000a900460ff16151514613ad7576040517f08c379a0000000000000000000000000000000000000000000000000000000008152600401613ace906155e1565b60405180910390fd5b6000600960008b815260200190815260200160002090506040518060e0016040528060008585604051613b0b929190615ceb565b908152602001604051809103902060009054906101000a900460ff166008811115613b3957613b38615b52565b5b81526020018963ffffffff1681526020018863ffffffff1681526020018763ffffffff1681526020018663ffffffff168152602001600063ffffffff1681526020018563ffffffff168152508160000160008360030160029054906101000a900463ffffffff1663ffffffff16815260200190815260200160002060008201518160000160006101000a81548160ff02191690836008811115613bdf57613bde615b52565b5b021790555060208201518160000160016101000a81548163ffffffff021916908363ffffffff16021790555060408201518160000160056101000a81548163ffffffff021916908363ffffffff16021790555060608201518160000160096101000a81548163ffffffff021916908363ffffffff160217905550608082015181600001600d6101000a81548163ffffffff021916908363ffffffff16021790555060a08201518160000160116101000a81548163ffffffff021916908363ffffffff16021790555060c08201518160000160156101000a81548163ffffffff021916908363ffffffff16021790555090505060018160030160028282829054906101000a900463ffffffff16613cf5919061590a565b92506101000a81548163ffffffff021916908363ffffffff1602179055508881600301600e9054906101000a900467ffffffffffffffff16613d379190615d9d565b81600301600e6101000a81548167ffffffffffffffff021916908367ffffffffffffffff16021790555050505050505050505050565b600360009054906101000a900473ffffffffffffffffffffffffffffffffffffffff1673ffffffffffffffffffffffffffffffffffffffff163373ffffffffffffffffffffffffffffffffffffffff1614613dfd576040517f08c379a0000000000000000000000000000000000000000000000000000000008152600401613df4906154b6565b60405180910390fd5b60011515600660149054906101000a900460ff16151514613e53576040517f08c379a0000000000000000000000000000000000000000000000000000000008152600401613e4a906155e1565b60405180910390fd5b80600b6000848152602001908152602001600020819055505050565b600360009054906101000a900473ffffffffffffffffffffffffffffffffffffffff1673ffffffffffffffffffffffffffffffffffffffff163373ffffffffffffffffffffffffffffffffffffffff1614613eff576040517f08c379a0000000000000000000000000000000000000000000000000000000008152600401613ef6906154b6565b60405180910390fd5b60011515600660149054906101000a900460ff16151514613f55576040517f08c379a0000000000000000000000000000000000000000000000000000000008152600401613f4c906155e1565b60405180910390fd5b8060096000858152602001908152602001600020600101600084815260200190815260200160002060010160106101000a81548163ffffffff021916908363ffffffff160217905550505050565b600360009054906101000a900473ffffffffffffffffffffffffffffffffffffffff1673ffffffffffffffffffffffffffffffffffffffff163373ffffffffffffffffffffffffffffffffffffffff1614614033576040517f08c379a000000000000000000000000000000000000000000000000000000000815260040161402a906154b6565b60405180910390fd5b8060088190555050565b600360009054906101000a900473ffffffffffffffffffffffffffffffffffffffff1673ffffffffffffffffffffffffffffffffffffffff163373ffffffffffffffffffffffffffffffffffffffff16146140cd576040517f08c379a00000000000000000000000000000000000000000000000000000000081526004016140c4906154b6565b60405180910390fd5b60011515600660149054906101000a900460ff16151514614123576040517f08c379a000000000000000000000000000000000000000000000000000000000815260040161411a906155e1565b60405180910390fd5b60011515600c846040516141379190615512565b908152602001604051809103902060000160089054906101000a900460ff16151514614198576040517f08c379a000000000000000000000000000000000000000000000000000000000815260040161418f90615f34565b60405180910390fd5b6103e8600c846040516141ab9190615512565b908152602001604051809103902060000160049054906101000a900463ffffffff1663ffffffff1610614213576040517f08c379a000000000000000000000000000000000000000000000000000000000815260040161420a90615fa0565b60405180910390fd5b6040518060400160405280826fffffffffffffffffffffffffffffffff168152602001836fffffffffffffffffffffffffffffffff16815250600c8460405161425c9190615512565b90815260200160405180910390206001016000600c8660405161427f9190615512565b908152602001604051809103902060000160049054906101000a900463ffffffff1663ffffffff16815260200190815260200160002060008201518160000160006101000a8154816fffffffffffffffffffffffffffffffff02191690836fffffffffffffffffffffffffffffffff16021790555060208201518160000160106101000a8154816fffffffffffffffffffffffffffffffff02191690836fffffffffffffffffffffffffffffffff160217905550905050600c836040516143469190615512565b9081526020016040518091039020600001600481819054906101000a900463ffffffff168092919061437790615d70565b91906101000a81548163ffffffff021916908363ffffffff16021790555050505050565b6040518060400160405280600081526020016000151581525090565b604051806102400160405280600073ffffffffffffffffffffffffffffffffffffffff1681526020016000815260200160008152602001600081526020016000151581526020016000151581526020016060815260200160608152602001606081526020016060815260200160608152602001606081526020016060815260200160608152602001606081526020016000815260200160008152602001600081525090565b82805461446890615bdf565b90600052602060002090601f01602090048101928261448a57600085556144d8565b82601f1061449b57805485556144d8565b828001600101855582156144d857600052602060002091601f016020900482015b828111156144d75782548255916001019190600101906144bc565b5b5090506144e591906145e3565b5090565b8280546144f590615bdf565b90600052602060002090601f016020900481019282614517576000855561455e565b82601f1061453057805160ff191683800117855561455e565b8280016001018555821561455e579182015b8281111561455d578251825591602001919060010190614542565b5b50905061456b91906145e3565b5090565b6040518060800160405280600063ffffffff168152602001600063ffffffff168152602001600015158152602001606081525090565b604051806040016040528060006fffffffffffffffffffffffffffffffff16815260200160006fffffffffffffffffffffffffffffffff1681525090565b5b808211156145fc5760008160009055506001016145e4565b5090565b6000604051905090565b600080fd5b600080fd5b6000819050919050565b61462781614614565b811461463257600080fd5b50565b6000813590506146448161461e565b92915050565b6000602082840312156146605761465f61460a565b5b600061466e84828501614635565b91505092915050565b61468081614614565b82525050565b60008115159050919050565b61469b81614686565b82525050565b6040820160008201516146b76000850182614677565b5060208201516146ca6020850182614692565b50505050565b60006040820190506146e560008301846146a1565b92915050565b600080fd5b600080fd5b6000601f19601f8301169050919050565b7f4e487b7100000000000000000000000000000000000000000000000000000000600052604160045260246000fd5b61473e826146f5565b810181811067ffffffffffffffff8211171561475d5761475c614706565b5b80604052505050565b6000614770614600565b905061477c8282614735565b919050565b600067ffffffffffffffff82111561479c5761479b614706565b5b6147a5826146f5565b9050602081019050919050565b82818337600083830152505050565b60006147d46147cf84614781565b614766565b9050828152602081018484840111156147f0576147ef6146f0565b5b6147fb8482856147b2565b509392505050565b600082601f830112614818576148176146eb565b5b81356148288482602086016147c1565b91505092915050565b600063ffffffff82169050919050565b61484a81614831565b811461485557600080fd5b50565b60008135905061486781614841565b92915050565b600080604083850312156148845761488361460a565b5b600083013567ffffffffffffffff8111156148a2576148a161460f565b5b6148ae85828601614803565b92505060206148bf85828601614858565b9150509250929050565b6000806000606084860312156148e2576148e161460a565b5b60006148f086828701614635565b935050602061490186828701614635565b925050604061491286828701614635565b9150509250925092565b600080604083850312156149335761493261460a565b5b600061494185828601614635565b925050602061495285828601614635565b9150509250929050565b600073ffffffffffffffffffffffffffffffffffffffff82169050919050565b60006149878261495c565b9050919050565b6149978161497c565b81146149a257600080fd5b50565b6000813590506149b48161498e565b92915050565b600080604083850312156149d1576149d061460a565b5b60006149df858286016149a5565b92505060206149f085828601614635565b9150509250929050565b614a0381614686565b82525050565b6000602082019050614a1e60008301846149fa565b92915050565b60008060408385031215614a3b57614a3a61460a565b5b600083013567ffffffffffffffff811115614a5957614a5861460f565b5b614a6585828601614803565b9250506020614a7685828601614635565b9150509250929050565b614a8981614614565b82525050565b6000602082019050614aa46000830184614a80565b92915050565b614ab38161497c565b82525050565b600081519050919050565b600082825260208201905092915050565b6000819050602082019050919050565b6000614af18383614677565b60208301905092915050565b6000602082019050919050565b6000614b1582614ab9565b614b1f8185614ac4565b9350614b2a83614ad5565b8060005b83811015614b5b578151614b428882614ae5565b9750614b4d83614afd565b925050600181019050614b2e565b5085935050505092915050565b600081519050919050565b600082825260208201905092915050565b6000819050602082019050919050565b600081519050919050565b600082825260208201905092915050565b60005b83811015614bce578082015181840152602081019050614bb3565b83811115614bdd576000848401525b50505050565b6000614bee82614b94565b614bf88185614b9f565b9350614c08818560208601614bb0565b614c11816146f5565b840191505092915050565b6000614c288383614be3565b905092915050565b6000602082019050919050565b6000614c4882614b68565b614c528185614b73565b935083602082028501614c6485614b84565b8060005b85811015614ca05784840389528151614c818582614c1c565b9450614c8c83614c30565b925060208a01995050600181019050614c68565b50829750879550505050505092915050565b600061024083016000830151614ccb6000860182614aaa565b506020830151614cde6020860182614677565b506040830151614cf16040860182614677565b506060830151614d046060860182614677565b506080830151614d176080860182614692565b5060a0830151614d2a60a0860182614692565b5060c083015184820360c0860152614d428282614b0a565b91505060e083015184820360e0860152614d5c8282614b0a565b915050610100830151848203610100860152614d788282614b0a565b915050610120830151848203610120860152614d948282614b0a565b915050610140830151848203610140860152614db08282614b0a565b915050610160830151848203610160860152614dcc8282614c3d565b915050610180830151848203610180860152614de88282614b0a565b9150506101a08301518482036101a0860152614e048282614c3d565b9150506101c08301518482036101c0860152614e208282614c3d565b9150506101e0830151614e376101e0860182614677565b50610200830151614e4c610200860182614677565b50610220830151614e61610220860182614677565b508091505092915050565b60006020820190508181036000830152614e868184614cb2565b905092915050565b600060208284031215614ea457614ea361460a565b5b6000614eb2848285016149a5565b91505092915050565b600080fd5b600080fd5b60008083601f840112614edb57614eda6146eb565b5b8235905067ffffffffffffffff811115614ef857614ef7614ebb565b5b602083019150836001820283011115614f1457614f13614ec0565b5b9250929050565b614f2481614686565b8114614f2f57600080fd5b50565b600081359050614f4181614f1b565b92915050565b60008060008060008060008060008060006101408c8e031215614f6d57614f6c61460a565b5b6000614f7b8e828f01614635565b9b50506020614f8c8e828f01614635565b9a50506040614f9d8e828f01614635565b9950506060614fae8e828f01614635565b9850506080614fbf8e828f01614635565b97505060a0614fd08e828f01614635565b96505060c0614fe18e828f01614635565b95505060e08c013567ffffffffffffffff8111156150025761500161460f565b5b61500e8e828f01614ec5565b94509450506101006150228e828f01614f32565b9250506101206150348e828f01614635565b9150509295989b509295989b9093969950565b600080600080600060a086880312156150635761506261460a565b5b600061507188828901614635565b955050602061508288828901614635565b945050604061509388828901614635565b93505060606150a488828901614f32565b92505060806150b588828901614635565b9150509295509295909350565b600080604083850312156150d9576150d861460a565b5b60006150e785828601614635565b92505060206150f8858286016149a5565b9150509250929050565b6000602082840312156151185761511761460a565b5b600082013567ffffffffffffffff8111156151365761513561460f565b5b61514284828501614803565b91505092915050565b61515481614831565b82525050565b600081519050919050565b600082825260208201905092915050565b6000819050602082019050919050565b60006fffffffffffffffffffffffffffffffff82169050919050565b6151ab81615186565b82525050565b6040820160008201516151c760008501826151a2565b5060208201516151da60208501826151a2565b50505050565b60006151ec83836151b1565b60408301905092915050565b6000602082019050919050565b60006152108261515a565b61521a8185615165565b935061522583615176565b8060005b8381101561525657815161523d88826151e0565b9750615248836151f8565b925050600181019050615229565b5085935050505092915050565b600060808301600083015161527b600086018261514b565b50602083015161528e602086018261514b565b5060408301516152a16040860182614692565b50606083015184820360608601526152b98282615205565b9150508091505092915050565b600060208201905081810360008301526152e08184615263565b905092915050565b60008060008060008060008060006101008a8c03121561530b5761530a61460a565b5b60006153198c828d01614635565b995050602061532a8c828d01614635565b985050604061533b8c828d01614635565b975050606061534c8c828d01614635565b965050608061535d8c828d01614635565b95505060a061536e8c828d01614635565b94505060c061537f8c828d01614635565b93505060e08a013567ffffffffffffffff8111156153a05761539f61460f565b5b6153ac8c828d01614ec5565b92509250509295985092959850929598565b6153c781615186565b81146153d257600080fd5b50565b6000813590506153e4816153be565b92915050565b6000806000606084860312156154035761540261460a565b5b600084013567ffffffffffffffff8111156154215761542061460f565b5b61542d86828701614803565b935050602061543e868287016153d5565b925050604061544f868287016153d5565b9150509250925092565b600082825260208201905092915050565b7f4e6f7441646d696e000000000000000000000000000000000000000000000000600082015250565b60006154a0600883615459565b91506154ab8261546a565b602082019050919050565b600060208201905081810360008301526154cf81615493565b9050919050565b600081905092915050565b60006154ec82614b94565b6154f681856154d6565b9350615506818560208601614bb0565b80840191505092915050565b600061551e82846154e1565b915081905092915050565b7f4b65792065786973747300000000000000000000000000000000000000000000600082015250565b600061555f600a83615459565b915061556a82615529565b602082019050919050565b6000602082019050818103600083015261558e81615552565b9050919050565b7f49736e744564697461626c650000000000000000000000000000000000000000600082015250565b60006155cb600c83615459565b91506155d682615595565b602082019050919050565b600060208201905081810360008301526155fa816155be565b9050919050565b7f2e00000000000000000000000000000000000000000000000000000000000000600082015250565b6000615637600183615459565b915061564282615601565b602082019050919050565b600060208201905081810360008301526156668161562a565b9050919050565b7f4e6f745374617274656400000000000000000000000000000000000000000000600082015250565b60006156a3600a83615459565b91506156ae8261566d565b602082019050919050565b600060208201905081810360008301526156d281615696565b9050919050565b7f4e487b7100000000000000000000000000000000000000000000000000000000600052601160045260246000fd5b600061571382614614565b915061571e83614614565b9250817fffffffffffffffffffffffffffffffffffffffffffffffffffffffffffffffff0483118215151615615757576157566156d9565b5b828202905092915050565b600061576d82614614565b915061577883614614565b9250827fffffffffffffffffffffffffffffffffffffffffffffffffffffffffffffffff038211156157ad576157ac6156d9565b5b828201905092915050565b7f4661696c00000000000000000000000000000000000000000000000000000000600082015250565b60006157ee600483615459565b91506157f9826157b8565b602082019050919050565b6000602082019050818103600083015261581d816157e1565b9050919050565b600061582f82614614565b915061583a83614614565b92508282101561584d5761584c6156d9565b5b828203905092915050565b7f4e487b7100000000000000000000000000000000000000000000000000000000600052601260045260246000fd5b600061589282614614565b915061589d83614614565b9250826158ad576158ac615858565b5b828204905092915050565b600067ffffffffffffffff82169050919050565b60006158d7826158b8565b91506158e2836158b8565b92508267ffffffffffffffff038211156158ff576158fe6156d9565b5b828201905092915050565b600061591582614831565b915061592083614831565b92508263ffffffff03821115615939576159386156d9565b5b828201905092915050565b7f4e6f744372656174656400000000000000000000000000000000000000000000600082015250565b600061597a600a83615459565b915061598582615944565b602082019050919050565b600060208201905081810360008301526159a98161596d565b9050919050565b7f416c7265616479496e697469616c697a65640000000000000000000000000000600082015250565b60006159e6601283615459565b91506159f1826159b0565b602082019050919050565b60006020820190508181036000830152615a15816159d9565b9050919050565b7f57726f6e674f776e657200000000000000000000000000000000000000000000600082015250565b6000615a52600a83615459565b9150615a5d82615a1c565b602082019050919050565b60006020820190508181036000830152615a8181615a45565b9050919050565b7f496e76616c6964496e6465780000000000000000000000000000000000000000600082015250565b6000615abe600c83615459565b9150615ac982615a88565b602082019050919050565b60006020820190508181036000830152615aed81615ab1565b9050919050565b6000615aff82614831565b91506000821415615b1357615b126156d9565b5b600182039050919050565b6000615b2982614831565b9150615b3483614831565b925082821015615b4757615b466156d9565b5b828203905092915050565b7f4e487b7100000000000000000000000000000000000000000000000000000000600052602160045260246000fd5b7f4e487b7100000000000000000000000000000000000000000000000000000000600052603260045260246000fd5b7f4e487b7100000000000000000000000000000000000000000000000000000000600052602260045260246000fd5b60006002820490506001821680615bf757607f821691505b60208210811415615c0b57615c0a615bb0565b5b50919050565b6000615c1c82614614565b91507fffffffffffffffffffffffffffffffffffffffffffffffffffffffffffffffff821415615c4f57615c4e6156d9565b5b600182019050919050565b7f5374617274656400000000000000000000000000000000000000000000000000600082015250565b6000615c90600783615459565b9150615c9b82615c5a565b602082019050919050565b60006020820190508181036000830152615cbf81615c83565b9050919050565b6000615cd283856154d6565b9350615cdf8385846147b2565b82840190509392505050565b6000615cf8828486615cc6565b91508190509392505050565b7f536f6c644f757400000000000000000000000000000000000000000000000000600082015250565b6000615d3a600783615459565b9150615d4582615d04565b602082019050919050565b60006020820190508181036000830152615d6981615d2d565b9050919050565b6000615d7b82614831565b915063ffffffff821415615d9257615d916156d9565b5b600182019050919050565b6000615da8826158b8565b9150615db3836158b8565b925082821015615dc657615dc56156d9565b5b828203905092915050565b60008190508160005260206000209050919050565b60008154615df381615bdf565b615dfd81866154d6565b94506001821660008114615e185760018114615e2957615e5c565b60ff19831686528186019350615e5c565b615e3285615dd1565b60005b83811015615e5457815481890152600182019150602081019050615e35565b838801955050505b50505092915050565b6000615e718284615de6565b915081905092915050565b7f4e6f7443697479436f6e74726163740000000000000000000000000000000000600082015250565b6000615eb2600f83615459565b9150615ebd82615e7c565b602082019050919050565b60006020820190508181036000830152615ee181615ea5565b9050919050565b7f43616e744f666665720000000000000000000000000000000000000000000000600082015250565b6000615f1e600983615459565b9150615f2982615ee8565b602082019050919050565b60006020820190508181036000830152615f4d81615f11565b9050919050565b7f4d61784f66666572730000000000000000000000000000000000000000000000600082015250565b6000615f8a600983615459565b9150615f9582615f54565b602082019050919050565b60006020820190508181036000830152615fb981615f7d565b905091905056fea26469706673582212205375aa1608db6df79409010d0d8d6d01576e9c83dd9694a2977f16d7ca202a5764736f6c634300080b0033",
  "immutableReferences": {},
  "source": "// SPDX-License-Identifier: MIT\r\npragma solidity ^0.8.11;\r\n\r\nimport \"../node_modules/@openzeppelin/contracts/access/Ownable.sol\";\r\nimport \"./CityContract.sol\";\r\n\r\ncontract Gameplay {\r\n    // #region Constructor\r\n\r\n    constructor(address _admin, address _nftContractAddress) {\r\n        initStringToType();\r\n        owner = msg.sender;\r\n        admin = _admin;\r\n        nftContractAddress = _nftContractAddress;\r\n        CityContract contr = CityContract(nftContractAddress);\r\n        contr.initGameplayContract(address(this));\r\n    }\r\n\r\n    // #endregion\r\n    // #region Util functions, structs,...\r\n\r\n    enum BuildingTypes {\r\n        Factory,\r\n        Office,\r\n        Restaurant,\r\n        Building,\r\n        House,\r\n        Store,\r\n        SuperMarket,\r\n        Park,\r\n        Gym\r\n    }\r\n\r\n    mapping(string => BuildingTypes) stringToType;\r\n    mapping(BuildingTypes => string) typeToString;\r\n    uint numOfBuildingTypes = 10;\r\n    function initStringToType() private {\r\n        stringToType[\"factory\"] = BuildingTypes.Factory;\r\n        stringToType[\"office\"] = BuildingTypes.Office;\r\n        stringToType[\"restaurant\"] = BuildingTypes.Restaurant;\r\n        stringToType[\"building\"] = BuildingTypes.Building;\r\n        stringToType[\"house\"] = BuildingTypes.House;\r\n        stringToType[\"store\"] = BuildingTypes.Store;\r\n        stringToType[\"supermarket\"] = BuildingTypes.SuperMarket;\r\n        stringToType[\"park\"] = BuildingTypes.Park;\r\n        stringToType[\"gym\"] = BuildingTypes.Gym;\r\n\r\n        typeToString[BuildingTypes.Factory] = \"factory\";\r\n        typeToString[BuildingTypes.Office] = \"office\";\r\n        typeToString[BuildingTypes.Restaurant] = \"restaurant\";\r\n        typeToString[BuildingTypes.Building] = \"building\";\r\n        typeToString[BuildingTypes.House] = \"house\";\r\n        typeToString[BuildingTypes.Store] = \"store\";\r\n        typeToString[BuildingTypes.SuperMarket] = \"supermarket\";\r\n        typeToString[BuildingTypes.Park] = \"park\";\r\n        typeToString[BuildingTypes.Gym] = \"gym\";\r\n    }\r\n    \r\n    struct Building {\r\n        BuildingTypes buildingType;\r\n        uint32 startx;\r\n        uint32 starty;\r\n        uint32 endx;\r\n        uint32 endy;\r\n        uint32 level;\r\n        uint32 orientation;\r\n    } // occupies 1 block of 256 bytes\r\n\r\n    struct SpecialBuilding {\r\n        string specialType;\r\n        uint32 startx;\r\n        uint32 starty;\r\n        uint32 endx;\r\n        uint32 endy;\r\n        uint32 orientation;\r\n    } // occupies 2 block of 256 bytes\r\n\r\n    struct City {\r\n        mapping(uint => Building) buildingList;\r\n        mapping(uint => SpecialBuilding) specialBuildingList;\r\n        mapping(uint => string) specialBuildingCash; // list of special buildings that were aquired through offers\r\n        // string username;\r\n        bool created;\r\n        bool initialized;\r\n        uint32 numOfBuildings;\r\n        uint32 numOfSpecialBuildings;\r\n        uint32 numOfspecialBuildingCash; // number of special buildings aquired through offers\r\n        uint64 money;\r\n        uint32 income;\r\n        uint32 incomesReceived;\r\n        address owner;\r\n    } // occupies ( 4 + numOfBuildings + numOfSpecialBuildings ) blocks of 256 bytes in total\r\n\r\n    // #endregion\r\n    // #region Variables\r\n    address admin;\r\n    address owner;\r\n    uint id = 0;\r\n    address nftContractAddress;\r\n    bool editable = true;\r\n    uint gameStart = 2000000000;\r\n    uint payPeriod = 60; // 1 day = 86400\r\n\r\n    mapping(uint => City) cities; // map (array) containing all the data about the City NFTs\r\n    uint32 startingMoney = 100000; // the amount of in-game money everyone has right after minting\r\n\r\n    mapping(uint => uint) scores;\r\n\r\n    // #endregion\r\n    // #region Special building utils\r\n\r\n    struct SpecialOffer {\r\n        uint128 value; // value of the offer (ingame money)\r\n        uint128 user; // id of the user who made the offer\r\n    }\r\n\r\n    struct SpecialBuildingType {\r\n        uint32 count; // how many can be built\r\n        uint32 numOfOffers;\r\n        bool soldOut; // bool indicating if special building is sold out or not\r\n        mapping(uint => SpecialOffer) offers; // list of offers (not sorted)\r\n    }\r\n    mapping(string => SpecialBuildingType) specialData;\r\n\r\n    /**\r\n     * @dev Funkcija koja u contractu pravi novi tip specijalnih gradjevina\r\n     * @param key je 'kljuc' (string) novog tipa specijalnih gradjevina\r\n     * @param count je broj koliko moze tih gradjevina da se napravi ukupno\r\n     */\r\n    function addSpecialBuildingType(string memory key, uint32 count) external onlyAdmin {\r\n        require(specialData[key].count == 0 && specialData[key].soldOut == false, \"Key exists\");\r\n\r\n        specialData[key].count = count;\r\n        // specialData[key].offers = new SpecialOffer[](0);\r\n        specialData[key].numOfOffers = 0;\r\n    }\r\n\r\n    /**\r\n     * @dev Funkcija koja vraca podatke o nekom tipu specijalnih gradjevina\r\n     * @param key je kljuc tipa\r\n     */\r\n    struct SpecialBuildingTypeRepresentation {\r\n        uint32 count;\r\n        uint32 numOfOffers;\r\n        bool soldOut;\r\n        SpecialOffer[] offers;\r\n    }\r\n    function getSpecialBuildingType(string memory key) external view returns(SpecialBuildingTypeRepresentation memory) {\r\n        SpecialBuildingTypeRepresentation memory r = SpecialBuildingTypeRepresentation({\r\n            count: specialData[key].count,\r\n            numOfOffers: specialData[key].numOfOffers,\r\n            soldOut: specialData[key].soldOut,\r\n            offers: new SpecialOffer[](specialData[key].numOfOffers)\r\n        });\r\n        for(uint i = 0; i < specialData[key].numOfOffers; i++) {\r\n            r.offers[i].value = specialData[key].offers[i].value;\r\n            r.offers[i].user = specialData[key].offers[i].user;\r\n        }\r\n        return r;\r\n    }\r\n\r\n    /**\r\n     * @dev Funkcija koja omogucava serveru da napravi offer\r\n     * @param key je kljuc tipa\r\n     * @param makerId je id grada sa kojeg se pravi offer\r\n     * @param value je cena u ingame novcu koja je predlozena\r\n     */\r\n    function makeSpecialOffer(string memory key, uint128 makerId, uint128 value) external onlyAdmin isEditable {\r\n        require(specialData[key].soldOut == true, \"CantOffer\");\r\n        require(specialData[key].numOfOffers < 1000, 'MaxOffers');\r\n\r\n        specialData[key].offers[specialData[key].numOfOffers] = SpecialOffer({ value: value, user: makerId });\r\n        specialData[key].numOfOffers++;\r\n    }\r\n\r\n    /**\r\n     * @dev Funkcija koja omogucava serveru da ponisti neki offer\r\n     * @param key je kljuc tipa\r\n     * @param index je index offera u listi\r\n     */\r\n    function cancelSpecialOffer(string memory key, uint index) public onlyAdmin isEditable {\r\n        require(index < specialData[key].numOfOffers, 'InvalidIndex');\r\n\r\n        specialData[key].numOfOffers--;\r\n        specialData[key].offers[index] = specialData[key].offers[specialData[key].numOfOffers];\r\n    }\r\n\r\n    // #endregion\r\n    // #region Minting and transfering NFTs\r\n\r\n    /**\r\n     * @dev Function can only be called by the City Contract, it is called when initializing the city and giving it an owner\r\n     * @param tokenId id of the city\r\n     * @param addr is the address of the owner (person who just minted the city)\r\n     */\r\n    function created(uint tokenId, address addr) external {\r\n        require(msg.sender == nftContractAddress, 'NotCityContract');\r\n        cities[tokenId].owner = addr;\r\n        cities[tokenId].created = true;\r\n        id++;\r\n    }\r\n\r\n    /**\r\n     * @dev Function can only be called by the City Cotract, it is called beforeTokenTransfer and reassignes the owner value of the city nft\r\n     * @param tokenId id of the city\r\n     * @param _newOwner is the new owner of the nft with that id\r\n     */\r\n    function newOwner(uint tokenId, address _newOwner) public {\r\n        require(msg.sender == nftContractAddress, 'NotCityContract');\r\n        cities[tokenId].owner = _newOwner;\r\n    }\r\n\r\n    /**\r\n     * @dev Function used for setting the 'initialized' field of a city to true\r\n     * @param tokenId index of the token being initialized\r\n     */\r\n    function initializeCity(\r\n        address _owner,\r\n        uint tokenId\r\n    ) external onlyAdmin isEditable {\r\n        require(cities[tokenId].created == true , \"NotCreated\");\r\n        require(cities[tokenId].initialized == false , \"AlreadyInitialized\");\r\n        require(cities[tokenId].owner == _owner, \"WrongOwner\");\r\n        \r\n        City storage city = cities[tokenId];\r\n        \r\n        city.money = startingMoney;\r\n        city.initialized = true;\r\n        if(gameStart != 2000000000) city.incomesReceived = uint32((block.timestamp - gameStart) / payPeriod);\r\n        else city.incomesReceived = 0;\r\n    }\r\n\r\n    // #endregion\r\n    // #region Changing the cities\r\n    \r\n    /**\r\n     * @dev Function to change the username\r\n     * @dev OVA FUNKCIJA TREBA DA SE PROMENI, NE TREBA MSG.SENDER DA BUDE OWNER GRADA NEGO SAMO DA BUDE FUNKCIJA OZNACENA SA ONLYADMIN!!!\r\n     * @param tokenId id of the nft\r\n     * @param _username new username\r\n     */\r\n    // function changeusername(uint tokenId, string calldata _username) external {\r\n    //     require(msg.sender == cities[tokenId].owner);\r\n\r\n    //     cities[tokenId].username = _username;\r\n    // }\r\n\r\n    /**\r\n     * @dev Function that will change the income of a city - should be called when building, upgrading or deleting something\r\n     * @param tokenId id of the city\r\n     * @param newScore new score\r\n     */\r\n    function changeScore(uint tokenId, uint newScore) external onlyAdmin isEditable {\r\n        scores[tokenId] = newScore;\r\n    }\r\n\r\n    /**\r\n     * @dev Function upgrading a building at the index in the list\r\n     * @param tokenId id of the city\r\n     * @param price the price of upgrading the building\r\n     * @param buildingIndex the index of the building in the list \r\n     */\r\n    function upgradeBuilding(uint tokenId, uint price, uint buildingIndex) external onlyAdmin isEditable {\r\n        cities[tokenId].buildingList[buildingIndex].level += 1;\r\n        cities[tokenId].money = cities[tokenId].money - uint64(price);\r\n    }\r\n\r\n    /**\r\n     * @dev Function adding a new building into the city\r\n     * @param tokenId id of the city\r\n     * @param price of the building\r\n     * @param _startx x starting coordinate\r\n     * @param _starty y starting coordinate\r\n     * @param _endx x ending coordinate\r\n     * @param _endy y ending coordinate\r\n     * @param _orientation the orientation of a building\r\n     * @param _buildingType a string that represents a building type\r\n     */\r\n    function addBuilding(\r\n        uint tokenId,\r\n        uint price,\r\n        uint _startx,\r\n        uint _starty,\r\n        uint _endx,\r\n        uint _endy,\r\n        uint _orientation,\r\n        string calldata _buildingType\r\n    ) external onlyAdmin isEditable {\r\n        City storage city = cities[tokenId];\r\n        city.buildingList[city.numOfBuildings] = Building({\r\n            buildingType: stringToType[_buildingType],\r\n            startx: uint32(_startx),\r\n            starty: uint32(_starty),\r\n            endx: uint32(_endx),\r\n            endy: uint32(_endy),\r\n            level: 0,\r\n            orientation: uint32(_orientation)\r\n        });\r\n        city.numOfBuildings += 1;\r\n        city.money = city.money - uint64(price);\r\n    }\r\n\r\n    /**\r\n     * @dev Function adding a new building into the city\r\n     * @param tokenId id of the city\r\n     * @param price of the building\r\n     * @param _startx x starting coordinate\r\n     * @param _starty y starting coordinate\r\n     * @param _endx x ending coordinate\r\n     * @param _endy y ending coordinate\r\n     * @param _specialType a string that represents a building type\r\n     * @param _orientation the orientation of a building\r\n     * @param throughOffer is true if buying through an offer and false if buying normaly\r\n     * @param cashIndex is the index of the special building in the cash that is built\r\n     */\r\n    function addSpecialBuilding(\r\n        uint tokenId,\r\n        uint price,\r\n        uint _startx,\r\n        uint _starty,\r\n        uint _endx,\r\n        uint _endy,\r\n        uint _orientation,\r\n        string calldata _specialType,\r\n        bool throughOffer,\r\n        uint cashIndex\r\n    ) external onlyAdmin isEditable {\r\n        require(throughOffer == true || specialData[_specialType].count > 0, 'SoldOut');\r\n\r\n        City storage city = cities[tokenId];\r\n\r\n        if(throughOffer == false) {\r\n            specialData[_specialType].count--; // decreasing the number of special buildings left to build\r\n        }\r\n        else {\r\n            city.numOfspecialBuildingCash--; // decreasing the num of special buildings cashed for that player\r\n            city.specialBuildingCash[cashIndex] = city.specialBuildingCash[city.numOfspecialBuildingCash]; // moving the last element to the index of the deleted element\r\n        }\r\n        \r\n        city.specialBuildingList[city.numOfSpecialBuildings] = SpecialBuilding({\r\n            specialType: _specialType,\r\n            startx: uint32(_startx),\r\n            starty: uint32(_starty),\r\n            endx: uint32(_endx),\r\n            endy: uint32(_endy),\r\n            orientation: uint32(_orientation)\r\n        });\r\n        city.numOfSpecialBuildings++;\r\n        city.money = city.money - uint64(price);\r\n    }\r\n\r\n    /**\r\n     * @dev Function used for removing a building from a city\r\n     * @param tokenId id of the city\r\n     * @param value that will be refunded for selling/removing a building from the city\r\n     * @param buildingIndex is the index of the building in the list\r\n     */\r\n    function removeBuilding(uint tokenId, uint value, uint buildingIndex) external onlyAdmin isEditable {\r\n        // curr building getting values from last building in the list\r\n        \r\n        cities[tokenId].numOfBuildings = cities[tokenId].numOfBuildings - 1;\r\n\r\n        cities[tokenId].buildingList[buildingIndex].buildingType = cities[tokenId].buildingList[cities[tokenId].numOfBuildings].buildingType;\r\n        cities[tokenId].buildingList[buildingIndex].startx       = cities[tokenId].buildingList[cities[tokenId].numOfBuildings].startx;\r\n        cities[tokenId].buildingList[buildingIndex].starty       = cities[tokenId].buildingList[cities[tokenId].numOfBuildings].starty;\r\n        cities[tokenId].buildingList[buildingIndex].endx         = cities[tokenId].buildingList[cities[tokenId].numOfBuildings].endx;\r\n        cities[tokenId].buildingList[buildingIndex].endy         = cities[tokenId].buildingList[cities[tokenId].numOfBuildings].endy;\r\n        cities[tokenId].buildingList[buildingIndex].level        = cities[tokenId].buildingList[cities[tokenId].numOfBuildings].level;\r\n        cities[tokenId].buildingList[buildingIndex].orientation  = cities[tokenId].buildingList[cities[tokenId].numOfBuildings].orientation;\r\n        \r\n        // cities[tokenId].buildingList[buildingIndex] = cities[tokenId].buildingList[cities[tokenId].numOfBuildings];\r\n\r\n        cities[tokenId].money = cities[tokenId].money + uint64(value);\r\n    }\r\n    \r\n    /**\r\n     * @dev Function used for removing a building from a city\r\n     * @param tokenId id of the city\r\n     * @param value that will be refunded for selling/removing a building from the city\r\n     * @param buildingIndex is the index of the building in the list\r\n     * @param throughOffer is true if selling through an offer and false if selling normaly\r\n     * @param buyerId is the ID of the city that made the offer\r\n     */\r\n    function removeSpecialBuilding(uint tokenId, uint value, uint buildingIndex, bool throughOffer, uint buyerId) external onlyAdmin isEditable {\r\n\r\n        City storage city = cities[tokenId];\r\n\r\n        if(throughOffer == false) {\r\n            specialData[city.specialBuildingList[buildingIndex].specialType].count++;\r\n        }\r\n        else {\r\n            cities[buyerId].specialBuildingCash[cities[buyerId].numOfspecialBuildingCash] = city.specialBuildingList[buildingIndex].specialType; // adding a special building to the cash list of the city to who it was sold\r\n            cities[buyerId].numOfspecialBuildingCash++; // increasing the num of special buildings cashed for that player\r\n        }\r\n\r\n        city.numOfSpecialBuildings = city.numOfSpecialBuildings - 1;\r\n\r\n        // curr building getting values from last building in the list\r\n        city.specialBuildingList[buildingIndex].specialType = city.specialBuildingList[city.numOfSpecialBuildings].specialType;\r\n        city.specialBuildingList[buildingIndex].startx      = city.specialBuildingList[city.numOfSpecialBuildings].startx;\r\n        city.specialBuildingList[buildingIndex].starty      = city.specialBuildingList[city.numOfSpecialBuildings].starty;\r\n        city.specialBuildingList[buildingIndex].endx        = city.specialBuildingList[city.numOfSpecialBuildings].endx;\r\n        city.specialBuildingList[buildingIndex].endy        = city.specialBuildingList[city.numOfSpecialBuildings].endy;\r\n        city.specialBuildingList[buildingIndex].orientation = city.specialBuildingList[city.numOfSpecialBuildings].orientation;\r\n\r\n        city.money = city.money + uint64(value);\r\n    }\r\n\r\n    /**\r\n     * @dev Function for rotating a building\r\n     * @param tokenId the id of the city\r\n     * @param buildingIndex index of the building in the list\r\n     * @param _orientation the new orientation of the building\r\n     */\r\n    function rotate(uint tokenId, uint buildingIndex, uint _orientation) external onlyAdmin isEditable {\r\n        cities[tokenId].buildingList[buildingIndex].orientation = uint32(_orientation);\r\n    }\r\n\r\n    /**\r\n     * @dev Function for rotating a building\r\n     * @param tokenId the id of the city\r\n     * @param buildingIndex index of the building in the list\r\n     * @param _orientation the new orientation of the building\r\n     */\r\n    function rotateSpecial(uint tokenId, uint buildingIndex, uint _orientation) external onlyAdmin isEditable {\r\n        cities[tokenId].specialBuildingList[buildingIndex].orientation = uint32(_orientation);\r\n    }\r\n\r\n    /**\r\n     * @dev Function that starts the game, income will begin to be calculated and received (this happens by chaning the 'gameStart' value to current block.timestamp and setting at 'lastPay' for all cities)\r\n     */\r\n    function startGameIncome() external onlyAdmin isEditable {\r\n        require(gameStart == 2000000000, \"Started\");\r\n        gameStart = block.timestamp;\r\n        uint i = 0;\r\n        while(cities[i].owner != address(0)) {\r\n            cities[i].incomesReceived = 0;\r\n            i++;\r\n        }\r\n    }\r\n\r\n    /**\r\n     * @dev Function getting the income for a city if conditions are met\r\n     * @param tokenId id of the city\r\n     * @param income the income of the city\r\n     */\r\n     // should receive how much is the income\r\n    function getIncome(uint tokenId, uint income) external onlyAdmin isEditable {\r\n        require(block.timestamp > gameStart, \"NotStarted\");\r\n        require(block.timestamp > cities[tokenId].incomesReceived * payPeriod + gameStart, \"Fail\");\r\n\r\n        uint n = (block.timestamp - gameStart) / payPeriod - cities[tokenId].incomesReceived;\r\n        cities[tokenId].money += uint32(n * income);\r\n        cities[tokenId].incomesReceived += uint32(n);\r\n    }\r\n\r\n    // #endregion\r\n    // #region Getting data from the contract\r\n\r\n    /**\r\n     * @dev Function returns true if the cities are editable, and false if they are not\r\n     */\r\n    function getEditableState() external view returns(bool) {\r\n        return editable;\r\n    }\r\n\r\n    struct CityRepresentation {\r\n        address owner;\r\n        uint numOfBuildings;\r\n        uint numOfSpecialBuildings;\r\n        uint numOfSpecialBuildingCash;\r\n        // string username;\r\n        bool created;\r\n        bool initialized;\r\n        uint[] startx;\r\n        uint[] starty;\r\n        uint[] endx;\r\n        uint[] endy;\r\n        uint[] orientation;\r\n        string[] buildingType;\r\n        uint[] level;\r\n        string[] specialType;\r\n        string[] specialBuildingCash;\r\n        uint money;\r\n        uint income;\r\n        uint incomesReceived;\r\n    } // this is a struct used for returning values from the blockchain\r\n    function getCityData(uint tokenId) external view returns(CityRepresentation memory) {\r\n        City storage city = cities[tokenId];\r\n        uint numOfBuildings = city.numOfBuildings;\r\n        uint numOfSpecialBuildings  = city.numOfSpecialBuildings;\r\n        uint numOfSpecialBuildingCash = city.numOfspecialBuildingCash;\r\n        CityRepresentation memory r = CityRepresentation({\r\n            owner: city.owner,\r\n            numOfBuildings: numOfBuildings,\r\n            numOfSpecialBuildings: numOfSpecialBuildings,\r\n            numOfSpecialBuildingCash: numOfSpecialBuildingCash,\r\n            // username: city.username,\r\n            created: city.created,\r\n            initialized: city.initialized,\r\n            startx: new uint[](numOfBuildings + numOfSpecialBuildings),\r\n            starty: new uint[](numOfBuildings + numOfSpecialBuildings),\r\n            endx: new uint[](numOfBuildings + numOfSpecialBuildings),\r\n            endy: new uint[](numOfBuildings + numOfSpecialBuildings),\r\n            orientation: new uint[](numOfBuildings + numOfSpecialBuildings),\r\n            buildingType: new string[](numOfBuildings),\r\n            level: new uint[](numOfBuildings),\r\n            specialType: new string[](numOfSpecialBuildings),\r\n            specialBuildingCash: new string[](numOfSpecialBuildingCash),\r\n            money: city.money,\r\n            income: city.income,\r\n            incomesReceived: (gameStart == 2000000000) ? 0 : city.incomesReceived\r\n        });\r\n        for(uint i = 0; i < numOfBuildings; i++) {  \r\n            r.startx[i] = city.buildingList[i].startx;\r\n            r.starty[i] = city.buildingList[i].starty;\r\n            r.endx[i] = city.buildingList[i].endx;\r\n            r.endy[i] = city.buildingList[i].endy;\r\n            r.orientation[i] = city.buildingList[i].orientation;\r\n            r.buildingType[i] = typeToString[city.buildingList[i].buildingType];\r\n            r.level[i] = city.buildingList[i].level;\r\n        }\r\n        for(uint i = numOfBuildings; i < numOfSpecialBuildings + numOfBuildings; i++) {\r\n            r.startx[i] = city.specialBuildingList[i-numOfBuildings].startx;\r\n            r.starty[i] = city.specialBuildingList[i-numOfBuildings].starty;\r\n            r.endx[i] = city.specialBuildingList[i-numOfBuildings].endx;\r\n            r.endy[i] = city.specialBuildingList[i-numOfBuildings].endy;\r\n            r.orientation[i] = city.specialBuildingList[i-numOfBuildings].orientation;\r\n            r.specialType[i-numOfBuildings] = city.specialBuildingList[i-numOfBuildings].specialType;\r\n        }\r\n        for(uint i = 0; i < numOfSpecialBuildingCash; i++) {\r\n            r.specialBuildingCash[i] = city.specialBuildingCash[i];\r\n        }\r\n        return r;\r\n    } // returns a struct with all the data about the city with the 'tokenId' ID\r\n\r\n    function getNumOfPlayers() external view returns(uint) {\r\n        return id;\r\n    }\r\n\r\n\r\n    struct Score {\r\n        uint score;\r\n        bool initialized;\r\n    }\r\n    // returns an array of indices that correspod to the IDs of the sorted cities\r\n    function getScore(uint tokenId) external view returns(Score memory) {\r\n        Score memory r = Score({score: scores[tokenId], initialized: cities[tokenId].initialized});\r\n        return r;\r\n    } \r\n\r\n    // #endregion\r\n    // #region Modifiers and other functions\r\n\r\n    // // returns the timestamp from the blockchain\r\n    // function getBlockchainTime() external view returns(uint) {\r\n    //     return block.timestamp;\r\n    // }\r\n\r\n    // changes the time required to pass to receive income\r\n    function changePayPeriod(uint _payPeriod) external onlyAdmin {\r\n        payPeriod = _payPeriod;\r\n    }\r\n\r\n    // modifier is used to check if the person who called the function is the Admin\r\n    modifier onlyAdmin() {\r\n        require(msg.sender == admin, 'NotAdmin');\r\n        _;\r\n    }\r\n\r\n    // function that can change the Admin address in case a proble occurs - can be calles only by the owner\r\n    function changeAdmin(address newAdmin) external {\r\n        require(msg.sender == owner, '.');\r\n        admin = newAdmin;\r\n    }\r\n\r\n    // modifier is used to check if the cities can be edited - they won't be editable only if a major problem occurs\r\n    modifier isEditable() {\r\n        require(editable == true, 'IsntEditable');\r\n        _;\r\n    }\r\n\r\n    // function is called to restrict editing data on the blockchain\r\n    function flipEditableState() public {\r\n        require(msg.sender == owner, '.');\r\n        editable = !editable;\r\n    }\r\n\r\n    // #endregion\r\n    // #region Dev options\r\n\r\n    function devSetMoney(uint tokenId, uint _money) external onlyAdmin {\r\n        cities[tokenId].money = uint64(_money);\r\n    }\r\n\r\n    // City gone, reduced to atoms...\r\n    function devDemolishCity(uint tokenId) external onlyAdmin {\r\n        cities[tokenId].numOfBuildings = 0;\r\n        cities[tokenId].numOfSpecialBuildings = 0;\r\n    }\r\n\r\n    // #endregion\r\n\r\n    // #region Achievements\r\n\r\n    // struct Achievement {\r\n    //     uint max; // max number of people who can get the reward for the achievement\r\n    //     uint start; // unix time\r\n    //     uint end; // unix time\r\n    //     string reward; // shows WHAT is the reward\r\n    //     uint amound; // show HOW MUCH is rewarded\r\n    // }\r\n\r\n    // uint numOfAchievements = 0;\r\n    // mapping(uint => Achievement) achievements;\r\n\r\n    // #endregion\r\n}",
  "sourcePath": "C:\\Users\\Dario Vajda\\OneDrive\\Documents\\nft\\smart_contracts\\contracts\\Gameplay.sol",
  "compiler": {
    "name": "solc",
    "version": "0.8.11+commit.d7f03943.Emscripten.clang"
  },
  "schemaVersion": "3.4.4",
  "updatedAt": "2022-07-01T13:28:57.340Z",
  "devdoc": {
    "kind": "dev",
    "methods": {
      "addBuilding(uint256,uint256,uint256,uint256,uint256,uint256,uint256,string)": {
        "details": "Function adding a new building into the city",
        "params": {
          "_buildingType": "a string that represents a building type",
          "_endx": "x ending coordinate",
          "_endy": "y ending coordinate",
          "_orientation": "the orientation of a building",
          "_startx": "x starting coordinate",
          "_starty": "y starting coordinate",
          "price": "of the building",
          "tokenId": "id of the city"
        }
      },
      "addSpecialBuilding(uint256,uint256,uint256,uint256,uint256,uint256,uint256,string,bool,uint256)": {
        "details": "Function adding a new building into the city",
        "params": {
          "_endx": "x ending coordinate",
          "_endy": "y ending coordinate",
          "_orientation": "the orientation of a building",
          "_specialType": "a string that represents a building type",
          "_startx": "x starting coordinate",
          "_starty": "y starting coordinate",
          "cashIndex": "is the index of the special building in the cash that is built",
          "price": "of the building",
          "throughOffer": "is true if buying through an offer and false if buying normaly",
          "tokenId": "id of the city"
        }
      },
      "addSpecialBuildingType(string,uint32)": {
        "details": "Funkcija koja u contractu pravi novi tip specijalnih gradjevina",
        "params": {
          "count": "je broj koliko moze tih gradjevina da se napravi ukupno",
          "key": "je 'kljuc' (string) novog tipa specijalnih gradjevina"
        }
      },
      "cancelSpecialOffer(string,uint256)": {
        "details": "Funkcija koja omogucava serveru da ponisti neki offer",
        "params": {
          "index": "je index offera u listi",
          "key": "je kljuc tipa"
        }
      },
      "changeScore(uint256,uint256)": {
        "details": "Function that will change the income of a city - should be called when building, upgrading or deleting something",
        "params": {
          "newScore": "new score",
          "tokenId": "id of the city"
        }
      },
      "created(uint256,address)": {
        "details": "Function can only be called by the City Contract, it is called when initializing the city and giving it an owner",
        "params": {
          "addr": "is the address of the owner (person who just minted the city)",
          "tokenId": "id of the city"
        }
      },
      "getEditableState()": {
        "details": "Function returns true if the cities are editable, and false if they are not"
      },
      "getIncome(uint256,uint256)": {
        "details": "Function getting the income for a city if conditions are met",
        "params": {
          "income": "the income of the city",
          "tokenId": "id of the city"
        }
      },
      "initializeCity(address,uint256)": {
        "details": "Function used for setting the 'initialized' field of a city to true",
        "params": {
          "tokenId": "index of the token being initialized"
        }
      },
      "makeSpecialOffer(string,uint128,uint128)": {
        "details": "Funkcija koja omogucava serveru da napravi offer",
        "params": {
          "key": "je kljuc tipa",
          "makerId": "je id grada sa kojeg se pravi offer",
          "value": "je cena u ingame novcu koja je predlozena"
        }
      },
      "newOwner(uint256,address)": {
        "details": "Function can only be called by the City Cotract, it is called beforeTokenTransfer and reassignes the owner value of the city nft",
        "params": {
          "_newOwner": "is the new owner of the nft with that id",
          "tokenId": "id of the city"
        }
      },
      "removeBuilding(uint256,uint256,uint256)": {
        "details": "Function used for removing a building from a city",
        "params": {
          "buildingIndex": "is the index of the building in the list",
          "tokenId": "id of the city",
          "value": "that will be refunded for selling/removing a building from the city"
        }
      },
      "removeSpecialBuilding(uint256,uint256,uint256,bool,uint256)": {
        "details": "Function used for removing a building from a city",
        "params": {
          "buildingIndex": "is the index of the building in the list",
          "buyerId": "is the ID of the city that made the offer",
          "throughOffer": "is true if selling through an offer and false if selling normaly",
          "tokenId": "id of the city",
          "value": "that will be refunded for selling/removing a building from the city"
        }
      },
      "rotate(uint256,uint256,uint256)": {
        "details": "Function for rotating a building",
        "params": {
          "_orientation": "the new orientation of the building",
          "buildingIndex": "index of the building in the list",
          "tokenId": "the id of the city"
        }
      },
      "rotateSpecial(uint256,uint256,uint256)": {
        "details": "Function for rotating a building",
        "params": {
          "_orientation": "the new orientation of the building",
          "buildingIndex": "index of the building in the list",
          "tokenId": "the id of the city"
        }
      },
      "startGameIncome()": {
        "details": "Function that starts the game, income will begin to be calculated and received (this happens by chaning the 'gameStart' value to current block.timestamp and setting at 'lastPay' for all cities)"
      },
      "upgradeBuilding(uint256,uint256,uint256)": {
        "details": "Function upgrading a building at the index in the list",
        "params": {
          "buildingIndex": "the index of the building in the list ",
          "price": "the price of upgrading the building",
          "tokenId": "id of the city"
        }
      }
    },
    "version": 1
  },
  "userdoc": {
    "kind": "user",
    "methods": {},
    "version": 1
  }
}