{
  "contractName": "Gameplay",
  "abi": [
    {
      "inputs": [
        {
          "internalType": "address",
          "name": "_admin",
          "type": "address"
        },
        {
          "internalType": "address",
          "name": "_nftContractAddress",
          "type": "address"
        }
      ],
      "stateMutability": "nonpayable",
      "type": "constructor"
    },
    {
      "anonymous": false,
      "inputs": [
        {
          "indexed": true,
          "internalType": "address",
          "name": "previousOwner",
          "type": "address"
        },
        {
          "indexed": true,
          "internalType": "address",
          "name": "newOwner",
          "type": "address"
        }
      ],
      "name": "OwnershipTransferred",
      "type": "event"
    },
    {
      "inputs": [],
      "name": "owner",
      "outputs": [
        {
          "internalType": "address",
          "name": "",
          "type": "address"
        }
      ],
      "stateMutability": "view",
      "type": "function"
    },
    {
      "inputs": [],
      "name": "renounceOwnership",
      "outputs": [],
      "stateMutability": "nonpayable",
      "type": "function"
    },
    {
      "inputs": [
        {
          "internalType": "address",
          "name": "newOwner",
          "type": "address"
        }
      ],
      "name": "transferOwnership",
      "outputs": [],
      "stateMutability": "nonpayable",
      "type": "function"
    },
    {
      "inputs": [
        {
          "internalType": "uint256",
          "name": "tokenId",
          "type": "uint256"
        },
        {
          "internalType": "address",
          "name": "addr",
          "type": "address"
        }
      ],
      "name": "created",
      "outputs": [],
      "stateMutability": "nonpayable",
      "type": "function"
    },
    {
      "inputs": [
        {
          "internalType": "uint256",
          "name": "tokenId",
          "type": "uint256"
        },
        {
          "internalType": "address",
          "name": "_newOwner",
          "type": "address"
        }
      ],
      "name": "newOwner",
      "outputs": [],
      "stateMutability": "nonpayable",
      "type": "function"
    },
    {
      "inputs": [
        {
          "internalType": "address",
          "name": "owner",
          "type": "address"
        },
        {
          "internalType": "uint256",
          "name": "tokenId",
          "type": "uint256"
        },
        {
          "internalType": "uint256",
          "name": "numOfBuildings",
          "type": "uint256"
        },
        {
          "internalType": "uint256",
          "name": "numOfSpecialBuildings",
          "type": "uint256"
        },
        {
          "internalType": "uint256[]",
          "name": "startx",
          "type": "uint256[]"
        },
        {
          "internalType": "uint256[]",
          "name": "starty",
          "type": "uint256[]"
        },
        {
          "internalType": "uint256[]",
          "name": "endx",
          "type": "uint256[]"
        },
        {
          "internalType": "uint256[]",
          "name": "endy",
          "type": "uint256[]"
        },
        {
          "internalType": "string[]",
          "name": "buildingType",
          "type": "string[]"
        },
        {
          "internalType": "string[]",
          "name": "specialType",
          "type": "string[]"
        },
        {
          "internalType": "uint256",
          "name": "income",
          "type": "uint256"
        }
      ],
      "name": "initializeCity",
      "outputs": [],
      "stateMutability": "nonpayable",
      "type": "function"
    },
    {
      "inputs": [
        {
          "internalType": "uint256",
          "name": "tokenId",
          "type": "uint256"
        },
        {
          "internalType": "uint256",
          "name": "price",
          "type": "uint256"
        },
        {
          "internalType": "uint256",
          "name": "buildingIndex",
          "type": "uint256"
        },
        {
          "internalType": "uint256",
          "name": "newIncome",
          "type": "uint256"
        }
      ],
      "name": "upgradeBuilding",
      "outputs": [],
      "stateMutability": "nonpayable",
      "type": "function"
    },
    {
      "inputs": [
        {
          "internalType": "uint256",
          "name": "tokenId",
          "type": "uint256"
        },
        {
          "internalType": "uint256",
          "name": "price",
          "type": "uint256"
        },
        {
          "internalType": "uint256",
          "name": "_startx",
          "type": "uint256"
        },
        {
          "internalType": "uint256",
          "name": "_starty",
          "type": "uint256"
        },
        {
          "internalType": "uint256",
          "name": "_endx",
          "type": "uint256"
        },
        {
          "internalType": "uint256",
          "name": "_endy",
          "type": "uint256"
        },
        {
          "internalType": "string",
          "name": "_buildingType",
          "type": "string"
        },
        {
          "internalType": "uint256",
          "name": "newIncome",
          "type": "uint256"
        }
      ],
      "name": "addBuilding",
      "outputs": [],
      "stateMutability": "nonpayable",
      "type": "function"
    },
    {
      "inputs": [
        {
          "internalType": "uint256",
          "name": "tokenId",
          "type": "uint256"
        },
        {
          "internalType": "uint256",
          "name": "price",
          "type": "uint256"
        },
        {
          "internalType": "uint256",
          "name": "_startx",
          "type": "uint256"
        },
        {
          "internalType": "uint256",
          "name": "_starty",
          "type": "uint256"
        },
        {
          "internalType": "uint256",
          "name": "_endx",
          "type": "uint256"
        },
        {
          "internalType": "uint256",
          "name": "_endy",
          "type": "uint256"
        },
        {
          "internalType": "string",
          "name": "_specialType",
          "type": "string"
        }
      ],
      "name": "addSpecialBuilding",
      "outputs": [],
      "stateMutability": "nonpayable",
      "type": "function"
    },
    {
      "inputs": [],
      "name": "startGameIncome",
      "outputs": [],
      "stateMutability": "nonpayable",
      "type": "function"
    },
    {
      "inputs": [
        {
          "internalType": "uint256",
          "name": "tokenId",
          "type": "uint256"
        }
      ],
      "name": "getIncome",
      "outputs": [],
      "stateMutability": "nonpayable",
      "type": "function"
    },
    {
      "inputs": [],
      "name": "getEditableState",
      "outputs": [
        {
          "internalType": "bool",
          "name": "",
          "type": "bool"
        }
      ],
      "stateMutability": "view",
      "type": "function"
    },
    {
      "inputs": [
        {
          "internalType": "uint256",
          "name": "tokenId",
          "type": "uint256"
        }
      ],
      "name": "getCityData",
      "outputs": [
        {
          "components": [
            {
              "internalType": "address",
              "name": "owner",
              "type": "address"
            },
            {
              "internalType": "uint256",
              "name": "numOfBuildings",
              "type": "uint256"
            },
            {
              "internalType": "uint256",
              "name": "numOfSpecialBuildings",
              "type": "uint256"
            },
            {
              "internalType": "uint256[]",
              "name": "startx",
              "type": "uint256[]"
            },
            {
              "internalType": "uint256[]",
              "name": "starty",
              "type": "uint256[]"
            },
            {
              "internalType": "uint256[]",
              "name": "endx",
              "type": "uint256[]"
            },
            {
              "internalType": "uint256[]",
              "name": "endy",
              "type": "uint256[]"
            },
            {
              "internalType": "string[]",
              "name": "buildingType",
              "type": "string[]"
            },
            {
              "internalType": "uint256[]",
              "name": "level",
              "type": "uint256[]"
            },
            {
              "internalType": "string[]",
              "name": "specialType",
              "type": "string[]"
            },
            {
              "internalType": "uint256",
              "name": "money",
              "type": "uint256"
            },
            {
              "internalType": "uint256",
              "name": "income",
              "type": "uint256"
            },
            {
              "internalType": "uint256",
              "name": "lastPay",
              "type": "uint256"
            }
          ],
          "internalType": "struct Gameplay.CityRepresentation",
          "name": "",
          "type": "tuple"
        }
      ],
      "stateMutability": "view",
      "type": "function"
    },
    {
      "inputs": [],
      "name": "getTree",
      "outputs": [
        {
          "components": [
            {
              "internalType": "uint256",
              "name": "value",
              "type": "uint256"
            },
            {
              "internalType": "uint256",
              "name": "id",
              "type": "uint256"
            },
            {
              "internalType": "uint256",
              "name": "left",
              "type": "uint256"
            },
            {
              "internalType": "uint256",
              "name": "right",
              "type": "uint256"
            },
            {
              "internalType": "uint256",
              "name": "height",
              "type": "uint256"
            }
          ],
          "internalType": "struct BST.Node[]",
          "name": "",
          "type": "tuple[]"
        }
      ],
      "stateMutability": "view",
      "type": "function"
    },
    {
      "inputs": [],
      "name": "getBlockchainTime",
      "outputs": [
        {
          "internalType": "uint256",
          "name": "",
          "type": "uint256"
        }
      ],
      "stateMutability": "view",
      "type": "function"
    },
    {
      "inputs": [
        {
          "internalType": "uint256",
          "name": "_payPeriod",
          "type": "uint256"
        }
      ],
      "name": "changePayPeriod",
      "outputs": [],
      "stateMutability": "nonpayable",
      "type": "function"
    },
    {
      "inputs": [
        {
          "internalType": "address",
          "name": "newAdmin",
          "type": "address"
        }
      ],
      "name": "changeAdmin",
      "outputs": [],
      "stateMutability": "nonpayable",
      "type": "function"
    },
    {
      "inputs": [],
      "name": "flipEditableState",
      "outputs": [],
      "stateMutability": "nonpayable",
      "type": "function"
    }
  ],
  "bytecode": "0x6080604052600a6003556001600560146101000a81548160ff02191690831515021790555063773594006006556078600755620186a0600960006101000a81548167ffffffffffffffff021916908367ffffffffffffffff160217905550612710600b556000600c553480156200007557600080fd5b5060405162005c7c38038062005c7c83398181016040528101906200009b919062000b45565b620000bb620000af620001ec60201b60201c565b620001f460201b60201c565b620000cb620002b860201b60201c565b81600460006101000a81548173ffffffffffffffffffffffffffffffffffffffff021916908373ffffffffffffffffffffffffffffffffffffffff16021790555080600560006101000a81548173ffffffffffffffffffffffffffffffffffffffff021916908373ffffffffffffffffffffffffffffffffffffffff1602179055506000600560009054906101000a900473ffffffffffffffffffffffffffffffffffffffff1690508073ffffffffffffffffffffffffffffffffffffffff1663ce5bc7a6306040518263ffffffff1660e01b8152600401620001af919062000b9d565b600060405180830381600087803b158015620001ca57600080fd5b505af1158015620001df573d6000803e3d6000fd5b5050505050505062000ff8565b600033905090565b60008060009054906101000a900473ffffffffffffffffffffffffffffffffffffffff169050816000806101000a81548173ffffffffffffffffffffffffffffffffffffffff021916908373ffffffffffffffffffffffffffffffffffffffff1602179055508173ffffffffffffffffffffffffffffffffffffffff168173ffffffffffffffffffffffffffffffffffffffff167f8be0079c531659141344cd1fd0a4f28419497f9722a3daafe3b4186f6b6457e060405160405180910390a35050565b60006001604051620002ca9062000c15565b908152602001604051809103902060006101000a81548160ff02191690836008811115620002fd57620002fc62000c2c565b5b0217905550600180604051620003139062000cab565b908152602001604051809103902060006101000a81548160ff0219169083600881111562000346576200034562000c2c565b5b0217905550600260016040516200035d9062000d12565b908152602001604051809103902060006101000a81548160ff0219169083600881111562000390576200038f62000c2c565b5b021790555060036001604051620003a79062000d79565b908152602001604051809103902060006101000a81548160ff02191690836008811115620003da57620003d962000c2c565b5b021790555060046001604051620003f19062000de0565b908152602001604051809103902060006101000a81548160ff0219169083600881111562000424576200042362000c2c565b5b0217905550600560016040516200043b9062000e47565b908152602001604051809103902060006101000a81548160ff021916908360088111156200046e576200046d62000c2c565b5b021790555060066001604051620004859062000eae565b908152602001604051809103902060006101000a81548160ff02191690836008811115620004b857620004b762000c2c565b5b021790555060076001604051620004cf9062000f15565b908152602001604051809103902060006101000a81548160ff0219169083600881111562000502576200050162000c2c565b5b021790555060086001604051620005199062000f7c565b908152602001604051809103902060006101000a81548160ff021916908360088111156200054c576200054b62000c2c565b5b02179055506040518060400160405280600781526020017f666163746f72790000000000000000000000000000000000000000000000000081525060026000806008811115620005a157620005a062000c2c565b5b6008811115620005b657620005b562000c2c565b5b81526020019081526020016000209080519060200190620005d992919062000a2b565b506040518060400160405280600681526020017f6f6666696365000000000000000000000000000000000000000000000000000081525060026000600160088111156200062b576200062a62000c2c565b5b600881111562000640576200063f62000c2c565b5b815260200190815260200160002090805190602001906200066392919062000a2b565b506040518060400160405280600a81526020017f72657374617572616e74000000000000000000000000000000000000000000008152506002600060026008811115620006b557620006b462000c2c565b5b6008811115620006ca57620006c962000c2c565b5b81526020019081526020016000209080519060200190620006ed92919062000a2b565b506040518060400160405280600881526020017f6275696c64696e6700000000000000000000000000000000000000000000000081525060026000600360088111156200073f576200073e62000c2c565b5b600881111562000754576200075362000c2c565b5b815260200190815260200160002090805190602001906200077792919062000a2b565b506040518060400160405280600581526020017f686f7573650000000000000000000000000000000000000000000000000000008152506002600060046008811115620007c957620007c862000c2c565b5b6008811115620007de57620007dd62000c2c565b5b815260200190815260200160002090805190602001906200080192919062000a2b565b506040518060400160405280600581526020017f73746f7265000000000000000000000000000000000000000000000000000000815250600260006005600881111562000853576200085262000c2c565b5b600881111562000868576200086762000c2c565b5b815260200190815260200160002090805190602001906200088b92919062000a2b565b506040518060400160405280600b81526020017f73757065724d61726b65740000000000000000000000000000000000000000008152506002600060066008811115620008dd57620008dc62000c2c565b5b6008811115620008f257620008f162000c2c565b5b815260200190815260200160002090805190602001906200091592919062000a2b565b506040518060400160405280600481526020017f7061726b00000000000000000000000000000000000000000000000000000000815250600260006007600881111562000967576200096662000c2c565b5b60088111156200097c576200097b62000c2c565b5b815260200190815260200160002090805190602001906200099f92919062000a2b565b506040518060400160405280600381526020017f67796d000000000000000000000000000000000000000000000000000000000081525060026000600880811115620009f057620009ef62000c2c565b5b600881111562000a055762000a0462000c2c565b5b8152602001908152602001600020908051906020019062000a2892919062000a2b565b50565b82805462000a399062000fc2565b90600052602060002090601f01602090048101928262000a5d576000855562000aa9565b82601f1062000a7857805160ff191683800117855562000aa9565b8280016001018555821562000aa9579182015b8281111562000aa857825182559160200191906001019062000a8b565b5b50905062000ab8919062000abc565b5090565b5b8082111562000ad757600081600090555060010162000abd565b5090565b600080fd5b600073ffffffffffffffffffffffffffffffffffffffff82169050919050565b600062000b0d8262000ae0565b9050919050565b62000b1f8162000b00565b811462000b2b57600080fd5b50565b60008151905062000b3f8162000b14565b92915050565b6000806040838503121562000b5f5762000b5e62000adb565b5b600062000b6f8582860162000b2e565b925050602062000b828582860162000b2e565b9150509250929050565b62000b978162000b00565b82525050565b600060208201905062000bb4600083018462000b8c565b92915050565b600081905092915050565b7f666163746f727900000000000000000000000000000000000000000000000000600082015250565b600062000bfd60078362000bba565b915062000c0a8262000bc5565b600782019050919050565b600062000c228262000bee565b9150819050919050565b7f4e487b7100000000000000000000000000000000000000000000000000000000600052602160045260246000fd5b7f6f66666963650000000000000000000000000000000000000000000000000000600082015250565b600062000c9360068362000bba565b915062000ca08262000c5b565b600682019050919050565b600062000cb88262000c84565b9150819050919050565b7f72657374617572616e7400000000000000000000000000000000000000000000600082015250565b600062000cfa600a8362000bba565b915062000d078262000cc2565b600a82019050919050565b600062000d1f8262000ceb565b9150819050919050565b7f6275696c64696e67000000000000000000000000000000000000000000000000600082015250565b600062000d6160088362000bba565b915062000d6e8262000d29565b600882019050919050565b600062000d868262000d52565b9150819050919050565b7f686f757365000000000000000000000000000000000000000000000000000000600082015250565b600062000dc860058362000bba565b915062000dd58262000d90565b600582019050919050565b600062000ded8262000db9565b9150819050919050565b7f73746f7265000000000000000000000000000000000000000000000000000000600082015250565b600062000e2f60058362000bba565b915062000e3c8262000df7565b600582019050919050565b600062000e548262000e20565b9150819050919050565b7f73757065724d61726b6574000000000000000000000000000000000000000000600082015250565b600062000e96600b8362000bba565b915062000ea38262000e5e565b600b82019050919050565b600062000ebb8262000e87565b9150819050919050565b7f7061726b00000000000000000000000000000000000000000000000000000000600082015250565b600062000efd60048362000bba565b915062000f0a8262000ec5565b600482019050919050565b600062000f228262000eee565b9150819050919050565b7f67796d0000000000000000000000000000000000000000000000000000000000600082015250565b600062000f6460038362000bba565b915062000f718262000f2c565b600382019050919050565b600062000f898262000f55565b9150819050919050565b7f4e487b7100000000000000000000000000000000000000000000000000000000600052602260045260246000fd5b6000600282049050600182168062000fdb57607f821691505b6020821081141562000ff25762000ff162000f93565b5b50919050565b614c7480620010086000396000f3fe608060405234801561001057600080fd5b50600436106101165760003560e01c80638f283970116100a2578063b758eeaa11610071578063b758eeaa1461026d578063c197bddb14610289578063cf322e94146102a5578063eb318ff7146102c1578063f2fde38b146102dd57610116565b80638f283970146101fd5780639f18f9f214610219578063a3ef9dfa14610235578063ab50b5bb1461025157610116565b80636c241bb1116100e95780636c241bb11461017f5780636d5dcb2b146101af578063715018a6146101b957806385791510146101c35780638da5cb5b146101df57610116565b80631911d1761461011b57806323657514146101395780634920f9061461014357806368f9e31214610161575b600080fd5b6101236102f9565b60405161013091906136ca565b60405180910390f35b6101416103eb565b005b61014b610493565b6040516101589190613707565b60405180910390f35b6101696104aa565b6040516101769190613731565b60405180910390f35b6101996004803603810190610194919061378c565b6104b2565b6040516101a69190613b47565b60405180910390f35b6101b7610d96565b005b6101c1610f6b565b005b6101dd60048036038101906101d8919061378c565b610ff3565b005b6101e761128d565b6040516101f49190613b78565b60405180910390f35b61021760048036038101906102129190613bbf565b6112b6565b005b610233600480360381019061022e9190613d21565b611376565b005b61024f600480360381019061024a9190613f88565b61164b565b005b61026b60048036038101906102669190614124565b611e4c565b005b6102876004803603810190610282919061418b565b6120ea565b005b6102a3600480360381019061029e9190614226565b612172565b005b6102bf60048036038101906102ba919061418b565b6125a7565b005b6102db60048036038101906102d6919061378c565b612690565b005b6102f760048036038101906102f29190613bbf565b61272a565b005b60606000600c5467ffffffffffffffff81111561031957610318613bf6565b5b60405190808252806020026020018201604052801561035257816020015b61033f61344a565b8152602001906001900390816103375790505b50905060005b600c548110156103e357600a60008281526020019081526020016000206040518060a0016040529081600082015481526020016001820154815260200160028201548152602001600382015481526020016004820154815250508282815181106103c5576103c46142fc565b5b602002602001018190525080806103db9061435a565b915050610358565b508091505090565b6103f3612822565b73ffffffffffffffffffffffffffffffffffffffff1661041161128d565b73ffffffffffffffffffffffffffffffffffffffff1614610467576040517f08c379a000000000000000000000000000000000000000000000000000000000815260040161045e90614400565b60405180910390fd5b600560149054906101000a900460ff1615600560146101000a81548160ff021916908315150217905550565b6000600560149054906101000a900460ff16905090565b600042905090565b6104ba613479565b600060086000848152602001908152602001600020905060008160020160029054906101000a900467ffffffffffffffff1667ffffffffffffffff169050600082600201600a9054906101000a900467ffffffffffffffff1667ffffffffffffffff1690506000604051806101a001604052808560030160089054906101000a900473ffffffffffffffffffffffffffffffffffffffff1673ffffffffffffffffffffffffffffffffffffffff16815260200184815260200183815260200183856105859190614420565b67ffffffffffffffff81111561059e5761059d613bf6565b5b6040519080825280602002602001820160405280156105cc5781602001602082028036833780820191505090505b50815260200183856105de9190614420565b67ffffffffffffffff8111156105f7576105f6613bf6565b5b6040519080825280602002602001820160405280156106255781602001602082028036833780820191505090505b50815260200183856106379190614420565b67ffffffffffffffff8111156106505761064f613bf6565b5b60405190808252806020026020018201604052801561067e5781602001602082028036833780820191505090505b50815260200183856106909190614420565b67ffffffffffffffff8111156106a9576106a8613bf6565b5b6040519080825280602002602001820160405280156106d75781602001602082028036833780820191505090505b5081526020018467ffffffffffffffff8111156106f7576106f6613bf6565b5b60405190808252806020026020018201604052801561072a57816020015b60608152602001906001900390816107155790505b5081526020018467ffffffffffffffff81111561074a57610749613bf6565b5b6040519080825280602002602001820160405280156107785781602001602082028036833780820191505090505b5081526020018367ffffffffffffffff81111561079857610797613bf6565b5b6040519080825280602002602001820160405280156107cb57816020015b60608152602001906001900390816107b65790505b5081526020018560020160129054906101000a900467ffffffffffffffff1667ffffffffffffffff1681526020018560030160009054906101000a900467ffffffffffffffff1667ffffffffffffffff1681526020016377359400600654146108455760065486600401546108409190614476565b610849565b6006545b815250905060005b83811015610b0e5784600001600082815260200190815260200160002060000160019054906101000a900463ffffffff1663ffffffff168260600151828151811061089f5761089e6142fc565b5b60200260200101818152505084600001600082815260200190815260200160002060000160059054906101000a900463ffffffff1663ffffffff16826080015182815181106108f1576108f06142fc565b5b60200260200101818152505084600001600082815260200190815260200160002060000160099054906101000a900463ffffffff1663ffffffff168260a001518281518110610943576109426142fc565b5b602002602001018181525050846000016000828152602001908152602001600020600001600d9054906101000a900463ffffffff1663ffffffff168260c001518281518110610995576109946142fc565b5b6020026020010181815250506002600086600001600084815260200190815260200160002060000160009054906101000a900460ff1660088111156109dd576109dc6144aa565b5b60088111156109ef576109ee6144aa565b5b81526020019081526020016000208054610a0890614508565b80601f0160208091040260200160405190810160405280929190818152602001828054610a3490614508565b8015610a815780601f10610a5657610100808354040283529160200191610a81565b820191906000526020600020905b815481529060010190602001808311610a6457829003601f168201915b50505050508260e001518281518110610a9d57610a9c6142fc565b5b602002602001018190525084600001600082815260200190815260200160002060000160119054906101000a900463ffffffff1663ffffffff168261010001518281518110610aef57610aee6142fc565b5b6020026020010181815250508080610b069061435a565b915050610851565b5060008390505b8383610b219190614420565b811015610d89578460010160008583610b3a9190614476565b815260200190815260200160002060010160009054906101000a900463ffffffff1663ffffffff1682606001518281518110610b7957610b786142fc565b5b6020026020010181815250508460010160008583610b979190614476565b815260200190815260200160002060010160049054906101000a900463ffffffff1663ffffffff1682608001518281518110610bd657610bd56142fc565b5b6020026020010181815250508460010160008583610bf49190614476565b815260200190815260200160002060010160089054906101000a900463ffffffff1663ffffffff168260a001518281518110610c3357610c326142fc565b5b6020026020010181815250508460010160008583610c519190614476565b8152602001908152602001600020600101600c9054906101000a900463ffffffff1663ffffffff168260c001518281518110610c9057610c8f6142fc565b5b6020026020010181815250508460010160008583610cae9190614476565b81526020019081526020016000206000018054610cca90614508565b80601f0160208091040260200160405190810160405280929190818152602001828054610cf690614508565b8015610d435780601f10610d1857610100808354040283529160200191610d43565b820191906000526020600020905b815481529060010190602001808311610d2657829003601f168201915b50505050508261012001518583610d5a9190614476565b81518110610d6b57610d6a6142fc565b5b60200260200101819052508080610d819061435a565b915050610b15565b5080945050505050919050565b600460009054906101000a900473ffffffffffffffffffffffffffffffffffffffff1673ffffffffffffffffffffffffffffffffffffffff163373ffffffffffffffffffffffffffffffffffffffff1614610e26576040517f08c379a0000000000000000000000000000000000000000000000000000000008152600401610e1d906145ac565b60405180910390fd5b60011515600560149054906101000a900460ff16151514610e7c576040517f08c379a0000000000000000000000000000000000000000000000000000000008152600401610e739061463e565b60405180910390fd5b637735940060065414610ec4576040517f08c379a0000000000000000000000000000000000000000000000000000000008152600401610ebb906146aa565b60405180910390fd5b4260068190555060005b600073ffffffffffffffffffffffffffffffffffffffff166008600083815260200190815260200160002060030160089054906101000a900473ffffffffffffffffffffffffffffffffffffffff1673ffffffffffffffffffffffffffffffffffffffff1614610f685760065460086000838152602001908152602001600020600401819055508080610f609061435a565b915050610ece565b50565b610f73612822565b73ffffffffffffffffffffffffffffffffffffffff16610f9161128d565b73ffffffffffffffffffffffffffffffffffffffff1614610fe7576040517f08c379a0000000000000000000000000000000000000000000000000000000008152600401610fde90614400565b60405180910390fd5b610ff1600061282a565b565b600460009054906101000a900473ffffffffffffffffffffffffffffffffffffffff1673ffffffffffffffffffffffffffffffffffffffff163373ffffffffffffffffffffffffffffffffffffffff1614611083576040517f08c379a000000000000000000000000000000000000000000000000000000000815260040161107a906145ac565b60405180910390fd5b60011515600560149054906101000a900460ff161515146110d9576040517f08c379a00000000000000000000000000000000000000000000000000000000081526004016110d09061463e565b60405180910390fd5b600654421161111d576040517f08c379a000000000000000000000000000000000000000000000000000000000815260040161111490614716565b60405180910390fd5b6007546008600083815260200190815260200160002060040154426111429190614476565b11611182576040517f08c379a000000000000000000000000000000000000000000000000000000000815260040161117990614782565b60405180910390fd5b60006007546008600084815260200190815260200160002060040154426111a99190614476565b6111b391906147d1565b90506008600083815260200190815260200160002060030160009054906101000a900467ffffffffffffffff16816111eb9190614816565b6008600084815260200190815260200160002060020160128282829054906101000a900467ffffffffffffffff166112239190614858565b92506101000a81548167ffffffffffffffff021916908367ffffffffffffffff1602179055506007546006544261125a9190614476565b6112649190614896565b4261126f9190614476565b60086000848152602001908152602001600020600401819055505050565b60008060009054906101000a900473ffffffffffffffffffffffffffffffffffffffff16905090565b6112be612822565b73ffffffffffffffffffffffffffffffffffffffff166112dc61128d565b73ffffffffffffffffffffffffffffffffffffffff1614611332576040517f08c379a000000000000000000000000000000000000000000000000000000000815260040161132990614400565b60405180910390fd5b80600460006101000a81548173ffffffffffffffffffffffffffffffffffffffff021916908373ffffffffffffffffffffffffffffffffffffffff16021790555050565b600460009054906101000a900473ffffffffffffffffffffffffffffffffffffffff1673ffffffffffffffffffffffffffffffffffffffff163373ffffffffffffffffffffffffffffffffffffffff1614611406576040517f08c379a00000000000000000000000000000000000000000000000000000000081526004016113fd906145ac565b60405180910390fd5b60011515600560149054906101000a900460ff1615151461145c576040517f08c379a00000000000000000000000000000000000000000000000000000000081526004016114539061463e565b60405180910390fd5b60006008600089815260200190815260200160002090506040518060a001604052808381526020018763ffffffff1681526020018663ffffffff1681526020018563ffffffff1681526020018463ffffffff1681525081600101600083600201600a9054906101000a900467ffffffffffffffff1667ffffffffffffffff16815260200190815260200160002060008201518160000190805190602001906115059291906134f7565b5060208201518160010160006101000a81548163ffffffff021916908363ffffffff16021790555060408201518160010160046101000a81548163ffffffff021916908363ffffffff16021790555060608201518160010160086101000a81548163ffffffff021916908363ffffffff160217905550608082015181600101600c6101000a81548163ffffffff021916908363ffffffff160217905550905050600181600201600a8282829054906101000a900467ffffffffffffffff166115cd9190614858565b92506101000a81548167ffffffffffffffff021916908367ffffffffffffffff160217905550868160020160129054906101000a900467ffffffffffffffff1661161791906148c7565b8160020160126101000a81548167ffffffffffffffff021916908367ffffffffffffffff1602179055505050505050505050565b600460009054906101000a900473ffffffffffffffffffffffffffffffffffffffff1673ffffffffffffffffffffffffffffffffffffffff163373ffffffffffffffffffffffffffffffffffffffff16146116db576040517f08c379a00000000000000000000000000000000000000000000000000000000081526004016116d2906145ac565b60405180910390fd5b60011515600560149054906101000a900460ff16151514611731576040517f08c379a00000000000000000000000000000000000000000000000000000000081526004016117289061463e565b60405180910390fd5b60011515600860008c815260200190815260200160002060020160009054906101000a900460ff1615151461179b576040517f08c379a000000000000000000000000000000000000000000000000000000000815260040161179290614947565b60405180910390fd5b60001515600860008c815260200190815260200160002060020160019054906101000a900460ff16151514611805576040517f08c379a00000000000000000000000000000000000000000000000000000000081526004016117fc906149b3565b60405180910390fd5b8a73ffffffffffffffffffffffffffffffffffffffff16600860008c815260200190815260200160002060030160089054906101000a900473ffffffffffffffffffffffffffffffffffffffff1673ffffffffffffffffffffffffffffffffffffffff16146118a9576040517f08c379a00000000000000000000000000000000000000000000000000000000081526004016118a090614a1f565b60405180910390fd5b6000600860008c8152602001908152602001600020905060005b8a811015611aa7578881815181106118de576118dd6142fc565b5b602002602001015182600001600083815260200190815260200160002060000160016101000a81548163ffffffff021916908363ffffffff16021790555087818151811061192f5761192e6142fc565b5b602002602001015182600001600083815260200190815260200160002060000160056101000a81548163ffffffff021916908363ffffffff1602179055508681815181106119805761197f6142fc565b5b602002602001015182600001600083815260200190815260200160002060000160096101000a81548163ffffffff021916908363ffffffff1602179055508581815181106119d1576119d06142fc565b5b6020026020010151826000016000838152602001908152602001600020600001600d6101000a81548163ffffffff021916908363ffffffff1602179055506001858281518110611a2457611a236142fc565b5b6020026020010151604051611a399190614a7b565b908152602001604051809103902060009054906101000a900460ff1682600001600083815260200190815260200160002060000160006101000a81548160ff02191690836008811115611a8f57611a8e6144aa565b5b02179055508080611a9f9061435a565b9150506118c3565b5060008a90505b8a8a611aba9190614420565b811015611ca157888181518110611ad457611ad36142fc565b5b60200260200101518260010160008d84611aee9190614476565b815260200190815260200160002060010160006101000a81548163ffffffff021916908363ffffffff160217905550878181518110611b3057611b2f6142fc565b5b60200260200101518260010160008d84611b4a9190614476565b815260200190815260200160002060010160046101000a81548163ffffffff021916908363ffffffff160217905550868181518110611b8c57611b8b6142fc565b5b60200260200101518260010160008d84611ba69190614476565b815260200190815260200160002060010160086101000a81548163ffffffff021916908363ffffffff160217905550858181518110611be857611be76142fc565b5b60200260200101518260010160008d84611c029190614476565b8152602001908152602001600020600101600c6101000a81548163ffffffff021916908363ffffffff160217905550838b82611c3e9190614476565b81518110611c4f57611c4e6142fc565b5b60200260200101518260010160008d84611c699190614476565b81526020019081526020016000206000019080519060200190611c8d9291906134f7565b508080611c999061435a565b915050611aae565b50898160020160026101000a81548167ffffffffffffffff021916908367ffffffffffffffff1602179055508881600201600a6101000a81548167ffffffffffffffff021916908367ffffffffffffffff160217905550818160030160006101000a81548167ffffffffffffffff021916908367ffffffffffffffff160217905550600960009054906101000a900467ffffffffffffffff168160020160126101000a81548167ffffffffffffffff021916908367ffffffffffffffff1602179055508b8160030160086101000a81548173ffffffffffffffffffffffffffffffffffffffff021916908373ffffffffffffffffffffffffffffffffffffffff16021790555060018160020160016101000a81548160ff021916908315150217905550637735940060065414611e045760075460065442611de29190614476565b611dec9190614896565b42611df79190614476565b8160040181905550611e0f565b600081600401819055505b611e20600a600b5484600c546128ee565b600b81905550600c6000815480929190611e399061435a565b9190505550505050505050505050505050565b600460009054906101000a900473ffffffffffffffffffffffffffffffffffffffff1673ffffffffffffffffffffffffffffffffffffffff163373ffffffffffffffffffffffffffffffffffffffff1614611edc576040517f08c379a0000000000000000000000000000000000000000000000000000000008152600401611ed3906145ac565b60405180910390fd5b60011515600560149054906101000a900460ff16151514611f32576040517f08c379a0000000000000000000000000000000000000000000000000000000008152600401611f299061463e565b60405180910390fd5b600160086000868152602001908152602001600020600001600084815260200190815260200160002060000160118282829054906101000a900463ffffffff16611f7c9190614aa2565b92506101000a81548163ffffffff021916908363ffffffff160217905550826008600086815260200190815260200160002060020160129054906101000a900467ffffffffffffffff16611fd091906148c7565b6008600086815260200190815260200160002060020160126101000a81548167ffffffffffffffff021916908367ffffffffffffffff16021790555060006008600086815260200190815260200160002060030160009054906101000a900467ffffffffffffffff1667ffffffffffffffff169050612054600a600b548388612c29565b600b81905550816008600087815260200190815260200160002060030160006101000a81548167ffffffffffffffff021916908367ffffffffffffffff1602179055506008600086815260200190815260200160002060030160009054906101000a900467ffffffffffffffff1667ffffffffffffffff1690506120dd600a600b5483886128ee565b600b819055505050505050565b806008600084815260200190815260200160002060030160086101000a81548173ffffffffffffffffffffffffffffffffffffffff021916908373ffffffffffffffffffffffffffffffffffffffff16021790555060016008600084815260200190815260200160002060020160006101000a81548160ff0219169083151502179055505050565b600460009054906101000a900473ffffffffffffffffffffffffffffffffffffffff1673ffffffffffffffffffffffffffffffffffffffff163373ffffffffffffffffffffffffffffffffffffffff1614612202576040517f08c379a00000000000000000000000000000000000000000000000000000000081526004016121f9906145ac565b60405180910390fd5b60011515600560149054906101000a900460ff16151514612258576040517f08c379a000000000000000000000000000000000000000000000000000000000815260040161224f9061463e565b60405180910390fd5b6000600860008b815260200190815260200160002090506040518060c001604052806001868660405161228c929190614b01565b908152602001604051809103902060009054906101000a900460ff1660088111156122ba576122b96144aa565b5b81526020018963ffffffff1681526020018863ffffffff1681526020018763ffffffff1681526020018663ffffffff168152602001600063ffffffff168152508160000160008360020160029054906101000a900467ffffffffffffffff1667ffffffffffffffff16815260200190815260200160002060008201518160000160006101000a81548160ff0219169083600881111561235c5761235b6144aa565b5b021790555060208201518160000160016101000a81548163ffffffff021916908363ffffffff16021790555060408201518160000160056101000a81548163ffffffff021916908363ffffffff16021790555060608201518160000160096101000a81548163ffffffff021916908363ffffffff160217905550608082015181600001600d6101000a81548163ffffffff021916908363ffffffff16021790555060a08201518160000160116101000a81548163ffffffff021916908363ffffffff16021790555090505060018160020160028282829054906101000a900467ffffffffffffffff1661244f9190614858565b92506101000a81548167ffffffffffffffff021916908367ffffffffffffffff160217905550888160020160129054906101000a900467ffffffffffffffff1661249991906148c7565b8160020160126101000a81548167ffffffffffffffff021916908367ffffffffffffffff1602179055506000600860008c815260200190815260200160002060030160009054906101000a900467ffffffffffffffff1667ffffffffffffffff16905061250b600a600b54838e612c29565b600b8190555082600860008d815260200190815260200160002060030160006101000a81548167ffffffffffffffff021916908367ffffffffffffffff160217905550600860008c815260200190815260200160002060030160009054906101000a900467ffffffffffffffff1667ffffffffffffffff169050612594600a600b54838e6128ee565b600b819055505050505050505050505050565b600560009054906101000a900473ffffffffffffffffffffffffffffffffffffffff1673ffffffffffffffffffffffffffffffffffffffff163373ffffffffffffffffffffffffffffffffffffffff1614612637576040517f08c379a000000000000000000000000000000000000000000000000000000000815260040161262e90614b8c565b60405180910390fd5b806008600084815260200190815260200160002060030160086101000a81548173ffffffffffffffffffffffffffffffffffffffff021916908373ffffffffffffffffffffffffffffffffffffffff1602179055505050565b600460009054906101000a900473ffffffffffffffffffffffffffffffffffffffff1673ffffffffffffffffffffffffffffffffffffffff163373ffffffffffffffffffffffffffffffffffffffff1614612720576040517f08c379a0000000000000000000000000000000000000000000000000000000008152600401612717906145ac565b60405180910390fd5b8060078190555050565b612732612822565b73ffffffffffffffffffffffffffffffffffffffff1661275061128d565b73ffffffffffffffffffffffffffffffffffffffff16146127a6576040517f08c379a000000000000000000000000000000000000000000000000000000000815260040161279d90614400565b60405180910390fd5b600073ffffffffffffffffffffffffffffffffffffffff168173ffffffffffffffffffffffffffffffffffffffff161415612816576040517f08c379a000000000000000000000000000000000000000000000000000000000815260040161280d90614c1e565b60405180910390fd5b61281f8161282a565b50565b600033905090565b60008060009054906101000a900473ffffffffffffffffffffffffffffffffffffffff169050816000806101000a81548173ffffffffffffffffffffffffffffffffffffffff021916908373ffffffffffffffffffffffffffffffffffffffff1602179055508173ffffffffffffffffffffffffffffffffffffffff168173ffffffffffffffffffffffffffffffffffffffff167f8be0079c531659141344cd1fd0a4f28419497f9722a3daafe3b4186f6b6457e060405160405180910390a35050565b6000612710841415612975576040518060a001604052808481526020018381526020016127108152602001612710815260200160018152508560008481526020019081526020016000206000820151816000015560208201518160010155604082015181600201556060820151816003015560808201518160040155905050819050612c21565b8460008581526020019081526020016000206000015483116129d0576129b2858660008781526020019081526020016000206002015485856128ee565b85600086815260200190815260200160002060020181905550612a0b565b6129f1858660008781526020019081526020016000206003015485856128ee565b856000868152602001908152602001600020600301819055505b612a158585613149565b85600086815260200190815260200160002060040181905550600080612a3b87876131b9565b91509150600182118015612a4c5750805b8015612a825750866000886000898152602001908152602001600020600201548152602001908152602001600020600001548511155b15612a9a57612a918787613254565b92505050612c21565b600182118015612aa8575080155b8015612add57508660008860008981526020019081526020016000206003015481526020019081526020016000206000015485115b15612af557612aec878761330e565b92505050612c21565b600182118015612b025750805b8015612b3757508660008860008981526020019081526020016000206002015481526020019081526020016000206000015485115b15612b8757612b5b878860008981526020019081526020016000206002015461330e565b87600088815260200190815260200160002060020181905550612b7e8787613254565b92505050612c21565b600182118015612b95575080155b8015612bcb5750866000886000898152602001908152602001600020600301548152602001908152602001600020600001548511155b15612c1b57612bef8788600089815260200190815260200160002060030154613254565b87600088815260200190815260200160002060030181905550612c12878761330e565b92505050612c21565b85925050505b949350505050565b6000612710841415612c3d57839050613141565b846000858152602001908152602001600020600001548311158015612c775750846000858152602001908152602001600020600101548214155b15612cbb57612c9d85866000878152602001908152602001600020600201548585612c29565b85600086815260200190815260200160002060020181905550612f19565b84600085815260200190815260200160002060000154831115612d1757612cf985866000878152602001908152602001600020600301548585612c29565b85600086815260200190815260200160002060030181905550612f18565b612710856000868152602001908152602001600020600201541480612d52575061271085600086815260200190815260200160002060030154145b15612e275760006127108660008781526020019081526020016000206002015414612d925785600086815260200190815260200160002060020154612da9565b856000868152602001908152602001600020600301545b90506040518060a00160405280600081526020016000815260200160008152602001600081526020016000815250866000878152602001908152602001600020600082015181600001556020820151816001015560408201518160020155606082015181600301556080820151816004015590505080915050613141565b6000612e4886876000888152602001908152602001600020600301546133c8565b905085600082815260200190815260200160002086600087815260200190815260200160002060008201548160000155600182015481600101556002820154816002015560038201548160030155600482015481600401559050506040518060a001604052806000815260200160008152602001600081526020016000815260200160008152508660008381526020019081526020016000206000820151816000015560208201518160010155604082015181600201556060820151816003015560808201518160040155905050505b5b612710841415612f2b57839050613141565b612f358585613149565b85600086815260200190815260200160002060040181905550600080612f5b87876131b9565b91509150600182118015612f6c5750805b8015612fa25750866000886000898152602001908152602001600020600201548152602001908152602001600020600001548511155b15612fba57612fb18787613254565b92505050613141565b600182118015612fc8575080155b8015612ffd57508660008860008981526020019081526020016000206003015481526020019081526020016000206000015485115b156130155761300c878761330e565b92505050613141565b6001821180156130225750805b801561305757508660008860008981526020019081526020016000206002015481526020019081526020016000206000015485115b156130a75761307b878860008981526020019081526020016000206002015461330e565b8760008881526020019081526020016000206002018190555061309e8787613254565b92505050613141565b6001821180156130b5575080155b80156130eb5750866000886000898152602001908152602001600020600301548152602001908152602001600020600001548511155b1561313b5761310f8788600089815260200190815260200160002060030154613254565b87600088815260200190815260200160002060030181905550613132878761330e565b92505050613141565b85925050505b949350505050565b600061271082141561315e57600090506131b3565b6131a46131808485600086815260200190815260200160002060020154613149565b61319f8586600087815260200190815260200160002060030154613149565b61342e565b60016131b09190614420565b90505b92915050565b6000806127108314156131d2576000809150915061324d565b60006131f38586600087815260200190815260200160002060020154613149565b905060006132168687600088815260200190815260200160002060030154613149565b905080821061323857808261322b9190614476565b600193509350505061324d565b81816132449190614476565b60009350935050505b9250929050565b6000808360008481526020019081526020016000206002015490506000846000858152602001908152602001600020600301549050838560008481526020019081526020016000206003018190555080856000868152602001908152602001600020600201819055506132c78585613149565b856000868152602001908152602001600020600401819055506132ea8583613149565b85600084815260200190815260200160002060040181905550819250505092915050565b6000808360008481526020019081526020016000206003015490506000846000838152602001908152602001600020600201549050838560008481526020019081526020016000206002018190555080856000868152602001908152602001600020600301819055506133818585613149565b856000868152602001908152602001600020600401819055506133a48583613149565b85600084815260200190815260200160002060040181905550819250505092915050565b600061271083600084815260200190815260200160002060020154141561340657826000838152602001908152602001600020600001549050613428565b61342583846000858152602001908152602001600020600201546133c8565b90505b92915050565b60008183111561344057829050613444565b8190505b92915050565b6040518060a0016040528060008152602001600081526020016000815260200160008152602001600081525090565b604051806101a00160405280600073ffffffffffffffffffffffffffffffffffffffff1681526020016000815260200160008152602001606081526020016060815260200160608152602001606081526020016060815260200160608152602001606081526020016000815260200160008152602001600081525090565b82805461350390614508565b90600052602060002090601f016020900481019282613525576000855561356c565b82601f1061353e57805160ff191683800117855561356c565b8280016001018555821561356c579182015b8281111561356b578251825591602001919060010190613550565b5b509050613579919061357d565b5090565b5b8082111561359657600081600090555060010161357e565b5090565b600081519050919050565b600082825260208201905092915050565b6000819050602082019050919050565b6000819050919050565b6135d9816135c6565b82525050565b60a0820160008201516135f560008501826135d0565b50602082015161360860208501826135d0565b50604082015161361b60408501826135d0565b50606082015161362e60608501826135d0565b50608082015161364160808501826135d0565b50505050565b600061365383836135df565b60a08301905092915050565b6000602082019050919050565b60006136778261359a565b61368181856135a5565b935061368c836135b6565b8060005b838110156136bd5781516136a48882613647565b97506136af8361365f565b925050600181019050613690565b5085935050505092915050565b600060208201905081810360008301526136e4818461366c565b905092915050565b60008115159050919050565b613701816136ec565b82525050565b600060208201905061371c60008301846136f8565b92915050565b61372b816135c6565b82525050565b60006020820190506137466000830184613722565b92915050565b6000604051905090565b600080fd5b600080fd5b613769816135c6565b811461377457600080fd5b50565b60008135905061378681613760565b92915050565b6000602082840312156137a2576137a1613756565b5b60006137b084828501613777565b91505092915050565b600073ffffffffffffffffffffffffffffffffffffffff82169050919050565b60006137e4826137b9565b9050919050565b6137f4816137d9565b82525050565b600081519050919050565b600082825260208201905092915050565b6000819050602082019050919050565b600061383283836135d0565b60208301905092915050565b6000602082019050919050565b6000613856826137fa565b6138608185613805565b935061386b83613816565b8060005b8381101561389c5781516138838882613826565b975061388e8361383e565b92505060018101905061386f565b5085935050505092915050565b600081519050919050565b600082825260208201905092915050565b6000819050602082019050919050565b600081519050919050565b600082825260208201905092915050565b60005b8381101561390f5780820151818401526020810190506138f4565b8381111561391e576000848401525b50505050565b6000601f19601f8301169050919050565b6000613940826138d5565b61394a81856138e0565b935061395a8185602086016138f1565b61396381613924565b840191505092915050565b600061397a8383613935565b905092915050565b6000602082019050919050565b600061399a826138a9565b6139a481856138b4565b9350836020820285016139b6856138c5565b8060005b858110156139f257848403895281516139d3858261396e565b94506139de83613982565b925060208a019950506001810190506139ba565b50829750879550505050505092915050565b60006101a083016000830151613a1d60008601826137eb565b506020830151613a3060208601826135d0565b506040830151613a4360408601826135d0565b5060608301518482036060860152613a5b828261384b565b91505060808301518482036080860152613a75828261384b565b91505060a083015184820360a0860152613a8f828261384b565b91505060c083015184820360c0860152613aa9828261384b565b91505060e083015184820360e0860152613ac3828261398f565b915050610100830151848203610100860152613adf828261384b565b915050610120830151848203610120860152613afb828261398f565b915050610140830151613b126101408601826135d0565b50610160830151613b276101608601826135d0565b50610180830151613b3c6101808601826135d0565b508091505092915050565b60006020820190508181036000830152613b618184613a04565b905092915050565b613b72816137d9565b82525050565b6000602082019050613b8d6000830184613b69565b92915050565b613b9c816137d9565b8114613ba757600080fd5b50565b600081359050613bb981613b93565b92915050565b600060208284031215613bd557613bd4613756565b5b6000613be384828501613baa565b91505092915050565b600080fd5b600080fd5b7f4e487b7100000000000000000000000000000000000000000000000000000000600052604160045260246000fd5b613c2e82613924565b810181811067ffffffffffffffff82111715613c4d57613c4c613bf6565b5b80604052505050565b6000613c6061374c565b9050613c6c8282613c25565b919050565b600067ffffffffffffffff821115613c8c57613c8b613bf6565b5b613c9582613924565b9050602081019050919050565b82818337600083830152505050565b6000613cc4613cbf84613c71565b613c56565b905082815260208101848484011115613ce057613cdf613bf1565b5b613ceb848285613ca2565b509392505050565b600082601f830112613d0857613d07613bec565b5b8135613d18848260208601613cb1565b91505092915050565b600080600080600080600060e0888a031215613d4057613d3f613756565b5b6000613d4e8a828b01613777565b9750506020613d5f8a828b01613777565b9650506040613d708a828b01613777565b9550506060613d818a828b01613777565b9450506080613d928a828b01613777565b93505060a0613da38a828b01613777565b92505060c088013567ffffffffffffffff811115613dc457613dc361375b565b5b613dd08a828b01613cf3565b91505092959891949750929550565b600067ffffffffffffffff821115613dfa57613df9613bf6565b5b602082029050602081019050919050565b600080fd5b6000613e23613e1e84613ddf565b613c56565b90508083825260208201905060208402830185811115613e4657613e45613e0b565b5b835b81811015613e6f5780613e5b8882613777565b845260208401935050602081019050613e48565b5050509392505050565b600082601f830112613e8e57613e8d613bec565b5b8135613e9e848260208601613e10565b91505092915050565b600067ffffffffffffffff821115613ec257613ec1613bf6565b5b602082029050602081019050919050565b6000613ee6613ee184613ea7565b613c56565b90508083825260208201905060208402830185811115613f0957613f08613e0b565b5b835b81811015613f5057803567ffffffffffffffff811115613f2e57613f2d613bec565b5b808601613f3b8982613cf3565b85526020850194505050602081019050613f0b565b5050509392505050565b600082601f830112613f6f57613f6e613bec565b5b8135613f7f848260208601613ed3565b91505092915050565b60008060008060008060008060008060006101608c8e031215613fae57613fad613756565b5b6000613fbc8e828f01613baa565b9b50506020613fcd8e828f01613777565b9a50506040613fde8e828f01613777565b9950506060613fef8e828f01613777565b98505060808c013567ffffffffffffffff8111156140105761400f61375b565b5b61401c8e828f01613e79565b97505060a08c013567ffffffffffffffff81111561403d5761403c61375b565b5b6140498e828f01613e79565b96505060c08c013567ffffffffffffffff81111561406a5761406961375b565b5b6140768e828f01613e79565b95505060e08c013567ffffffffffffffff8111156140975761409661375b565b5b6140a38e828f01613e79565b9450506101008c013567ffffffffffffffff8111156140c5576140c461375b565b5b6140d18e828f01613f5a565b9350506101208c013567ffffffffffffffff8111156140f3576140f261375b565b5b6140ff8e828f01613f5a565b9250506101406141118e828f01613777565b9150509295989b509295989b9093969950565b6000806000806080858703121561413e5761413d613756565b5b600061414c87828801613777565b945050602061415d87828801613777565b935050604061416e87828801613777565b925050606061417f87828801613777565b91505092959194509250565b600080604083850312156141a2576141a1613756565b5b60006141b085828601613777565b92505060206141c185828601613baa565b9150509250929050565b600080fd5b60008083601f8401126141e6576141e5613bec565b5b8235905067ffffffffffffffff811115614203576142026141cb565b5b60208301915083600182028301111561421f5761421e613e0b565b5b9250929050565b60008060008060008060008060006101008a8c03121561424957614248613756565b5b60006142578c828d01613777565b99505060206142688c828d01613777565b98505060406142798c828d01613777565b975050606061428a8c828d01613777565b965050608061429b8c828d01613777565b95505060a06142ac8c828d01613777565b94505060c08a013567ffffffffffffffff8111156142cd576142cc61375b565b5b6142d98c828d016141d0565b935093505060e06142ec8c828d01613777565b9150509295985092959850929598565b7f4e487b7100000000000000000000000000000000000000000000000000000000600052603260045260246000fd5b7f4e487b7100000000000000000000000000000000000000000000000000000000600052601160045260246000fd5b6000614365826135c6565b91507fffffffffffffffffffffffffffffffffffffffffffffffffffffffffffffffff8214156143985761439761432b565b5b600182019050919050565b600082825260208201905092915050565b7f4f776e61626c653a2063616c6c6572206973206e6f7420746865206f776e6572600082015250565b60006143ea6020836143a3565b91506143f5826143b4565b602082019050919050565b60006020820190508181036000830152614419816143dd565b9050919050565b600061442b826135c6565b9150614436836135c6565b9250827fffffffffffffffffffffffffffffffffffffffffffffffffffffffffffffffff0382111561446b5761446a61432b565b5b828201905092915050565b6000614481826135c6565b915061448c836135c6565b92508282101561449f5761449e61432b565b5b828203905092915050565b7f4e487b7100000000000000000000000000000000000000000000000000000000600052602160045260246000fd5b7f4e487b7100000000000000000000000000000000000000000000000000000000600052602260045260246000fd5b6000600282049050600182168061452057607f821691505b60208210811415614534576145336144d9565b5b50919050565b7f5468652063616c6c6572206f66207468652066756e6374696f6e206973206e6f60008201527f742061646d696e00000000000000000000000000000000000000000000000000602082015250565b60006145966027836143a3565b91506145a18261453a565b604082019050919050565b600060208201905081810360008301526145c581614589565b9050919050565b7f54686520626c6f636b636861696e2064617461626173652063616e206e6f742060008201527f62652065646974656420617420746865206d6f6d656e74000000000000000000602082015250565b60006146286037836143a3565b9150614633826145cc565b604082019050919050565b600060208201905081810360008301526146578161461b565b9050919050565b7f47616d652077617320616c726561647920737461727465640000000000000000600082015250565b60006146946018836143a3565b915061469f8261465e565b602082019050919050565b600060208201905081810360008301526146c381614687565b9050919050565b7f47616d6520646964206e6f74207374617274207965742e000000000000000000600082015250565b60006147006017836143a3565b915061470b826146ca565b602082019050919050565b6000602082019050818103600083015261472f816146f3565b9050919050565b7f43616e27742067657420696e636f6d65207965742e0000000000000000000000600082015250565b600061476c6015836143a3565b915061477782614736565b602082019050919050565b6000602082019050818103600083015261479b8161475f565b9050919050565b7f4e487b7100000000000000000000000000000000000000000000000000000000600052601260045260246000fd5b60006147dc826135c6565b91506147e7836135c6565b9250826147f7576147f66147a2565b5b828204905092915050565b600067ffffffffffffffff82169050919050565b600061482182614802565b915061482c83614802565b92508167ffffffffffffffff048311821515161561484d5761484c61432b565b5b828202905092915050565b600061486382614802565b915061486e83614802565b92508267ffffffffffffffff0382111561488b5761488a61432b565b5b828201905092915050565b60006148a1826135c6565b91506148ac836135c6565b9250826148bc576148bb6147a2565b5b828206905092915050565b60006148d282614802565b91506148dd83614802565b9250828210156148f0576148ef61432b565b5b828203905092915050565b7f43697479206973206e6f74206372656174656420796574000000000000000000600082015250565b60006149316017836143a3565b915061493c826148fb565b602082019050919050565b6000602082019050818103600083015261496081614924565b9050919050565b7f4369747920697320616c726561647920696e697469616c697a65640000000000600082015250565b600061499d601b836143a3565b91506149a882614967565b602082019050919050565b600060208201905081810360008301526149cc81614990565b9050919050565b7f43697479206973206f776e657220627920736f6d656f6e6520656c7365000000600082015250565b6000614a09601d836143a3565b9150614a14826149d3565b602082019050919050565b60006020820190508181036000830152614a38816149fc565b9050919050565b600081905092915050565b6000614a55826138d5565b614a5f8185614a3f565b9350614a6f8185602086016138f1565b80840191505092915050565b6000614a878284614a4a565b915081905092915050565b600063ffffffff82169050919050565b6000614aad82614a92565b9150614ab883614a92565b92508263ffffffff03821115614ad157614ad061432b565b5b828201905092915050565b6000614ae88385614a3f565b9350614af5838584613ca2565b82840190509392505050565b6000614b0e828486614adc565b91508190509392505050565b7f48617320746f2062652073656e742066726f6d20746865204369747920436f6e60008201527f7472616374000000000000000000000000000000000000000000000000000000602082015250565b6000614b766025836143a3565b9150614b8182614b1a565b604082019050919050565b60006020820190508181036000830152614ba581614b69565b9050919050565b7f4f776e61626c653a206e6577206f776e657220697320746865207a65726f206160008201527f6464726573730000000000000000000000000000000000000000000000000000602082015250565b6000614c086026836143a3565b9150614c1382614bac565b604082019050919050565b60006020820190508181036000830152614c3781614bfb565b905091905056fea2646970667358221220a1abf7679e794b541aa138b469d5aa61867176e3fe205d1049587f9dd105203b64736f6c634300080b0033",
  "immutableReferences": {},
  "source": "// SPDX-License-Identifier: MIT\r\npragma solidity ^0.8.11;\r\n\r\nimport \"../node_modules/@openzeppelin/contracts/access/Ownable.sol\";\r\n\r\nimport \"./CityContract.sol\";\r\n\r\nimport { BST } from \"./BST.sol\";\r\n\r\n// there are no checks if the request are valid or possible, it should be done in the backend.\r\n// maybe later it will be added here too, but for now it is not necessary since only the admin can call the functions\r\n\r\ncontract Gameplay is Ownable {\r\n\r\n    constructor(address _admin, address _nftContractAddress) {\r\n        initStringToType();\r\n        admin = _admin;\r\n        nftContractAddress = _nftContractAddress;\r\n        CityContract contr = CityContract(nftContractAddress);\r\n        contr.initGameplayContract(address(this));\r\n    }\r\n\r\n    enum BuildingTypes {\r\n        Factory,\r\n        Office,\r\n        Restaurant,\r\n        Building,\r\n        House,\r\n        Store,\r\n        SuperMarket,\r\n        Park,\r\n        Gym\r\n    }\r\n\r\n    mapping(string => BuildingTypes) stringToType;\r\n    mapping(BuildingTypes => string) typeToString;\r\n    uint numOfBuildingTypes = 10;\r\n    function initStringToType() private {\r\n        stringToType[\"factory\"] = BuildingTypes.Factory;\r\n        stringToType[\"office\"] = BuildingTypes.Office;\r\n        stringToType[\"restaurant\"] = BuildingTypes.Restaurant;\r\n        stringToType[\"building\"] = BuildingTypes.Building;\r\n        stringToType[\"house\"] = BuildingTypes.House;\r\n        stringToType[\"store\"] = BuildingTypes.Store;\r\n        stringToType[\"superMarket\"] = BuildingTypes.SuperMarket;\r\n        stringToType[\"park\"] = BuildingTypes.Park;\r\n        stringToType[\"gym\"] = BuildingTypes.Gym;\r\n\r\n        typeToString[BuildingTypes.Factory] = \"factory\";\r\n        typeToString[BuildingTypes.Office] = \"office\";\r\n        typeToString[BuildingTypes.Restaurant] = \"restaurant\";\r\n        typeToString[BuildingTypes.Building] = \"building\";\r\n        typeToString[BuildingTypes.House] = \"house\";\r\n        typeToString[BuildingTypes.Store] = \"store\";\r\n        typeToString[BuildingTypes.SuperMarket] = \"superMarket\";\r\n        typeToString[BuildingTypes.Park] = \"park\";\r\n        typeToString[BuildingTypes.Gym] = \"gym\";\r\n    }\r\n    \r\n    struct Building {\r\n        BuildingTypes buildingType;\r\n        uint32 startx;\r\n        uint32 starty;\r\n        uint32 endx;\r\n        uint32 endy;\r\n        uint32 level;\r\n    } // occupies 1 block of 256 bytes\r\n\r\n    struct SpecialBuilding {\r\n        string specialType;\r\n        uint32 startx;\r\n        uint32 starty;\r\n        uint32 endx;\r\n        uint32 endy;\r\n    } // occupies 2 block of 256 bytes\r\n\r\n    struct City {\r\n        mapping(uint => Building) buildingList;\r\n        mapping(uint => SpecialBuilding) specialBuildingList;\r\n        bool created;\r\n        bool initialized;\r\n        uint64 numOfBuildings;\r\n        uint64 numOfSpecialBuildings;\r\n        uint64 money;\r\n        uint64 income;\r\n        address owner;\r\n        uint lastPay;\r\n    } // occupies ( 4 + numOfBuildings + numOfSpecialBuildings ) blocks of 256 bytes in total\r\n\r\n\r\n    address admin;\r\n    address nftContractAddress;\r\n    bool editable = true;\r\n    uint gameStart = 2000000000;\r\n    uint payPeriod = 120; // 1 day = 86400\r\n\r\n    mapping(uint => City) cities; // map (array) containing all the data about the City NFTs\r\n    uint64 startingMoney = 100000; // the amount of in-game money everyone has right after minting\r\n\r\n    mapping(uint => BST.Node) leaderboard;\r\n    uint root = 10000;\r\n    uint id = 0;\r\n\r\n    function created(uint tokenId, address addr) external {\r\n        cities[tokenId].owner = addr;\r\n        cities[tokenId].created = true;\r\n    }\r\n\r\n    function newOwner(uint tokenId, address _newOwner) public {\r\n        require(msg.sender == nftContractAddress, 'Has to be sent from the City Contract');\r\n        cities[tokenId].owner = _newOwner;\r\n    }\r\n\r\n    /**\r\n     * @dev Function used for minting new City NFTs\r\n     * @param tokenId index of the token being initialized\r\n     * @param numOfBuildings number of buildings in the city\r\n     * @param numOfSpecialBuildings number of special buildings in the city\r\n     * @param startx arrays of coordinates for both types of buildings\r\n     * @param starty ...\r\n     * @param endx ...\r\n     * @param endy ...\r\n     * @param buildingType array of strings representing the buildingTypes\r\n     * @param specialType uint array representing the types of the special buildings\r\n     * @param income the calculated income for the city\r\n     */\r\n    function initializeCity(\r\n        address owner,\r\n        uint tokenId,\r\n        uint numOfBuildings,\r\n        uint numOfSpecialBuildings,\r\n        uint[] memory startx,\r\n        uint[] memory starty,\r\n        uint[] memory endx,\r\n        uint[] memory endy,\r\n        string[] memory buildingType,\r\n        string[] memory specialType,\r\n        uint income\r\n    ) external onlyAdmin isEditable {\r\n        require(cities[tokenId].created == true , \"City is not created yet\");\r\n        require(cities[tokenId].initialized == false , \"City is already initialized\");\r\n        require(cities[tokenId].owner == owner, \"City is owner by someone else\");\r\n        \r\n        City storage city = cities[tokenId];\r\n        for(uint i = 0; i < numOfBuildings; i++) {\r\n            city.buildingList[i].startx = uint32(startx[i]);\r\n            city.buildingList[i].starty = uint32(starty[i]);\r\n            city.buildingList[i].endx = uint32(endx[i]);\r\n            city.buildingList[i].endy = uint32(endy[i]);\r\n            city.buildingList[i].buildingType = stringToType[buildingType[i]];\r\n        }\r\n        for(uint i = numOfBuildings; i < numOfSpecialBuildings + numOfBuildings; i++) {\r\n            city.specialBuildingList[i-numOfBuildings].startx = uint32(startx[i]);\r\n            city.specialBuildingList[i-numOfBuildings].starty = uint32(starty[i]);\r\n            city.specialBuildingList[i-numOfBuildings].endx = uint32(endx[i]);\r\n            city.specialBuildingList[i-numOfBuildings].endy = uint32(endy[i]);\r\n            city.specialBuildingList[i-numOfBuildings].specialType = specialType[i-numOfBuildings];\r\n        }\r\n        city.numOfBuildings = uint64(numOfBuildings);\r\n        city.numOfSpecialBuildings = uint64(numOfSpecialBuildings);\r\n        city.income = uint64(income);\r\n        city.money = startingMoney;\r\n        city.owner = owner;\r\n        city.initialized = true;\r\n        if(gameStart != 2000000000) city.lastPay = block.timestamp - ((block.timestamp - gameStart) % payPeriod);\r\n        else city.lastPay = 0;\r\n\r\n        root = BST.insert(leaderboard, root, income, id);\r\n\r\n        id++;\r\n    }\r\n    \r\n    // ________________________________________________________________________\r\n    // functions that change the cities:\r\n    function upgradeBuilding(uint tokenId, uint price, uint buildingIndex, uint newIncome) external onlyAdmin isEditable {\r\n        cities[tokenId].buildingList[buildingIndex].level += 1;\r\n        cities[tokenId].money = cities[tokenId].money - uint64(price);\r\n\r\n        uint score = cities[tokenId].income;\r\n        root = BST.remove(leaderboard, root, score, tokenId);\r\n        cities[tokenId].income = uint64(newIncome);\r\n        score = cities[tokenId].income;\r\n        root = BST.insert(leaderboard, root, score, tokenId);\r\n    }\r\n\r\n    function addBuilding(\r\n        uint tokenId,\r\n        uint price,\r\n        uint _startx,\r\n        uint _starty,\r\n        uint _endx,\r\n        uint _endy,\r\n        string calldata _buildingType, \r\n        uint newIncome\r\n    ) external onlyAdmin isEditable {\r\n        City storage city = cities[tokenId];\r\n        city.buildingList[city.numOfBuildings] = Building({\r\n            buildingType: stringToType[_buildingType],\r\n            startx: uint32(_startx),\r\n            starty: uint32(_starty),\r\n            endx: uint32(_endx),\r\n            endy: uint32(_endy),\r\n            level: 0\r\n        });\r\n        city.numOfBuildings += 1;\r\n        city.money = city.money - uint64(price);\r\n\r\n        uint score = cities[tokenId].income;\r\n        root = BST.remove(leaderboard, root, score, tokenId);\r\n        cities[tokenId].income = uint64(newIncome);\r\n        score = cities[tokenId].income;\r\n        root = BST.insert(leaderboard, root, score, tokenId);\r\n    }\r\n\r\n    function addSpecialBuilding(\r\n        uint tokenId,\r\n        uint price,\r\n        uint _startx,\r\n        uint _starty,\r\n        uint _endx,\r\n        uint _endy,\r\n        string memory _specialType\r\n    ) external onlyAdmin isEditable {\r\n        City storage city = cities[tokenId];\r\n        city.specialBuildingList[city.numOfSpecialBuildings] = SpecialBuilding({\r\n            specialType: _specialType,\r\n            startx: uint32(_startx),\r\n            starty: uint32(_starty),\r\n            endx: uint32(_endx),\r\n            endy: uint32(_endy)\r\n        });\r\n        city.numOfSpecialBuildings += 1;\r\n        city.money = city.money - uint64(price);\r\n    }\r\n\r\n    function startGameIncome() external onlyAdmin isEditable {\r\n        require(gameStart == 2000000000, \"Game was already started\");\r\n        gameStart = block.timestamp;\r\n        uint i = 0;\r\n        while(cities[i].owner != address(0)) {\r\n            cities[i].lastPay = gameStart;\r\n            i++;\r\n        }\r\n    }\r\n\r\n    function getIncome(uint tokenId) external onlyAdmin isEditable {\r\n        require(block.timestamp > gameStart, \"Game did not start yet.\");\r\n        require(block.timestamp - cities[tokenId].lastPay > payPeriod, \"Can't get income yet.\");\r\n\r\n        uint n = (block.timestamp - cities[tokenId].lastPay) / payPeriod;\r\n        cities[tokenId].money += uint64(n) * cities[tokenId].income;\r\n        cities[tokenId].lastPay = block.timestamp - ((block.timestamp - gameStart) % payPeriod);\r\n    }\r\n\r\n\r\n    // funkcije za dobijanje podata iz contract-a:\r\n    function getEditableState() external view returns(bool) {\r\n        return editable;\r\n    } // returns true if the cities are editable, and false if they are not\r\n\r\n\r\n    struct CityRepresentation {\r\n        address owner;\r\n        uint numOfBuildings;\r\n        uint numOfSpecialBuildings;\r\n        uint[] startx;\r\n        uint[] starty;\r\n        uint[] endx;\r\n        uint[] endy;\r\n        string[] buildingType;\r\n        uint[] level;\r\n        string[] specialType;\r\n        uint money;\r\n        uint income;\r\n        uint lastPay;\r\n    } // this is a struct used for returning values from the blockchain\r\n    function getCityData(uint tokenId) external view returns(CityRepresentation memory) {\r\n        City storage city = cities[tokenId];\r\n        uint numOfBuildings = city.numOfBuildings;\r\n        uint numOfSpecialBuildings  = city.numOfSpecialBuildings;\r\n        CityRepresentation memory r = CityRepresentation({\r\n            owner: city.owner,\r\n            numOfBuildings: numOfBuildings,\r\n            numOfSpecialBuildings: numOfSpecialBuildings,\r\n            startx: new uint[](numOfBuildings + numOfSpecialBuildings),\r\n            starty: new uint[](numOfBuildings + numOfSpecialBuildings),\r\n            endx: new uint[](numOfBuildings + numOfSpecialBuildings),\r\n            endy: new uint[](numOfBuildings + numOfSpecialBuildings),\r\n            buildingType: new string[](numOfBuildings),\r\n            level: new uint[](numOfBuildings),\r\n            specialType: new string[](numOfSpecialBuildings),\r\n            money: city.money,\r\n            income: city.income,\r\n            lastPay: (gameStart == 2000000000) ? gameStart : city.lastPay - gameStart\r\n        });\r\n        for(uint i = 0; i < numOfBuildings; i++) {  \r\n            r.startx[i] = city.buildingList[i].startx;\r\n            r.starty[i] = city.buildingList[i].starty;\r\n            r.endx[i] = city.buildingList[i].endx;\r\n            r.endy[i] = city.buildingList[i].endy;\r\n            r.buildingType[i] = typeToString[city.buildingList[i].buildingType];\r\n            r.level[i] = city.buildingList[i].level;\r\n        }\r\n        for(uint i = numOfBuildings; i < numOfSpecialBuildings + numOfBuildings; i++) {\r\n            r.startx[i] = city.specialBuildingList[i-numOfBuildings].startx;\r\n            r.starty[i] = city.specialBuildingList[i-numOfBuildings].starty;\r\n            r.endx[i] = city.specialBuildingList[i-numOfBuildings].endx;\r\n            r.endy[i] = city.specialBuildingList[i-numOfBuildings].endy;\r\n            r.specialType[i-numOfBuildings] = city.specialBuildingList[i-numOfBuildings].specialType;\r\n        }\r\n        return r;\r\n    } // returns a struct with all the data about the city with the 'tokenId' ID\r\n\r\n    function getTree() external view returns(BST.Node[] memory) {\r\n        BST.Node[] memory r = new BST.Node[](id);\r\n        for(uint i = 0; i < id; i++) {\r\n            r[i] = leaderboard[i];\r\n        }\r\n        return r;\r\n    } // returns an array of indices that correspod to the IDs of the sorted cities\r\n\r\n    function getBlockchainTime() external view returns(uint) {\r\n        return block.timestamp;\r\n    } // returns the timestamp from the blockchain\r\n\r\n\r\n    function changePayPeriod(uint _payPeriod) external onlyAdmin {\r\n        payPeriod = _payPeriod;\r\n    } // changes the time required to pass to receive income\r\n\r\n\r\n    // The following modifier is used to check if the person who called the function is the Admin\r\n    modifier onlyAdmin() {\r\n        require(msg.sender == admin, 'The caller of the function is not admin');\r\n        _;\r\n    }\r\n\r\n    // function that can change the Admin address in case a proble occurs - can be calles only by the owner\r\n    function changeAdmin(address newAdmin) external onlyOwner {\r\n        admin = newAdmin;\r\n    }\r\n\r\n    // The following modifier is used to check if the cities can be edited - they won't be editable only if a major problem occurs\r\n    modifier isEditable() {\r\n        require(editable == true, 'The blockchain database can not be edited at the moment');\r\n        _;\r\n    }\r\n\r\n    // The following function is called to restrict editing data on the blockchain\r\n    function flipEditableState() public onlyOwner {\r\n        editable = !editable;\r\n    }\r\n}",
  "sourcePath": "C:\\Users\\Dario Vajda\\OneDrive\\Desktop\\nft project\\nft\\smart_contracts\\contracts\\Gameplay.sol",
  "compiler": {
    "name": "solc",
    "version": "0.8.11+commit.d7f03943.Emscripten.clang"
  },
  "schemaVersion": "3.4.4",
  "updatedAt": "2022-03-06T17:54:01.511Z",
  "devdoc": {
    "kind": "dev",
    "methods": {
      "initializeCity(address,uint256,uint256,uint256,uint256[],uint256[],uint256[],uint256[],string[],string[],uint256)": {
        "details": "Function used for minting new City NFTs",
        "params": {
          "buildingType": "array of strings representing the buildingTypes",
          "endx": "...",
          "endy": "...",
          "income": "the calculated income for the city",
          "numOfBuildings": "number of buildings in the city",
          "numOfSpecialBuildings": "number of special buildings in the city",
          "specialType": "uint array representing the types of the special buildings",
          "startx": "arrays of coordinates for both types of buildings",
          "starty": "...",
          "tokenId": "index of the token being initialized"
        }
      },
      "owner()": {
        "details": "Returns the address of the current owner."
      },
      "renounceOwnership()": {
        "details": "Leaves the contract without owner. It will not be possible to call `onlyOwner` functions anymore. Can only be called by the current owner. NOTE: Renouncing ownership will leave the contract without an owner, thereby removing any functionality that is only available to the owner."
      },
      "transferOwnership(address)": {
        "details": "Transfers ownership of the contract to a new account (`newOwner`). Can only be called by the current owner."
      }
    },
    "version": 1
  },
  "userdoc": {
    "kind": "user",
    "methods": {},
    "version": 1
  }
}