{
  "contractName": "Gameplay",
  "abi": [
    {
      "inputs": [
        {
          "internalType": "address",
          "name": "_admin",
          "type": "address"
        }
      ],
      "stateMutability": "nonpayable",
      "type": "constructor"
    },
    {
      "anonymous": false,
      "inputs": [
        {
          "indexed": true,
          "internalType": "address",
          "name": "previousOwner",
          "type": "address"
        },
        {
          "indexed": true,
          "internalType": "address",
          "name": "newOwner",
          "type": "address"
        }
      ],
      "name": "OwnershipTransferred",
      "type": "event"
    },
    {
      "inputs": [],
      "name": "owner",
      "outputs": [
        {
          "internalType": "address",
          "name": "",
          "type": "address"
        }
      ],
      "stateMutability": "view",
      "type": "function",
      "constant": true
    },
    {
      "inputs": [],
      "name": "renounceOwnership",
      "outputs": [],
      "stateMutability": "nonpayable",
      "type": "function"
    },
    {
      "inputs": [
        {
          "internalType": "address",
          "name": "newOwner",
          "type": "address"
        }
      ],
      "name": "transferOwnership",
      "outputs": [],
      "stateMutability": "nonpayable",
      "type": "function"
    },
    {
      "inputs": [
        {
          "internalType": "address",
          "name": "owner",
          "type": "address"
        },
        {
          "internalType": "uint256",
          "name": "tokenId",
          "type": "uint256"
        },
        {
          "internalType": "uint256",
          "name": "numOfBuildings",
          "type": "uint256"
        },
        {
          "internalType": "uint256",
          "name": "numOfSpecialBuildings",
          "type": "uint256"
        },
        {
          "internalType": "uint256[]",
          "name": "startx",
          "type": "uint256[]"
        },
        {
          "internalType": "uint256[]",
          "name": "starty",
          "type": "uint256[]"
        },
        {
          "internalType": "uint256[]",
          "name": "endx",
          "type": "uint256[]"
        },
        {
          "internalType": "uint256[]",
          "name": "endy",
          "type": "uint256[]"
        },
        {
          "internalType": "string[]",
          "name": "buildingType",
          "type": "string[]"
        },
        {
          "internalType": "string[]",
          "name": "specialType",
          "type": "string[]"
        },
        {
          "internalType": "uint256",
          "name": "income",
          "type": "uint256"
        }
      ],
      "name": "initializeCity",
      "outputs": [],
      "stateMutability": "nonpayable",
      "type": "function"
    },
    {
      "inputs": [
        {
          "internalType": "uint256",
          "name": "tokenId",
          "type": "uint256"
        },
        {
          "internalType": "uint256",
          "name": "price",
          "type": "uint256"
        },
        {
          "internalType": "uint256",
          "name": "buildingIndex",
          "type": "uint256"
        }
      ],
      "name": "upgradeBuilding",
      "outputs": [],
      "stateMutability": "nonpayable",
      "type": "function"
    },
    {
      "inputs": [
        {
          "internalType": "uint256",
          "name": "tokenId",
          "type": "uint256"
        },
        {
          "internalType": "uint256",
          "name": "price",
          "type": "uint256"
        },
        {
          "internalType": "uint256",
          "name": "_startx",
          "type": "uint256"
        },
        {
          "internalType": "uint256",
          "name": "_starty",
          "type": "uint256"
        },
        {
          "internalType": "uint256",
          "name": "_endx",
          "type": "uint256"
        },
        {
          "internalType": "uint256",
          "name": "_endy",
          "type": "uint256"
        },
        {
          "internalType": "string",
          "name": "_buildingType",
          "type": "string"
        }
      ],
      "name": "addBuilding",
      "outputs": [],
      "stateMutability": "nonpayable",
      "type": "function"
    },
    {
      "inputs": [
        {
          "internalType": "uint256",
          "name": "tokenId",
          "type": "uint256"
        },
        {
          "internalType": "uint256",
          "name": "price",
          "type": "uint256"
        },
        {
          "internalType": "uint256",
          "name": "_startx",
          "type": "uint256"
        },
        {
          "internalType": "uint256",
          "name": "_starty",
          "type": "uint256"
        },
        {
          "internalType": "uint256",
          "name": "_endx",
          "type": "uint256"
        },
        {
          "internalType": "uint256",
          "name": "_endy",
          "type": "uint256"
        },
        {
          "internalType": "string",
          "name": "_specialType",
          "type": "string"
        }
      ],
      "name": "addSpecialBuilding",
      "outputs": [],
      "stateMutability": "nonpayable",
      "type": "function"
    },
    {
      "inputs": [],
      "name": "startGameIncome",
      "outputs": [],
      "stateMutability": "nonpayable",
      "type": "function"
    },
    {
      "inputs": [
        {
          "internalType": "uint256",
          "name": "tokenId",
          "type": "uint256"
        }
      ],
      "name": "getIncome",
      "outputs": [],
      "stateMutability": "nonpayable",
      "type": "function"
    },
    {
      "inputs": [],
      "name": "getEditableState",
      "outputs": [
        {
          "internalType": "bool",
          "name": "",
          "type": "bool"
        }
      ],
      "stateMutability": "view",
      "type": "function",
      "constant": true
    },
    {
      "inputs": [
        {
          "internalType": "uint256",
          "name": "tokenId",
          "type": "uint256"
        }
      ],
      "name": "getCityData",
      "outputs": [
        {
          "components": [
            {
              "internalType": "address",
              "name": "owner",
              "type": "address"
            },
            {
              "internalType": "uint256",
              "name": "numOfBuildings",
              "type": "uint256"
            },
            {
              "internalType": "uint256",
              "name": "numOfSpecialBuildings",
              "type": "uint256"
            },
            {
              "internalType": "uint256[]",
              "name": "startx",
              "type": "uint256[]"
            },
            {
              "internalType": "uint256[]",
              "name": "starty",
              "type": "uint256[]"
            },
            {
              "internalType": "uint256[]",
              "name": "endx",
              "type": "uint256[]"
            },
            {
              "internalType": "uint256[]",
              "name": "endy",
              "type": "uint256[]"
            },
            {
              "internalType": "string[]",
              "name": "buildingType",
              "type": "string[]"
            },
            {
              "internalType": "string[]",
              "name": "specialType",
              "type": "string[]"
            },
            {
              "internalType": "uint256",
              "name": "money",
              "type": "uint256"
            },
            {
              "internalType": "uint256",
              "name": "income",
              "type": "uint256"
            },
            {
              "internalType": "uint256",
              "name": "lastPay",
              "type": "uint256"
            }
          ],
          "internalType": "struct Gameplay.CityRepresentation",
          "name": "",
          "type": "tuple"
        }
      ],
      "stateMutability": "view",
      "type": "function",
      "constant": true
    },
    {
      "inputs": [],
      "name": "getBlockchainTime",
      "outputs": [
        {
          "internalType": "uint256",
          "name": "",
          "type": "uint256"
        }
      ],
      "stateMutability": "view",
      "type": "function",
      "constant": true
    },
    {
      "inputs": [
        {
          "internalType": "uint256",
          "name": "_payPeriod",
          "type": "uint256"
        }
      ],
      "name": "changePayPeriod",
      "outputs": [],
      "stateMutability": "nonpayable",
      "type": "function"
    },
    {
      "inputs": [
        {
          "internalType": "address",
          "name": "newAdmin",
          "type": "address"
        }
      ],
      "name": "changeAdmin",
      "outputs": [],
      "stateMutability": "nonpayable",
      "type": "function"
    },
    {
      "inputs": [],
      "name": "flipEditableState",
      "outputs": [],
      "stateMutability": "nonpayable",
      "type": "function"
    }
  ],
  "bytecode": "0x6080604052600a6003556001600460146101000a81548160ff02191690831515021790555063773594006005556078600655620186a0600860006101000a81548167ffffffffffffffff021916908367ffffffffffffffff1602179055503480156200006a57600080fd5b506040516200466238038062004662833981810160405281019062000090919062000a61565b620000b0620000a46200010860201b60201c565b6200011060201b60201c565b620000c0620001d460201b60201c565b80600460006101000a81548173ffffffffffffffffffffffffffffffffffffffff021916908373ffffffffffffffffffffffffffffffffffffffff1602179055505062000ed1565b600033905090565b60008060009054906101000a900473ffffffffffffffffffffffffffffffffffffffff169050816000806101000a81548173ffffffffffffffffffffffffffffffffffffffff021916908373ffffffffffffffffffffffffffffffffffffffff1602179055508173ffffffffffffffffffffffffffffffffffffffff168173ffffffffffffffffffffffffffffffffffffffff167f8be0079c531659141344cd1fd0a4f28419497f9722a3daafe3b4186f6b6457e060405160405180910390a35050565b60006001604051620001e69062000aee565b908152602001604051809103902060006101000a81548160ff0219169083600881111562000219576200021862000b05565b5b02179055506001806040516200022f9062000b84565b908152602001604051809103902060006101000a81548160ff0219169083600881111562000262576200026162000b05565b5b021790555060026001604051620002799062000beb565b908152602001604051809103902060006101000a81548160ff02191690836008811115620002ac57620002ab62000b05565b5b021790555060036001604051620002c39062000c52565b908152602001604051809103902060006101000a81548160ff02191690836008811115620002f657620002f562000b05565b5b0217905550600460016040516200030d9062000cb9565b908152602001604051809103902060006101000a81548160ff0219169083600881111562000340576200033f62000b05565b5b021790555060056001604051620003579062000d20565b908152602001604051809103902060006101000a81548160ff021916908360088111156200038a576200038962000b05565b5b021790555060066001604051620003a19062000d87565b908152602001604051809103902060006101000a81548160ff02191690836008811115620003d457620003d362000b05565b5b021790555060076001604051620003eb9062000dee565b908152602001604051809103902060006101000a81548160ff021916908360088111156200041e576200041d62000b05565b5b021790555060086001604051620004359062000e55565b908152602001604051809103902060006101000a81548160ff0219169083600881111562000468576200046762000b05565b5b02179055506040518060400160405280600781526020017f666163746f72790000000000000000000000000000000000000000000000000081525060026000806008811115620004bd57620004bc62000b05565b5b6008811115620004d257620004d162000b05565b5b81526020019081526020016000209080519060200190620004f592919062000947565b506040518060400160405280600681526020017f6f66666963650000000000000000000000000000000000000000000000000000815250600260006001600881111562000547576200054662000b05565b5b60088111156200055c576200055b62000b05565b5b815260200190815260200160002090805190602001906200057f92919062000947565b506040518060400160405280600a81526020017f72657374617572616e74000000000000000000000000000000000000000000008152506002600060026008811115620005d157620005d062000b05565b5b6008811115620005e657620005e562000b05565b5b815260200190815260200160002090805190602001906200060992919062000947565b506040518060400160405280600881526020017f6275696c64696e6700000000000000000000000000000000000000000000000081525060026000600360088111156200065b576200065a62000b05565b5b600881111562000670576200066f62000b05565b5b815260200190815260200160002090805190602001906200069392919062000947565b506040518060400160405280600581526020017f686f7573650000000000000000000000000000000000000000000000000000008152506002600060046008811115620006e557620006e462000b05565b5b6008811115620006fa57620006f962000b05565b5b815260200190815260200160002090805190602001906200071d92919062000947565b506040518060400160405280600581526020017f73746f726500000000000000000000000000000000000000000000000000000081525060026000600560088111156200076f576200076e62000b05565b5b600881111562000784576200078362000b05565b5b81526020019081526020016000209080519060200190620007a792919062000947565b506040518060400160405280600b81526020017f73757065724d61726b65740000000000000000000000000000000000000000008152506002600060066008811115620007f957620007f862000b05565b5b60088111156200080e576200080d62000b05565b5b815260200190815260200160002090805190602001906200083192919062000947565b506040518060400160405280600481526020017f7061726b00000000000000000000000000000000000000000000000000000000815250600260006007600881111562000883576200088262000b05565b5b600881111562000898576200089762000b05565b5b81526020019081526020016000209080519060200190620008bb92919062000947565b506040518060400160405280600381526020017f67796d0000000000000000000000000000000000000000000000000000000000815250600260006008808111156200090c576200090b62000b05565b5b600881111562000921576200092062000b05565b5b815260200190815260200160002090805190602001906200094492919062000947565b50565b828054620009559062000e9b565b90600052602060002090601f016020900481019282620009795760008555620009c5565b82601f106200099457805160ff1916838001178555620009c5565b82800160010185558215620009c5579182015b82811115620009c4578251825591602001919060010190620009a7565b5b509050620009d49190620009d8565b5090565b5b80821115620009f3576000816000905550600101620009d9565b5090565b600080fd5b600073ffffffffffffffffffffffffffffffffffffffff82169050919050565b600062000a2982620009fc565b9050919050565b62000a3b8162000a1c565b811462000a4757600080fd5b50565b60008151905062000a5b8162000a30565b92915050565b60006020828403121562000a7a5762000a79620009f7565b5b600062000a8a8482850162000a4a565b91505092915050565b600081905092915050565b7f666163746f727900000000000000000000000000000000000000000000000000600082015250565b600062000ad660078362000a93565b915062000ae38262000a9e565b600782019050919050565b600062000afb8262000ac7565b9150819050919050565b7f4e487b7100000000000000000000000000000000000000000000000000000000600052602160045260246000fd5b7f6f66666963650000000000000000000000000000000000000000000000000000600082015250565b600062000b6c60068362000a93565b915062000b798262000b34565b600682019050919050565b600062000b918262000b5d565b9150819050919050565b7f72657374617572616e7400000000000000000000000000000000000000000000600082015250565b600062000bd3600a8362000a93565b915062000be08262000b9b565b600a82019050919050565b600062000bf88262000bc4565b9150819050919050565b7f6275696c64696e67000000000000000000000000000000000000000000000000600082015250565b600062000c3a60088362000a93565b915062000c478262000c02565b600882019050919050565b600062000c5f8262000c2b565b9150819050919050565b7f686f757365000000000000000000000000000000000000000000000000000000600082015250565b600062000ca160058362000a93565b915062000cae8262000c69565b600582019050919050565b600062000cc68262000c92565b9150819050919050565b7f73746f7265000000000000000000000000000000000000000000000000000000600082015250565b600062000d0860058362000a93565b915062000d158262000cd0565b600582019050919050565b600062000d2d8262000cf9565b9150819050919050565b7f73757065724d61726b6574000000000000000000000000000000000000000000600082015250565b600062000d6f600b8362000a93565b915062000d7c8262000d37565b600b82019050919050565b600062000d948262000d60565b9150819050919050565b7f7061726b00000000000000000000000000000000000000000000000000000000600082015250565b600062000dd660048362000a93565b915062000de38262000d9e565b600482019050919050565b600062000dfb8262000dc7565b9150819050919050565b7f67796d0000000000000000000000000000000000000000000000000000000000600082015250565b600062000e3d60038362000a93565b915062000e4a8262000e05565b600382019050919050565b600062000e628262000e2e565b9150819050919050565b7f4e487b7100000000000000000000000000000000000000000000000000000000600052602260045260246000fd5b6000600282049050600182168062000eb457607f821691505b6020821081141562000ecb5762000eca62000e6c565b5b50919050565b6137818062000ee16000396000f3fe608060405234801561001057600080fd5b50600436106100f55760003560e01c80638da5cb5b11610097578063cc6ebc8b11610066578063cc6ebc8b14610212578063d15fe61b1461022e578063eb318ff71461024a578063f2fde38b14610266576100f5565b80638da5cb5b146101a05780638f283970146101be5780639f18f9f2146101da578063a3ef9dfa146101f6576100f5565b80636c241bb1116100d35780636c241bb1146101405780636d5dcb2b14610170578063715018a61461017a5780638579151014610184576100f5565b806323657514146100fa5780634920f9061461010457806368f9e31214610122575b600080fd5b610102610282565b005b61010c61032a565b60405161011991906123e9565b60405180910390f35b61012a610341565b604051610137919061241d565b60405180910390f35b61015a60048036038101906101559190612478565b610349565b6040516101679190612826565b60405180910390f35b610178610b9e565b005b610182610d73565b005b61019e60048036038101906101999190612478565b610dfb565b005b6101a8611095565b6040516101b59190612857565b60405180910390f35b6101d860048036038101906101d3919061289e565b6110be565b005b6101f460048036038101906101ef9190612a00565b61117e565b005b610210600480360381019061020b9190612c67565b611453565b005b61022c60048036038101906102279190612e03565b611b35565b005b61024860048036038101906102439190612eb1565b611cfa565b005b610264600480360381019061025f9190612478565b612056565b005b610280600480360381019061027b919061289e565b6120f0565b005b61028a6121e8565b73ffffffffffffffffffffffffffffffffffffffff166102a8611095565b73ffffffffffffffffffffffffffffffffffffffff16146102fe576040517f08c379a00000000000000000000000000000000000000000000000000000000081526004016102f590612fd0565b60405180910390fd5b600460149054906101000a900460ff1615600460146101000a81548160ff021916908315150217905550565b6000600460149054906101000a900460ff16905090565b600042905090565b6103516122b4565b600060076000848152602001908152602001600020905060008160030160009054906101000a900473ffffffffffffffffffffffffffffffffffffffff16905060008260020160009054906101000a900467ffffffffffffffff1667ffffffffffffffff16905060008360020160089054906101000a900467ffffffffffffffff1667ffffffffffffffff169050600081836103ed919061301f565b67ffffffffffffffff811115610406576104056128d5565b5b6040519080825280602002602001820160405280156104345781602001602082028036833780820191505090505b50905060008284610445919061301f565b67ffffffffffffffff81111561045e5761045d6128d5565b5b60405190808252806020026020018201604052801561048c5781602001602082028036833780820191505090505b5090506000838561049d919061301f565b67ffffffffffffffff8111156104b6576104b56128d5565b5b6040519080825280602002602001820160405280156104e45781602001602082028036833780820191505090505b509050600084866104f5919061301f565b67ffffffffffffffff81111561050e5761050d6128d5565b5b60405190808252806020026020018201604052801561053c5781602001602082028036833780820191505090505b50905060008667ffffffffffffffff81111561055b5761055a6128d5565b5b60405190808252806020026020018201604052801561058e57816020015b60608152602001906001900390816105795790505b50905060008667ffffffffffffffff8111156105ad576105ac6128d5565b5b6040519080825280602002602001820160405280156105e057816020015b60608152602001906001900390816105cb5790505b509050600080600080600090505b8b811015610844578d600001600082815260200190815260200160002060000160019054906101000a900463ffffffff1663ffffffff168a828151811061063857610637613075565b5b6020026020010181815250508d600001600082815260200190815260200160002060000160059054906101000a900463ffffffff1663ffffffff1689828151811061068657610685613075565b5b6020026020010181815250508d600001600082815260200190815260200160002060000160099054906101000a900463ffffffff1663ffffffff168882815181106106d4576106d3613075565b5b6020026020010181815250508d6000016000828152602001908152602001600020600001600d9054906101000a900463ffffffff1663ffffffff1687828151811061072257610721613075565b5b602002602001018181525050600260008f600001600084815260200190815260200160002060000160009054906101000a900460ff16600881111561076a576107696130a4565b5b600881111561077c5761077b6130a4565b5b8152602001908152602001600020805461079590613102565b80601f01602080910402602001604051908101604052809291908181526020018280546107c190613102565b801561080e5780601f106107e35761010080835404028352916020019161080e565b820191906000526020600020905b8154815290600101906020018083116107f157829003601f168201915b505050505086828151811061082657610825613075565b5b6020026020010181905250808061083c90613134565b9150506105ee565b5060008b90505b8b8b610857919061301f565b811015610aaa578d60010160008d83610870919061317d565b815260200190815260200160002060010160009054906101000a900463ffffffff1663ffffffff168a82815181106108ab576108aa613075565b5b6020026020010181815250508d60010160008d836108c9919061317d565b815260200190815260200160002060010160049054906101000a900463ffffffff1663ffffffff1689828151811061090457610903613075565b5b6020026020010181815250508d60010160008d83610922919061317d565b815260200190815260200160002060010160089054906101000a900463ffffffff1663ffffffff1688828151811061095d5761095c613075565b5b6020026020010181815250508d60010160008d8361097b919061317d565b8152602001908152602001600020600101600c9054906101000a900463ffffffff1663ffffffff168782815181106109b6576109b5613075565b5b6020026020010181815250508d60010160008d836109d4919061317d565b815260200190815260200160002060000180546109f090613102565b80601f0160208091040260200160405190810160405280929190818152602001828054610a1c90613102565b8015610a695780601f10610a3e57610100808354040283529160200191610a69565b820191906000526020600020905b815481529060010190602001808311610a4c57829003601f168201915b5050505050858d83610a7b919061317d565b81518110610a8c57610a8b613075565b5b60200260200101819052508080610aa290613134565b91505061084b565b508c60020160189054906101000a900467ffffffffffffffff1667ffffffffffffffff1691508c60020160109054906101000a900467ffffffffffffffff1667ffffffffffffffff16925063773594006005541415610b0d576005549050610b22565b6005548d60040154610b1f919061317d565b90505b6040518061018001604052808d73ffffffffffffffffffffffffffffffffffffffff1681526020018c81526020018b81526020018a8152602001898152602001888152602001878152602001868152602001858152602001848152602001838152602001828152509d5050505050505050505050505050919050565b600460009054906101000a900473ffffffffffffffffffffffffffffffffffffffff1673ffffffffffffffffffffffffffffffffffffffff163373ffffffffffffffffffffffffffffffffffffffff1614610c2e576040517f08c379a0000000000000000000000000000000000000000000000000000000008152600401610c2590613223565b60405180910390fd5b60011515600460149054906101000a900460ff16151514610c84576040517f08c379a0000000000000000000000000000000000000000000000000000000008152600401610c7b906132b5565b60405180910390fd5b637735940060055414610ccc576040517f08c379a0000000000000000000000000000000000000000000000000000000008152600401610cc390613321565b60405180910390fd5b4260058190555060005b600073ffffffffffffffffffffffffffffffffffffffff166007600083815260200190815260200160002060030160009054906101000a900473ffffffffffffffffffffffffffffffffffffffff1673ffffffffffffffffffffffffffffffffffffffff1614610d705760055460076000838152602001908152602001600020600401819055508080610d6890613134565b915050610cd6565b50565b610d7b6121e8565b73ffffffffffffffffffffffffffffffffffffffff16610d99611095565b73ffffffffffffffffffffffffffffffffffffffff1614610def576040517f08c379a0000000000000000000000000000000000000000000000000000000008152600401610de690612fd0565b60405180910390fd5b610df960006121f0565b565b600460009054906101000a900473ffffffffffffffffffffffffffffffffffffffff1673ffffffffffffffffffffffffffffffffffffffff163373ffffffffffffffffffffffffffffffffffffffff1614610e8b576040517f08c379a0000000000000000000000000000000000000000000000000000000008152600401610e8290613223565b60405180910390fd5b60011515600460149054906101000a900460ff16151514610ee1576040517f08c379a0000000000000000000000000000000000000000000000000000000008152600401610ed8906132b5565b60405180910390fd5b6005544211610f25576040517f08c379a0000000000000000000000000000000000000000000000000000000008152600401610f1c9061338d565b60405180910390fd5b600654600760008381526020019081526020016000206004015442610f4a919061317d565b11610f8a576040517f08c379a0000000000000000000000000000000000000000000000000000000008152600401610f81906133f9565b60405180910390fd5b6000600654600760008481526020019081526020016000206004015442610fb1919061317d565b610fbb9190613448565b90506007600083815260200190815260200160002060020160189054906101000a900467ffffffffffffffff1681610ff3919061348d565b6007600084815260200190815260200160002060020160108282829054906101000a900467ffffffffffffffff1661102b91906134cf565b92506101000a81548167ffffffffffffffff021916908367ffffffffffffffff16021790555060065460055442611062919061317d565b61106c919061350d565b42611077919061317d565b60076000848152602001908152602001600020600401819055505050565b60008060009054906101000a900473ffffffffffffffffffffffffffffffffffffffff16905090565b6110c66121e8565b73ffffffffffffffffffffffffffffffffffffffff166110e4611095565b73ffffffffffffffffffffffffffffffffffffffff161461113a576040517f08c379a000000000000000000000000000000000000000000000000000000000815260040161113190612fd0565b60405180910390fd5b80600460006101000a81548173ffffffffffffffffffffffffffffffffffffffff021916908373ffffffffffffffffffffffffffffffffffffffff16021790555050565b600460009054906101000a900473ffffffffffffffffffffffffffffffffffffffff1673ffffffffffffffffffffffffffffffffffffffff163373ffffffffffffffffffffffffffffffffffffffff161461120e576040517f08c379a000000000000000000000000000000000000000000000000000000000815260040161120590613223565b60405180910390fd5b60011515600460149054906101000a900460ff16151514611264576040517f08c379a000000000000000000000000000000000000000000000000000000000815260040161125b906132b5565b60405180910390fd5b60006007600089815260200190815260200160002090506040518060a001604052808381526020018763ffffffff1681526020018663ffffffff1681526020018563ffffffff1681526020018463ffffffff168152508160010160008360020160089054906101000a900467ffffffffffffffff1667ffffffffffffffff168152602001908152602001600020600082015181600001908051906020019061130d92919061232b565b5060208201518160010160006101000a81548163ffffffff021916908363ffffffff16021790555060408201518160010160046101000a81548163ffffffff021916908363ffffffff16021790555060608201518160010160086101000a81548163ffffffff021916908363ffffffff160217905550608082015181600101600c6101000a81548163ffffffff021916908363ffffffff16021790555090505060018160020160088282829054906101000a900467ffffffffffffffff166113d591906134cf565b92506101000a81548167ffffffffffffffff021916908367ffffffffffffffff160217905550868160020160109054906101000a900467ffffffffffffffff1661141f919061353e565b8160020160106101000a81548167ffffffffffffffff021916908367ffffffffffffffff1602179055505050505050505050565b600460009054906101000a900473ffffffffffffffffffffffffffffffffffffffff1673ffffffffffffffffffffffffffffffffffffffff163373ffffffffffffffffffffffffffffffffffffffff16146114e3576040517f08c379a00000000000000000000000000000000000000000000000000000000081526004016114da90613223565b60405180910390fd5b60011515600460149054906101000a900460ff16151514611539576040517f08c379a0000000000000000000000000000000000000000000000000000000008152600401611530906132b5565b60405180910390fd5b600073ffffffffffffffffffffffffffffffffffffffff16600760008c815260200190815260200160002060030160009054906101000a900473ffffffffffffffffffffffffffffffffffffffff1673ffffffffffffffffffffffffffffffffffffffff16146115de576040517f08c379a00000000000000000000000000000000000000000000000000000000081526004016115d5906135be565b60405180910390fd5b6000600760008c8152602001908152602001600020905060005b8a8110156117dc5788818151811061161357611612613075565b5b602002602001015182600001600083815260200190815260200160002060000160016101000a81548163ffffffff021916908363ffffffff16021790555087818151811061166457611663613075565b5b602002602001015182600001600083815260200190815260200160002060000160056101000a81548163ffffffff021916908363ffffffff1602179055508681815181106116b5576116b4613075565b5b602002602001015182600001600083815260200190815260200160002060000160096101000a81548163ffffffff021916908363ffffffff16021790555085818151811061170657611705613075565b5b6020026020010151826000016000838152602001908152602001600020600001600d6101000a81548163ffffffff021916908363ffffffff160217905550600185828151811061175957611758613075565b5b602002602001015160405161176e919061361a565b908152602001604051809103902060009054906101000a900460ff1682600001600083815260200190815260200160002060000160006101000a81548160ff021916908360088111156117c4576117c36130a4565b5b021790555080806117d490613134565b9150506115f8565b5060008a90505b8a8a6117ef919061301f565b8110156119d65788818151811061180957611808613075565b5b60200260200101518260010160008d84611823919061317d565b815260200190815260200160002060010160006101000a81548163ffffffff021916908363ffffffff16021790555087818151811061186557611864613075565b5b60200260200101518260010160008d8461187f919061317d565b815260200190815260200160002060010160046101000a81548163ffffffff021916908363ffffffff1602179055508681815181106118c1576118c0613075565b5b60200260200101518260010160008d846118db919061317d565b815260200190815260200160002060010160086101000a81548163ffffffff021916908363ffffffff16021790555085818151811061191d5761191c613075565b5b60200260200101518260010160008d84611937919061317d565b8152602001908152602001600020600101600c6101000a81548163ffffffff021916908363ffffffff160217905550838b82611973919061317d565b8151811061198457611983613075565b5b60200260200101518260010160008d8461199e919061317d565b815260200190815260200160002060000190805190602001906119c292919061232b565b5080806119ce90613134565b9150506117e3565b50898160020160006101000a81548167ffffffffffffffff021916908367ffffffffffffffff160217905550888160020160086101000a81548167ffffffffffffffff021916908367ffffffffffffffff160217905550818160020160186101000a81548167ffffffffffffffff021916908367ffffffffffffffff160217905550600860009054906101000a900467ffffffffffffffff168160020160106101000a81548167ffffffffffffffff021916908367ffffffffffffffff1602179055508b8160030160006101000a81548173ffffffffffffffffffffffffffffffffffffffff021916908373ffffffffffffffffffffffffffffffffffffffff160217905550637735940060055414611b1c5760065460055442611afa919061317d565b611b04919061350d565b42611b0f919061317d565b8160040181905550611b27565b600081600401819055505b505050505050505050505050565b600460009054906101000a900473ffffffffffffffffffffffffffffffffffffffff1673ffffffffffffffffffffffffffffffffffffffff163373ffffffffffffffffffffffffffffffffffffffff1614611bc5576040517f08c379a0000000000000000000000000000000000000000000000000000000008152600401611bbc90613223565b60405180910390fd5b60011515600460149054906101000a900460ff16151514611c1b576040517f08c379a0000000000000000000000000000000000000000000000000000000008152600401611c12906132b5565b60405180910390fd5b600160076000858152602001908152602001600020600001600083815260200190815260200160002060000160118282829054906101000a900463ffffffff16611c659190613641565b92506101000a81548163ffffffff021916908363ffffffff160217905550816007600085815260200190815260200160002060020160109054906101000a900467ffffffffffffffff16611cb9919061353e565b6007600085815260200190815260200160002060020160106101000a81548167ffffffffffffffff021916908367ffffffffffffffff160217905550505050565b600460009054906101000a900473ffffffffffffffffffffffffffffffffffffffff1673ffffffffffffffffffffffffffffffffffffffff163373ffffffffffffffffffffffffffffffffffffffff1614611d8a576040517f08c379a0000000000000000000000000000000000000000000000000000000008152600401611d8190613223565b60405180910390fd5b60011515600460149054906101000a900460ff16151514611de0576040517f08c379a0000000000000000000000000000000000000000000000000000000008152600401611dd7906132b5565b60405180910390fd5b6000600760008a815260200190815260200160002090506040518060c0016040528060018585604051611e149291906136a0565b908152602001604051809103902060009054906101000a900460ff166008811115611e4257611e416130a4565b5b81526020018863ffffffff1681526020018763ffffffff1681526020018663ffffffff1681526020018563ffffffff168152602001600063ffffffff168152508160000160008360020160009054906101000a900467ffffffffffffffff1667ffffffffffffffff16815260200190815260200160002060008201518160000160006101000a81548160ff02191690836008811115611ee457611ee36130a4565b5b021790555060208201518160000160016101000a81548163ffffffff021916908363ffffffff16021790555060408201518160000160056101000a81548163ffffffff021916908363ffffffff16021790555060608201518160000160096101000a81548163ffffffff021916908363ffffffff160217905550608082015181600001600d6101000a81548163ffffffff021916908363ffffffff16021790555060a08201518160000160116101000a81548163ffffffff021916908363ffffffff16021790555090505060018160020160008282829054906101000a900467ffffffffffffffff16611fd791906134cf565b92506101000a81548167ffffffffffffffff021916908367ffffffffffffffff160217905550878160020160109054906101000a900467ffffffffffffffff16612021919061353e565b8160020160106101000a81548167ffffffffffffffff021916908367ffffffffffffffff160217905550505050505050505050565b600460009054906101000a900473ffffffffffffffffffffffffffffffffffffffff1673ffffffffffffffffffffffffffffffffffffffff163373ffffffffffffffffffffffffffffffffffffffff16146120e6576040517f08c379a00000000000000000000000000000000000000000000000000000000081526004016120dd90613223565b60405180910390fd5b8060068190555050565b6120f86121e8565b73ffffffffffffffffffffffffffffffffffffffff16612116611095565b73ffffffffffffffffffffffffffffffffffffffff161461216c576040517f08c379a000000000000000000000000000000000000000000000000000000000815260040161216390612fd0565b60405180910390fd5b600073ffffffffffffffffffffffffffffffffffffffff168173ffffffffffffffffffffffffffffffffffffffff1614156121dc576040517f08c379a00000000000000000000000000000000000000000000000000000000081526004016121d39061372b565b60405180910390fd5b6121e5816121f0565b50565b600033905090565b60008060009054906101000a900473ffffffffffffffffffffffffffffffffffffffff169050816000806101000a81548173ffffffffffffffffffffffffffffffffffffffff021916908373ffffffffffffffffffffffffffffffffffffffff1602179055508173ffffffffffffffffffffffffffffffffffffffff168173ffffffffffffffffffffffffffffffffffffffff167f8be0079c531659141344cd1fd0a4f28419497f9722a3daafe3b4186f6b6457e060405160405180910390a35050565b604051806101800160405280600073ffffffffffffffffffffffffffffffffffffffff16815260200160008152602001600081526020016060815260200160608152602001606081526020016060815260200160608152602001606081526020016000815260200160008152602001600081525090565b82805461233790613102565b90600052602060002090601f01602090048101928261235957600085556123a0565b82601f1061237257805160ff19168380011785556123a0565b828001600101855582156123a0579182015b8281111561239f578251825591602001919060010190612384565b5b5090506123ad91906123b1565b5090565b5b808211156123ca5760008160009055506001016123b2565b5090565b60008115159050919050565b6123e3816123ce565b82525050565b60006020820190506123fe60008301846123da565b92915050565b6000819050919050565b61241781612404565b82525050565b6000602082019050612432600083018461240e565b92915050565b6000604051905090565b600080fd5b600080fd5b61245581612404565b811461246057600080fd5b50565b6000813590506124728161244c565b92915050565b60006020828403121561248e5761248d612442565b5b600061249c84828501612463565b91505092915050565b600073ffffffffffffffffffffffffffffffffffffffff82169050919050565b60006124d0826124a5565b9050919050565b6124e0816124c5565b82525050565b6124ef81612404565b82525050565b600081519050919050565b600082825260208201905092915050565b6000819050602082019050919050565b600061252d83836124e6565b60208301905092915050565b6000602082019050919050565b6000612551826124f5565b61255b8185612500565b935061256683612511565b8060005b8381101561259757815161257e8882612521565b975061258983612539565b92505060018101905061256a565b5085935050505092915050565b600081519050919050565b600082825260208201905092915050565b6000819050602082019050919050565b600081519050919050565b600082825260208201905092915050565b60005b8381101561260a5780820151818401526020810190506125ef565b83811115612619576000848401525b50505050565b6000601f19601f8301169050919050565b600061263b826125d0565b61264581856125db565b93506126558185602086016125ec565b61265e8161261f565b840191505092915050565b60006126758383612630565b905092915050565b6000602082019050919050565b6000612695826125a4565b61269f81856125af565b9350836020820285016126b1856125c0565b8060005b858110156126ed57848403895281516126ce8582612669565b94506126d98361267d565b925060208a019950506001810190506126b5565b50829750879550505050505092915050565b60006101808301600083015161271860008601826124d7565b50602083015161272b60208601826124e6565b50604083015161273e60408601826124e6565b50606083015184820360608601526127568282612546565b915050608083015184820360808601526127708282612546565b91505060a083015184820360a086015261278a8282612546565b91505060c083015184820360c08601526127a48282612546565b91505060e083015184820360e08601526127be828261268a565b9150506101008301518482036101008601526127da828261268a565b9150506101208301516127f16101208601826124e6565b506101408301516128066101408601826124e6565b5061016083015161281b6101608601826124e6565b508091505092915050565b6000602082019050818103600083015261284081846126ff565b905092915050565b612851816124c5565b82525050565b600060208201905061286c6000830184612848565b92915050565b61287b816124c5565b811461288657600080fd5b50565b60008135905061289881612872565b92915050565b6000602082840312156128b4576128b3612442565b5b60006128c284828501612889565b91505092915050565b600080fd5b600080fd5b7f4e487b7100000000000000000000000000000000000000000000000000000000600052604160045260246000fd5b61290d8261261f565b810181811067ffffffffffffffff8211171561292c5761292b6128d5565b5b80604052505050565b600061293f612438565b905061294b8282612904565b919050565b600067ffffffffffffffff82111561296b5761296a6128d5565b5b6129748261261f565b9050602081019050919050565b82818337600083830152505050565b60006129a361299e84612950565b612935565b9050828152602081018484840111156129bf576129be6128d0565b5b6129ca848285612981565b509392505050565b600082601f8301126129e7576129e66128cb565b5b81356129f7848260208601612990565b91505092915050565b600080600080600080600060e0888a031215612a1f57612a1e612442565b5b6000612a2d8a828b01612463565b9750506020612a3e8a828b01612463565b9650506040612a4f8a828b01612463565b9550506060612a608a828b01612463565b9450506080612a718a828b01612463565b93505060a0612a828a828b01612463565b92505060c088013567ffffffffffffffff811115612aa357612aa2612447565b5b612aaf8a828b016129d2565b91505092959891949750929550565b600067ffffffffffffffff821115612ad957612ad86128d5565b5b602082029050602081019050919050565b600080fd5b6000612b02612afd84612abe565b612935565b90508083825260208201905060208402830185811115612b2557612b24612aea565b5b835b81811015612b4e5780612b3a8882612463565b845260208401935050602081019050612b27565b5050509392505050565b600082601f830112612b6d57612b6c6128cb565b5b8135612b7d848260208601612aef565b91505092915050565b600067ffffffffffffffff821115612ba157612ba06128d5565b5b602082029050602081019050919050565b6000612bc5612bc084612b86565b612935565b90508083825260208201905060208402830185811115612be857612be7612aea565b5b835b81811015612c2f57803567ffffffffffffffff811115612c0d57612c0c6128cb565b5b808601612c1a89826129d2565b85526020850194505050602081019050612bea565b5050509392505050565b600082601f830112612c4e57612c4d6128cb565b5b8135612c5e848260208601612bb2565b91505092915050565b60008060008060008060008060008060006101608c8e031215612c8d57612c8c612442565b5b6000612c9b8e828f01612889565b9b50506020612cac8e828f01612463565b9a50506040612cbd8e828f01612463565b9950506060612cce8e828f01612463565b98505060808c013567ffffffffffffffff811115612cef57612cee612447565b5b612cfb8e828f01612b58565b97505060a08c013567ffffffffffffffff811115612d1c57612d1b612447565b5b612d288e828f01612b58565b96505060c08c013567ffffffffffffffff811115612d4957612d48612447565b5b612d558e828f01612b58565b95505060e08c013567ffffffffffffffff811115612d7657612d75612447565b5b612d828e828f01612b58565b9450506101008c013567ffffffffffffffff811115612da457612da3612447565b5b612db08e828f01612c39565b9350506101208c013567ffffffffffffffff811115612dd257612dd1612447565b5b612dde8e828f01612c39565b925050610140612df08e828f01612463565b9150509295989b509295989b9093969950565b600080600060608486031215612e1c57612e1b612442565b5b6000612e2a86828701612463565b9350506020612e3b86828701612463565b9250506040612e4c86828701612463565b9150509250925092565b600080fd5b60008083601f840112612e7157612e706128cb565b5b8235905067ffffffffffffffff811115612e8e57612e8d612e56565b5b602083019150836001820283011115612eaa57612ea9612aea565b5b9250929050565b60008060008060008060008060e0898b031215612ed157612ed0612442565b5b6000612edf8b828c01612463565b9850506020612ef08b828c01612463565b9750506040612f018b828c01612463565b9650506060612f128b828c01612463565b9550506080612f238b828c01612463565b94505060a0612f348b828c01612463565b93505060c089013567ffffffffffffffff811115612f5557612f54612447565b5b612f618b828c01612e5b565b92509250509295985092959890939650565b600082825260208201905092915050565b7f4f776e61626c653a2063616c6c6572206973206e6f7420746865206f776e6572600082015250565b6000612fba602083612f73565b9150612fc582612f84565b602082019050919050565b60006020820190508181036000830152612fe981612fad565b9050919050565b7f4e487b7100000000000000000000000000000000000000000000000000000000600052601160045260246000fd5b600061302a82612404565b915061303583612404565b9250827fffffffffffffffffffffffffffffffffffffffffffffffffffffffffffffffff0382111561306a57613069612ff0565b5b828201905092915050565b7f4e487b7100000000000000000000000000000000000000000000000000000000600052603260045260246000fd5b7f4e487b7100000000000000000000000000000000000000000000000000000000600052602160045260246000fd5b7f4e487b7100000000000000000000000000000000000000000000000000000000600052602260045260246000fd5b6000600282049050600182168061311a57607f821691505b6020821081141561312e5761312d6130d3565b5b50919050565b600061313f82612404565b91507fffffffffffffffffffffffffffffffffffffffffffffffffffffffffffffffff82141561317257613171612ff0565b5b600182019050919050565b600061318882612404565b915061319383612404565b9250828210156131a6576131a5612ff0565b5b828203905092915050565b7f5468652063616c6c6572206f66207468652066756e6374696f6e206973206e6f60008201527f742061646d696e00000000000000000000000000000000000000000000000000602082015250565b600061320d602783612f73565b9150613218826131b1565b604082019050919050565b6000602082019050818103600083015261323c81613200565b9050919050565b7f54686520626c6f636b636861696e2064617461626173652063616e206e6f742060008201527f62652065646974656420617420746865206d6f6d656e74000000000000000000602082015250565b600061329f603783612f73565b91506132aa82613243565b604082019050919050565b600060208201905081810360008301526132ce81613292565b9050919050565b7f47616d652077617320616c726561647920737461727465640000000000000000600082015250565b600061330b601883612f73565b9150613316826132d5565b602082019050919050565b6000602082019050818103600083015261333a816132fe565b9050919050565b7f47616d6520646964206e6f74207374617274207965742e000000000000000000600082015250565b6000613377601783612f73565b915061338282613341565b602082019050919050565b600060208201905081810360008301526133a68161336a565b9050919050565b7f43616e27742067657420696e636f6d65207965742e0000000000000000000000600082015250565b60006133e3601583612f73565b91506133ee826133ad565b602082019050919050565b60006020820190508181036000830152613412816133d6565b9050919050565b7f4e487b7100000000000000000000000000000000000000000000000000000000600052601260045260246000fd5b600061345382612404565b915061345e83612404565b92508261346e5761346d613419565b5b828204905092915050565b600067ffffffffffffffff82169050919050565b600061349882613479565b91506134a383613479565b92508167ffffffffffffffff04831182151516156134c4576134c3612ff0565b5b828202905092915050565b60006134da82613479565b91506134e583613479565b92508267ffffffffffffffff0382111561350257613501612ff0565b5b828201905092915050565b600061351882612404565b915061352383612404565b92508261353357613532613419565b5b828206905092915050565b600061354982613479565b915061355483613479565b92508282101561356757613566612ff0565b5b828203905092915050565b7f4369747920697320616c726561647920696e697469616c697a65640000000000600082015250565b60006135a8601b83612f73565b91506135b382613572565b602082019050919050565b600060208201905081810360008301526135d78161359b565b9050919050565b600081905092915050565b60006135f4826125d0565b6135fe81856135de565b935061360e8185602086016125ec565b80840191505092915050565b600061362682846135e9565b915081905092915050565b600063ffffffff82169050919050565b600061364c82613631565b915061365783613631565b92508263ffffffff038211156136705761366f612ff0565b5b828201905092915050565b600061368783856135de565b9350613694838584612981565b82840190509392505050565b60006136ad82848661367b565b91508190509392505050565b7f4f776e61626c653a206e6577206f776e657220697320746865207a65726f206160008201527f6464726573730000000000000000000000000000000000000000000000000000602082015250565b6000613715602683612f73565b9150613720826136b9565b604082019050919050565b6000602082019050818103600083015261374481613708565b905091905056fea26469706673582212206cb62b2bc2f13159f1c56461d0f28dd2e38d50999a22efa3933424891bc43f4c64736f6c634300080b0033",
  "immutableReferences": {},
  "source": "// SPDX-License-Identifier: MIT\r\npragma solidity ^0.8.11;\r\n\r\nimport \"../node_modules/@openzeppelin/contracts/access/Ownable.sol\";\r\n\r\n// there are no checks if the request are valid or possible, it should be done in the backend.\r\n// maybe later it will be added here too, but for now it is not necessary since only the admin can call the functions\r\n\r\ncontract Gameplay is Ownable {\r\n\r\n    constructor(address _admin) {\r\n        initStringToType();\r\n        admin = _admin;\r\n    }\r\n\r\n\r\n    enum BuildingTypes {\r\n        Factory,\r\n        Office,\r\n        Restaurant,\r\n        Building,\r\n        House,\r\n        Store,\r\n        SuperMarket,\r\n        Park,\r\n        Gym\r\n    }\r\n\r\n    mapping(string => BuildingTypes) stringToType;\r\n    mapping(BuildingTypes => string) typeToString;\r\n    uint numOfBuildingTypes = 10;\r\n    function initStringToType() private {\r\n        stringToType[\"factory\"] = BuildingTypes.Factory;\r\n        stringToType[\"office\"] = BuildingTypes.Office;\r\n        stringToType[\"restaurant\"] = BuildingTypes.Restaurant;\r\n        stringToType[\"building\"] = BuildingTypes.Building;\r\n        stringToType[\"house\"] = BuildingTypes.House;\r\n        stringToType[\"store\"] = BuildingTypes.Store;\r\n        stringToType[\"superMarket\"] = BuildingTypes.SuperMarket;\r\n        stringToType[\"park\"] = BuildingTypes.Park;\r\n        stringToType[\"gym\"] = BuildingTypes.Gym;\r\n\r\n        typeToString[BuildingTypes.Factory] = \"factory\";\r\n        typeToString[BuildingTypes.Office] = \"office\";\r\n        typeToString[BuildingTypes.Restaurant] = \"restaurant\";\r\n        typeToString[BuildingTypes.Building] = \"building\";\r\n        typeToString[BuildingTypes.House] = \"house\";\r\n        typeToString[BuildingTypes.Store] = \"store\";\r\n        typeToString[BuildingTypes.SuperMarket] = \"superMarket\";\r\n        typeToString[BuildingTypes.Park] = \"park\";\r\n        typeToString[BuildingTypes.Gym] = \"gym\";\r\n    }\r\n    \r\n    struct Building {\r\n        BuildingTypes buildingType;\r\n        uint32 startx;\r\n        uint32 starty;\r\n        uint32 endx;\r\n        uint32 endy;\r\n        uint32 level;\r\n    } // occupies 1 block of 256 bytes\r\n\r\n    struct SpecialBuilding {\r\n        string specialType;\r\n        uint32 startx;\r\n        uint32 starty;\r\n        uint32 endx;\r\n        uint32 endy;\r\n    } // occupies 2 block of 256 bytes\r\n\r\n    struct City {\r\n        mapping(uint => Building) buildingList;\r\n        mapping(uint => SpecialBuilding) specialBuildingList;\r\n        uint64 numOfBuildings;\r\n        uint64 numOfSpecialBuildings;\r\n        uint64 money;\r\n        uint64 income;\r\n        address owner;\r\n        uint lastPay;\r\n    } // occupies ( 3 + numOfBuildings + numOfSpecialBuildings ) blocks of 256 bytes in total\r\n\r\n\r\n    address admin;\r\n    bool editable = true;\r\n    uint gameStart = 2000000000;\r\n    uint payPeriod = 120; // 1 day = 86400\r\n\r\n    mapping(uint => City) cities; // map (array) containing all the data about the City NFTs\r\n    uint64 startingMoney = 100000; // the amount of in-game money everyone has right after minting\r\n\r\n\r\n    /**\r\n     * @dev Function used for minting new City NFTs\r\n     * @param tokenId index of the token being initialized\r\n     * @param numOfBuildings number of buildings in the city\r\n     * @param numOfSpecialBuildings number of special buildings in the city\r\n     * @param startx arrays of coordinates for both types of buildings\r\n     * @param starty ...\r\n     * @param endx ...\r\n     * @param endy ...\r\n     * @param buildingType array of strings representing the buildingTypes\r\n     * @param specialType uint array representing the types of the special buildings\r\n     * @param income the calculated income for the city\r\n     */\r\n    function initializeCity(\r\n        address owner,\r\n        uint tokenId,\r\n        uint numOfBuildings,\r\n        uint numOfSpecialBuildings,\r\n        uint[] memory startx,\r\n        uint[] memory starty,\r\n        uint[] memory endx,\r\n        uint[] memory endy,\r\n        string[] memory buildingType,\r\n        string[] memory specialType,\r\n        uint income\r\n    ) external onlyAdmin isEditable {\r\n        require(cities[tokenId].owner == address(0), \"City is already initialized\");\r\n        \r\n        City storage city = cities[tokenId];\r\n        for(uint i = 0; i < numOfBuildings; i++) {\r\n            city.buildingList[i].startx = uint32(startx[i]);\r\n            city.buildingList[i].starty = uint32(starty[i]);\r\n            city.buildingList[i].endx = uint32(endx[i]);\r\n            city.buildingList[i].endy = uint32(endy[i]);\r\n            city.buildingList[i].buildingType = stringToType[buildingType[i]];\r\n        }\r\n        for(uint i = numOfBuildings; i < numOfSpecialBuildings + numOfBuildings; i++) {\r\n            city.specialBuildingList[i-numOfBuildings].startx = uint32(startx[i]);\r\n            city.specialBuildingList[i-numOfBuildings].starty = uint32(starty[i]);\r\n            city.specialBuildingList[i-numOfBuildings].endx = uint32(endx[i]);\r\n            city.specialBuildingList[i-numOfBuildings].endy = uint32(endy[i]);\r\n            city.specialBuildingList[i-numOfBuildings].specialType = specialType[i-numOfBuildings];\r\n        }\r\n        city.numOfBuildings = uint64(numOfBuildings);\r\n        city.numOfSpecialBuildings = uint64(numOfSpecialBuildings);\r\n        city.income = uint64(income);\r\n        city.money = startingMoney;\r\n        city.owner = owner;\r\n        if(gameStart != 2000000000) city.lastPay = block.timestamp - ((block.timestamp - gameStart) % payPeriod);\r\n        else city.lastPay = 0;\r\n    }\r\n    \r\n    // ________________________________________________________________________\r\n    // functions that change the cities:\r\n    function upgradeBuilding(uint tokenId, uint price, uint buildingIndex) external onlyAdmin isEditable {\r\n        cities[tokenId].buildingList[buildingIndex].level += 1;\r\n        cities[tokenId].money = cities[tokenId].money - uint64(price);\r\n    }\r\n\r\n    function addBuilding(\r\n        uint tokenId,\r\n        uint price,\r\n        uint _startx,\r\n        uint _starty,\r\n        uint _endx,\r\n        uint _endy,\r\n        string calldata _buildingType\r\n    ) external onlyAdmin isEditable {\r\n        City storage city = cities[tokenId];\r\n        city.buildingList[city.numOfBuildings] = Building({\r\n            buildingType: stringToType[_buildingType],\r\n            startx: uint32(_startx),\r\n            starty: uint32(_starty),\r\n            endx: uint32(_endx),\r\n            endy: uint32(_endy),\r\n            level: 0\r\n        });\r\n        city.numOfBuildings += 1;\r\n        city.money = city.money - uint64(price);\r\n    }\r\n\r\n    function addSpecialBuilding(\r\n        uint tokenId,\r\n        uint price,\r\n        uint _startx,\r\n        uint _starty,\r\n        uint _endx,\r\n        uint _endy,\r\n        string memory _specialType\r\n    ) external onlyAdmin isEditable {\r\n        City storage city = cities[tokenId];\r\n        city.specialBuildingList[city.numOfSpecialBuildings] = SpecialBuilding({\r\n            specialType: _specialType,\r\n            startx: uint32(_startx),\r\n            starty: uint32(_starty),\r\n            endx: uint32(_endx),\r\n            endy: uint32(_endy)\r\n        });\r\n        city.numOfSpecialBuildings += 1;\r\n        city.money = city.money - uint64(price);\r\n    }\r\n\r\n    function startGameIncome() external onlyAdmin isEditable {\r\n        require(gameStart == 2000000000, \"Game was already started\");\r\n        gameStart = block.timestamp;\r\n        uint i = 0;\r\n        while(cities[i].owner != address(0)) {\r\n            cities[i].lastPay = gameStart;\r\n            i++;\r\n        }\r\n    }\r\n\r\n    function getIncome(uint tokenId) external onlyAdmin isEditable {\r\n        require(block.timestamp > gameStart, \"Game did not start yet.\");\r\n        require(block.timestamp - cities[tokenId].lastPay > payPeriod, \"Can't get income yet.\");\r\n\r\n        uint n = (block.timestamp - cities[tokenId].lastPay) / payPeriod;\r\n        cities[tokenId].money += uint64(n) * cities[tokenId].income;\r\n        cities[tokenId].lastPay = block.timestamp - ((block.timestamp - gameStart) % payPeriod);\r\n    }\r\n\r\n\r\n    // funkcije za dobijanje podata iz contract-a:\r\n    function getEditableState() external view returns(bool) {\r\n        return editable;\r\n    } // returns true if the cities are editable, and false if they are not\r\n\r\n\r\n    struct CityRepresentation {\r\n        address owner;\r\n        uint numOfBuildings;\r\n        uint numOfSpecialBuildings;\r\n        uint[] startx;\r\n        uint[] starty;\r\n        uint[] endx;\r\n        uint[] endy;\r\n        string[] buildingType;\r\n        string[] specialType;\r\n        uint money;\r\n        uint income;\r\n        uint lastPay;\r\n    } // this is a struct used for returning values from the blockchain\r\n    function getCityData(uint tokenId) external view returns(CityRepresentation memory) {\r\n        City storage city = cities[tokenId];\r\n        address owner = city.owner;\r\n        uint numOfBuildings = city.numOfBuildings;\r\n        uint numOfSpecialBuildings  = city.numOfSpecialBuildings;\r\n        uint[] memory startx = new uint[](numOfBuildings + numOfSpecialBuildings);\r\n        uint[] memory starty = new uint[](numOfBuildings + numOfSpecialBuildings);\r\n        uint[] memory endx = new uint[](numOfBuildings + numOfSpecialBuildings);\r\n        uint[] memory endy = new uint[](numOfBuildings + numOfSpecialBuildings);\r\n        string[] memory buildingType = new string[](numOfBuildings);\r\n        string[] memory specialType = new string[](numOfSpecialBuildings);\r\n        uint money;\r\n        uint income;\r\n        uint lastPay;\r\n        for(uint i = 0; i < numOfBuildings; i++) {\r\n            startx[i] = city.buildingList[i].startx;\r\n            starty[i] = city.buildingList[i].starty;\r\n            endx[i] = city.buildingList[i].endx;\r\n            endy[i] = city.buildingList[i].endy;\r\n            buildingType[i] = typeToString[city.buildingList[i].buildingType];\r\n        }\r\n        for(uint i = numOfBuildings; i < numOfSpecialBuildings + numOfBuildings; i++) {\r\n            startx[i] = city.specialBuildingList[i-numOfBuildings].startx;\r\n            starty[i] = city.specialBuildingList[i-numOfBuildings].starty;\r\n            endx[i] = city.specialBuildingList[i-numOfBuildings].endx;\r\n            endy[i] = city.specialBuildingList[i-numOfBuildings].endy;\r\n            specialType[i-numOfBuildings] = city.specialBuildingList[i-numOfBuildings].specialType;\r\n        }\r\n        income = city.income;\r\n        money = city.money;\r\n        if(gameStart == 2000000000) lastPay = gameStart;\r\n        else lastPay = city.lastPay - gameStart;\r\n        return CityRepresentation({\r\n            owner: owner,\r\n            numOfBuildings: numOfBuildings,\r\n            numOfSpecialBuildings: numOfSpecialBuildings,\r\n            startx: startx,\r\n            starty: starty,\r\n            endx: endx,\r\n            endy: endy,\r\n            buildingType: buildingType,\r\n            specialType: specialType,\r\n            money: money,\r\n            income: income,\r\n            lastPay: lastPay\r\n        });\r\n    } // returns a struct with all the data about the city with the 'tokenId' ID\r\n\r\n    function getBlockchainTime() external view returns(uint) {\r\n        return block.timestamp;\r\n    } // returns the timestamp from the blockchain\r\n\r\n\r\n    function changePayPeriod(uint _payPeriod) external onlyAdmin {\r\n        payPeriod = _payPeriod;\r\n    } // changes the time required to pass to receive income\r\n\r\n\r\n    // The following modifier is used to check if the person who called the function is the Admin\r\n    modifier onlyAdmin() {\r\n        require(msg.sender == admin, 'The caller of the function is not admin');\r\n        _;\r\n    }\r\n\r\n    // function that can change the Admin address in case a proble occurs - can be calles only by the owner\r\n    function changeAdmin(address newAdmin) external onlyOwner {\r\n        admin = newAdmin;\r\n    }\r\n\r\n    // The following modifier is used to check if the cities can be edited - they won't be editable only if a major problem occurs\r\n    modifier isEditable() {\r\n        require(editable == true, 'The blockchain database can not be edited at the moment');\r\n        _;\r\n    }\r\n\r\n    // The following function is called to restrict editing data on the blockchain\r\n    function flipEditableState() public onlyOwner {\r\n        editable = !editable;\r\n    }\r\n}",
  "sourcePath": "C:\\Users\\Dario Vajda\\OneDrive\\Desktop\\nft project\\nft\\smart_contracts\\contracts\\Gameplay.sol",
  "compiler": {
    "name": "solc",
    "version": "0.8.11+commit.d7f03943.Emscripten.clang"
  },
  "schemaVersion": "3.4.4",
  "updatedAt": "2022-02-13T15:08:12.544Z",
  "networkType": "ethereum",
  "devdoc": {
    "kind": "dev",
    "methods": {
      "initializeCity(address,uint256,uint256,uint256,uint256[],uint256[],uint256[],uint256[],string[],string[],uint256)": {
        "details": "Function used for minting new City NFTs",
        "params": {
          "buildingType": "array of strings representing the buildingTypes",
          "endx": "...",
          "endy": "...",
          "income": "the calculated income for the city",
          "numOfBuildings": "number of buildings in the city",
          "numOfSpecialBuildings": "number of special buildings in the city",
          "specialType": "uint array representing the types of the special buildings",
          "startx": "arrays of coordinates for both types of buildings",
          "starty": "...",
          "tokenId": "index of the token being initialized"
        }
      },
      "owner()": {
        "details": "Returns the address of the current owner."
      },
      "renounceOwnership()": {
        "details": "Leaves the contract without owner. It will not be possible to call `onlyOwner` functions anymore. Can only be called by the current owner. NOTE: Renouncing ownership will leave the contract without an owner, thereby removing any functionality that is only available to the owner."
      },
      "transferOwnership(address)": {
        "details": "Transfers ownership of the contract to a new account (`newOwner`). Can only be called by the current owner."
      }
    },
    "version": 1
  },
  "userdoc": {
    "kind": "user",
    "methods": {},
    "version": 1
  }
}