{
  "contractName": "Gameplay",
  "abi": [
    {
      "inputs": [
        {
          "internalType": "address",
          "name": "_admin",
          "type": "address"
        },
        {
          "internalType": "address",
          "name": "_nftContractAddress",
          "type": "address"
        }
      ],
      "stateMutability": "nonpayable",
      "type": "constructor"
    },
    {
      "anonymous": false,
      "inputs": [
        {
          "indexed": true,
          "internalType": "address",
          "name": "previousOwner",
          "type": "address"
        },
        {
          "indexed": true,
          "internalType": "address",
          "name": "newOwner",
          "type": "address"
        }
      ],
      "name": "OwnershipTransferred",
      "type": "event"
    },
    {
      "inputs": [],
      "name": "owner",
      "outputs": [
        {
          "internalType": "address",
          "name": "",
          "type": "address"
        }
      ],
      "stateMutability": "view",
      "type": "function",
      "constant": true
    },
    {
      "inputs": [],
      "name": "renounceOwnership",
      "outputs": [],
      "stateMutability": "nonpayable",
      "type": "function"
    },
    {
      "inputs": [
        {
          "internalType": "address",
          "name": "newOwner",
          "type": "address"
        }
      ],
      "name": "transferOwnership",
      "outputs": [],
      "stateMutability": "nonpayable",
      "type": "function"
    },
    {
      "inputs": [
        {
          "internalType": "uint256",
          "name": "tokenId",
          "type": "uint256"
        },
        {
          "internalType": "address",
          "name": "addr",
          "type": "address"
        }
      ],
      "name": "created",
      "outputs": [],
      "stateMutability": "nonpayable",
      "type": "function"
    },
    {
      "inputs": [
        {
          "internalType": "uint256",
          "name": "tokenId",
          "type": "uint256"
        },
        {
          "internalType": "address",
          "name": "_newOwner",
          "type": "address"
        }
      ],
      "name": "newOwner",
      "outputs": [],
      "stateMutability": "nonpayable",
      "type": "function"
    },
    {
      "inputs": [
        {
          "internalType": "address",
          "name": "owner",
          "type": "address"
        },
        {
          "internalType": "uint256",
          "name": "tokenId",
          "type": "uint256"
        },
        {
          "internalType": "uint256",
          "name": "numOfBuildings",
          "type": "uint256"
        },
        {
          "internalType": "uint256",
          "name": "numOfSpecialBuildings",
          "type": "uint256"
        },
        {
          "internalType": "uint256[]",
          "name": "startx",
          "type": "uint256[]"
        },
        {
          "internalType": "uint256[]",
          "name": "starty",
          "type": "uint256[]"
        },
        {
          "internalType": "uint256[]",
          "name": "endx",
          "type": "uint256[]"
        },
        {
          "internalType": "uint256[]",
          "name": "endy",
          "type": "uint256[]"
        },
        {
          "internalType": "string[]",
          "name": "buildingType",
          "type": "string[]"
        },
        {
          "internalType": "string[]",
          "name": "specialType",
          "type": "string[]"
        },
        {
          "internalType": "uint256",
          "name": "income",
          "type": "uint256"
        }
      ],
      "name": "initializeCity",
      "outputs": [],
      "stateMutability": "nonpayable",
      "type": "function"
    },
    {
      "inputs": [
        {
          "internalType": "uint256",
          "name": "tokenId",
          "type": "uint256"
        },
        {
          "internalType": "string",
          "name": "_username",
          "type": "string"
        }
      ],
      "name": "changeusername",
      "outputs": [],
      "stateMutability": "nonpayable",
      "type": "function"
    },
    {
      "inputs": [
        {
          "internalType": "uint256",
          "name": "tokenId",
          "type": "uint256"
        },
        {
          "internalType": "uint256",
          "name": "newIncome",
          "type": "uint256"
        }
      ],
      "name": "changeIncome",
      "outputs": [],
      "stateMutability": "nonpayable",
      "type": "function"
    },
    {
      "inputs": [
        {
          "internalType": "uint256",
          "name": "tokenId",
          "type": "uint256"
        },
        {
          "internalType": "uint256",
          "name": "price",
          "type": "uint256"
        },
        {
          "internalType": "uint256",
          "name": "buildingIndex",
          "type": "uint256"
        }
      ],
      "name": "upgradeBuilding",
      "outputs": [],
      "stateMutability": "nonpayable",
      "type": "function"
    },
    {
      "inputs": [
        {
          "internalType": "uint256",
          "name": "tokenId",
          "type": "uint256"
        },
        {
          "internalType": "uint256",
          "name": "price",
          "type": "uint256"
        },
        {
          "internalType": "uint256",
          "name": "_startx",
          "type": "uint256"
        },
        {
          "internalType": "uint256",
          "name": "_starty",
          "type": "uint256"
        },
        {
          "internalType": "uint256",
          "name": "_endx",
          "type": "uint256"
        },
        {
          "internalType": "uint256",
          "name": "_endy",
          "type": "uint256"
        },
        {
          "internalType": "string",
          "name": "_buildingType",
          "type": "string"
        }
      ],
      "name": "addBuilding",
      "outputs": [],
      "stateMutability": "nonpayable",
      "type": "function"
    },
    {
      "inputs": [
        {
          "internalType": "uint256",
          "name": "tokenId",
          "type": "uint256"
        },
        {
          "internalType": "uint256",
          "name": "price",
          "type": "uint256"
        },
        {
          "internalType": "uint256",
          "name": "_startx",
          "type": "uint256"
        },
        {
          "internalType": "uint256",
          "name": "_starty",
          "type": "uint256"
        },
        {
          "internalType": "uint256",
          "name": "_endx",
          "type": "uint256"
        },
        {
          "internalType": "uint256",
          "name": "_endy",
          "type": "uint256"
        },
        {
          "internalType": "string",
          "name": "_specialType",
          "type": "string"
        }
      ],
      "name": "addSpecialBuilding",
      "outputs": [],
      "stateMutability": "nonpayable",
      "type": "function"
    },
    {
      "inputs": [
        {
          "internalType": "uint256",
          "name": "tokenId",
          "type": "uint256"
        },
        {
          "internalType": "uint256",
          "name": "value",
          "type": "uint256"
        },
        {
          "internalType": "uint256",
          "name": "buildingIndex",
          "type": "uint256"
        }
      ],
      "name": "removeBuilding",
      "outputs": [],
      "stateMutability": "nonpayable",
      "type": "function"
    },
    {
      "inputs": [
        {
          "internalType": "uint256",
          "name": "tokenId",
          "type": "uint256"
        },
        {
          "internalType": "uint256",
          "name": "value",
          "type": "uint256"
        },
        {
          "internalType": "uint256",
          "name": "buildingIndex",
          "type": "uint256"
        }
      ],
      "name": "removeSpecialBuilding",
      "outputs": [],
      "stateMutability": "nonpayable",
      "type": "function"
    },
    {
      "inputs": [],
      "name": "startGameIncome",
      "outputs": [],
      "stateMutability": "nonpayable",
      "type": "function"
    },
    {
      "inputs": [
        {
          "internalType": "uint256",
          "name": "tokenId",
          "type": "uint256"
        }
      ],
      "name": "getIncome",
      "outputs": [],
      "stateMutability": "nonpayable",
      "type": "function"
    },
    {
      "inputs": [],
      "name": "getEditableState",
      "outputs": [
        {
          "internalType": "bool",
          "name": "",
          "type": "bool"
        }
      ],
      "stateMutability": "view",
      "type": "function",
      "constant": true
    },
    {
      "inputs": [
        {
          "internalType": "uint256",
          "name": "tokenId",
          "type": "uint256"
        }
      ],
      "name": "getCityData",
      "outputs": [
        {
          "components": [
            {
              "internalType": "address",
              "name": "owner",
              "type": "address"
            },
            {
              "internalType": "uint256",
              "name": "numOfBuildings",
              "type": "uint256"
            },
            {
              "internalType": "uint256",
              "name": "numOfSpecialBuildings",
              "type": "uint256"
            },
            {
              "internalType": "string",
              "name": "username",
              "type": "string"
            },
            {
              "internalType": "uint256[]",
              "name": "startx",
              "type": "uint256[]"
            },
            {
              "internalType": "uint256[]",
              "name": "starty",
              "type": "uint256[]"
            },
            {
              "internalType": "uint256[]",
              "name": "endx",
              "type": "uint256[]"
            },
            {
              "internalType": "uint256[]",
              "name": "endy",
              "type": "uint256[]"
            },
            {
              "internalType": "string[]",
              "name": "buildingType",
              "type": "string[]"
            },
            {
              "internalType": "uint256[]",
              "name": "level",
              "type": "uint256[]"
            },
            {
              "internalType": "string[]",
              "name": "specialType",
              "type": "string[]"
            },
            {
              "internalType": "uint256",
              "name": "money",
              "type": "uint256"
            },
            {
              "internalType": "uint256",
              "name": "income",
              "type": "uint256"
            },
            {
              "internalType": "uint256",
              "name": "lastPay",
              "type": "uint256"
            }
          ],
          "internalType": "struct Gameplay.CityRepresentation",
          "name": "",
          "type": "tuple"
        }
      ],
      "stateMutability": "view",
      "type": "function",
      "constant": true
    },
    {
      "inputs": [],
      "name": "getTree",
      "outputs": [
        {
          "components": [
            {
              "internalType": "uint256",
              "name": "value",
              "type": "uint256"
            },
            {
              "internalType": "uint256",
              "name": "id",
              "type": "uint256"
            },
            {
              "internalType": "uint256",
              "name": "left",
              "type": "uint256"
            },
            {
              "internalType": "uint256",
              "name": "right",
              "type": "uint256"
            },
            {
              "internalType": "uint256",
              "name": "height",
              "type": "uint256"
            }
          ],
          "internalType": "struct BST.Node[]",
          "name": "",
          "type": "tuple[]"
        }
      ],
      "stateMutability": "view",
      "type": "function",
      "constant": true
    },
    {
      "inputs": [],
      "name": "getBlockchainTime",
      "outputs": [
        {
          "internalType": "uint256",
          "name": "",
          "type": "uint256"
        }
      ],
      "stateMutability": "view",
      "type": "function",
      "constant": true
    },
    {
      "inputs": [
        {
          "internalType": "uint256",
          "name": "_payPeriod",
          "type": "uint256"
        }
      ],
      "name": "changePayPeriod",
      "outputs": [],
      "stateMutability": "nonpayable",
      "type": "function"
    },
    {
      "inputs": [
        {
          "internalType": "address",
          "name": "newAdmin",
          "type": "address"
        }
      ],
      "name": "changeAdmin",
      "outputs": [],
      "stateMutability": "nonpayable",
      "type": "function"
    },
    {
      "inputs": [],
      "name": "flipEditableState",
      "outputs": [],
      "stateMutability": "nonpayable",
      "type": "function"
    },
    {
      "inputs": [
        {
          "internalType": "uint256",
          "name": "tokenId",
          "type": "uint256"
        },
        {
          "internalType": "uint256",
          "name": "_money",
          "type": "uint256"
        }
      ],
      "name": "devSetMoney",
      "outputs": [],
      "stateMutability": "nonpayable",
      "type": "function"
    },
    {
      "inputs": [
        {
          "internalType": "uint256",
          "name": "tokenId",
          "type": "uint256"
        }
      ],
      "name": "devDemolishCity",
      "outputs": [],
      "stateMutability": "nonpayable",
      "type": "function"
    }
  ],
  "bytecode": "0x6080604052600a6003556001600560146101000a81548160ff0219169083151502179055506377359400600655603c600755620186a0600960006101000a81548167ffffffffffffffff021916908367ffffffffffffffff160217905550612710600b556000600c553480156200007557600080fd5b5060405162006dbc38038062006dbc83398181016040528101906200009b919062000b45565b620000bb620000af620001ec60201b60201c565b620001f460201b60201c565b620000cb620002b860201b60201c565b81600460006101000a81548173ffffffffffffffffffffffffffffffffffffffff021916908373ffffffffffffffffffffffffffffffffffffffff16021790555080600560006101000a81548173ffffffffffffffffffffffffffffffffffffffff021916908373ffffffffffffffffffffffffffffffffffffffff1602179055506000600560009054906101000a900473ffffffffffffffffffffffffffffffffffffffff1690508073ffffffffffffffffffffffffffffffffffffffff1663ce5bc7a6306040518263ffffffff1660e01b8152600401620001af919062000b9d565b600060405180830381600087803b158015620001ca57600080fd5b505af1158015620001df573d6000803e3d6000fd5b5050505050505062000ff8565b600033905090565b60008060009054906101000a900473ffffffffffffffffffffffffffffffffffffffff169050816000806101000a81548173ffffffffffffffffffffffffffffffffffffffff021916908373ffffffffffffffffffffffffffffffffffffffff1602179055508173ffffffffffffffffffffffffffffffffffffffff168173ffffffffffffffffffffffffffffffffffffffff167f8be0079c531659141344cd1fd0a4f28419497f9722a3daafe3b4186f6b6457e060405160405180910390a35050565b60006001604051620002ca9062000c15565b908152602001604051809103902060006101000a81548160ff02191690836008811115620002fd57620002fc62000c2c565b5b0217905550600180604051620003139062000cab565b908152602001604051809103902060006101000a81548160ff0219169083600881111562000346576200034562000c2c565b5b0217905550600260016040516200035d9062000d12565b908152602001604051809103902060006101000a81548160ff0219169083600881111562000390576200038f62000c2c565b5b021790555060036001604051620003a79062000d79565b908152602001604051809103902060006101000a81548160ff02191690836008811115620003da57620003d962000c2c565b5b021790555060046001604051620003f19062000de0565b908152602001604051809103902060006101000a81548160ff0219169083600881111562000424576200042362000c2c565b5b0217905550600560016040516200043b9062000e47565b908152602001604051809103902060006101000a81548160ff021916908360088111156200046e576200046d62000c2c565b5b021790555060066001604051620004859062000eae565b908152602001604051809103902060006101000a81548160ff02191690836008811115620004b857620004b762000c2c565b5b021790555060076001604051620004cf9062000f15565b908152602001604051809103902060006101000a81548160ff0219169083600881111562000502576200050162000c2c565b5b021790555060086001604051620005199062000f7c565b908152602001604051809103902060006101000a81548160ff021916908360088111156200054c576200054b62000c2c565b5b02179055506040518060400160405280600781526020017f666163746f72790000000000000000000000000000000000000000000000000081525060026000806008811115620005a157620005a062000c2c565b5b6008811115620005b657620005b562000c2c565b5b81526020019081526020016000209080519060200190620005d992919062000a2b565b506040518060400160405280600681526020017f6f6666696365000000000000000000000000000000000000000000000000000081525060026000600160088111156200062b576200062a62000c2c565b5b600881111562000640576200063f62000c2c565b5b815260200190815260200160002090805190602001906200066392919062000a2b565b506040518060400160405280600a81526020017f72657374617572616e74000000000000000000000000000000000000000000008152506002600060026008811115620006b557620006b462000c2c565b5b6008811115620006ca57620006c962000c2c565b5b81526020019081526020016000209080519060200190620006ed92919062000a2b565b506040518060400160405280600881526020017f6275696c64696e6700000000000000000000000000000000000000000000000081525060026000600360088111156200073f576200073e62000c2c565b5b600881111562000754576200075362000c2c565b5b815260200190815260200160002090805190602001906200077792919062000a2b565b506040518060400160405280600581526020017f686f7573650000000000000000000000000000000000000000000000000000008152506002600060046008811115620007c957620007c862000c2c565b5b6008811115620007de57620007dd62000c2c565b5b815260200190815260200160002090805190602001906200080192919062000a2b565b506040518060400160405280600581526020017f73746f7265000000000000000000000000000000000000000000000000000000815250600260006005600881111562000853576200085262000c2c565b5b600881111562000868576200086762000c2c565b5b815260200190815260200160002090805190602001906200088b92919062000a2b565b506040518060400160405280600b81526020017f73757065724d61726b65740000000000000000000000000000000000000000008152506002600060066008811115620008dd57620008dc62000c2c565b5b6008811115620008f257620008f162000c2c565b5b815260200190815260200160002090805190602001906200091592919062000a2b565b506040518060400160405280600481526020017f7061726b00000000000000000000000000000000000000000000000000000000815250600260006007600881111562000967576200096662000c2c565b5b60088111156200097c576200097b62000c2c565b5b815260200190815260200160002090805190602001906200099f92919062000a2b565b506040518060400160405280600381526020017f67796d000000000000000000000000000000000000000000000000000000000081525060026000600880811115620009f057620009ef62000c2c565b5b600881111562000a055762000a0462000c2c565b5b8152602001908152602001600020908051906020019062000a2892919062000a2b565b50565b82805462000a399062000fc2565b90600052602060002090601f01602090048101928262000a5d576000855562000aa9565b82601f1062000a7857805160ff191683800117855562000aa9565b8280016001018555821562000aa9579182015b8281111562000aa857825182559160200191906001019062000a8b565b5b50905062000ab8919062000abc565b5090565b5b8082111562000ad757600081600090555060010162000abd565b5090565b600080fd5b600073ffffffffffffffffffffffffffffffffffffffff82169050919050565b600062000b0d8262000ae0565b9050919050565b62000b1f8162000b00565b811462000b2b57600080fd5b50565b60008151905062000b3f8162000b14565b92915050565b6000806040838503121562000b5f5762000b5e62000adb565b5b600062000b6f8582860162000b2e565b925050602062000b828582860162000b2e565b9150509250929050565b62000b978162000b00565b82525050565b600060208201905062000bb4600083018462000b8c565b92915050565b600081905092915050565b7f666163746f727900000000000000000000000000000000000000000000000000600082015250565b600062000bfd60078362000bba565b915062000c0a8262000bc5565b600782019050919050565b600062000c228262000bee565b9150819050919050565b7f4e487b7100000000000000000000000000000000000000000000000000000000600052602160045260246000fd5b7f6f66666963650000000000000000000000000000000000000000000000000000600082015250565b600062000c9360068362000bba565b915062000ca08262000c5b565b600682019050919050565b600062000cb88262000c84565b9150819050919050565b7f72657374617572616e7400000000000000000000000000000000000000000000600082015250565b600062000cfa600a8362000bba565b915062000d078262000cc2565b600a82019050919050565b600062000d1f8262000ceb565b9150819050919050565b7f6275696c64696e67000000000000000000000000000000000000000000000000600082015250565b600062000d6160088362000bba565b915062000d6e8262000d29565b600882019050919050565b600062000d868262000d52565b9150819050919050565b7f686f757365000000000000000000000000000000000000000000000000000000600082015250565b600062000dc860058362000bba565b915062000dd58262000d90565b600582019050919050565b600062000ded8262000db9565b9150819050919050565b7f73746f7265000000000000000000000000000000000000000000000000000000600082015250565b600062000e2f60058362000bba565b915062000e3c8262000df7565b600582019050919050565b600062000e548262000e20565b9150819050919050565b7f73757065724d61726b6574000000000000000000000000000000000000000000600082015250565b600062000e96600b8362000bba565b915062000ea38262000e5e565b600b82019050919050565b600062000ebb8262000e87565b9150819050919050565b7f7061726b00000000000000000000000000000000000000000000000000000000600082015250565b600062000efd60048362000bba565b915062000f0a8262000ec5565b600482019050919050565b600062000f228262000eee565b9150819050919050565b7f67796d0000000000000000000000000000000000000000000000000000000000600082015250565b600062000f6460038362000bba565b915062000f718262000f2c565b600382019050919050565b600062000f898262000f55565b9150819050919050565b7f4e487b7100000000000000000000000000000000000000000000000000000000600052602260045260246000fd5b6000600282049050600182168062000fdb57607f821691505b6020821081141562000ff25762000ff162000f93565b5b50919050565b615db480620010086000396000f3fe608060405234801561001057600080fd5b50600436106101575760003560e01c80638ede614c116100c3578063cc6ebc8b1161007c578063cc6ebc8b1461033a578063cf322e9414610356578063d15fe61b14610372578063eb318ff71461038e578063f1c12955146103aa578063f2fde38b146103c657610157565b80638ede614c146102925780638f283970146102ae5780639f18f9f2146102ca578063a3ef9dfa146102e6578063b758eeaa14610302578063b7d96c4a1461031e57610157565b806368f9e3121161011557806368f9e312146101f65780636c241bb1146102145780636d5dcb2b14610244578063715018a61461024e57806385791510146102585780638da5cb5b1461027457610157565b80629651601461015c5780631911d17614610178578063199324741461019657806323657514146101b25780634920f906146101bc5780635a7b71da146101da575b600080fd5b6101766004803603810190610171919061474e565b6103e2565b005b6101806104cf565b60405161018d91906148a1565b60405180910390f35b6101b060048036038101906101ab91906148c3565b6105c1565b005b6101ba610b0d565b005b6101c4610bb5565b6040516101d19190614931565b60405180910390f35b6101f460048036038101906101ef91906148c3565b610bcc565b005b6101fe6111ec565b60405161020b919061495b565b60405180910390f35b61022e6004803603810190610229919061474e565b6111f4565b60405161023b9190614d20565b60405180910390f35b61024c611b6b565b005b610256611d40565b005b610272600480360381019061026d919061474e565b611dc8565b005b61027c612062565b6040516102899190614d51565b60405180910390f35b6102ac60048036038101906102a79190614d6c565b61208b565b005b6102c860048036038101906102c39190614dd8565b61224d565b005b6102e460048036038101906102df9190614e6a565b61230d565b005b61030060048036038101906102fb9190615200565b612627565b005b61031c6004803603810190610317919061539c565b612e76565b005b61033860048036038101906103339190614d6c565b612f8e565b005b610354600480360381019061034f91906148c3565b61303d565b005b610370600480360381019061036b919061539c565b613202565b005b61038c60048036038101906103879190614e6a565b6132eb565b005b6103a860048036038101906103a3919061474e565b613647565b005b6103c460048036038101906103bf91906153dc565b6136e1565b005b6103e060048036038101906103db9190614dd8565b61377a565b005b6008600082815260200190815260200160002060040160089054906101000a900473ffffffffffffffffffffffffffffffffffffffff1673ffffffffffffffffffffffffffffffffffffffff163373ffffffffffffffffffffffffffffffffffffffff161461045057600080fd5b60006008600083815260200190815260200160002060030160026101000a81548167ffffffffffffffff021916908367ffffffffffffffff160217905550600060086000838152602001908152602001600020600301600a6101000a81548167ffffffffffffffff021916908367ffffffffffffffff16021790555050565b60606000600c5467ffffffffffffffff8111156104ef576104ee614f2c565b5b60405190808252806020026020018201604052801561052857816020015b61051561449a565b81526020019060019003908161050d5790505b50905060005b600c548110156105b957600a60008281526020019081526020016000206040518060a00160405290816000820154815260200160018201548152602001600282015481526020016003820154815260200160048201548152505082828151811061059b5761059a61543c565b5b602002602001018190525080806105b19061549a565b91505061052e565b508091505090565b600460009054906101000a900473ffffffffffffffffffffffffffffffffffffffff1673ffffffffffffffffffffffffffffffffffffffff163373ffffffffffffffffffffffffffffffffffffffff1614610651576040517f08c379a000000000000000000000000000000000000000000000000000000000815260040161064890615566565b60405180910390fd5b60011515600560149054906101000a900460ff161515146106a7576040517f08c379a000000000000000000000000000000000000000000000000000000000815260040161069e906155f8565b60405180910390fd5b60086000848152602001908152602001600020600101600060086000868152602001908152602001600020600301600a9054906101000a900467ffffffffffffffff1667ffffffffffffffff16815260200190815260200160002060000160086000858152602001908152602001600020600101600083815260200190815260200160002060000190805461073b90615647565b6107469291906144c9565b5060086000848152602001908152602001600020600101600060086000868152602001908152602001600020600301600a9054906101000a900467ffffffffffffffff1667ffffffffffffffff16815260200190815260200160002060010160009054906101000a900463ffffffff1660086000858152602001908152602001600020600101600083815260200190815260200160002060010160006101000a81548163ffffffff021916908363ffffffff16021790555060086000848152602001908152602001600020600101600060086000868152602001908152602001600020600301600a9054906101000a900467ffffffffffffffff1667ffffffffffffffff16815260200190815260200160002060010160049054906101000a900463ffffffff1660086000858152602001908152602001600020600101600083815260200190815260200160002060010160046101000a81548163ffffffff021916908363ffffffff16021790555060086000848152602001908152602001600020600101600060086000868152602001908152602001600020600301600a9054906101000a900467ffffffffffffffff1667ffffffffffffffff16815260200190815260200160002060010160089054906101000a900463ffffffff1660086000858152602001908152602001600020600101600083815260200190815260200160002060010160086101000a81548163ffffffff021916908363ffffffff16021790555060086000848152602001908152602001600020600101600060086000868152602001908152602001600020600301600a9054906101000a900467ffffffffffffffff1667ffffffffffffffff168152602001908152602001600020600101600c9054906101000a900463ffffffff16600860008581526020019081526020016000206001016000838152602001908152602001600020600101600c6101000a81548163ffffffff021916908363ffffffff160217905550816008600085815260200190815260200160002060030160129054906101000a900467ffffffffffffffff16610a59919061568d565b6008600085815260200190815260200160002060030160126101000a81548167ffffffffffffffff021916908367ffffffffffffffff160217905550600160086000858152602001908152602001600020600301600a9054906101000a900467ffffffffffffffff16610acc91906156cb565b60086000858152602001908152602001600020600301600a6101000a81548167ffffffffffffffff021916908367ffffffffffffffff160217905550505050565b610b15613872565b73ffffffffffffffffffffffffffffffffffffffff16610b33612062565b73ffffffffffffffffffffffffffffffffffffffff1614610b89576040517f08c379a0000000000000000000000000000000000000000000000000000000008152600401610b809061574b565b60405180910390fd5b600560149054906101000a900460ff1615600560146101000a81548160ff021916908315150217905550565b6000600560149054906101000a900460ff16905090565b600460009054906101000a900473ffffffffffffffffffffffffffffffffffffffff1673ffffffffffffffffffffffffffffffffffffffff163373ffffffffffffffffffffffffffffffffffffffff1614610c5c576040517f08c379a0000000000000000000000000000000000000000000000000000000008152600401610c5390615566565b60405180910390fd5b60011515600560149054906101000a900460ff16151514610cb2576040517f08c379a0000000000000000000000000000000000000000000000000000000008152600401610ca9906155f8565b60405180910390fd5b6008600084815260200190815260200160002060000160006008600086815260200190815260200160002060030160029054906101000a900467ffffffffffffffff1667ffffffffffffffff16815260200190815260200160002060000160009054906101000a900460ff1660086000858152602001908152602001600020600001600083815260200190815260200160002060000160006101000a81548160ff02191690836008811115610d6a57610d6961576b565b5b02179055506008600084815260200190815260200160002060000160006008600086815260200190815260200160002060030160029054906101000a900467ffffffffffffffff1667ffffffffffffffff16815260200190815260200160002060000160019054906101000a900463ffffffff1660086000858152602001908152602001600020600001600083815260200190815260200160002060000160016101000a81548163ffffffff021916908363ffffffff1602179055506008600084815260200190815260200160002060000160006008600086815260200190815260200160002060030160029054906101000a900467ffffffffffffffff1667ffffffffffffffff16815260200190815260200160002060000160059054906101000a900463ffffffff1660086000858152602001908152602001600020600001600083815260200190815260200160002060000160056101000a81548163ffffffff021916908363ffffffff1602179055506008600084815260200190815260200160002060000160006008600086815260200190815260200160002060030160029054906101000a900467ffffffffffffffff1667ffffffffffffffff16815260200190815260200160002060000160099054906101000a900463ffffffff1660086000858152602001908152602001600020600001600083815260200190815260200160002060000160096101000a81548163ffffffff021916908363ffffffff1602179055506008600084815260200190815260200160002060000160006008600086815260200190815260200160002060030160029054906101000a900467ffffffffffffffff1667ffffffffffffffff168152602001908152602001600020600001600d9054906101000a900463ffffffff16600860008581526020019081526020016000206000016000838152602001908152602001600020600001600d6101000a81548163ffffffff021916908363ffffffff1602179055506008600084815260200190815260200160002060000160006008600086815260200190815260200160002060030160029054906101000a900467ffffffffffffffff1667ffffffffffffffff16815260200190815260200160002060000160119054906101000a900463ffffffff1660086000858152602001908152602001600020600001600083815260200190815260200160002060000160116101000a81548163ffffffff021916908363ffffffff160217905550816008600085815260200190815260200160002060030160129054906101000a900467ffffffffffffffff16611138919061568d565b6008600085815260200190815260200160002060030160126101000a81548167ffffffffffffffff021916908367ffffffffffffffff16021790555060016008600085815260200190815260200160002060030160029054906101000a900467ffffffffffffffff166111ab91906156cb565b6008600085815260200190815260200160002060030160026101000a81548167ffffffffffffffff021916908367ffffffffffffffff160217905550505050565b600042905090565b6111fc614556565b600060086000848152602001908152602001600020905060008160030160029054906101000a900467ffffffffffffffff1667ffffffffffffffff169050600082600301600a9054906101000a900467ffffffffffffffff1667ffffffffffffffff1690506000604051806101c001604052808560040160089054906101000a900473ffffffffffffffffffffffffffffffffffffffff1673ffffffffffffffffffffffffffffffffffffffff1681526020018481526020018381526020018560020180546112ca90615647565b80601f01602080910402602001604051908101604052809291908181526020018280546112f690615647565b80156113435780601f1061131857610100808354040283529160200191611343565b820191906000526020600020905b81548152906001019060200180831161132657829003601f168201915b505050505081526020018385611359919061579a565b67ffffffffffffffff81111561137257611371614f2c565b5b6040519080825280602002602001820160405280156113a05781602001602082028036833780820191505090505b50815260200183856113b2919061579a565b67ffffffffffffffff8111156113cb576113ca614f2c565b5b6040519080825280602002602001820160405280156113f95781602001602082028036833780820191505090505b508152602001838561140b919061579a565b67ffffffffffffffff81111561142457611423614f2c565b5b6040519080825280602002602001820160405280156114525781602001602082028036833780820191505090505b5081526020018385611464919061579a565b67ffffffffffffffff81111561147d5761147c614f2c565b5b6040519080825280602002602001820160405280156114ab5781602001602082028036833780820191505090505b5081526020018467ffffffffffffffff8111156114cb576114ca614f2c565b5b6040519080825280602002602001820160405280156114fe57816020015b60608152602001906001900390816114e95790505b5081526020018467ffffffffffffffff81111561151e5761151d614f2c565b5b60405190808252806020026020018201604052801561154c5781602001602082028036833780820191505090505b5081526020018367ffffffffffffffff81111561156c5761156b614f2c565b5b60405190808252806020026020018201604052801561159f57816020015b606081526020019060019003908161158a5790505b5081526020018560030160129054906101000a900467ffffffffffffffff1667ffffffffffffffff1681526020018560040160009054906101000a900467ffffffffffffffff1667ffffffffffffffff16815260200163773594006006541461161957600654866005015461161491906157f0565b61161d565b6006545b815250905060005b838110156118e35784600001600082815260200190815260200160002060000160019054906101000a900463ffffffff1663ffffffff16826080015182815181106116735761167261543c565b5b60200260200101818152505084600001600082815260200190815260200160002060000160059054906101000a900463ffffffff1663ffffffff168260a0015182815181106116c5576116c461543c565b5b60200260200101818152505084600001600082815260200190815260200160002060000160099054906101000a900463ffffffff1663ffffffff168260c0015182815181106117175761171661543c565b5b602002602001018181525050846000016000828152602001908152602001600020600001600d9054906101000a900463ffffffff1663ffffffff168260e0015182815181106117695761176861543c565b5b6020026020010181815250506002600086600001600084815260200190815260200160002060000160009054906101000a900460ff1660088111156117b1576117b061576b565b5b60088111156117c3576117c261576b565b5b815260200190815260200160002080546117dc90615647565b80601f016020809104026020016040519081016040528092919081815260200182805461180890615647565b80156118555780601f1061182a57610100808354040283529160200191611855565b820191906000526020600020905b81548152906001019060200180831161183857829003601f168201915b505050505082610100015182815181106118725761187161543c565b5b602002602001018190525084600001600082815260200190815260200160002060000160119054906101000a900463ffffffff1663ffffffff1682610120015182815181106118c4576118c361543c565b5b60200260200101818152505080806118db9061549a565b915050611625565b5060008390505b83836118f6919061579a565b811015611b5e57846001016000858361190f91906157f0565b815260200190815260200160002060010160009054906101000a900463ffffffff1663ffffffff168260800151828151811061194e5761194d61543c565b5b602002602001018181525050846001016000858361196c91906157f0565b815260200190815260200160002060010160049054906101000a900463ffffffff1663ffffffff168260a0015182815181106119ab576119aa61543c565b5b60200260200101818152505084600101600085836119c991906157f0565b815260200190815260200160002060010160089054906101000a900463ffffffff1663ffffffff168260c001518281518110611a0857611a0761543c565b5b6020026020010181815250508460010160008583611a2691906157f0565b8152602001908152602001600020600101600c9054906101000a900463ffffffff1663ffffffff168260e001518281518110611a6557611a6461543c565b5b6020026020010181815250508460010160008583611a8391906157f0565b81526020019081526020016000206000018054611a9f90615647565b80601f0160208091040260200160405190810160405280929190818152602001828054611acb90615647565b8015611b185780601f10611aed57610100808354040283529160200191611b18565b820191906000526020600020905b815481529060010190602001808311611afb57829003601f168201915b50505050508261014001518583611b2f91906157f0565b81518110611b4057611b3f61543c565b5b60200260200101819052508080611b569061549a565b9150506118ea565b5080945050505050919050565b600460009054906101000a900473ffffffffffffffffffffffffffffffffffffffff1673ffffffffffffffffffffffffffffffffffffffff163373ffffffffffffffffffffffffffffffffffffffff1614611bfb576040517f08c379a0000000000000000000000000000000000000000000000000000000008152600401611bf290615566565b60405180910390fd5b60011515600560149054906101000a900460ff16151514611c51576040517f08c379a0000000000000000000000000000000000000000000000000000000008152600401611c48906155f8565b60405180910390fd5b637735940060065414611c99576040517f08c379a0000000000000000000000000000000000000000000000000000000008152600401611c9090615870565b60405180910390fd5b4260068190555060005b600073ffffffffffffffffffffffffffffffffffffffff166008600083815260200190815260200160002060040160089054906101000a900473ffffffffffffffffffffffffffffffffffffffff1673ffffffffffffffffffffffffffffffffffffffff1614611d3d5760065460086000838152602001908152602001600020600501819055508080611d359061549a565b915050611ca3565b50565b611d48613872565b73ffffffffffffffffffffffffffffffffffffffff16611d66612062565b73ffffffffffffffffffffffffffffffffffffffff1614611dbc576040517f08c379a0000000000000000000000000000000000000000000000000000000008152600401611db39061574b565b60405180910390fd5b611dc6600061387a565b565b600460009054906101000a900473ffffffffffffffffffffffffffffffffffffffff1673ffffffffffffffffffffffffffffffffffffffff163373ffffffffffffffffffffffffffffffffffffffff1614611e58576040517f08c379a0000000000000000000000000000000000000000000000000000000008152600401611e4f90615566565b60405180910390fd5b60011515600560149054906101000a900460ff16151514611eae576040517f08c379a0000000000000000000000000000000000000000000000000000000008152600401611ea5906155f8565b60405180910390fd5b6006544211611ef2576040517f08c379a0000000000000000000000000000000000000000000000000000000008152600401611ee9906158dc565b60405180910390fd5b600754600860008381526020019081526020016000206005015442611f1791906157f0565b11611f57576040517f08c379a0000000000000000000000000000000000000000000000000000000008152600401611f4e90615948565b60405180910390fd5b6000600754600860008481526020019081526020016000206005015442611f7e91906157f0565b611f889190615997565b90506008600083815260200190815260200160002060040160009054906101000a900467ffffffffffffffff1681611fc091906159c8565b6008600084815260200190815260200160002060030160128282829054906101000a900467ffffffffffffffff16611ff8919061568d565b92506101000a81548167ffffffffffffffff021916908367ffffffffffffffff1602179055506007546006544261202f91906157f0565b6120399190615a0a565b4261204491906157f0565b60086000848152602001908152602001600020600501819055505050565b60008060009054906101000a900473ffffffffffffffffffffffffffffffffffffffff16905090565b600460009054906101000a900473ffffffffffffffffffffffffffffffffffffffff1673ffffffffffffffffffffffffffffffffffffffff163373ffffffffffffffffffffffffffffffffffffffff161461211b576040517f08c379a000000000000000000000000000000000000000000000000000000000815260040161211290615566565b60405180910390fd5b60011515600560149054906101000a900460ff16151514612171576040517f08c379a0000000000000000000000000000000000000000000000000000000008152600401612168906155f8565b60405180910390fd5b60006008600084815260200190815260200160002060040160009054906101000a900467ffffffffffffffff1667ffffffffffffffff1690506121b9600a600b54838661393e565b600b81905550816008600085815260200190815260200160002060040160006101000a81548167ffffffffffffffff021916908367ffffffffffffffff1602179055506008600084815260200190815260200160002060040160009054906101000a900467ffffffffffffffff1667ffffffffffffffff169050612242600a600b548386613e5e565b600b81905550505050565b612255613872565b73ffffffffffffffffffffffffffffffffffffffff16612273612062565b73ffffffffffffffffffffffffffffffffffffffff16146122c9576040517f08c379a00000000000000000000000000000000000000000000000000000000081526004016122c09061574b565b60405180910390fd5b80600460006101000a81548173ffffffffffffffffffffffffffffffffffffffff021916908373ffffffffffffffffffffffffffffffffffffffff16021790555050565b600460009054906101000a900473ffffffffffffffffffffffffffffffffffffffff1673ffffffffffffffffffffffffffffffffffffffff163373ffffffffffffffffffffffffffffffffffffffff161461239d576040517f08c379a000000000000000000000000000000000000000000000000000000000815260040161239490615566565b60405180910390fd5b60011515600560149054906101000a900460ff161515146123f3576040517f08c379a00000000000000000000000000000000000000000000000000000000081526004016123ea906155f8565b60405180910390fd5b6000600860008a815260200190815260200160002090506040518060a0016040528084848080601f016020809104026020016040519081016040528093929190818152602001838380828437600081840152601f19601f8201169050808301925050505050505081526020018863ffffffff1681526020018763ffffffff1681526020018663ffffffff1681526020018563ffffffff1681525081600101600083600301600a9054906101000a900467ffffffffffffffff1667ffffffffffffffff16815260200190815260200160002060008201518160000190805190602001906124e09291906145db565b5060208201518160010160006101000a81548163ffffffff021916908363ffffffff16021790555060408201518160010160046101000a81548163ffffffff021916908363ffffffff16021790555060608201518160010160086101000a81548163ffffffff021916908363ffffffff160217905550608082015181600101600c6101000a81548163ffffffff021916908363ffffffff160217905550905050600181600301600a8282829054906101000a900467ffffffffffffffff166125a8919061568d565b92506101000a81548167ffffffffffffffff021916908367ffffffffffffffff160217905550878160030160129054906101000a900467ffffffffffffffff166125f291906156cb565b8160030160126101000a81548167ffffffffffffffff021916908367ffffffffffffffff160217905550505050505050505050565b600460009054906101000a900473ffffffffffffffffffffffffffffffffffffffff1673ffffffffffffffffffffffffffffffffffffffff163373ffffffffffffffffffffffffffffffffffffffff16146126b7576040517f08c379a00000000000000000000000000000000000000000000000000000000081526004016126ae90615566565b60405180910390fd5b60011515600560149054906101000a900460ff1615151461270d576040517f08c379a0000000000000000000000000000000000000000000000000000000008152600401612704906155f8565b60405180910390fd5b60011515600860008c815260200190815260200160002060030160009054906101000a900460ff16151514612777576040517f08c379a000000000000000000000000000000000000000000000000000000000815260040161276e90615a87565b60405180910390fd5b60001515600860008c815260200190815260200160002060030160019054906101000a900460ff161515146127e1576040517f08c379a00000000000000000000000000000000000000000000000000000000081526004016127d890615af3565b60405180910390fd5b8a73ffffffffffffffffffffffffffffffffffffffff16600860008c815260200190815260200160002060040160089054906101000a900473ffffffffffffffffffffffffffffffffffffffff1673ffffffffffffffffffffffffffffffffffffffff1614612885576040517f08c379a000000000000000000000000000000000000000000000000000000000815260040161287c90615b5f565b60405180910390fd5b6000600860008c8152602001908152602001600020905060005b8a811015612a83578881815181106128ba576128b961543c565b5b602002602001015182600001600083815260200190815260200160002060000160016101000a81548163ffffffff021916908363ffffffff16021790555087818151811061290b5761290a61543c565b5b602002602001015182600001600083815260200190815260200160002060000160056101000a81548163ffffffff021916908363ffffffff16021790555086818151811061295c5761295b61543c565b5b602002602001015182600001600083815260200190815260200160002060000160096101000a81548163ffffffff021916908363ffffffff1602179055508581815181106129ad576129ac61543c565b5b6020026020010151826000016000838152602001908152602001600020600001600d6101000a81548163ffffffff021916908363ffffffff1602179055506001858281518110612a00576129ff61543c565b5b6020026020010151604051612a159190615bbb565b908152602001604051809103902060009054906101000a900460ff1682600001600083815260200190815260200160002060000160006101000a81548160ff02191690836008811115612a6b57612a6a61576b565b5b02179055508080612a7b9061549a565b91505061289f565b5060008a90505b8a8a612a96919061579a565b811015612c7d57888181518110612ab057612aaf61543c565b5b60200260200101518260010160008d84612aca91906157f0565b815260200190815260200160002060010160006101000a81548163ffffffff021916908363ffffffff160217905550878181518110612b0c57612b0b61543c565b5b60200260200101518260010160008d84612b2691906157f0565b815260200190815260200160002060010160046101000a81548163ffffffff021916908363ffffffff160217905550868181518110612b6857612b6761543c565b5b60200260200101518260010160008d84612b8291906157f0565b815260200190815260200160002060010160086101000a81548163ffffffff021916908363ffffffff160217905550858181518110612bc457612bc361543c565b5b60200260200101518260010160008d84612bde91906157f0565b8152602001908152602001600020600101600c6101000a81548163ffffffff021916908363ffffffff160217905550838b82612c1a91906157f0565b81518110612c2b57612c2a61543c565b5b60200260200101518260010160008d84612c4591906157f0565b81526020019081526020016000206000019080519060200190612c699291906145db565b508080612c759061549a565b915050612a8a565b50898160030160026101000a81548167ffffffffffffffff021916908367ffffffffffffffff1602179055508881600301600a6101000a81548167ffffffffffffffff021916908367ffffffffffffffff1602179055506040518060400160405280600681526020017f506c617965720000000000000000000000000000000000000000000000000000815250816002019080519060200190612d219291906145db565b50818160040160006101000a81548167ffffffffffffffff021916908367ffffffffffffffff160217905550600960009054906101000a900467ffffffffffffffff168160030160126101000a81548167ffffffffffffffff021916908367ffffffffffffffff1602179055508b8160040160086101000a81548173ffffffffffffffffffffffffffffffffffffffff021916908373ffffffffffffffffffffffffffffffffffffffff16021790555060018160030160016101000a81548160ff021916908315150217905550637735940060065414612e2e5760075460065442612e0c91906157f0565b612e169190615a0a565b42612e2191906157f0565b8160050181905550612e39565b600081600501819055505b612e4a600a600b5484600c54613e5e565b600b81905550600c6000815480929190612e639061549a565b9190505550505050505050505050505050565b600560009054906101000a900473ffffffffffffffffffffffffffffffffffffffff1673ffffffffffffffffffffffffffffffffffffffff163373ffffffffffffffffffffffffffffffffffffffff1614612f06576040517f08c379a0000000000000000000000000000000000000000000000000000000008152600401612efd90615c44565b60405180910390fd5b806008600084815260200190815260200160002060040160086101000a81548173ffffffffffffffffffffffffffffffffffffffff021916908373ffffffffffffffffffffffffffffffffffffffff16021790555060016008600084815260200190815260200160002060030160006101000a81548160ff0219169083151502179055505050565b6008600083815260200190815260200160002060040160089054906101000a900473ffffffffffffffffffffffffffffffffffffffff1673ffffffffffffffffffffffffffffffffffffffff163373ffffffffffffffffffffffffffffffffffffffff1614612ffc57600080fd5b806008600084815260200190815260200160002060030160126101000a81548167ffffffffffffffff021916908367ffffffffffffffff1602179055505050565b600460009054906101000a900473ffffffffffffffffffffffffffffffffffffffff1673ffffffffffffffffffffffffffffffffffffffff163373ffffffffffffffffffffffffffffffffffffffff16146130cd576040517f08c379a00000000000000000000000000000000000000000000000000000000081526004016130c490615566565b60405180910390fd5b60011515600560149054906101000a900460ff16151514613123576040517f08c379a000000000000000000000000000000000000000000000000000000000815260040161311a906155f8565b60405180910390fd5b600160086000858152602001908152602001600020600001600083815260200190815260200160002060000160118282829054906101000a900463ffffffff1661316d9190615c74565b92506101000a81548163ffffffff021916908363ffffffff160217905550816008600085815260200190815260200160002060030160129054906101000a900467ffffffffffffffff166131c191906156cb565b6008600085815260200190815260200160002060030160126101000a81548167ffffffffffffffff021916908367ffffffffffffffff160217905550505050565b600560009054906101000a900473ffffffffffffffffffffffffffffffffffffffff1673ffffffffffffffffffffffffffffffffffffffff163373ffffffffffffffffffffffffffffffffffffffff1614613292576040517f08c379a000000000000000000000000000000000000000000000000000000000815260040161328990615c44565b60405180910390fd5b806008600084815260200190815260200160002060040160086101000a81548173ffffffffffffffffffffffffffffffffffffffff021916908373ffffffffffffffffffffffffffffffffffffffff1602179055505050565b600460009054906101000a900473ffffffffffffffffffffffffffffffffffffffff1673ffffffffffffffffffffffffffffffffffffffff163373ffffffffffffffffffffffffffffffffffffffff161461337b576040517f08c379a000000000000000000000000000000000000000000000000000000000815260040161337290615566565b60405180910390fd5b60011515600560149054906101000a900460ff161515146133d1576040517f08c379a00000000000000000000000000000000000000000000000000000000081526004016133c8906155f8565b60405180910390fd5b6000600860008a815260200190815260200160002090506040518060c0016040528060018585604051613405929190615cd3565b908152602001604051809103902060009054906101000a900460ff1660088111156134335761343261576b565b5b81526020018863ffffffff1681526020018763ffffffff1681526020018663ffffffff1681526020018563ffffffff168152602001600063ffffffff168152508160000160008360030160029054906101000a900467ffffffffffffffff1667ffffffffffffffff16815260200190815260200160002060008201518160000160006101000a81548160ff021916908360088111156134d5576134d461576b565b5b021790555060208201518160000160016101000a81548163ffffffff021916908363ffffffff16021790555060408201518160000160056101000a81548163ffffffff021916908363ffffffff16021790555060608201518160000160096101000a81548163ffffffff021916908363ffffffff160217905550608082015181600001600d6101000a81548163ffffffff021916908363ffffffff16021790555060a08201518160000160116101000a81548163ffffffff021916908363ffffffff16021790555090505060018160030160028282829054906101000a900467ffffffffffffffff166135c8919061568d565b92506101000a81548167ffffffffffffffff021916908367ffffffffffffffff160217905550878160030160129054906101000a900467ffffffffffffffff1661361291906156cb565b8160030160126101000a81548167ffffffffffffffff021916908367ffffffffffffffff160217905550505050505050505050565b600460009054906101000a900473ffffffffffffffffffffffffffffffffffffffff1673ffffffffffffffffffffffffffffffffffffffff163373ffffffffffffffffffffffffffffffffffffffff16146136d7576040517f08c379a00000000000000000000000000000000000000000000000000000000081526004016136ce90615566565b60405180910390fd5b8060078190555050565b6008600084815260200190815260200160002060040160089054906101000a900473ffffffffffffffffffffffffffffffffffffffff1673ffffffffffffffffffffffffffffffffffffffff163373ffffffffffffffffffffffffffffffffffffffff161461374f57600080fd5b8181600860008681526020019081526020016000206002019190613774929190614661565b50505050565b613782613872565b73ffffffffffffffffffffffffffffffffffffffff166137a0612062565b73ffffffffffffffffffffffffffffffffffffffff16146137f6576040517f08c379a00000000000000000000000000000000000000000000000000000000081526004016137ed9061574b565b60405180910390fd5b600073ffffffffffffffffffffffffffffffffffffffff168173ffffffffffffffffffffffffffffffffffffffff161415613866576040517f08c379a000000000000000000000000000000000000000000000000000000000815260040161385d90615d5e565b60405180910390fd5b61386f8161387a565b50565b600033905090565b60008060009054906101000a900473ffffffffffffffffffffffffffffffffffffffff169050816000806101000a81548173ffffffffffffffffffffffffffffffffffffffff021916908373ffffffffffffffffffffffffffffffffffffffff1602179055508173ffffffffffffffffffffffffffffffffffffffff168173ffffffffffffffffffffffffffffffffffffffff167f8be0079c531659141344cd1fd0a4f28419497f9722a3daafe3b4186f6b6457e060405160405180910390a35050565b600061271084141561395257839050613e56565b84600085815260200190815260200160002060000154831115801561398c5750846000858152602001908152602001600020600101548214155b156139d0576139b28586600087815260200190815260200160002060020154858561393e565b85600086815260200190815260200160002060020181905550613c2e565b84600085815260200190815260200160002060000154831115613a2c57613a0e8586600087815260200190815260200160002060030154858561393e565b85600086815260200190815260200160002060030181905550613c2d565b612710856000868152602001908152602001600020600201541480613a67575061271085600086815260200190815260200160002060030154145b15613b3c5760006127108660008781526020019081526020016000206002015414613aa75785600086815260200190815260200160002060020154613abe565b856000868152602001908152602001600020600301545b90506040518060a00160405280600081526020016000815260200160008152602001600081526020016000815250866000878152602001908152602001600020600082015181600001556020820151816001015560408201518160020155606082015181600301556080820151816004015590505080915050613e56565b6000613b5d8687600088815260200190815260200160002060030154614199565b905085600082815260200190815260200160002086600087815260200190815260200160002060008201548160000155600182015481600101556002820154816002015560038201548160030155600482015481600401559050506040518060a001604052806000815260200160008152602001600081526020016000815260200160008152508660008381526020019081526020016000206000820151816000015560208201518160010155604082015181600201556060820151816003015560808201518160040155905050505b5b612710841415613c4057839050613e56565b613c4a85856141ff565b85600086815260200190815260200160002060040181905550600080613c70878761426f565b91509150600182118015613c815750805b8015613cb75750866000886000898152602001908152602001600020600201548152602001908152602001600020600001548511155b15613ccf57613cc6878761430a565b92505050613e56565b600182118015613cdd575080155b8015613d1257508660008860008981526020019081526020016000206003015481526020019081526020016000206000015485115b15613d2a57613d2187876143c4565b92505050613e56565b600182118015613d375750805b8015613d6c57508660008860008981526020019081526020016000206002015481526020019081526020016000206000015485115b15613dbc57613d9087886000898152602001908152602001600020600201546143c4565b87600088815260200190815260200160002060020181905550613db3878761430a565b92505050613e56565b600182118015613dca575080155b8015613e005750866000886000898152602001908152602001600020600301548152602001908152602001600020600001548511155b15613e5057613e24878860008981526020019081526020016000206003015461430a565b87600088815260200190815260200160002060030181905550613e4787876143c4565b92505050613e56565b85925050505b949350505050565b6000612710841415613ee5576040518060a001604052808481526020018381526020016127108152602001612710815260200160018152508560008481526020019081526020016000206000820151816000015560208201518160010155604082015181600201556060820151816003015560808201518160040155905050819050614191565b846000858152602001908152602001600020600001548311613f4057613f2285866000878152602001908152602001600020600201548585613e5e565b85600086815260200190815260200160002060020181905550613f7b565b613f6185866000878152602001908152602001600020600301548585613e5e565b856000868152602001908152602001600020600301819055505b613f8585856141ff565b85600086815260200190815260200160002060040181905550600080613fab878761426f565b91509150600182118015613fbc5750805b8015613ff25750866000886000898152602001908152602001600020600201548152602001908152602001600020600001548511155b1561400a57614001878761430a565b92505050614191565b600182118015614018575080155b801561404d57508660008860008981526020019081526020016000206003015481526020019081526020016000206000015485115b156140655761405c87876143c4565b92505050614191565b6001821180156140725750805b80156140a757508660008860008981526020019081526020016000206002015481526020019081526020016000206000015485115b156140f7576140cb87886000898152602001908152602001600020600201546143c4565b876000888152602001908152602001600020600201819055506140ee878761430a565b92505050614191565b600182118015614105575080155b801561413b5750866000886000898152602001908152602001600020600301548152602001908152602001600020600001548511155b1561418b5761415f878860008981526020019081526020016000206003015461430a565b8760008881526020019081526020016000206003018190555061418287876143c4565b92505050614191565b85925050505b949350505050565b60006127108360008481526020019081526020016000206002015414156141d7578260008381526020019081526020016000206000015490506141f9565b6141f68384600085815260200190815260200160002060020154614199565b90505b92915050565b60006127108214156142145760009050614269565b61425a61423684856000868152602001908152602001600020600201546141ff565b61425585866000878152602001908152602001600020600301546141ff565b61447e565b6001614266919061579a565b90505b92915050565b6000806127108314156142885760008091509150614303565b60006142a985866000878152602001908152602001600020600201546141ff565b905060006142cc86876000888152602001908152602001600020600301546141ff565b90508082106142ee5780826142e191906157f0565b6001935093505050614303565b81816142fa91906157f0565b60009350935050505b9250929050565b60008083600084815260200190815260200160002060020154905060008460008581526020019081526020016000206003015490508385600084815260200190815260200160002060030181905550808560008681526020019081526020016000206002018190555061437d85856141ff565b856000868152602001908152602001600020600401819055506143a085836141ff565b85600084815260200190815260200160002060040181905550819250505092915050565b60008083600084815260200190815260200160002060030154905060008460008381526020019081526020016000206002015490508385600084815260200190815260200160002060020181905550808560008681526020019081526020016000206003018190555061443785856141ff565b8560008681526020019081526020016000206004018190555061445a85836141ff565b85600084815260200190815260200160002060040181905550819250505092915050565b60008183111561449057829050614494565b8190505b92915050565b6040518060a0016040528060008152602001600081526020016000815260200160008152602001600081525090565b8280546144d590615647565b90600052602060002090601f0160209004810192826144f75760008555614545565b82601f106145085780548555614545565b8280016001018555821561454557600052602060002091601f016020900482015b82811115614544578254825591600101919060010190614529565b5b50905061455291906146e7565b5090565b604051806101c00160405280600073ffffffffffffffffffffffffffffffffffffffff168152602001600081526020016000815260200160608152602001606081526020016060815260200160608152602001606081526020016060815260200160608152602001606081526020016000815260200160008152602001600081525090565b8280546145e790615647565b90600052602060002090601f0160209004810192826146095760008555614650565b82601f1061462257805160ff1916838001178555614650565b82800160010185558215614650579182015b8281111561464f578251825591602001919060010190614634565b5b50905061465d91906146e7565b5090565b82805461466d90615647565b90600052602060002090601f01602090048101928261468f57600085556146d6565b82601f106146a857803560ff19168380011785556146d6565b828001600101855582156146d6579182015b828111156146d55782358255916020019190600101906146ba565b5b5090506146e391906146e7565b5090565b5b808211156147005760008160009055506001016146e8565b5090565b6000604051905090565b600080fd5b600080fd5b6000819050919050565b61472b81614718565b811461473657600080fd5b50565b60008135905061474881614722565b92915050565b6000602082840312156147645761476361470e565b5b600061477284828501614739565b91505092915050565b600081519050919050565b600082825260208201905092915050565b6000819050602082019050919050565b6147b081614718565b82525050565b60a0820160008201516147cc60008501826147a7565b5060208201516147df60208501826147a7565b5060408201516147f260408501826147a7565b50606082015161480560608501826147a7565b50608082015161481860808501826147a7565b50505050565b600061482a83836147b6565b60a08301905092915050565b6000602082019050919050565b600061484e8261477b565b6148588185614786565b935061486383614797565b8060005b8381101561489457815161487b888261481e565b975061488683614836565b925050600181019050614867565b5085935050505092915050565b600060208201905081810360008301526148bb8184614843565b905092915050565b6000806000606084860312156148dc576148db61470e565b5b60006148ea86828701614739565b93505060206148fb86828701614739565b925050604061490c86828701614739565b9150509250925092565b60008115159050919050565b61492b81614916565b82525050565b60006020820190506149466000830184614922565b92915050565b61495581614718565b82525050565b6000602082019050614970600083018461494c565b92915050565b600073ffffffffffffffffffffffffffffffffffffffff82169050919050565b60006149a182614976565b9050919050565b6149b181614996565b82525050565b600081519050919050565b600082825260208201905092915050565b60005b838110156149f15780820151818401526020810190506149d6565b83811115614a00576000848401525b50505050565b6000601f19601f8301169050919050565b6000614a22826149b7565b614a2c81856149c2565b9350614a3c8185602086016149d3565b614a4581614a06565b840191505092915050565b600081519050919050565b600082825260208201905092915050565b6000819050602082019050919050565b6000614a8883836147a7565b60208301905092915050565b6000602082019050919050565b6000614aac82614a50565b614ab68185614a5b565b9350614ac183614a6c565b8060005b83811015614af2578151614ad98882614a7c565b9750614ae483614a94565b925050600181019050614ac5565b5085935050505092915050565b600081519050919050565b600082825260208201905092915050565b6000819050602082019050919050565b6000614b378383614a17565b905092915050565b6000602082019050919050565b6000614b5782614aff565b614b618185614b0a565b935083602082028501614b7385614b1b565b8060005b85811015614baf5784840389528151614b908582614b2b565b9450614b9b83614b3f565b925060208a01995050600181019050614b77565b50829750879550505050505092915050565b60006101c083016000830151614bda60008601826149a8565b506020830151614bed60208601826147a7565b506040830151614c0060408601826147a7565b5060608301518482036060860152614c188282614a17565b91505060808301518482036080860152614c328282614aa1565b91505060a083015184820360a0860152614c4c8282614aa1565b91505060c083015184820360c0860152614c668282614aa1565b91505060e083015184820360e0860152614c808282614aa1565b915050610100830151848203610100860152614c9c8282614b4c565b915050610120830151848203610120860152614cb88282614aa1565b915050610140830151848203610140860152614cd48282614b4c565b915050610160830151614ceb6101608601826147a7565b50610180830151614d006101808601826147a7565b506101a0830151614d156101a08601826147a7565b508091505092915050565b60006020820190508181036000830152614d3a8184614bc1565b905092915050565b614d4b81614996565b82525050565b6000602082019050614d666000830184614d42565b92915050565b60008060408385031215614d8357614d8261470e565b5b6000614d9185828601614739565b9250506020614da285828601614739565b9150509250929050565b614db581614996565b8114614dc057600080fd5b50565b600081359050614dd281614dac565b92915050565b600060208284031215614dee57614ded61470e565b5b6000614dfc84828501614dc3565b91505092915050565b600080fd5b600080fd5b600080fd5b60008083601f840112614e2a57614e29614e05565b5b8235905067ffffffffffffffff811115614e4757614e46614e0a565b5b602083019150836001820283011115614e6357614e62614e0f565b5b9250929050565b60008060008060008060008060e0898b031215614e8a57614e8961470e565b5b6000614e988b828c01614739565b9850506020614ea98b828c01614739565b9750506040614eba8b828c01614739565b9650506060614ecb8b828c01614739565b9550506080614edc8b828c01614739565b94505060a0614eed8b828c01614739565b93505060c089013567ffffffffffffffff811115614f0e57614f0d614713565b5b614f1a8b828c01614e14565b92509250509295985092959890939650565b7f4e487b7100000000000000000000000000000000000000000000000000000000600052604160045260246000fd5b614f6482614a06565b810181811067ffffffffffffffff82111715614f8357614f82614f2c565b5b80604052505050565b6000614f96614704565b9050614fa28282614f5b565b919050565b600067ffffffffffffffff821115614fc257614fc1614f2c565b5b602082029050602081019050919050565b6000614fe6614fe184614fa7565b614f8c565b9050808382526020820190506020840283018581111561500957615008614e0f565b5b835b81811015615032578061501e8882614739565b84526020840193505060208101905061500b565b5050509392505050565b600082601f83011261505157615050614e05565b5b8135615061848260208601614fd3565b91505092915050565b600067ffffffffffffffff82111561508557615084614f2c565b5b602082029050602081019050919050565b600080fd5b600067ffffffffffffffff8211156150b6576150b5614f2c565b5b6150bf82614a06565b9050602081019050919050565b82818337600083830152505050565b60006150ee6150e98461509b565b614f8c565b90508281526020810184848401111561510a57615109615096565b5b6151158482856150cc565b509392505050565b600082601f83011261513257615131614e05565b5b81356151428482602086016150db565b91505092915050565b600061515e6151598461506a565b614f8c565b9050808382526020820190506020840283018581111561518157615180614e0f565b5b835b818110156151c857803567ffffffffffffffff8111156151a6576151a5614e05565b5b8086016151b3898261511d565b85526020850194505050602081019050615183565b5050509392505050565b600082601f8301126151e7576151e6614e05565b5b81356151f784826020860161514b565b91505092915050565b60008060008060008060008060008060006101608c8e0312156152265761522561470e565b5b60006152348e828f01614dc3565b9b505060206152458e828f01614739565b9a505060406152568e828f01614739565b99505060606152678e828f01614739565b98505060808c013567ffffffffffffffff81111561528857615287614713565b5b6152948e828f0161503c565b97505060a08c013567ffffffffffffffff8111156152b5576152b4614713565b5b6152c18e828f0161503c565b96505060c08c013567ffffffffffffffff8111156152e2576152e1614713565b5b6152ee8e828f0161503c565b95505060e08c013567ffffffffffffffff81111561530f5761530e614713565b5b61531b8e828f0161503c565b9450506101008c013567ffffffffffffffff81111561533d5761533c614713565b5b6153498e828f016151d2565b9350506101208c013567ffffffffffffffff81111561536b5761536a614713565b5b6153778e828f016151d2565b9250506101406153898e828f01614739565b9150509295989b509295989b9093969950565b600080604083850312156153b3576153b261470e565b5b60006153c185828601614739565b92505060206153d285828601614dc3565b9150509250929050565b6000806000604084860312156153f5576153f461470e565b5b600061540386828701614739565b935050602084013567ffffffffffffffff81111561542457615423614713565b5b61543086828701614e14565b92509250509250925092565b7f4e487b7100000000000000000000000000000000000000000000000000000000600052603260045260246000fd5b7f4e487b7100000000000000000000000000000000000000000000000000000000600052601160045260246000fd5b60006154a582614718565b91507fffffffffffffffffffffffffffffffffffffffffffffffffffffffffffffffff8214156154d8576154d761546b565b5b600182019050919050565b600082825260208201905092915050565b7f5468652063616c6c6572206f66207468652066756e6374696f6e206973206e6f60008201527f742061646d696e00000000000000000000000000000000000000000000000000602082015250565b60006155506027836154e3565b915061555b826154f4565b604082019050919050565b6000602082019050818103600083015261557f81615543565b9050919050565b7f54686520626c6f636b636861696e2064617461626173652063616e206e6f742060008201527f62652065646974656420617420746865206d6f6d656e74000000000000000000602082015250565b60006155e26037836154e3565b91506155ed82615586565b604082019050919050565b60006020820190508181036000830152615611816155d5565b9050919050565b7f4e487b7100000000000000000000000000000000000000000000000000000000600052602260045260246000fd5b6000600282049050600182168061565f57607f821691505b6020821081141561567357615672615618565b5b50919050565b600067ffffffffffffffff82169050919050565b600061569882615679565b91506156a383615679565b92508267ffffffffffffffff038211156156c0576156bf61546b565b5b828201905092915050565b60006156d682615679565b91506156e183615679565b9250828210156156f4576156f361546b565b5b828203905092915050565b7f4f776e61626c653a2063616c6c6572206973206e6f7420746865206f776e6572600082015250565b60006157356020836154e3565b9150615740826156ff565b602082019050919050565b6000602082019050818103600083015261576481615728565b9050919050565b7f4e487b7100000000000000000000000000000000000000000000000000000000600052602160045260246000fd5b60006157a582614718565b91506157b083614718565b9250827fffffffffffffffffffffffffffffffffffffffffffffffffffffffffffffffff038211156157e5576157e461546b565b5b828201905092915050565b60006157fb82614718565b915061580683614718565b9250828210156158195761581861546b565b5b828203905092915050565b7f47616d652077617320616c726561647920737461727465640000000000000000600082015250565b600061585a6018836154e3565b915061586582615824565b602082019050919050565b600060208201905081810360008301526158898161584d565b9050919050565b7f47616d6520646964206e6f74207374617274207965742e000000000000000000600082015250565b60006158c66017836154e3565b91506158d182615890565b602082019050919050565b600060208201905081810360008301526158f5816158b9565b9050919050565b7f43616e27742067657420696e636f6d65207965742e0000000000000000000000600082015250565b60006159326015836154e3565b915061593d826158fc565b602082019050919050565b6000602082019050818103600083015261596181615925565b9050919050565b7f4e487b7100000000000000000000000000000000000000000000000000000000600052601260045260246000fd5b60006159a282614718565b91506159ad83614718565b9250826159bd576159bc615968565b5b828204905092915050565b60006159d382615679565b91506159de83615679565b92508167ffffffffffffffff04831182151516156159ff576159fe61546b565b5b828202905092915050565b6000615a1582614718565b9150615a2083614718565b925082615a3057615a2f615968565b5b828206905092915050565b7f43697479206973206e6f74206372656174656420796574000000000000000000600082015250565b6000615a716017836154e3565b9150615a7c82615a3b565b602082019050919050565b60006020820190508181036000830152615aa081615a64565b9050919050565b7f4369747920697320616c726561647920696e697469616c697a65640000000000600082015250565b6000615add601b836154e3565b9150615ae882615aa7565b602082019050919050565b60006020820190508181036000830152615b0c81615ad0565b9050919050565b7f43697479206973206f776e657220627920736f6d656f6e6520656c7365000000600082015250565b6000615b49601d836154e3565b9150615b5482615b13565b602082019050919050565b60006020820190508181036000830152615b7881615b3c565b9050919050565b600081905092915050565b6000615b95826149b7565b615b9f8185615b7f565b9350615baf8185602086016149d3565b80840191505092915050565b6000615bc78284615b8a565b915081905092915050565b7f48617320746f2062652073656e742066726f6d20746865204369747920436f6e60008201527f7472616374000000000000000000000000000000000000000000000000000000602082015250565b6000615c2e6025836154e3565b9150615c3982615bd2565b604082019050919050565b60006020820190508181036000830152615c5d81615c21565b9050919050565b600063ffffffff82169050919050565b6000615c7f82615c64565b9150615c8a83615c64565b92508263ffffffff03821115615ca357615ca261546b565b5b828201905092915050565b6000615cba8385615b7f565b9350615cc78385846150cc565b82840190509392505050565b6000615ce0828486615cae565b91508190509392505050565b7f4f776e61626c653a206e6577206f776e657220697320746865207a65726f206160008201527f6464726573730000000000000000000000000000000000000000000000000000602082015250565b6000615d486026836154e3565b9150615d5382615cec565b604082019050919050565b60006020820190508181036000830152615d7781615d3b565b905091905056fea26469706673582212209405e4f326f74e39e0c3f80f7a27f973b7547cf0282febe8a5603b05b6ac65de64736f6c634300080b0033",
  "immutableReferences": {},
  "source": "// SPDX-License-Identifier: MIT\r\npragma solidity ^0.8.11;\r\n\r\nimport \"../node_modules/@openzeppelin/contracts/access/Ownable.sol\";\r\nimport \"./CityContract.sol\";\r\nimport { BST } from \"./BST.sol\";\r\n\r\ncontract Gameplay is Ownable {\r\n\r\n    constructor(address _admin, address _nftContractAddress) {\r\n        initStringToType();\r\n        admin = _admin;\r\n        nftContractAddress = _nftContractAddress;\r\n        CityContract contr = CityContract(nftContractAddress);\r\n        contr.initGameplayContract(address(this));\r\n    }\r\n\r\n    // #region Util functions, structs,...\r\n\r\n    enum BuildingTypes {\r\n        Factory,\r\n        Office,\r\n        Restaurant,\r\n        Building,\r\n        House,\r\n        Store,\r\n        SuperMarket,\r\n        Park,\r\n        Gym\r\n    }\r\n\r\n    mapping(string => BuildingTypes) stringToType;\r\n    mapping(BuildingTypes => string) typeToString;\r\n    uint numOfBuildingTypes = 10;\r\n    function initStringToType() private {\r\n        stringToType[\"factory\"] = BuildingTypes.Factory;\r\n        stringToType[\"office\"] = BuildingTypes.Office;\r\n        stringToType[\"restaurant\"] = BuildingTypes.Restaurant;\r\n        stringToType[\"building\"] = BuildingTypes.Building;\r\n        stringToType[\"house\"] = BuildingTypes.House;\r\n        stringToType[\"store\"] = BuildingTypes.Store;\r\n        stringToType[\"superMarket\"] = BuildingTypes.SuperMarket;\r\n        stringToType[\"park\"] = BuildingTypes.Park;\r\n        stringToType[\"gym\"] = BuildingTypes.Gym;\r\n\r\n        typeToString[BuildingTypes.Factory] = \"factory\";\r\n        typeToString[BuildingTypes.Office] = \"office\";\r\n        typeToString[BuildingTypes.Restaurant] = \"restaurant\";\r\n        typeToString[BuildingTypes.Building] = \"building\";\r\n        typeToString[BuildingTypes.House] = \"house\";\r\n        typeToString[BuildingTypes.Store] = \"store\";\r\n        typeToString[BuildingTypes.SuperMarket] = \"superMarket\";\r\n        typeToString[BuildingTypes.Park] = \"park\";\r\n        typeToString[BuildingTypes.Gym] = \"gym\";\r\n    }\r\n    \r\n    struct Building {\r\n        BuildingTypes buildingType;\r\n        uint32 startx;\r\n        uint32 starty;\r\n        uint32 endx;\r\n        uint32 endy;\r\n        uint32 level;\r\n    } // occupies 1 block of 256 bytes\r\n\r\n    struct SpecialBuilding {\r\n        string specialType;\r\n        uint32 startx;\r\n        uint32 starty;\r\n        uint32 endx;\r\n        uint32 endy;\r\n    } // occupies 2 block of 256 bytes\r\n\r\n    struct City {\r\n        mapping(uint => Building) buildingList;\r\n        mapping(uint => SpecialBuilding) specialBuildingList;\r\n        string username;\r\n        bool created;\r\n        bool initialized;\r\n        uint64 numOfBuildings;\r\n        uint64 numOfSpecialBuildings;\r\n        uint64 money;\r\n        uint64 income;\r\n        address owner;\r\n        uint lastPay;\r\n    } // occupies ( 4 + numOfBuildings + numOfSpecialBuildings ) blocks of 256 bytes in total\r\n\r\n    // #endregion\r\n    // #region Variables\r\n    address admin;\r\n    address nftContractAddress;\r\n    bool editable = true;\r\n    uint gameStart = 2000000000;\r\n    uint payPeriod = 60; // 1 day = 86400\r\n\r\n    mapping(uint => City) cities; // map (array) containing all the data about the City NFTs\r\n    uint64 startingMoney = 100000; // the amount of in-game money everyone has right after minting\r\n\r\n    mapping(uint => BST.Node) leaderboard;\r\n    uint root = 10000;\r\n    uint id = 0;\r\n    // #endregion\r\n    // #region Minting and transfering NFTs\r\n\r\n    /**\r\n     * @dev Function can only be called by the City Contract, it is called when initializing the city and giving it an owner\r\n     * @param tokenId id of the city\r\n     * @param addr is the address of the owner (person who just minted the city)\r\n     */\r\n    function created(uint tokenId, address addr) external {\r\n        require(msg.sender == nftContractAddress, 'Has to be sent from the City Contract');\r\n        cities[tokenId].owner = addr;\r\n        cities[tokenId].created = true;\r\n    }\r\n\r\n    /**\r\n     * @dev Function can only be called by the City Cotract, it is called beforeTokenTransfer and reassignes the owner value of the city nft\r\n     * @param tokenId id of the city\r\n     * @param _newOwner is the new owner of the nft with that id\r\n     */\r\n    function newOwner(uint tokenId, address _newOwner) public {\r\n        require(msg.sender == nftContractAddress, 'Has to be sent from the City Contract');\r\n        cities[tokenId].owner = _newOwner;\r\n    }\r\n\r\n    /**\r\n     * @dev Function used for minting new City NFTs\r\n     * @param tokenId index of the token being initialized\r\n     * @param numOfBuildings number of buildings in the city\r\n     * @param numOfSpecialBuildings number of special buildings in the city\r\n     * @param startx arrays of coordinates for both types of buildings\r\n     * @param starty ...\r\n     * @param endx ...\r\n     * @param endy ...\r\n     * @param buildingType array of strings representing the buildingTypes\r\n     * @param specialType uint array representing the types of the special buildings\r\n     * @param income the calculated income for the city\r\n     */\r\n    function initializeCity(\r\n        address owner,\r\n        uint tokenId,\r\n        uint numOfBuildings,\r\n        uint numOfSpecialBuildings,\r\n        // string calldata username,\r\n        uint[] memory startx,\r\n        uint[] memory starty,\r\n        uint[] memory endx,\r\n        uint[] memory endy,\r\n        string[] memory buildingType,\r\n        string[] memory specialType,\r\n        uint income\r\n    ) external onlyAdmin isEditable {\r\n        require(cities[tokenId].created == true , \"City is not created yet\");\r\n        require(cities[tokenId].initialized == false , \"City is already initialized\");\r\n        require(cities[tokenId].owner == owner, \"City is owner by someone else\");\r\n        \r\n        City storage city = cities[tokenId];\r\n        for(uint i = 0; i < numOfBuildings; i++) {\r\n            city.buildingList[i].startx = uint32(startx[i]);\r\n            city.buildingList[i].starty = uint32(starty[i]);\r\n            city.buildingList[i].endx = uint32(endx[i]);\r\n            city.buildingList[i].endy = uint32(endy[i]);\r\n            city.buildingList[i].buildingType = stringToType[buildingType[i]];\r\n        }\r\n        for(uint i = numOfBuildings; i < numOfSpecialBuildings + numOfBuildings; i++) {\r\n            city.specialBuildingList[i-numOfBuildings].startx = uint32(startx[i]);\r\n            city.specialBuildingList[i-numOfBuildings].starty = uint32(starty[i]);\r\n            city.specialBuildingList[i-numOfBuildings].endx = uint32(endx[i]);\r\n            city.specialBuildingList[i-numOfBuildings].endy = uint32(endy[i]);\r\n            city.specialBuildingList[i-numOfBuildings].specialType = specialType[i-numOfBuildings];\r\n        }\r\n        city.numOfBuildings = uint64(numOfBuildings);\r\n        city.numOfSpecialBuildings = uint64(numOfSpecialBuildings);\r\n        city.username = \"Player\";\r\n        city.income = uint64(income);\r\n        city.money = startingMoney;\r\n        city.owner = owner;\r\n        city.initialized = true;\r\n        if(gameStart != 2000000000) city.lastPay = block.timestamp - ((block.timestamp - gameStart) % payPeriod);\r\n        else city.lastPay = 0;\r\n\r\n        root = BST.insert(leaderboard, root, income, id); // income should be the 'score' of the player\r\n\r\n        id++;\r\n    }\r\n\r\n    // #endregion\r\n    // #region Changing the cities\r\n    \r\n    /**\r\n     * @dev Function to change the username\r\n     * @param tokenId id of the nft\r\n     * @param _username new username\r\n     */\r\n    function changeusername(uint tokenId, string calldata _username) external {\r\n        require(msg.sender == cities[tokenId].owner);\r\n\r\n        cities[tokenId].username = _username;\r\n    }\r\n\r\n    /**\r\n     * @dev Function that will change the income of a city - should be called when building, upgrading or deleting something\r\n     * @param tokenId id of the city\r\n     * @param newIncome new income\r\n     */\r\n    function changeIncome(uint tokenId, uint newIncome) external onlyAdmin isEditable {\r\n        uint score = cities[tokenId].income;\r\n        root = BST.remove(leaderboard, root, score, tokenId);\r\n        cities[tokenId].income = uint64(newIncome);\r\n        score = cities[tokenId].income;\r\n        root = BST.insert(leaderboard, root, score, tokenId);\r\n    }\r\n\r\n    /**\r\n     * @dev Function upgrading a building at the index in the list\r\n     * @param tokenId id of the city\r\n     * @param price the price of upgrading the building\r\n     * @param buildingIndex the index of the building in the list \r\n     */\r\n    function upgradeBuilding(uint tokenId, uint price, uint buildingIndex) external onlyAdmin isEditable {\r\n        cities[tokenId].buildingList[buildingIndex].level += 1;\r\n        cities[tokenId].money = cities[tokenId].money - uint64(price);\r\n    }\r\n\r\n    /**\r\n     * @dev Function adding a new building into the city\r\n     * @param tokenId id of the city\r\n     * @param price of the building\r\n     * @param _startx x starting coordinate\r\n     * @param _starty y starting coordinate\r\n     * @param _endx x ending coordinate\r\n     * @param _endy y ending coordinate\r\n     * @param _buildingType a string that represents a building type\r\n     */\r\n    function addBuilding(\r\n        uint tokenId,\r\n        uint price,\r\n        uint _startx,\r\n        uint _starty,\r\n        uint _endx,\r\n        uint _endy,\r\n        string calldata _buildingType\r\n    ) external onlyAdmin isEditable {\r\n        City storage city = cities[tokenId];\r\n        city.buildingList[city.numOfBuildings] = Building({\r\n            buildingType: stringToType[_buildingType],\r\n            startx: uint32(_startx),\r\n            starty: uint32(_starty),\r\n            endx: uint32(_endx),\r\n            endy: uint32(_endy),\r\n            level: 0\r\n        });\r\n        city.numOfBuildings += 1;\r\n        city.money = city.money - uint64(price);\r\n\r\n        // Ovo je zakomentarisano jer ce se izvrsavati u posebnoj funkciji\r\n        // uint score = cities[tokenId].money + cities[tokenId].income * 7;\r\n        // root = BST.remove(leaderboard, root, score, tokenId);\r\n        // cities[tokenId].income = uint64(newIncome);\r\n        // score = cities[tokenId].income;\r\n        // root = BST.insert(leaderboard, root, score, tokenId);\r\n    }\r\n\r\n    /**\r\n     * @dev Function adding a new building into the city\r\n     * @param tokenId id of the city\r\n     * @param price of the building\r\n     * @param _startx x starting coordinate\r\n     * @param _starty y starting coordinate\r\n     * @param _endx x ending coordinate\r\n     * @param _endy y ending coordinate\r\n     * @param _specialType a string that represents a building type\r\n     */\r\n    function addSpecialBuilding(\r\n        uint tokenId,\r\n        uint price,\r\n        uint _startx,\r\n        uint _starty,\r\n        uint _endx,\r\n        uint _endy,\r\n        string calldata _specialType\r\n    ) external onlyAdmin isEditable {\r\n        City storage city = cities[tokenId];\r\n        city.specialBuildingList[city.numOfSpecialBuildings] = SpecialBuilding({\r\n            specialType: _specialType,\r\n            startx: uint32(_startx),\r\n            starty: uint32(_starty),\r\n            endx: uint32(_endx),\r\n            endy: uint32(_endy)\r\n        });\r\n        city.numOfSpecialBuildings += 1;\r\n        city.money = city.money - uint64(price);\r\n    }\r\n\r\n    /**\r\n     * @dev Function used for removing a building from a city\r\n     * @param tokenId id of the city\r\n     * @param value that will be refunded for selling/removing a building from the city\r\n     * @param buildingIndex is the index of the building in the list\r\n     */\r\n    function removeBuilding(uint tokenId, uint value, uint buildingIndex) external onlyAdmin isEditable {\r\n        // curr building getting values from last building in the list\r\n        cities[tokenId].buildingList[buildingIndex].buildingType = cities[tokenId].buildingList[cities[tokenId].numOfBuildings].buildingType;\r\n        cities[tokenId].buildingList[buildingIndex].startx = cities[tokenId].buildingList[cities[tokenId].numOfBuildings].startx;\r\n        cities[tokenId].buildingList[buildingIndex].starty = cities[tokenId].buildingList[cities[tokenId].numOfBuildings].starty;\r\n        cities[tokenId].buildingList[buildingIndex].endx = cities[tokenId].buildingList[cities[tokenId].numOfBuildings].endx;\r\n        cities[tokenId].buildingList[buildingIndex].endy = cities[tokenId].buildingList[cities[tokenId].numOfBuildings].endy;\r\n        cities[tokenId].buildingList[buildingIndex].level = cities[tokenId].buildingList[cities[tokenId].numOfBuildings].level;\r\n        \r\n        // cities[tokenId].buildingList[buildingIndex] = cities[tokenId].buildingList[cities[tokenId].numOfBuildings];\r\n\r\n        cities[tokenId].money = cities[tokenId].money + uint64(value);\r\n\r\n        cities[tokenId].numOfBuildings = cities[tokenId].numOfBuildings - 1;\r\n    }\r\n    \r\n    /**\r\n     * @dev Function used for removing a building from a city\r\n     * @param tokenId id of the city\r\n     * @param value that will be refunded for selling/removing a building from the city\r\n     * @param buildingIndex is the index of the building in the list\r\n     */\r\n    function removeSpecialBuilding(uint tokenId, uint value, uint buildingIndex) external onlyAdmin isEditable {\r\n        // curr building getting values from last building in the list\r\n        cities[tokenId].specialBuildingList[buildingIndex].specialType = cities[tokenId].specialBuildingList[cities[tokenId].numOfSpecialBuildings].specialType;\r\n        cities[tokenId].specialBuildingList[buildingIndex].startx = cities[tokenId].specialBuildingList[cities[tokenId].numOfSpecialBuildings].startx;\r\n        cities[tokenId].specialBuildingList[buildingIndex].starty = cities[tokenId].specialBuildingList[cities[tokenId].numOfSpecialBuildings].starty;\r\n        cities[tokenId].specialBuildingList[buildingIndex].endx = cities[tokenId].specialBuildingList[cities[tokenId].numOfSpecialBuildings].endx;\r\n        cities[tokenId].specialBuildingList[buildingIndex].endy = cities[tokenId].specialBuildingList[cities[tokenId].numOfSpecialBuildings].endy;\r\n        \r\n        cities[tokenId].money = cities[tokenId].money + uint64(value);\r\n\r\n        cities[tokenId].numOfSpecialBuildings = cities[tokenId].numOfSpecialBuildings - 1;\r\n    }\r\n\r\n    /**\r\n     * @dev Function that starts the game, income will begin to be calculated and received (this happens by chaning the 'gameStart' value to current block.timestamp and setting at 'lastPay' for all cities)\r\n     */\r\n    function startGameIncome() external onlyAdmin isEditable {\r\n        require(gameStart == 2000000000, \"Game was already started\");\r\n        gameStart = block.timestamp;\r\n        uint i = 0;\r\n        while(cities[i].owner != address(0)) {\r\n            cities[i].lastPay = gameStart;\r\n            i++;\r\n        }\r\n    }\r\n\r\n    /**\r\n     * @dev Function getting the income for a city if conditions are met\r\n     * @param tokenId id of the city\r\n     */\r\n    function getIncome(uint tokenId) external onlyAdmin isEditable {\r\n        require(block.timestamp > gameStart, \"Game did not start yet.\");\r\n        require(block.timestamp - cities[tokenId].lastPay > payPeriod, \"Can't get income yet.\");\r\n\r\n        uint n = (block.timestamp - cities[tokenId].lastPay) / payPeriod;\r\n        cities[tokenId].money += uint64(n) * cities[tokenId].income;\r\n        cities[tokenId].lastPay = block.timestamp - ((block.timestamp - gameStart) % payPeriod);\r\n    }\r\n\r\n    // #endregion\r\n    // #region Getting data from the contract\r\n\r\n    /**\r\n     * @dev Function returns true if the cities are editable, and false if they are not\r\n     */\r\n    function getEditableState() external view returns(bool) {\r\n        return editable;\r\n    }\r\n\r\n    struct CityRepresentation {\r\n        address owner;\r\n        uint numOfBuildings;\r\n        uint numOfSpecialBuildings;\r\n        string username;\r\n        uint[] startx;\r\n        uint[] starty;\r\n        uint[] endx;\r\n        uint[] endy;\r\n        string[] buildingType;\r\n        uint[] level;\r\n        string[] specialType;\r\n        uint money;\r\n        uint income;\r\n        uint lastPay;\r\n    } // this is a struct used for returning values from the blockchain\r\n    function getCityData(uint tokenId) external view returns(CityRepresentation memory) {\r\n        City storage city = cities[tokenId];\r\n        uint numOfBuildings = city.numOfBuildings;\r\n        uint numOfSpecialBuildings  = city.numOfSpecialBuildings;\r\n        CityRepresentation memory r = CityRepresentation({\r\n            owner: city.owner,\r\n            numOfBuildings: numOfBuildings,\r\n            numOfSpecialBuildings: numOfSpecialBuildings,\r\n            username: city.username,\r\n            startx: new uint[](numOfBuildings + numOfSpecialBuildings),\r\n            starty: new uint[](numOfBuildings + numOfSpecialBuildings),\r\n            endx: new uint[](numOfBuildings + numOfSpecialBuildings),\r\n            endy: new uint[](numOfBuildings + numOfSpecialBuildings),\r\n            buildingType: new string[](numOfBuildings),\r\n            level: new uint[](numOfBuildings),\r\n            specialType: new string[](numOfSpecialBuildings),\r\n            money: city.money,\r\n            income: city.income,\r\n            lastPay: (gameStart == 2000000000) ? gameStart : city.lastPay - gameStart\r\n        });\r\n        for(uint i = 0; i < numOfBuildings; i++) {  \r\n            r.startx[i] = city.buildingList[i].startx;\r\n            r.starty[i] = city.buildingList[i].starty;\r\n            r.endx[i] = city.buildingList[i].endx;\r\n            r.endy[i] = city.buildingList[i].endy;\r\n            r.buildingType[i] = typeToString[city.buildingList[i].buildingType];\r\n            r.level[i] = city.buildingList[i].level;\r\n        }\r\n        for(uint i = numOfBuildings; i < numOfSpecialBuildings + numOfBuildings; i++) {\r\n            r.startx[i] = city.specialBuildingList[i-numOfBuildings].startx;\r\n            r.starty[i] = city.specialBuildingList[i-numOfBuildings].starty;\r\n            r.endx[i] = city.specialBuildingList[i-numOfBuildings].endx;\r\n            r.endy[i] = city.specialBuildingList[i-numOfBuildings].endy;\r\n            r.specialType[i-numOfBuildings] = city.specialBuildingList[i-numOfBuildings].specialType;\r\n        }\r\n        return r;\r\n    } // returns a struct with all the data about the city with the 'tokenId' ID\r\n\r\n    // returns an array of indices that correspod to the IDs of the sorted cities\r\n    function getTree() external view returns(BST.Node[] memory) {\r\n        BST.Node[] memory r = new BST.Node[](id);\r\n        for(uint i = 0; i < id; i++) {\r\n            r[i] = leaderboard[i];\r\n        }\r\n        return r;\r\n    } \r\n\r\n    // #endregion\r\n    // #region Modifiers and other functions\r\n\r\n    // returns the timestamp from the blockchain\r\n    function getBlockchainTime() external view returns(uint) {\r\n        return block.timestamp;\r\n    }\r\n\r\n    // changes the time required to pass to receive income\r\n    function changePayPeriod(uint _payPeriod) external onlyAdmin {\r\n        payPeriod = _payPeriod;\r\n    }\r\n\r\n    // modifier is used to check if the person who called the function is the Admin\r\n    modifier onlyAdmin() {\r\n        require(msg.sender == admin, 'The caller of the function is not admin');\r\n        _;\r\n    }\r\n\r\n    // function that can change the Admin address in case a proble occurs - can be calles only by the owner\r\n    function changeAdmin(address newAdmin) external onlyOwner {\r\n        admin = newAdmin;\r\n    }\r\n\r\n    // modifier is used to check if the cities can be edited - they won't be editable only if a major problem occurs\r\n    modifier isEditable() {\r\n        require(editable == true, 'The blockchain database can not be edited at the moment');\r\n        _;\r\n    }\r\n\r\n    // function is called to restrict editing data on the blockchain\r\n    function flipEditableState() public onlyOwner {\r\n        editable = !editable;\r\n    }\r\n\r\n    // #endregion\r\n    // #region Dev options\r\n\r\n    function devSetMoney(uint tokenId, uint _money) external {\r\n        require(msg.sender == cities[tokenId].owner);\r\n\r\n        cities[tokenId].money = uint64(_money);\r\n    }\r\n\r\n    // City gone, reduced to atoms...\r\n    function devDemolishCity(uint tokenId) external {\r\n        require(msg.sender == cities[tokenId].owner);\r\n\r\n        cities[tokenId].numOfBuildings = 0;\r\n        cities[tokenId].numOfSpecialBuildings = 0;\r\n    }\r\n\r\n    // #endregion\r\n}",
  "sourcePath": "C:\\Users\\Dario Vajda\\OneDrive\\Desktop\\nft project\\nft\\smart_contracts\\contracts\\Gameplay.sol",
  "compiler": {
    "name": "solc",
    "version": "0.8.11+commit.d7f03943.Emscripten.clang"
  },
  "schemaVersion": "3.4.4",
  "updatedAt": "2022-05-08T17:34:14.904Z",
  "networkType": "ethereum",
  "devdoc": {
    "kind": "dev",
    "methods": {
      "addBuilding(uint256,uint256,uint256,uint256,uint256,uint256,string)": {
        "details": "Function adding a new building into the city",
        "params": {
          "_buildingType": "a string that represents a building type",
          "_endx": "x ending coordinate",
          "_endy": "y ending coordinate",
          "_startx": "x starting coordinate",
          "_starty": "y starting coordinate",
          "price": "of the building",
          "tokenId": "id of the city"
        }
      },
      "addSpecialBuilding(uint256,uint256,uint256,uint256,uint256,uint256,string)": {
        "details": "Function adding a new building into the city",
        "params": {
          "_endx": "x ending coordinate",
          "_endy": "y ending coordinate",
          "_specialType": "a string that represents a building type",
          "_startx": "x starting coordinate",
          "_starty": "y starting coordinate",
          "price": "of the building",
          "tokenId": "id of the city"
        }
      },
      "changeIncome(uint256,uint256)": {
        "details": "Function that will change the income of a city - should be called when building, upgrading or deleting something",
        "params": {
          "newIncome": "new income",
          "tokenId": "id of the city"
        }
      },
      "changeusername(uint256,string)": {
        "details": "Function to change the username",
        "params": {
          "_username": "new username",
          "tokenId": "id of the nft"
        }
      },
      "created(uint256,address)": {
        "details": "Function can only be called by the City Contract, it is called when initializing the city and giving it an owner",
        "params": {
          "addr": "is the address of the owner (person who just minted the city)",
          "tokenId": "id of the city"
        }
      },
      "getEditableState()": {
        "details": "Function returns true if the cities are editable, and false if they are not"
      },
      "getIncome(uint256)": {
        "details": "Function getting the income for a city if conditions are met",
        "params": {
          "tokenId": "id of the city"
        }
      },
      "initializeCity(address,uint256,uint256,uint256,uint256[],uint256[],uint256[],uint256[],string[],string[],uint256)": {
        "details": "Function used for minting new City NFTs",
        "params": {
          "buildingType": "array of strings representing the buildingTypes",
          "endx": "...",
          "endy": "...",
          "income": "the calculated income for the city",
          "numOfBuildings": "number of buildings in the city",
          "numOfSpecialBuildings": "number of special buildings in the city",
          "specialType": "uint array representing the types of the special buildings",
          "startx": "arrays of coordinates for both types of buildings",
          "starty": "...",
          "tokenId": "index of the token being initialized"
        }
      },
      "newOwner(uint256,address)": {
        "details": "Function can only be called by the City Cotract, it is called beforeTokenTransfer and reassignes the owner value of the city nft",
        "params": {
          "_newOwner": "is the new owner of the nft with that id",
          "tokenId": "id of the city"
        }
      },
      "owner()": {
        "details": "Returns the address of the current owner."
      },
      "removeBuilding(uint256,uint256,uint256)": {
        "details": "Function used for removing a building from a city",
        "params": {
          "buildingIndex": "is the index of the building in the list",
          "tokenId": "id of the city",
          "value": "that will be refunded for selling/removing a building from the city"
        }
      },
      "removeSpecialBuilding(uint256,uint256,uint256)": {
        "details": "Function used for removing a building from a city",
        "params": {
          "buildingIndex": "is the index of the building in the list",
          "tokenId": "id of the city",
          "value": "that will be refunded for selling/removing a building from the city"
        }
      },
      "renounceOwnership()": {
        "details": "Leaves the contract without owner. It will not be possible to call `onlyOwner` functions anymore. Can only be called by the current owner. NOTE: Renouncing ownership will leave the contract without an owner, thereby removing any functionality that is only available to the owner."
      },
      "startGameIncome()": {
        "details": "Function that starts the game, income will begin to be calculated and received (this happens by chaning the 'gameStart' value to current block.timestamp and setting at 'lastPay' for all cities)"
      },
      "transferOwnership(address)": {
        "details": "Transfers ownership of the contract to a new account (`newOwner`). Can only be called by the current owner."
      },
      "upgradeBuilding(uint256,uint256,uint256)": {
        "details": "Function upgrading a building at the index in the list",
        "params": {
          "buildingIndex": "the index of the building in the list ",
          "price": "the price of upgrading the building",
          "tokenId": "id of the city"
        }
      }
    },
    "version": 1
  },
  "userdoc": {
    "kind": "user",
    "methods": {},
    "version": 1
  }
}