{
  "contractName": "Gameplay",
  "abi": [
    {
      "inputs": [
        {
          "internalType": "address",
          "name": "_admin",
          "type": "address"
        },
        {
          "internalType": "address",
          "name": "_nftContractAddress",
          "type": "address"
        }
      ],
      "stateMutability": "nonpayable",
      "type": "constructor"
    },
    {
      "inputs": [
        {
          "internalType": "string",
          "name": "key",
          "type": "string"
        },
        {
          "internalType": "uint32",
          "name": "count",
          "type": "uint32"
        },
        {
          "internalType": "uint32",
          "name": "rarity",
          "type": "uint32"
        }
      ],
      "name": "addSpecialBuildingType",
      "outputs": [],
      "stateMutability": "nonpayable",
      "type": "function"
    },
    {
      "inputs": [
        {
          "internalType": "string",
          "name": "key",
          "type": "string"
        }
      ],
      "name": "getSpecialBuildingType",
      "outputs": [
        {
          "internalType": "uint256",
          "name": "count",
          "type": "uint256"
        },
        {
          "internalType": "uint256",
          "name": "numOfOffers",
          "type": "uint256"
        },
        {
          "internalType": "uint256",
          "name": "rarity",
          "type": "uint256"
        },
        {
          "internalType": "bool",
          "name": "soldOut",
          "type": "bool"
        },
        {
          "components": [
            {
              "internalType": "uint64",
              "name": "value",
              "type": "uint64"
            },
            {
              "internalType": "uint64",
              "name": "user",
              "type": "uint64"
            },
            {
              "internalType": "bool",
              "name": "filled",
              "type": "bool"
            }
          ],
          "internalType": "struct Gameplay.SpecialOffer[]",
          "name": "offers",
          "type": "tuple[]"
        }
      ],
      "stateMutability": "view",
      "type": "function",
      "constant": true
    },
    {
      "inputs": [
        {
          "internalType": "string",
          "name": "key",
          "type": "string"
        },
        {
          "internalType": "uint64",
          "name": "makerId",
          "type": "uint64"
        },
        {
          "internalType": "uint64",
          "name": "value",
          "type": "uint64"
        }
      ],
      "name": "makeSpecialOffer",
      "outputs": [],
      "stateMutability": "nonpayable",
      "type": "function"
    },
    {
      "inputs": [
        {
          "internalType": "string",
          "name": "key",
          "type": "string"
        },
        {
          "internalType": "uint256",
          "name": "user",
          "type": "uint256"
        },
        {
          "internalType": "uint256",
          "name": "value",
          "type": "uint256"
        }
      ],
      "name": "cancelSpecialOffer",
      "outputs": [],
      "stateMutability": "nonpayable",
      "type": "function"
    },
    {
      "inputs": [
        {
          "internalType": "uint256",
          "name": "tokenId",
          "type": "uint256"
        },
        {
          "internalType": "address",
          "name": "addr",
          "type": "address"
        }
      ],
      "name": "created",
      "outputs": [],
      "stateMutability": "nonpayable",
      "type": "function"
    },
    {
      "inputs": [
        {
          "internalType": "uint256",
          "name": "tokenId",
          "type": "uint256"
        },
        {
          "internalType": "address",
          "name": "_newOwner",
          "type": "address"
        }
      ],
      "name": "newOwner",
      "outputs": [],
      "stateMutability": "nonpayable",
      "type": "function"
    },
    {
      "inputs": [
        {
          "internalType": "address",
          "name": "_owner",
          "type": "address"
        },
        {
          "internalType": "uint256",
          "name": "tokenId",
          "type": "uint256"
        },
        {
          "internalType": "uint32",
          "name": "theme",
          "type": "uint32"
        }
      ],
      "name": "initializeCity",
      "outputs": [],
      "stateMutability": "nonpayable",
      "type": "function"
    },
    {
      "inputs": [
        {
          "internalType": "uint256",
          "name": "tokenId",
          "type": "uint256"
        },
        {
          "internalType": "uint256",
          "name": "newScore",
          "type": "uint256"
        }
      ],
      "name": "changeScore",
      "outputs": [],
      "stateMutability": "nonpayable",
      "type": "function"
    },
    {
      "inputs": [
        {
          "internalType": "uint256",
          "name": "tokenId",
          "type": "uint256"
        },
        {
          "internalType": "uint256",
          "name": "buildingId",
          "type": "uint256"
        }
      ],
      "name": "upgradeBuilding",
      "outputs": [],
      "stateMutability": "nonpayable",
      "type": "function"
    },
    {
      "inputs": [
        {
          "internalType": "uint256",
          "name": "tokenId",
          "type": "uint256"
        },
        {
          "internalType": "uint256",
          "name": "_startx",
          "type": "uint256"
        },
        {
          "internalType": "uint256",
          "name": "_starty",
          "type": "uint256"
        },
        {
          "internalType": "uint256",
          "name": "_endx",
          "type": "uint256"
        },
        {
          "internalType": "uint256",
          "name": "_endy",
          "type": "uint256"
        },
        {
          "internalType": "uint256",
          "name": "_orientation",
          "type": "uint256"
        },
        {
          "internalType": "uint256",
          "name": "_level",
          "type": "uint256"
        },
        {
          "internalType": "string",
          "name": "_buildingType",
          "type": "string"
        }
      ],
      "name": "addBuilding",
      "outputs": [],
      "stateMutability": "nonpayable",
      "type": "function"
    },
    {
      "inputs": [
        {
          "internalType": "uint256",
          "name": "tokenId",
          "type": "uint256"
        },
        {
          "internalType": "uint256",
          "name": "_startx",
          "type": "uint256"
        },
        {
          "internalType": "uint256",
          "name": "_starty",
          "type": "uint256"
        },
        {
          "internalType": "uint256",
          "name": "_endx",
          "type": "uint256"
        },
        {
          "internalType": "uint256",
          "name": "_endy",
          "type": "uint256"
        },
        {
          "internalType": "uint256",
          "name": "_orientation",
          "type": "uint256"
        },
        {
          "internalType": "string",
          "name": "_specialType",
          "type": "string"
        },
        {
          "internalType": "bool",
          "name": "throughOffer",
          "type": "bool"
        }
      ],
      "name": "addSpecialBuilding",
      "outputs": [],
      "stateMutability": "nonpayable",
      "type": "function"
    },
    {
      "inputs": [
        {
          "internalType": "uint256",
          "name": "tokenId",
          "type": "uint256"
        },
        {
          "internalType": "uint256",
          "name": "buildingId",
          "type": "uint256"
        }
      ],
      "name": "removeBuilding",
      "outputs": [],
      "stateMutability": "nonpayable",
      "type": "function"
    },
    {
      "inputs": [
        {
          "internalType": "uint256",
          "name": "tokenId",
          "type": "uint256"
        },
        {
          "internalType": "uint256",
          "name": "buildingId",
          "type": "uint256"
        },
        {
          "internalType": "bool",
          "name": "throughOffer",
          "type": "bool"
        },
        {
          "internalType": "uint256",
          "name": "buyerId",
          "type": "uint256"
        },
        {
          "internalType": "uint256",
          "name": "offerValue",
          "type": "uint256"
        }
      ],
      "name": "removeSpecialBuilding",
      "outputs": [],
      "stateMutability": "nonpayable",
      "type": "function"
    },
    {
      "inputs": [
        {
          "internalType": "uint256",
          "name": "tokenId",
          "type": "uint256"
        },
        {
          "internalType": "uint256",
          "name": "buildingId",
          "type": "uint256"
        },
        {
          "internalType": "uint256",
          "name": "_orientation",
          "type": "uint256"
        }
      ],
      "name": "rotate",
      "outputs": [],
      "stateMutability": "nonpayable",
      "type": "function"
    },
    {
      "inputs": [
        {
          "internalType": "uint256",
          "name": "tokenId",
          "type": "uint256"
        },
        {
          "internalType": "uint256",
          "name": "buildingId",
          "type": "uint256"
        },
        {
          "internalType": "uint256",
          "name": "_orientation",
          "type": "uint256"
        }
      ],
      "name": "rotateSpecial",
      "outputs": [],
      "stateMutability": "nonpayable",
      "type": "function"
    },
    {
      "inputs": [],
      "name": "startGameIncome",
      "outputs": [],
      "stateMutability": "nonpayable",
      "type": "function"
    },
    {
      "inputs": [
        {
          "internalType": "uint256",
          "name": "tokenId",
          "type": "uint256"
        },
        {
          "internalType": "uint256",
          "name": "income",
          "type": "uint256"
        }
      ],
      "name": "getIncome",
      "outputs": [],
      "stateMutability": "nonpayable",
      "type": "function"
    },
    {
      "inputs": [],
      "name": "getEditableState",
      "outputs": [
        {
          "internalType": "bool",
          "name": "",
          "type": "bool"
        }
      ],
      "stateMutability": "view",
      "type": "function",
      "constant": true
    },
    {
      "inputs": [],
      "name": "getNumOfPlayers",
      "outputs": [
        {
          "internalType": "uint256",
          "name": "",
          "type": "uint256"
        }
      ],
      "stateMutability": "view",
      "type": "function",
      "constant": true
    },
    {
      "inputs": [
        {
          "internalType": "uint256",
          "name": "tokenId",
          "type": "uint256"
        }
      ],
      "name": "getCityData",
      "outputs": [
        {
          "internalType": "address",
          "name": "cityOwner",
          "type": "address"
        },
        {
          "internalType": "bool",
          "name": "cityCreated",
          "type": "bool"
        },
        {
          "internalType": "bool",
          "name": "initialized",
          "type": "bool"
        },
        {
          "internalType": "uint32",
          "name": "theme",
          "type": "uint32"
        },
        {
          "internalType": "uint256",
          "name": "money",
          "type": "uint256"
        },
        {
          "internalType": "uint256",
          "name": "income",
          "type": "uint256"
        },
        {
          "internalType": "uint256",
          "name": "incomesReceived",
          "type": "uint256"
        },
        {
          "components": [
            {
              "internalType": "string",
              "name": "buildingType",
              "type": "string"
            },
            {
              "internalType": "uint32",
              "name": "startx",
              "type": "uint32"
            },
            {
              "internalType": "uint32",
              "name": "starty",
              "type": "uint32"
            },
            {
              "internalType": "uint32",
              "name": "endx",
              "type": "uint32"
            },
            {
              "internalType": "uint32",
              "name": "endy",
              "type": "uint32"
            },
            {
              "internalType": "uint32",
              "name": "level",
              "type": "uint32"
            },
            {
              "internalType": "uint32",
              "name": "orientation",
              "type": "uint32"
            },
            {
              "internalType": "uint32",
              "name": "id",
              "type": "uint32"
            }
          ],
          "internalType": "struct Gameplay.Building[]",
          "name": "buildingList",
          "type": "tuple[]"
        },
        {
          "components": [
            {
              "internalType": "string",
              "name": "specialType",
              "type": "string"
            },
            {
              "internalType": "uint32",
              "name": "startx",
              "type": "uint32"
            },
            {
              "internalType": "uint32",
              "name": "starty",
              "type": "uint32"
            },
            {
              "internalType": "uint32",
              "name": "endx",
              "type": "uint32"
            },
            {
              "internalType": "uint32",
              "name": "endy",
              "type": "uint32"
            },
            {
              "internalType": "uint32",
              "name": "orientation",
              "type": "uint32"
            },
            {
              "internalType": "uint32",
              "name": "id",
              "type": "uint32"
            }
          ],
          "internalType": "struct Gameplay.SpecialBuilding[]",
          "name": "specialBuildingList",
          "type": "tuple[]"
        },
        {
          "internalType": "string[]",
          "name": "specialBuildingCash",
          "type": "string[]"
        },
        {
          "internalType": "uint256",
          "name": "buildingId",
          "type": "uint256"
        },
        {
          "internalType": "uint256",
          "name": "specialBuildingId",
          "type": "uint256"
        }
      ],
      "stateMutability": "view",
      "type": "function",
      "constant": true
    },
    {
      "inputs": [
        {
          "internalType": "uint256",
          "name": "tokenId",
          "type": "uint256"
        }
      ],
      "name": "getScore",
      "outputs": [
        {
          "internalType": "uint256",
          "name": "",
          "type": "uint256"
        },
        {
          "internalType": "bool",
          "name": "",
          "type": "bool"
        }
      ],
      "stateMutability": "view",
      "type": "function",
      "constant": true
    },
    {
      "inputs": [
        {
          "internalType": "uint256",
          "name": "_payPeriod",
          "type": "uint256"
        }
      ],
      "name": "changePayPeriod",
      "outputs": [],
      "stateMutability": "nonpayable",
      "type": "function"
    },
    {
      "inputs": [
        {
          "internalType": "address",
          "name": "newAdmin",
          "type": "address"
        }
      ],
      "name": "changeAdmin",
      "outputs": [],
      "stateMutability": "nonpayable",
      "type": "function"
    },
    {
      "inputs": [],
      "name": "flipEditableState",
      "outputs": [],
      "stateMutability": "nonpayable",
      "type": "function"
    },
    {
      "inputs": [
        {
          "internalType": "uint256",
          "name": "tokenId",
          "type": "uint256"
        },
        {
          "internalType": "uint256",
          "name": "_money",
          "type": "uint256"
        }
      ],
      "name": "devSetMoney",
      "outputs": [],
      "stateMutability": "nonpayable",
      "type": "function"
    }
  ],
  "bytecode": "0x608060405260006002556001600360146101000a81548160ff0219169083151502179055506377359400600455603c600555620186a0600760006101000a81548163ffffffff021916908363ffffffff1602179055503480156200006257600080fd5b5060405162005e3338038062005e33833981810160405281019062000088919062000253565b33600160006101000a81548173ffffffffffffffffffffffffffffffffffffffff021916908373ffffffffffffffffffffffffffffffffffffffff160217905550816000806101000a81548173ffffffffffffffffffffffffffffffffffffffff021916908373ffffffffffffffffffffffffffffffffffffffff16021790555080600360006101000a81548173ffffffffffffffffffffffffffffffffffffffff021916908373ffffffffffffffffffffffffffffffffffffffff1602179055506000600360009054906101000a900473ffffffffffffffffffffffffffffffffffffffff1690508073ffffffffffffffffffffffffffffffffffffffff1663ce5bc7a6306040518263ffffffff1660e01b8152600401620001ac9190620002ab565b600060405180830381600087803b158015620001c757600080fd5b505af1158015620001dc573d6000803e3d6000fd5b50505050505050620002c8565b600080fd5b600073ffffffffffffffffffffffffffffffffffffffff82169050919050565b60006200021b82620001ee565b9050919050565b6200022d816200020e565b81146200023957600080fd5b50565b6000815190506200024d8162000222565b92915050565b600080604083850312156200026d576200026c620001e9565b5b60006200027d858286016200023c565b925050602062000290858286016200023c565b9150509250929050565b620002a5816200020e565b82525050565b6000602082019050620002c260008301846200029a565b92915050565b615b5b80620002d86000396000f3fe608060405234801561001057600080fd5b50600436106101735760003560e01c806374b8d321116100de578063cd6f260d11610097578063e4e2d2ae11610071578063e4e2d2ae146103f0578063e571319f1461040c578063e68bff8e14610428578063eb318ff71461044457610173565b8063cd6f260d14610384578063cf322e94146103b8578063de1e2134146103d457610173565b806374b8d321146102dc5780637f4ff8c1146102f85780638f28397014610314578063b758eeaa14610330578063b7d96c4a1461034c578063c812a2391461036857610173565b806352efe8c91161013057806352efe8c914610225578063565429de14610241578063643c82f31461025f5780636c241bb11461027b5780636d5dcb2b146102b65780636e281c80146102c057610173565b80630e1af57b146101785780632168a42b146101a957806323657514146101c55780633c6a34e0146101cf5780634920f906146101eb57806349b3e36614610209575b600080fd5b610192600480360381019061018d9190614034565b610460565b6040516101a092919061408b565b60405180910390f35b6101c360048036038101906101be91906140b4565b6104a4565b005b6101cd6105e6565b005b6101e960048036038101906101e49190614107565b6106a2565b005b6101f3610939565b6040516102009190614147565b60405180910390f35b610223600480360381019061021e91906142e4565b610950565b005b61023f600480360381019061023a9190614107565b610ae8565b005b610249610c49565b6040516102569190614353565b60405180910390f35b6102796004803603810190610274919061439a565b610c53565b005b61029560048036038101906102909190614034565b6112c9565b6040516102ad9c9b9a9998979695949392919061488e565b60405180910390f35b6102be611a42565b005b6102da60048036038101906102d59190614989565b611c27565b005b6102f660048036038101906102f19190614a1c565b611f83565b005b610312600480360381019061030d9190614107565b61225c565b005b61032e60048036038101906103299190614a8b565b612591565b005b61034a60048036038101906103459190614ab8565b612664565b005b61036660048036038101906103619190614107565b612794565b005b610382600480360381019061037d9190614af8565b612863565b005b61039e60048036038101906103999190614b67565b612be1565b6040516103af959493929190614cbf565b60405180910390f35b6103d260048036038101906103cd9190614ab8565b612dcc565b005b6103ee60048036038101906103e99190614d79565b612eb5565b005b61040a60048036038101906104059190614107565b613257565b005b610426600480360381019061042191906140b4565b613350565b005b610442600480360381019061043d9190614e4f565b613492565b005b61045e60048036038101906104599190614034565b613b36565b005b60008060086000848152602001908152602001600020546006600085815260200190815260200160002060030160019054906101000a900460ff1691509150915091565b60008054906101000a900473ffffffffffffffffffffffffffffffffffffffff1673ffffffffffffffffffffffffffffffffffffffff163373ffffffffffffffffffffffffffffffffffffffff1614610532576040517f08c379a000000000000000000000000000000000000000000000000000000000815260040161052990614f82565b60405180910390fd5b600360149054906101000a900460ff16610581576040517f08c379a000000000000000000000000000000000000000000000000000000000815260040161057890614fee565b60405180910390fd5b600060066000858152602001908152602001600020905060006105a685856000613bce565b90508282600001600083815260200190815260200160002060010160146101000a81548163ffffffff021916908363ffffffff1602179055505050505050565b600160009054906101000a900473ffffffffffffffffffffffffffffffffffffffff1673ffffffffffffffffffffffffffffffffffffffff163373ffffffffffffffffffffffffffffffffffffffff1614610676576040517f08c379a000000000000000000000000000000000000000000000000000000000815260040161066d9061505a565b60405180910390fd5b600360149054906101000a900460ff1615600360146101000a81548160ff021916908315150217905550565b60008054906101000a900473ffffffffffffffffffffffffffffffffffffffff1673ffffffffffffffffffffffffffffffffffffffff163373ffffffffffffffffffffffffffffffffffffffff1614610730576040517f08c379a000000000000000000000000000000000000000000000000000000000815260040161072790614f82565b60405180910390fd5b600360149054906101000a900460ff1661077f576040517f08c379a000000000000000000000000000000000000000000000000000000000815260040161077690614fee565b60405180910390fd5b600060066000848152602001908152602001600020905060045442116107da576040517f08c379a00000000000000000000000000000000000000000000000000000000081526004016107d1906150c6565b60405180910390fd5b60045460055482600401600c9054906101000a900463ffffffff1663ffffffff166108059190615115565b61080f919061516f565b4211610850576040517f08c379a000000000000000000000000000000000000000000000000000000000815260040161084790615211565b60405180910390fd5b600081600401600c9054906101000a900463ffffffff1663ffffffff166005546004544261087e9190615231565b6108889190615294565b6108929190615231565b905082816108a09190615115565b63ffffffff168260040160008282829054906101000a900467ffffffffffffffff166108cc91906152c5565b92506101000a81548167ffffffffffffffff021916908367ffffffffffffffff1602179055508082600401600c8282829054906101000a900463ffffffff166109159190615303565b92506101000a81548163ffffffff021916908363ffffffff16021790555050505050565b6000600360149054906101000a900460ff16905090565b60008054906101000a900473ffffffffffffffffffffffffffffffffffffffff1673ffffffffffffffffffffffffffffffffffffffff163373ffffffffffffffffffffffffffffffffffffffff16146109de576040517f08c379a00000000000000000000000000000000000000000000000000000000081526004016109d590614f82565b60405180910390fd5b60006009846040516109f09190615379565b9081526020016040518091039020905060008160000160009054906101000a900463ffffffff1663ffffffff16148015610a39575080600001600c9054906101000a900460ff16155b610a78576040517f08c379a0000000000000000000000000000000000000000000000000000000008152600401610a6f906153dc565b60405180910390fd5b828160000160006101000a81548163ffffffff021916908363ffffffff160217905550818160000160086101000a81548163ffffffff021916908363ffffffff16021790555060008160000160046101000a81548163ffffffff021916908363ffffffff16021790555050505050565b60008054906101000a900473ffffffffffffffffffffffffffffffffffffffff1673ffffffffffffffffffffffffffffffffffffffff163373ffffffffffffffffffffffffffffffffffffffff1614610b76576040517f08c379a0000000000000000000000000000000000000000000000000000000008152600401610b6d90614f82565b60405180910390fd5b600360149054906101000a900460ff16610bc5576040517f08c379a0000000000000000000000000000000000000000000000000000000008152600401610bbc90614fee565b60405180910390fd5b60006006600084815260200190815260200160002090506000610bea84846000613bce565b9050816000016000828152602001908152602001600020600101601081819054906101000a900463ffffffff1680929190610c24906153fc565b91906101000a81548163ffffffff021916908363ffffffff1602179055505050505050565b6000600254905090565b60008054906101000a900473ffffffffffffffffffffffffffffffffffffffff1673ffffffffffffffffffffffffffffffffffffffff163373ffffffffffffffffffffffffffffffffffffffff1614610ce1576040517f08c379a0000000000000000000000000000000000000000000000000000000008152600401610cd890614f82565b60405180910390fd5b600360149054906101000a900460ff16610d30576040517f08c379a0000000000000000000000000000000000000000000000000000000008152600401610d2790614fee565b60405180910390fd5b60006006600087815260200190815260200160002090506000610d5587876001613bce565b905060006009836001016000848152602001908152602001600020600001604051610d80919061551e565b9081526020016040518091039020905060008160000160049054906101000a900463ffffffff1663ffffffff16905060005b8260000160049054906101000a900463ffffffff1663ffffffff16811015610e6e578683600101600083815260200190815260200160002060000160089054906101000a900467ffffffffffffffff1667ffffffffffffffff16148015610e4e57508583600101600083815260200190815260200160002060000160009054906101000a900467ffffffffffffffff1667ffffffffffffffff16145b15610e5b57809150610e6e565b8080610e6690615535565b915050610db2565b5083600301600e9054906101000a900463ffffffff1663ffffffff1683108015610ea15750861580610ea05750858914155b5b610ee0576040517f08c379a0000000000000000000000000000000000000000000000000000000008152600401610ed7906155ca565b60405180910390fd5b861580610f3557508160000160049054906101000a900463ffffffff1663ffffffff1681108015610f34575081600101600082815260200190815260200160002060000160109054906101000a900460ff16155b5b610f74576040517f08c379a0000000000000000000000000000000000000000000000000000000008152600401610f6b90615636565b60405180910390fd5b86610fde5781600001600081819054906101000a900463ffffffff1680929190610f9d906153fc565b91906101000a81548163ffffffff021916908363ffffffff16021790555050600082600001600c6101000a81548160ff0219169083151502179055506110ca565b60006006600088815260200190815260200160002090508460010160008581526020019081526020016000206000018160020160008360030160169054906101000a900463ffffffff1663ffffffff16815260200190815260200160002090805461104890615458565b611053929190613d26565b5080600301601681819054906101000a900463ffffffff1680929190611078906153fc565b91906101000a81548163ffffffff021916908363ffffffff16021790555050600183600101600084815260200190815260200160002060000160106101000a81548160ff021916908315150217905550505b83600301600e81819054906101000a900463ffffffff16809291906110ee90615656565b91906101000a81548163ffffffff021916908363ffffffff1602179055505083600101600085600301600e9054906101000a900463ffffffff1663ffffffff168152602001908152602001600020846001016000858152602001908152602001600020600082018160000190805461116590615458565b611170929190613db3565b506001820160009054906101000a900463ffffffff168160010160006101000a81548163ffffffff021916908363ffffffff1602179055506001820160049054906101000a900463ffffffff168160010160046101000a81548163ffffffff021916908363ffffffff1602179055506001820160089054906101000a900463ffffffff168160010160086101000a81548163ffffffff021916908363ffffffff16021790555060018201600c9054906101000a900463ffffffff1681600101600c6101000a81548163ffffffff021916908363ffffffff1602179055506001820160109054906101000a900463ffffffff168160010160106101000a81548163ffffffff021916908363ffffffff1602179055506001820160149054906101000a900463ffffffff168160010160146101000a81548163ffffffff021916908363ffffffff160217905550905050505050505050505050565b600080600080600080600060608060606000806000600660008f815260200190815260200160002090508060050160009054906101000a900473ffffffffffffffffffffffffffffffffffffffff169c508060030160009054906101000a900460ff169b508060030160019054906101000a900460ff169a508060030160029054906101000a900463ffffffff1699508060040160009054906101000a900467ffffffffffffffff1667ffffffffffffffff1698508060040160089054906101000a900463ffffffff1663ffffffff16975080600401600c9054906101000a900463ffffffff1663ffffffff16965080600301600a9054906101000a900463ffffffff1663ffffffff1692508060030160129054906101000a900463ffffffff1663ffffffff1691508060030160069054906101000a900463ffffffff1663ffffffff1667ffffffffffffffff8111156114265761142561417d565b5b60405190808252806020026020018201604052801561145f57816020015b61144c613e40565b8152602001906001900390816114445790505b50955060005b8160030160069054906101000a900463ffffffff1663ffffffff1681101561167557816000016000828152602001908152602001600020604051806101000160405290816000820180546114b890615458565b80601f01602080910402602001604051908101604052809291908181526020018280546114e490615458565b80156115315780601f1061150657610100808354040283529160200191611531565b820191906000526020600020905b81548152906001019060200180831161151457829003601f168201915b505050505081526020016001820160009054906101000a900463ffffffff1663ffffffff1663ffffffff1681526020016001820160049054906101000a900463ffffffff1663ffffffff1663ffffffff1681526020016001820160089054906101000a900463ffffffff1663ffffffff1663ffffffff16815260200160018201600c9054906101000a900463ffffffff1663ffffffff1663ffffffff1681526020016001820160109054906101000a900463ffffffff1663ffffffff1663ffffffff1681526020016001820160149054906101000a900463ffffffff1663ffffffff1663ffffffff1681526020016001820160189054906101000a900463ffffffff1663ffffffff1663ffffffff168152505087828151811061165757611656615680565b5b6020026020010181905250808061166d90615535565b915050611465565b5080600301600e9054906101000a900463ffffffff1663ffffffff1667ffffffffffffffff8111156116aa576116a961417d565b5b6040519080825280602002602001820160405280156116e357816020015b6116d0613eaf565b8152602001906001900390816116c85790505b50945060005b81600301600e9054906101000a900463ffffffff1663ffffffff168110156118d2578160010160008281526020019081526020016000206040518060e001604052908160008201805461173b90615458565b80601f016020809104026020016040519081016040528092919081815260200182805461176790615458565b80156117b45780601f10611789576101008083540402835291602001916117b4565b820191906000526020600020905b81548152906001019060200180831161179757829003601f168201915b505050505081526020016001820160009054906101000a900463ffffffff1663ffffffff1663ffffffff1681526020016001820160049054906101000a900463ffffffff1663ffffffff1663ffffffff1681526020016001820160089054906101000a900463ffffffff1663ffffffff1663ffffffff16815260200160018201600c9054906101000a900463ffffffff1663ffffffff1663ffffffff1681526020016001820160109054906101000a900463ffffffff1663ffffffff1663ffffffff1681526020016001820160149054906101000a900463ffffffff1663ffffffff1663ffffffff16815250508682815181106118b4576118b3615680565b5b602002602001018190525080806118ca90615535565b9150506116e9565b508060030160169054906101000a900463ffffffff1663ffffffff1667ffffffffffffffff8111156119075761190661417d565b5b60405190808252806020026020018201604052801561193a57816020015b60608152602001906001900390816119255790505b50935060005b8160030160169054906101000a900463ffffffff1663ffffffff16811015611a3157816002016000828152602001908152602001600020805461198290615458565b80601f01602080910402602001604051908101604052809291908181526020018280546119ae90615458565b80156119fb5780601f106119d0576101008083540402835291602001916119fb565b820191906000526020600020905b8154815290600101906020018083116119de57829003601f168201915b5050505050858281518110611a1357611a12615680565b5b60200260200101819052508080611a2990615535565b915050611940565b505091939597999b5091939597999b565b60008054906101000a900473ffffffffffffffffffffffffffffffffffffffff1673ffffffffffffffffffffffffffffffffffffffff163373ffffffffffffffffffffffffffffffffffffffff1614611ad0576040517f08c379a0000000000000000000000000000000000000000000000000000000008152600401611ac790614f82565b60405180910390fd5b600360149054906101000a900460ff16611b1f576040517f08c379a0000000000000000000000000000000000000000000000000000000008152600401611b1690614fee565b60405180910390fd5b637735940060045414611b67576040517f08c379a0000000000000000000000000000000000000000000000000000000008152600401611b5e906156fb565b60405180910390fd5b4260048190555060005b600073ffffffffffffffffffffffffffffffffffffffff166006600083815260200190815260200160002060050160009054906101000a900473ffffffffffffffffffffffffffffffffffffffff1673ffffffffffffffffffffffffffffffffffffffff1614611c2457600060066000838152602001908152602001600020600401600c6101000a81548163ffffffff021916908363ffffffff1602179055508080611c1c90615535565b915050611b71565b50565b60008054906101000a900473ffffffffffffffffffffffffffffffffffffffff1673ffffffffffffffffffffffffffffffffffffffff163373ffffffffffffffffffffffffffffffffffffffff1614611cb5576040517f08c379a0000000000000000000000000000000000000000000000000000000008152600401611cac90614f82565b60405180910390fd5b600360149054906101000a900460ff16611d04576040517f08c379a0000000000000000000000000000000000000000000000000000000008152600401611cfb90614fee565b60405180910390fd5b6006600083815260200190815260200160002060030160009054906101000a900460ff16611d67576040517f08c379a0000000000000000000000000000000000000000000000000000000008152600401611d5e90615767565b60405180910390fd5b6006600083815260200190815260200160002060030160019054906101000a900460ff1615611dcb576040517f08c379a0000000000000000000000000000000000000000000000000000000008152600401611dc2906157d3565b60405180910390fd5b8273ffffffffffffffffffffffffffffffffffffffff166006600084815260200190815260200160002060050160009054906101000a900473ffffffffffffffffffffffffffffffffffffffff1673ffffffffffffffffffffffffffffffffffffffff1614611e6f576040517f08c379a0000000000000000000000000000000000000000000000000000000008152600401611e669061583f565b60405180910390fd5b6000600660008481526020019081526020016000209050600760009054906101000a900463ffffffff1663ffffffff168160040160006101000a81548167ffffffffffffffff021916908367ffffffffffffffff160217905550818160030160026101000a81548163ffffffff021916908363ffffffff16021790555060018160030160016101000a81548160ff021916908315150217905550637735940060045414611f585760055460045442611f279190615231565b611f319190615294565b81600401600c6101000a81548163ffffffff021916908363ffffffff160217905550611f7d565b600081600401600c6101000a81548163ffffffff021916908363ffffffff1602179055505b50505050565b60008054906101000a900473ffffffffffffffffffffffffffffffffffffffff1673ffffffffffffffffffffffffffffffffffffffff163373ffffffffffffffffffffffffffffffffffffffff1614612011576040517f08c379a000000000000000000000000000000000000000000000000000000000815260040161200890614f82565b60405180910390fd5b600360149054906101000a900460ff16612060576040517f08c379a000000000000000000000000000000000000000000000000000000000815260040161205790614fee565b60405180910390fd5b60006009846040516120729190615379565b9081526020016040518091039020905080600001600c9054906101000a900460ff166120d3576040517f08c379a00000000000000000000000000000000000000000000000000000000081526004016120ca906158ab565b60405180910390fd5b6103e88160000160049054906101000a900463ffffffff1663ffffffff1610612131576040517f08c379a000000000000000000000000000000000000000000000000000000000815260040161212890615917565b60405180910390fd5b60405180606001604052808367ffffffffffffffff1681526020018467ffffffffffffffff168152602001600015158152508160010160008360000160049054906101000a900463ffffffff1663ffffffff16815260200190815260200160002060008201518160000160006101000a81548167ffffffffffffffff021916908367ffffffffffffffff16021790555060208201518160000160086101000a81548167ffffffffffffffff021916908367ffffffffffffffff16021790555060408201518160000160106101000a81548160ff02191690831515021790555090505080600001600481819054906101000a900463ffffffff1680929190612237906153fc565b91906101000a81548163ffffffff021916908363ffffffff1602179055505050505050565b60008054906101000a900473ffffffffffffffffffffffffffffffffffffffff1673ffffffffffffffffffffffffffffffffffffffff163373ffffffffffffffffffffffffffffffffffffffff16146122ea576040517f08c379a00000000000000000000000000000000000000000000000000000000081526004016122e190614f82565b60405180910390fd5b600360149054906101000a900460ff16612339576040517f08c379a000000000000000000000000000000000000000000000000000000000815260040161233090614fee565b60405180910390fd5b6000600660008481526020019081526020016000209050600061235e84846000613bce565b905081600301600681819054906101000a900463ffffffff168092919061238490615656565b91906101000a81548163ffffffff021916908363ffffffff160217905550508160000160008360030160069054906101000a900463ffffffff1663ffffffff16815260200190815260200160002082600001600083815260200190815260200160002060008201816000019080546123fb90615458565b612406929190613db3565b506001820160009054906101000a900463ffffffff168160010160006101000a81548163ffffffff021916908363ffffffff1602179055506001820160049054906101000a900463ffffffff168160010160046101000a81548163ffffffff021916908363ffffffff1602179055506001820160089054906101000a900463ffffffff168160010160086101000a81548163ffffffff021916908363ffffffff16021790555060018201600c9054906101000a900463ffffffff1681600101600c6101000a81548163ffffffff021916908363ffffffff1602179055506001820160109054906101000a900463ffffffff168160010160106101000a81548163ffffffff021916908363ffffffff1602179055506001820160149054906101000a900463ffffffff168160010160146101000a81548163ffffffff021916908363ffffffff1602179055506001820160189054906101000a900463ffffffff168160010160186101000a81548163ffffffff021916908363ffffffff16021790555090505050505050565b600160009054906101000a900473ffffffffffffffffffffffffffffffffffffffff1673ffffffffffffffffffffffffffffffffffffffff163373ffffffffffffffffffffffffffffffffffffffff1614612621576040517f08c379a00000000000000000000000000000000000000000000000000000000081526004016126189061505a565b60405180910390fd5b806000806101000a81548173ffffffffffffffffffffffffffffffffffffffff021916908373ffffffffffffffffffffffffffffffffffffffff16021790555050565b600360009054906101000a900473ffffffffffffffffffffffffffffffffffffffff1673ffffffffffffffffffffffffffffffffffffffff163373ffffffffffffffffffffffffffffffffffffffff16146126f4576040517f08c379a00000000000000000000000000000000000000000000000000000000081526004016126eb90615211565b60405180910390fd5b806006600084815260200190815260200160002060050160006101000a81548173ffffffffffffffffffffffffffffffffffffffff021916908373ffffffffffffffffffffffffffffffffffffffff16021790555060016006600084815260200190815260200160002060030160006101000a81548160ff0219169083151502179055506002600081548092919061278b90615535565b91905055505050565b60008054906101000a900473ffffffffffffffffffffffffffffffffffffffff1673ffffffffffffffffffffffffffffffffffffffff163373ffffffffffffffffffffffffffffffffffffffff1614612822576040517f08c379a000000000000000000000000000000000000000000000000000000000815260040161281990614f82565b60405180910390fd5b806006600084815260200190815260200160002060040160006101000a81548167ffffffffffffffff021916908367ffffffffffffffff1602179055505050565b60008054906101000a900473ffffffffffffffffffffffffffffffffffffffff1673ffffffffffffffffffffffffffffffffffffffff163373ffffffffffffffffffffffffffffffffffffffff16146128f1576040517f08c379a00000000000000000000000000000000000000000000000000000000081526004016128e890614f82565b60405180910390fd5b600360149054906101000a900460ff16612940576040517f08c379a000000000000000000000000000000000000000000000000000000000815260040161293790614fee565b60405180910390fd5b60006009846040516129529190615379565b9081526020016040518091039020905060008160000160049054906101000a900463ffffffff1663ffffffff16905060005b8260000160049054906101000a900463ffffffff1663ffffffff16811015612a40578483600101600083815260200190815260200160002060000160089054906101000a900467ffffffffffffffff1667ffffffffffffffff16148015612a2057508383600101600083815260200190815260200160002060000160009054906101000a900467ffffffffffffffff1667ffffffffffffffff16145b15612a2d57809150612a40565b8080612a3890615535565b915050612984565b508160000160049054906101000a900463ffffffff1663ffffffff168110612a9d576040517f08c379a0000000000000000000000000000000000000000000000000000000008152600401612a9490615983565b60405180910390fd5b81600001600481819054906101000a900463ffffffff1680929190612ac190615656565b91906101000a81548163ffffffff021916908363ffffffff160217905550508160010160008360000160049054906101000a900463ffffffff1663ffffffff1681526020019081526020016000208260010160008381526020019081526020016000206000820160009054906101000a900467ffffffffffffffff168160000160006101000a81548167ffffffffffffffff021916908367ffffffffffffffff1602179055506000820160089054906101000a900467ffffffffffffffff168160000160086101000a81548167ffffffffffffffff021916908367ffffffffffffffff1602179055506000820160109054906101000a900460ff168160000160106101000a81548160ff0219169083151502179055509050505050505050565b60008060008060606000600987604051612bfb9190615379565b908152602001604051809103902090508060000160009054906101000a900463ffffffff1663ffffffff1695508060000160049054906101000a900463ffffffff1663ffffffff1694508060000160089054906101000a900463ffffffff1663ffffffff16935080600001600c9054906101000a900460ff1692508060000160049054906101000a900463ffffffff1663ffffffff1667ffffffffffffffff811115612caa57612ca961417d565b5b604051908082528060200260200182016040528015612ce357816020015b612cd0613f10565b815260200190600190039081612cc85790505b50915060005b85811015612dc1578160010160008281526020019081526020016000206040518060600160405290816000820160009054906101000a900467ffffffffffffffff1667ffffffffffffffff1667ffffffffffffffff1681526020016000820160089054906101000a900467ffffffffffffffff1667ffffffffffffffff1667ffffffffffffffff1681526020016000820160109054906101000a900460ff161515151581525050838281518110612da357612da2615680565b5b60200260200101819052508080612db990615535565b915050612ce9565b505091939590929450565b600360009054906101000a900473ffffffffffffffffffffffffffffffffffffffff1673ffffffffffffffffffffffffffffffffffffffff163373ffffffffffffffffffffffffffffffffffffffff1614612e5c576040517f08c379a0000000000000000000000000000000000000000000000000000000008152600401612e5390615211565b60405180910390fd5b806006600084815260200190815260200160002060050160006101000a81548173ffffffffffffffffffffffffffffffffffffffff021916908373ffffffffffffffffffffffffffffffffffffffff1602179055505050565b60008054906101000a900473ffffffffffffffffffffffffffffffffffffffff1673ffffffffffffffffffffffffffffffffffffffff163373ffffffffffffffffffffffffffffffffffffffff1614612f43576040517f08c379a0000000000000000000000000000000000000000000000000000000008152600401612f3a90614f82565b60405180910390fd5b600360149054906101000a900460ff16612f92576040517f08c379a0000000000000000000000000000000000000000000000000000000008152600401612f8990614fee565b60405180910390fd5b6000600660008b8152602001908152602001600020905060405180610100016040528084848080601f016020809104026020016040519081016040528093929190818152602001838380828437600081840152601f19601f8201169050808301925050505050505081526020018a63ffffffff1681526020018963ffffffff1681526020018863ffffffff1681526020018763ffffffff1681526020018563ffffffff1681526020018663ffffffff16815260200182600301600a9054906101000a900463ffffffff1663ffffffff168152508160000160008360030160069054906101000a900463ffffffff1663ffffffff16815260200190815260200160002060008201518160000190805190602001906130b0929190613f47565b5060208201518160010160006101000a81548163ffffffff021916908363ffffffff16021790555060408201518160010160046101000a81548163ffffffff021916908363ffffffff16021790555060608201518160010160086101000a81548163ffffffff021916908363ffffffff160217905550608082015181600101600c6101000a81548163ffffffff021916908363ffffffff16021790555060a08201518160010160106101000a81548163ffffffff021916908363ffffffff16021790555060c08201518160010160146101000a81548163ffffffff021916908363ffffffff16021790555060e08201518160010160186101000a81548163ffffffff021916908363ffffffff16021790555090505080600301600a81819054906101000a900463ffffffff16809291906131e9906153fc565b91906101000a81548163ffffffff021916908363ffffffff1602179055505080600301600681819054906101000a900463ffffffff168092919061322c906153fc565b91906101000a81548163ffffffff021916908363ffffffff1602179055505050505050505050505050565b60008054906101000a900473ffffffffffffffffffffffffffffffffffffffff1673ffffffffffffffffffffffffffffffffffffffff163373ffffffffffffffffffffffffffffffffffffffff16146132e5576040517f08c379a00000000000000000000000000000000000000000000000000000000081526004016132dc90614f82565b60405180910390fd5b600360149054906101000a900460ff16613334576040517f08c379a000000000000000000000000000000000000000000000000000000000815260040161332b90614fee565b60405180910390fd5b8060086000848152602001908152602001600020819055505050565b60008054906101000a900473ffffffffffffffffffffffffffffffffffffffff1673ffffffffffffffffffffffffffffffffffffffff163373ffffffffffffffffffffffffffffffffffffffff16146133de576040517f08c379a00000000000000000000000000000000000000000000000000000000081526004016133d590614f82565b60405180910390fd5b600360149054906101000a900460ff1661342d576040517f08c379a000000000000000000000000000000000000000000000000000000000815260040161342490614fee565b60405180910390fd5b6000600660008581526020019081526020016000209050600061345285856001613bce565b90508282600101600083815260200190815260200160002060010160106101000a81548163ffffffff021916908363ffffffff1602179055505050505050565b60008054906101000a900473ffffffffffffffffffffffffffffffffffffffff1673ffffffffffffffffffffffffffffffffffffffff163373ffffffffffffffffffffffffffffffffffffffff1614613520576040517f08c379a000000000000000000000000000000000000000000000000000000000815260040161351790614f82565b60405180910390fd5b600360149054906101000a900460ff1661356f576040517f08c379a000000000000000000000000000000000000000000000000000000000815260040161356690614fee565b60405180910390fd5b80806135b4575060006009848460405161358a9291906159c8565b908152602001604051809103902060000160009054906101000a900463ffffffff1663ffffffff16115b6135f3576040517f08c379a00000000000000000000000000000000000000000000000000000000081526004016135ea90615a2d565b60405180910390fd5b6000600660008b81526020019081526020016000209050816136f557600984846040516136219291906159c8565b9081526020016040518091039020600001600081819054906101000a900463ffffffff168092919061365290615656565b91906101000a81548163ffffffff021916908363ffffffff160217905550506000600985856040516136859291906159c8565b908152602001604051809103902060000160009054906101000a900463ffffffff1663ffffffff1614156136f0576001600985856040516136c79291906159c8565b9081526020016040518091039020600001600c6101000a81548160ff0219169083151502179055505b6138bc565b60008160030160169054906101000a900463ffffffff1663ffffffff16905060005b8260030160169054906101000a900463ffffffff1663ffffffff168110156137be5782600201600082815260200190815260200160002060405160200161375e919061551e565b6040516020818303038152906040528051906020012086866040516020016137879291906159c8565b6040516020818303038152906040528051906020012014156137ab578091506137be565b80806137b690615535565b915050613717565b508160030160169054906101000a900463ffffffff1663ffffffff16811061381b576040517f08c379a000000000000000000000000000000000000000000000000000000000815260040161381290615a99565b60405180910390fd5b81600301601681819054906101000a900463ffffffff168092919061383f90615656565b91906101000a81548163ffffffff021916908363ffffffff160217905550508160020160008360030160169054906101000a900463ffffffff1663ffffffff1681526020019081526020016000208260020160008381526020019081526020016000209080546138ae90615458565b6138b9929190613d26565b50505b6040518060e0016040528085858080601f016020809104026020016040519081016040528093929190818152602001838380828437600081840152601f19601f8201169050808301925050505050505081526020018a63ffffffff1681526020018963ffffffff1681526020018863ffffffff1681526020018763ffffffff1681526020018663ffffffff1681526020018260030160129054906101000a900463ffffffff1663ffffffff1681525081600101600083600301600e9054906101000a900463ffffffff1663ffffffff16815260200190815260200160002060008201518160000190805190602001906139b6929190613f47565b5060208201518160010160006101000a81548163ffffffff021916908363ffffffff16021790555060408201518160010160046101000a81548163ffffffff021916908363ffffffff16021790555060608201518160010160086101000a81548163ffffffff021916908363ffffffff160217905550608082015181600101600c6101000a81548163ffffffff021916908363ffffffff16021790555060a08201518160010160106101000a81548163ffffffff021916908363ffffffff16021790555060c08201518160010160146101000a81548163ffffffff021916908363ffffffff16021790555090505080600301601281819054906101000a900463ffffffff1680929190613ac8906153fc565b91906101000a81548163ffffffff021916908363ffffffff1602179055505080600301600e81819054906101000a900463ffffffff1680929190613b0b906153fc565b91906101000a81548163ffffffff021916908363ffffffff1602179055505050505050505050505050565b60008054906101000a900473ffffffffffffffffffffffffffffffffffffffff1673ffffffffffffffffffffffffffffffffffffffff163373ffffffffffffffffffffffffffffffffffffffff1614613bc4576040517f08c379a0000000000000000000000000000000000000000000000000000000008152600401613bbb90614f82565b60405180910390fd5b8060058190555050565b6000806006600086815260200190815260200160002090508215613c6a5760005b81600301600e9054906101000a900463ffffffff1663ffffffff16811015613c645781600101600082815260200190815260200160002060010160149054906101000a900463ffffffff1663ffffffff16851415613c51578092505050613d1f565b8080613c5c90615535565b915050613bef565b50613ce4565b60005b8160030160069054906101000a900463ffffffff1663ffffffff16811015613ce25781600001600082815260200190815260200160002060010160189054906101000a900463ffffffff1663ffffffff16851415613ccf578092505050613d1f565b8080613cda90615535565b915050613c6d565b505b6040517f08c379a0000000000000000000000000000000000000000000000000000000008152600401613d1690615b05565b60405180910390fd5b9392505050565b828054613d3290615458565b90600052602060002090601f016020900481019282613d545760008555613da2565b82601f10613d655780548555613da2565b82800160010185558215613da257600052602060002091601f016020900482015b82811115613da1578254825591600101919060010190613d86565b5b509050613daf9190613fcd565b5090565b828054613dbf90615458565b90600052602060002090601f016020900481019282613de15760008555613e2f565b82601f10613df25780548555613e2f565b82800160010185558215613e2f57600052602060002091601f016020900482015b82811115613e2e578254825591600101919060010190613e13565b5b509050613e3c9190613fcd565b5090565b60405180610100016040528060608152602001600063ffffffff168152602001600063ffffffff168152602001600063ffffffff168152602001600063ffffffff168152602001600063ffffffff168152602001600063ffffffff168152602001600063ffffffff1681525090565b6040518060e0016040528060608152602001600063ffffffff168152602001600063ffffffff168152602001600063ffffffff168152602001600063ffffffff168152602001600063ffffffff168152602001600063ffffffff1681525090565b6040518060600160405280600067ffffffffffffffff168152602001600067ffffffffffffffff1681526020016000151581525090565b828054613f5390615458565b90600052602060002090601f016020900481019282613f755760008555613fbc565b82601f10613f8e57805160ff1916838001178555613fbc565b82800160010185558215613fbc579182015b82811115613fbb578251825591602001919060010190613fa0565b5b509050613fc99190613fcd565b5090565b5b80821115613fe6576000816000905550600101613fce565b5090565b6000604051905090565b600080fd5b600080fd5b6000819050919050565b61401181613ffe565b811461401c57600080fd5b50565b60008135905061402e81614008565b92915050565b60006020828403121561404a57614049613ff4565b5b60006140588482850161401f565b91505092915050565b61406a81613ffe565b82525050565b60008115159050919050565b61408581614070565b82525050565b60006040820190506140a06000830185614061565b6140ad602083018461407c565b9392505050565b6000806000606084860312156140cd576140cc613ff4565b5b60006140db8682870161401f565b93505060206140ec8682870161401f565b92505060406140fd8682870161401f565b9150509250925092565b6000806040838503121561411e5761411d613ff4565b5b600061412c8582860161401f565b925050602061413d8582860161401f565b9150509250929050565b600060208201905061415c600083018461407c565b92915050565b600080fd5b600080fd5b6000601f19601f8301169050919050565b7f4e487b7100000000000000000000000000000000000000000000000000000000600052604160045260246000fd5b6141b58261416c565b810181811067ffffffffffffffff821117156141d4576141d361417d565b5b80604052505050565b60006141e7613fea565b90506141f382826141ac565b919050565b600067ffffffffffffffff8211156142135761421261417d565b5b61421c8261416c565b9050602081019050919050565b82818337600083830152505050565b600061424b614246846141f8565b6141dd565b90508281526020810184848401111561426757614266614167565b5b614272848285614229565b509392505050565b600082601f83011261428f5761428e614162565b5b813561429f848260208601614238565b91505092915050565b600063ffffffff82169050919050565b6142c1816142a8565b81146142cc57600080fd5b50565b6000813590506142de816142b8565b92915050565b6000806000606084860312156142fd576142fc613ff4565b5b600084013567ffffffffffffffff81111561431b5761431a613ff9565b5b6143278682870161427a565b9350506020614338868287016142cf565b9250506040614349868287016142cf565b9150509250925092565b60006020820190506143686000830184614061565b92915050565b61437781614070565b811461438257600080fd5b50565b6000813590506143948161436e565b92915050565b600080600080600060a086880312156143b6576143b5613ff4565b5b60006143c48882890161401f565b95505060206143d58882890161401f565b94505060406143e688828901614385565b93505060606143f78882890161401f565b92505060806144088882890161401f565b9150509295509295909350565b600073ffffffffffffffffffffffffffffffffffffffff82169050919050565b600061444082614415565b9050919050565b61445081614435565b82525050565b61445f816142a8565b82525050565b600081519050919050565b600082825260208201905092915050565b6000819050602082019050919050565b600081519050919050565b600082825260208201905092915050565b60005b838110156144cb5780820151818401526020810190506144b0565b838111156144da576000848401525b50505050565b60006144eb82614491565b6144f5818561449c565b93506145058185602086016144ad565b61450e8161416c565b840191505092915050565b614522816142a8565b82525050565b600061010083016000830151848203600086015261454682826144e0565b915050602083015161455b6020860182614519565b50604083015161456e6040860182614519565b5060608301516145816060860182614519565b5060808301516145946080860182614519565b5060a08301516145a760a0860182614519565b5060c08301516145ba60c0860182614519565b5060e08301516145cd60e0860182614519565b508091505092915050565b60006145e48383614528565b905092915050565b6000602082019050919050565b600061460482614465565b61460e8185614470565b93508360208202850161462085614481565b8060005b8581101561465c578484038952815161463d85826145d8565b9450614648836145ec565b925060208a01995050600181019050614624565b50829750879550505050505092915050565b600081519050919050565b600082825260208201905092915050565b6000819050602082019050919050565b600060e08301600083015184820360008601526146b782826144e0565b91505060208301516146cc6020860182614519565b5060408301516146df6040860182614519565b5060608301516146f26060860182614519565b5060808301516147056080860182614519565b5060a083015161471860a0860182614519565b5060c083015161472b60c0860182614519565b508091505092915050565b6000614742838361469a565b905092915050565b6000602082019050919050565b60006147628261466e565b61476c8185614679565b93508360208202850161477e8561468a565b8060005b858110156147ba578484038952815161479b8582614736565b94506147a68361474a565b925060208a01995050600181019050614782565b50829750879550505050505092915050565b600081519050919050565b600082825260208201905092915050565b6000819050602082019050919050565b600061480483836144e0565b905092915050565b6000602082019050919050565b6000614824826147cc565b61482e81856147d7565b935083602082028501614840856147e8565b8060005b8581101561487c578484038952815161485d85826147f8565b94506148688361480c565b925060208a01995050600181019050614844565b50829750879550505050505092915050565b6000610180820190506148a4600083018f614447565b6148b1602083018e61407c565b6148be604083018d61407c565b6148cb606083018c614456565b6148d8608083018b614061565b6148e560a083018a614061565b6148f260c0830189614061565b81810360e083015261490481886145f9565b90508181036101008301526149198187614757565b905081810361012083015261492e8186614819565b905061493e610140830185614061565b61494c610160830184614061565b9d9c50505050505050505050505050565b61496681614435565b811461497157600080fd5b50565b6000813590506149838161495d565b92915050565b6000806000606084860312156149a2576149a1613ff4565b5b60006149b086828701614974565b93505060206149c18682870161401f565b92505060406149d2868287016142cf565b9150509250925092565b600067ffffffffffffffff82169050919050565b6149f9816149dc565b8114614a0457600080fd5b50565b600081359050614a16816149f0565b92915050565b600080600060608486031215614a3557614a34613ff4565b5b600084013567ffffffffffffffff811115614a5357614a52613ff9565b5b614a5f8682870161427a565b9350506020614a7086828701614a07565b9250506040614a8186828701614a07565b9150509250925092565b600060208284031215614aa157614aa0613ff4565b5b6000614aaf84828501614974565b91505092915050565b60008060408385031215614acf57614ace613ff4565b5b6000614add8582860161401f565b9250506020614aee85828601614974565b9150509250929050565b600080600060608486031215614b1157614b10613ff4565b5b600084013567ffffffffffffffff811115614b2f57614b2e613ff9565b5b614b3b8682870161427a565b9350506020614b4c8682870161401f565b9250506040614b5d8682870161401f565b9150509250925092565b600060208284031215614b7d57614b7c613ff4565b5b600082013567ffffffffffffffff811115614b9b57614b9a613ff9565b5b614ba78482850161427a565b91505092915050565b600081519050919050565b600082825260208201905092915050565b6000819050602082019050919050565b614be5816149dc565b82525050565b614bf481614070565b82525050565b606082016000820151614c106000850182614bdc565b506020820151614c236020850182614bdc565b506040820151614c366040850182614beb565b50505050565b6000614c488383614bfa565b60608301905092915050565b6000602082019050919050565b6000614c6c82614bb0565b614c768185614bbb565b9350614c8183614bcc565b8060005b83811015614cb2578151614c998882614c3c565b9750614ca483614c54565b925050600181019050614c85565b5085935050505092915050565b600060a082019050614cd46000830188614061565b614ce16020830187614061565b614cee6040830186614061565b614cfb606083018561407c565b8181036080830152614d0d8184614c61565b90509695505050505050565b600080fd5b600080fd5b60008083601f840112614d3957614d38614162565b5b8235905067ffffffffffffffff811115614d5657614d55614d19565b5b602083019150836001820283011115614d7257614d71614d1e565b5b9250929050565b60008060008060008060008060006101008a8c031215614d9c57614d9b613ff4565b5b6000614daa8c828d0161401f565b9950506020614dbb8c828d0161401f565b9850506040614dcc8c828d0161401f565b9750506060614ddd8c828d0161401f565b9650506080614dee8c828d0161401f565b95505060a0614dff8c828d0161401f565b94505060c0614e108c828d0161401f565b93505060e08a013567ffffffffffffffff811115614e3157614e30613ff9565b5b614e3d8c828d01614d23565b92509250509295985092959850929598565b60008060008060008060008060006101008a8c031215614e7257614e71613ff4565b5b6000614e808c828d0161401f565b9950506020614e918c828d0161401f565b9850506040614ea28c828d0161401f565b9750506060614eb38c828d0161401f565b9650506080614ec48c828d0161401f565b95505060a0614ed58c828d0161401f565b94505060c08a013567ffffffffffffffff811115614ef657614ef5613ff9565b5b614f028c828d01614d23565b935093505060e0614f158c828d01614385565b9150509295985092959850929598565b600082825260208201905092915050565b7f4e6f7441646d696e000000000000000000000000000000000000000000000000600082015250565b6000614f6c600883614f25565b9150614f7782614f36565b602082019050919050565b60006020820190508181036000830152614f9b81614f5f565b9050919050565b7f49736e744564697461626c650000000000000000000000000000000000000000600082015250565b6000614fd8600c83614f25565b9150614fe382614fa2565b602082019050919050565b6000602082019050818103600083015261500781614fcb565b9050919050565b7f2e00000000000000000000000000000000000000000000000000000000000000600082015250565b6000615044600183614f25565b915061504f8261500e565b602082019050919050565b6000602082019050818103600083015261507381615037565b9050919050565b7f4e6f745374617274656400000000000000000000000000000000000000000000600082015250565b60006150b0600a83614f25565b91506150bb8261507a565b602082019050919050565b600060208201905081810360008301526150df816150a3565b9050919050565b7f4e487b7100000000000000000000000000000000000000000000000000000000600052601160045260246000fd5b600061512082613ffe565b915061512b83613ffe565b9250817fffffffffffffffffffffffffffffffffffffffffffffffffffffffffffffffff0483118215151615615164576151636150e6565b5b828202905092915050565b600061517a82613ffe565b915061518583613ffe565b9250827fffffffffffffffffffffffffffffffffffffffffffffffffffffffffffffffff038211156151ba576151b96150e6565b5b828201905092915050565b7f4661696c00000000000000000000000000000000000000000000000000000000600082015250565b60006151fb600483614f25565b9150615206826151c5565b602082019050919050565b6000602082019050818103600083015261522a816151ee565b9050919050565b600061523c82613ffe565b915061524783613ffe565b92508282101561525a576152596150e6565b5b828203905092915050565b7f4e487b7100000000000000000000000000000000000000000000000000000000600052601260045260246000fd5b600061529f82613ffe565b91506152aa83613ffe565b9250826152ba576152b9615265565b5b828204905092915050565b60006152d0826149dc565b91506152db836149dc565b92508267ffffffffffffffff038211156152f8576152f76150e6565b5b828201905092915050565b600061530e826142a8565b9150615319836142a8565b92508263ffffffff03821115615332576153316150e6565b5b828201905092915050565b600081905092915050565b600061535382614491565b61535d818561533d565b935061536d8185602086016144ad565b80840191505092915050565b60006153858284615348565b915081905092915050565b7f4b65792065786973747300000000000000000000000000000000000000000000600082015250565b60006153c6600a83614f25565b91506153d182615390565b602082019050919050565b600060208201905081810360008301526153f5816153b9565b9050919050565b6000615407826142a8565b915063ffffffff82141561541e5761541d6150e6565b5b600182019050919050565b7f4e487b7100000000000000000000000000000000000000000000000000000000600052602260045260246000fd5b6000600282049050600182168061547057607f821691505b6020821081141561548457615483615429565b5b50919050565b60008190508160005260206000209050919050565b600081546154ac81615458565b6154b6818661533d565b945060018216600081146154d157600181146154e257615515565b60ff19831686528186019350615515565b6154eb8561548a565b60005b8381101561550d578154818901526001820191506020810190506154ee565b838801955050505b50505092915050565b600061552a828461549f565b915081905092915050565b600061554082613ffe565b91507fffffffffffffffffffffffffffffffffffffffffffffffffffffffffffffffff821415615573576155726150e6565b5b600182019050919050565b7f492f4f0000000000000000000000000000000000000000000000000000000000600082015250565b60006155b4600383614f25565b91506155bf8261557e565b602082019050919050565b600060208201905081810360008301526155e3816155a7565b9050919050565b7f696e76616c69644f666665720000000000000000000000000000000000000000600082015250565b6000615620600c83614f25565b915061562b826155ea565b602082019050919050565b6000602082019050818103600083015261564f81615613565b9050919050565b6000615661826142a8565b91506000821415615675576156746150e6565b5b600182039050919050565b7f4e487b7100000000000000000000000000000000000000000000000000000000600052603260045260246000fd5b7f5374617274656400000000000000000000000000000000000000000000000000600082015250565b60006156e5600783614f25565b91506156f0826156af565b602082019050919050565b60006020820190508181036000830152615714816156d8565b9050919050565b7f4e6f744372656174656400000000000000000000000000000000000000000000600082015250565b6000615751600a83614f25565b915061575c8261571b565b602082019050919050565b6000602082019050818103600083015261578081615744565b9050919050565b7f496e697469616c697a6564000000000000000000000000000000000000000000600082015250565b60006157bd600b83614f25565b91506157c882615787565b602082019050919050565b600060208201905081810360008301526157ec816157b0565b9050919050565b7f57726f6e674f776e657200000000000000000000000000000000000000000000600082015250565b6000615829600a83614f25565b9150615834826157f3565b602082019050919050565b600060208201905081810360008301526158588161581c565b9050919050565b7f43616e744f666665720000000000000000000000000000000000000000000000600082015250565b6000615895600983614f25565b91506158a08261585f565b602082019050919050565b600060208201905081810360008301526158c481615888565b9050919050565b7f4d61784f66666572730000000000000000000000000000000000000000000000600082015250565b6000615901600983614f25565b915061590c826158cb565b602082019050919050565b60006020820190508181036000830152615930816158f4565b9050919050565b7f496e76616c6964496e6465780000000000000000000000000000000000000000600082015250565b600061596d600c83614f25565b915061597882615937565b602082019050919050565b6000602082019050818103600083015261599c81615960565b9050919050565b60006159af838561533d565b93506159bc838584614229565b82840190509392505050565b60006159d58284866159a3565b91508190509392505050565b7f536f6c644f757400000000000000000000000000000000000000000000000000600082015250565b6000615a17600783614f25565b9150615a22826159e1565b602082019050919050565b60006020820190508181036000830152615a4681615a0a565b9050919050565b7f436173684e6f74466f756e640000000000000000000000000000000000000000600082015250565b6000615a83600c83614f25565b9150615a8e82615a4d565b602082019050919050565b60006020820190508181036000830152615ab281615a76565b9050919050565b7f4e6f74466f756e64000000000000000000000000000000000000000000000000600082015250565b6000615aef600883614f25565b9150615afa82615ab9565b602082019050919050565b60006020820190508181036000830152615b1e81615ae2565b905091905056fea2646970667358221220f9c9b76c5092318b2651ee90b6b674ed8cf64a660bf847178fb2ac0ff14810dd64736f6c634300080b0033",
  "immutableReferences": {},
  "source": "// SPDX-License-Identifier: MIT\r\npragma solidity ^0.8.11;\r\n\r\n// import \"../node_modules/@openzeppelin/contracts/access/Ownable.sol\";\r\nimport \"./CityContract.sol\";\r\n\r\ncontract Gameplay {\r\n    // #region Constructor\r\n\r\n    constructor(address _admin, address _nftContractAddress) {\r\n        // initStringToType();\r\n        owner = msg.sender;\r\n        admin = _admin;\r\n        nftContractAddress = _nftContractAddress;\r\n        CityContract contr = CityContract(nftContractAddress);\r\n        contr.initGameplayContract(address(this));\r\n    }\r\n\r\n    // #endregion\r\n    // #region Util functions, structs,...\r\n    \r\n    struct Building {\r\n        string buildingType;\r\n        uint32 startx;\r\n        uint32 starty;\r\n        uint32 endx;\r\n        uint32 endy;\r\n        uint32 level;\r\n        uint32 orientation;\r\n        uint32 id;\r\n    } // occupies 1 block of 256 bytes\r\n\r\n    struct SpecialBuilding {\r\n        string specialType;\r\n        uint32 startx;\r\n        uint32 starty;\r\n        uint32 endx;\r\n        uint32 endy;\r\n        uint32 orientation;\r\n        uint32 id;\r\n    } // occupies 2 block of 256 bytes\r\n\r\n    struct City {\r\n        mapping(uint => Building) buildingList;\r\n        mapping(uint => SpecialBuilding) specialBuildingList;\r\n        mapping(uint => string) specialBuildingCash; // list of special buildings that were aquired through offers\r\n        // string username;\r\n        bool created;\r\n        bool initialized;\r\n        uint32 theme;\r\n        uint32 numOfBuildings;\r\n        uint32 buildingId; // curr id of the buildings\r\n        uint32 numOfSpecialBuildings;\r\n        uint32 specialBuildingId; // curr id of the special building\r\n        uint32 numOfSpecialBuildingCash; // number of special buildings aquired through offers\r\n        uint64 money;\r\n        uint32 income;\r\n        uint32 incomesReceived;\r\n        address owner;\r\n    } // occupies ( 4 + numOfBuildings + numOfSpecialBuildings + numOfSpecialBuildingCash ) blocks of 256 bytes in total\r\n\r\n    // #endregion\r\n    // #region Variables\r\n\r\n    address admin;\r\n    address owner;\r\n    uint id = 0;\r\n    address nftContractAddress;\r\n    bool editable = true;\r\n    uint gameStart = 2000000000;\r\n    uint payPeriod = 60; // 1 day = 86400\r\n\r\n    mapping(uint => City) cities; // map (array) containing all the data about the City NFTs\r\n    uint32 startingMoney = 100000; // the amount of in-game money everyone has right after minting\r\n\r\n    mapping(uint => uint) scores;\r\n\r\n    // #endregion\r\n    // #region Special building utils\r\n\r\n    struct SpecialOffer {\r\n        uint64 value; // value of the offer (ingame money)\r\n        uint64 user; // id of the user who made the offer\r\n        bool filled;\r\n    }\r\n\r\n    struct SpecialBuildingType {\r\n        uint32 count; // how many can be built\r\n        uint32 numOfOffers;\r\n        uint32 rarity;\r\n        bool soldOut; // bool indicating if special building is sold out or not\r\n        mapping(uint => SpecialOffer) offers; // list of offers (not sorted)\r\n    }\r\n    mapping(string => SpecialBuildingType) specialData;\r\n\r\n    /**\r\n     * @dev Funkcija koja u contractu pravi novi tip specijalnih gradjevina\r\n     * @param key je 'kljuc' (string) novog tipa specijalnih gradjevina\r\n     * @param count je broj koliko moze tih gradjevina da se napravi ukupno\r\n     */\r\n    function addSpecialBuildingType(string memory key, uint32 count, uint32 rarity) external onlyAdmin {\r\n        SpecialBuildingType storage typeData = specialData[key];\r\n\r\n        require(typeData.count == 0 && !typeData.soldOut, \"Key exists\");\r\n\r\n        typeData.count = count;\r\n        typeData.rarity = rarity;\r\n        // typeData.offers = new SpecialOffer[](0);\r\n        typeData.numOfOffers = 0;\r\n    }\r\n\r\n    /**\r\n     * @dev Funkcija koja vraca podatke o nekom tipu specijalnih gradjevina\r\n     * @param key je kljuc tipa\r\n     */\r\n    function getSpecialBuildingType(string memory key) external view returns(\r\n        uint count,\r\n        uint numOfOffers,\r\n        uint rarity,\r\n        bool soldOut,\r\n        SpecialOffer[] memory offers\r\n    ) {\r\n        SpecialBuildingType storage typeData = specialData[key];\r\n\r\n        count = typeData.count;\r\n        numOfOffers = typeData.numOfOffers;\r\n        rarity = typeData.rarity;\r\n        soldOut = typeData.soldOut;\r\n        offers = new SpecialOffer[](typeData.numOfOffers);\r\n\r\n        for(uint i = 0; i < numOfOffers; i++) {\r\n            offers[i] = typeData.offers[i];\r\n        }\r\n    }\r\n\r\n    /**\r\n     * @dev Funkcija koja omogucava serveru da napravi offer\r\n     * @param key je kljuc tipa\r\n     * @param makerId je id grada sa kojeg se pravi offer\r\n     * @param value je cena u ingame novcu koja je predlozena\r\n     */\r\n    function makeSpecialOffer(string memory key, uint64 makerId, uint64 value) external onlyAdmin isEditable {\r\n        SpecialBuildingType storage typeData = specialData[key];\r\n        \r\n        require(typeData.soldOut, \"CantOffer\");\r\n        require(typeData.numOfOffers < 1000, 'MaxOffers');\r\n\r\n        typeData.offers[typeData.numOfOffers] = SpecialOffer({ value: value, user: makerId, filled: false });\r\n        typeData.numOfOffers++;\r\n    }\r\n\r\n    /**\r\n     * @dev Funkcija koja omogucava serveru da ponisti neki offer\r\n     * @param key je kljuc tipa\r\n     * @param user je index offera u listi\r\n     * @param value value of the offer\r\n     */\r\n    function cancelSpecialOffer(string memory key, uint user, uint value) public onlyAdmin isEditable {\r\n        SpecialBuildingType storage typeData = specialData[key];\r\n        \r\n        uint index = typeData.numOfOffers;\r\n        for(uint i = 0; i < typeData.numOfOffers; i++) {\r\n            if(typeData.offers[i].user == user && typeData.offers[i].value == value) {\r\n                index = i;\r\n                break;\r\n            }\r\n        }\r\n\r\n        require(index < typeData.numOfOffers, 'InvalidIndex');\r\n\r\n        typeData.numOfOffers--;\r\n        typeData.offers[index] = typeData.offers[typeData.numOfOffers];\r\n    }\r\n\r\n    // #endregion\r\n    // #region Minting and transfering NFTs\r\n\r\n    /**\r\n     * @dev Function can only be called by the City Contract, it is called when initializing the city and giving it an owner\r\n     * @param tokenId id of the city\r\n     * @param addr is the address of the owner (person who just minted the city)\r\n     */\r\n    function created(uint tokenId, address addr) external {\r\n        require(msg.sender == nftContractAddress, 'Fail');\r\n        cities[tokenId].owner = addr;\r\n        cities[tokenId].created = true;\r\n        id++;\r\n    }\r\n\r\n    /**\r\n     * @dev Function can only be called by the City Cotract, it is called beforeTokenTransfer and reassignes the owner value of the city nft\r\n     * @param tokenId id of the city\r\n     * @param _newOwner is the new owner of the nft with that id\r\n     */\r\n    function newOwner(uint tokenId, address _newOwner) public {\r\n        require(msg.sender == nftContractAddress, 'Fail');\r\n        cities[tokenId].owner = _newOwner;\r\n    }\r\n\r\n    /**\r\n     * @dev Function used for setting the 'initialized' field of a city to true\r\n     * @param tokenId index of the token being initialized\r\n     */\r\n    function initializeCity(\r\n        address _owner,\r\n        uint tokenId,\r\n        uint32 theme\r\n    ) external onlyAdmin isEditable {\r\n        require(cities[tokenId].created , \"NotCreated\");\r\n        require(!cities[tokenId].initialized , \"Initialized\");\r\n        require(cities[tokenId].owner == _owner, \"WrongOwner\");\r\n        \r\n        City storage city = cities[tokenId];\r\n        \r\n        city.money = startingMoney;\r\n        city.theme = theme;\r\n        city.initialized = true;\r\n\r\n        if(gameStart != 2000000000) {\r\n            city.incomesReceived = uint32((block.timestamp - gameStart) / payPeriod);\r\n        }\r\n        else {\r\n            city.incomesReceived = 0;\r\n        }\r\n    }\r\n\r\n    // #endregion\r\n    // #region Changing the cities\r\n\r\n    function getBuildingId(uint tokenId, uint buildingId, bool special) internal view returns(uint) {\r\n        City storage city = cities[tokenId];\r\n\r\n        if(special) {\r\n            for(uint i = 0; i < city.numOfSpecialBuildings; i++) {\r\n                if(buildingId == city.specialBuildingList[i].id) return i;\r\n            }\r\n        }\r\n        else {\r\n            for(uint i = 0; i < city.numOfBuildings; i++) {\r\n                if(buildingId == city.buildingList[i].id) return i;\r\n            }\r\n        }\r\n        revert('NotFound');\r\n    }\r\n\r\n    /**\r\n     * @dev Function that will change the income of a city - should be called when building, upgrading or deleting something\r\n     * @param tokenId id of the city\r\n     * @param newScore new score\r\n     */\r\n    function changeScore(uint tokenId, uint newScore) external onlyAdmin isEditable {\r\n        scores[tokenId] = newScore;\r\n    }\r\n\r\n    /**\r\n     * @dev Function upgrading a building at the index in the list\r\n     * @param tokenId id of the city\r\n     * @param buildingId id of the building to be upgraded \r\n     */\r\n    function upgradeBuilding(uint tokenId, uint buildingId) external onlyAdmin isEditable {\r\n        City storage city = cities[tokenId];\r\n\r\n        uint buildingIndex = getBuildingId(tokenId, buildingId, false);\r\n\r\n        city.buildingList[buildingIndex].level++;\r\n    }\r\n\r\n    /**\r\n     * @dev Function adding a new building into the city\r\n     * @param tokenId id of the city\r\n     * @param _startx x starting coordinate\r\n     * @param _starty y starting coordinate\r\n     * @param _endx x ending coordinate\r\n     * @param _endy y ending coordinate\r\n     * @param _orientation the orientation of a building\r\n     * @param _buildingType a string that represents a building type\r\n     */\r\n    function addBuilding(\r\n        uint tokenId,\r\n        uint _startx,\r\n        uint _starty,\r\n        uint _endx,\r\n        uint _endy,\r\n        uint _orientation,\r\n        uint _level,\r\n        string calldata _buildingType\r\n    ) external onlyAdmin isEditable {\r\n        City storage city = cities[tokenId];\r\n        city.buildingList[city.numOfBuildings] = Building({\r\n            buildingType: _buildingType,\r\n            startx: uint32(_startx),\r\n            starty: uint32(_starty),\r\n            endx: uint32(_endx),\r\n            endy: uint32(_endy),\r\n            level: uint32(_level),\r\n            orientation: uint32(_orientation),\r\n            id: city.buildingId\r\n        });\r\n        city.buildingId++;\r\n        city.numOfBuildings++;\r\n    }\r\n\r\n    /**\r\n     * @dev Function adding a new building into the city\r\n     * @param tokenId id of the city\r\n     * @param _startx x starting coordinate\r\n     * @param _starty y starting coordinate\r\n     * @param _endx x ending coordinate\r\n     * @param _endy y ending coordinate\r\n     * @param _specialType a string that represents a building type\r\n     * @param _orientation the orientation of a building\r\n     * @param throughOffer is true if buying through an offer and false if buying normaly\r\n     */\r\n    //  * @param offerIndex is the index of the offer in the offer list for that special building type\r\n    function addSpecialBuilding(\r\n        uint tokenId,\r\n        uint _startx,\r\n        uint _starty,\r\n        uint _endx,\r\n        uint _endy,\r\n        uint _orientation,\r\n        string calldata _specialType,\r\n        bool throughOffer\r\n        // uint cashIndex\r\n        // uint offerIndex\r\n    ) external onlyAdmin isEditable {\r\n        require(throughOffer || specialData[_specialType].count > 0, 'SoldOut');\r\n\r\n        City storage city = cities[tokenId];\r\n\r\n        if(!throughOffer) {\r\n            specialData[_specialType].count--; // decreasing the number of special buildings left to build\r\n            if(specialData[_specialType].count == 0) {\r\n                specialData[_specialType].soldOut = true;\r\n            }\r\n        }\r\n        else {\r\n            uint cashIndex = city.numOfSpecialBuildingCash;\r\n            for(uint i = 0; i < city.numOfSpecialBuildingCash; i++) {\r\n                if(keccak256(abi.encodePacked(_specialType)) == keccak256(abi.encodePacked(city.specialBuildingCash[i]))) {\r\n                    cashIndex = i;\r\n                    break;\r\n                }\r\n            }\r\n            require(cashIndex < city.numOfSpecialBuildingCash, 'CashNotFound');\r\n\r\n            city.numOfSpecialBuildingCash--; // decreasing the num of special buildings cashed for that player\r\n            city.specialBuildingCash[cashIndex] = city.specialBuildingCash[city.numOfSpecialBuildingCash]; // moving the last element to the index of the deleted element\r\n\r\n            // cancelSpecialOffer(_specialType, offerIndex); // removing the offer from the list because it got filled\r\n        }\r\n        \r\n        city.specialBuildingList[city.numOfSpecialBuildings] = SpecialBuilding({\r\n            specialType: _specialType,\r\n            startx: uint32(_startx),\r\n            starty: uint32(_starty),\r\n            endx: uint32(_endx),\r\n            endy: uint32(_endy),\r\n            orientation: uint32(_orientation),\r\n            id: city.specialBuildingId\r\n        });\r\n        city.specialBuildingId++;\r\n        city.numOfSpecialBuildings++;\r\n    }\r\n\r\n    /**\r\n     * @dev Function used for removing a building from a city\r\n     * @param tokenId id of the city\r\n     * @param buildingId is the index of the building in the list\r\n     */\r\n    function removeBuilding(uint tokenId, uint buildingId) external onlyAdmin isEditable {\r\n        City storage city = cities[tokenId];\r\n\r\n        uint buildingIndex = getBuildingId(tokenId, buildingId, false);\r\n\r\n        city.numOfBuildings--;\r\n        city.buildingList[buildingIndex] = city.buildingList[city.numOfBuildings];\r\n\r\n    }\r\n    \r\n    /**\r\n     * @dev Function used for removing a building from a city\r\n     * @param tokenId id of the city\r\n     * @param buildingId is the index of the building in the list\r\n     * @param throughOffer is true if selling through an offer and false if selling normaly\r\n     * @param buyerId is the ID of the city that made the offer\r\n     */\r\n    function removeSpecialBuilding(\r\n        uint tokenId,\r\n        uint buildingId,\r\n        bool throughOffer,\r\n        uint buyerId,\r\n        uint offerValue\r\n    ) external onlyAdmin isEditable {\r\n        City storage city = cities[tokenId];\r\n        uint buildingIndex = getBuildingId(tokenId, buildingId, true);\r\n        SpecialBuildingType storage typeData = specialData[city.specialBuildingList[buildingIndex].specialType];\r\n\r\n        uint offerIndex = typeData.numOfOffers;\r\n        for(uint i = 0; i < typeData.numOfOffers; i++) {\r\n            if(typeData.offers[i].user == buyerId && typeData.offers[i].value == offerValue) {\r\n                offerIndex = i;\r\n                break;\r\n            }\r\n        }\r\n\r\n        require(buildingIndex < city.numOfSpecialBuildings && (!throughOffer || tokenId != buyerId), 'I/O'); // wrong index or the owner is the same as the person who made the offer\r\n        require(!throughOffer || (offerIndex < typeData.numOfOffers && !typeData.offers[offerIndex].filled), 'invalidOffer');\r\n\r\n        if(!throughOffer) {\r\n            typeData.count++;\r\n            typeData.soldOut = false;\r\n        }\r\n        else {\r\n            City storage buyerCity = cities[buyerId];\r\n            buyerCity.specialBuildingCash[buyerCity.numOfSpecialBuildingCash] = city.specialBuildingList[buildingIndex].specialType; // adding a special building to the cash list of the city to who it was sold\r\n            buyerCity.numOfSpecialBuildingCash++; // increasing the num of special buildings cashed for that player\r\n            typeData.offers[offerIndex].filled = true; // marking the offer as filled\r\n        }\r\n\r\n        city.numOfSpecialBuildings--;\r\n\r\n        city.specialBuildingList[buildingIndex] = city.specialBuildingList[city.numOfSpecialBuildings];\r\n    }\r\n\r\n    /**\r\n     * @dev Function for rotating a building\r\n     * @param tokenId the id of the city\r\n     * @param buildingId id of the building to be rotated\r\n     * @param _orientation the new orientation of the building\r\n     */\r\n    function rotate(uint tokenId, uint buildingId, uint _orientation) external onlyAdmin isEditable {\r\n        City storage city = cities[tokenId];\r\n\r\n        uint buildingIndex = getBuildingId(tokenId, buildingId, false);\r\n\r\n        city.buildingList[buildingIndex].orientation = uint32(_orientation);\r\n    }\r\n\r\n    /**\r\n     * @dev Function for rotating a building\r\n     * @param tokenId the id of the city\r\n     * @param buildingId id of the special building to be rotated\r\n     * @param _orientation the new orientation of the building\r\n     */\r\n    function rotateSpecial(uint tokenId, uint buildingId, uint _orientation) external onlyAdmin isEditable {\r\n        City storage city = cities[tokenId];\r\n\r\n        uint buildingIndex = getBuildingId(tokenId, buildingId, true);\r\n\r\n        city.specialBuildingList[buildingIndex].orientation = uint32(_orientation);\r\n    }\r\n\r\n    /**\r\n     * @dev Function that starts the game, income will begin to be calculated and received (this happens by chaning the 'gameStart' value to current block.timestamp and setting at 'lastPay' for all cities)\r\n     */\r\n    function startGameIncome() external onlyAdmin isEditable {\r\n        require(gameStart == 2000000000, \"Started\");\r\n        gameStart = block.timestamp;\r\n        uint i = 0;\r\n        while(cities[i].owner != address(0)) {\r\n            cities[i].incomesReceived = 0;\r\n            i++;\r\n        }\r\n    }\r\n\r\n    /**\r\n     * @dev Function getting the income for a city if conditions are met\r\n     * @param tokenId id of the city\r\n     * @param income the income of the city\r\n     */\r\n     // should receive how much is the income\r\n    function getIncome(uint tokenId, uint income) external onlyAdmin isEditable {\r\n        City storage city = cities[tokenId];\r\n\r\n        require(block.timestamp > gameStart, \"NotStarted\");\r\n        require(block.timestamp > city.incomesReceived * payPeriod + gameStart, \"Fail\");\r\n\r\n        uint n = (block.timestamp - gameStart) / payPeriod - city.incomesReceived;\r\n        city.money += uint32(n * income);\r\n        city.incomesReceived += uint32(n);\r\n    }\r\n\r\n    // #endregion\r\n    // #region Getting data from the contract\r\n\r\n    /**\r\n     * @dev Function returns true if the cities are editable, and false if they are not\r\n     */\r\n    function getEditableState() external view returns(bool) {\r\n        return editable;\r\n    }\r\n\r\n    /*\r\n\r\n    struct CityRepresentation {\r\n        address owner;\r\n        uint numOfBuildings;\r\n        uint numOfSpecialBuildings;\r\n        uint numOfSpecialBuildingCash;\r\n        // string username;\r\n        bool created;\r\n        bool initialized;\r\n        uint32 theme;\r\n        uint[] startx;\r\n        uint[] starty;\r\n        uint[] endx;\r\n        uint[] endy;\r\n        uint[] orientation;\r\n        uint[] id;\r\n        string[] buildingType;\r\n        uint[] level;\r\n        string[] specialType;\r\n        string[] specialBuildingCash;\r\n        uint money;\r\n        uint income;\r\n        uint incomesReceived;\r\n    } // this is a struct used for returning values from the blockchain\r\n    function getCityData(uint tokenId) external view returns(CityRepresentation memory) {\r\n        City storage city = cities[tokenId];\r\n        uint numOfBuildings = city.numOfBuildings;\r\n        uint numOfSpecialBuildings  = city.numOfSpecialBuildings;\r\n        uint numOfSpecialBuildingCash = city.numOfSpecialBuildingCash;\r\n        CityRepresentation memory r = CityRepresentation({\r\n            owner: city.owner,\r\n            numOfBuildings: numOfBuildings,\r\n            numOfSpecialBuildings: numOfSpecialBuildings,\r\n            numOfSpecialBuildingCash: numOfSpecialBuildingCash,\r\n            // username: city.username,\r\n            created: city.created,\r\n            initialized: city.initialized,\r\n            theme: city.theme,\r\n            startx: new uint[](numOfBuildings + numOfSpecialBuildings),\r\n            starty: new uint[](numOfBuildings + numOfSpecialBuildings),\r\n            endx: new uint[](numOfBuildings + numOfSpecialBuildings),\r\n            endy: new uint[](numOfBuildings + numOfSpecialBuildings),\r\n            orientation: new uint[](numOfBuildings + numOfSpecialBuildings),\r\n            id: new uint[](numOfBuildings + numOfSpecialBuildings),\r\n            buildingType: new string[](numOfBuildings),\r\n            level: new uint[](numOfBuildings),\r\n            specialType: new string[](numOfSpecialBuildings),\r\n            specialBuildingCash: new string[](numOfSpecialBuildingCash),\r\n            money: city.money,\r\n            income: city.income,\r\n            incomesReceived: (gameStart == 2000000000) ? 0 : city.incomesReceived\r\n        });\r\n        for(uint i = 0; i < numOfBuildings; i++) {  \r\n            r.startx[i] = city.buildingList[i].startx;\r\n            r.starty[i] = city.buildingList[i].starty;\r\n            r.endx[i] = city.buildingList[i].endx;\r\n            r.endy[i] = city.buildingList[i].endy;\r\n            r.orientation[i] = city.buildingList[i].orientation;\r\n            r.buildingType[i] = city.buildingList[i].buildingType;\r\n            r.level[i] = city.buildingList[i].level;\r\n            r.id[i] = city.buildingList[i].id;\r\n        }\r\n        for(uint i = numOfBuildings; i < numOfSpecialBuildings + numOfBuildings; i++) {\r\n            r.startx[i] = city.specialBuildingList[i-numOfBuildings].startx;\r\n            r.starty[i] = city.specialBuildingList[i-numOfBuildings].starty;\r\n            r.endx[i] = city.specialBuildingList[i-numOfBuildings].endx;\r\n            r.endy[i] = city.specialBuildingList[i-numOfBuildings].endy;\r\n            r.orientation[i] = city.specialBuildingList[i-numOfBuildings].orientation;\r\n            r.specialType[i-numOfBuildings] = city.specialBuildingList[i-numOfBuildings].specialType;\r\n            r.id[i] = city.specialBuildingList[i-numOfBuildings].id;\r\n        }\r\n        for(uint i = 0; i < numOfSpecialBuildingCash; i++) {\r\n            r.specialBuildingCash[i] = city.specialBuildingCash[i];\r\n        }\r\n        return r;\r\n    } // returns a struct with all the data about the city with the 'tokenId' ID\r\n\r\n    */\r\n\r\n    function getNumOfPlayers() external view returns(uint) {\r\n        return id;\r\n    }\r\n\r\n    function getCityData(uint tokenId) external view returns(\r\n        address cityOwner,\r\n        bool cityCreated,\r\n        bool initialized,\r\n        uint32 theme,\r\n        uint money,\r\n        uint income,\r\n        uint incomesReceived,\r\n        Building[] memory buildingList,\r\n        SpecialBuilding[] memory specialBuildingList,\r\n        string[] memory specialBuildingCash,\r\n        uint buildingId,\r\n        uint specialBuildingId\r\n    ) {\r\n        City storage city = cities[tokenId];\r\n        cityOwner = city.owner;\r\n        cityCreated = city.created;\r\n        initialized = city.initialized;\r\n        theme = city.theme;\r\n        money = city.money;\r\n        income = city.income;\r\n        incomesReceived = city.incomesReceived;\r\n        buildingId = city.buildingId;\r\n        specialBuildingId = city.specialBuildingId;\r\n\r\n        buildingList = new Building[](city.numOfBuildings);\r\n        for(uint i = 0; i < city.numOfBuildings; i++) buildingList[i] = city.buildingList[i];\r\n\r\n        specialBuildingList = new SpecialBuilding[](city.numOfSpecialBuildings);\r\n        for(uint i = 0; i < city.numOfSpecialBuildings; i++) specialBuildingList[i] = city.specialBuildingList[i];\r\n\r\n        specialBuildingCash = new string[](city.numOfSpecialBuildingCash);\r\n        for(uint i = 0; i < city.numOfSpecialBuildingCash; i++) specialBuildingCash[i] = city.specialBuildingCash[i];\r\n    }\r\n\r\n\r\n    // struct Score {\r\n    //     uint score;\r\n    //     bool initialized;\r\n    // }\r\n    // returns an array of indices that correspod to the IDs of the sorted cities\r\n    function getScore(uint tokenId) external view returns(uint, bool) {\r\n        // Score memory r = Score({score: scores[tokenId], initialized: cities[tokenId].initialized});\r\n        // return r;\r\n        return (scores[tokenId], cities[tokenId].initialized);\r\n    } \r\n\r\n    // #endregion\r\n    // #region Modifiers and other functions\r\n\r\n    // changes the time required to pass to receive income\r\n    function changePayPeriod(uint _payPeriod) external onlyAdmin {\r\n        payPeriod = _payPeriod;\r\n    }\r\n\r\n    // modifier is used to check if the person who called the function is the Admin\r\n    modifier onlyAdmin() {\r\n        require(msg.sender == admin, 'NotAdmin');\r\n        _;\r\n    }\r\n\r\n    // function that can change the Admin address in case a proble occurs - can be calles only by the owner\r\n    function changeAdmin(address newAdmin) external {\r\n        require(msg.sender == owner, '.');\r\n        admin = newAdmin;\r\n    }\r\n\r\n    // modifier is used to check if the cities can be edited - they won't be editable only if a major problem occurs\r\n    modifier isEditable() {\r\n        require(editable, 'IsntEditable');\r\n        _;\r\n    }\r\n\r\n    // function is called to restrict editing data on the blockchain\r\n    function flipEditableState() public {\r\n        require(msg.sender == owner, '.');\r\n        editable = !editable;\r\n    }\r\n\r\n    // #endregion\r\n    \r\n    // #region Dev options\r\n\r\n    function devSetMoney(uint tokenId, uint _money) external onlyAdmin {\r\n        cities[tokenId].money = uint64(_money);\r\n    }\r\n\r\n    // #endregion\r\n}",
  "sourcePath": "C:\\Users\\Dario Vajda\\OneDrive\\Documents\\nft\\smart_contracts\\contracts\\Gameplay.sol",
  "compiler": {
    "name": "solc",
    "version": "0.8.11+commit.d7f03943.Emscripten.clang"
  },
  "schemaVersion": "3.4.4",
  "updatedAt": "2022-08-03T11:48:36.021Z",
  "networkType": "ethereum",
  "devdoc": {
    "kind": "dev",
    "methods": {
      "addBuilding(uint256,uint256,uint256,uint256,uint256,uint256,uint256,string)": {
        "details": "Function adding a new building into the city",
        "params": {
          "_buildingType": "a string that represents a building type",
          "_endx": "x ending coordinate",
          "_endy": "y ending coordinate",
          "_orientation": "the orientation of a building",
          "_startx": "x starting coordinate",
          "_starty": "y starting coordinate",
          "tokenId": "id of the city"
        }
      },
      "addSpecialBuilding(uint256,uint256,uint256,uint256,uint256,uint256,string,bool)": {
        "details": "Function adding a new building into the city",
        "params": {
          "_endx": "x ending coordinate",
          "_endy": "y ending coordinate",
          "_orientation": "the orientation of a building",
          "_specialType": "a string that represents a building type",
          "_startx": "x starting coordinate",
          "_starty": "y starting coordinate",
          "throughOffer": "is true if buying through an offer and false if buying normaly",
          "tokenId": "id of the city"
        }
      },
      "addSpecialBuildingType(string,uint32,uint32)": {
        "details": "Funkcija koja u contractu pravi novi tip specijalnih gradjevina",
        "params": {
          "count": "je broj koliko moze tih gradjevina da se napravi ukupno",
          "key": "je 'kljuc' (string) novog tipa specijalnih gradjevina"
        }
      },
      "cancelSpecialOffer(string,uint256,uint256)": {
        "details": "Funkcija koja omogucava serveru da ponisti neki offer",
        "params": {
          "key": "je kljuc tipa",
          "user": "je index offera u listi",
          "value": "value of the offer"
        }
      },
      "changeScore(uint256,uint256)": {
        "details": "Function that will change the income of a city - should be called when building, upgrading or deleting something",
        "params": {
          "newScore": "new score",
          "tokenId": "id of the city"
        }
      },
      "created(uint256,address)": {
        "details": "Function can only be called by the City Contract, it is called when initializing the city and giving it an owner",
        "params": {
          "addr": "is the address of the owner (person who just minted the city)",
          "tokenId": "id of the city"
        }
      },
      "getEditableState()": {
        "details": "Function returns true if the cities are editable, and false if they are not"
      },
      "getIncome(uint256,uint256)": {
        "details": "Function getting the income for a city if conditions are met",
        "params": {
          "income": "the income of the city",
          "tokenId": "id of the city"
        }
      },
      "getSpecialBuildingType(string)": {
        "details": "Funkcija koja vraca podatke o nekom tipu specijalnih gradjevina",
        "params": {
          "key": "je kljuc tipa"
        }
      },
      "initializeCity(address,uint256,uint32)": {
        "details": "Function used for setting the 'initialized' field of a city to true",
        "params": {
          "tokenId": "index of the token being initialized"
        }
      },
      "makeSpecialOffer(string,uint64,uint64)": {
        "details": "Funkcija koja omogucava serveru da napravi offer",
        "params": {
          "key": "je kljuc tipa",
          "makerId": "je id grada sa kojeg se pravi offer",
          "value": "je cena u ingame novcu koja je predlozena"
        }
      },
      "newOwner(uint256,address)": {
        "details": "Function can only be called by the City Cotract, it is called beforeTokenTransfer and reassignes the owner value of the city nft",
        "params": {
          "_newOwner": "is the new owner of the nft with that id",
          "tokenId": "id of the city"
        }
      },
      "removeBuilding(uint256,uint256)": {
        "details": "Function used for removing a building from a city",
        "params": {
          "buildingId": "is the index of the building in the list",
          "tokenId": "id of the city"
        }
      },
      "removeSpecialBuilding(uint256,uint256,bool,uint256,uint256)": {
        "details": "Function used for removing a building from a city",
        "params": {
          "buildingId": "is the index of the building in the list",
          "buyerId": "is the ID of the city that made the offer",
          "throughOffer": "is true if selling through an offer and false if selling normaly",
          "tokenId": "id of the city"
        }
      },
      "rotate(uint256,uint256,uint256)": {
        "details": "Function for rotating a building",
        "params": {
          "_orientation": "the new orientation of the building",
          "buildingId": "id of the building to be rotated",
          "tokenId": "the id of the city"
        }
      },
      "rotateSpecial(uint256,uint256,uint256)": {
        "details": "Function for rotating a building",
        "params": {
          "_orientation": "the new orientation of the building",
          "buildingId": "id of the special building to be rotated",
          "tokenId": "the id of the city"
        }
      },
      "startGameIncome()": {
        "details": "Function that starts the game, income will begin to be calculated and received (this happens by chaning the 'gameStart' value to current block.timestamp and setting at 'lastPay' for all cities)"
      },
      "upgradeBuilding(uint256,uint256)": {
        "details": "Function upgrading a building at the index in the list",
        "params": {
          "buildingId": "id of the building to be upgraded ",
          "tokenId": "id of the city"
        }
      }
    },
    "version": 1
  },
  "userdoc": {
    "kind": "user",
    "methods": {},
    "version": 1
  }
}