{
  "contractName": "Gameplay",
  "abi": [
    {
      "inputs": [],
      "stateMutability": "nonpayable",
      "type": "constructor"
    },
    {
      "anonymous": false,
      "inputs": [
        {
          "indexed": true,
          "internalType": "address",
          "name": "previousOwner",
          "type": "address"
        },
        {
          "indexed": true,
          "internalType": "address",
          "name": "newOwner",
          "type": "address"
        }
      ],
      "name": "OwnershipTransferred",
      "type": "event"
    },
    {
      "inputs": [],
      "name": "owner",
      "outputs": [
        {
          "internalType": "address",
          "name": "",
          "type": "address"
        }
      ],
      "stateMutability": "view",
      "type": "function",
      "constant": true
    },
    {
      "inputs": [],
      "name": "renounceOwnership",
      "outputs": [],
      "stateMutability": "nonpayable",
      "type": "function"
    },
    {
      "inputs": [
        {
          "internalType": "address",
          "name": "newOwner",
          "type": "address"
        }
      ],
      "name": "transferOwnership",
      "outputs": [],
      "stateMutability": "nonpayable",
      "type": "function"
    },
    {
      "inputs": [
        {
          "internalType": "address",
          "name": "owner",
          "type": "address"
        },
        {
          "internalType": "uint256",
          "name": "tokenId",
          "type": "uint256"
        },
        {
          "internalType": "uint256",
          "name": "numOfBuildings",
          "type": "uint256"
        },
        {
          "internalType": "uint256",
          "name": "numOfSpecialBuildings",
          "type": "uint256"
        },
        {
          "internalType": "uint256[]",
          "name": "startx",
          "type": "uint256[]"
        },
        {
          "internalType": "uint256[]",
          "name": "starty",
          "type": "uint256[]"
        },
        {
          "internalType": "uint256[]",
          "name": "endx",
          "type": "uint256[]"
        },
        {
          "internalType": "uint256[]",
          "name": "endy",
          "type": "uint256[]"
        },
        {
          "internalType": "string[]",
          "name": "buildingType",
          "type": "string[]"
        },
        {
          "internalType": "uint256[]",
          "name": "specialType",
          "type": "uint256[]"
        },
        {
          "internalType": "uint256",
          "name": "income",
          "type": "uint256"
        }
      ],
      "name": "initializeCity",
      "outputs": [],
      "stateMutability": "nonpayable",
      "type": "function"
    },
    {
      "inputs": [
        {
          "internalType": "uint256",
          "name": "tokenId",
          "type": "uint256"
        },
        {
          "internalType": "uint256",
          "name": "price",
          "type": "uint256"
        },
        {
          "internalType": "uint256",
          "name": "buildingIndex",
          "type": "uint256"
        }
      ],
      "name": "upgradeBuilding",
      "outputs": [],
      "stateMutability": "nonpayable",
      "type": "function"
    },
    {
      "inputs": [
        {
          "internalType": "uint256",
          "name": "tokenId",
          "type": "uint256"
        },
        {
          "internalType": "uint256",
          "name": "price",
          "type": "uint256"
        },
        {
          "internalType": "uint256",
          "name": "_startx",
          "type": "uint256"
        },
        {
          "internalType": "uint256",
          "name": "_starty",
          "type": "uint256"
        },
        {
          "internalType": "uint256",
          "name": "_endx",
          "type": "uint256"
        },
        {
          "internalType": "uint256",
          "name": "_endy",
          "type": "uint256"
        },
        {
          "internalType": "string",
          "name": "_buildingType",
          "type": "string"
        }
      ],
      "name": "addBuilding",
      "outputs": [],
      "stateMutability": "nonpayable",
      "type": "function"
    },
    {
      "inputs": [
        {
          "internalType": "uint256",
          "name": "tokenId",
          "type": "uint256"
        },
        {
          "internalType": "uint256",
          "name": "price",
          "type": "uint256"
        },
        {
          "internalType": "uint256",
          "name": "_startx",
          "type": "uint256"
        },
        {
          "internalType": "uint256",
          "name": "_starty",
          "type": "uint256"
        },
        {
          "internalType": "uint256",
          "name": "_endx",
          "type": "uint256"
        },
        {
          "internalType": "uint256",
          "name": "_endy",
          "type": "uint256"
        },
        {
          "internalType": "uint256",
          "name": "_specialType",
          "type": "uint256"
        }
      ],
      "name": "addSpecialBuilding",
      "outputs": [],
      "stateMutability": "nonpayable",
      "type": "function"
    },
    {
      "inputs": [],
      "name": "startGameIncome",
      "outputs": [],
      "stateMutability": "nonpayable",
      "type": "function"
    },
    {
      "inputs": [
        {
          "internalType": "uint256",
          "name": "tokenId",
          "type": "uint256"
        }
      ],
      "name": "getIncome",
      "outputs": [],
      "stateMutability": "nonpayable",
      "type": "function"
    },
    {
      "inputs": [],
      "name": "getEditableState",
      "outputs": [
        {
          "internalType": "bool",
          "name": "",
          "type": "bool"
        }
      ],
      "stateMutability": "view",
      "type": "function",
      "constant": true
    },
    {
      "inputs": [
        {
          "internalType": "uint256",
          "name": "tokenId",
          "type": "uint256"
        }
      ],
      "name": "getBuildings",
      "outputs": [
        {
          "components": [
            {
              "internalType": "address",
              "name": "owner",
              "type": "address"
            },
            {
              "internalType": "uint256",
              "name": "numOfBuildings",
              "type": "uint256"
            },
            {
              "internalType": "uint256",
              "name": "numOfSpecialBuildings",
              "type": "uint256"
            },
            {
              "internalType": "uint256[]",
              "name": "startx",
              "type": "uint256[]"
            },
            {
              "internalType": "uint256[]",
              "name": "starty",
              "type": "uint256[]"
            },
            {
              "internalType": "uint256[]",
              "name": "endx",
              "type": "uint256[]"
            },
            {
              "internalType": "uint256[]",
              "name": "endy",
              "type": "uint256[]"
            },
            {
              "internalType": "string[]",
              "name": "buildingType",
              "type": "string[]"
            },
            {
              "internalType": "uint256[]",
              "name": "specialType",
              "type": "uint256[]"
            },
            {
              "internalType": "uint256",
              "name": "money",
              "type": "uint256"
            },
            {
              "internalType": "uint256",
              "name": "income",
              "type": "uint256"
            },
            {
              "internalType": "uint256",
              "name": "lastPay",
              "type": "uint256"
            }
          ],
          "internalType": "struct Gameplay.CityRepresentation",
          "name": "",
          "type": "tuple"
        }
      ],
      "stateMutability": "view",
      "type": "function",
      "constant": true
    },
    {
      "inputs": [
        {
          "internalType": "uint256",
          "name": "tokenId",
          "type": "uint256"
        }
      ],
      "name": "getMoney",
      "outputs": [
        {
          "internalType": "uint256",
          "name": "",
          "type": "uint256"
        }
      ],
      "stateMutability": "view",
      "type": "function",
      "constant": true
    },
    {
      "inputs": [
        {
          "internalType": "uint256",
          "name": "tokenId",
          "type": "uint256"
        }
      ],
      "name": "getLastPay",
      "outputs": [
        {
          "internalType": "uint256",
          "name": "",
          "type": "uint256"
        }
      ],
      "stateMutability": "view",
      "type": "function",
      "constant": true
    },
    {
      "inputs": [],
      "name": "getBlockchainTime",
      "outputs": [
        {
          "internalType": "uint256",
          "name": "",
          "type": "uint256"
        }
      ],
      "stateMutability": "view",
      "type": "function",
      "constant": true
    },
    {
      "inputs": [],
      "name": "flipEditableState",
      "outputs": [],
      "stateMutability": "nonpayable",
      "type": "function"
    },
    {
      "inputs": [
        {
          "internalType": "address",
          "name": "newAdmin",
          "type": "address"
        }
      ],
      "name": "changeAdmin",
      "outputs": [],
      "stateMutability": "nonpayable",
      "type": "function"
    }
  ],
  "bytecode": "0x6080604052600a6003556127106004556001600560146101000a81548160ff02191690831515021790555063773594006006556078600755620186a0600960006101000a81548167ffffffffffffffff021916908367ffffffffffffffff1602179055503480156200007057600080fd5b506200009162000085620000e860201b60201c565b620000f060201b60201c565b620000a1620001b460201b60201c565b33600560006101000a81548173ffffffffffffffffffffffffffffffffffffffff021916908373ffffffffffffffffffffffffffffffffffffffff16021790555062000f50565b600033905090565b60008060009054906101000a900473ffffffffffffffffffffffffffffffffffffffff169050816000806101000a81548173ffffffffffffffffffffffffffffffffffffffff021916908373ffffffffffffffffffffffffffffffffffffffff1602179055508173ffffffffffffffffffffffffffffffffffffffff168173ffffffffffffffffffffffffffffffffffffffff167f8be0079c531659141344cd1fd0a4f28419497f9722a3daafe3b4186f6b6457e060405160405180910390a35050565b60006001604051620001c69062000b06565b908152602001604051809103902060006101000a81548160ff02191690836009811115620001f957620001f862000b1d565b5b02179055506001806040516200020f9062000b9c565b908152602001604051809103902060006101000a81548160ff0219169083600981111562000242576200024162000b1d565b5b021790555060026001604051620002599062000c03565b908152602001604051809103902060006101000a81548160ff021916908360098111156200028c576200028b62000b1d565b5b021790555060036001604051620002a39062000c6a565b908152602001604051809103902060006101000a81548160ff02191690836009811115620002d657620002d562000b1d565b5b021790555060046001604051620002ed9062000cd1565b908152602001604051809103902060006101000a81548160ff0219169083600981111562000320576200031f62000b1d565b5b021790555060056001604051620003379062000d38565b908152602001604051809103902060006101000a81548160ff021916908360098111156200036a576200036962000b1d565b5b021790555060066001604051620003819062000d9f565b908152602001604051809103902060006101000a81548160ff02191690836009811115620003b457620003b362000b1d565b5b021790555060076001604051620003cb9062000e06565b908152602001604051809103902060006101000a81548160ff02191690836009811115620003fe57620003fd62000b1d565b5b021790555060086001604051620004159062000e6d565b908152602001604051809103902060006101000a81548160ff0219169083600981111562000448576200044762000b1d565b5b0217905550600960016040516200045f9062000ed4565b908152602001604051809103902060006101000a81548160ff0219169083600981111562000492576200049162000b1d565b5b02179055506040518060400160405280600781526020017f666163746f72790000000000000000000000000000000000000000000000000081525060026000806009811115620004e757620004e662000b1d565b5b6009811115620004fc57620004fb62000b1d565b5b815260200190815260200160002090805190602001906200051f929190620009fb565b506040518060400160405280600681526020017f6f66666963650000000000000000000000000000000000000000000000000000815250600260006001600981111562000571576200057062000b1d565b5b600981111562000586576200058562000b1d565b5b81526020019081526020016000209080519060200190620005a9929190620009fb565b506040518060400160405280600a81526020017f72657374617572616e74000000000000000000000000000000000000000000008152506002600060026009811115620005fb57620005fa62000b1d565b5b600981111562000610576200060f62000b1d565b5b8152602001908152602001600020908051906020019062000633929190620009fb565b506040518060400160405280600781526020017f7061726b696e6700000000000000000000000000000000000000000000000000815250600260006003600981111562000685576200068462000b1d565b5b60098111156200069a576200069962000b1d565b5b81526020019081526020016000209080519060200190620006bd929190620009fb565b506040518060400160405280600881526020017f6275696c64696e6700000000000000000000000000000000000000000000000081525060026000600460098111156200070f576200070e62000b1d565b5b600981111562000724576200072362000b1d565b5b8152602001908152602001600020908051906020019062000747929190620009fb565b506040518060400160405280600581526020017f686f757365000000000000000000000000000000000000000000000000000000815250600260006005600981111562000799576200079862000b1d565b5b6009811115620007ae57620007ad62000b1d565b5b81526020019081526020016000209080519060200190620007d1929190620009fb565b506040518060400160405280600581526020017f73746f7265000000000000000000000000000000000000000000000000000000815250600260006006600981111562000823576200082262000b1d565b5b600981111562000838576200083762000b1d565b5b815260200190815260200160002090805190602001906200085b929190620009fb565b506040518060400160405280600b81526020017f73757065724d61726b65740000000000000000000000000000000000000000008152506002600060076009811115620008ad57620008ac62000b1d565b5b6009811115620008c257620008c162000b1d565b5b81526020019081526020016000209080519060200190620008e5929190620009fb565b506040518060400160405280600481526020017f7061726b00000000000000000000000000000000000000000000000000000000815250600260006008600981111562000937576200093662000b1d565b5b60098111156200094c576200094b62000b1d565b5b815260200190815260200160002090805190602001906200096f929190620009fb565b506040518060400160405280600381526020017f67796d000000000000000000000000000000000000000000000000000000000081525060026000600980811115620009c057620009bf62000b1d565b5b6009811115620009d557620009d462000b1d565b5b81526020019081526020016000209080519060200190620009f8929190620009fb565b50565b82805462000a099062000f1a565b90600052602060002090601f01602090048101928262000a2d576000855562000a79565b82601f1062000a4857805160ff191683800117855562000a79565b8280016001018555821562000a79579182015b8281111562000a7857825182559160200191906001019062000a5b565b5b50905062000a88919062000a8c565b5090565b5b8082111562000aa757600081600090555060010162000a8d565b5090565b600081905092915050565b7f666163746f727900000000000000000000000000000000000000000000000000600082015250565b600062000aee60078362000aab565b915062000afb8262000ab6565b600782019050919050565b600062000b138262000adf565b9150819050919050565b7f4e487b7100000000000000000000000000000000000000000000000000000000600052602160045260246000fd5b7f6f66666963650000000000000000000000000000000000000000000000000000600082015250565b600062000b8460068362000aab565b915062000b918262000b4c565b600682019050919050565b600062000ba98262000b75565b9150819050919050565b7f72657374617572616e7400000000000000000000000000000000000000000000600082015250565b600062000beb600a8362000aab565b915062000bf88262000bb3565b600a82019050919050565b600062000c108262000bdc565b9150819050919050565b7f7061726b696e6700000000000000000000000000000000000000000000000000600082015250565b600062000c5260078362000aab565b915062000c5f8262000c1a565b600782019050919050565b600062000c778262000c43565b9150819050919050565b7f6275696c64696e67000000000000000000000000000000000000000000000000600082015250565b600062000cb960088362000aab565b915062000cc68262000c81565b600882019050919050565b600062000cde8262000caa565b9150819050919050565b7f686f757365000000000000000000000000000000000000000000000000000000600082015250565b600062000d2060058362000aab565b915062000d2d8262000ce8565b600582019050919050565b600062000d458262000d11565b9150819050919050565b7f73746f7265000000000000000000000000000000000000000000000000000000600082015250565b600062000d8760058362000aab565b915062000d948262000d4f565b600582019050919050565b600062000dac8262000d78565b9150819050919050565b7f73757065724d61726b6574000000000000000000000000000000000000000000600082015250565b600062000dee600b8362000aab565b915062000dfb8262000db6565b600b82019050919050565b600062000e138262000ddf565b9150819050919050565b7f7061726b00000000000000000000000000000000000000000000000000000000600082015250565b600062000e5560048362000aab565b915062000e628262000e1d565b600482019050919050565b600062000e7a8262000e46565b9150819050919050565b7f67796d0000000000000000000000000000000000000000000000000000000000600082015250565b600062000ebc60038362000aab565b915062000ec98262000e84565b600382019050919050565b600062000ee18262000ead565b9150819050919050565b7f4e487b7100000000000000000000000000000000000000000000000000000000600052602260045260246000fd5b6000600282049050600182168062000f3357607f821691505b6020821081141562000f4a5762000f4962000eeb565b5b50919050565b6136608062000f606000396000f3fe608060405234801561001057600080fd5b50600436106101005760003560e01c80638579151011610097578063cc6ebc8b11610066578063cc6ebc8b14610261578063d15fe61b1461027d578063f2fde38b14610299578063ff2a289c146102b557610100565b806385791510146101db5780638da5cb5b146101f75780638f28397014610215578063ca8c34621461023157610100565b80634920f906116100d35780634920f9061461018b57806368f9e312146101a95780636d5dcb2b146101c7578063715018a6146101d157610100565b8063236575141461010557806330bbe71b1461010f5780633262fd9a1461013f578063413798471461016f575b600080fd5b61010d6102d1565b005b61012960048036038101906101249190612313565b610379565b604051610136919061234f565b60405180910390f35b61015960048036038101906101549190612313565b6103a6565b604051610166919061234f565b60405180910390f35b6101896004803603810190610184919061236a565b6103e4565b005b6101936106c9565b6040516101a09190612427565b60405180910390f35b6101b16106e0565b6040516101be919061234f565b60405180910390f35b6101cf6106e8565b005b6101d96108bd565b005b6101f560048036038101906101f09190612313565b610945565b005b6101ff610bdf565b60405161020c9190612483565b60405180910390f35b61022f600480360381019061022a91906124ca565b610c08565b005b61024b60048036038101906102469190612313565b610cc8565b6040516102589190612846565b60405180910390f35b61027b60048036038101906102769190612868565b611481565b005b61029760048036038101906102929190612920565b611646565b005b6102b360048036038101906102ae91906124ca565b6119a2565b005b6102cf60048036038101906102ca9190612cb6565b611a9a565b005b6102d9612186565b73ffffffffffffffffffffffffffffffffffffffff166102f7610bdf565b73ffffffffffffffffffffffffffffffffffffffff161461034d576040517f08c379a000000000000000000000000000000000000000000000000000000000815260040161034490612eaf565b60405180910390fd5b600560149054906101000a900460ff1615600560146101000a81548160ff021916908315150217905550565b6000600654600860008481526020019081526020016000206004015461039f9190612efe565b9050919050565b60006008600083815260200190815260200160002060020160109054906101000a900467ffffffffffffffff1667ffffffffffffffff169050919050565b600560009054906101000a900473ffffffffffffffffffffffffffffffffffffffff1673ffffffffffffffffffffffffffffffffffffffff163373ffffffffffffffffffffffffffffffffffffffff1614610474576040517f08c379a000000000000000000000000000000000000000000000000000000000815260040161046b90612fa4565b60405180910390fd5b60011515600560149054906101000a900460ff161515146104ca576040517f08c379a00000000000000000000000000000000000000000000000000000000081526004016104c190613036565b60405180910390fd5b60006008600089815260200190815260200160002090506040518060a001604052808363ffffffff1681526020018763ffffffff1681526020018663ffffffff1681526020018563ffffffff1681526020018463ffffffff168152508160010160008360020160089054906101000a900467ffffffffffffffff1667ffffffffffffffff16815260200190815260200160002060008201518160000160006101000a81548163ffffffff021916908363ffffffff16021790555060208201518160000160046101000a81548163ffffffff021916908363ffffffff16021790555060408201518160000160086101000a81548163ffffffff021916908363ffffffff160217905550606082015181600001600c6101000a81548163ffffffff021916908363ffffffff16021790555060808201518160000160106101000a81548163ffffffff021916908363ffffffff16021790555090505060018160020160088282829054906101000a900467ffffffffffffffff1661064b919061306a565b92506101000a81548167ffffffffffffffff021916908367ffffffffffffffff160217905550868160020160109054906101000a900467ffffffffffffffff1661069591906130a8565b8160020160106101000a81548167ffffffffffffffff021916908367ffffffffffffffff1602179055505050505050505050565b6000600560149054906101000a900460ff16905090565b600042905090565b600560009054906101000a900473ffffffffffffffffffffffffffffffffffffffff1673ffffffffffffffffffffffffffffffffffffffff163373ffffffffffffffffffffffffffffffffffffffff1614610778576040517f08c379a000000000000000000000000000000000000000000000000000000000815260040161076f90612fa4565b60405180910390fd5b60011515600560149054906101000a900460ff161515146107ce576040517f08c379a00000000000000000000000000000000000000000000000000000000081526004016107c590613036565b60405180910390fd5b637735940060065414610816576040517f08c379a000000000000000000000000000000000000000000000000000000000815260040161080d90613128565b60405180910390fd5b4260068190555060005b600073ffffffffffffffffffffffffffffffffffffffff166008600083815260200190815260200160002060030160009054906101000a900473ffffffffffffffffffffffffffffffffffffffff1673ffffffffffffffffffffffffffffffffffffffff16146108ba57600654600860008381526020019081526020016000206004018190555080806108b290613148565b915050610820565b50565b6108c5612186565b73ffffffffffffffffffffffffffffffffffffffff166108e3610bdf565b73ffffffffffffffffffffffffffffffffffffffff1614610939576040517f08c379a000000000000000000000000000000000000000000000000000000000815260040161093090612eaf565b60405180910390fd5b610943600061218e565b565b600560009054906101000a900473ffffffffffffffffffffffffffffffffffffffff1673ffffffffffffffffffffffffffffffffffffffff163373ffffffffffffffffffffffffffffffffffffffff16146109d5576040517f08c379a00000000000000000000000000000000000000000000000000000000081526004016109cc90612fa4565b60405180910390fd5b60011515600560149054906101000a900460ff16151514610a2b576040517f08c379a0000000000000000000000000000000000000000000000000000000008152600401610a2290613036565b60405180910390fd5b6006544211610a6f576040517f08c379a0000000000000000000000000000000000000000000000000000000008152600401610a66906131dd565b60405180910390fd5b600754600860008381526020019081526020016000206004015442610a949190612efe565b11610ad4576040517f08c379a0000000000000000000000000000000000000000000000000000000008152600401610acb90613249565b60405180910390fd5b6000600754600860008481526020019081526020016000206004015442610afb9190612efe565b610b059190613298565b90506008600083815260200190815260200160002060020160189054906101000a900467ffffffffffffffff1681610b3d91906132c9565b6008600084815260200190815260200160002060020160108282829054906101000a900467ffffffffffffffff16610b75919061306a565b92506101000a81548167ffffffffffffffff021916908367ffffffffffffffff16021790555060075460065442610bac9190612efe565b610bb6919061330b565b42610bc19190612efe565b60086000848152602001908152602001600020600401819055505050565b60008060009054906101000a900473ffffffffffffffffffffffffffffffffffffffff16905090565b610c10612186565b73ffffffffffffffffffffffffffffffffffffffff16610c2e610bdf565b73ffffffffffffffffffffffffffffffffffffffff1614610c84576040517f08c379a0000000000000000000000000000000000000000000000000000000008152600401610c7b90612eaf565b60405180910390fd5b80600560006101000a81548173ffffffffffffffffffffffffffffffffffffffff021916908373ffffffffffffffffffffffffffffffffffffffff16021790555050565b610cd0612252565b600060086000848152602001908152602001600020905060008160030160009054906101000a900473ffffffffffffffffffffffffffffffffffffffff16905060008260020160009054906101000a900467ffffffffffffffff1667ffffffffffffffff16905060008360020160089054906101000a900467ffffffffffffffff1667ffffffffffffffff16905060008183610d6c919061333c565b67ffffffffffffffff811115610d8557610d846129e2565b5b604051908082528060200260200182016040528015610db35781602001602082028036833780820191505090505b50905060008284610dc4919061333c565b67ffffffffffffffff811115610ddd57610ddc6129e2565b5b604051908082528060200260200182016040528015610e0b5781602001602082028036833780820191505090505b50905060008385610e1c919061333c565b67ffffffffffffffff811115610e3557610e346129e2565b5b604051908082528060200260200182016040528015610e635781602001602082028036833780820191505090505b50905060008486610e74919061333c565b67ffffffffffffffff811115610e8d57610e8c6129e2565b5b604051908082528060200260200182016040528015610ebb5781602001602082028036833780820191505090505b50905060008667ffffffffffffffff811115610eda57610ed96129e2565b5b604051908082528060200260200182016040528015610f0d57816020015b6060815260200190600190039081610ef85790505b50905060008667ffffffffffffffff811115610f2c57610f2b6129e2565b5b604051908082528060200260200182016040528015610f5a5781602001602082028036833780820191505090505b509050600080600080600090505b8b8110156111be578d600001600082815260200190815260200160002060000160019054906101000a900463ffffffff1663ffffffff168a8281518110610fb257610fb1613392565b5b6020026020010181815250508d600001600082815260200190815260200160002060000160059054906101000a900463ffffffff1663ffffffff1689828151811061100057610fff613392565b5b6020026020010181815250508d600001600082815260200190815260200160002060000160099054906101000a900463ffffffff1663ffffffff1688828151811061104e5761104d613392565b5b6020026020010181815250508d6000016000828152602001908152602001600020600001600d9054906101000a900463ffffffff1663ffffffff1687828151811061109c5761109b613392565b5b602002602001018181525050600260008f600001600084815260200190815260200160002060000160009054906101000a900460ff1660098111156110e4576110e36133c1565b5b60098111156110f6576110f56133c1565b5b8152602001908152602001600020805461110f9061341f565b80601f016020809104026020016040519081016040528092919081815260200182805461113b9061341f565b80156111885780601f1061115d57610100808354040283529160200191611188565b820191906000526020600020905b81548152906001019060200180831161116b57829003601f168201915b50505050508682815181106111a05761119f613392565b5b602002602001018190525080806111b690613148565b915050610f68565b5060008b90505b8b8b6111d1919061333c565b8110156113b3578d60010160008d836111ea9190612efe565b815260200190815260200160002060000160049054906101000a900463ffffffff1663ffffffff168a828151811061122557611224613392565b5b6020026020010181815250508d60010160008d836112439190612efe565b815260200190815260200160002060000160089054906101000a900463ffffffff1663ffffffff1689828151811061127e5761127d613392565b5b6020026020010181815250508d60010160008d8361129c9190612efe565b8152602001908152602001600020600001600c9054906101000a900463ffffffff1663ffffffff168882815181106112d7576112d6613392565b5b6020026020010181815250508d60010160008d836112f59190612efe565b815260200190815260200160002060000160109054906101000a900463ffffffff1663ffffffff168782815181106113305761132f613392565b5b6020026020010181815250508d60010160008d8361134e9190612efe565b815260200190815260200160002060000160009054906101000a900463ffffffff1663ffffffff16858d836113839190612efe565b8151811061139457611393613392565b5b60200260200101818152505080806113ab90613148565b9150506111c5565b508c60020160189054906101000a900467ffffffffffffffff1667ffffffffffffffff1691508c60020160109054906101000a900467ffffffffffffffff1667ffffffffffffffff1692508c6004015490506040518061018001604052808d73ffffffffffffffffffffffffffffffffffffffff1681526020018c81526020018b81526020018a8152602001898152602001888152602001878152602001868152602001858152602001848152602001838152602001828152509d5050505050505050505050505050919050565b600560009054906101000a900473ffffffffffffffffffffffffffffffffffffffff1673ffffffffffffffffffffffffffffffffffffffff163373ffffffffffffffffffffffffffffffffffffffff1614611511576040517f08c379a000000000000000000000000000000000000000000000000000000000815260040161150890612fa4565b60405180910390fd5b60011515600560149054906101000a900460ff16151514611567576040517f08c379a000000000000000000000000000000000000000000000000000000000815260040161155e90613036565b60405180910390fd5b600160086000858152602001908152602001600020600001600083815260200190815260200160002060000160118282829054906101000a900463ffffffff166115b19190613461565b92506101000a81548163ffffffff021916908363ffffffff160217905550816008600085815260200190815260200160002060020160109054906101000a900467ffffffffffffffff1661160591906130a8565b6008600085815260200190815260200160002060020160106101000a81548167ffffffffffffffff021916908367ffffffffffffffff160217905550505050565b600560009054906101000a900473ffffffffffffffffffffffffffffffffffffffff1673ffffffffffffffffffffffffffffffffffffffff163373ffffffffffffffffffffffffffffffffffffffff16146116d6576040517f08c379a00000000000000000000000000000000000000000000000000000000081526004016116cd90612fa4565b60405180910390fd5b60011515600560149054906101000a900460ff1615151461172c576040517f08c379a000000000000000000000000000000000000000000000000000000000815260040161172390613036565b60405180910390fd5b6000600860008a815260200190815260200160002090506040518060c00160405280600185856040516117609291906134cb565b908152602001604051809103902060009054906101000a900460ff16600981111561178e5761178d6133c1565b5b81526020018863ffffffff1681526020018763ffffffff1681526020018663ffffffff1681526020018563ffffffff168152602001600063ffffffff168152508160000160008360020160009054906101000a900467ffffffffffffffff1667ffffffffffffffff16815260200190815260200160002060008201518160000160006101000a81548160ff021916908360098111156118305761182f6133c1565b5b021790555060208201518160000160016101000a81548163ffffffff021916908363ffffffff16021790555060408201518160000160056101000a81548163ffffffff021916908363ffffffff16021790555060608201518160000160096101000a81548163ffffffff021916908363ffffffff160217905550608082015181600001600d6101000a81548163ffffffff021916908363ffffffff16021790555060a08201518160000160116101000a81548163ffffffff021916908363ffffffff16021790555090505060018160020160008282829054906101000a900467ffffffffffffffff16611923919061306a565b92506101000a81548167ffffffffffffffff021916908367ffffffffffffffff160217905550878160020160109054906101000a900467ffffffffffffffff1661196d91906130a8565b8160020160106101000a81548167ffffffffffffffff021916908367ffffffffffffffff160217905550505050505050505050565b6119aa612186565b73ffffffffffffffffffffffffffffffffffffffff166119c8610bdf565b73ffffffffffffffffffffffffffffffffffffffff1614611a1e576040517f08c379a0000000000000000000000000000000000000000000000000000000008152600401611a1590612eaf565b60405180910390fd5b600073ffffffffffffffffffffffffffffffffffffffff168173ffffffffffffffffffffffffffffffffffffffff161415611a8e576040517f08c379a0000000000000000000000000000000000000000000000000000000008152600401611a8590613556565b60405180910390fd5b611a978161218e565b50565b600560009054906101000a900473ffffffffffffffffffffffffffffffffffffffff1673ffffffffffffffffffffffffffffffffffffffff163373ffffffffffffffffffffffffffffffffffffffff1614611b2a576040517f08c379a0000000000000000000000000000000000000000000000000000000008152600401611b2190612fa4565b60405180910390fd5b60011515600560149054906101000a900460ff16151514611b80576040517f08c379a0000000000000000000000000000000000000000000000000000000008152600401611b7790613036565b60405180910390fd5b600073ffffffffffffffffffffffffffffffffffffffff16600860008c815260200190815260200160002060030160009054906101000a900473ffffffffffffffffffffffffffffffffffffffff1673ffffffffffffffffffffffffffffffffffffffff1614611c25576040517f08c379a0000000000000000000000000000000000000000000000000000000008152600401611c1c906135c2565b60405180910390fd5b6000600860008c8152602001908152602001600020905060005b8a811015611e2357888181518110611c5a57611c59613392565b5b602002602001015182600001600083815260200190815260200160002060000160016101000a81548163ffffffff021916908363ffffffff160217905550878181518110611cab57611caa613392565b5b602002602001015182600001600083815260200190815260200160002060000160056101000a81548163ffffffff021916908363ffffffff160217905550868181518110611cfc57611cfb613392565b5b602002602001015182600001600083815260200190815260200160002060000160096101000a81548163ffffffff021916908363ffffffff160217905550858181518110611d4d57611d4c613392565b5b6020026020010151826000016000838152602001908152602001600020600001600d6101000a81548163ffffffff021916908363ffffffff1602179055506001858281518110611da057611d9f613392565b5b6020026020010151604051611db59190613613565b908152602001604051809103902060009054906101000a900460ff1682600001600083815260200190815260200160002060000160006101000a81548160ff02191690836009811115611e0b57611e0a6133c1565b5b02179055508080611e1b90613148565b915050611c3f565b5060008a90505b8a8a611e36919061333c565b81101561202757888181518110611e5057611e4f613392565b5b60200260200101518260010160008d84611e6a9190612efe565b815260200190815260200160002060000160046101000a81548163ffffffff021916908363ffffffff160217905550878181518110611eac57611eab613392565b5b60200260200101518260010160008d84611ec69190612efe565b815260200190815260200160002060000160086101000a81548163ffffffff021916908363ffffffff160217905550868181518110611f0857611f07613392565b5b60200260200101518260010160008d84611f229190612efe565b8152602001908152602001600020600001600c6101000a81548163ffffffff021916908363ffffffff160217905550858181518110611f6457611f63613392565b5b60200260200101518260010160008d84611f7e9190612efe565b815260200190815260200160002060000160106101000a81548163ffffffff021916908363ffffffff160217905550838b82611fba9190612efe565b81518110611fcb57611fca613392565b5b60200260200101518260010160008d84611fe59190612efe565b815260200190815260200160002060000160006101000a81548163ffffffff021916908363ffffffff160217905550808061201f90613148565b915050611e2a565b50898160020160006101000a81548167ffffffffffffffff021916908367ffffffffffffffff160217905550888160020160086101000a81548167ffffffffffffffff021916908367ffffffffffffffff160217905550818160020160186101000a81548167ffffffffffffffff021916908367ffffffffffffffff160217905550600960009054906101000a900467ffffffffffffffff168160020160106101000a81548167ffffffffffffffff021916908367ffffffffffffffff1602179055508b8160030160006101000a81548173ffffffffffffffffffffffffffffffffffffffff021916908373ffffffffffffffffffffffffffffffffffffffff16021790555063773594006006541461216d576007546006544261214b9190612efe565b612155919061330b565b426121609190612efe565b8160040181905550612178565b600081600401819055505b505050505050505050505050565b600033905090565b60008060009054906101000a900473ffffffffffffffffffffffffffffffffffffffff169050816000806101000a81548173ffffffffffffffffffffffffffffffffffffffff021916908373ffffffffffffffffffffffffffffffffffffffff1602179055508173ffffffffffffffffffffffffffffffffffffffff168173ffffffffffffffffffffffffffffffffffffffff167f8be0079c531659141344cd1fd0a4f28419497f9722a3daafe3b4186f6b6457e060405160405180910390a35050565b604051806101800160405280600073ffffffffffffffffffffffffffffffffffffffff16815260200160008152602001600081526020016060815260200160608152602001606081526020016060815260200160608152602001606081526020016000815260200160008152602001600081525090565b6000604051905090565b600080fd5b600080fd5b6000819050919050565b6122f0816122dd565b81146122fb57600080fd5b50565b60008135905061230d816122e7565b92915050565b600060208284031215612329576123286122d3565b5b6000612337848285016122fe565b91505092915050565b612349816122dd565b82525050565b60006020820190506123646000830184612340565b92915050565b600080600080600080600060e0888a031215612389576123886122d3565b5b60006123978a828b016122fe565b97505060206123a88a828b016122fe565b96505060406123b98a828b016122fe565b95505060606123ca8a828b016122fe565b94505060806123db8a828b016122fe565b93505060a06123ec8a828b016122fe565b92505060c06123fd8a828b016122fe565b91505092959891949750929550565b60008115159050919050565b6124218161240c565b82525050565b600060208201905061243c6000830184612418565b92915050565b600073ffffffffffffffffffffffffffffffffffffffff82169050919050565b600061246d82612442565b9050919050565b61247d81612462565b82525050565b60006020820190506124986000830184612474565b92915050565b6124a781612462565b81146124b257600080fd5b50565b6000813590506124c48161249e565b92915050565b6000602082840312156124e0576124df6122d3565b5b60006124ee848285016124b5565b91505092915050565b61250081612462565b82525050565b61250f816122dd565b82525050565b600081519050919050565b600082825260208201905092915050565b6000819050602082019050919050565b600061254d8383612506565b60208301905092915050565b6000602082019050919050565b600061257182612515565b61257b8185612520565b935061258683612531565b8060005b838110156125b757815161259e8882612541565b97506125a983612559565b92505060018101905061258a565b5085935050505092915050565b600081519050919050565b600082825260208201905092915050565b6000819050602082019050919050565b600081519050919050565b600082825260208201905092915050565b60005b8381101561262a57808201518184015260208101905061260f565b83811115612639576000848401525b50505050565b6000601f19601f8301169050919050565b600061265b826125f0565b61266581856125fb565b935061267581856020860161260c565b61267e8161263f565b840191505092915050565b60006126958383612650565b905092915050565b6000602082019050919050565b60006126b5826125c4565b6126bf81856125cf565b9350836020820285016126d1856125e0565b8060005b8581101561270d57848403895281516126ee8582612689565b94506126f98361269d565b925060208a019950506001810190506126d5565b50829750879550505050505092915050565b60006101808301600083015161273860008601826124f7565b50602083015161274b6020860182612506565b50604083015161275e6040860182612506565b50606083015184820360608601526127768282612566565b915050608083015184820360808601526127908282612566565b91505060a083015184820360a08601526127aa8282612566565b91505060c083015184820360c08601526127c48282612566565b91505060e083015184820360e08601526127de82826126aa565b9150506101008301518482036101008601526127fa8282612566565b915050610120830151612811610120860182612506565b50610140830151612826610140860182612506565b5061016083015161283b610160860182612506565b508091505092915050565b60006020820190508181036000830152612860818461271f565b905092915050565b600080600060608486031215612881576128806122d3565b5b600061288f868287016122fe565b93505060206128a0868287016122fe565b92505060406128b1868287016122fe565b9150509250925092565b600080fd5b600080fd5b600080fd5b60008083601f8401126128e0576128df6128bb565b5b8235905067ffffffffffffffff8111156128fd576128fc6128c0565b5b602083019150836001820283011115612919576129186128c5565b5b9250929050565b60008060008060008060008060e0898b0312156129405761293f6122d3565b5b600061294e8b828c016122fe565b985050602061295f8b828c016122fe565b97505060406129708b828c016122fe565b96505060606129818b828c016122fe565b95505060806129928b828c016122fe565b94505060a06129a38b828c016122fe565b93505060c089013567ffffffffffffffff8111156129c4576129c36122d8565b5b6129d08b828c016128ca565b92509250509295985092959890939650565b7f4e487b7100000000000000000000000000000000000000000000000000000000600052604160045260246000fd5b612a1a8261263f565b810181811067ffffffffffffffff82111715612a3957612a386129e2565b5b80604052505050565b6000612a4c6122c9565b9050612a588282612a11565b919050565b600067ffffffffffffffff821115612a7857612a776129e2565b5b602082029050602081019050919050565b6000612a9c612a9784612a5d565b612a42565b90508083825260208201905060208402830185811115612abf57612abe6128c5565b5b835b81811015612ae85780612ad488826122fe565b845260208401935050602081019050612ac1565b5050509392505050565b600082601f830112612b0757612b066128bb565b5b8135612b17848260208601612a89565b91505092915050565b600067ffffffffffffffff821115612b3b57612b3a6129e2565b5b602082029050602081019050919050565b600080fd5b600067ffffffffffffffff821115612b6c57612b6b6129e2565b5b612b758261263f565b9050602081019050919050565b82818337600083830152505050565b6000612ba4612b9f84612b51565b612a42565b905082815260208101848484011115612bc057612bbf612b4c565b5b612bcb848285612b82565b509392505050565b600082601f830112612be857612be76128bb565b5b8135612bf8848260208601612b91565b91505092915050565b6000612c14612c0f84612b20565b612a42565b90508083825260208201905060208402830185811115612c3757612c366128c5565b5b835b81811015612c7e57803567ffffffffffffffff811115612c5c57612c5b6128bb565b5b808601612c698982612bd3565b85526020850194505050602081019050612c39565b5050509392505050565b600082601f830112612c9d57612c9c6128bb565b5b8135612cad848260208601612c01565b91505092915050565b60008060008060008060008060008060006101608c8e031215612cdc57612cdb6122d3565b5b6000612cea8e828f016124b5565b9b50506020612cfb8e828f016122fe565b9a50506040612d0c8e828f016122fe565b9950506060612d1d8e828f016122fe565b98505060808c013567ffffffffffffffff811115612d3e57612d3d6122d8565b5b612d4a8e828f01612af2565b97505060a08c013567ffffffffffffffff811115612d6b57612d6a6122d8565b5b612d778e828f01612af2565b96505060c08c013567ffffffffffffffff811115612d9857612d976122d8565b5b612da48e828f01612af2565b95505060e08c013567ffffffffffffffff811115612dc557612dc46122d8565b5b612dd18e828f01612af2565b9450506101008c013567ffffffffffffffff811115612df357612df26122d8565b5b612dff8e828f01612c88565b9350506101208c013567ffffffffffffffff811115612e2157612e206122d8565b5b612e2d8e828f01612af2565b925050610140612e3f8e828f016122fe565b9150509295989b509295989b9093969950565b600082825260208201905092915050565b7f4f776e61626c653a2063616c6c6572206973206e6f7420746865206f776e6572600082015250565b6000612e99602083612e52565b9150612ea482612e63565b602082019050919050565b60006020820190508181036000830152612ec881612e8c565b9050919050565b7f4e487b7100000000000000000000000000000000000000000000000000000000600052601160045260246000fd5b6000612f09826122dd565b9150612f14836122dd565b925082821015612f2757612f26612ecf565b5b828203905092915050565b7f5468652063616c6c6572206f66207468652066756e6374696f6e206973206e6f60008201527f742061646d696e00000000000000000000000000000000000000000000000000602082015250565b6000612f8e602783612e52565b9150612f9982612f32565b604082019050919050565b60006020820190508181036000830152612fbd81612f81565b9050919050565b7f54686520626c6f636b636861696e2064617461626173652063616e206e6f742060008201527f62652065646974656420617420746865206d6f6d656e74000000000000000000602082015250565b6000613020603783612e52565b915061302b82612fc4565b604082019050919050565b6000602082019050818103600083015261304f81613013565b9050919050565b600067ffffffffffffffff82169050919050565b600061307582613056565b915061308083613056565b92508267ffffffffffffffff0382111561309d5761309c612ecf565b5b828201905092915050565b60006130b382613056565b91506130be83613056565b9250828210156130d1576130d0612ecf565b5b828203905092915050565b7f47616d652077617320616c726561647920737461727465640000000000000000600082015250565b6000613112601883612e52565b915061311d826130dc565b602082019050919050565b6000602082019050818103600083015261314181613105565b9050919050565b6000613153826122dd565b91507fffffffffffffffffffffffffffffffffffffffffffffffffffffffffffffffff82141561318657613185612ecf565b5b600182019050919050565b7f47616d6520646964206e6f74207374617274207965742e000000000000000000600082015250565b60006131c7601783612e52565b91506131d282613191565b602082019050919050565b600060208201905081810360008301526131f6816131ba565b9050919050565b7f43616e27742067657420696e636f6d65207965742e0000000000000000000000600082015250565b6000613233601583612e52565b915061323e826131fd565b602082019050919050565b6000602082019050818103600083015261326281613226565b9050919050565b7f4e487b7100000000000000000000000000000000000000000000000000000000600052601260045260246000fd5b60006132a3826122dd565b91506132ae836122dd565b9250826132be576132bd613269565b5b828204905092915050565b60006132d482613056565b91506132df83613056565b92508167ffffffffffffffff0483118215151615613300576132ff612ecf565b5b828202905092915050565b6000613316826122dd565b9150613321836122dd565b92508261333157613330613269565b5b828206905092915050565b6000613347826122dd565b9150613352836122dd565b9250827fffffffffffffffffffffffffffffffffffffffffffffffffffffffffffffffff0382111561338757613386612ecf565b5b828201905092915050565b7f4e487b7100000000000000000000000000000000000000000000000000000000600052603260045260246000fd5b7f4e487b7100000000000000000000000000000000000000000000000000000000600052602160045260246000fd5b7f4e487b7100000000000000000000000000000000000000000000000000000000600052602260045260246000fd5b6000600282049050600182168061343757607f821691505b6020821081141561344b5761344a6133f0565b5b50919050565b600063ffffffff82169050919050565b600061346c82613451565b915061347783613451565b92508263ffffffff038211156134905761348f612ecf565b5b828201905092915050565b600081905092915050565b60006134b2838561349b565b93506134bf838584612b82565b82840190509392505050565b60006134d88284866134a6565b91508190509392505050565b7f4f776e61626c653a206e6577206f776e657220697320746865207a65726f206160008201527f6464726573730000000000000000000000000000000000000000000000000000602082015250565b6000613540602683612e52565b915061354b826134e4565b604082019050919050565b6000602082019050818103600083015261356f81613533565b9050919050565b7f4369747920697320616c726561647920696e697469616c697a65640000000000600082015250565b60006135ac601b83612e52565b91506135b782613576565b602082019050919050565b600060208201905081810360008301526135db8161359f565b9050919050565b60006135ed826125f0565b6135f7818561349b565b935061360781856020860161260c565b80840191505092915050565b600061361f82846135e2565b91508190509291505056fea2646970667358221220ab049185524849b07322810a05b34c608c4a0340b29389cfbd0e93f1a215325b64736f6c634300080b0033",
  "immutableReferences": {},
  "source": "// SPDX-License-Identifier: MIT\r\npragma solidity ^0.8.11;\r\n\r\nimport \"../node_modules/@openzeppelin/contracts/access/Ownable.sol\";\r\n\r\n// there are no checks if the request are valid or possible, it should be done in the backend.\r\n// maybe later it will be added here too, but for now it is not necessary since only the admin can call the functions\r\n\r\ncontract Gameplay is Ownable {\r\n\r\n    constructor() {\r\n        initStringToType();\r\n        admin = msg.sender; // this should later be passed in as an argument to the contructor\r\n    }\r\n\r\n    // ________________________________________________________________________\r\n    enum BuildingTypes {\r\n        Factory,\r\n        Office,\r\n        Restaurant,\r\n        Parking,\r\n        Building,\r\n        House,\r\n        Store,\r\n        SuperMarket,\r\n        Park,\r\n        Gym\r\n    }\r\n\r\n    mapping(string => BuildingTypes) stringToType;\r\n    mapping(BuildingTypes => string) typeToString;\r\n    uint numOfBuildingTypes = 10;\r\n    function initStringToType() private {\r\n        stringToType[\"factory\"] = BuildingTypes.Factory;\r\n        stringToType[\"office\"] = BuildingTypes.Office;\r\n        stringToType[\"restaurant\"] = BuildingTypes.Restaurant;\r\n        stringToType[\"parking\"] = BuildingTypes.Parking;\r\n        stringToType[\"building\"] = BuildingTypes.Building;\r\n        stringToType[\"house\"] = BuildingTypes.House;\r\n        stringToType[\"store\"] = BuildingTypes.Store;\r\n        stringToType[\"superMarket\"] = BuildingTypes.SuperMarket;\r\n        stringToType[\"park\"] = BuildingTypes.Park;\r\n        stringToType[\"gym\"] = BuildingTypes.Gym;\r\n\r\n        typeToString[BuildingTypes.Factory] = \"factory\";\r\n        typeToString[BuildingTypes.Office] = \"office\";\r\n        typeToString[BuildingTypes.Restaurant] = \"restaurant\";\r\n        typeToString[BuildingTypes.Parking] = \"parking\";\r\n        typeToString[BuildingTypes.Building] = \"building\";\r\n        typeToString[BuildingTypes.House] = \"house\";\r\n        typeToString[BuildingTypes.Store] = \"store\";\r\n        typeToString[BuildingTypes.SuperMarket] = \"superMarket\";\r\n        typeToString[BuildingTypes.Park] = \"park\";\r\n        typeToString[BuildingTypes.Gym] = \"gym\";\r\n    }\r\n    \r\n    struct Building {\r\n        BuildingTypes buildingType;\r\n        uint32 startx;\r\n        uint32 starty;\r\n        uint32 endx;\r\n        uint32 endy;\r\n        uint32 level;\r\n    } // occupies 1 block of 256 bytes\r\n\r\n    struct SpecialBuilding {\r\n        uint32 specialType;\r\n        uint32 startx;\r\n        uint32 starty;\r\n        uint32 endx;\r\n        uint32 endy;\r\n    } // occupies 1 block of 256 bytes\r\n\r\n    struct City {\r\n        mapping(uint => Building) buildingList;\r\n        mapping(uint => SpecialBuilding) specialBuildingList;\r\n        uint64 numOfBuildings;\r\n        uint64 numOfSpecialBuildings;\r\n        uint64 money;\r\n        uint64 income;\r\n        address owner;\r\n        uint lastPay;\r\n    } // occupies ( 2 + numOfBuildings + numOfSpecialBuildings ) blocks of 256 bytes in total\r\n    // ________________________________________________________________________\r\n\r\n    uint MAX_CITIES = 10000; // max num of cities to be minted\r\n\r\n    address admin;\r\n    bool editable = true;\r\n    uint gameStart = 2000000000;\r\n    uint payPeriod = 120; // 1 day = 86400\r\n\r\n    mapping(uint => City) cities; // map (array) containing all the data about the City NFTs\r\n    uint64 startingMoney = 100000; // the amount of in-game money everyone has right after minting\r\n\r\n    // ________________________________________________________________________\r\n    /**\r\n     * @dev Function used for minting new City NFTs\r\n     * @param tokenId index of the token being initialized\r\n     * @param numOfBuildings number of buildings in the city\r\n     * @param numOfSpecialBuildings number of special buildings in the city\r\n     * @param startx arrays of coordinates for both types of buildings\r\n     * @param starty ...\r\n     * @param endx ...\r\n     * @param endy ...\r\n     * @param buildingType array of strings representing the buildingTypes\r\n     * @param specialType uint array representing the types of the special buildings\r\n     * @param income the calculated income for the city\r\n     */\r\n    function initializeCity(\r\n        address owner,\r\n        uint tokenId,\r\n        uint numOfBuildings,\r\n        uint numOfSpecialBuildings,\r\n        uint[] memory startx,\r\n        uint[] memory starty,\r\n        uint[] memory endx,\r\n        uint[] memory endy,\r\n        string[] memory buildingType,\r\n        uint[] memory specialType,\r\n        uint income\r\n    ) external onlyAdmin isEditable {\r\n        require(cities[tokenId].owner == address(0), \"City is already initialized\");\r\n        \r\n        City storage city = cities[tokenId];\r\n        for(uint i = 0; i < numOfBuildings; i++) {\r\n            city.buildingList[i].startx = uint32(startx[i]);\r\n            city.buildingList[i].starty = uint32(starty[i]);\r\n            city.buildingList[i].endx = uint32(endx[i]);\r\n            city.buildingList[i].endy = uint32(endy[i]);\r\n            city.buildingList[i].buildingType = stringToType[buildingType[i]];\r\n        }\r\n        for(uint i = numOfBuildings; i < numOfSpecialBuildings + numOfBuildings; i++) {\r\n            city.specialBuildingList[i-numOfBuildings].startx = uint32(startx[i]);\r\n            city.specialBuildingList[i-numOfBuildings].starty = uint32(starty[i]);\r\n            city.specialBuildingList[i-numOfBuildings].endx = uint32(endx[i]);\r\n            city.specialBuildingList[i-numOfBuildings].endy = uint32(endy[i]);\r\n            city.specialBuildingList[i-numOfBuildings].specialType = uint32(specialType[i-numOfBuildings]);\r\n        }\r\n        city.numOfBuildings = uint64(numOfBuildings);\r\n        city.numOfSpecialBuildings = uint64(numOfSpecialBuildings);\r\n        city.income = uint64(income);\r\n        city.money = startingMoney;\r\n        city.owner = owner;\r\n        if(gameStart != 2000000000) city.lastPay = block.timestamp - ((block.timestamp - gameStart) % payPeriod);\r\n        else city.lastPay = 0;\r\n    }\r\n    \r\n    // ________________________________________________________________________\r\n    // functions that change the cities:\r\n    function upgradeBuilding(uint tokenId, uint price, uint buildingIndex) external onlyAdmin isEditable {\r\n        cities[tokenId].buildingList[buildingIndex].level += 1;\r\n        cities[tokenId].money = cities[tokenId].money - uint64(price);\r\n    }\r\n\r\n    function addBuilding(\r\n        uint tokenId,\r\n        uint price,\r\n        uint _startx,\r\n        uint _starty,\r\n        uint _endx,\r\n        uint _endy,\r\n        string calldata _buildingType\r\n    ) external onlyAdmin isEditable {\r\n        City storage city = cities[tokenId];\r\n        city.buildingList[city.numOfBuildings] = Building({\r\n            buildingType: stringToType[_buildingType],\r\n            startx: uint32(_startx),\r\n            starty: uint32(_starty),\r\n            endx: uint32(_endx),\r\n            endy: uint32(_endy),\r\n            level: 0\r\n        });\r\n        city.numOfBuildings += 1;\r\n        city.money = city.money - uint64(price);\r\n    }\r\n\r\n    function addSpecialBuilding(\r\n        uint tokenId,\r\n        uint price,\r\n        uint _startx,\r\n        uint _starty,\r\n        uint _endx,\r\n        uint _endy,\r\n        uint _specialType\r\n    ) external onlyAdmin isEditable {\r\n        City storage city = cities[tokenId];\r\n        city.specialBuildingList[city.numOfSpecialBuildings] = SpecialBuilding({\r\n            specialType: uint32(_specialType),\r\n            startx: uint32(_startx),\r\n            starty: uint32(_starty),\r\n            endx: uint32(_endx),\r\n            endy: uint32(_endy)\r\n        });\r\n        city.numOfSpecialBuildings += 1;\r\n        city.money = city.money - uint64(price);\r\n    }\r\n\r\n    function startGameIncome() external onlyAdmin isEditable {\r\n        require(gameStart == 2000000000, \"Game was already started\");\r\n        gameStart = block.timestamp;\r\n        uint i = 0;\r\n        while(cities[i].owner != address(0)) {\r\n            cities[i].lastPay = gameStart;\r\n            i++;\r\n        }\r\n    }\r\n\r\n    function getIncome(uint tokenId) external onlyAdmin isEditable {\r\n        require(block.timestamp > gameStart, \"Game did not start yet.\");\r\n        require(block.timestamp - cities[tokenId].lastPay > payPeriod, \"Can't get income yet.\");\r\n\r\n        uint n = (block.timestamp - cities[tokenId].lastPay) / payPeriod;\r\n        cities[tokenId].money += uint64(n) * cities[tokenId].income;\r\n        cities[tokenId].lastPay = block.timestamp - ((block.timestamp - gameStart) % payPeriod);\r\n    }\r\n    //_______________________________________________________________________________\r\n    // funkcije za dobijanje podata iz contract-a:\r\n    function getEditableState() external view returns(bool) {\r\n        return editable;\r\n    } // returns true if the cities are editable, and false if they are not\r\n\r\n    struct CityRepresentation {\r\n        address owner;\r\n        uint numOfBuildings;\r\n        uint numOfSpecialBuildings;\r\n        uint[] startx;\r\n        uint[] starty;\r\n        uint[] endx;\r\n        uint[] endy;\r\n        string[] buildingType;\r\n        uint[] specialType;\r\n        uint money;\r\n        uint income;\r\n        uint lastPay;\r\n    } // this is a struct used for returning values from the blockchain\r\n\r\n    function getBuildings(uint tokenId) external view returns(CityRepresentation memory) {\r\n        City storage city = cities[tokenId];\r\n        address owner = city.owner;\r\n        uint numOfBuildings = city.numOfBuildings;\r\n        uint numOfSpecialBuildings  = city.numOfSpecialBuildings;\r\n        uint[] memory startx = new uint[](numOfBuildings + numOfSpecialBuildings);\r\n        uint[] memory starty = new uint[](numOfBuildings + numOfSpecialBuildings);\r\n        uint[] memory endx = new uint[](numOfBuildings + numOfSpecialBuildings);\r\n        uint[] memory endy = new uint[](numOfBuildings + numOfSpecialBuildings);\r\n        string[] memory buildingType = new string[](numOfBuildings);\r\n        uint[] memory specialType = new uint[](numOfSpecialBuildings);\r\n        uint money;\r\n        uint income;\r\n        uint lastPay;\r\n        for(uint i = 0; i < numOfBuildings; i++) {\r\n            startx[i] = city.buildingList[i].startx;\r\n            starty[i] = city.buildingList[i].starty;\r\n            endx[i] = city.buildingList[i].endx;\r\n            endy[i] = city.buildingList[i].endy;\r\n            buildingType[i] = typeToString[city.buildingList[i].buildingType];\r\n        }\r\n        for(uint i = numOfBuildings; i < numOfSpecialBuildings + numOfBuildings; i++) {\r\n            startx[i] = city.specialBuildingList[i-numOfBuildings].startx;\r\n            starty[i] = city.specialBuildingList[i-numOfBuildings].starty;\r\n            endx[i] = city.specialBuildingList[i-numOfBuildings].endx;\r\n            endy[i] = city.specialBuildingList[i-numOfBuildings].endy;\r\n            specialType[i-numOfBuildings] = city.specialBuildingList[i-numOfBuildings].specialType;\r\n        }\r\n        income = city.income;\r\n        money = city.money;\r\n        lastPay = city.lastPay;\r\n        return CityRepresentation({\r\n            owner: owner,\r\n            numOfBuildings: numOfBuildings,\r\n            numOfSpecialBuildings: numOfSpecialBuildings,\r\n            startx: startx,\r\n            starty: starty,\r\n            endx: endx,\r\n            endy: endy,\r\n            buildingType: buildingType,\r\n            specialType: specialType,\r\n            money: money,\r\n            income: income,\r\n            lastPay: lastPay\r\n        });\r\n    } // returns a struct with all the data about the city with the 'tokenId' ID\r\n\r\n    function getMoney(uint tokenId) external view returns(uint) {\r\n        return cities[tokenId].money;\r\n    } // returns the money a city owns\r\n\r\n    function getLastPay(uint tokenId) external view returns(uint) {\r\n        return cities[tokenId].lastPay - gameStart;\r\n    } // returns when was the last time city was payed\r\n\r\n    function getBlockchainTime() external view returns(uint) {\r\n        return block.timestamp;\r\n    } // returns the timestamp from the blockchain\r\n    //_______________________________________________________________________________\r\n\r\n\r\n    // The following modifier is used to check if the person who called the function is the Admin\r\n    modifier onlyAdmin() {\r\n        require(msg.sender == admin, 'The caller of the function is not admin');\r\n        _;\r\n    }\r\n\r\n    // The following modifier is used to check if the cities can be edited - they won't be editable only if a major problem occurs\r\n    modifier isEditable() {\r\n        require(editable == true, 'The blockchain database can not be edited at the moment');\r\n        _;\r\n    }\r\n\r\n    // The following function is called to restrict editing data on the blockchain\r\n    function flipEditableState() public onlyOwner {\r\n        editable = !editable;\r\n    }\r\n\r\n    // function that can change the Admin address in case a proble occurs - can be calles only by the owner\r\n    function changeAdmin(address newAdmin) external onlyOwner {\r\n        admin = newAdmin;\r\n    }\r\n}",
  "sourcePath": "C:\\Users\\Dario Vajda\\OneDrive\\Desktop\\nft project\\nft\\smart_contracts\\contracts\\Gameplay.sol",
  "compiler": {
    "name": "solc",
    "version": "0.8.11+commit.d7f03943.Emscripten.clang"
  },
  "schemaVersion": "3.4.4",
  "updatedAt": "2022-02-07T13:04:18.461Z",
  "networkType": "ethereum",
  "devdoc": {
    "kind": "dev",
    "methods": {
      "initializeCity(address,uint256,uint256,uint256,uint256[],uint256[],uint256[],uint256[],string[],uint256[],uint256)": {
        "details": "Function used for minting new City NFTs",
        "params": {
          "buildingType": "array of strings representing the buildingTypes",
          "endx": "...",
          "endy": "...",
          "income": "the calculated income for the city",
          "numOfBuildings": "number of buildings in the city",
          "numOfSpecialBuildings": "number of special buildings in the city",
          "specialType": "uint array representing the types of the special buildings",
          "startx": "arrays of coordinates for both types of buildings",
          "starty": "...",
          "tokenId": "index of the token being initialized"
        }
      },
      "owner()": {
        "details": "Returns the address of the current owner."
      },
      "renounceOwnership()": {
        "details": "Leaves the contract without owner. It will not be possible to call `onlyOwner` functions anymore. Can only be called by the current owner. NOTE: Renouncing ownership will leave the contract without an owner, thereby removing any functionality that is only available to the owner."
      },
      "transferOwnership(address)": {
        "details": "Transfers ownership of the contract to a new account (`newOwner`). Can only be called by the current owner."
      }
    },
    "version": 1
  },
  "userdoc": {
    "kind": "user",
    "methods": {},
    "version": 1
  }
}